{
  "_format": "hh-sol-artifact-1",
  "contractName": "StakingRewardDistributor",
  "sourceName": "contracts/staking/StakingRewardDistributor.sol",
  "abi": [
    {
      "inputs": [],
      "name": "AccessControlBadConfirmation",
      "type": "error"
    },
    {
      "inputs": [
        {
          "internalType": "address",
          "name": "account",
          "type": "address"
        },
        {
          "internalType": "bytes32",
          "name": "neededRole",
          "type": "bytes32"
        }
      ],
      "name": "AccessControlUnauthorizedAccount",
      "type": "error"
    },
    {
      "inputs": [
        {
          "internalType": "address",
          "name": "target",
          "type": "address"
        }
      ],
      "name": "AddressEmptyCode",
      "type": "error"
    },
    {
      "inputs": [
        {
          "internalType": "address",
          "name": "account",
          "type": "address"
        }
      ],
      "name": "AddressInsufficientBalance",
      "type": "error"
    },
    {
      "inputs": [
        {
          "internalType": "address",
          "name": "implementation",
          "type": "address"
        }
      ],
      "name": "ERC1967InvalidImplementation",
      "type": "error"
    },
    {
      "inputs": [],
      "name": "ERC1967NonPayable",
      "type": "error"
    },
    {
      "inputs": [],
      "name": "FailedInnerCall",
      "type": "error"
    },
    {
      "inputs": [],
      "name": "InvalidInitialization",
      "type": "error"
    },
    {
      "inputs": [],
      "name": "NotInitializing",
      "type": "error"
    },
    {
      "inputs": [],
      "name": "ReentrancyGuardReentrantCall",
      "type": "error"
    },
    {
      "inputs": [
        {
          "internalType": "address",
          "name": "token",
          "type": "address"
        }
      ],
      "name": "SafeERC20FailedOperation",
      "type": "error"
    },
    {
      "inputs": [],
      "name": "TokenAlreadyAdded",
      "type": "error"
    },
    {
      "inputs": [],
      "name": "UUPSUnauthorizedCallContext",
      "type": "error"
    },
    {
      "inputs": [
        {
          "internalType": "bytes32",
          "name": "slot",
          "type": "bytes32"
        }
      ],
      "name": "UUPSUnsupportedProxiableUUID",
      "type": "error"
    },
    {
      "inputs": [],
      "name": "WrongAmount",
      "type": "error"
    },
    {
      "inputs": [],
      "name": "WrongPoolId",
      "type": "error"
    },
    {
      "inputs": [],
      "name": "WrongStakingToken",
      "type": "error"
    },
    {
      "inputs": [],
      "name": "ZeroAddress",
      "type": "error"
    },
    {
      "anonymous": false,
      "inputs": [
        {
          "indexed": true,
          "internalType": "address",
          "name": "user",
          "type": "address"
        },
        {
          "indexed": true,
          "internalType": "uint256",
          "name": "tid",
          "type": "uint256"
        },
        {
          "indexed": false,
          "internalType": "uint256",
          "name": "amount",
          "type": "uint256"
        }
      ],
      "name": "Claimed",
      "type": "event"
    },
    {
      "anonymous": false,
      "inputs": [
        {
          "indexed": true,
          "internalType": "address",
          "name": "user",
          "type": "address"
        },
        {
          "indexed": true,
          "internalType": "uint256",
          "name": "pid",
          "type": "uint256"
        },
        {
          "indexed": false,
          "internalType": "uint256",
          "name": "amount",
          "type": "uint256"
        }
      ],
      "name": "Deposited",
      "type": "event"
    },
    {
      "anonymous": false,
      "inputs": [
        {
          "indexed": false,
          "internalType": "address",
          "name": "receiver",
          "type": "address"
        }
      ],
      "name": "EarlyExitReceiverChanged",
      "type": "event"
    },
    {
      "anonymous": false,
      "inputs": [
        {
          "indexed": true,
          "internalType": "address",
          "name": "user",
          "type": "address"
        },
        {
          "indexed": true,
          "internalType": "uint256",
          "name": "pid",
          "type": "uint256"
        },
        {
          "indexed": false,
          "internalType": "uint256",
          "name": "amount",
          "type": "uint256"
        },
        {
          "indexed": false,
          "internalType": "uint256",
          "name": "amountAdjusted",
          "type": "uint256"
        }
      ],
      "name": "EmergencyWithdrawn",
      "type": "event"
    },
    {
      "anonymous": false,
      "inputs": [
        {
          "indexed": false,
          "internalType": "uint64",
          "name": "version",
          "type": "uint64"
        }
      ],
      "name": "Initialized",
      "type": "event"
    },
    {
      "anonymous": false,
      "inputs": [
        {
          "indexed": true,
          "internalType": "address",
          "name": "token",
          "type": "address"
        },
        {
          "indexed": true,
          "internalType": "uint256",
          "name": "pid",
          "type": "uint256"
        },
        {
          "indexed": false,
          "internalType": "uint256",
          "name": "allocPoint",
          "type": "uint256"
        }
      ],
      "name": "PoolAdded",
      "type": "event"
    },
    {
      "anonymous": false,
      "inputs": [
        {
          "indexed": true,
          "internalType": "address",
          "name": "token",
          "type": "address"
        },
        {
          "indexed": true,
          "internalType": "uint256",
          "name": "pid",
          "type": "uint256"
        },
        {
          "indexed": false,
          "internalType": "uint256",
          "name": "allocPoint",
          "type": "uint256"
        }
      ],
      "name": "PoolSet",
      "type": "event"
    },
    {
      "anonymous": false,
      "inputs": [
        {
          "indexed": true,
          "internalType": "uint256",
          "name": "tid",
          "type": "uint256"
        },
        {
          "indexed": false,
          "internalType": "uint256",
          "name": "rewardPerBlock",
          "type": "uint256"
        }
      ],
      "name": "RewardPerBlockSet",
      "type": "event"
    },
    {
      "anonymous": false,
      "inputs": [
        {
          "indexed": true,
          "internalType": "address",
          "name": "token",
          "type": "address"
        },
        {
          "indexed": true,
          "internalType": "uint256",
          "name": "tid",
          "type": "uint256"
        }
      ],
      "name": "RewardTokenAdded",
      "type": "event"
    },
    {
      "anonymous": false,
      "inputs": [
        {
          "indexed": true,
          "internalType": "bytes32",
          "name": "role",
          "type": "bytes32"
        },
        {
          "indexed": true,
          "internalType": "bytes32",
          "name": "previousAdminRole",
          "type": "bytes32"
        },
        {
          "indexed": true,
          "internalType": "bytes32",
          "name": "newAdminRole",
          "type": "bytes32"
        }
      ],
      "name": "RoleAdminChanged",
      "type": "event"
    },
    {
      "anonymous": false,
      "inputs": [
        {
          "indexed": true,
          "internalType": "bytes32",
          "name": "role",
          "type": "bytes32"
        },
        {
          "indexed": true,
          "internalType": "address",
          "name": "account",
          "type": "address"
        },
        {
          "indexed": true,
          "internalType": "address",
          "name": "sender",
          "type": "address"
        }
      ],
      "name": "RoleGranted",
      "type": "event"
    },
    {
      "anonymous": false,
      "inputs": [
        {
          "indexed": true,
          "internalType": "bytes32",
          "name": "role",
          "type": "bytes32"
        },
        {
          "indexed": true,
          "internalType": "address",
          "name": "account",
          "type": "address"
        },
        {
          "indexed": true,
          "internalType": "address",
          "name": "sender",
          "type": "address"
        }
      ],
      "name": "RoleRevoked",
      "type": "event"
    },
    {
      "anonymous": false,
      "inputs": [
        {
          "indexed": true,
          "internalType": "address",
          "name": "implementation",
          "type": "address"
        }
      ],
      "name": "Upgraded",
      "type": "event"
    },
    {
      "anonymous": false,
      "inputs": [
        {
          "indexed": true,
          "internalType": "address",
          "name": "user",
          "type": "address"
        },
        {
          "indexed": true,
          "internalType": "uint256",
          "name": "pid",
          "type": "uint256"
        },
        {
          "indexed": false,
          "internalType": "uint256",
          "name": "amount",
          "type": "uint256"
        },
        {
          "indexed": false,
          "internalType": "uint256",
          "name": "amountAdjusted",
          "type": "uint256"
        }
      ],
      "name": "Withdrawn",
      "type": "event"
    },
    {
      "inputs": [],
      "name": "BLOCKS_IN_2_WEEKS",
      "outputs": [
        {
          "internalType": "uint256",
          "name": "",
          "type": "uint256"
        }
      ],
      "stateMutability": "view",
      "type": "function"
    },
    {
      "inputs": [],
      "name": "BLOCKS_IN_4_MONTHS",
      "outputs": [
        {
          "internalType": "uint256",
          "name": "",
          "type": "uint256"
        }
      ],
      "stateMutability": "view",
      "type": "function"
    },
    {
      "inputs": [],
      "name": "DEFAULT_ADMIN_ROLE",
      "outputs": [
        {
          "internalType": "bytes32",
          "name": "",
          "type": "bytes32"
        }
      ],
      "stateMutability": "view",
      "type": "function"
    },
    {
      "inputs": [],
      "name": "DISTRIBUTOR_ROLE",
      "outputs": [
        {
          "internalType": "bytes32",
          "name": "",
          "type": "bytes32"
        }
      ],
      "stateMutability": "view",
      "type": "function"
    },
    {
      "inputs": [],
      "name": "EXIT_PERCENT",
      "outputs": [
        {
          "internalType": "uint256",
          "name": "",
          "type": "uint256"
        }
      ],
      "stateMutability": "view",
      "type": "function"
    },
    {
      "inputs": [],
      "name": "PERCENT_DENOMINATOR",
      "outputs": [
        {
          "internalType": "uint256",
          "name": "",
          "type": "uint256"
        }
      ],
      "stateMutability": "view",
      "type": "function"
    },
    {
      "inputs": [],
      "name": "RECAPITALIZATION_ROLE",
      "outputs": [
        {
          "internalType": "bytes32",
          "name": "",
          "type": "bytes32"
        }
      ],
      "stateMutability": "view",
      "type": "function"
    },
    {
      "inputs": [],
      "name": "UPGRADE_INTERFACE_VERSION",
      "outputs": [
        {
          "internalType": "string",
          "name": "",
          "type": "string"
        }
      ],
      "stateMutability": "view",
      "type": "function"
    },
    {
      "inputs": [
        {
          "internalType": "uint256",
          "name": "_allocPoint",
          "type": "uint256"
        },
        {
          "internalType": "contract IERC20",
          "name": "_token",
          "type": "address"
        },
        {
          "internalType": "contract IERC20Supplied",
          "name": "_stakingToken",
          "type": "address"
        },
        {
          "internalType": "bool",
          "name": "_withUpdate",
          "type": "bool"
        }
      ],
      "name": "addPool",
      "outputs": [],
      "stateMutability": "nonpayable",
      "type": "function"
    },
    {
      "inputs": [
        {
          "internalType": "contract IERC20",
          "name": "_token",
          "type": "address"
        }
      ],
      "name": "addRewardToken",
      "outputs": [],
      "stateMutability": "nonpayable",
      "type": "function"
    },
    {
      "inputs": [
        {
          "internalType": "uint256",
          "name": "_tid",
          "type": "uint256"
        }
      ],
      "name": "claim",
      "outputs": [],
      "stateMutability": "nonpayable",
      "type": "function"
    },
    {
      "inputs": [],
      "name": "claimAll",
      "outputs": [],
      "stateMutability": "nonpayable",
      "type": "function"
    },
    {
      "inputs": [
        {
          "internalType": "uint256",
          "name": "",
          "type": "uint256"
        },
        {
          "internalType": "address",
          "name": "",
          "type": "address"
        }
      ],
      "name": "claimedRewards",
      "outputs": [
        {
          "internalType": "uint256",
          "name": "",
          "type": "uint256"
        }
      ],
      "stateMutability": "view",
      "type": "function"
    },
    {
      "inputs": [
        {
          "internalType": "uint256",
          "name": "_pid",
          "type": "uint256"
        },
        {
          "internalType": "uint256",
          "name": "_amount",
          "type": "uint256"
        }
      ],
      "name": "deposit",
      "outputs": [],
      "stateMutability": "nonpayable",
      "type": "function"
    },
    {
      "inputs": [
        {
          "internalType": "uint256",
          "name": "tid",
          "type": "uint256"
        },
        {
          "internalType": "uint256",
          "name": "amount",
          "type": "uint256"
        }
      ],
      "name": "distribute",
      "outputs": [],
      "stateMutability": "nonpayable",
      "type": "function"
    },
    {
      "inputs": [],
      "name": "earlyExitReceiver",
      "outputs": [
        {
          "internalType": "address",
          "name": "",
          "type": "address"
        }
      ],
      "stateMutability": "view",
      "type": "function"
    },
    {
      "inputs": [],
      "name": "getAllPools",
      "outputs": [
        {
          "components": [
            {
              "internalType": "contract IERC20",
              "name": "token",
              "type": "address"
            },
            {
              "internalType": "contract IERC20Supplied",
              "name": "stakingToken",
              "type": "address"
            },
            {
              "internalType": "uint256",
              "name": "allocPoint",
              "type": "uint256"
            },
            {
              "internalType": "uint256[]",
              "name": "accRewardsPerShare",
              "type": "uint256[]"
            },
            {
              "internalType": "uint256[]",
              "name": "lastRewardBlocks",
              "type": "uint256[]"
            }
          ],
          "internalType": "struct StakingRewardDistributor.PoolInfo[]",
          "name": "",
          "type": "tuple[]"
        }
      ],
      "stateMutability": "view",
      "type": "function"
    },
    {
      "inputs": [
        {
          "internalType": "uint256",
          "name": "_tid",
          "type": "uint256"
        },
        {
          "internalType": "uint256",
          "name": "_pid",
          "type": "uint256"
        },
        {
          "internalType": "address",
          "name": "_user",
          "type": "address"
        }
      ],
      "name": "getPendingReward",
      "outputs": [
        {
          "internalType": "uint256",
          "name": "total",
          "type": "uint256"
        }
      ],
      "stateMutability": "view",
      "type": "function"
    },
    {
      "inputs": [
        {
          "internalType": "uint256",
          "name": "pid",
          "type": "uint256"
        }
      ],
      "name": "getPoolTokenRatio",
      "outputs": [
        {
          "internalType": "uint256",
          "name": "",
          "type": "uint256"
        }
      ],
      "stateMutability": "view",
      "type": "function"
    },
    {
      "inputs": [
        {
          "internalType": "bytes32",
          "name": "role",
          "type": "bytes32"
        }
      ],
      "name": "getRoleAdmin",
      "outputs": [
        {
          "internalType": "bytes32",
          "name": "",
          "type": "bytes32"
        }
      ],
      "stateMutability": "view",
      "type": "function"
    },
    {
      "inputs": [
        {
          "internalType": "bytes32",
          "name": "role",
          "type": "bytes32"
        },
        {
          "internalType": "address",
          "name": "account",
          "type": "address"
        }
      ],
      "name": "grantRole",
      "outputs": [],
      "stateMutability": "nonpayable",
      "type": "function"
    },
    {
      "inputs": [
        {
          "internalType": "bytes32",
          "name": "role",
          "type": "bytes32"
        },
        {
          "internalType": "address",
          "name": "account",
          "type": "address"
        }
      ],
      "name": "hasRole",
      "outputs": [
        {
          "internalType": "bool",
          "name": "",
          "type": "bool"
        }
      ],
      "stateMutability": "view",
      "type": "function"
    },
    {
      "inputs": [],
      "name": "initialize",
      "outputs": [],
      "stateMutability": "nonpayable",
      "type": "function"
    },
    {
      "inputs": [
        {
          "internalType": "contract IERC20",
          "name": "_token",
          "type": "address"
        }
      ],
      "name": "isPoolAdded",
      "outputs": [
        {
          "internalType": "bool",
          "name": "",
          "type": "bool"
        }
      ],
      "stateMutability": "view",
      "type": "function"
    },
    {
      "inputs": [
        {
          "internalType": "address",
          "name": "_token",
          "type": "address"
        }
      ],
      "name": "isRewardTokenAdded",
      "outputs": [
        {
          "internalType": "bool",
          "name": "",
          "type": "bool"
        }
      ],
      "stateMutability": "view",
      "type": "function"
    },
    {
      "inputs": [
        {
          "internalType": "address",
          "name": "from",
          "type": "address"
        },
        {
          "internalType": "address",
          "name": "to",
          "type": "address"
        },
        {
          "internalType": "uint256",
          "name": "value",
          "type": "uint256"
        }
      ],
      "name": "onERC20Update",
      "outputs": [],
      "stateMutability": "nonpayable",
      "type": "function"
    },
    {
      "inputs": [],
      "name": "poolCount",
      "outputs": [
        {
          "internalType": "uint256",
          "name": "",
          "type": "uint256"
        }
      ],
      "stateMutability": "view",
      "type": "function"
    },
    {
      "inputs": [
        {
          "internalType": "uint256",
          "name": "",
          "type": "uint256"
        }
      ],
      "name": "poolInfo",
      "outputs": [
        {
          "internalType": "contract IERC20",
          "name": "token",
          "type": "address"
        },
        {
          "internalType": "contract IERC20Supplied",
          "name": "stakingToken",
          "type": "address"
        },
        {
          "internalType": "uint256",
          "name": "allocPoint",
          "type": "uint256"
        }
      ],
      "stateMutability": "view",
      "type": "function"
    },
    {
      "inputs": [
        {
          "internalType": "address",
          "name": "",
          "type": "address"
        }
      ],
      "name": "poolPidByAddress",
      "outputs": [
        {
          "internalType": "uint256",
          "name": "",
          "type": "uint256"
        }
      ],
      "stateMutability": "view",
      "type": "function"
    },
    {
      "inputs": [
        {
          "internalType": "address",
          "name": "",
          "type": "address"
        }
      ],
      "name": "poolPidByStakingAddress",
      "outputs": [
        {
          "internalType": "uint256",
          "name": "",
          "type": "uint256"
        }
      ],
      "stateMutability": "view",
      "type": "function"
    },
    {
      "inputs": [],
      "name": "proxiableUUID",
      "outputs": [
        {
          "internalType": "bytes32",
          "name": "",
          "type": "bytes32"
        }
      ],
      "stateMutability": "view",
      "type": "function"
    },
    {
      "inputs": [
        {
          "internalType": "uint256",
          "name": "_pid",
          "type": "uint256"
        },
        {
          "internalType": "uint256",
          "name": "_allocPoint",
          "type": "uint256"
        },
        {
          "internalType": "bool",
          "name": "_withUpdate",
          "type": "bool"
        }
      ],
      "name": "reallocatePool",
      "outputs": [],
      "stateMutability": "nonpayable",
      "type": "function"
    },
    {
      "inputs": [
        {
          "internalType": "uint256",
          "name": "",
          "type": "uint256"
        }
      ],
      "name": "recapitalizedAmounts",
      "outputs": [
        {
          "internalType": "uint256",
          "name": "",
          "type": "uint256"
        }
      ],
      "stateMutability": "view",
      "type": "function"
    },
    {
      "inputs": [
        {
          "internalType": "bytes32",
          "name": "role",
          "type": "bytes32"
        },
        {
          "internalType": "address",
          "name": "callerConfirmation",
          "type": "address"
        }
      ],
      "name": "renounceRole",
      "outputs": [],
      "stateMutability": "nonpayable",
      "type": "function"
    },
    {
      "inputs": [
        {
          "internalType": "address",
          "name": "token",
          "type": "address"
        },
        {
          "internalType": "uint256",
          "name": "amount",
          "type": "uint256"
        }
      ],
      "name": "returnPoolToken",
      "outputs": [],
      "stateMutability": "nonpayable",
      "type": "function"
    },
    {
      "inputs": [
        {
          "internalType": "bytes32",
          "name": "role",
          "type": "bytes32"
        },
        {
          "internalType": "address",
          "name": "account",
          "type": "address"
        }
      ],
      "name": "revokeRole",
      "outputs": [],
      "stateMutability": "nonpayable",
      "type": "function"
    },
    {
      "inputs": [],
      "name": "rewardTokenCount",
      "outputs": [
        {
          "internalType": "uint256",
          "name": "",
          "type": "uint256"
        }
      ],
      "stateMutability": "view",
      "type": "function"
    },
    {
      "inputs": [
        {
          "internalType": "uint256",
          "name": "",
          "type": "uint256"
        }
      ],
      "name": "rewardTokenInfo",
      "outputs": [
        {
          "internalType": "contract IERC20",
          "name": "token",
          "type": "address"
        },
        {
          "internalType": "uint256",
          "name": "rewardPerBlock",
          "type": "uint256"
        },
        {
          "internalType": "uint256",
          "name": "distributionBlock",
          "type": "uint256"
        }
      ],
      "stateMutability": "view",
      "type": "function"
    },
    {
      "inputs": [
        {
          "internalType": "address",
          "name": "",
          "type": "address"
        }
      ],
      "name": "rewardTokenTidByAddress",
      "outputs": [
        {
          "internalType": "uint256",
          "name": "",
          "type": "uint256"
        }
      ],
      "stateMutability": "view",
      "type": "function"
    },
    {
      "inputs": [
        {
          "internalType": "uint256",
          "name": "",
          "type": "uint256"
        },
        {
          "internalType": "address",
          "name": "",
          "type": "address"
        }
      ],
      "name": "rewards",
      "outputs": [
        {
          "internalType": "uint256",
          "name": "",
          "type": "uint256"
        }
      ],
      "stateMutability": "view",
      "type": "function"
    },
    {
      "inputs": [
        {
          "internalType": "address",
          "name": "_receiver",
          "type": "address"
        }
      ],
      "name": "setEarlyExitReceiver",
      "outputs": [],
      "stateMutability": "nonpayable",
      "type": "function"
    },
    {
      "inputs": [
        {
          "internalType": "bytes4",
          "name": "interfaceId",
          "type": "bytes4"
        }
      ],
      "name": "supportsInterface",
      "outputs": [
        {
          "internalType": "bool",
          "name": "",
          "type": "bool"
        }
      ],
      "stateMutability": "view",
      "type": "function"
    },
    {
      "inputs": [],
      "name": "totalAllocPoint",
      "outputs": [
        {
          "internalType": "uint256",
          "name": "",
          "type": "uint256"
        }
      ],
      "stateMutability": "view",
      "type": "function"
    },
    {
      "inputs": [
        {
          "internalType": "uint256",
          "name": "",
          "type": "uint256"
        }
      ],
      "name": "totalAmounts",
      "outputs": [
        {
          "internalType": "uint256",
          "name": "",
          "type": "uint256"
        }
      ],
      "stateMutability": "view",
      "type": "function"
    },
    {
      "inputs": [],
      "name": "updateAllPools",
      "outputs": [],
      "stateMutability": "nonpayable",
      "type": "function"
    },
    {
      "inputs": [
        {
          "internalType": "uint256",
          "name": "_pid",
          "type": "uint256"
        }
      ],
      "name": "updatePool",
      "outputs": [],
      "stateMutability": "nonpayable",
      "type": "function"
    },
    {
      "inputs": [
        {
          "internalType": "address",
          "name": "newImplementation",
          "type": "address"
        },
        {
          "internalType": "bytes",
          "name": "data",
          "type": "bytes"
        }
      ],
      "name": "upgradeToAndCall",
      "outputs": [],
      "stateMutability": "payable",
      "type": "function"
    },
    {
      "inputs": [
        {
          "internalType": "uint256",
          "name": "",
          "type": "uint256"
        },
        {
          "internalType": "address",
          "name": "",
          "type": "address"
        }
      ],
      "name": "userPoolInfo",
      "outputs": [
        {
          "internalType": "uint256",
          "name": "amount",
          "type": "uint256"
        },
        {
          "internalType": "uint256",
          "name": "depositedBlock",
          "type": "uint256"
        }
      ],
      "stateMutability": "view",
      "type": "function"
    },
    {
      "inputs": [],
      "name": "version",
      "outputs": [
        {
          "internalType": "uint256",
          "name": "",
          "type": "uint256"
        }
      ],
      "stateMutability": "pure",
      "type": "function"
    },
    {
      "inputs": [
        {
          "internalType": "uint256",
          "name": "_pid",
          "type": "uint256"
        },
        {
          "internalType": "uint256",
          "name": "_amount",
          "type": "uint256"
        }
      ],
      "name": "withdraw",
      "outputs": [],
      "stateMutability": "nonpayable",
      "type": "function"
    },
    {
      "inputs": [
        {
          "internalType": "uint256",
          "name": "_pid",
          "type": "uint256"
        }
      ],
      "name": "withdrawEmergency",
      "outputs": [],
      "stateMutability": "nonpayable",
      "type": "function"
    },
    {
      "inputs": [
        {
          "internalType": "address",
          "name": "token",
          "type": "address"
        },
        {
          "internalType": "uint256",
          "name": "amount",
          "type": "uint256"
        }
      ],
      "name": "withdrawPoolToken",
      "outputs": [],
      "stateMutability": "nonpayable",
      "type": "function"
    },
    {
      "inputs": [
        {
          "internalType": "contract IERC20",
          "name": "_token",
          "type": "address"
        }
      ],
      "name": "withdrawStuckToken",
      "outputs": [],
      "stateMutability": "nonpayable",
      "type": "function"
    }
  ],
  "bytecode": "0x60a06040523060805234801561001457600080fd5b5060805161419561003e6000396000818161366c0152818161369501526137de01526141956000f3fe60806040526004361061031a5760003560e01c80638129fc1c116101ab578063b9ec7d74116100f7578063e364332211610095578063f0bd87cc1161006f578063f0bd87cc146109ef578063f2db11af14610a23578063f3f14ed014610a5b578063f525cb6814610a8857600080fd5b8063e364332214610982578063e5685823146109af578063ec08ec7d146109cf57600080fd5b8063d1058e59116100d1578063d1058e591461090b578063d547741f14610920578063d88ff1f414610940578063e2bbb1581461096257600080fd5b8063b9ec7d741461089e578063ba9bc673146108b3578063cd5d9ae7146108d357600080fd5b8063abb06b9511610164578063b1c20abe1161013e578063b1c20abe146107f9578063b33068c414610826578063b48294221461085e578063b6663e941461087e57600080fd5b8063abb06b9514610772578063ad3cb1cc14610787578063af8ef87c146107c557600080fd5b80638129fc1c146106dd57806382a4469c146106f25780638f44dd551461071257806391d14854146107275780639e6c295914610747578063a217fddf1461075d57600080fd5b8063379607f51161026a5780634e27072a1161022357806352d1902d116101fd57806352d1902d1461066757806354fd4d501461067c57806368ee4ed0146106905780637625391a146106bd57600080fd5b80634e27072a146105e05780634f1ef2861461063457806351eb05a61461064757600080fd5b8063379607f51461050457806337e7386014610524578063441a3e70146105445780634479fc67146105645780634b44c239146105a95780634be2890f146105c957600080fd5b80632321563b116102d757806329a16616116102b157806329a16616146104775780632f2ff15d1461049757806332066a44146104b757806336568abe146104e457600080fd5b80632321563b14610420578063248a9ca314610437578063298e4db71461045757600080fd5b806301ffc9a71461031f578063068019f814610354578063068acf6c146103765780631526fe271461039657806317caf6f1146103dc5780631c03e6cc14610400575b600080fd5b34801561032b57600080fd5b5061033f61033a366004613c01565b610a9d565b60405190151581526020015b60405180910390f35b34801561036057600080fd5b5061037461036f366004613c2b565b610ad4565b005b34801561038257600080fd5b50610374610391366004613c59565b610d11565b3480156103a257600080fd5b506103b66103b1366004613c2b565b610da8565b604080516001600160a01b0394851681529390921660208401529082015260600161034b565b3480156103e857600080fd5b506103f260085481565b60405190815260200161034b565b34801561040c57600080fd5b5061037461041b366004613c59565b610de8565b34801561042c57600080fd5b506103f2620189c081565b34801561044357600080fd5b506103f2610452366004613c2b565b610faf565b34801561046357600080fd5b50610374610472366004613c76565b610fd1565b34801561048357600080fd5b506103f2610492366004613ca2565b6111a0565b3480156104a357600080fd5b506103746104b2366004613cdb565b6114a7565b3480156104c357600080fd5b506103f26104d2366004613c2b565b600a6020526000908152604090205481565b3480156104f057600080fd5b506103746104ff366004613cdb565b6114c9565b34801561051057600080fd5b5061037461051f366004613c2b565b6114fc565b34801561053057600080fd5b5061037461053f366004613d19565b61175b565b34801561055057600080fd5b5061037461055f366004613d6c565b611b4c565b34801561057057600080fd5b5061058461057f366004613c2b565b611f15565b604080516001600160a01b03909416845260208401929092529082015260600161034b565b3480156105b557600080fd5b506103746105c4366004613d8e565b611f52565b3480156105d557600080fd5b506103f2620d2f0081565b3480156105ec57600080fd5b5061061f6105fb366004613cdb565b60076020908152600092835260408084209091529082529020805460029091015482565b6040805192835260208301919091520161034b565b610374610642366004613dd2565b612040565b34801561065357600080fd5b50610374610662366004613c2b565b61205b565b34801561067357600080fd5b506103f26122c9565b34801561068857600080fd5b5060016103f2565b34801561069c57600080fd5b506103f26106ab366004613c2b565b60096020526000908152604090205481565b3480156106c957600080fd5b506103746106d8366004613d6c565b6122e6565b3480156106e957600080fd5b50610374612447565b3480156106fe57600080fd5b5061033f61070d366004613c59565b612570565b34801561071e57600080fd5b506103f2609681565b34801561073357600080fd5b5061033f610742366004613cdb565b6125d4565b34801561075357600080fd5b506103f26103e881565b34801561076957600080fd5b506103f2600081565b34801561077e57600080fd5b506000546103f2565b34801561079357600080fd5b506107b8604051806040016040528060058152602001640352e302e360dc1b81525081565b60405161034b9190613eba565b3480156107d157600080fd5b506103f27f34b5ef4b2be4eab765d268506dd12a649d8311490c68ca505d5c044e1d207b7181565b34801561080557600080fd5b506103f2610814366004613c59565b60016020526000908152604090205481565b34801561083257600080fd5b506103f2610841366004613cdb565b600360209081526000928352604080842090915290825290205481565b34801561086a57600080fd5b50610374610879366004613eed565b61260c565b34801561088a57600080fd5b50610374610899366004613c59565b6128f2565b3480156108aa57600080fd5b50610374612979565b3480156108bf57600080fd5b506103f26108ce366004613c2b565b6129bb565b3480156108df57600080fd5b50600b546108f3906001600160a01b031681565b6040516001600160a01b03909116815260200161034b565b34801561091757600080fd5b50610374612a00565b34801561092c57600080fd5b5061037461093b366004613cdb565b612c52565b34801561094c57600080fd5b50610955612c6e565b60405161034b9190613f6a565b34801561096e57600080fd5b5061037461097d366004613d6c565b612d9f565b34801561098e57600080fd5b506103f261099d366004613c59565b60066020526000908152604090205481565b3480156109bb57600080fd5b5061033f6109ca366004613c59565b6130ca565b3480156109db57600080fd5b506103746109ea366004613c76565b61312d565b3480156109fb57600080fd5b506103f27ffbd454f36a7e1a388bd6fc3ab10d434aa4578f811acbbcf33afb1c697486313c81565b348015610a2f57600080fd5b506103f2610a3e366004613cdb565b600260209081526000928352604080842090915290825290205481565b348015610a6757600080fd5b506103f2610a76366004613c59565b60056020526000908152604090205481565b348015610a9457600080fd5b506004546103f2565b60006001600160e01b03198216637965db0b60e01b1480610ace57506301ffc9a760e01b6001600160e01b03198316145b92915050565b610adc6132e2565b600060048281548110610af157610af1614022565b60009182526020808320858452600782526040808520338652909252908320600590920201925090670de0b6b3a7640000610b2b856129bb565b8354610b37919061404e565b610b419190614065565b60028301549091508190620d2f0090610b5a9043614087565b11610bd2576103e8610b6d609682614087565b610b77908461404e565b610b819190614065565b600b54909150610bd2906001600160a01b0316610b9e8385614087565b60048881548110610bb157610bb1614022565b60009182526020909120600590910201546001600160a01b0316919061331a565b60018401546001600160a01b03168015610c4a57835460405163079cc67960e41b815233600482015260248101919091526001600160a01b038216906379cc679090604401600060405180830381600087803b158015610c3157600080fd5b505af1158015610c45573d6000803e3d6000fd5b505050505b83546040805191825260208201859052879133917f45df01186fed55abc3ac9cfa82408e10553b9b93a8f0c0b4c2965a7bedb267ec910160405180910390a3835460008781526009602052604081208054909190610ca9908490614087565b909155505060008085558054905b81811015610cda5760008181526001808801602052604082209190915501610cb7565b508554610cf1906001600160a01b0316338561331a565b505050505050610d0e600160008051602061414083398151915255565b50565b6000610d1c8161338d565b6040516370a0823160e01b81523060048201526000906001600160a01b038416906370a0823190602401602060405180830381865afa158015610d63573d6000803e3d6000fd5b505050506040513d601f19601f82011682018060405250810190610d87919061409a565b90508015610da357610da36001600160a01b038416338361331a565b505050565b60048181548110610db857600080fd5b60009182526020909120600590910201805460018201546002909201546001600160a01b03918216935091169083565b6000610df38161338d565b610dfc826130ca565b15610e1a5760405163630b374b60e01b815260040160405180910390fd5b60008054604080516060810182526001600160a01b03868116808352602080840187815284860188815260018089018a5589805295517f290decd9548b62a8d60345a988386fc84ba6bc95484008f6362f93160ef3e56360038a0290810180546001600160a01b031916929097169190911790955590517f290decd9548b62a8d60345a988386fc84ba6bc95484008f6362f93160ef3e564850155517f290decd9548b62a8d60345a988386fc84ba6bc95484008f6362f93160ef3e56590930192909255855252822081905560045490915b81811015610f725760048181548110610f0757610f07614022565b600091825260208083206004600590930201820180546001810182559084529083200191909155805482908110610f4057610f40614022565b600091825260208083206003600590930201919091018054600181810183559184529183209091019190915501610eec565b5060405182906001600160a01b038616907f68e3e9397770d9dfa88c0953a34e1a70a05416b3895957f5b689787a920791c490600090a350505050565b6000908152600080516020614120833981519152602052604090206001015490565b7f34b5ef4b2be4eab765d268506dd12a649d8311490c68ca505d5c044e1d207b71610ffb8161338d565b6001600160a01b038316600090815260056020526040812054600480549192918390811061102b5761102b614022565b60009182526020918290206040805160a081018252600590930290910180546001600160a01b03908116845260018201541683850152600281015483830152600381018054835181870281018701909452808452939491936060860193928301828280156110b857602002820191906000526020600020905b8154815260200190600101908083116110a4575b505050505081526020016004820180548060200260200160405190810160405280929190818152602001828054801561111057602002820191906000526020600020905b8154815260200190600101908083116110fc575b505050919092525050506000838152600a602090815260408083205460099092529091205491925061114191614087565b8410611160576040516349986e7360e01b815260040160405180910390fd5b6000828152600a60205260408120805486929061117e9084906140b3565b90915550508051611199906001600160a01b0316338661331a565b5050505050565b600080600085815481106111b6576111b6614022565b6000918252602080832060408051606081018252600390940290910180546001600160a01b031684526001810154928401929092526002909101549082015260048054919350908690811061120d5761120d614022565b60009182526020918290206040805160a081018252600590930290910180546001600160a01b039081168452600182015416838501526002810154838301526003810180548351818702810187019094528084529394919360608601939283018282801561129a57602002820191906000526020600020905b815481526020019060010190808311611286575b50505050508152602001600482018054806020026020016040519081016040528092919081815260200182805480156112f257602002820191906000526020600020905b8154815260200190600101908083116112de575b50505091909252505050604083015190915043611312620189c0836140b3565b81111561132957611326620189c0836140b3565b90505b6000878152600960205260408120549081900361134e576000955050505050506114a0565b600084608001518a8151811061136657611366614022565b6020026020010151836113799190614087565b905084608001518a8151811061139157611391614022565b60200260200101516000036113a4575060005b600060085486604001518860200151846113be919061404e565b6113c8919061404e565b6113d29190614065565b90506000836113e664e8d4a510008461404e565b6113f09190614065565b87606001518d8151811061140657611406614022565b602002602001015161141891906140b3565b90506000600760008d815260200190815260200160002060008c6001600160a01b03166001600160a01b0316815260200190815260200160002090508060010160008e81526020019081526020016000205464e8d4a51000838360000154611480919061404e565b61148a9190614065565b6114949190614087565b99505050505050505050505b9392505050565b6114b082610faf565b6114b98161338d565b6114c38383613397565b50505050565b6001600160a01b03811633146114f25760405163334bd91960e11b815260040160405180910390fd5b610da3828261343c565b6115046132e2565b60005b6004548110156116635761151a8161205b565b61152482826134b8565b600081815260076020908152604080832033845290915290206004805461164b9185918590811061155757611557614022565b60009182526020918290206040805160a081018252600590930290910180546001600160a01b03908116845260018201541683850152600281015483830152600381018054835181870281018701909452808452939491936060860193928301828280156115e457602002820191906000526020600020905b8154815260200190600101908083116115d0575b505050505081526020016004820180548060200260200160405190810160405280929190818152602001828054801561163c57602002820191906000526020600020905b815481526020019060010190808311611628575b50505050508152505083613547565b60008481526001928301602052604090205501611507565b6000828152600360209081526040808320338085529083528184205486855260028452828520918552925282205461169b9190614087565b905080156116dd576116da600084815481106116b9576116b9614022565b60009182526020909120600390910201546001600160a01b0316338361358e565b90505b6000838152600360209081526040808320338452909152812080548392906117069084906140b3565b9091555050604051818152839033907f987d620f307ff6b94d58743cb7a7509f24071586a77759b77c2d4e29f75a2f9a9060200160405180910390a35050610d0e600160008051602061414083398151915255565b60006117668161338d565b61176f84612570565b1561178d5760405163630b374b60e01b815260040160405180910390fd5b811561179b5761179b612979565b6000805467ffffffffffffffff8111156117b7576117b7613dbc565b6040519080825280602002602001820160405280156117e0578160200160208202803683370190505b50600080549192509067ffffffffffffffff81111561180157611801613dbc565b60405190808252806020026020018201604052801561182a578160200160208202803683370190505b50600080549192505b8181101561192257600080828154811061184f5761184f614022565b90600052602060002090600302016002015411801561189257506000818154811061187c5761187c614022565b9060005260206000209060030201600201544310155b80156118d05750620189c0600082815481106118b0576118b0614022565b9060005260206000209060030201600201546118cc91906140b3565b4311155b6118db5760006118dd565b435b8482815181106118ef576118ef614022565b602002602001018181525050600083828151811061190f5761190f614022565b6020908102919091010152600101611833565b50876008600082825461193591906140b3565b9091555050600480546040805160a0810182526001600160a01b03808c1682528a811660208084019182529383018e815260608401898152608085018b90526001870188556000979097528351600587027f8a35acfbc15ff81a39ae7d344fd709f28e8600b4aa8c65c6b64bfe7fe36bd19b810180549286166001600160a01b031993841617815593517f8a35acfbc15ff81a39ae7d344fd709f28e8600b4aa8c65c6b64bfe7fe36bd19c8201805491909616921691909117909355517f8a35acfbc15ff81a39ae7d344fd709f28e8600b4aa8c65c6b64bfe7fe36bd19d83015594518051949592949293611a51937f8a35acfbc15ff81a39ae7d344fd709f28e8600b4aa8c65c6b64bfe7fe36bd19e90930192910190613ba1565b5060808201518051611a6d916004840191602090910190613ba1565b5050506001600160a01b038089166000908152600560205260409020829055871615611afd576001600160a01b03871660008181526006602052604090819020839055516395b8a42f60e01b81523060048201526395b8a42f90602401600060405180830381600087803b158015611ae457600080fd5b505af1158015611af8573d6000803e3d6000fd5b505050505b80886001600160a01b03167f09f4ecfc148afa46d7c66093530f34af617875df3897405026a6f13425a677098b604051611b3991815260200190565b60405180910390a3505050505050505050565b611b546132e2565b6000828152600760209081526040808320338452909152902054811115611b8e576040516349986e7360e01b815260040160405180910390fd5b611b978261205b565b60008054905b81811015611bb757611baf81856134b8565b600101611b9d565b506000838152600760209081526040808320338452909152812090670de0b6b3a7640000611be4866129bb565b611bee908661404e565b611bf89190614065565b90508315611d6e5783826000016000828254611c149190614087565b909155505060008581526009602052604081208054869290611c37908490614087565b909155505060028201548190620d2f0090611c529043614087565b11611ca9576103e8611c65609682614087565b611c6f908461404e565b611c799190614065565b600b54909150611ca9906001600160a01b0316611c968385614087565b60048981548110610bb157610bb1614022565b611cc1338260048981548110610bb157610bb1614022565b600060048781548110611cd657611cd6614022565b60009182526020909120600160059092020101546001600160a01b031690508015611d6b57611d106001600160a01b038216333089613628565b604051630852cd8d60e31b8152600481018790526001600160a01b038216906342966c6890602401600060405180830381600087803b158015611d5257600080fd5b505af1158015611d66573d6000803e3d6000fd5b505050505b50505b60005b83811015611eb957611e9d8160048881548110611d9057611d90614022565b60009182526020918290206040805160a081018252600590930290910180546001600160a01b0390811684526001820154168385015260028101548383015260038101805483518187028101870190945280845293949193606086019392830182828015611e1d57602002820191906000526020600020905b815481526020019060010190808311611e09575b5050505050815260200160048201805480602002602001604051908101604052809291908181526020018280548015611e7557602002820191906000526020600020905b815481526020019060010190808311611e61575b5050509190925250505060008981526007602090815260408083203384529091529020613547565b6000828152600180860160205260409091209190915501611d71565b506040805185815260208101839052869133917f75e161b3e824b114fc1a33274bd7091918dd4e639cede50b78b15a4eea956a21910160405180910390a3505050611f11600160008051602061414083398151915255565b5050565b60008181548110611f2557600080fd5b60009182526020909120600390910201805460018201546002909201546001600160a01b03909116925083565b6000611f5d8161338d565b8115611f6b57611f6b612979565b8260048581548110611f7f57611f7f614022565b906000526020600020906005020160020154600854611f9e9190614087565b611fa891906140b3565b6008819055508260048581548110611fc257611fc2614022565b9060005260206000209060050201600201819055508360048581548110611feb57611feb614022565b6000918252602091829020600590910201546040518681526001600160a01b03909116917fea29fe89a87fa3313f2a2660ae50c64e4b4993a7cd15a28cc57dd2910e998254910160405180910390a350505050565b612048613661565b61205182613706565b611f118282613711565b60006004828154811061207057612070614022565b6000918252602080832085845260099091526040832054835460059093029091019350915b8181101561119957600043905060008083815481106120b6576120b6614022565b6000918252602080832060408051606081018252600390940290910180546001600160a01b031684526001810154928401929092526002909101549082018190529092509081900361210a575050506122c1565b612117620189c0826140b3565b83111561212e5761212b620189c0826140b3565b92505b85600003612162578287600401858154811061214c5761214c614022565b90600052602060002001819055505050506122c1565b86600401848154811061217757612177614022565b90600052602060002001548311612190575050506122c1565b8660040184815481106121a5576121a5614022565b90600052602060002001546000036121da57828760040185815481106121cd576121cd614022565b6000918252602090912001555b60008760040185815481106121f1576121f1614022565b9060005260206000200154846122079190614087565b9050620189c081111561221a5750620189c05b60006008548960020154856020015184612234919061404e565b61223e919061404e565b6122489190614065565b90508761225a64e8d4a510008361404e565b6122649190614065565b89600301878154811061227957612279614022565b90600052602060002001600082825461229291906140b3565b92505081905550848960040187815481106122af576122af614022565b60009182526020909120015550505050505b600101612095565b60006122d36137d3565b5060008051602061410083398151915290565b7ffbd454f36a7e1a388bd6fc3ab10d434aa4578f811acbbcf33afb1c697486313c6123108161338d565b600080848154811061232457612324614022565b60009182526020909120600390910201805490915061234e906001600160a01b0316333086613628565b60018101541561236057612360612979565b600281015415806123825750620189c0816002015461237f91906140b3565b43115b156123a45743600282015561239a620189c084614065565b60018201556123fb565b600043620189c083600201546123ba91906140b3565b6123c49190614087565b9050620189c08260010154826123da919061404e565b6123e490866140b3565b6123ee9190614065565b6001830155504360028201555b612403612979565b837ffbb3300fa4d6e8ee14cf2d0fcb15e63f4a4649d58337770ed51f2fe461e1ed68826001015460405161243991815260200190565b60405180910390a250505050565b7ff0c57e16840df040f15088dc2f81fe391c3923bec73e23a9662efc9c229c6a008054600160401b810460ff16159067ffffffffffffffff1660008115801561248d5750825b905060008267ffffffffffffffff1660011480156124aa5750303b155b9050811580156124b8575080155b156124d65760405163f92ee8a960e01b815260040160405180910390fd5b845467ffffffffffffffff19166001178555831561250057845460ff60401b1916600160401b1785555b61250861381c565b61251061381c565b612518613824565b612523600033613397565b50831561119957845460ff60401b19168555604051600181527fc7f505b2f371ae2175ee4913f4499e1f2633a7b5936321eed1cdaeb6115181d29060200160405180910390a15050505050565b6001600160a01b038116600090815260056020526040812054600454811080156114a05750826001600160a01b0316600482815481106125b2576125b2614022565b60009182526020909120600590910201546001600160a01b0316149392505050565b6000918252600080516020614120833981519152602090815260408084206001600160a01b0393909316845291905290205460ff1690565b6001600160a01b0383161580159061262c57506001600160a01b03821615155b801561264157506001600160a01b0383163014155b801561265657506001600160a01b0382163014155b15610da35733600090815260066020526040812054600480549192918390811061268257612682614022565b60009182526020918290206040805160a081018252600590930290910180546001600160a01b039081168452600182015416838501526002810154838301526003810180548351818702810187019094528084529394919360608601939283018282801561270f57602002820191906000526020600020905b8154815260200190600101908083116126fb575b505050505081526020016004820180548060200260200160405190810160405280929190818152602001828054801561276757602002820191906000526020600020905b815481526020019060010190808311612753575b505050505081525050905080602001516001600160a01b0316336001600160a01b0316146127a8576040516353c454cd60e01b815260040160405180910390fd5b6127b18261205b565b60008054905b818110156127d1576127c981856134b8565b6001016127b7565b5060008381526007602090815260408083206001600160a01b038a811685529252808320918816835282208154879003825580548701815590915b838110156128e75761281f818685613547565b600082815260018501602090815260409182902092909255805189815291820189905287916001600160a01b038c16917f75e161b3e824b114fc1a33274bd7091918dd4e639cede50b78b15a4eea956a21910160405180910390a3612885818684613547565b6000828152600184016020908152604091829020929092554360028501555188815287916001600160a01b038b16917f73a19dd210f1a7f902193214c0ee91dd35ee5b4d920cba8d519eca65a7b488ca910160405180910390a360010161280c565b505050505050505050565b60006128fd8161338d565b6001600160a01b0382166129245760405163d92e233d60e01b815260040160405180910390fd5b600b80546001600160a01b0319166001600160a01b0384169081179091556040519081527f4b0bdc6e20f54f9a25e1b84703541849c422b4f5ba66ef3b854ae01b776ef37c9060200160405180910390a15050565b6129816132e2565b60045460005b818110156129a0576129988161205b565b600101612987565b50506129b9600160008051602061414083398151915255565b565b600081815260096020818152604080842054600a83529084205492909152906129e49082614087565b6129f690670de0b6b3a764000061404e565b610ace9190614065565b612a086132e2565b60005b600454811015612b7e57612a1e8161205b565b60008181526007602090815260408083203384529091528120905b600054811015612b7457612a4d81846134b8565b612b588160048581548110612a6457612a64614022565b60009182526020918290206040805160a081018252600590930290910180546001600160a01b0390811684526001820154168385015260028101548383015260038101805483518187028101870190945280845293949193606086019392830182828015612af157602002820191906000526020600020905b815481526020019060010190808311612add575b5050505050815260200160048201805480602002602001604051908101604052809291908181526020018280548015612b4957602002820191906000526020600020905b815481526020019060010190808311612b35575b50505050508152505084613547565b6000828152600180850160205260409091209190915501612a39565b5050600101612a0b565b60005b6000548110156129a05760008181526003602090815260408083203380855290835281842054858552600284528285209185529252822054612bc39190614087565b90508015612be457612be1600083815481106116b9576116b9614022565b90505b600082815260036020908152604080832033845290915281208054839290612c0d9084906140b3565b9091555050604051818152829033907f987d620f307ff6b94d58743cb7a7509f24071586a77759b77c2d4e29f75a2f9a9060200160405180910390a350600101612b81565b612c5b82610faf565b612c648161338d565b6114c3838361343c565b60606004805480602002602001604051908101604052809291908181526020016000905b82821015612d965760008481526020908190206040805160a0810182526005860290920180546001600160a01b0390811684526001820154168385015260028101548383015260038101805483518187028101870190945280845293949193606086019392830182828015612d2657602002820191906000526020600020905b815481526020019060010190808311612d12575b5050505050815260200160048201805480602002602001604051908101604052809291908181526020018280548015612d7e57602002820191906000526020600020905b815481526020019060010190808311612d6a575b50505050508152505081526020019060010190612c92565b50505050905090565b612da76132e2565b6004548210612dc9576040516367d25fd160e11b815260040160405180910390fd5b612dd28261205b565b60008054905b81811015612df257612dea81856134b8565b600101612dd8565b50600083815260076020908152604080832033845290915290208215612f2857612e4d33308560048881548110612e2b57612e2b614022565b60009182526020909120600590910201546001600160a01b0316929190613628565b82816000016000828254612e6191906140b3565b909155505060008481526009602052604081208054859290612e849084906140b3565b92505081905550600060048581548110612ea057612ea0614022565b60009182526020909120600160059092020101546001600160a01b031690508015612f26576040516340c10f1960e01b8152336004820152602481018590526001600160a01b038216906340c10f1990604401600060405180830381600087803b158015612f0d57600080fd5b505af1158015612f21573d6000803e3d6000fd5b505050505b505b60005b82811015613073576130578160048781548110612f4a57612f4a614022565b60009182526020918290206040805160a081018252600590930290910180546001600160a01b0390811684526001820154168385015260028101548383015260038101805483518187028101870190945280845293949193606086019392830182828015612fd757602002820191906000526020600020905b815481526020019060010190808311612fc3575b505050505081526020016004820180548060200260200160405190810160405280929190818152602001828054801561302f57602002820191906000526020600020905b81548152602001906001019080831161301b575b5050509190925250505060008881526007602090815260408083203384529091529020613547565b6000828152600180850160205260409091209190915501612f2b565b50436002820155604051838152849033907f73a19dd210f1a7f902193214c0ee91dd35ee5b4d920cba8d519eca65a7b488ca9060200160405180910390a35050611f11600160008051602061414083398151915255565b6001600160a01b0381166000908152600160205260408120548154811080156114a05750826001600160a01b03166000828154811061310b5761310b614022565b60009182526020909120600390910201546001600160a01b0316149392505050565b7f34b5ef4b2be4eab765d268506dd12a649d8311490c68ca505d5c044e1d207b716131578161338d565b6001600160a01b038316600090815260056020526040812054600480549192918390811061318757613187614022565b60009182526020918290206040805160a081018252600590930290910180546001600160a01b039081168452600182015416838501526002810154838301526003810180548351818702810187019094528084529394919360608601939283018282801561321457602002820191906000526020600020905b815481526020019060010190808311613200575b505050505081526020016004820180548060200260200160405190810160405280929190818152602001828054801561326c57602002820191906000526020600020905b815481526020019060010190808311613258575b505050919092525050506000838152600a60205260409020549091508411156132a8576040516349986e7360e01b815260040160405180910390fd5b6000828152600a6020526040812080548692906132c6908490614087565b90915550508051611199906001600160a01b0316333087613628565b60008051602061414083398151915280546001190161331457604051633ee5aeb560e01b815260040160405180910390fd5b60029055565b6040516001600160a01b03838116602483015260448201839052610da391859182169063a9059cbb906064015b604051602081830303815290604052915060e01b6020820180516001600160e01b038381831617835250505050613834565b600160008051602061414083398151915255565b610d0e8133613897565b60006000805160206141208339815191526133b284846125d4565b613432576000848152602082815260408083206001600160a01b03871684529091529020805460ff191660011790556133e83390565b6001600160a01b0316836001600160a01b0316857f2f8788117e7eff1d82e926ec794901d17c78024a50270940304540a733656f0d60405160405180910390a46001915050610ace565b6000915050610ace565b600060008051602061412083398151915261345784846125d4565b15613432576000848152602082815260408083206001600160a01b0387168085529252808320805460ff1916905551339287917ff6391f5c32d9c69d2a47ea670b442974b53935d1edc7fd64eb21e047a839171b9190a46001915050610ace565b6000818152600760209081526040808320338452909152812080549091036134df57505050565b60008381526001820160205260409020546004805461350a91869186908110612a6457612a64614022565b6135149190614087565b60008481526002602090815260408083203384529091528120805490919061353d9084906140b3565b9091555050505050565b600064e8d4a510008360600151858151811061356557613565614022565b6020026020010151836000015461357c919061404e565b6135869190614065565b949350505050565b6040516370a0823160e01b815230600482015260009081906001600160a01b038616906370a0823190602401602060405180830381865afa1580156135d7573d6000803e3d6000fd5b505050506040513d601f19601f820116820180604052508101906135fb919061409a565b90508291508082111561360c578091505b6136206001600160a01b038616858461331a565b509392505050565b6040516001600160a01b0384811660248301528381166044830152606482018390526114c39186918216906323b872dd90608401613347565b306001600160a01b037f00000000000000000000000000000000000000000000000000000000000000001614806136e857507f00000000000000000000000000000000000000000000000000000000000000006001600160a01b03166136dc600080516020614100833981519152546001600160a01b031690565b6001600160a01b031614155b156129b95760405163703e46dd60e11b815260040160405180910390fd5b6000611f118161338d565b816001600160a01b03166352d1902d6040518163ffffffff1660e01b8152600401602060405180830381865afa92505050801561376b575060408051601f3d908101601f191682019092526137689181019061409a565b60015b61379857604051634c9c8ce360e01b81526001600160a01b03831660048201526024015b60405180910390fd5b60008051602061410083398151915281146137c957604051632a87526960e21b81526004810182905260240161378f565b610da383836138d0565b306001600160a01b037f000000000000000000000000000000000000000000000000000000000000000016146129b95760405163703e46dd60e11b815260040160405180910390fd5b6129b9613926565b61382c613926565b6129b961396f565b60006138496001600160a01b03841683613977565b9050805160001415801561386e57508080602001905181019061386c91906140c6565b155b15610da357604051635274afe760e01b81526001600160a01b038416600482015260240161378f565b6138a182826125d4565b611f115760405163e2517d3f60e01b81526001600160a01b03821660048201526024810183905260440161378f565b6138d982613985565b6040516001600160a01b038316907fbc7cd75a20ee27fd9adebab32041f755214dbc6bffa90cc0225b39da2e5c2d3b90600090a280511561391e57610da382826139ea565b611f11613a60565b7ff0c57e16840df040f15088dc2f81fe391c3923bec73e23a9662efc9c229c6a0054600160401b900460ff166129b957604051631afcd79f60e31b815260040160405180910390fd5b613379613926565b60606114a083836000613a7f565b806001600160a01b03163b6000036139bb57604051634c9c8ce360e01b81526001600160a01b038216600482015260240161378f565b60008051602061410083398151915280546001600160a01b0319166001600160a01b0392909216919091179055565b6060600080846001600160a01b031684604051613a0791906140e3565b600060405180830381855af49150503d8060008114613a42576040519150601f19603f3d011682016040523d82523d6000602084013e613a47565b606091505b5091509150613a57858383613b1c565b95945050505050565b34156129b95760405163b398979f60e01b815260040160405180910390fd5b606081471015613aa45760405163cd78605960e01b815230600482015260240161378f565b600080856001600160a01b03168486604051613ac091906140e3565b60006040518083038185875af1925050503d8060008114613afd576040519150601f19603f3d011682016040523d82523d6000602084013e613b02565b606091505b5091509150613b12868383613b1c565b9695505050505050565b606082613b3157613b2c82613b78565b6114a0565b8151158015613b4857506001600160a01b0384163b155b15613b7157604051639996b31560e01b81526001600160a01b038516600482015260240161378f565b50806114a0565b805115613b885780518082602001fd5b604051630a12f52160e11b815260040160405180910390fd5b828054828255906000526020600020908101928215613bdc579160200282015b82811115613bdc578251825591602001919060010190613bc1565b50613be8929150613bec565b5090565b5b80821115613be85760008155600101613bed565b600060208284031215613c1357600080fd5b81356001600160e01b0319811681146114a057600080fd5b600060208284031215613c3d57600080fd5b5035919050565b6001600160a01b0381168114610d0e57600080fd5b600060208284031215613c6b57600080fd5b81356114a081613c44565b60008060408385031215613c8957600080fd5b8235613c9481613c44565b946020939093013593505050565b600080600060608486031215613cb757600080fd5b83359250602084013591506040840135613cd081613c44565b809150509250925092565b60008060408385031215613cee57600080fd5b823591506020830135613d0081613c44565b809150509250929050565b8015158114610d0e57600080fd5b60008060008060808587031215613d2f57600080fd5b843593506020850135613d4181613c44565b92506040850135613d5181613c44565b91506060850135613d6181613d0b565b939692955090935050565b60008060408385031215613d7f57600080fd5b50508035926020909101359150565b600080600060608486031215613da357600080fd5b83359250602084013591506040840135613cd081613d0b565b634e487b7160e01b600052604160045260246000fd5b60008060408385031215613de557600080fd5b8235613df081613c44565b9150602083013567ffffffffffffffff80821115613e0d57600080fd5b818501915085601f830112613e2157600080fd5b813581811115613e3357613e33613dbc565b604051601f8201601f19908116603f01168101908382118183101715613e5b57613e5b613dbc565b81604052828152886020848701011115613e7457600080fd5b8260208601602083013760006020848301015280955050505050509250929050565b60005b83811015613eb1578181015183820152602001613e99565b50506000910152565b6020815260008251806020840152613ed9816040850160208701613e96565b601f01601f19169190910160400192915050565b600080600060608486031215613f0257600080fd5b8335613f0d81613c44565b92506020840135613f1d81613c44565b929592945050506040919091013590565b60008151808452602080850194506020840160005b83811015613f5f57815187529582019590820190600101613f43565b509495945050505050565b600060208083018184528085518083526040925060408601915060408160051b87010184880160005b8381101561401457888303603f19018552815180516001600160a01b039081168552888201511688850152868101518785015260608082015160a08287018190529190613fe283880182613f2e565b92505050608080830151925085820381870152506140008183613f2e565b968901969450505090860190600101613f93565b509098975050505050505050565b634e487b7160e01b600052603260045260246000fd5b634e487b7160e01b600052601160045260246000fd5b8082028115828204841417610ace57610ace614038565b60008261408257634e487b7160e01b600052601260045260246000fd5b500490565b81810381811115610ace57610ace614038565b6000602082840312156140ac57600080fd5b5051919050565b80820180821115610ace57610ace614038565b6000602082840312156140d857600080fd5b81516114a081613d0b565b600082516140f5818460208701613e96565b919091019291505056fe360894a13ba1a3210667c828492db98dca3e2076cc3735a920a3ca505d382bbc02dd7bc7dec4dceedda775e58dd541e08a116c6c53815c0bd028192f7b6268009b779b17422d0df92223018b32b4d1fa46e071723d6817e2486d003becc55f00a264697066735822122081a02df36776aa153c75baab617f3eada62c6cc97d6b4a28453dd2a24b77c7ca64736f6c63430008160033",
  "linkReferences": {},
  "deployedLinkReferences": {}
}