{
  "_format": "hh-sol-artifact-1",
  "contractName": "VaultStrat",
  "sourceName": "contracts/strategies/VaultStrat.sol",
  "abi": [
    {
      "inputs": [
        {
          "internalType": "contract IERC20[5]",
          "name": "tokens_",
          "type": "address[5]"
        },
        {
          "internalType": "uint256[5]",
          "name": "tokenDecimalsMultipliers_",
          "type": "uint256[5]"
        }
      ],
      "stateMutability": "nonpayable",
      "type": "constructor"
    },
    {
      "inputs": [
        {
          "internalType": "address",
          "name": "target",
          "type": "address"
        }
      ],
      "name": "AddressEmptyCode",
      "type": "error"
    },
    {
      "inputs": [
        {
          "internalType": "address",
          "name": "account",
          "type": "address"
        }
      ],
      "name": "AddressInsufficientBalance",
      "type": "error"
    },
    {
      "inputs": [],
      "name": "FailedInnerCall",
      "type": "error"
    },
    {
      "inputs": [],
      "name": "MustBeCalledByZunami",
      "type": "error"
    },
    {
      "inputs": [],
      "name": "MustHaveOwner",
      "type": "error"
    },
    {
      "inputs": [
        {
          "internalType": "address",
          "name": "owner",
          "type": "address"
        }
      ],
      "name": "OwnableInvalidOwner",
      "type": "error"
    },
    {
      "inputs": [
        {
          "internalType": "address",
          "name": "account",
          "type": "address"
        }
      ],
      "name": "OwnableUnauthorizedAccount",
      "type": "error"
    },
    {
      "inputs": [
        {
          "internalType": "address",
          "name": "token",
          "type": "address"
        }
      ],
      "name": "SafeERC20FailedOperation",
      "type": "error"
    },
    {
      "inputs": [
        {
          "internalType": "uint256",
          "name": "userDepositRatio",
          "type": "uint256"
        }
      ],
      "name": "WrongRatio",
      "type": "error"
    },
    {
      "inputs": [],
      "name": "ZeroAddress",
      "type": "error"
    },
    {
      "anonymous": false,
      "inputs": [
        {
          "indexed": true,
          "internalType": "address",
          "name": "previousOwner",
          "type": "address"
        },
        {
          "indexed": true,
          "internalType": "address",
          "name": "newOwner",
          "type": "address"
        }
      ],
      "name": "OwnershipTransferStarted",
      "type": "event"
    },
    {
      "anonymous": false,
      "inputs": [
        {
          "indexed": true,
          "internalType": "address",
          "name": "previousOwner",
          "type": "address"
        },
        {
          "indexed": true,
          "internalType": "address",
          "name": "newOwner",
          "type": "address"
        }
      ],
      "name": "OwnershipTransferred",
      "type": "event"
    },
    {
      "anonymous": false,
      "inputs": [
        {
          "indexed": false,
          "internalType": "address",
          "name": "zunamiPoolAddr",
          "type": "address"
        }
      ],
      "name": "ZunamiPoolSet",
      "type": "event"
    },
    {
      "inputs": [],
      "name": "POOL_ASSETS",
      "outputs": [
        {
          "internalType": "uint8",
          "name": "",
          "type": "uint8"
        }
      ],
      "stateMutability": "view",
      "type": "function"
    },
    {
      "inputs": [],
      "name": "PRICE_DENOMINATOR",
      "outputs": [
        {
          "internalType": "uint256",
          "name": "",
          "type": "uint256"
        }
      ],
      "stateMutability": "view",
      "type": "function"
    },
    {
      "inputs": [],
      "name": "RATIO_MULTIPLIER",
      "outputs": [
        {
          "internalType": "uint256",
          "name": "",
          "type": "uint256"
        }
      ],
      "stateMutability": "view",
      "type": "function"
    },
    {
      "inputs": [],
      "name": "acceptOwnership",
      "outputs": [],
      "stateMutability": "nonpayable",
      "type": "function"
    },
    {
      "inputs": [
        {
          "internalType": "uint256[5]",
          "name": "tokenAmounts",
          "type": "uint256[5]"
        },
        {
          "internalType": "bool",
          "name": "",
          "type": "bool"
        }
      ],
      "name": "calcTokenAmount",
      "outputs": [
        {
          "internalType": "uint256",
          "name": "",
          "type": "uint256"
        }
      ],
      "stateMutability": "view",
      "type": "function"
    },
    {
      "inputs": [
        {
          "internalType": "address",
          "name": "receiver",
          "type": "address"
        },
        {
          "internalType": "contract IERC20[]",
          "name": "rewardTokens",
          "type": "address[]"
        }
      ],
      "name": "claimRewards",
      "outputs": [],
      "stateMutability": "nonpayable",
      "type": "function"
    },
    {
      "inputs": [
        {
          "internalType": "uint256[5]",
          "name": "amounts",
          "type": "uint256[5]"
        }
      ],
      "name": "deposit",
      "outputs": [
        {
          "internalType": "uint256",
          "name": "",
          "type": "uint256"
        }
      ],
      "stateMutability": "nonpayable",
      "type": "function"
    },
    {
      "inputs": [],
      "name": "owner",
      "outputs": [
        {
          "internalType": "address",
          "name": "",
          "type": "address"
        }
      ],
      "stateMutability": "view",
      "type": "function"
    },
    {
      "inputs": [],
      "name": "pendingOwner",
      "outputs": [
        {
          "internalType": "address",
          "name": "",
          "type": "address"
        }
      ],
      "stateMutability": "view",
      "type": "function"
    },
    {
      "inputs": [],
      "name": "renounceOwnership",
      "outputs": [],
      "stateMutability": "view",
      "type": "function"
    },
    {
      "inputs": [
        {
          "internalType": "address",
          "name": "zunamiAddr",
          "type": "address"
        }
      ],
      "name": "setZunamiPool",
      "outputs": [],
      "stateMutability": "nonpayable",
      "type": "function"
    },
    {
      "inputs": [
        {
          "internalType": "uint256",
          "name": "",
          "type": "uint256"
        }
      ],
      "name": "tokenDecimalsMultipliers",
      "outputs": [
        {
          "internalType": "uint256",
          "name": "",
          "type": "uint256"
        }
      ],
      "stateMutability": "view",
      "type": "function"
    },
    {
      "inputs": [
        {
          "internalType": "uint256",
          "name": "",
          "type": "uint256"
        }
      ],
      "name": "tokens",
      "outputs": [
        {
          "internalType": "contract IERC20",
          "name": "",
          "type": "address"
        }
      ],
      "stateMutability": "view",
      "type": "function"
    },
    {
      "inputs": [],
      "name": "totalHoldings",
      "outputs": [
        {
          "internalType": "uint256",
          "name": "",
          "type": "uint256"
        }
      ],
      "stateMutability": "view",
      "type": "function"
    },
    {
      "inputs": [
        {
          "internalType": "address",
          "name": "newOwner",
          "type": "address"
        }
      ],
      "name": "transferOwnership",
      "outputs": [],
      "stateMutability": "nonpayable",
      "type": "function"
    },
    {
      "inputs": [
        {
          "internalType": "address",
          "name": "receiver",
          "type": "address"
        },
        {
          "internalType": "uint256",
          "name": "userDepositRatio",
          "type": "uint256"
        },
        {
          "internalType": "uint256[5]",
          "name": "",
          "type": "uint256[5]"
        }
      ],
      "name": "withdraw",
      "outputs": [
        {
          "internalType": "bool",
          "name": "",
          "type": "bool"
        }
      ],
      "stateMutability": "nonpayable",
      "type": "function"
    },
    {
      "inputs": [],
      "name": "withdrawAll",
      "outputs": [],
      "stateMutability": "nonpayable",
      "type": "function"
    },
    {
      "inputs": [],
      "name": "zunamiPool",
      "outputs": [
        {
          "internalType": "contract IPool",
          "name": "",
          "type": "address"
        }
      ],
      "stateMutability": "view",
      "type": "function"
    }
  ],
  "bytecode": "0x60806040523480156200001157600080fd5b506040516200116d3803806200116d8339810160408190526200003491620001d9565b33806200005b57604051631e4fbdf760e01b81526000600482015260240160405180910390fd5b62000066816200008f565b50620000766003836005620000fd565b506200008660088260056200015a565b505050620002ad565b600180546001600160a01b0319169055620000aa81620000ad565b50565b600080546001600160a01b038381166001600160a01b0319831681178455604051919092169283917f8be0079c531659141344cd1fd0a4f28419497f9722a3daafe3b4186f6b6457e09190a35050565b826005810192821562000148579160200282015b828111156200014857825182546001600160a01b0319166001600160a01b0390911617825560209092019160019091019062000111565b50620001569291506200018b565b5090565b826005810192821562000148579160200282015b82811115620001485782518255916020019190600101906200016e565b5b808211156200015657600081556001016200018c565b60405160a081016001600160401b0381118282101715620001d357634e487b7160e01b600052604160045260246000fd5b60405290565b600080610140808486031215620001ef57600080fd5b84601f850112620001ff57600080fd5b62000209620001a2565b8060a08601878111156200021c57600080fd5b865b818110156200024f5780516001600160a01b0381168114620002405760008081fd5b8452602093840193016200021e565b508195508760bf8801126200026357600080fd5b6200026d620001a2565b938701939250829150878411156200028457600080fd5b5b838110156200029f57805183526020928301920162000285565b508093505050509250929050565b610eb080620002bd6000396000f3fe608060405234801561001057600080fd5b50600436106101165760003560e01c806379ba5097116100a2578063b67d611d11610071578063b67d611d1461022f578063d5f651a4146101a7578063e30c397814610242578063e9ec2e9914610253578063f2fde38b1461025b57600080fd5b806379ba5097146101fb578063853828b6146102035780638da5cb5b1461020b5780639d57b9a61461021c57600080fd5b806359615983116100e957806359615983146101945780636c1516e1146101a75780636d9164c6146101b6578063715018a6146101d957806375451b4f146101e157600080fd5b80632026ffa31461011b578063213c79d8146101305780634f64b2be1461016057806356edb31614610173575b600080fd5b61012e610129366004610b78565b61026e565b005b600254610143906001600160a01b031681565b6040516001600160a01b0390911681526020015b60405180910390f35b61014361016e366004610c3f565b6102a6565b610186610181366004610c3f565b6102c6565b604051908152602001610157565b61012e6101a2366004610c58565b6102dd565b610186670de0b6b3a764000081565b6101c96101c4366004610ce3565b610360565b6040519015158152602001610157565b61012e6103e6565b6101e9600581565b60405160ff9091168152602001610157565b61012e610407565b61012e61044b565b6000546001600160a01b0316610143565b61018661022a366004610d30565b610496565b61018661023d366004610d68565b61051f565b6001546001600160a01b0316610143565b6101866105a9565b61012e610269366004610c58565b610691565b6002546001600160a01b0316336001600160a01b0316146102a257604051631f76c2df60e31b815260040160405180910390fd5b5050565b600381600581106102b657600080fd5b01546001600160a01b0316905081565b600881600581106102d657600080fd5b0154905081565b6102e5610702565b6001600160a01b03811661030c5760405163d92e233d60e01b815260040160405180910390fd5b600280546001600160a01b0319166001600160a01b0383169081179091556040519081527ffa639b2012458fd129b4bf30b2a98c9b56cc3a9ba0606013b8d1f9232cb4498a9060200160405180910390a150565b6002546000906001600160a01b0316336001600160a01b03161461039757604051631f76c2df60e31b815260040160405180910390fd5b8215806103ab5750670de0b6b3a764000083115b156103d15760405163047600fd60e51b8152600481018490526024015b60405180910390fd5b6103db848461072f565b5060015b9392505050565b6103ee610702565b604051635bbc659360e01b815260040160405180910390fd5b60015433906001600160a01b0316811461043f5760405163118cdaa760e01b81526001600160a01b03821660048201526024016103c8565b61044881610821565b50565b6002546001600160a01b0316336001600160a01b03161461047f57604051631f76c2df60e31b815260040160405180910390fd5b600254610494906001600160a01b031661083a565b565b600080805b6005811015610515578481600581106104b6576104b6610d84565b60200201511561050357600881600581106104d3576104d3610d84565b01548582600581106104e7576104e7610d84565b60200201516104f69190610db0565b6105009083610dc7565b91505b8061050d81610dda565b91505061049b565b5090505b92915050565b60008060005b60058110156105a257600084826005811061054257610542610d84565b60200201511115610590576008816005811061056057610560610d84565b015484826005811061057457610574610d84565b60200201516105839190610db0565b61058d9083610dc7565b91505b8061059a81610dda565b915050610525565b5092915050565b600080805b600581101561068b576000600382600581106105cc576105cc610d84565b01546001600160a01b03169050806105e4575061068b565b600882600581106105f7576105f7610d84565b01546040516370a0823160e01b81523060048201526001600160a01b038316906370a0823190602401602060405180830381865afa15801561063d573d6000803e3d6000fd5b505050506040513d601f19601f820116820180604052508101906106619190610df3565b61066b9190610db0565b6106759084610dc7565b925050808061068390610dda565b9150506105ae565b50919050565b610699610702565b600180546001600160a01b0383166001600160a01b031990911681179091556106ca6000546001600160a01b031690565b6001600160a01b03167f38d16b8cac22d99fc7c124b9cd0de2d3fa1faef420bfe791d8c362d765e2270060405160405180910390a350565b6000546001600160a01b031633146104945760405163118cdaa760e01b81523360048201526024016103c8565b60008060005b600581101561081a576003816005811061075157610751610d84565b01546001600160a01b03169150811561081a576040516370a0823160e01b8152306004820152670de0b6b3a76400009085906001600160a01b038516906370a0823190602401602060405180830381865afa1580156107b4573d6000803e3d6000fd5b505050506040513d601f19601f820116820180604052508101906107d89190610df3565b6107e29190610db0565b6107ec9190610e0c565b92508215610808576108086001600160a01b038316868561090b565b8061081281610dda565b915050610735565b5050505050565b600180546001600160a01b031916905561044881610962565b60008060005b6005811015610905576003816005811061085c5761085c610d84565b01546001600160a01b031691508115610905576040516370a0823160e01b81523060048201526001600160a01b038316906370a0823190602401602060405180830381865afa1580156108b3573d6000803e3d6000fd5b505050506040513d601f19601f820116820180604052508101906108d79190610df3565b925082156108f3576108f36001600160a01b038316858561090b565b806108fd81610dda565b915050610840565b50505050565b604080516001600160a01b038416602482015260448082018490528251808303909101815260649091019091526020810180516001600160e01b031663a9059cbb60e01b17905261095d9084906109b2565b505050565b600080546001600160a01b038381166001600160a01b0319831681178455604051919092169283917f8be0079c531659141344cd1fd0a4f28419497f9722a3daafe3b4186f6b6457e09190a35050565b60006109c76001600160a01b03841683610a15565b905080516000141580156109ec5750808060200190518101906109ea9190610e2e565b155b1561095d57604051635274afe760e01b81526001600160a01b03841660048201526024016103c8565b60606103df8383600084600080856001600160a01b03168486604051610a3b9190610e4b565b60006040518083038185875af1925050503d8060008114610a78576040519150601f19603f3d011682016040523d82523d6000602084013e610a7d565b606091505b5091509150610a8d868383610a97565b9695505050505050565b606082610aac57610aa782610af3565b6103df565b8151158015610ac357506001600160a01b0384163b155b15610aec57604051639996b31560e01b81526001600160a01b03851660048201526024016103c8565b50806103df565b805115610b035780518082602001fd5b604051630a12f52160e11b815260040160405180910390fd5b6001600160a01b038116811461044857600080fd5b634e487b7160e01b600052604160045260246000fd5b604051601f8201601f1916810167ffffffffffffffff81118282101715610b7057610b70610b31565b604052919050565b60008060408385031215610b8b57600080fd5b8235610b9681610b1c565b915060208381013567ffffffffffffffff80821115610bb457600080fd5b818601915086601f830112610bc857600080fd5b813581811115610bda57610bda610b31565b8060051b9150610beb848301610b47565b8181529183018401918481019089841115610c0557600080fd5b938501935b83851015610c2f5784359250610c1f83610b1c565b8282529385019390850190610c0a565b8096505050505050509250929050565b600060208284031215610c5157600080fd5b5035919050565b600060208284031215610c6a57600080fd5b81356103df81610b1c565b600082601f830112610c8657600080fd5b60405160a0810181811067ffffffffffffffff82111715610ca957610ca9610b31565b6040528060a0840185811115610cbe57600080fd5b845b81811015610cd8578035835260209283019201610cc0565b509195945050505050565b600080600060e08486031215610cf857600080fd5b8335610d0381610b1c565b925060208401359150610d198560408601610c75565b90509250925092565b801515811461044857600080fd5b60008060c08385031215610d4357600080fd5b610d4d8484610c75565b915060a0830135610d5d81610d22565b809150509250929050565b600060a08284031215610d7a57600080fd5b6103df8383610c75565b634e487b7160e01b600052603260045260246000fd5b634e487b7160e01b600052601160045260246000fd5b808202811582820484141761051957610519610d9a565b8082018082111561051957610519610d9a565b600060018201610dec57610dec610d9a565b5060010190565b600060208284031215610e0557600080fd5b5051919050565b600082610e2957634e487b7160e01b600052601260045260246000fd5b500490565b600060208284031215610e4057600080fd5b81516103df81610d22565b6000825160005b81811015610e6c5760208186018101518583015201610e52565b50600092019182525091905056fea2646970667358221220d85d6dc6037d273c50e496f0a135276a5319d7fd33f8f2adaa2e62b78b4de80464736f6c63430008150033",
  "linkReferences": {},
  "deployedLinkReferences": {}
}