{
  "_format": "hh-sol-artifact-1",
  "contractName": "ZunamiPoolThroughController",
  "sourceName": "contracts/ZunamiPoolThroughController.sol",
  "abi": [
    {
      "inputs": [
        {
          "internalType": "address",
          "name": "pool_",
          "type": "address"
        }
      ],
      "stateMutability": "nonpayable",
      "type": "constructor"
    },
    {
      "inputs": [],
      "name": "AccessControlBadConfirmation",
      "type": "error"
    },
    {
      "inputs": [
        {
          "internalType": "address",
          "name": "account",
          "type": "address"
        },
        {
          "internalType": "bytes32",
          "name": "neededRole",
          "type": "bytes32"
        }
      ],
      "name": "AccessControlUnauthorizedAccount",
      "type": "error"
    },
    {
      "inputs": [
        {
          "internalType": "address",
          "name": "target",
          "type": "address"
        }
      ],
      "name": "AddressEmptyCode",
      "type": "error"
    },
    {
      "inputs": [
        {
          "internalType": "address",
          "name": "account",
          "type": "address"
        }
      ],
      "name": "AddressInsufficientBalance",
      "type": "error"
    },
    {
      "inputs": [],
      "name": "EnforcedPause",
      "type": "error"
    },
    {
      "inputs": [],
      "name": "ExpectedPause",
      "type": "error"
    },
    {
      "inputs": [],
      "name": "FailedInnerCall",
      "type": "error"
    },
    {
      "inputs": [],
      "name": "OnlyIssuer",
      "type": "error"
    },
    {
      "inputs": [],
      "name": "ReentrancyGuardReentrantCall",
      "type": "error"
    },
    {
      "inputs": [
        {
          "internalType": "address",
          "name": "token",
          "type": "address"
        }
      ],
      "name": "SafeERC20FailedOperation",
      "type": "error"
    },
    {
      "inputs": [],
      "name": "WrongRewardTokens",
      "type": "error"
    },
    {
      "inputs": [],
      "name": "WrongSid",
      "type": "error"
    },
    {
      "inputs": [],
      "name": "ZeroAddress",
      "type": "error"
    },
    {
      "anonymous": false,
      "inputs": [
        {
          "indexed": false,
          "internalType": "address",
          "name": "account",
          "type": "address"
        }
      ],
      "name": "Paused",
      "type": "event"
    },
    {
      "anonymous": false,
      "inputs": [
        {
          "indexed": false,
          "internalType": "address",
          "name": "oldFeeCollector",
          "type": "address"
        },
        {
          "indexed": false,
          "internalType": "address",
          "name": "newFeeCollector",
          "type": "address"
        }
      ],
      "name": "RewardCollectorChanged",
      "type": "event"
    },
    {
      "anonymous": false,
      "inputs": [
        {
          "indexed": true,
          "internalType": "bytes32",
          "name": "role",
          "type": "bytes32"
        },
        {
          "indexed": true,
          "internalType": "bytes32",
          "name": "previousAdminRole",
          "type": "bytes32"
        },
        {
          "indexed": true,
          "internalType": "bytes32",
          "name": "newAdminRole",
          "type": "bytes32"
        }
      ],
      "name": "RoleAdminChanged",
      "type": "event"
    },
    {
      "anonymous": false,
      "inputs": [
        {
          "indexed": true,
          "internalType": "bytes32",
          "name": "role",
          "type": "bytes32"
        },
        {
          "indexed": true,
          "internalType": "address",
          "name": "account",
          "type": "address"
        },
        {
          "indexed": true,
          "internalType": "address",
          "name": "sender",
          "type": "address"
        }
      ],
      "name": "RoleGranted",
      "type": "event"
    },
    {
      "anonymous": false,
      "inputs": [
        {
          "indexed": true,
          "internalType": "bytes32",
          "name": "role",
          "type": "bytes32"
        },
        {
          "indexed": true,
          "internalType": "address",
          "name": "account",
          "type": "address"
        },
        {
          "indexed": true,
          "internalType": "address",
          "name": "sender",
          "type": "address"
        }
      ],
      "name": "RoleRevoked",
      "type": "event"
    },
    {
      "anonymous": false,
      "inputs": [
        {
          "indexed": false,
          "internalType": "uint256",
          "name": "sid",
          "type": "uint256"
        }
      ],
      "name": "SetDefaultDepositSid",
      "type": "event"
    },
    {
      "anonymous": false,
      "inputs": [
        {
          "indexed": false,
          "internalType": "uint256",
          "name": "sid",
          "type": "uint256"
        }
      ],
      "name": "SetDefaultWithdrawSid",
      "type": "event"
    },
    {
      "anonymous": false,
      "inputs": [
        {
          "indexed": false,
          "internalType": "bool",
          "name": "onlyIssuerMode",
          "type": "bool"
        }
      ],
      "name": "SetOnlyIssuerMode",
      "type": "event"
    },
    {
      "anonymous": false,
      "inputs": [
        {
          "indexed": false,
          "internalType": "contract IERC20[]",
          "name": "rewardTokens",
          "type": "address[]"
        }
      ],
      "name": "SetRewardTokens",
      "type": "event"
    },
    {
      "anonymous": false,
      "inputs": [
        {
          "indexed": false,
          "internalType": "address",
          "name": "account",
          "type": "address"
        }
      ],
      "name": "Unpaused",
      "type": "event"
    },
    {
      "inputs": [],
      "name": "DEFAULT_ADMIN_ROLE",
      "outputs": [
        {
          "internalType": "bytes32",
          "name": "",
          "type": "bytes32"
        }
      ],
      "stateMutability": "view",
      "type": "function"
    },
    {
      "inputs": [],
      "name": "ISSUER_ROLE",
      "outputs": [
        {
          "internalType": "bytes32",
          "name": "",
          "type": "bytes32"
        }
      ],
      "stateMutability": "view",
      "type": "function"
    },
    {
      "inputs": [],
      "name": "POOL_ASSETS",
      "outputs": [
        {
          "internalType": "uint8",
          "name": "",
          "type": "uint8"
        }
      ],
      "stateMutability": "view",
      "type": "function"
    },
    {
      "inputs": [
        {
          "internalType": "address",
          "name": "_rewardCollector",
          "type": "address"
        }
      ],
      "name": "changeRewardCollector",
      "outputs": [],
      "stateMutability": "nonpayable",
      "type": "function"
    },
    {
      "inputs": [],
      "name": "claimRewards",
      "outputs": [],
      "stateMutability": "nonpayable",
      "type": "function"
    },
    {
      "inputs": [],
      "name": "defaultDepositSid",
      "outputs": [
        {
          "internalType": "uint256",
          "name": "",
          "type": "uint256"
        }
      ],
      "stateMutability": "view",
      "type": "function"
    },
    {
      "inputs": [],
      "name": "defaultWithdrawSid",
      "outputs": [
        {
          "internalType": "uint256",
          "name": "",
          "type": "uint256"
        }
      ],
      "stateMutability": "view",
      "type": "function"
    },
    {
      "inputs": [
        {
          "internalType": "uint256[5]",
          "name": "amounts",
          "type": "uint256[5]"
        },
        {
          "internalType": "address",
          "name": "receiver",
          "type": "address"
        }
      ],
      "name": "deposit",
      "outputs": [
        {
          "internalType": "uint256",
          "name": "shares",
          "type": "uint256"
        }
      ],
      "stateMutability": "nonpayable",
      "type": "function"
    },
    {
      "inputs": [
        {
          "internalType": "bytes32",
          "name": "role",
          "type": "bytes32"
        }
      ],
      "name": "getRoleAdmin",
      "outputs": [
        {
          "internalType": "bytes32",
          "name": "",
          "type": "bytes32"
        }
      ],
      "stateMutability": "view",
      "type": "function"
    },
    {
      "inputs": [
        {
          "internalType": "bytes32",
          "name": "role",
          "type": "bytes32"
        },
        {
          "internalType": "address",
          "name": "account",
          "type": "address"
        }
      ],
      "name": "grantRole",
      "outputs": [],
      "stateMutability": "nonpayable",
      "type": "function"
    },
    {
      "inputs": [
        {
          "internalType": "bytes32",
          "name": "role",
          "type": "bytes32"
        },
        {
          "internalType": "address",
          "name": "account",
          "type": "address"
        }
      ],
      "name": "hasRole",
      "outputs": [
        {
          "internalType": "bool",
          "name": "",
          "type": "bool"
        }
      ],
      "stateMutability": "view",
      "type": "function"
    },
    {
      "inputs": [],
      "name": "onlyIssuerMode",
      "outputs": [
        {
          "internalType": "bool",
          "name": "",
          "type": "bool"
        }
      ],
      "stateMutability": "view",
      "type": "function"
    },
    {
      "inputs": [],
      "name": "pause",
      "outputs": [],
      "stateMutability": "nonpayable",
      "type": "function"
    },
    {
      "inputs": [],
      "name": "paused",
      "outputs": [
        {
          "internalType": "bool",
          "name": "",
          "type": "bool"
        }
      ],
      "stateMutability": "view",
      "type": "function"
    },
    {
      "inputs": [],
      "name": "pool",
      "outputs": [
        {
          "internalType": "contract IPool",
          "name": "",
          "type": "address"
        }
      ],
      "stateMutability": "view",
      "type": "function"
    },
    {
      "inputs": [
        {
          "internalType": "bytes32",
          "name": "role",
          "type": "bytes32"
        },
        {
          "internalType": "address",
          "name": "callerConfirmation",
          "type": "address"
        }
      ],
      "name": "renounceRole",
      "outputs": [],
      "stateMutability": "nonpayable",
      "type": "function"
    },
    {
      "inputs": [
        {
          "internalType": "bytes32",
          "name": "role",
          "type": "bytes32"
        },
        {
          "internalType": "address",
          "name": "account",
          "type": "address"
        }
      ],
      "name": "revokeRole",
      "outputs": [],
      "stateMutability": "nonpayable",
      "type": "function"
    },
    {
      "inputs": [],
      "name": "rewardCollector",
      "outputs": [
        {
          "internalType": "address",
          "name": "",
          "type": "address"
        }
      ],
      "stateMutability": "view",
      "type": "function"
    },
    {
      "inputs": [
        {
          "internalType": "uint256",
          "name": "",
          "type": "uint256"
        }
      ],
      "name": "rewardTokens",
      "outputs": [
        {
          "internalType": "contract IERC20",
          "name": "",
          "type": "address"
        }
      ],
      "stateMutability": "view",
      "type": "function"
    },
    {
      "inputs": [
        {
          "internalType": "uint256",
          "name": "_newPoolId",
          "type": "uint256"
        }
      ],
      "name": "setDefaultDepositSid",
      "outputs": [],
      "stateMutability": "nonpayable",
      "type": "function"
    },
    {
      "inputs": [
        {
          "internalType": "uint256",
          "name": "_newPoolId",
          "type": "uint256"
        }
      ],
      "name": "setDefaultWithdrawSid",
      "outputs": [],
      "stateMutability": "nonpayable",
      "type": "function"
    },
    {
      "inputs": [
        {
          "internalType": "bool",
          "name": "_onlyIssuerMode",
          "type": "bool"
        }
      ],
      "name": "setOnlyIssuerMode",
      "outputs": [],
      "stateMutability": "nonpayable",
      "type": "function"
    },
    {
      "inputs": [
        {
          "internalType": "contract IERC20[]",
          "name": "rewardTokens_",
          "type": "address[]"
        }
      ],
      "name": "setRewardTokens",
      "outputs": [],
      "stateMutability": "nonpayable",
      "type": "function"
    },
    {
      "inputs": [
        {
          "internalType": "bytes4",
          "name": "interfaceId",
          "type": "bytes4"
        }
      ],
      "name": "supportsInterface",
      "outputs": [
        {
          "internalType": "bool",
          "name": "",
          "type": "bool"
        }
      ],
      "stateMutability": "view",
      "type": "function"
    },
    {
      "inputs": [],
      "name": "unpause",
      "outputs": [],
      "stateMutability": "nonpayable",
      "type": "function"
    },
    {
      "inputs": [
        {
          "internalType": "uint256",
          "name": "shares",
          "type": "uint256"
        },
        {
          "internalType": "uint256[5]",
          "name": "minTokenAmounts",
          "type": "uint256[5]"
        },
        {
          "internalType": "address",
          "name": "receiver",
          "type": "address"
        }
      ],
      "name": "withdraw",
      "outputs": [],
      "stateMutability": "nonpayable",
      "type": "function"
    }
  ],
  "bytecode": "0x60806040526008805460ff191690553480156200001b57600080fd5b50604051620016ca380380620016ca8339810160408190526200003e9162000181565b6000805460ff191690556001600255806001600160a01b038116620000765760405163d92e233d60e01b815260040160405180910390fd5b600680546001600160a01b0319166001600160a01b0383161790556200009e600033620000ea565b5050600580546001600160a01b03191633908117909155620000e2907f114e74f6ea3bd819998f78687bfcb11b140da08e9b7d222fa9c1f1ba1f2aa12290620000ea565b5050620001b3565b60008281526001602090815260408083206001600160a01b038516845290915281205460ff16620001775760008381526001602081815260408084206001600160a01b0387168086529252808420805460ff19169093179092559051339286917f2f8788117e7eff1d82e926ec794901d17c78024a50270940304540a733656f0d9190a45060016200017b565b5060005b92915050565b6000602082840312156200019457600080fd5b81516001600160a01b0381168114620001ac57600080fd5b9392505050565b61150780620001c36000396000f3fe608060405234801561001057600080fd5b506004361061018e5760003560e01c8063686f6b51116100de57806391d1485411610097578063a217fddf11610071578063a217fddf1461035b578063afffd5b714610363578063ca54be3b14610376578063d547741f1461038957600080fd5b806391d148541461032c57806396d53eb81461033f57806399ec92461461035257600080fd5b8063686f6b51146102aa57806375451b4f146102bd5780637bb7bed1146102d75780637ceaf92f146102ea57806382aefa24146102fd5780638456cb591461032457600080fd5b80632f2ff15d1161014b5780633a8051ac116101255780633a8051ac1461027b5780633f4ba83a1461028457806352d0b7681461028c5780635c975abb1461029f57600080fd5b80632f2ff15d1461024d57806336568abe14610260578063372500ab1461027357600080fd5b806301ffc9a7146101935780630cca8749146101bb57806316f0115b146101c8578063201e81a8146101f3578063248a9ca3146102085780632d62af2f1461023a575b600080fd5b6101a66101a1366004611013565b61039c565b60405190151581526020015b60405180910390f35b6008546101a69060ff1681565b6006546101db906001600160a01b031681565b6040516001600160a01b0390911681526020016101b2565b6102066102013660046110c2565b6103d3565b005b61022c610216366004611174565b6000908152600160208190526040909120015490565b6040519081526020016101b2565b61022c6102483660046111dd565b610450565b61020661025b366004611215565b61058d565b61020661026e366004611215565b6105b9565b6102066105f1565b61022c60045481565b610206610622565b61020661029a366004611174565b610638565b60005460ff166101a6565b6102066102b8366004611174565b61070e565b6102c5600581565b60405160ff90911681526020016101b2565b6101db6102e5366004611174565b6107e4565b6102066102f8366004611248565b61080e565b61022c7f114e74f6ea3bd819998f78687bfcb11b140da08e9b7d222fa9c1f1ba1f2aa12281565b610206610860565b6101a661033a366004611215565b610873565b61020661034d366004611265565b61089e565b61022c60035481565b61022c600081565b6005546101db906001600160a01b031681565b610206610384366004611282565b610913565b610206610397366004611215565b61094a565b60006001600160e01b03198216637965db0b60e01b14806103cd57506301ffc9a760e01b6001600160e01b03198316145b92915050565b60006103de81610970565b815160000361040057604051635d751fd360e01b815260040160405180910390fd5b8151610413906007906020850190610f99565b507f69be44b81d4f8b6cf7825a37f020b264079658f3d72856eeb0a0efed09c7d3926007604051610444919061130c565b60405180910390a15050565b600061045a61097a565b61046261099e565b6001600160a01b038216610474573391505b60005b60058110156105765760008482600581106104945761049461131f565b6020020151111561056457610564336006546001600160a01b03168684600581106104c1576104c161131f565b6020020151600660009054906101000a90046001600160a01b03166001600160a01b0316639d63848a6040518163ffffffff1660e01b815260040160a060405180830381865afa158015610519573d6000803e3d6000fd5b505050506040513d601f19601f8201168201806040525081019061053d9190611335565b856005811061054e5761054e61131f565b60200201516001600160a01b03169291906109c6565b8061056e81611393565b915050610477565b506105818383610a20565b90506103cd6001600255565b600082815260016020819052604090912001546105a981610970565b6105b38383610a8b565b50505050565b6001600160a01b03811633146105e25760405163334bd91960e11b815260040160405180910390fd5b6105ec8282610b04565b505050565b6105f961097a565b61060161099e565b600554610616906001600160a01b0316610b71565b6106206001600255565b565b600061062d81610970565b610635610bd9565b50565b600061064381610970565b600660009054906101000a90046001600160a01b03166001600160a01b03166322068b446040518163ffffffff1660e01b8152600401602060405180830381865afa158015610696573d6000803e3d6000fd5b505050506040513d601f19601f820116820180604052508101906106ba91906113ba565b82106106d957604051634dd76a3360e01b815260040160405180910390fd5b60048290556040518281527f1263b39fe165b48c204de3a3d752e6c7a129670cbe325757bdf76562664ef8d190602001610444565b600061071981610970565b600660009054906101000a90046001600160a01b03166001600160a01b03166322068b446040518163ffffffff1660e01b8152600401602060405180830381865afa15801561076c573d6000803e3d6000fd5b505050506040513d601f19601f8201168201806040525081019061079091906113ba565b82106107af57604051634dd76a3360e01b815260040160405180910390fd5b60038290556040518281527fdefccea87e6a6ac5c177a3e0318456cf032572ae03a96d9f44c4664a92999aef90602001610444565b600781815481106107f457600080fd5b6000918252602090912001546001600160a01b0316905081565b600061081981610970565b6008805460ff191683151590811790915560405160ff909116151581527fa3a2d1c4db55b0d5a8a9528000a005a3a576034e16abc47815aecff96fa3d90390602001610444565b600061086b81610970565b610635610c2b565b60009182526001602090815260408084206001600160a01b0393909316845291905290205460ff1690565b60006108a981610970565b600554604080516001600160a01b03928316815291841660208301527f83ebbd31e22910c696bcf3b247e11e635c0204f0c6dc527dae30aa58a076af13910160405180910390a150600580546001600160a01b0319166001600160a01b0392909216919091179055565b61091b61097a565b61092361099e565b6001600160a01b0381166109345750335b61094033848484610c68565b6105ec6001600255565b6000828152600160208190526040909120015461096681610970565b6105b38383610b04565b6106358133610ce2565b60005460ff16156106205760405163d93c066560e01b815260040160405180910390fd5b60028054036109c057604051633ee5aeb560e01b815260040160405180910390fd5b60028055565b604080516001600160a01b0385811660248301528416604482015260648082018490528251808303909101815260849091019091526020810180516001600160e01b03166323b872dd60e01b1790526105b3908590610d24565b60085460009060ff168015610a5c5750610a5a7f114e74f6ea3bd819998f78687bfcb11b140da08e9b7d222fa9c1f1ba1f2aa12233610873565b155b15610a7a576040516355b51ef160e01b815260040160405180910390fd5b610a848383610d87565b9392505050565b6000610a978383610873565b610afc5760008381526001602081815260408084206001600160a01b0387168086529252808420805460ff19169093179092559051339286917f2f8788117e7eff1d82e926ec794901d17c78024a50270940304540a733656f0d9190a45060016103cd565b5060006103cd565b6000610b108383610873565b15610afc5760008381526001602090815260408083206001600160a01b0386168085529252808320805460ff1916905551339286917ff6391f5c32d9c69d2a47ea670b442974b53935d1edc7fd64eb21e047a839171b9190a45060016103cd565b600654604051632026ffa360e01b81526001600160a01b0390911690632026ffa390610ba49084906007906004016113d3565b600060405180830381600087803b158015610bbe57600080fd5b505af1158015610bd2573d6000803e3d6000fd5b5050505050565b610be1610e01565b6000805460ff191690557f5db9ee0a495bf2e6ff9c91a7834c1ba4fdd244a5e8aa4e537bd38aeae4b073aa335b6040516001600160a01b03909116815260200160405180910390a1565b610c3361097a565b6000805460ff191660011790557f62e78cea01bee320cd4e420270b5ea74000d11b0c9f74754ebdbfc544b05a258610c0e3390565b60085460ff168015610ca15750610c9f7f114e74f6ea3bd819998f78687bfcb11b140da08e9b7d222fa9c1f1ba1f2aa12233610873565b155b15610cbf576040516355b51ef160e01b815260040160405180910390fd5b600654610cd7906001600160a01b03168530866109c6565b6105b3838383610e24565b610cec8282610873565b610d205760405163e2517d3f60e01b81526001600160a01b0382166004820152602481018390526044015b60405180910390fd5b5050565b6000610d396001600160a01b03841683610e92565b90508051600014158015610d5e575080806020019051810190610d5c91906113ff565b155b156105ec57604051635274afe760e01b81526001600160a01b0384166004820152602401610d17565b600654600354604051636766ea0f60e01b81526000926001600160a01b031691636766ea0f91610dbe91908790879060040161143f565b6020604051808303816000875af1158015610ddd573d6000803e3d6000fd5b505050506040513d601f19601f82011682018060405250810190610a8491906113ba565b60005460ff1661062057604051638dfc202b60e01b815260040160405180910390fd5b60065460048054604051632d526f8f60e21b81526001600160a01b039093169263b549be3c92610e5b92918891889188910161146c565b600060405180830381600087803b158015610e7557600080fd5b505af1158015610e89573d6000803e3d6000fd5b50505050505050565b6060610a848383600084600080856001600160a01b03168486604051610eb891906114a2565b60006040518083038185875af1925050503d8060008114610ef5576040519150601f19603f3d011682016040523d82523d6000602084013e610efa565b606091505b5091509150610f0a868383610f14565b9695505050505050565b606082610f2957610f2482610f70565b610a84565b8151158015610f4057506001600160a01b0384163b155b15610f6957604051639996b31560e01b81526001600160a01b0385166004820152602401610d17565b5080610a84565b805115610f805780518082602001fd5b604051630a12f52160e11b815260040160405180910390fd5b828054828255906000526020600020908101928215610fee579160200282015b82811115610fee57825182546001600160a01b0319166001600160a01b03909116178255602090920191600190910190610fb9565b50610ffa929150610ffe565b5090565b5b80821115610ffa5760008155600101610fff565b60006020828403121561102557600080fd5b81356001600160e01b031981168114610a8457600080fd5b634e487b7160e01b600052604160045260246000fd5b60405160a0810167ffffffffffffffff811182821017156110765761107661103d565b60405290565b604051601f8201601f1916810167ffffffffffffffff811182821017156110a5576110a561103d565b604052919050565b6001600160a01b038116811461063557600080fd5b600060208083850312156110d557600080fd5b823567ffffffffffffffff808211156110ed57600080fd5b818501915085601f83011261110157600080fd5b8135818111156111135761111361103d565b8060051b915061112484830161107c565b818152918301840191848101908884111561113e57600080fd5b938501935b838510156111685784359250611158836110ad565b8282529385019390850190611143565b98975050505050505050565b60006020828403121561118657600080fd5b5035919050565b600082601f83011261119e57600080fd5b6111a6611053565b8060a08401858111156111b857600080fd5b845b818110156111d25780358452602093840193016111ba565b509095945050505050565b60008060c083850312156111f057600080fd5b6111fa848461118d565b915060a083013561120a816110ad565b809150509250929050565b6000806040838503121561122857600080fd5b82359150602083013561120a816110ad565b801515811461063557600080fd5b60006020828403121561125a57600080fd5b8135610a848161123a565b60006020828403121561127757600080fd5b8135610a84816110ad565b600080600060e0848603121561129757600080fd5b833592506112a8856020860161118d565b915060c08401356112b8816110ad565b809150509250925092565b6000815480845260208085019450836000528060002060005b838110156113015781546001600160a01b0316875295820195600191820191016112dc565b509495945050505050565b602081526000610a8460208301846112c3565b634e487b7160e01b600052603260045260246000fd5b600060a0828403121561134757600080fd5b82601f83011261135657600080fd5b61135e611053565b8060a084018581111561137057600080fd5b845b818110156111d2578051611385816110ad565b845260209384019301611372565b6000600182016113b357634e487b7160e01b600052601160045260246000fd5b5060010190565b6000602082840312156113cc57600080fd5b5051919050565b6001600160a01b03831681526040602082018190526000906113f7908301846112c3565b949350505050565b60006020828403121561141157600080fd5b8151610a848161123a565b8060005b60058110156105b3578151845260209384019390910190600101611420565b83815260e08101611453602083018561141c565b6001600160a01b039290921660c0919091015292915050565b848152602081018490526101008101611488604083018561141c565b6001600160a01b039290921660e091909101529392505050565b6000825160005b818110156114c357602081860181015185830152016114a9565b50600092019182525091905056fea2646970667358221220cc9ce9e5bff543eed3b29c3ff6dc062c5b600a751bb0af986f7e0b0741fc1a8964736f6c63430008150033",
  "linkReferences": {},
  "deployedLinkReferences": {}
}