{
  "_format": "hh-sol-artifact-1",
  "contractName": "ZunamiDepositZap",
  "sourceName": "contracts/utils/ZunamiDepositZap.sol",
  "abi": [
    {
      "inputs": [
        {
          "internalType": "address",
          "name": "omnipoolControllerAddr",
          "type": "address"
        },
        {
          "internalType": "address",
          "name": "apsControllerAddr",
          "type": "address"
        }
      ],
      "stateMutability": "nonpayable",
      "type": "constructor"
    },
    {
      "inputs": [
        {
          "internalType": "address",
          "name": "target",
          "type": "address"
        }
      ],
      "name": "AddressEmptyCode",
      "type": "error"
    },
    {
      "inputs": [
        {
          "internalType": "address",
          "name": "account",
          "type": "address"
        }
      ],
      "name": "AddressInsufficientBalance",
      "type": "error"
    },
    {
      "inputs": [],
      "name": "FailedInnerCall",
      "type": "error"
    },
    {
      "inputs": [
        {
          "internalType": "address",
          "name": "token",
          "type": "address"
        }
      ],
      "name": "SafeERC20FailedOperation",
      "type": "error"
    },
    {
      "inputs": [],
      "name": "SameAddress",
      "type": "error"
    },
    {
      "inputs": [],
      "name": "ZeroAddress",
      "type": "error"
    },
    {
      "inputs": [],
      "name": "POOL_ASSETS",
      "outputs": [
        {
          "internalType": "uint8",
          "name": "",
          "type": "uint8"
        }
      ],
      "stateMutability": "view",
      "type": "function"
    },
    {
      "inputs": [],
      "name": "apsController",
      "outputs": [
        {
          "internalType": "contract IPoolController",
          "name": "",
          "type": "address"
        }
      ],
      "stateMutability": "view",
      "type": "function"
    },
    {
      "inputs": [
        {
          "internalType": "uint256[5]",
          "name": "amounts",
          "type": "uint256[5]"
        },
        {
          "internalType": "address",
          "name": "receiver",
          "type": "address"
        }
      ],
      "name": "deposit",
      "outputs": [
        {
          "internalType": "uint256",
          "name": "shares",
          "type": "uint256"
        }
      ],
      "stateMutability": "nonpayable",
      "type": "function"
    },
    {
      "inputs": [],
      "name": "omnipoolController",
      "outputs": [
        {
          "internalType": "contract IPoolController",
          "name": "",
          "type": "address"
        }
      ],
      "stateMutability": "view",
      "type": "function"
    }
  ],
  "bytecode": "0x608060405234801561001057600080fd5b50604051610bbb380380610bbb83398101604081905261002f916100e9565b6001600160a01b038216158061004c57506001600160a01b038116155b1561006a5760405163d92e233d60e01b815260040160405180910390fd5b806001600160a01b0316826001600160a01b03160361009c5760405163367558c360e01b815260040160405180910390fd5b600080546001600160a01b039384166001600160a01b0319918216179091556001805492909316911617905561011c565b80516001600160a01b03811681146100e457600080fd5b919050565b600080604083850312156100fc57600080fd5b610105836100cd565b9150610113602084016100cd565b90509250929050565b610a908061012b6000396000f3fe608060405234801561001057600080fd5b506004361061004c5760003560e01c80632d62af2f1461005157806375451b4f146100775780638b03244614610091578063e47de8b2146100bc575b600080fd5b61006461005f36600461087f565b6100cf565b6040519081526020015b60405180910390f35b61007f600581565b60405160ff909116815260200161006e565b6001546100a4906001600160a01b031681565b6040516001600160a01b03909116815260200161006e565b6000546100a4906001600160a01b031681565b60006001600160a01b0382166100e3573391505b60008060009054906101000a90046001600160a01b03166001600160a01b03166316f0115b6040518163ffffffff1660e01b8152600401602060405180830381865afa158015610137573d6000803e3d6000fd5b505050506040513d601f19601f8201168201806040525081019061015b91906108f0565b90506000816001600160a01b0316639d63848a6040518163ffffffff1660e01b815260040160a060405180830381865afa15801561019d573d6000803e3d6000fd5b505050506040513d601f19601f820116820180604052508101906101c1919061090d565b905060005b60058110156102b85760008282600581106101e3576101e3610976565b602002015190506001600160a01b038116158015906102185750600087836005811061021157610211610976565b6020020151115b156102af57610261333089856005811061023457610234610976565b602002015186866005811061024b5761024b610976565b60200201516001600160a01b031692919061045d565b6000546102af906001600160a01b031688846005811061028357610283610976565b602002015185856005811061029a5761029a610976565b60200201516001600160a01b031691906104ca565b506001016101c6565b50600054604051632d62af2f60e01b81526001600160a01b0390911690632d62af2f906102eb908890309060040161098c565b6020604051808303816000875af115801561030a573d6000803e3d6000fd5b505050506040513d601f19601f8201168201806040525081019061032e91906109cf565b506040516370a0823160e01b81523060048201526000906001600160a01b038416906370a0823190602401602060405180830381865afa158015610376573d6000803e3d6000fd5b505050506040513d601f19601f8201168201806040525081019061039a91906109cf565b6001549091506103b7906001600160a01b038581169116836104ca565b6001546040805160a0810182528381526000602082018190528183018190526060820181905260808201529051632d62af2f60e01b81526001600160a01b0390921691632d62af2f9161040e91899060040161098c565b6020604051808303816000875af115801561042d573d6000803e3d6000fd5b505050506040513d601f19601f8201168201806040525081019061045191906109cf565b93505050505b92915050565b6040516001600160a01b0384811660248301528381166044830152606482018390526104c49186918216906323b872dd906084015b604051602081830303815290604052915060e01b6020820180516001600160e01b038381831617835250505050610554565b50505050565b604051636eb1769f60e11b81523060048201526001600160a01b0383811660248301526000919085169063dd62ed3e90604401602060405180830381865afa15801561051a573d6000803e3d6000fd5b505050506040513d601f19601f8201168201806040525081019061053e91906109cf565b90506104c4848461054f85856109e8565b6105c1565b60006105696001600160a01b03841683610651565b9050805160001415801561058e57508080602001905181019061058c9190610a09565b155b156105bc57604051635274afe760e01b81526001600160a01b03841660048201526024015b60405180910390fd5b505050565b604080516001600160a01b038416602482015260448082018490528251808303909101815260649091019091526020810180516001600160e01b031663095ea7b360e01b1790526106128482610666565b6104c4576040516001600160a01b0384811660248301526000604483015261064791869182169063095ea7b390606401610492565b6104c48482610554565b606061065f8383600061070e565b9392505050565b6000806000846001600160a01b0316846040516106839190610a2b565b6000604051808303816000865af19150503d80600081146106c0576040519150601f19603f3d011682016040523d82523d6000602084013e6106c5565b606091505b50915091508180156106ef5750805115806106ef5750808060200190518101906106ef9190610a09565b801561070557506000856001600160a01b03163b115b95945050505050565b6060814710156107335760405163cd78605960e01b81523060048201526024016105b3565b600080856001600160a01b0316848660405161074f9190610a2b565b60006040518083038185875af1925050503d806000811461078c576040519150601f19603f3d011682016040523d82523d6000602084013e610791565b606091505b50915091506107a18683836107ab565b9695505050505050565b6060826107c0576107bb82610807565b61065f565b81511580156107d757506001600160a01b0384163b155b1561080057604051639996b31560e01b81526001600160a01b03851660048201526024016105b3565b508061065f565b8051156108175780518082602001fd5b604051630a12f52160e11b815260040160405180910390fd5b50565b60405160a0810167ffffffffffffffff8111828210171561086457634e487b7160e01b600052604160045260246000fd5b60405290565b6001600160a01b038116811461083057600080fd5b60008060c0838503121561089257600080fd5b83601f8401126108a157600080fd5b6108a9610833565b8060a08501868111156108bb57600080fd5b855b818110156108d55780358452602093840193016108bd565b509093503590506108e58161086a565b809150509250929050565b60006020828403121561090257600080fd5b815161065f8161086a565b600060a0828403121561091f57600080fd5b82601f83011261092e57600080fd5b610936610833565b8060a084018581111561094857600080fd5b845b8181101561096b57805161095d8161086a565b84526020938401930161094a565b509095945050505050565b634e487b7160e01b600052603260045260246000fd5b60c08101818460005b60058110156109b4578151835260209283019290910190600101610995565b5050506001600160a01b039290921660a09190910152919050565b6000602082840312156109e157600080fd5b5051919050565b8082018082111561045757634e487b7160e01b600052601160045260246000fd5b600060208284031215610a1b57600080fd5b8151801515811461065f57600080fd5b6000825160005b81811015610a4c5760208186018101518583015201610a32565b50600092019182525091905056fea26469706673582212204a931d5f5d7586db3187bc2b201109ff113fe0d01965884fc3b91803b04edb2664736f6c63430008160033",
  "linkReferences": {},
  "deployedLinkReferences": {}
}