{
  "_format": "hh-sol-artifact-1",
  "contractName": "ZunamiPoolCompoundController",
  "sourceName": "contracts/ZunamiPoolCompoundController.sol",
  "abi": [
    {
      "inputs": [
        {
          "internalType": "address",
          "name": "pool_",
          "type": "address"
        },
        {
          "internalType": "string",
          "name": "name_",
          "type": "string"
        },
        {
          "internalType": "string",
          "name": "symbol_",
          "type": "string"
        }
      ],
      "stateMutability": "nonpayable",
      "type": "constructor"
    },
    {
      "inputs": [],
      "name": "AccessControlBadConfirmation",
      "type": "error"
    },
    {
      "inputs": [
        {
          "internalType": "address",
          "name": "account",
          "type": "address"
        },
        {
          "internalType": "bytes32",
          "name": "neededRole",
          "type": "bytes32"
        }
      ],
      "name": "AccessControlUnauthorizedAccount",
      "type": "error"
    },
    {
      "inputs": [
        {
          "internalType": "address",
          "name": "target",
          "type": "address"
        }
      ],
      "name": "AddressEmptyCode",
      "type": "error"
    },
    {
      "inputs": [
        {
          "internalType": "address",
          "name": "account",
          "type": "address"
        }
      ],
      "name": "AddressInsufficientBalance",
      "type": "error"
    },
    {
      "inputs": [],
      "name": "ECDSAInvalidSignature",
      "type": "error"
    },
    {
      "inputs": [
        {
          "internalType": "uint256",
          "name": "length",
          "type": "uint256"
        }
      ],
      "name": "ECDSAInvalidSignatureLength",
      "type": "error"
    },
    {
      "inputs": [
        {
          "internalType": "bytes32",
          "name": "s",
          "type": "bytes32"
        }
      ],
      "name": "ECDSAInvalidSignatureS",
      "type": "error"
    },
    {
      "inputs": [
        {
          "internalType": "address",
          "name": "spender",
          "type": "address"
        },
        {
          "internalType": "uint256",
          "name": "allowance",
          "type": "uint256"
        },
        {
          "internalType": "uint256",
          "name": "needed",
          "type": "uint256"
        }
      ],
      "name": "ERC20InsufficientAllowance",
      "type": "error"
    },
    {
      "inputs": [
        {
          "internalType": "address",
          "name": "sender",
          "type": "address"
        },
        {
          "internalType": "uint256",
          "name": "balance",
          "type": "uint256"
        },
        {
          "internalType": "uint256",
          "name": "needed",
          "type": "uint256"
        }
      ],
      "name": "ERC20InsufficientBalance",
      "type": "error"
    },
    {
      "inputs": [
        {
          "internalType": "address",
          "name": "approver",
          "type": "address"
        }
      ],
      "name": "ERC20InvalidApprover",
      "type": "error"
    },
    {
      "inputs": [
        {
          "internalType": "address",
          "name": "receiver",
          "type": "address"
        }
      ],
      "name": "ERC20InvalidReceiver",
      "type": "error"
    },
    {
      "inputs": [
        {
          "internalType": "address",
          "name": "sender",
          "type": "address"
        }
      ],
      "name": "ERC20InvalidSender",
      "type": "error"
    },
    {
      "inputs": [
        {
          "internalType": "address",
          "name": "spender",
          "type": "address"
        }
      ],
      "name": "ERC20InvalidSpender",
      "type": "error"
    },
    {
      "inputs": [
        {
          "internalType": "uint256",
          "name": "deadline",
          "type": "uint256"
        }
      ],
      "name": "ERC2612ExpiredSignature",
      "type": "error"
    },
    {
      "inputs": [
        {
          "internalType": "address",
          "name": "signer",
          "type": "address"
        },
        {
          "internalType": "address",
          "name": "owner",
          "type": "address"
        }
      ],
      "name": "ERC2612InvalidSigner",
      "type": "error"
    },
    {
      "inputs": [],
      "name": "EnforcedPause",
      "type": "error"
    },
    {
      "inputs": [],
      "name": "ExpectedPause",
      "type": "error"
    },
    {
      "inputs": [],
      "name": "FailedInnerCall",
      "type": "error"
    },
    {
      "inputs": [],
      "name": "FeeMustBeWithdrawn",
      "type": "error"
    },
    {
      "inputs": [
        {
          "internalType": "address",
          "name": "account",
          "type": "address"
        },
        {
          "internalType": "uint256",
          "name": "currentNonce",
          "type": "uint256"
        }
      ],
      "name": "InvalidAccountNonce",
      "type": "error"
    },
    {
      "inputs": [],
      "name": "InvalidShortString",
      "type": "error"
    },
    {
      "inputs": [],
      "name": "ReentrancyGuardReentrantCall",
      "type": "error"
    },
    {
      "inputs": [
        {
          "internalType": "address",
          "name": "token",
          "type": "address"
        }
      ],
      "name": "SafeERC20FailedOperation",
      "type": "error"
    },
    {
      "inputs": [
        {
          "internalType": "string",
          "name": "str",
          "type": "string"
        }
      ],
      "name": "StringTooLong",
      "type": "error"
    },
    {
      "inputs": [],
      "name": "WrongFee",
      "type": "error"
    },
    {
      "inputs": [
        {
          "internalType": "contract IERC20[]",
          "name": "rewardTokens",
          "type": "address[]"
        }
      ],
      "name": "WrongRewardTokens",
      "type": "error"
    },
    {
      "inputs": [],
      "name": "WrongSid",
      "type": "error"
    },
    {
      "inputs": [
        {
          "internalType": "uint256",
          "name": "tid",
          "type": "uint256"
        }
      ],
      "name": "WrongTokenId",
      "type": "error"
    },
    {
      "inputs": [],
      "name": "ZeroAddress",
      "type": "error"
    },
    {
      "inputs": [],
      "name": "ZeroFeeTokenAddress",
      "type": "error"
    },
    {
      "inputs": [
        {
          "internalType": "uint256",
          "name": "index",
          "type": "uint256"
        }
      ],
      "name": "ZeroTokenAddress",
      "type": "error"
    },
    {
      "anonymous": false,
      "inputs": [
        {
          "indexed": true,
          "internalType": "address",
          "name": "owner",
          "type": "address"
        },
        {
          "indexed": true,
          "internalType": "address",
          "name": "spender",
          "type": "address"
        },
        {
          "indexed": false,
          "internalType": "uint256",
          "name": "value",
          "type": "uint256"
        }
      ],
      "name": "Approval",
      "type": "event"
    },
    {
      "anonymous": false,
      "inputs": [
        {
          "indexed": false,
          "internalType": "uint256",
          "name": "compoundedValue",
          "type": "uint256"
        }
      ],
      "name": "AutoCompoundedAll",
      "type": "event"
    },
    {
      "anonymous": false,
      "inputs": [
        {
          "indexed": false,
          "internalType": "address",
          "name": "feeToken",
          "type": "address"
        },
        {
          "indexed": false,
          "internalType": "uint256",
          "name": "feeValue",
          "type": "uint256"
        }
      ],
      "name": "ClaimedManagementFee",
      "type": "event"
    },
    {
      "anonymous": false,
      "inputs": [
        {
          "indexed": true,
          "internalType": "address",
          "name": "receiver",
          "type": "address"
        },
        {
          "indexed": false,
          "internalType": "uint256",
          "name": "assets",
          "type": "uint256"
        },
        {
          "indexed": false,
          "internalType": "uint256",
          "name": "shares",
          "type": "uint256"
        },
        {
          "indexed": false,
          "internalType": "uint256",
          "name": "sid",
          "type": "uint256"
        }
      ],
      "name": "Deposited",
      "type": "event"
    },
    {
      "anonymous": false,
      "inputs": [],
      "name": "EIP712DomainChanged",
      "type": "event"
    },
    {
      "anonymous": false,
      "inputs": [
        {
          "indexed": false,
          "internalType": "address",
          "name": "oldFeeDistributor",
          "type": "address"
        },
        {
          "indexed": false,
          "internalType": "address",
          "name": "newFeeDistributor",
          "type": "address"
        }
      ],
      "name": "FeeDistributorChanged",
      "type": "event"
    },
    {
      "anonymous": false,
      "inputs": [
        {
          "indexed": false,
          "internalType": "uint256",
          "name": "oldManagementFee",
          "type": "uint256"
        },
        {
          "indexed": false,
          "internalType": "uint256",
          "name": "newManagementFee",
          "type": "uint256"
        }
      ],
      "name": "ManagementFeePercentSet",
      "type": "event"
    },
    {
      "anonymous": false,
      "inputs": [
        {
          "indexed": false,
          "internalType": "address",
          "name": "account",
          "type": "address"
        }
      ],
      "name": "Paused",
      "type": "event"
    },
    {
      "anonymous": false,
      "inputs": [
        {
          "indexed": true,
          "internalType": "bytes32",
          "name": "role",
          "type": "bytes32"
        },
        {
          "indexed": true,
          "internalType": "bytes32",
          "name": "previousAdminRole",
          "type": "bytes32"
        },
        {
          "indexed": true,
          "internalType": "bytes32",
          "name": "newAdminRole",
          "type": "bytes32"
        }
      ],
      "name": "RoleAdminChanged",
      "type": "event"
    },
    {
      "anonymous": false,
      "inputs": [
        {
          "indexed": true,
          "internalType": "bytes32",
          "name": "role",
          "type": "bytes32"
        },
        {
          "indexed": true,
          "internalType": "address",
          "name": "account",
          "type": "address"
        },
        {
          "indexed": true,
          "internalType": "address",
          "name": "sender",
          "type": "address"
        }
      ],
      "name": "RoleGranted",
      "type": "event"
    },
    {
      "anonymous": false,
      "inputs": [
        {
          "indexed": true,
          "internalType": "bytes32",
          "name": "role",
          "type": "bytes32"
        },
        {
          "indexed": true,
          "internalType": "address",
          "name": "account",
          "type": "address"
        },
        {
          "indexed": true,
          "internalType": "address",
          "name": "sender",
          "type": "address"
        }
      ],
      "name": "RoleRevoked",
      "type": "event"
    },
    {
      "anonymous": false,
      "inputs": [
        {
          "indexed": false,
          "internalType": "uint256",
          "name": "sid",
          "type": "uint256"
        }
      ],
      "name": "SetDefaultDepositSid",
      "type": "event"
    },
    {
      "anonymous": false,
      "inputs": [
        {
          "indexed": false,
          "internalType": "uint256",
          "name": "sid",
          "type": "uint256"
        }
      ],
      "name": "SetDefaultWithdrawSid",
      "type": "event"
    },
    {
      "anonymous": false,
      "inputs": [
        {
          "indexed": false,
          "internalType": "uint256",
          "name": "tid",
          "type": "uint256"
        }
      ],
      "name": "SetFeeTokenId",
      "type": "event"
    },
    {
      "anonymous": false,
      "inputs": [
        {
          "indexed": false,
          "internalType": "address",
          "name": "rewardManager",
          "type": "address"
        }
      ],
      "name": "SetRewardManager",
      "type": "event"
    },
    {
      "anonymous": false,
      "inputs": [
        {
          "indexed": false,
          "internalType": "contract IERC20[]",
          "name": "rewardTokens",
          "type": "address[]"
        }
      ],
      "name": "SetRewardTokens",
      "type": "event"
    },
    {
      "anonymous": false,
      "inputs": [
        {
          "indexed": true,
          "internalType": "address",
          "name": "from",
          "type": "address"
        },
        {
          "indexed": true,
          "internalType": "address",
          "name": "to",
          "type": "address"
        },
        {
          "indexed": false,
          "internalType": "uint256",
          "name": "value",
          "type": "uint256"
        }
      ],
      "name": "Transfer",
      "type": "event"
    },
    {
      "anonymous": false,
      "inputs": [
        {
          "indexed": false,
          "internalType": "address",
          "name": "account",
          "type": "address"
        }
      ],
      "name": "Unpaused",
      "type": "event"
    },
    {
      "anonymous": false,
      "inputs": [
        {
          "indexed": true,
          "internalType": "address",
          "name": "withdrawer",
          "type": "address"
        },
        {
          "indexed": false,
          "internalType": "uint256",
          "name": "shares",
          "type": "uint256"
        },
        {
          "indexed": false,
          "internalType": "uint256",
          "name": "assets",
          "type": "uint256"
        },
        {
          "indexed": false,
          "internalType": "uint256",
          "name": "sid",
          "type": "uint256"
        }
      ],
      "name": "Withdrawn",
      "type": "event"
    },
    {
      "inputs": [],
      "name": "DEFAULT_ADMIN_ROLE",
      "outputs": [
        {
          "internalType": "bytes32",
          "name": "",
          "type": "bytes32"
        }
      ],
      "stateMutability": "view",
      "type": "function"
    },
    {
      "inputs": [],
      "name": "DOMAIN_SEPARATOR",
      "outputs": [
        {
          "internalType": "bytes32",
          "name": "",
          "type": "bytes32"
        }
      ],
      "stateMutability": "view",
      "type": "function"
    },
    {
      "inputs": [],
      "name": "FEE_DENOMINATOR",
      "outputs": [
        {
          "internalType": "uint256",
          "name": "",
          "type": "uint256"
        }
      ],
      "stateMutability": "view",
      "type": "function"
    },
    {
      "inputs": [],
      "name": "MAX_FEE",
      "outputs": [
        {
          "internalType": "uint256",
          "name": "",
          "type": "uint256"
        }
      ],
      "stateMutability": "view",
      "type": "function"
    },
    {
      "inputs": [],
      "name": "MINIMUM_LIQUIDITY",
      "outputs": [
        {
          "internalType": "uint256",
          "name": "",
          "type": "uint256"
        }
      ],
      "stateMutability": "view",
      "type": "function"
    },
    {
      "inputs": [],
      "name": "MINIMUM_LIQUIDITY_LOCKER",
      "outputs": [
        {
          "internalType": "address",
          "name": "",
          "type": "address"
        }
      ],
      "stateMutability": "view",
      "type": "function"
    },
    {
      "inputs": [],
      "name": "POOL_ASSETS",
      "outputs": [
        {
          "internalType": "uint8",
          "name": "",
          "type": "uint8"
        }
      ],
      "stateMutability": "view",
      "type": "function"
    },
    {
      "inputs": [],
      "name": "PRICE_MULTIPLIER",
      "outputs": [
        {
          "internalType": "uint256",
          "name": "",
          "type": "uint256"
        }
      ],
      "stateMutability": "view",
      "type": "function"
    },
    {
      "inputs": [
        {
          "internalType": "address",
          "name": "owner",
          "type": "address"
        },
        {
          "internalType": "address",
          "name": "spender",
          "type": "address"
        }
      ],
      "name": "allowance",
      "outputs": [
        {
          "internalType": "uint256",
          "name": "",
          "type": "uint256"
        }
      ],
      "stateMutability": "view",
      "type": "function"
    },
    {
      "inputs": [
        {
          "internalType": "address",
          "name": "spender",
          "type": "address"
        },
        {
          "internalType": "uint256",
          "name": "value",
          "type": "uint256"
        }
      ],
      "name": "approve",
      "outputs": [
        {
          "internalType": "bool",
          "name": "",
          "type": "bool"
        }
      ],
      "stateMutability": "nonpayable",
      "type": "function"
    },
    {
      "inputs": [],
      "name": "autoCompoundAll",
      "outputs": [],
      "stateMutability": "nonpayable",
      "type": "function"
    },
    {
      "inputs": [
        {
          "internalType": "address",
          "name": "account",
          "type": "address"
        }
      ],
      "name": "balanceOf",
      "outputs": [
        {
          "internalType": "uint256",
          "name": "",
          "type": "uint256"
        }
      ],
      "stateMutability": "view",
      "type": "function"
    },
    {
      "inputs": [
        {
          "internalType": "uint256",
          "name": "_holdings",
          "type": "uint256"
        },
        {
          "internalType": "uint256",
          "name": "_tokens",
          "type": "uint256"
        }
      ],
      "name": "calcTokenPrice",
      "outputs": [
        {
          "internalType": "uint256",
          "name": "",
          "type": "uint256"
        }
      ],
      "stateMutability": "pure",
      "type": "function"
    },
    {
      "inputs": [
        {
          "internalType": "address",
          "name": "_feeDistributor",
          "type": "address"
        }
      ],
      "name": "changeFeeDistributor",
      "outputs": [],
      "stateMutability": "nonpayable",
      "type": "function"
    },
    {
      "inputs": [],
      "name": "claimManagementFee",
      "outputs": [],
      "stateMutability": "nonpayable",
      "type": "function"
    },
    {
      "inputs": [],
      "name": "collectedManagementFee",
      "outputs": [
        {
          "internalType": "uint256",
          "name": "",
          "type": "uint256"
        }
      ],
      "stateMutability": "view",
      "type": "function"
    },
    {
      "inputs": [],
      "name": "decimals",
      "outputs": [
        {
          "internalType": "uint8",
          "name": "",
          "type": "uint8"
        }
      ],
      "stateMutability": "view",
      "type": "function"
    },
    {
      "inputs": [],
      "name": "defaultDepositSid",
      "outputs": [
        {
          "internalType": "uint256",
          "name": "",
          "type": "uint256"
        }
      ],
      "stateMutability": "view",
      "type": "function"
    },
    {
      "inputs": [],
      "name": "defaultWithdrawSid",
      "outputs": [
        {
          "internalType": "uint256",
          "name": "",
          "type": "uint256"
        }
      ],
      "stateMutability": "view",
      "type": "function"
    },
    {
      "inputs": [
        {
          "internalType": "uint256[5]",
          "name": "amounts",
          "type": "uint256[5]"
        },
        {
          "internalType": "address",
          "name": "receiver",
          "type": "address"
        }
      ],
      "name": "deposit",
      "outputs": [
        {
          "internalType": "uint256",
          "name": "shares",
          "type": "uint256"
        }
      ],
      "stateMutability": "nonpayable",
      "type": "function"
    },
    {
      "inputs": [],
      "name": "eip712Domain",
      "outputs": [
        {
          "internalType": "bytes1",
          "name": "fields",
          "type": "bytes1"
        },
        {
          "internalType": "string",
          "name": "name",
          "type": "string"
        },
        {
          "internalType": "string",
          "name": "version",
          "type": "string"
        },
        {
          "internalType": "uint256",
          "name": "chainId",
          "type": "uint256"
        },
        {
          "internalType": "address",
          "name": "verifyingContract",
          "type": "address"
        },
        {
          "internalType": "bytes32",
          "name": "salt",
          "type": "bytes32"
        },
        {
          "internalType": "uint256[]",
          "name": "extensions",
          "type": "uint256[]"
        }
      ],
      "stateMutability": "view",
      "type": "function"
    },
    {
      "inputs": [],
      "name": "feeDistributor",
      "outputs": [
        {
          "internalType": "address",
          "name": "",
          "type": "address"
        }
      ],
      "stateMutability": "view",
      "type": "function"
    },
    {
      "inputs": [],
      "name": "feeTokenId",
      "outputs": [
        {
          "internalType": "uint256",
          "name": "",
          "type": "uint256"
        }
      ],
      "stateMutability": "view",
      "type": "function"
    },
    {
      "inputs": [
        {
          "internalType": "bytes32",
          "name": "role",
          "type": "bytes32"
        }
      ],
      "name": "getRoleAdmin",
      "outputs": [
        {
          "internalType": "bytes32",
          "name": "",
          "type": "bytes32"
        }
      ],
      "stateMutability": "view",
      "type": "function"
    },
    {
      "inputs": [
        {
          "internalType": "bytes32",
          "name": "role",
          "type": "bytes32"
        },
        {
          "internalType": "address",
          "name": "account",
          "type": "address"
        }
      ],
      "name": "grantRole",
      "outputs": [],
      "stateMutability": "nonpayable",
      "type": "function"
    },
    {
      "inputs": [
        {
          "internalType": "bytes32",
          "name": "role",
          "type": "bytes32"
        },
        {
          "internalType": "address",
          "name": "account",
          "type": "address"
        }
      ],
      "name": "hasRole",
      "outputs": [
        {
          "internalType": "bool",
          "name": "",
          "type": "bool"
        }
      ],
      "stateMutability": "view",
      "type": "function"
    },
    {
      "inputs": [],
      "name": "managementFeePercent",
      "outputs": [
        {
          "internalType": "uint256",
          "name": "",
          "type": "uint256"
        }
      ],
      "stateMutability": "view",
      "type": "function"
    },
    {
      "inputs": [],
      "name": "name",
      "outputs": [
        {
          "internalType": "string",
          "name": "",
          "type": "string"
        }
      ],
      "stateMutability": "view",
      "type": "function"
    },
    {
      "inputs": [
        {
          "internalType": "address",
          "name": "owner",
          "type": "address"
        }
      ],
      "name": "nonces",
      "outputs": [
        {
          "internalType": "uint256",
          "name": "",
          "type": "uint256"
        }
      ],
      "stateMutability": "view",
      "type": "function"
    },
    {
      "inputs": [],
      "name": "pause",
      "outputs": [],
      "stateMutability": "nonpayable",
      "type": "function"
    },
    {
      "inputs": [],
      "name": "paused",
      "outputs": [
        {
          "internalType": "bool",
          "name": "",
          "type": "bool"
        }
      ],
      "stateMutability": "view",
      "type": "function"
    },
    {
      "inputs": [
        {
          "internalType": "address",
          "name": "owner",
          "type": "address"
        },
        {
          "internalType": "address",
          "name": "spender",
          "type": "address"
        },
        {
          "internalType": "uint256",
          "name": "value",
          "type": "uint256"
        },
        {
          "internalType": "uint256",
          "name": "deadline",
          "type": "uint256"
        },
        {
          "internalType": "uint8",
          "name": "v",
          "type": "uint8"
        },
        {
          "internalType": "bytes32",
          "name": "r",
          "type": "bytes32"
        },
        {
          "internalType": "bytes32",
          "name": "s",
          "type": "bytes32"
        }
      ],
      "name": "permit",
      "outputs": [],
      "stateMutability": "nonpayable",
      "type": "function"
    },
    {
      "inputs": [],
      "name": "pool",
      "outputs": [
        {
          "internalType": "contract IPool",
          "name": "",
          "type": "address"
        }
      ],
      "stateMutability": "view",
      "type": "function"
    },
    {
      "inputs": [
        {
          "internalType": "bytes32",
          "name": "role",
          "type": "bytes32"
        },
        {
          "internalType": "address",
          "name": "callerConfirmation",
          "type": "address"
        }
      ],
      "name": "renounceRole",
      "outputs": [],
      "stateMutability": "nonpayable",
      "type": "function"
    },
    {
      "inputs": [
        {
          "internalType": "bytes32",
          "name": "role",
          "type": "bytes32"
        },
        {
          "internalType": "address",
          "name": "account",
          "type": "address"
        }
      ],
      "name": "revokeRole",
      "outputs": [],
      "stateMutability": "nonpayable",
      "type": "function"
    },
    {
      "inputs": [],
      "name": "rewardManager",
      "outputs": [
        {
          "internalType": "contract IRewardManager",
          "name": "",
          "type": "address"
        }
      ],
      "stateMutability": "view",
      "type": "function"
    },
    {
      "inputs": [
        {
          "internalType": "uint256",
          "name": "",
          "type": "uint256"
        }
      ],
      "name": "rewardTokens",
      "outputs": [
        {
          "internalType": "contract IERC20",
          "name": "",
          "type": "address"
        }
      ],
      "stateMutability": "view",
      "type": "function"
    },
    {
      "inputs": [
        {
          "internalType": "uint256",
          "name": "_newPoolId",
          "type": "uint256"
        }
      ],
      "name": "setDefaultDepositSid",
      "outputs": [],
      "stateMutability": "nonpayable",
      "type": "function"
    },
    {
      "inputs": [
        {
          "internalType": "uint256",
          "name": "_newPoolId",
          "type": "uint256"
        }
      ],
      "name": "setDefaultWithdrawSid",
      "outputs": [],
      "stateMutability": "nonpayable",
      "type": "function"
    },
    {
      "inputs": [
        {
          "internalType": "uint256",
          "name": "_tokenId",
          "type": "uint256"
        }
      ],
      "name": "setFeeTokenId",
      "outputs": [],
      "stateMutability": "nonpayable",
      "type": "function"
    },
    {
      "inputs": [
        {
          "internalType": "uint256",
          "name": "newManagementFeePercent",
          "type": "uint256"
        }
      ],
      "name": "setManagementFeePercent",
      "outputs": [],
      "stateMutability": "nonpayable",
      "type": "function"
    },
    {
      "inputs": [
        {
          "internalType": "address",
          "name": "rewardManagerAddr",
          "type": "address"
        }
      ],
      "name": "setRewardManager",
      "outputs": [],
      "stateMutability": "nonpayable",
      "type": "function"
    },
    {
      "inputs": [
        {
          "internalType": "contract IERC20[]",
          "name": "rewardTokens_",
          "type": "address[]"
        }
      ],
      "name": "setRewardTokens",
      "outputs": [],
      "stateMutability": "nonpayable",
      "type": "function"
    },
    {
      "inputs": [
        {
          "internalType": "bytes4",
          "name": "interfaceId",
          "type": "bytes4"
        }
      ],
      "name": "supportsInterface",
      "outputs": [
        {
          "internalType": "bool",
          "name": "",
          "type": "bool"
        }
      ],
      "stateMutability": "view",
      "type": "function"
    },
    {
      "inputs": [],
      "name": "symbol",
      "outputs": [
        {
          "internalType": "string",
          "name": "",
          "type": "string"
        }
      ],
      "stateMutability": "view",
      "type": "function"
    },
    {
      "inputs": [],
      "name": "tokenPrice",
      "outputs": [
        {
          "internalType": "uint256",
          "name": "",
          "type": "uint256"
        }
      ],
      "stateMutability": "view",
      "type": "function"
    },
    {
      "inputs": [],
      "name": "totalSupply",
      "outputs": [
        {
          "internalType": "uint256",
          "name": "",
          "type": "uint256"
        }
      ],
      "stateMutability": "view",
      "type": "function"
    },
    {
      "inputs": [
        {
          "internalType": "address",
          "name": "to",
          "type": "address"
        },
        {
          "internalType": "uint256",
          "name": "value",
          "type": "uint256"
        }
      ],
      "name": "transfer",
      "outputs": [
        {
          "internalType": "bool",
          "name": "",
          "type": "bool"
        }
      ],
      "stateMutability": "nonpayable",
      "type": "function"
    },
    {
      "inputs": [
        {
          "internalType": "address",
          "name": "from",
          "type": "address"
        },
        {
          "internalType": "address",
          "name": "to",
          "type": "address"
        },
        {
          "internalType": "uint256",
          "name": "value",
          "type": "uint256"
        }
      ],
      "name": "transferFrom",
      "outputs": [
        {
          "internalType": "bool",
          "name": "",
          "type": "bool"
        }
      ],
      "stateMutability": "nonpayable",
      "type": "function"
    },
    {
      "inputs": [],
      "name": "unpause",
      "outputs": [],
      "stateMutability": "nonpayable",
      "type": "function"
    },
    {
      "inputs": [
        {
          "internalType": "uint256",
          "name": "shares",
          "type": "uint256"
        },
        {
          "internalType": "uint256[5]",
          "name": "minTokenAmounts",
          "type": "uint256[5]"
        },
        {
          "internalType": "address",
          "name": "receiver",
          "type": "address"
        }
      ],
      "name": "withdraw",
      "outputs": [],
      "stateMutability": "nonpayable",
      "type": "function"
    }
  ],
  "bytecode": "0x6101806040526064600e553480156200001757600080fd5b5060405162003a4f38038062003a4f8339810160408190526200003a91620003a8565b828280604051806040016040528060018152602001603160f81b815250858581600390816200006a9190620004c3565b506004620000798282620004c3565b506200008b91508390506005620001a4565b610120526200009c816006620001a4565b61014052815160208084019190912060e052815190820120610100524660a0526200012a60e05161010051604080517f8b73c3c69bb8fe3d512ecc4cf759cc79239f7b179b0ffacaa9a75d522b39400f60208201529081019290925260608201524660808201523060a082015260009060c00160405160208183030381529060405280519060200120905090565b60805250503060c052506008805460ff191690556001600a556001600160a01b0381166200016b5760405163d92e233d60e01b815260040160405180910390fd5b6001600160a01b0381166101605262000186600033620001dd565b5050601080546001600160a01b0319163317905550620005e9915050565b6000602083511015620001c457620001bc836200028f565b9050620001d7565b81620001d18482620004c3565b5060ff90505b92915050565b60008281526009602090815260408083206001600160a01b038516845290915281205460ff16620002865760008381526009602090815260408083206001600160a01b03861684529091529020805460ff191660011790556200023d3390565b6001600160a01b0316826001600160a01b0316847f2f8788117e7eff1d82e926ec794901d17c78024a50270940304540a733656f0d60405160405180910390a4506001620001d7565b506000620001d7565b600080829050601f81511115620002c6578260405163305a27a960e01b8152600401620002bd91906200058f565b60405180910390fd5b8051620002d382620005c4565b179392505050565b634e487b7160e01b600052604160045260246000fd5b60005b838110156200030e578181015183820152602001620002f4565b50506000910152565b600082601f8301126200032957600080fd5b81516001600160401b0380821115620003465762000346620002db565b604051601f8301601f19908116603f01168101908282118183101715620003715762000371620002db565b816040528381528660208588010111156200038b57600080fd5b6200039e846020830160208901620002f1565b9695505050505050565b600080600060608486031215620003be57600080fd5b83516001600160a01b0381168114620003d657600080fd5b60208501519093506001600160401b0380821115620003f457600080fd5b620004028783880162000317565b935060408601519150808211156200041957600080fd5b50620004288682870162000317565b9150509250925092565b600181811c908216806200044757607f821691505b6020821081036200046857634e487b7160e01b600052602260045260246000fd5b50919050565b601f821115620004be576000816000526020600020601f850160051c81016020861015620004995750805b601f850160051c820191505b81811015620004ba57828155600101620004a5565b5050505b505050565b81516001600160401b03811115620004df57620004df620002db565b620004f781620004f0845462000432565b846200046e565b602080601f8311600181146200052f5760008415620005165750858301515b600019600386901b1c1916600185901b178555620004ba565b600085815260208120601f198616915b8281101562000560578886015182559484019460019091019084016200053f565b50858210156200057f5787850151600019600388901b60f8161c191681555b5050505050600190811b01905550565b6020815260008251806020840152620005b0816040850160208701620002f1565b601f01601f19169190910160400192915050565b80516020808301519190811015620004685760001960209190910360031b1b16919050565b60805160a05160c05160e05161010051610120516101405161016051613390620006bf600039600081816103bb0152818161085a0152818161093c01528181610ae701528181610bc801528181610ca901528181610df801528181610f2d0152818161132f0152818161148f015281816114f40152818161185301528181611cee01528181611e5501528181611ec70152818161227d015261241501526000611c7501526000611c4801526000611af401526000611acc01526000611a2701526000611a5101526000611a7b01526133906000f3fe608060405234801561001057600080fd5b50600436106102f15760003560e01c8063686f6b511161019d578063a217fddf116100e9578063ca54be3b116100a2578063d73792a91161007c578063d73792a9146105e3578063dd62ed3e14610637578063f12b59c914610670578063f66f807b1461068357600080fd5b8063ca54be3b146105fe578063d505accf14610611578063d547741f1461062457600080fd5b8063a217fddf146105c0578063a9059cbb146105c8578063b44f9b48146105db578063ba9a7a56146105e3578063bc063e1a146105ec578063c37d913d146105f557600080fd5b80637ecebe001161015657806384b0196e1161013057806384b0196e1461058157806391d148541461059c57806395d89b41146105af57806399ec9246146105b757600080fd5b80637ecebe001461055e5780637ff9b596146105715780638456cb591461057957600080fd5b8063686f6b51146104eb57806370a08231146104fe57806370a106b91461052757806373f351c81461053a57806375451b4f146105435780637bb7bed11461054b57600080fd5b80632d62af2f1161025c5780633a8051ac116102155780633f4ba83a116101ef5780633f4ba83a146104bc57806352d0b768146104c45780635920192a146104d75780635c975abb146104e057600080fd5b80633a8051ac1461048d5780633dbb53e9146104965780633f22fdf0146104a957600080fd5b80632d62af2f1461042e5780632f2ff15d14610441578063313ce567146104545780633644e5151461046957806336568abe1461047157806339fb71931461048457600080fd5b8063153ee554116102ae578063153ee554146103a157806316f0115b146103b657806318160ddd146103dd578063201e81a8146103e557806323b872dd146103f8578063248a9ca31461040b57600080fd5b806301ffc9a7146102f657806306fdde031461031e578063095ea7b3146103335780630d43e8ad146103465780630f4ef8a614610371578063113990b814610384575b600080fd5b610309610304366004612bd1565b61068b565b60405190151581526020015b60405180910390f35b6103266106c2565b6040516103159190612c4b565b610309610341366004612c73565b610754565b601054610359906001600160a01b031681565b6040516001600160a01b039091168152602001610315565b601254610359906001600160a01b031681565b610393670de0b6b3a764000081565b604051908152602001610315565b6103b46103af366004612c9f565b61076c565b005b6103597f000000000000000000000000000000000000000000000000000000000000000081565b600254610393565b6103b46103f3366004612d2c565b6107f4565b610309610406366004612dd2565b61080c565b610393610419366004612e13565b60009081526009602052604090206001015490565b61039361043c366004612e7c565b610832565b6103b461044f366004612eb4565b6109bb565b60125b60405160ff9091168152602001610315565b6103936109e6565b6103b461047f366004612eb4565b6109f5565b61039360115481565b610393600d5481565b6103936104a4366004612ed9565b610a2d565b6103b46104b7366004612e13565b610a4c565b6103b4610ac4565b6103b46104d2366004612e13565b610ada565b61035961dead81565b60085460ff16610309565b6103b46104f9366004612e13565b610bbb565b61039361050c366004612c9f565b6001600160a01b031660009081526020819052604090205490565b6103b4610535366004612e13565b610c9c565b610393600e5481565b610457600581565b610359610559366004612e13565b610da9565b61039361056c366004612c9f565b610dd3565b610393610df1565b6103b4610e80565b610589610e93565b6040516103159796959493929190612efb565b6103096105aa366004612eb4565b610ed9565b610326610f04565b610393600c5481565b610393600081565b6103096105d6366004612c73565b610f13565b6103b4610f21565b6103936103e881565b61039361012c81565b610393600f5481565b6103b461060c366004612f94565b6110fa565b6103b461061f366004612fd5565b611131565b6103b4610632366004612eb4565b61126b565b61039361064536600461304c565b6001600160a01b03918216600090815260016020908152604080832093909416825291909152205490565b6103b461067e366004612c9f565b611290565b6103b4611305565b60006001600160e01b03198216637965db0b60e01b14806106bc57506301ffc9a760e01b6001600160e01b03198316145b92915050565b6060600380546106d19061307a565b80601f01602080910402602001604051908101604052809291908181526020018280546106fd9061307a565b801561074a5780601f1061071f5761010080835404028352916020019161074a565b820191906000526020600020905b81548152906001019060200180831161072d57829003601f168201915b5050505050905090565b6000336107628185856115b7565b5060019392505050565b6000610777816115c4565b6001600160a01b03821661079e5760405163d92e233d60e01b815260040160405180910390fd5b601280546001600160a01b0319166001600160a01b0384169081179091556040519081527fc05fa79926cd5600b1cc95c8d9d908b7685d3f058c34ea011f8ae3490968ad30906020015b60405180910390a15050565b60006107ff816115c4565b610808826115ce565b5050565b60003361081a8582856116a5565b61082585858561171d565b60019150505b9392505050565b600061083c61177c565b6108446117a0565b6001600160a01b038216610856573391505b60007f00000000000000000000000000000000000000000000000000000000000000006001600160a01b0316639d63848a6040518163ffffffff1660e01b815260040160a060405180830381865afa1580156108b6573d6000803e3d6000fd5b505050506040513d601f19601f820116820180604052508101906108da91906130b4565b905060005b60058110156109a35760008282600581106108fc576108fc613112565b602002015190506001600160a01b038116158015906109315750600086836005811061092a5761092a613112565b6020020151115b1561099a5761099a337f000000000000000000000000000000000000000000000000000000000000000088856005811061096d5761096d613112565b602002015186866005811061098457610984613112565b60200201516001600160a01b03169291906117ca565b506001016108df565b506109ae8484611831565b9150506106bc6001600a55565b6000828152600960205260409020600101546109d6816115c4565b6109e08383611986565b50505050565b60006109f0611a1a565b905090565b6001600160a01b0381163314610a1e5760405163334bd91960e11b815260040160405180910390fd5b610a288282611b45565b505050565b600081610a42670de0b6b3a76400008561313e565b61082b9190613155565b6000610a57816115c4565b61012c821115610a7a57604051634d0419db60e11b815260040160405180910390fd5b600e5460408051918252602082018490527f4b9e3389cd92257d5111fc1cd43ed1fab1a6a790024c9cec0acfad96886eeee7910160405180910390a1610abe611305565b50600e55565b6000610acf816115c4565b610ad7611bb2565b50565b6000610ae5816115c4565b7f00000000000000000000000000000000000000000000000000000000000000006001600160a01b03166322068b446040518163ffffffff1660e01b8152600401602060405180830381865afa158015610b43573d6000803e3d6000fd5b505050506040513d601f19601f82011682018060405250810190610b679190613177565b8210610b8657604051634dd76a3360e01b815260040160405180910390fd5b600d8290556040518281527f1263b39fe165b48c204de3a3d752e6c7a129670cbe325757bdf76562664ef8d1906020016107e8565b6000610bc6816115c4565b7f00000000000000000000000000000000000000000000000000000000000000006001600160a01b03166322068b446040518163ffffffff1660e01b8152600401602060405180830381865afa158015610c24573d6000803e3d6000fd5b505050506040513d601f19601f82011682018060405250810190610c489190613177565b8210610c6757604051634dd76a3360e01b815260040160405180910390fd5b600c8290556040518281527fdefccea87e6a6ac5c177a3e0318456cf032572ae03a96d9f44c4664a92999aef906020016107e8565b6000610ca7816115c4565b7f00000000000000000000000000000000000000000000000000000000000000006001600160a01b0316639d63848a6040518163ffffffff1660e01b815260040160a060405180830381865afa158015610d05573d6000803e3d6000fd5b505050506040513d601f19601f82011682018060405250810190610d2991906130b4565b5060058210610d53576040516311fbc14560e11b8152600481018390526024015b60405180910390fd5b60115415610d7457604051635125b48560e01b815260040160405180910390fd5b600f8290556040518281527f734ef387ad5aca687c870a01e23a5e8dec0499f3d83912614a8bf06a539049ec906020016107e8565b600b8181548110610db957600080fd5b6000918252602090912001546001600160a01b0316905081565b6001600160a01b0381166000908152600760205260408120546106bc565b60006109f07f00000000000000000000000000000000000000000000000000000000000000006001600160a01b031663e9ec2e996040518163ffffffff1660e01b8152600401602060405180830381865afa158015610e54573d6000803e3d6000fd5b505050506040513d601f19601f82011682018060405250810190610e789190613177565b600254610a2d565b6000610e8b816115c4565b610ad7611c04565b600060608060008060006060610ea7611c41565b610eaf611c6e565b60408051600080825260208201909252600f60f81b9b939a50919850469750309650945092509050565b60009182526009602090815260408084206001600160a01b0393909316845291905290205460ff1690565b6060600480546106d19061307a565b60003361076281858561171d565b610f296117a0565b60007f00000000000000000000000000000000000000000000000000000000000000006001600160a01b0316639d63848a6040518163ffffffff1660e01b815260040160a060405180830381865afa158015610f89573d6000803e3d6000fd5b505050506040513d601f19601f82011682018060405250810190610fad91906130b4565b600f5460058110610fc057610fc0613112565b602002015190506001600160a01b038116610fee576040516323f3a9b760e01b815260040160405180910390fd5b6011546040516370a0823160e01b81523060048201526000906001600160a01b038416906370a0823190602401602060405180830381865afa158015611038573d6000803e3d6000fd5b505050506040513d601f19601f8201168201806040525081019061105c9190613177565b9050600081831161106d578261106f565b815b905080601160008282546110839190613190565b909155505080156110a8576010546110a8906001600160a01b03868116911683611c9b565b604080516001600160a01b0386168152602081018390527f15a050976823afd82c639feaf4828ec3e700c0011eeb105b53f6f6f1c8fe7bc8910160405180910390a1505050506110f86001600a55565b565b61110261177c565b61110a6117a0565b6001600160a01b03811661111b5750335b61112733848484611ccc565b610a286001600a55565b834211156111555760405163313c898160e11b815260048101859052602401610d4a565b60007f6e71edae12b1b97f4d1f60370fef10105fa2faae0126114a169c64845d6126c98888886111a28c6001600160a01b0316600090815260076020526040902080546001810190915590565b6040805160208101969096526001600160a01b0394851690860152929091166060840152608083015260a082015260c0810186905260e00160405160208183030381529060405280519060200120905060006111fd82611de3565b9050600061120d82878787611e10565b9050896001600160a01b0316816001600160a01b031614611254576040516325c0072360e11b81526001600160a01b0380831660048301528b166024820152604401610d4a565b61125f8a8a8a6115b7565b50505050505050505050565b600082815260096020526040902060010154611286816115c4565b6109e08383611b45565b600061129b816115c4565b601054604080516001600160a01b03928316815291841660208301527f1fb7c52dab61e9e9813f7aac38f62f9ae8ee57bf319134f2bde8758a7df5893d910160405180910390a150601080546001600160a01b0319166001600160a01b0392909216919091179055565b61130d61177c565b6113156117a0565b61131e30611e3e565b611326611ec2565b156115ad5760007f00000000000000000000000000000000000000000000000000000000000000006001600160a01b0316639d63848a6040518163ffffffff1660e01b815260040160a060405180830381865afa15801561138b573d6000803e3d6000fd5b505050506040513d601f19601f820116820180604052508101906113af91906130b4565b600f54600581106113c2576113c2613112565b602002015190506001600160a01b0381166113f0576040516323f3a9b760e01b815260040160405180910390fd5b6113f8612b39565b6011546040516370a0823160e01b81523060048201526001600160a01b038416906370a0823190602401602060405180830381865afa15801561143f573d6000803e3d6000fd5b505050506040513d601f19601f820116820180604052508101906114639190613177565b61146d9190613190565b81600f546005811061148157611481613112565b6020020152600f546114d7907f0000000000000000000000000000000000000000000000000000000000000000908390600581106114c1576114c1613112565b60200201516001600160a01b0385169190611c9b565b600c54604051636766ea0f60e01b81526000916001600160a01b037f00000000000000000000000000000000000000000000000000000000000000001691636766ea0f9161152b91869030906004016131c6565b6020604051808303816000875af115801561154a573d6000803e3d6000fd5b505050506040513d601f19601f8201168201806040525081019061156e9190613177565b90507f1a66222d9f5ba56428c4d1cd5c0127998bf6e8c1ab86f3027227b0f1319a6a02816040516115a191815260200190565b60405180910390a15050505b6110f86001600a55565b610a288383836001611fc5565b610ad7813361209a565b80516000036115f25780604051630362609760e51b8152600401610d4a91906131f3565b60005b81518110156116555760006001600160a01b031682828151811061161b5761161b613112565b60200260200101516001600160a01b03160361164d5760405163af7bbf6960e01b815260048101829052602401610d4a565b6001016115f5565b50805161166990600b906020840190612b57565b507f69be44b81d4f8b6cf7825a37f020b264079658f3d72856eeb0a0efed09c7d392600b60405161169a919061327e565b60405180910390a150565b6001600160a01b0383811660009081526001602090815260408083209386168352929052205460001981146109e0578181101561170e57604051637dc7a0d960e11b81526001600160a01b03841660048201526024810182905260448101839052606401610d4a565b6109e084848484036000611fc5565b6001600160a01b03831661174757604051634b637e8f60e11b815260006004820152602401610d4a565b6001600160a01b0382166117715760405163ec442f0560e01b815260006004820152602401610d4a565b610a288383836120d3565b60085460ff16156110f85760405163d93c066560e01b815260040160405180910390fd5b6002600a54036117c357604051633ee5aeb560e01b815260040160405180910390fd5b6002600a55565b6040516001600160a01b0384811660248301528381166044830152606482018390526109e09186918216906323b872dd906084015b604051602081830303815290604052915060e01b6020820180516001600160e01b0383818316178352505050506121fd565b6040516370a0823160e01b815230600482015260009081906001600160a01b037f000000000000000000000000000000000000000000000000000000000000000016906370a0823190602401602060405180830381865afa15801561189a573d6000803e3d6000fd5b505050506040513d601f19601f820116820180604052508101906118be9190613177565b905060006118cc8530612260565b905060006118d960025490565b6000036118f857509150816103e86118f361dead826122f7565b61191a565b828261190360025490565b61190d919061313e565b6119179190613155565b93505b61192d856119288387613190565b6122f7565b600c546040805184815260208101879052908101919091526001600160a01b038616907f91ede45f04a37a7c170f5c1207df3b6bc748dc1e04ad5e917a241d0f52feada39060600160405180910390a250505092915050565b60006119928383610ed9565b611a125760008381526009602090815260408083206001600160a01b03861684529091529020805460ff191660011790556119ca3390565b6001600160a01b0316826001600160a01b0316847f2f8788117e7eff1d82e926ec794901d17c78024a50270940304540a733656f0d60405160405180910390a45060016106bc565b5060006106bc565b6000306001600160a01b037f000000000000000000000000000000000000000000000000000000000000000016148015611a7357507f000000000000000000000000000000000000000000000000000000000000000046145b15611a9d57507f000000000000000000000000000000000000000000000000000000000000000090565b6109f0604080517f8b73c3c69bb8fe3d512ecc4cf759cc79239f7b179b0ffacaa9a75d522b39400f60208201527f0000000000000000000000000000000000000000000000000000000000000000918101919091527f000000000000000000000000000000000000000000000000000000000000000060608201524660808201523060a082015260009060c00160405160208183030381529060405280519060200120905090565b6000611b518383610ed9565b15611a125760008381526009602090815260408083206001600160a01b0386168085529252808320805460ff1916905551339286917ff6391f5c32d9c69d2a47ea670b442974b53935d1edc7fd64eb21e047a839171b9190a45060016106bc565b611bba61232d565b6008805460ff191690557f5db9ee0a495bf2e6ff9c91a7834c1ba4fdd244a5e8aa4e537bd38aeae4b073aa335b6040516001600160a01b03909116815260200160405180910390a1565b611c0c61177c565b6008805460ff191660011790557f62e78cea01bee320cd4e420270b5ea74000d11b0c9f74754ebdbfc544b05a258611be73390565b60606109f07f00000000000000000000000000000000000000000000000000000000000000006005612350565b60606109f07f00000000000000000000000000000000000000000000000000000000000000006006612350565b6040516001600160a01b03838116602483015260448201839052610a2891859182169063a9059cbb906064016117ff565b6000611cd760025490565b6040516370a0823160e01b815230600482015285907f00000000000000000000000000000000000000000000000000000000000000006001600160a01b0316906370a0823190602401602060405180830381865afa158015611d3d573d6000803e3d6000fd5b505050506040513d601f19601f82011682018060405250810190611d619190613177565b611d6b919061313e565b611d759190613155565b9050611d828184846123fb565b611d8c8585612486565b600d546040805186815260208101849052908101919091526001600160a01b038616907f75e161b3e824b114fc1a33274bd7091918dd4e639cede50b78b15a4eea956a219060600160405180910390a25050505050565b60006106bc611df0611a1a565b8360405161190160f01b8152600281019290925260228201526042902090565b600080600080611e22888888886124bc565b925092509250611e32828261258b565b50909695505050505050565b604051632026ffa360e01b81526001600160a01b037f00000000000000000000000000000000000000000000000000000000000000001690632026ffa390611e8d908490600b90600401613291565b600060405180830381600087803b158015611ea757600080fd5b505af1158015611ebb573d6000803e3d6000fd5b5050505050565b6000807f00000000000000000000000000000000000000000000000000000000000000006001600160a01b0316639d63848a6040518163ffffffff1660e01b815260040160a060405180830381865afa158015611f23573d6000803e3d6000fd5b505050506040513d601f19601f82011682018060405250810190611f4791906130b4565b600f5460058110611f5a57611f5a613112565b602002015190506001600160a01b038116611f88576040516323f3a9b760e01b815260040160405180910390fd5b601254611f9e906001600160a01b031682612644565b9150611fa982612901565b60116000828254611fba91906132bd565b925050819055505090565b6001600160a01b038416611fef5760405163e602df0560e01b815260006004820152602401610d4a565b6001600160a01b03831661201957604051634a1406b160e11b815260006004820152602401610d4a565b6001600160a01b03808516600090815260016020908152604080832093871683529290522082905580156109e057826001600160a01b0316846001600160a01b03167f8c5be1e5ebec7d5bd14f71427d1e84f3dd0314c0f7b2291e5b200ac8c7c3b9258460405161208c91815260200190565b60405180910390a350505050565b6120a48282610ed9565b6108085760405163e2517d3f60e01b81526001600160a01b038216600482015260248101839052604401610d4a565b6001600160a01b0383166120fe5780600260008282546120f391906132bd565b909155506121709050565b6001600160a01b038316600090815260208190526040902054818110156121515760405163391434e360e21b81526001600160a01b03851660048201526024810182905260448101839052606401610d4a565b6001600160a01b03841660009081526020819052604090209082900390555b6001600160a01b03821661218c576002805482900390556121ab565b6001600160a01b03821660009081526020819052604090208054820190555b816001600160a01b0316836001600160a01b03167fddf252ad1be2c89b69c2b068fc378daa952ba7f163c4a11628f55a4df523b3ef836040516121f091815260200190565b60405180910390a3505050565b60006122126001600160a01b0384168361291e565b9050805160001415801561223757508080602001905181019061223591906132d0565b155b15610a2857604051635274afe760e01b81526001600160a01b0384166004820152602401610d4a565b600c54604051636766ea0f60e01b81526000916001600160a01b037f00000000000000000000000000000000000000000000000000000000000000001691636766ea0f916122b491879087906004016131c6565b6020604051808303816000875af11580156122d3573d6000803e3d6000fd5b505050506040513d601f19601f8201168201806040525081019061082b9190613177565b6001600160a01b0382166123215760405163ec442f0560e01b815260006004820152602401610d4a565b610808600083836120d3565b60085460ff166110f857604051638dfc202b60e01b815260040160405180910390fd5b606060ff831461236a576123638361292c565b90506106bc565b8180546123769061307a565b80601f01602080910402602001604051908101604052809291908181526020018280546123a29061307a565b80156123ef5780601f106123c4576101008083540402835291602001916123ef565b820191906000526020600020905b8154815290600101906020018083116123d257829003601f168201915b505050505090506106bc565b600d54604051632d526f8f60e21b81526001600160a01b037f0000000000000000000000000000000000000000000000000000000000000000169163b549be3c9161244f91908790879087906004016132f2565b600060405180830381600087803b15801561246957600080fd5b505af115801561247d573d6000803e3d6000fd5b50505050505050565b6001600160a01b0382166124b057604051634b637e8f60e11b815260006004820152602401610d4a565b610808826000836120d3565b600080807f7fffffffffffffffffffffffffffffff5d576e7357a4501ddfe92f46681b20a08411156124f75750600091506003905082612581565b604080516000808252602082018084528a905260ff891692820192909252606081018790526080810186905260019060a0016020604051602081039080840390855afa15801561254b573d6000803e3d6000fd5b5050604051601f1901519150506001600160a01b03811661257757506000925060019150829050612581565b9250600091508190505b9450945094915050565b600082600381111561259f5761259f613328565b036125a8575050565b60018260038111156125bc576125bc613328565b036125da5760405163f645eedf60e01b815260040160405180910390fd5b60028260038111156125ee576125ee613328565b0361260f5760405163fce698f760e01b815260048101829052602401610d4a565b600382600381111561262357612623613328565b03610808576040516335e2f38360e21b815260048101829052602401610d4a565b600b54600090818167ffffffffffffffff81111561266457612664612cbc565b60405190808252806020026020018201604052801561268d578160200160208202803683370190505b509050600160005b8381101561277257600b81815481106126b0576126b0613112565b6000918252602090912001546040516370a0823160e01b81523060048201526001600160a01b03909116906370a0823190602401602060405180830381865afa158015612701573d6000803e3d6000fd5b505050506040513d601f19601f820116820180604052508101906127259190613177565b83828151811061273757612737613112565b602002602001018181525050600083828151811061275757612757613112565b6020026020010151111561276a57600091505b600101612695565b50801561278557600093505050506106bc565b6040516370a0823160e01b81523060048201526000906001600160a01b038716906370a0823190602401602060405180830381865afa1580156127cc573d6000803e3d6000fd5b505050506040513d601f19601f820116820180604052508101906127f09190613177565b90506000805b858110156128805784818151811061281057612810613112565b60200260200101516000031561287857600b818154811061283357612833613112565b9060005260206000200160009054906101000a90046001600160a01b03169150612878898387848151811061286a5761286a613112565b60200260200101518b61296b565b6001016127f6565b506040516370a0823160e01b815230600482015282906001600160a01b038916906370a0823190602401602060405180830381865afa1580156128c7573d6000803e3d6000fd5b505050506040513d601f19601f820116820180604052508101906128eb9190613177565b6128f59190613190565b98975050505050505050565b60006103e8600e5483612914919061313e565b6106bc9190613155565b606061082b838360006129ef565b6060600061293983612a8c565b604080516020808252818301909252919250600091906020820181803683375050509182525060208101929092525090565b61297f6001600160a01b0384168584611c9b565b604051631099a22f60e21b81526001600160a01b03848116600483015260248201849052828116604483015285169063426688bc90606401600060405180830381600087803b1580156129d157600080fd5b505af11580156129e5573d6000803e3d6000fd5b5050505050505050565b606081471015612a145760405163cd78605960e01b8152306004820152602401610d4a565b600080856001600160a01b03168486604051612a30919061333e565b60006040518083038185875af1925050503d8060008114612a6d576040519150601f19603f3d011682016040523d82523d6000602084013e612a72565b606091505b5091509150612a82868383612ab4565b9695505050505050565b600060ff8216601f8111156106bc57604051632cd44ac360e21b815260040160405180910390fd5b606082612ac957612ac482612b10565b61082b565b8151158015612ae057506001600160a01b0384163b155b15612b0957604051639996b31560e01b81526001600160a01b0385166004820152602401610d4a565b508061082b565b805115612b205780518082602001fd5b604051630a12f52160e11b815260040160405180910390fd5b6040518060a001604052806005906020820280368337509192915050565b828054828255906000526020600020908101928215612bac579160200282015b82811115612bac57825182546001600160a01b0319166001600160a01b03909116178255602090920191600190910190612b77565b50612bb8929150612bbc565b5090565b5b80821115612bb85760008155600101612bbd565b600060208284031215612be357600080fd5b81356001600160e01b03198116811461082b57600080fd5b60005b83811015612c16578181015183820152602001612bfe565b50506000910152565b60008151808452612c37816020860160208601612bfb565b601f01601f19169290920160200192915050565b60208152600061082b6020830184612c1f565b6001600160a01b0381168114610ad757600080fd5b60008060408385031215612c8657600080fd5b8235612c9181612c5e565b946020939093013593505050565b600060208284031215612cb157600080fd5b813561082b81612c5e565b634e487b7160e01b600052604160045260246000fd5b60405160a0810167ffffffffffffffff81118282101715612cf557612cf5612cbc565b60405290565b604051601f8201601f1916810167ffffffffffffffff81118282101715612d2457612d24612cbc565b604052919050565b60006020808385031215612d3f57600080fd5b823567ffffffffffffffff80821115612d5757600080fd5b818501915085601f830112612d6b57600080fd5b813581811115612d7d57612d7d612cbc565b8060051b9150612d8e848301612cfb565b8181529183018401918481019088841115612da857600080fd5b938501935b838510156128f55784359250612dc283612c5e565b8282529385019390850190612dad565b600080600060608486031215612de757600080fd5b8335612df281612c5e565b92506020840135612e0281612c5e565b929592945050506040919091013590565b600060208284031215612e2557600080fd5b5035919050565b600082601f830112612e3d57600080fd5b612e45612cd2565b8060a0840185811115612e5757600080fd5b845b81811015612e71578035845260209384019301612e59565b509095945050505050565b60008060c08385031215612e8f57600080fd5b612e998484612e2c565b915060a0830135612ea981612c5e565b809150509250929050565b60008060408385031215612ec757600080fd5b823591506020830135612ea981612c5e565b60008060408385031215612eec57600080fd5b50508035926020909101359150565b60ff60f81b881681526000602060e06020840152612f1c60e084018a612c1f565b8381036040850152612f2e818a612c1f565b606085018990526001600160a01b038816608086015260a0850187905284810360c08601528551808252602080880193509091019060005b81811015612f8257835183529284019291840191600101612f66565b50909c9b505050505050505050505050565b600080600060e08486031215612fa957600080fd5b83359250612fba8560208601612e2c565b915060c0840135612fca81612c5e565b809150509250925092565b600080600080600080600060e0888a031215612ff057600080fd5b8735612ffb81612c5e565b9650602088013561300b81612c5e565b95506040880135945060608801359350608088013560ff8116811461302f57600080fd5b9699959850939692959460a0840135945060c09093013592915050565b6000806040838503121561305f57600080fd5b823561306a81612c5e565b91506020830135612ea981612c5e565b600181811c9082168061308e57607f821691505b6020821081036130ae57634e487b7160e01b600052602260045260246000fd5b50919050565b600060a082840312156130c657600080fd5b82601f8301126130d557600080fd5b6130dd612cd2565b8060a08401858111156130ef57600080fd5b845b81811015612e7157805161310481612c5e565b8452602093840193016130f1565b634e487b7160e01b600052603260045260246000fd5b634e487b7160e01b600052601160045260246000fd5b80820281158282048414176106bc576106bc613128565b60008261317257634e487b7160e01b600052601260045260246000fd5b500490565b60006020828403121561318957600080fd5b5051919050565b818103818111156106bc576106bc613128565b8060005b60058110156109e05781518452602093840193909101906001016131a7565b83815260e081016131da60208301856131a3565b6001600160a01b039290921660c0919091015292915050565b6020808252825182820181905260009190848201906040850190845b81811015611e325783516001600160a01b03168352928401929184019160010161320f565b600081548084526020808501945083600052602060002060005b838110156132735781546001600160a01b03168752958201956001918201910161324e565b509495945050505050565b60208152600061082b6020830184613234565b6001600160a01b03831681526040602082018190526000906132b590830184613234565b949350505050565b808201808211156106bc576106bc613128565b6000602082840312156132e257600080fd5b8151801515811461082b57600080fd5b84815260208101849052610100810161330e60408301856131a3565b6001600160a01b039290921660e091909101529392505050565b634e487b7160e01b600052602160045260246000fd5b60008251613350818460208701612bfb565b919091019291505056fea26469706673582212208260fb8c9fba17cc8694e59fa0ae8aae850669455b422d7c1a0d8e051b71326864736f6c63430008160033",
  "linkReferences": {},
  "deployedLinkReferences": {}
}