{
  "_format": "hh-sol-artifact-1",
  "contractName": "ZunamiPoolThroughController",
  "sourceName": "contracts/ZunamiPoolThroughController.sol",
  "abi": [
    {
      "inputs": [
        {
          "internalType": "address",
          "name": "pool_",
          "type": "address"
        }
      ],
      "stateMutability": "nonpayable",
      "type": "constructor"
    },
    {
      "inputs": [],
      "name": "AccessControlBadConfirmation",
      "type": "error"
    },
    {
      "inputs": [
        {
          "internalType": "address",
          "name": "account",
          "type": "address"
        },
        {
          "internalType": "bytes32",
          "name": "neededRole",
          "type": "bytes32"
        }
      ],
      "name": "AccessControlUnauthorizedAccount",
      "type": "error"
    },
    {
      "inputs": [
        {
          "internalType": "address",
          "name": "target",
          "type": "address"
        }
      ],
      "name": "AddressEmptyCode",
      "type": "error"
    },
    {
      "inputs": [
        {
          "internalType": "address",
          "name": "account",
          "type": "address"
        }
      ],
      "name": "AddressInsufficientBalance",
      "type": "error"
    },
    {
      "inputs": [],
      "name": "EnforcedPause",
      "type": "error"
    },
    {
      "inputs": [],
      "name": "ExpectedPause",
      "type": "error"
    },
    {
      "inputs": [],
      "name": "FailedInnerCall",
      "type": "error"
    },
    {
      "inputs": [],
      "name": "OnlyIssuer",
      "type": "error"
    },
    {
      "inputs": [],
      "name": "ReentrancyGuardReentrantCall",
      "type": "error"
    },
    {
      "inputs": [
        {
          "internalType": "address",
          "name": "token",
          "type": "address"
        }
      ],
      "name": "SafeERC20FailedOperation",
      "type": "error"
    },
    {
      "inputs": [
        {
          "internalType": "contract IERC20[]",
          "name": "rewardTokens",
          "type": "address[]"
        }
      ],
      "name": "WrongRewardTokens",
      "type": "error"
    },
    {
      "inputs": [],
      "name": "WrongSid",
      "type": "error"
    },
    {
      "inputs": [],
      "name": "ZeroAddress",
      "type": "error"
    },
    {
      "inputs": [
        {
          "internalType": "uint256",
          "name": "index",
          "type": "uint256"
        }
      ],
      "name": "ZeroTokenAddress",
      "type": "error"
    },
    {
      "anonymous": false,
      "inputs": [
        {
          "indexed": false,
          "internalType": "address",
          "name": "account",
          "type": "address"
        }
      ],
      "name": "Paused",
      "type": "event"
    },
    {
      "anonymous": false,
      "inputs": [
        {
          "indexed": false,
          "internalType": "address",
          "name": "oldRewardCollector",
          "type": "address"
        },
        {
          "indexed": false,
          "internalType": "address",
          "name": "newRewardCollector",
          "type": "address"
        }
      ],
      "name": "RewardCollectorChanged",
      "type": "event"
    },
    {
      "anonymous": false,
      "inputs": [
        {
          "indexed": true,
          "internalType": "bytes32",
          "name": "role",
          "type": "bytes32"
        },
        {
          "indexed": true,
          "internalType": "bytes32",
          "name": "previousAdminRole",
          "type": "bytes32"
        },
        {
          "indexed": true,
          "internalType": "bytes32",
          "name": "newAdminRole",
          "type": "bytes32"
        }
      ],
      "name": "RoleAdminChanged",
      "type": "event"
    },
    {
      "anonymous": false,
      "inputs": [
        {
          "indexed": true,
          "internalType": "bytes32",
          "name": "role",
          "type": "bytes32"
        },
        {
          "indexed": true,
          "internalType": "address",
          "name": "account",
          "type": "address"
        },
        {
          "indexed": true,
          "internalType": "address",
          "name": "sender",
          "type": "address"
        }
      ],
      "name": "RoleGranted",
      "type": "event"
    },
    {
      "anonymous": false,
      "inputs": [
        {
          "indexed": true,
          "internalType": "bytes32",
          "name": "role",
          "type": "bytes32"
        },
        {
          "indexed": true,
          "internalType": "address",
          "name": "account",
          "type": "address"
        },
        {
          "indexed": true,
          "internalType": "address",
          "name": "sender",
          "type": "address"
        }
      ],
      "name": "RoleRevoked",
      "type": "event"
    },
    {
      "anonymous": false,
      "inputs": [
        {
          "indexed": false,
          "internalType": "uint256",
          "name": "sid",
          "type": "uint256"
        }
      ],
      "name": "SetDefaultDepositSid",
      "type": "event"
    },
    {
      "anonymous": false,
      "inputs": [
        {
          "indexed": false,
          "internalType": "uint256",
          "name": "sid",
          "type": "uint256"
        }
      ],
      "name": "SetDefaultWithdrawSid",
      "type": "event"
    },
    {
      "anonymous": false,
      "inputs": [
        {
          "indexed": false,
          "internalType": "bool",
          "name": "onlyIssuerMode",
          "type": "bool"
        }
      ],
      "name": "SetOnlyIssuerMode",
      "type": "event"
    },
    {
      "anonymous": false,
      "inputs": [
        {
          "indexed": false,
          "internalType": "contract IERC20[]",
          "name": "rewardTokens",
          "type": "address[]"
        }
      ],
      "name": "SetRewardTokens",
      "type": "event"
    },
    {
      "anonymous": false,
      "inputs": [
        {
          "indexed": false,
          "internalType": "address",
          "name": "account",
          "type": "address"
        }
      ],
      "name": "Unpaused",
      "type": "event"
    },
    {
      "inputs": [],
      "name": "DEFAULT_ADMIN_ROLE",
      "outputs": [
        {
          "internalType": "bytes32",
          "name": "",
          "type": "bytes32"
        }
      ],
      "stateMutability": "view",
      "type": "function"
    },
    {
      "inputs": [],
      "name": "ISSUER_ROLE",
      "outputs": [
        {
          "internalType": "bytes32",
          "name": "",
          "type": "bytes32"
        }
      ],
      "stateMutability": "view",
      "type": "function"
    },
    {
      "inputs": [],
      "name": "POOL_ASSETS",
      "outputs": [
        {
          "internalType": "uint8",
          "name": "",
          "type": "uint8"
        }
      ],
      "stateMutability": "view",
      "type": "function"
    },
    {
      "inputs": [
        {
          "internalType": "address",
          "name": "_rewardCollector",
          "type": "address"
        }
      ],
      "name": "changeRewardCollector",
      "outputs": [],
      "stateMutability": "nonpayable",
      "type": "function"
    },
    {
      "inputs": [],
      "name": "claimRewards",
      "outputs": [],
      "stateMutability": "nonpayable",
      "type": "function"
    },
    {
      "inputs": [],
      "name": "defaultDepositSid",
      "outputs": [
        {
          "internalType": "uint256",
          "name": "",
          "type": "uint256"
        }
      ],
      "stateMutability": "view",
      "type": "function"
    },
    {
      "inputs": [],
      "name": "defaultWithdrawSid",
      "outputs": [
        {
          "internalType": "uint256",
          "name": "",
          "type": "uint256"
        }
      ],
      "stateMutability": "view",
      "type": "function"
    },
    {
      "inputs": [
        {
          "internalType": "uint256[5]",
          "name": "amounts",
          "type": "uint256[5]"
        },
        {
          "internalType": "address",
          "name": "receiver",
          "type": "address"
        }
      ],
      "name": "deposit",
      "outputs": [
        {
          "internalType": "uint256",
          "name": "shares",
          "type": "uint256"
        }
      ],
      "stateMutability": "nonpayable",
      "type": "function"
    },
    {
      "inputs": [
        {
          "internalType": "bytes32",
          "name": "role",
          "type": "bytes32"
        }
      ],
      "name": "getRoleAdmin",
      "outputs": [
        {
          "internalType": "bytes32",
          "name": "",
          "type": "bytes32"
        }
      ],
      "stateMutability": "view",
      "type": "function"
    },
    {
      "inputs": [
        {
          "internalType": "bytes32",
          "name": "role",
          "type": "bytes32"
        },
        {
          "internalType": "address",
          "name": "account",
          "type": "address"
        }
      ],
      "name": "grantRole",
      "outputs": [],
      "stateMutability": "nonpayable",
      "type": "function"
    },
    {
      "inputs": [
        {
          "internalType": "bytes32",
          "name": "role",
          "type": "bytes32"
        },
        {
          "internalType": "address",
          "name": "account",
          "type": "address"
        }
      ],
      "name": "hasRole",
      "outputs": [
        {
          "internalType": "bool",
          "name": "",
          "type": "bool"
        }
      ],
      "stateMutability": "view",
      "type": "function"
    },
    {
      "inputs": [],
      "name": "onlyIssuerMode",
      "outputs": [
        {
          "internalType": "bool",
          "name": "",
          "type": "bool"
        }
      ],
      "stateMutability": "view",
      "type": "function"
    },
    {
      "inputs": [],
      "name": "pause",
      "outputs": [],
      "stateMutability": "nonpayable",
      "type": "function"
    },
    {
      "inputs": [],
      "name": "paused",
      "outputs": [
        {
          "internalType": "bool",
          "name": "",
          "type": "bool"
        }
      ],
      "stateMutability": "view",
      "type": "function"
    },
    {
      "inputs": [],
      "name": "pool",
      "outputs": [
        {
          "internalType": "contract IPool",
          "name": "",
          "type": "address"
        }
      ],
      "stateMutability": "view",
      "type": "function"
    },
    {
      "inputs": [
        {
          "internalType": "bytes32",
          "name": "role",
          "type": "bytes32"
        },
        {
          "internalType": "address",
          "name": "callerConfirmation",
          "type": "address"
        }
      ],
      "name": "renounceRole",
      "outputs": [],
      "stateMutability": "nonpayable",
      "type": "function"
    },
    {
      "inputs": [
        {
          "internalType": "bytes32",
          "name": "role",
          "type": "bytes32"
        },
        {
          "internalType": "address",
          "name": "account",
          "type": "address"
        }
      ],
      "name": "revokeRole",
      "outputs": [],
      "stateMutability": "nonpayable",
      "type": "function"
    },
    {
      "inputs": [],
      "name": "rewardCollector",
      "outputs": [
        {
          "internalType": "address",
          "name": "",
          "type": "address"
        }
      ],
      "stateMutability": "view",
      "type": "function"
    },
    {
      "inputs": [
        {
          "internalType": "uint256",
          "name": "",
          "type": "uint256"
        }
      ],
      "name": "rewardTokens",
      "outputs": [
        {
          "internalType": "contract IERC20",
          "name": "",
          "type": "address"
        }
      ],
      "stateMutability": "view",
      "type": "function"
    },
    {
      "inputs": [
        {
          "internalType": "uint256",
          "name": "_newPoolId",
          "type": "uint256"
        }
      ],
      "name": "setDefaultDepositSid",
      "outputs": [],
      "stateMutability": "nonpayable",
      "type": "function"
    },
    {
      "inputs": [
        {
          "internalType": "uint256",
          "name": "_newPoolId",
          "type": "uint256"
        }
      ],
      "name": "setDefaultWithdrawSid",
      "outputs": [],
      "stateMutability": "nonpayable",
      "type": "function"
    },
    {
      "inputs": [
        {
          "internalType": "bool",
          "name": "_onlyIssuerMode",
          "type": "bool"
        }
      ],
      "name": "setOnlyIssuerMode",
      "outputs": [],
      "stateMutability": "nonpayable",
      "type": "function"
    },
    {
      "inputs": [
        {
          "internalType": "contract IERC20[]",
          "name": "rewardTokens_",
          "type": "address[]"
        }
      ],
      "name": "setRewardTokens",
      "outputs": [],
      "stateMutability": "nonpayable",
      "type": "function"
    },
    {
      "inputs": [
        {
          "internalType": "bytes4",
          "name": "interfaceId",
          "type": "bytes4"
        }
      ],
      "name": "supportsInterface",
      "outputs": [
        {
          "internalType": "bool",
          "name": "",
          "type": "bool"
        }
      ],
      "stateMutability": "view",
      "type": "function"
    },
    {
      "inputs": [],
      "name": "unpause",
      "outputs": [],
      "stateMutability": "nonpayable",
      "type": "function"
    },
    {
      "inputs": [
        {
          "internalType": "uint256",
          "name": "shares",
          "type": "uint256"
        },
        {
          "internalType": "uint256[5]",
          "name": "minTokenAmounts",
          "type": "uint256[5]"
        },
        {
          "internalType": "address",
          "name": "receiver",
          "type": "address"
        }
      ],
      "name": "withdraw",
      "outputs": [],
      "stateMutability": "nonpayable",
      "type": "function"
    }
  ],
  "bytecode": "0x60a06040526006805460ff60a01b191690553480156200001e57600080fd5b50604051620018a5380380620018a5833981016040819052620000419162000145565b6000805460ff191690556001600255806001600160a01b038116620000795760405163d92e233d60e01b815260040160405180910390fd5b6001600160a01b03811660805262000093600033620000ae565b5050600680546001600160a01b031916331790555062000177565b60008281526001602090815260408083206001600160a01b038516845290915281205460ff166200013b5760008381526001602081815260408084206001600160a01b0387168086529252808420805460ff19169093179092559051339286917f2f8788117e7eff1d82e926ec794901d17c78024a50270940304540a733656f0d9190a45060016200013f565b5060005b92915050565b6000602082840312156200015857600080fd5b81516001600160a01b03811681146200017057600080fd5b9392505050565b6080516116da620001cb600039600081816101d40152818161042e01528181610510015281816106470152818161073001528181610cc401528181610e2b01528181610f180152610fcd01526116da6000f3fe608060405234801561001057600080fd5b506004361061018e5760003560e01c8063686f6b51116100de57806391d1485411610097578063a217fddf11610071578063a217fddf14610376578063afffd5b71461037e578063ca54be3b14610391578063d547741f146103a457600080fd5b806391d148541461034757806396d53eb81461035a57806399ec92461461036d57600080fd5b8063686f6b51146102c557806375451b4f146102d85780637bb7bed1146102f25780637ceaf92f1461030557806382aefa24146103185780638456cb591461033f57600080fd5b80632f2ff15d1161014b5780633a8051ac116101255780633a8051ac146102965780633f4ba83a1461029f57806352d0b768146102a75780635c975abb146102ba57600080fd5b80632f2ff15d1461026857806336568abe1461027b578063372500ab1461028e57600080fd5b806301ffc9a7146101935780630cca8749146101bb57806316f0115b146101cf578063201e81a81461020e578063248a9ca3146102235780632d62af2f14610255575b600080fd5b6101a66101a13660046111bf565b6103b7565b60405190151581526020015b60405180910390f35b6006546101a690600160a01b900460ff1681565b6101f67f000000000000000000000000000000000000000000000000000000000000000081565b6040516001600160a01b0390911681526020016101b2565b61022161021c36600461126e565b6103ee565b005b610247610231366004611320565b6000908152600160208190526040909120015490565b6040519081526020016101b2565b610247610263366004611389565b610406565b6102216102763660046113c1565b61058f565b6102216102893660046113c1565b6105bb565b6102216105f3565b61024760055481565b610221610624565b6102216102b5366004611320565b61063a565b60005460ff166101a6565b6102216102d3366004611320565b610723565b6102e0600581565b60405160ff90911681526020016101b2565b6101f6610300366004611320565b610804565b6102216103133660046113f4565b61082e565b6102477f114e74f6ea3bd819998f78687bfcb11b140da08e9b7d222fa9c1f1ba1f2aa12281565b61022161088e565b6101a66103553660046113c1565b6108a1565b610221610368366004611411565b6108cc565b61024760045481565b610247600081565b6006546101f6906001600160a01b031681565b61022161039f36600461142e565b610968565b6102216103b23660046113c1565b61099f565b60006001600160e01b03198216637965db0b60e01b14806103e857506301ffc9a760e01b6001600160e01b03198316145b92915050565b60006103f9816109c5565b610402826109cf565b5050565b6000610410610aaf565b610418610ad3565b6001600160a01b03821661042a573391505b60007f00000000000000000000000000000000000000000000000000000000000000006001600160a01b0316639d63848a6040518163ffffffff1660e01b815260040160a060405180830381865afa15801561048a573d6000803e3d6000fd5b505050506040513d601f19601f820116820180604052508101906104ae919061146f565b905060005b60058110156105775760008282600581106104d0576104d06114cd565b602002015190506001600160a01b03811615801590610505575060008683600581106104fe576104fe6114cd565b6020020151115b1561056e5761056e337f0000000000000000000000000000000000000000000000000000000000000000888560058110610541576105416114cd565b6020020151868660058110610558576105586114cd565b60200201516001600160a01b0316929190610afb565b506001016104b3565b506105828484610b55565b9150506103e86001600255565b600082815260016020819052604090912001546105ab816109c5565b6105b58383610bc7565b50505050565b6001600160a01b03811633146105e45760405163334bd91960e11b815260040160405180910390fd5b6105ee8282610c40565b505050565b6105fb610aaf565b610603610ad3565b600654610618906001600160a01b0316610cad565b6106226001600255565b565b600061062f816109c5565b610637610d31565b50565b6000610645816109c5565b7f00000000000000000000000000000000000000000000000000000000000000006001600160a01b03166322068b446040518163ffffffff1660e01b8152600401602060405180830381865afa1580156106a3573d6000803e3d6000fd5b505050506040513d601f19601f820116820180604052508101906106c791906114e3565b82106106e657604051634dd76a3360e01b815260040160405180910390fd5b60058290556040518281527f1263b39fe165b48c204de3a3d752e6c7a129670cbe325757bdf76562664ef8d1906020015b60405180910390a15050565b600061072e816109c5565b7f00000000000000000000000000000000000000000000000000000000000000006001600160a01b03166322068b446040518163ffffffff1660e01b8152600401602060405180830381865afa15801561078c573d6000803e3d6000fd5b505050506040513d601f19601f820116820180604052508101906107b091906114e3565b82106107cf57604051634dd76a3360e01b815260040160405180910390fd5b60048290556040518281527fdefccea87e6a6ac5c177a3e0318456cf032572ae03a96d9f44c4664a92999aef90602001610717565b6003818154811061081457600080fd5b6000918252602090912001546001600160a01b0316905081565b6000610839816109c5565b6006805460ff60a01b1916600160a01b8415158102919091179182905560405160ff9190920416151581527fa3a2d1c4db55b0d5a8a9528000a005a3a576034e16abc47815aecff96fa3d90390602001610717565b6000610899816109c5565b610637610d83565b60009182526001602090815260408084206001600160a01b0393909316845291905290205460ff1690565b60006108d7816109c5565b6001600160a01b0382166108fe5760405163d92e233d60e01b815260040160405180910390fd5b600654604080516001600160a01b03928316815291841660208301527f83ebbd31e22910c696bcf3b247e11e635c0204f0c6dc527dae30aa58a076af13910160405180910390a150600680546001600160a01b0319166001600160a01b0392909216919091179055565b610970610aaf565b610978610ad3565b6001600160a01b0381166109895750335b61099533848484610dc0565b6105ee6001600255565b600082815260016020819052604090912001546109bb816109c5565b6105b58383610c40565b6106378133610e5e565b80516000036109fc5780604051630362609760e51b81526004016109f391906114fc565b60405180910390fd5b60005b8151811015610a5f5760006001600160a01b0316828281518110610a2557610a256114cd565b60200260200101516001600160a01b031603610a575760405163af7bbf6960e01b8152600481018290526024016109f3565b6001016109ff565b508051610a73906003906020840190611145565b507f69be44b81d4f8b6cf7825a37f020b264079658f3d72856eeb0a0efed09c7d3926003604051610aa49190611593565b60405180910390a150565b60005460ff16156106225760405163d93c066560e01b815260040160405180910390fd5b6002805403610af557604051633ee5aeb560e01b815260040160405180910390fd5b60028055565b604080516001600160a01b0385811660248301528416604482015260648082018490528251808303909101815260849091019091526020810180516001600160e01b03166323b872dd60e01b1790526105b5908590610e97565b600654600090600160a01b900460ff168015610b985750610b967f114e74f6ea3bd819998f78687bfcb11b140da08e9b7d222fa9c1f1ba1f2aa122336108a1565b155b15610bb6576040516355b51ef160e01b815260040160405180910390fd5b610bc08383610efa565b9392505050565b6000610bd383836108a1565b610c385760008381526001602081815260408084206001600160a01b0387168086529252808420805460ff19169093179092559051339286917f2f8788117e7eff1d82e926ec794901d17c78024a50270940304540a733656f0d9190a45060016103e8565b5060006103e8565b6000610c4c83836108a1565b15610c385760008381526001602090815260408083206001600160a01b0386168085529252808320805460ff1916905551339286917ff6391f5c32d9c69d2a47ea670b442974b53935d1edc7fd64eb21e047a839171b9190a45060016103e8565b604051632026ffa360e01b81526001600160a01b037f00000000000000000000000000000000000000000000000000000000000000001690632026ffa390610cfc9084906003906004016115a6565b600060405180830381600087803b158015610d1657600080fd5b505af1158015610d2a573d6000803e3d6000fd5b5050505050565b610d39610f90565b6000805460ff191690557f5db9ee0a495bf2e6ff9c91a7834c1ba4fdd244a5e8aa4e537bd38aeae4b073aa335b6040516001600160a01b03909116815260200160405180910390a1565b610d8b610aaf565b6000805460ff191660011790557f62e78cea01bee320cd4e420270b5ea74000d11b0c9f74754ebdbfc544b05a258610d663390565b600654600160a01b900460ff168015610e005750610dfe7f114e74f6ea3bd819998f78687bfcb11b140da08e9b7d222fa9c1f1ba1f2aa122336108a1565b155b15610e1e576040516355b51ef160e01b815260040160405180910390fd5b610e536001600160a01b037f000000000000000000000000000000000000000000000000000000000000000016853086610afb565b6105b5838383610fb3565b610e6882826108a1565b6104025760405163e2517d3f60e01b81526001600160a01b0382166004820152602481018390526044016109f3565b6000610eac6001600160a01b0384168361103e565b90508051600014158015610ed1575080806020019051810190610ecf91906115d2565b155b156105ee57604051635274afe760e01b81526001600160a01b03841660048201526024016109f3565b60048054604051636766ea0f60e01b81526000926001600160a01b037f00000000000000000000000000000000000000000000000000000000000000001692636766ea0f92610f4d928891889101611612565b6020604051808303816000875af1158015610f6c573d6000803e3d6000fd5b505050506040513d601f19601f82011682018060405250810190610bc091906114e3565b60005460ff1661062257604051638dfc202b60e01b815260040160405180910390fd5b600554604051632d526f8f60e21b81526001600160a01b037f0000000000000000000000000000000000000000000000000000000000000000169163b549be3c91611007919087908790879060040161163f565b600060405180830381600087803b15801561102157600080fd5b505af1158015611035573d6000803e3d6000fd5b50505050505050565b6060610bc08383600084600080856001600160a01b031684866040516110649190611675565b60006040518083038185875af1925050503d80600081146110a1576040519150601f19603f3d011682016040523d82523d6000602084013e6110a6565b606091505b50915091506110b68683836110c0565b9695505050505050565b6060826110d5576110d08261111c565b610bc0565b81511580156110ec57506001600160a01b0384163b155b1561111557604051639996b31560e01b81526001600160a01b03851660048201526024016109f3565b5080610bc0565b80511561112c5780518082602001fd5b604051630a12f52160e11b815260040160405180910390fd5b82805482825590600052602060002090810192821561119a579160200282015b8281111561119a57825182546001600160a01b0319166001600160a01b03909116178255602090920191600190910190611165565b506111a69291506111aa565b5090565b5b808211156111a657600081556001016111ab565b6000602082840312156111d157600080fd5b81356001600160e01b031981168114610bc057600080fd5b634e487b7160e01b600052604160045260246000fd5b60405160a0810167ffffffffffffffff81118282101715611222576112226111e9565b60405290565b604051601f8201601f1916810167ffffffffffffffff81118282101715611251576112516111e9565b604052919050565b6001600160a01b038116811461063757600080fd5b6000602080838503121561128157600080fd5b823567ffffffffffffffff8082111561129957600080fd5b818501915085601f8301126112ad57600080fd5b8135818111156112bf576112bf6111e9565b8060051b91506112d0848301611228565b81815291830184019184810190888411156112ea57600080fd5b938501935b83851015611314578435925061130483611259565b82825293850193908501906112ef565b98975050505050505050565b60006020828403121561133257600080fd5b5035919050565b600082601f83011261134a57600080fd5b6113526111ff565b8060a084018581111561136457600080fd5b845b8181101561137e578035845260209384019301611366565b509095945050505050565b60008060c0838503121561139c57600080fd5b6113a68484611339565b915060a08301356113b681611259565b809150509250929050565b600080604083850312156113d457600080fd5b8235915060208301356113b681611259565b801515811461063757600080fd5b60006020828403121561140657600080fd5b8135610bc0816113e6565b60006020828403121561142357600080fd5b8135610bc081611259565b600080600060e0848603121561144357600080fd5b833592506114548560208601611339565b915060c084013561146481611259565b809150509250925092565b600060a0828403121561148157600080fd5b82601f83011261149057600080fd5b6114986111ff565b8060a08401858111156114aa57600080fd5b845b8181101561137e5780516114bf81611259565b8452602093840193016114ac565b634e487b7160e01b600052603260045260246000fd5b6000602082840312156114f557600080fd5b5051919050565b6020808252825182820181905260009190848201906040850190845b8181101561153d5783516001600160a01b031683529284019291840191600101611518565b50909695505050505050565b600081548084526020808501945083600052602060002060005b838110156115885781546001600160a01b031687529582019560019182019101611563565b509495945050505050565b602081526000610bc06020830184611549565b6001600160a01b03831681526040602082018190526000906115ca90830184611549565b949350505050565b6000602082840312156115e457600080fd5b8151610bc0816113e6565b8060005b60058110156105b55781518452602093840193909101906001016115f3565b83815260e0810161162660208301856115ef565b6001600160a01b039290921660c0919091015292915050565b84815260208101849052610100810161165b60408301856115ef565b6001600160a01b039290921660e091909101529392505050565b6000825160005b81811015611696576020818601810151858301520161167c565b50600092019182525091905056fea2646970667358221220a400387ae89e574ab96eed99ec1aaf182c719beabb6cd57b57954923052f999264736f6c63430008160033",
  "linkReferences": {},
  "deployedLinkReferences": {}
}