{
  "_format": "hh-sol-artifact-1",
  "contractName": "ZunamiPool",
  "sourceName": "contracts/ZunamiPool.sol",
  "abi": [
    {
      "inputs": [
        {
          "internalType": "string",
          "name": "name_",
          "type": "string"
        },
        {
          "internalType": "string",
          "name": "symbol_",
          "type": "string"
        }
      ],
      "stateMutability": "nonpayable",
      "type": "constructor"
    },
    {
      "inputs": [
        {
          "internalType": "uint256",
          "name": "sid",
          "type": "uint256"
        }
      ],
      "name": "AbsentStrategy",
      "type": "error"
    },
    {
      "inputs": [],
      "name": "AccessControlBadConfirmation",
      "type": "error"
    },
    {
      "inputs": [
        {
          "internalType": "address",
          "name": "account",
          "type": "address"
        },
        {
          "internalType": "bytes32",
          "name": "neededRole",
          "type": "bytes32"
        }
      ],
      "name": "AccessControlUnauthorizedAccount",
      "type": "error"
    },
    {
      "inputs": [
        {
          "internalType": "address",
          "name": "target",
          "type": "address"
        }
      ],
      "name": "AddressEmptyCode",
      "type": "error"
    },
    {
      "inputs": [
        {
          "internalType": "address",
          "name": "account",
          "type": "address"
        }
      ],
      "name": "AddressInsufficientBalance",
      "type": "error"
    },
    {
      "inputs": [
        {
          "internalType": "uint256",
          "name": "sid",
          "type": "uint256"
        }
      ],
      "name": "DisabledStrategy",
      "type": "error"
    },
    {
      "inputs": [],
      "name": "DuplicatedStrategy",
      "type": "error"
    },
    {
      "inputs": [
        {
          "internalType": "address",
          "name": "spender",
          "type": "address"
        },
        {
          "internalType": "uint256",
          "name": "allowance",
          "type": "uint256"
        },
        {
          "internalType": "uint256",
          "name": "needed",
          "type": "uint256"
        }
      ],
      "name": "ERC20InsufficientAllowance",
      "type": "error"
    },
    {
      "inputs": [
        {
          "internalType": "address",
          "name": "sender",
          "type": "address"
        },
        {
          "internalType": "uint256",
          "name": "balance",
          "type": "uint256"
        },
        {
          "internalType": "uint256",
          "name": "needed",
          "type": "uint256"
        }
      ],
      "name": "ERC20InsufficientBalance",
      "type": "error"
    },
    {
      "inputs": [
        {
          "internalType": "address",
          "name": "approver",
          "type": "address"
        }
      ],
      "name": "ERC20InvalidApprover",
      "type": "error"
    },
    {
      "inputs": [
        {
          "internalType": "address",
          "name": "receiver",
          "type": "address"
        }
      ],
      "name": "ERC20InvalidReceiver",
      "type": "error"
    },
    {
      "inputs": [
        {
          "internalType": "address",
          "name": "sender",
          "type": "address"
        }
      ],
      "name": "ERC20InvalidSender",
      "type": "error"
    },
    {
      "inputs": [
        {
          "internalType": "address",
          "name": "spender",
          "type": "address"
        }
      ],
      "name": "ERC20InvalidSpender",
      "type": "error"
    },
    {
      "inputs": [],
      "name": "EnforcedPause",
      "type": "error"
    },
    {
      "inputs": [],
      "name": "ExpectedPause",
      "type": "error"
    },
    {
      "inputs": [],
      "name": "FailedInnerCall",
      "type": "error"
    },
    {
      "inputs": [],
      "name": "IncorrectArguments",
      "type": "error"
    },
    {
      "inputs": [],
      "name": "IncorrectSid",
      "type": "error"
    },
    {
      "inputs": [
        {
          "internalType": "uint256",
          "name": "sid",
          "type": "uint256"
        }
      ],
      "name": "NotStartedStrategy",
      "type": "error"
    },
    {
      "inputs": [
        {
          "internalType": "address",
          "name": "token",
          "type": "address"
        }
      ],
      "name": "SafeERC20FailedOperation",
      "type": "error"
    },
    {
      "inputs": [
        {
          "internalType": "address",
          "name": "account",
          "type": "address"
        },
        {
          "internalType": "bytes32[2]",
          "name": "roles",
          "type": "bytes32[2]"
        }
      ],
      "name": "UnauthorizedAccount2Roles",
      "type": "error"
    },
    {
      "inputs": [],
      "name": "WrongAmount",
      "type": "error"
    },
    {
      "inputs": [
        {
          "internalType": "uint256",
          "name": "sid",
          "type": "uint256"
        },
        {
          "internalType": "uint256[5]",
          "name": "amounts",
          "type": "uint256[5]"
        }
      ],
      "name": "WrongDeposit",
      "type": "error"
    },
    {
      "inputs": [],
      "name": "WrongLength",
      "type": "error"
    },
    {
      "inputs": [],
      "name": "WrongRatio",
      "type": "error"
    },
    {
      "inputs": [],
      "name": "WrongReceiver",
      "type": "error"
    },
    {
      "inputs": [
        {
          "internalType": "uint256",
          "name": "sid",
          "type": "uint256"
        }
      ],
      "name": "WrongWithdrawParams",
      "type": "error"
    },
    {
      "inputs": [],
      "name": "WrongWithdrawPercent",
      "type": "error"
    },
    {
      "inputs": [],
      "name": "ZeroAddress",
      "type": "error"
    },
    {
      "inputs": [
        {
          "internalType": "uint256",
          "name": "index",
          "type": "uint256"
        }
      ],
      "name": "ZeroTokenAddress",
      "type": "error"
    },
    {
      "inputs": [
        {
          "internalType": "uint256",
          "name": "index",
          "type": "uint256"
        }
      ],
      "name": "ZeroTokenDecimalMultiplier",
      "type": "error"
    },
    {
      "anonymous": false,
      "inputs": [
        {
          "indexed": true,
          "internalType": "uint256",
          "name": "sid",
          "type": "uint256"
        },
        {
          "indexed": true,
          "internalType": "address",
          "name": "strategyAddr",
          "type": "address"
        },
        {
          "indexed": false,
          "internalType": "uint256",
          "name": "startTime",
          "type": "uint256"
        }
      ],
      "name": "AddedStrategy",
      "type": "event"
    },
    {
      "anonymous": false,
      "inputs": [
        {
          "indexed": true,
          "internalType": "address",
          "name": "owner",
          "type": "address"
        },
        {
          "indexed": true,
          "internalType": "address",
          "name": "spender",
          "type": "address"
        },
        {
          "indexed": false,
          "internalType": "uint256",
          "name": "value",
          "type": "uint256"
        }
      ],
      "name": "Approval",
      "type": "event"
    },
    {
      "anonymous": false,
      "inputs": [
        {
          "indexed": true,
          "internalType": "address",
          "name": "receiver",
          "type": "address"
        },
        {
          "indexed": false,
          "internalType": "contract IERC20[]",
          "name": "rewardTokens",
          "type": "address[]"
        }
      ],
      "name": "ClaimedRewards",
      "type": "event"
    },
    {
      "anonymous": false,
      "inputs": [
        {
          "indexed": true,
          "internalType": "address",
          "name": "depositor",
          "type": "address"
        },
        {
          "indexed": false,
          "internalType": "uint256",
          "name": "depositedValue",
          "type": "uint256"
        },
        {
          "indexed": false,
          "internalType": "uint256[5]",
          "name": "amounts",
          "type": "uint256[5]"
        },
        {
          "indexed": false,
          "internalType": "uint256",
          "name": "deposited",
          "type": "uint256"
        },
        {
          "indexed": true,
          "internalType": "uint256",
          "name": "sid",
          "type": "uint256"
        }
      ],
      "name": "Deposited",
      "type": "event"
    },
    {
      "anonymous": false,
      "inputs": [
        {
          "indexed": true,
          "internalType": "address",
          "name": "pool",
          "type": "address"
        }
      ],
      "name": "DisableStrategy",
      "type": "event"
    },
    {
      "anonymous": false,
      "inputs": [
        {
          "indexed": true,
          "internalType": "address",
          "name": "pool",
          "type": "address"
        }
      ],
      "name": "EnabledStrategy",
      "type": "event"
    },
    {
      "anonymous": false,
      "inputs": [
        {
          "indexed": true,
          "internalType": "address",
          "name": "withdrawer",
          "type": "address"
        },
        {
          "indexed": false,
          "internalType": "uint256[5]",
          "name": "amounts",
          "type": "uint256[5]"
        },
        {
          "indexed": false,
          "internalType": "uint256",
          "name": "withdrawn",
          "type": "uint256"
        }
      ],
      "name": "FailedWithdrawal",
      "type": "event"
    },
    {
      "anonymous": false,
      "inputs": [
        {
          "indexed": false,
          "internalType": "address",
          "name": "account",
          "type": "address"
        }
      ],
      "name": "Paused",
      "type": "event"
    },
    {
      "anonymous": false,
      "inputs": [
        {
          "indexed": true,
          "internalType": "bytes32",
          "name": "role",
          "type": "bytes32"
        },
        {
          "indexed": true,
          "internalType": "bytes32",
          "name": "previousAdminRole",
          "type": "bytes32"
        },
        {
          "indexed": true,
          "internalType": "bytes32",
          "name": "newAdminRole",
          "type": "bytes32"
        }
      ],
      "name": "RoleAdminChanged",
      "type": "event"
    },
    {
      "anonymous": false,
      "inputs": [
        {
          "indexed": true,
          "internalType": "bytes32",
          "name": "role",
          "type": "bytes32"
        },
        {
          "indexed": true,
          "internalType": "address",
          "name": "account",
          "type": "address"
        },
        {
          "indexed": true,
          "internalType": "address",
          "name": "sender",
          "type": "address"
        }
      ],
      "name": "RoleGranted",
      "type": "event"
    },
    {
      "anonymous": false,
      "inputs": [
        {
          "indexed": true,
          "internalType": "bytes32",
          "name": "role",
          "type": "bytes32"
        },
        {
          "indexed": true,
          "internalType": "address",
          "name": "account",
          "type": "address"
        },
        {
          "indexed": true,
          "internalType": "address",
          "name": "sender",
          "type": "address"
        }
      ],
      "name": "RoleRevoked",
      "type": "event"
    },
    {
      "anonymous": false,
      "inputs": [
        {
          "indexed": true,
          "internalType": "address",
          "name": "from",
          "type": "address"
        },
        {
          "indexed": true,
          "internalType": "address",
          "name": "to",
          "type": "address"
        },
        {
          "indexed": false,
          "internalType": "uint256",
          "name": "value",
          "type": "uint256"
        }
      ],
      "name": "Transfer",
      "type": "event"
    },
    {
      "anonymous": false,
      "inputs": [
        {
          "indexed": false,
          "internalType": "address",
          "name": "account",
          "type": "address"
        }
      ],
      "name": "Unpaused",
      "type": "event"
    },
    {
      "anonymous": false,
      "inputs": [
        {
          "indexed": true,
          "internalType": "uint256",
          "name": "tid",
          "type": "uint256"
        },
        {
          "indexed": true,
          "internalType": "address",
          "name": "token",
          "type": "address"
        },
        {
          "indexed": false,
          "internalType": "uint256",
          "name": "tokenDecimalMultiplier",
          "type": "uint256"
        },
        {
          "indexed": false,
          "internalType": "address",
          "name": "tokenOld",
          "type": "address"
        }
      ],
      "name": "UpdatedToken",
      "type": "event"
    },
    {
      "anonymous": false,
      "inputs": [
        {
          "indexed": true,
          "internalType": "address",
          "name": "withdrawer",
          "type": "address"
        },
        {
          "indexed": false,
          "internalType": "uint256",
          "name": "withdrawn",
          "type": "uint256"
        },
        {
          "indexed": true,
          "internalType": "uint256",
          "name": "sid",
          "type": "uint256"
        }
      ],
      "name": "Withdrawn",
      "type": "event"
    },
    {
      "inputs": [],
      "name": "CONTROLLER_ROLE",
      "outputs": [
        {
          "internalType": "bytes32",
          "name": "",
          "type": "bytes32"
        }
      ],
      "stateMutability": "view",
      "type": "function"
    },
    {
      "inputs": [],
      "name": "DEFAULT_ADMIN_ROLE",
      "outputs": [
        {
          "internalType": "bytes32",
          "name": "",
          "type": "bytes32"
        }
      ],
      "stateMutability": "view",
      "type": "function"
    },
    {
      "inputs": [],
      "name": "EMERGENCY_ROLE",
      "outputs": [
        {
          "internalType": "bytes32",
          "name": "",
          "type": "bytes32"
        }
      ],
      "stateMutability": "view",
      "type": "function"
    },
    {
      "inputs": [],
      "name": "FUNDS_DENOMINATOR",
      "outputs": [
        {
          "internalType": "uint256",
          "name": "",
          "type": "uint256"
        }
      ],
      "stateMutability": "view",
      "type": "function"
    },
    {
      "inputs": [],
      "name": "MINIMUM_LIQUIDITY",
      "outputs": [
        {
          "internalType": "uint256",
          "name": "",
          "type": "uint256"
        }
      ],
      "stateMutability": "view",
      "type": "function"
    },
    {
      "inputs": [],
      "name": "MINIMUM_LIQUIDITY_LOCKER",
      "outputs": [
        {
          "internalType": "address",
          "name": "",
          "type": "address"
        }
      ],
      "stateMutability": "view",
      "type": "function"
    },
    {
      "inputs": [],
      "name": "MIN_LOCK_TIME",
      "outputs": [
        {
          "internalType": "uint256",
          "name": "",
          "type": "uint256"
        }
      ],
      "stateMutability": "view",
      "type": "function"
    },
    {
      "inputs": [],
      "name": "POOL_ASSETS",
      "outputs": [
        {
          "internalType": "uint8",
          "name": "",
          "type": "uint8"
        }
      ],
      "stateMutability": "view",
      "type": "function"
    },
    {
      "inputs": [],
      "name": "RATIO_MULTIPLIER",
      "outputs": [
        {
          "internalType": "uint256",
          "name": "",
          "type": "uint256"
        }
      ],
      "stateMutability": "view",
      "type": "function"
    },
    {
      "inputs": [
        {
          "internalType": "address",
          "name": "_strategyAddr",
          "type": "address"
        }
      ],
      "name": "addStrategy",
      "outputs": [],
      "stateMutability": "nonpayable",
      "type": "function"
    },
    {
      "inputs": [
        {
          "internalType": "address",
          "name": "owner",
          "type": "address"
        },
        {
          "internalType": "address",
          "name": "spender",
          "type": "address"
        }
      ],
      "name": "allowance",
      "outputs": [
        {
          "internalType": "uint256",
          "name": "",
          "type": "uint256"
        }
      ],
      "stateMutability": "view",
      "type": "function"
    },
    {
      "inputs": [
        {
          "internalType": "address",
          "name": "spender",
          "type": "address"
        },
        {
          "internalType": "uint256",
          "name": "value",
          "type": "uint256"
        }
      ],
      "name": "approve",
      "outputs": [
        {
          "internalType": "bool",
          "name": "",
          "type": "bool"
        }
      ],
      "stateMutability": "nonpayable",
      "type": "function"
    },
    {
      "inputs": [
        {
          "internalType": "address",
          "name": "account",
          "type": "address"
        }
      ],
      "name": "balanceOf",
      "outputs": [
        {
          "internalType": "uint256",
          "name": "",
          "type": "uint256"
        }
      ],
      "stateMutability": "view",
      "type": "function"
    },
    {
      "inputs": [
        {
          "internalType": "address",
          "name": "receiver",
          "type": "address"
        },
        {
          "internalType": "contract IERC20[]",
          "name": "rewardTokens",
          "type": "address[]"
        }
      ],
      "name": "claimRewards",
      "outputs": [],
      "stateMutability": "nonpayable",
      "type": "function"
    },
    {
      "inputs": [],
      "name": "decimals",
      "outputs": [
        {
          "internalType": "uint8",
          "name": "",
          "type": "uint8"
        }
      ],
      "stateMutability": "view",
      "type": "function"
    },
    {
      "inputs": [
        {
          "internalType": "uint256",
          "name": "sid",
          "type": "uint256"
        },
        {
          "internalType": "uint256[5]",
          "name": "amounts",
          "type": "uint256[5]"
        },
        {
          "internalType": "address",
          "name": "receiver",
          "type": "address"
        }
      ],
      "name": "deposit",
      "outputs": [
        {
          "internalType": "uint256",
          "name": "",
          "type": "uint256"
        }
      ],
      "stateMutability": "nonpayable",
      "type": "function"
    },
    {
      "inputs": [
        {
          "internalType": "uint256",
          "name": "sid",
          "type": "uint256"
        },
        {
          "internalType": "uint256[5]",
          "name": "amounts",
          "type": "uint256[5]"
        }
      ],
      "name": "depositStrategy",
      "outputs": [
        {
          "internalType": "uint256",
          "name": "",
          "type": "uint256"
        }
      ],
      "stateMutability": "nonpayable",
      "type": "function"
    },
    {
      "inputs": [
        {
          "internalType": "uint256",
          "name": "_sid",
          "type": "uint256"
        }
      ],
      "name": "disableStrategy",
      "outputs": [],
      "stateMutability": "nonpayable",
      "type": "function"
    },
    {
      "inputs": [
        {
          "internalType": "uint256",
          "name": "_sid",
          "type": "uint256"
        }
      ],
      "name": "enableStrategy",
      "outputs": [],
      "stateMutability": "nonpayable",
      "type": "function"
    },
    {
      "inputs": [
        {
          "internalType": "bytes32",
          "name": "role",
          "type": "bytes32"
        }
      ],
      "name": "getRoleAdmin",
      "outputs": [
        {
          "internalType": "bytes32",
          "name": "",
          "type": "bytes32"
        }
      ],
      "stateMutability": "view",
      "type": "function"
    },
    {
      "inputs": [
        {
          "internalType": "bytes32",
          "name": "role",
          "type": "bytes32"
        },
        {
          "internalType": "address",
          "name": "account",
          "type": "address"
        }
      ],
      "name": "grantRole",
      "outputs": [],
      "stateMutability": "nonpayable",
      "type": "function"
    },
    {
      "inputs": [
        {
          "internalType": "bytes32",
          "name": "role",
          "type": "bytes32"
        },
        {
          "internalType": "address",
          "name": "account",
          "type": "address"
        }
      ],
      "name": "hasRole",
      "outputs": [
        {
          "internalType": "bool",
          "name": "",
          "type": "bool"
        }
      ],
      "stateMutability": "view",
      "type": "function"
    },
    {
      "inputs": [],
      "name": "launch",
      "outputs": [],
      "stateMutability": "nonpayable",
      "type": "function"
    },
    {
      "inputs": [],
      "name": "launched",
      "outputs": [
        {
          "internalType": "bool",
          "name": "",
          "type": "bool"
        }
      ],
      "stateMutability": "view",
      "type": "function"
    },
    {
      "inputs": [
        {
          "internalType": "uint256[]",
          "name": "_strategies",
          "type": "uint256[]"
        },
        {
          "internalType": "uint256[]",
          "name": "_withdrawalsPercents",
          "type": "uint256[]"
        },
        {
          "internalType": "uint256",
          "name": "_receiverStrategy",
          "type": "uint256"
        },
        {
          "internalType": "uint256[5][]",
          "name": "_minAmounts",
          "type": "uint256[5][]"
        }
      ],
      "name": "moveFundsBatch",
      "outputs": [],
      "stateMutability": "nonpayable",
      "type": "function"
    },
    {
      "inputs": [],
      "name": "name",
      "outputs": [
        {
          "internalType": "string",
          "name": "",
          "type": "string"
        }
      ],
      "stateMutability": "view",
      "type": "function"
    },
    {
      "inputs": [],
      "name": "pause",
      "outputs": [],
      "stateMutability": "nonpayable",
      "type": "function"
    },
    {
      "inputs": [],
      "name": "paused",
      "outputs": [
        {
          "internalType": "bool",
          "name": "",
          "type": "bool"
        }
      ],
      "stateMutability": "view",
      "type": "function"
    },
    {
      "inputs": [
        {
          "internalType": "bytes32",
          "name": "role",
          "type": "bytes32"
        },
        {
          "internalType": "address",
          "name": "callerConfirmation",
          "type": "address"
        }
      ],
      "name": "renounceRole",
      "outputs": [],
      "stateMutability": "nonpayable",
      "type": "function"
    },
    {
      "inputs": [
        {
          "internalType": "bytes32",
          "name": "role",
          "type": "bytes32"
        },
        {
          "internalType": "address",
          "name": "account",
          "type": "address"
        }
      ],
      "name": "revokeRole",
      "outputs": [],
      "stateMutability": "nonpayable",
      "type": "function"
    },
    {
      "inputs": [
        {
          "internalType": "address[]",
          "name": "tokens_",
          "type": "address[]"
        },
        {
          "internalType": "uint256[]",
          "name": "_tokenDecimalMultipliers",
          "type": "uint256[]"
        }
      ],
      "name": "setTokens",
      "outputs": [],
      "stateMutability": "nonpayable",
      "type": "function"
    },
    {
      "inputs": [],
      "name": "strategyCount",
      "outputs": [
        {
          "internalType": "uint256",
          "name": "",
          "type": "uint256"
        }
      ],
      "stateMutability": "view",
      "type": "function"
    },
    {
      "inputs": [
        {
          "internalType": "uint256",
          "name": "sid",
          "type": "uint256"
        }
      ],
      "name": "strategyInfo",
      "outputs": [
        {
          "components": [
            {
              "internalType": "contract IStrategy",
              "name": "strategy",
              "type": "address"
            },
            {
              "internalType": "uint256",
              "name": "startTime",
              "type": "uint256"
            },
            {
              "internalType": "uint256",
              "name": "minted",
              "type": "uint256"
            },
            {
              "internalType": "bool",
              "name": "enabled",
              "type": "bool"
            }
          ],
          "internalType": "struct IPool.StrategyInfo",
          "name": "",
          "type": "tuple"
        }
      ],
      "stateMutability": "view",
      "type": "function"
    },
    {
      "inputs": [
        {
          "internalType": "bytes4",
          "name": "interfaceId",
          "type": "bytes4"
        }
      ],
      "name": "supportsInterface",
      "outputs": [
        {
          "internalType": "bool",
          "name": "",
          "type": "bool"
        }
      ],
      "stateMutability": "view",
      "type": "function"
    },
    {
      "inputs": [],
      "name": "symbol",
      "outputs": [
        {
          "internalType": "string",
          "name": "",
          "type": "string"
        }
      ],
      "stateMutability": "view",
      "type": "function"
    },
    {
      "inputs": [
        {
          "internalType": "uint256",
          "name": "tid",
          "type": "uint256"
        }
      ],
      "name": "token",
      "outputs": [
        {
          "internalType": "contract IERC20",
          "name": "",
          "type": "address"
        }
      ],
      "stateMutability": "view",
      "type": "function"
    },
    {
      "inputs": [],
      "name": "tokenDecimalsMultipliers",
      "outputs": [
        {
          "internalType": "uint256[5]",
          "name": "",
          "type": "uint256[5]"
        }
      ],
      "stateMutability": "view",
      "type": "function"
    },
    {
      "inputs": [],
      "name": "tokens",
      "outputs": [
        {
          "internalType": "contract IERC20[5]",
          "name": "",
          "type": "address[5]"
        }
      ],
      "stateMutability": "view",
      "type": "function"
    },
    {
      "inputs": [],
      "name": "totalDeposited",
      "outputs": [
        {
          "internalType": "uint256",
          "name": "",
          "type": "uint256"
        }
      ],
      "stateMutability": "view",
      "type": "function"
    },
    {
      "inputs": [],
      "name": "totalHoldings",
      "outputs": [
        {
          "internalType": "uint256",
          "name": "",
          "type": "uint256"
        }
      ],
      "stateMutability": "view",
      "type": "function"
    },
    {
      "inputs": [],
      "name": "totalSupply",
      "outputs": [
        {
          "internalType": "uint256",
          "name": "",
          "type": "uint256"
        }
      ],
      "stateMutability": "view",
      "type": "function"
    },
    {
      "inputs": [
        {
          "internalType": "address",
          "name": "to",
          "type": "address"
        },
        {
          "internalType": "uint256",
          "name": "value",
          "type": "uint256"
        }
      ],
      "name": "transfer",
      "outputs": [
        {
          "internalType": "bool",
          "name": "",
          "type": "bool"
        }
      ],
      "stateMutability": "nonpayable",
      "type": "function"
    },
    {
      "inputs": [
        {
          "internalType": "address",
          "name": "from",
          "type": "address"
        },
        {
          "internalType": "address",
          "name": "to",
          "type": "address"
        },
        {
          "internalType": "uint256",
          "name": "value",
          "type": "uint256"
        }
      ],
      "name": "transferFrom",
      "outputs": [
        {
          "internalType": "bool",
          "name": "",
          "type": "bool"
        }
      ],
      "stateMutability": "nonpayable",
      "type": "function"
    },
    {
      "inputs": [],
      "name": "unpause",
      "outputs": [],
      "stateMutability": "nonpayable",
      "type": "function"
    },
    {
      "inputs": [
        {
          "internalType": "uint256",
          "name": "sid",
          "type": "uint256"
        },
        {
          "internalType": "uint256",
          "name": "amount",
          "type": "uint256"
        },
        {
          "internalType": "uint256[5]",
          "name": "tokenAmounts",
          "type": "uint256[5]"
        },
        {
          "internalType": "address",
          "name": "receiver",
          "type": "address"
        }
      ],
      "name": "withdraw",
      "outputs": [],
      "stateMutability": "nonpayable",
      "type": "function"
    }
  ],
  "bytecode": "0x60806040523480156200001157600080fd5b5060405162003387380380620033878339810160408190526200003491620001f1565b81816003620000448382620002ec565b506004620000538282620002ec565b50506005805460ff19169055506200006d60003362000076565b505050620003b8565b60008281526006602090815260408083206001600160a01b038516845290915281205460ff166200011f5760008381526006602090815260408083206001600160a01b03861684529091529020805460ff19166001179055620000d63390565b6001600160a01b0316826001600160a01b0316847f2f8788117e7eff1d82e926ec794901d17c78024a50270940304540a733656f0d60405160405180910390a450600162000123565b5060005b92915050565b634e487b7160e01b600052604160045260246000fd5b600082601f8301126200015157600080fd5b81516001600160401b03808211156200016e576200016e62000129565b604051601f8301601f19908116603f0116810190828211818310171562000199576200019962000129565b8160405283815260209250866020858801011115620001b757600080fd5b600091505b83821015620001db5785820183015181830184015290820190620001bc565b6000602085830101528094505050505092915050565b600080604083850312156200020557600080fd5b82516001600160401b03808211156200021d57600080fd5b6200022b868387016200013f565b935060208501519150808211156200024257600080fd5b5062000251858286016200013f565b9150509250929050565b600181811c908216806200027057607f821691505b6020821081036200029157634e487b7160e01b600052602260045260246000fd5b50919050565b601f821115620002e7576000816000526020600020601f850160051c81016020861015620002c25750805b601f850160051c820191505b81811015620002e357828155600101620002ce565b5050505b505050565b81516001600160401b0381111562000308576200030862000129565b62000320816200031984546200025b565b8462000297565b602080601f8311600181146200035857600084156200033f5750858301515b600019600386901b1c1916600185901b178555620002e3565b600085815260208120601f198616915b82811015620003895788860151825594840194600190910190840162000368565b5085821015620003a85787850151600019600388901b60f8161c191681555b5050505050600190811b01905550565b612fbf80620003c86000396000f3fe608060405234801561001057600080fd5b506004361061027f5760003560e01c80636766ea0f1161015c578063a9059cbb116100ce578063d547741f11610087578063d547741f1461058d578063d5f651a4146104fe578063dd62ed3e146105a0578063e9ec2e99146105d9578063f46a3020146105e1578063ff50abdc146105f657600080fd5b8063a9059cbb146104eb578063ad5e3472146104fe578063b549be3c1461050d578063ba9a7a5614610520578063bb91c33914610529578063c8390a481461057a57600080fd5b80638456cb59116101205780638456cb591461049857806391d14854146104a057806395d89b41146104b35780639d63848a146104bb5780639d9a779c146104d0578063a217fddf146104e357600080fd5b80636766ea0f1461043457806370a082311461044757806375451b4f146104705780637aedb990146104785780638091f3bf1461048b57600080fd5b806322068b44116101f5578063313ce567116101b9578063313ce567146103e657806336568abe146103fb5780633f4ba83a1461040e5780633ff03207146104165780635920192a146104205780635c975abb1461042957600080fd5b806322068b4414610382578063223e54791461038a57806323b872dd1461039d578063248a9ca3146103b05780632f2ff15d146103d357600080fd5b8063095ea7b311610247578063095ea7b3146103195780630ab5f8691461032c5780630d4b88071461033f57806318160ddd146103525780632026ffa31461035a57806320df43591461036d57600080fd5b806301339c211461028457806301ffc9a71461028e578063044215c6146102b657806306fdde03146102e1578063092c5b3b146102f6575b600080fd5b61028c6105ff565b005b6102a161029c3660046125b1565b61061a565b60405190151581526020015b60405180910390f35b6102c96102c43660046125db565b610651565b6040516001600160a01b0390911681526020016102ad565b6102e9610677565b6040516102ad9190612618565b61030b600080516020612f6a83398151915281565b6040519081526020016102ad565b6102a1610327366004612660565b610709565b61030b61033a366004612741565b610721565b61028c61034d366004612801565b610769565b60025461030b565b61028c6103683660046128f8565b610aac565b61030b600080516020612f4a83398151915281565b60075461030b565b61028c6103983660046129a7565b610c01565b6102a16103ab3660046129c4565b610e03565b61030b6103be3660046125db565b60009081526006602052604090206001015490565b61028c6103e1366004612a05565b610e29565b60125b60405160ff90911681526020016102ad565b61028c610409366004612a05565b610e54565b61028c610e8c565b61030b6201518081565b6102c961dead81565b60055460ff166102a1565b61030b610442366004612a35565b610ea2565b61030b6104553660046129a7565b6001600160a01b031660009081526020819052604090205490565b6103e9600581565b61028c6104863660046125db565b610f15565b6013546102a19060ff1681565b61028c610ff9565b6102a16104ae366004612a05565b61102d565b6102e9611058565b6104c3611067565b6040516102ad9190612a76565b61028c6104de3660046125db565b6110ac565b61030b600081565b6102a16104f9366004612660565b61116f565b61030b670de0b6b3a764000081565b61028c61051b366004612ab0565b61117d565b61030b6103e881565b61053c6105373660046125db565b61134d565b6040516102ad919081516001600160a01b03168152602080830151908201526040808301519082015260609182015115159181019190915260800190565b61028c610588366004612afa565b6113d9565b61028c61059b366004612a05565b6113ee565b61030b6105ae366004612bbc565b6001600160a01b03918216600090815260016020908152604080832093909416825291909152205490565b61030b611413565b6105e961151c565b6040516102ad9190612c0d565b61030b60125481565b600061060a81611557565b506013805460ff19166001179055565b60006001600160e01b03198216637965db0b60e01b148061064b57506301ffc9a760e01b6001600160e01b03198316145b92915050565b60006008826005811061066657610666612c1b565b01546001600160a01b031692915050565b60606003805461068690612c31565b80601f01602080910402602001604051908101604052809291908181526020018280546106b290612c31565b80156106ff5780601f106106d4576101008083540402835291602001916106ff565b820191906000526020600020905b8154815290600101906020018083116106e257829003601f168201915b5050505050905090565b600033610717818585611561565b5060019392505050565b600061072b61156e565b600080516020612f6a83398151915261074381611557565b61074c84611594565b610755846115b9565b61075f8484611601565b91505b5092915050565b6040805180820190915260008152600080516020612f4a8339815191526020820152610795813361173a565b83518551146107b75760405163f9e0bc9b60e01b815260040160405180910390fd5b60075483106107d957604051631964c57360e11b815260040160405180910390fd5b6107e283611594565b6107eb83611787565b60008060005b87518110156108675787818151811061080c5761080c612c1b565b602002602001015192506108538388838151811061082c5761082c612c1b565b602002602001015187848151811061084657610846612c1b565b60200260200101516117d1565b61085d9083612c81565b91506001016107f1565b50806007868154811061087c5761087c612c1b565b9060005260206000209060040201600201600082825461089c9190612c81565b909155506108aa9050612593565b60005b60058110156109e2576000600882600581106108cb576108cb612c1b565b01546001600160a01b03169050806108e357506109e2565b6040516370a0823160e01b81523060048201526001600160a01b038216906370a0823190602401602060405180830381865afa158015610927573d6000803e3d6000fd5b505050506040513d601f19601f8201168201806040525081019061094b9190612c94565b83836005811061095d5761095d612c1b565b6020020152600083836005811061097657610976612c1b565b602002015111156109d9576109d96007898154811061099757610997612c1b565b60009182526020909120600490910201546001600160a01b03168484600581106109c3576109c3612c1b565b60200201516001600160a01b0384169190611a20565b506001016108ad565b50600786815481106109f6576109f6612c1b565b600091825260209091206004918202015460405163b67d611d60e01b81526001600160a01b039091169163b67d611d91610a3291859101612c0d565b6020604051808303816000875af1158015610a51573d6000803e3d6000fd5b505050506040513d601f19601f82011682018060405250810190610a759190612c94565b600003610aa25785816040516331ea9deb60e11b8152600401610a99929190612cad565b60405180910390fd5b5050505050505050565b600080516020612f6a833981519152610ac481611557565b60005b600754811015610bba57600060078281548110610ae657610ae6612c1b565b600091825260209182902060408051608081018252600490930290910180546001600160a01b03168352600181015493830193909352600283015490820181905260039092015460ff1615156060820152915015801590610b48575080606001515b15610bb1578051604051632026ffa360e01b81526001600160a01b0390911690632026ffa390610b7e9088908890600401612d06565b600060405180830381600087803b158015610b9857600080fd5b505af1158015610bac573d6000803e3d6000fd5b505050505b50600101610ac7565b50826001600160a01b03167fc40901f1d03c33b46234c92521befa858a2264a718b553a3d1d2fd284ad4424083604051610bf49190612d32565b60405180910390a2505050565b6000610c0c81611557565b6001600160a01b038216610c335760405163d92e233d60e01b815260040160405180910390fd5b60005b600754811015610c985760078181548110610c5357610c53612c1b565b60009182526020909120600490910201546001600160a01b0390811690841603610c90576040516303ee72d760e51b815260040160405180910390fd5b600101610c36565b5060135460009060ff16610cad576000610cb2565b620151805b610cbc9042612c81565b604080516080810182526001600160a01b038681168083526020830185815260009484018581526001606086018181526007805480840182559881905296517fa66cc928b5edb82af9bd49922954155ab7b0942694bea4ce44661d9a8736c688600490990298890180546001600160a01b031916919097161790955591517fa66cc928b5edb82af9bd49922954155ab7b0942694bea4ce44661d9a8736c689870155517fa66cc928b5edb82af9bd49922954155ab7b0942694bea4ce44661d9a8736c68a86015591517fa66cc928b5edb82af9bd49922954155ab7b0942694bea4ce44661d9a8736c68b909401805460ff19169415159490941790935590549293509091610dca9190612d45565b6040518381527f3a64755f61c73ed1f60bd0a9660e9cb66aa01817ea10d5b44d216a3ff95cca0e906020015b60405180910390a3505050565b600033610e11858285611a72565b610e1c858585611aea565b60019150505b9392505050565b600082815260066020526040902060010154610e4481611557565b610e4e8383611b49565b50505050565b6001600160a01b0381163314610e7d5760405163334bd91960e11b815260040160405180910390fd5b610e878282611bdd565b505050565b6000610e9781611557565b610e9f611c4a565b50565b6000610eac61156e565b600080516020612f6a833981519152610ec481611557565b610ecd85611594565b610ed6856115b9565b610edf85611787565b6001600160a01b038316610ef1573392505b6000610efd8686611601565b9050610f0b84828789611c9c565b9695505050505050565b6040805180820190915260008152600080516020612f4a8339815191526020820152610f41813361173a565b6007548210610f635760405163a458994160e01b815260040160405180910390fd5b600060078381548110610f7857610f78612c1b565b906000526020600020906004020160030160006101000a81548160ff02191690831515021790555060078281548110610fb357610fb3612c1b565b600091825260208220600490910201546040516001600160a01b03909116917f8b35b417b16faa66c73c967944e5e1e2a14e1b75b0c047b18ac49c8e5f84799a91a25050565b6040805180820190915260008152600080516020612f4a8339815191526020820152611025813361173a565b610e9f611dbc565b60009182526006602090815260408084206001600160a01b0393909316845291905290205460ff1690565b60606004805461068690612c31565b61106f612593565b6040805160a08101918290529060089060059082845b81546001600160a01b03168152600190910190602001808311611085575050505050905090565b60006110b781611557565b60075482106110d95760405163a458994160e01b815260040160405180910390fd5b6001600783815481106110ee576110ee612c1b565b906000526020600020906004020160030160006101000a81548160ff0219169083151502179055506007828154811061112957611129612c1b565b600091825260208220600490910201546040516001600160a01b03909116917f532492ef4d4edd78444556c1b5038901e11c232361675fe6d5e6bea2f0864e1991a25050565b600033610717818585611aea565b61118561156e565b600080516020612f6a83398151915261119d81611557565b6111a685611594565b6111af856115b9565b6111b885611787565b6000600786815481106111cd576111cd612c1b565b600091825260208220600490910201546001600160a01b031691506111ef3390565b905085611211826001600160a01b031660009081526020819052604090205490565b1015611230576040516349986e7360e01b815260040160405180910390fd5b6001600160a01b0380831690636d9164c69086161561124f5785611251565b825b61127f8960078c8154811061126857611268612c1b565b906000526020600020906004020160020154611df9565b886040518463ffffffff1660e01b815260040161129e93929190612d58565b6020604051808303816000875af11580156112bd573d6000803e3d6000fd5b505050506040513d601f19601f820116820180604052508101906112e19190612d7c565b6113015760405163ee9684e760e01b815260048101889052602401610a99565b600061130e81600a612e82565b60025461131b9190612c81565b87601254600161132b9190612c81565b6113359190612e91565b61133f9190612ea8565b9050610aa28282898b611e4c565b6040805160808101825260008082526020820181905291810182905260608101919091526007828154811061138457611384612c1b565b600091825260209182902060408051608081018252600490930290910180546001600160a01b0316835260018101549383019390935260028301549082015260039091015460ff161515606082015292915050565b60006113e481611557565b610e878383611eef565b60008281526006602052604090206001015461140981611557565b610e4e8383611bdd565b60075460009081805b828110156107625760006007828154811061143957611439612c1b565b600091825260209182902060408051608081018252600490930290910180546001600160a01b03168352600181015493830193909352600283015490820181905260039092015460ff161515606082015291501580159061149b575080606001515b156115135780600001516001600160a01b031663e9ec2e996040518163ffffffff1660e01b8152600401602060405180830381865afa1580156114e2573d6000803e3d6000fd5b505050506040513d601f19601f820116820180604052508101906115069190612c94565b6115109084612c81565b92505b5060010161141c565b611524612593565b6040805160a081019182905290600d9060059082845b81548152602001906001019080831161153a575050505050905090565b610e9f813361218c565b610e8783838360016121c5565b60055460ff16156115925760405163d93c066560e01b815260040160405180910390fd5b565b6007548110610e9f576040516306796a2560e21b815260048101829052602401610a99565b600781815481106115cc576115cc612c1b565b906000526020600020906004020160010154421015610e9f57604051631744fd1760e21b815260048101829052602401610a99565b6000806007848154811061161757611617612c1b565b600091825260208220600490910201546001600160a01b031691505b60058110156116a357600084826005811061165057611650612c1b565b6020020151111561169b5761169b8285836005811061167157611671612c1b565b60200201516008846005811061168957611689612c1b565b01546001600160a01b03169190611a20565b600101611633565b5060405163b67d611d60e01b81526001600160a01b0382169063b67d611d906116d0908690600401612c0d565b6020604051808303816000875af11580156116ef573d6000803e3d6000fd5b505050506040513d601f19601f820116820180604052508101906117139190612c94565b9150816000036107625783836040516331ea9deb60e11b8152600401610a99929190612cad565b61174c8260005b60200201518261102d565b158015611761575061175f826001611741565b155b1561178357808260405163f4e014b360e01b8152600401610a99929190612eca565b5050565b6007818154811061179a5761179a612c1b565b600091825260209091206003600490920201015460ff16610e9f5760405163277d558560e21b815260048101829052602401610a99565b60008215806117e75750670de0b6b3a764000083115b15611805576040516397a41b9760e01b815260040160405180910390fd5b670de0b6b3a764000083036118eb576007848154811061182757611827612c1b565b906000526020600020906004020160020154905060006007858154811061185057611850612c1b565b9060005260206000209060040201600201819055506007848154811061187857611878612c1b565b6000918252602090912060049182020154604051632069ee2560e21b81526001600160a01b03909116916381a7b894916118b491869101612c0d565b600060405180830381600087803b1580156118ce57600080fd5b505af11580156118e2573d6000803e3d6000fd5b50505050610e22565b670de0b6b3a7640000836007868154811061190857611908612c1b565b9060005260206000209060040201600201546119249190612e91565b61192e9190612ea8565b9050806007858154811061194457611944612c1b565b906000526020600020906004020160020160008282546119649190612d45565b9091555050600780548590811061197d5761197d612c1b565b60009182526020909120600491820201546040516336c8b26360e11b81526001600160a01b0390911691636d9164c6916119bd9130918891889101612d58565b6020604051808303816000875af11580156119dc573d6000803e3d6000fd5b505050506040513d601f19601f82011682018060405250810190611a009190612d7c565b610e225760405163ee9684e760e01b815260048101859052602401610a99565b604080516001600160a01b038416602482015260448082018490528251808303909101815260649091019091526020810180516001600160e01b031663a9059cbb60e01b179052610e8790849061228c565b6001600160a01b038381166000908152600160209081526040808320938616835292905220546000198114610e4e5781811015611adb57604051637dc7a0d960e11b81526001600160a01b03841660048201526024810182905260448101839052606401610a99565b610e4e848484840360006121c5565b6001600160a01b038316611b1457604051634b637e8f60e11b815260006004820152602401610a99565b6001600160a01b038216611b3e5760405163ec442f0560e01b815260006004820152602401610a99565b610e878383836122ef565b6000611b55838361102d565b611bd55760008381526006602090815260408083206001600160a01b03861684529091529020805460ff19166001179055611b8d3390565b6001600160a01b0316826001600160a01b0316847f2f8788117e7eff1d82e926ec794901d17c78024a50270940304540a733656f0d60405160405180910390a450600161064b565b50600061064b565b6000611be9838361102d565b15611bd55760008381526006602090815260408083206001600160a01b0386168085529252808320805460ff1916905551339286917ff6391f5c32d9c69d2a47ea670b442974b53935d1edc7fd64eb21e047a839171b9190a450600161064b565b611c5261240c565b6005805460ff191690557f5db9ee0a495bf2e6ff9c91a7834c1ba4fdd244a5e8aa4e537bd38aeae4b073aa335b6040516001600160a01b03909116815260200160405180910390a1565b600080611ca860025490565b600003611cc757508390506103e8611cc261dead8261242f565b611d06565b601254611cd5906001612c81565b85611ce26000600a612e82565b600254611cef9190612c81565b611cf99190612e91565b611d039190612ea8565b91505b611d1986611d148385612d45565b61242f565b8160078481548110611d2d57611d2d612c1b565b90600052602060002090600402016002016000828254611d4d9190612c81565b925050819055508460126000828254611d669190612c81565b9250508190555082866001600160a01b03167fec70db0fe0953f98837766268f885b3606180ff33cd30ddde2d8e22ad653a0d0878786604051611dab93929190612f0b565b60405180910390a350949350505050565b611dc461156e565b6005805460ff191660011790557f62e78cea01bee320cd4e420270b5ea74000d11b0c9f74754ebdbfc544b05a258611c7f3390565b600081611e0e670de0b6b3a764000085612e91565b611e189190612ea8565b9050801580611e2e5750670de0b6b3a764000081115b1561064b57604051634aa3778b60e01b815260040160405180910390fd5b611e568483612465565b8160078281548110611e6a57611e6a612c1b565b90600052602060002090600402016002016000828254611e8a9190612d45565b925050819055508260126000828254611ea39190612d45565b909155505060405182815281906001600160a01b038616907f92ccf450a286a957af52509bc1c9939d1a6a481783e142e41e2499f0bb66ebc6906020015b60405180910390a350505050565b80518251141580611f01575081516005105b15611f1f576040516349552d5960e11b815260040160405180910390fd5b60005b6005811015610e875782518110156120ef57600060088260058110611f4957611f49612c1b565b015484516001600160a01b039091169150600090859084908110611f6f57611f6f612c1b565b60200260200101516001600160a01b031603611fa15760405163af7bbf6960e01b815260048101839052602401610a99565b828281518110611fb357611fb3612c1b565b6020026020010151600003611fde576040516314b23be160e01b815260048101839052602401610a99565b838281518110611ff057611ff0612c1b565b60200260200101516008836005811061200b5761200b612c1b565b0160006101000a8154816001600160a01b0302191690836001600160a01b0316021790555082828151811061204257612042612c1b565b6020026020010151600d836005811061205d5761205d612c1b565b0155835184908390811061207357612073612c1b565b60200260200101516001600160a01b0316827ff747b83f770806e3d1cf3aa94c1cbd9bebc565cd5a9fc5ec4668d7304321a86e8585815181106120b8576120b8612c1b565b6020026020010151846040516120e19291909182526001600160a01b0316602082015260400190565b60405180910390a350612184565b6000817ff747b83f770806e3d1cf3aa94c1cbd9bebc565cd5a9fc5ec4668d7304321a86e826008836005811061212757612127612c1b565b0154604080519283526001600160a01b0390911660208301520160405180910390a36008816005811061215c5761215c612c1b565b0180546001600160a01b0319169055600d816005811061217e5761217e612c1b565b01600090555b600101611f22565b612196828261102d565b6117835760405163e2517d3f60e01b81526001600160a01b038216600482015260248101839052604401610a99565b6001600160a01b0384166121ef5760405163e602df0560e01b815260006004820152602401610a99565b6001600160a01b03831661221957604051634a1406b160e11b815260006004820152602401610a99565b6001600160a01b0380851660009081526001602090815260408083209387168352929052208290558015610e4e57826001600160a01b0316846001600160a01b03167f8c5be1e5ebec7d5bd14f71427d1e84f3dd0314c0f7b2291e5b200ac8c7c3b92584604051611ee191815260200190565b60006122a16001600160a01b0384168361249b565b905080516000141580156122c65750808060200190518101906122c49190612d7c565b155b15610e8757604051635274afe760e01b81526001600160a01b0384166004820152602401610a99565b6001600160a01b03831661231a57806002600082825461230f9190612c81565b9091555061238c9050565b6001600160a01b0383166000908152602081905260409020548181101561236d5760405163391434e360e21b81526001600160a01b03851660048201526024810182905260448101839052606401610a99565b6001600160a01b03841660009081526020819052604090209082900390555b6001600160a01b0382166123a8576002805482900390556123c7565b6001600160a01b03821660009081526020819052604090208054820190555b816001600160a01b0316836001600160a01b03167fddf252ad1be2c89b69c2b068fc378daa952ba7f163c4a11628f55a4df523b3ef83604051610df691815260200190565b60055460ff1661159257604051638dfc202b60e01b815260040160405180910390fd5b6001600160a01b0382166124595760405163ec442f0560e01b815260006004820152602401610a99565b611783600083836122ef565b6001600160a01b03821661248f57604051634b637e8f60e11b815260006004820152602401610a99565b611783826000836122ef565b6060610e228383600084600080856001600160a01b031684866040516124c19190612f2d565b60006040518083038185875af1925050503d80600081146124fe576040519150601f19603f3d011682016040523d82523d6000602084013e612503565b606091505b5091509150610f0b8683836060826125235761251e8261256a565b610e22565b815115801561253a57506001600160a01b0384163b155b1561256357604051639996b31560e01b81526001600160a01b0385166004820152602401610a99565b5080610e22565b80511561257a5780518082602001fd5b604051630a12f52160e11b815260040160405180910390fd5b6040518060a001604052806005906020820280368337509192915050565b6000602082840312156125c357600080fd5b81356001600160e01b031981168114610e2257600080fd5b6000602082840312156125ed57600080fd5b5035919050565b60005b8381101561260f5781810151838201526020016125f7565b50506000910152565b60208152600082518060208401526126378160408501602087016125f4565b601f01601f19169190910160400192915050565b6001600160a01b0381168114610e9f57600080fd5b6000806040838503121561267357600080fd5b823561267e8161264b565b946020939093013593505050565b634e487b7160e01b600052604160045260246000fd5b604051601f8201601f1916810167ffffffffffffffff811182821017156126cb576126cb61268c565b604052919050565b600082601f8301126126e457600080fd5b60405160a0810181811067ffffffffffffffff821117156127075761270761268c565b6040528060a084018581111561271c57600080fd5b845b8181101561273657803583526020928301920161271e565b509195945050505050565b60008060c0838503121561275457600080fd5b8235915061276584602085016126d3565b90509250929050565b600067ffffffffffffffff8211156127885761278861268c565b5060051b60200190565b600082601f8301126127a357600080fd5b813560206127b86127b38361276e565b6126a2565b8083825260208201915060208460051b8701019350868411156127da57600080fd5b602086015b848110156127f657803583529183019183016127df565b509695505050505050565b6000806000806080858703121561281757600080fd5b843567ffffffffffffffff8082111561282f57600080fd5b61283b88838901612792565b95506020915060208701358181111561285357600080fd5b61285f89828a01612792565b9550506040870135935060608701358181111561287b57600080fd5b87019050601f8101881361288e57600080fd5b803561289c6127b38261276e565b8082825260208201915060a0602060a0850286010193508b8411156128c057600080fd5b6020850194505b838510156128e8576128d98c866126d3565b835293840193918501916128c7565b50979a9699509497505050505050565b6000806040838503121561290b57600080fd5b82356129168161264b565b915060208381013567ffffffffffffffff81111561293357600080fd5b8401601f8101861361294457600080fd5b80356129526127b38261276e565b81815260059190911b8201830190838101908883111561297157600080fd5b928401925b828410156129985783356129898161264b565b82529284019290840190612976565b80955050505050509250929050565b6000602082840312156129b957600080fd5b8135610e228161264b565b6000806000606084860312156129d957600080fd5b83356129e48161264b565b925060208401356129f48161264b565b929592945050506040919091013590565b60008060408385031215612a1857600080fd5b823591506020830135612a2a8161264b565b809150509250929050565b600080600060e08486031215612a4a57600080fd5b83359250612a5b85602086016126d3565b915060c0840135612a6b8161264b565b809150509250925092565b60a08101818360005b6005811015612aa75781516001600160a01b0316835260209283019290910190600101612a7f565b50505092915050565b6000806000806101008587031215612ac757600080fd5b8435935060208501359250612adf86604087016126d3565b915060e0850135612aef8161264b565b939692955090935050565b60008060408385031215612b0d57600080fd5b823567ffffffffffffffff80821115612b2557600080fd5b818501915085601f830112612b3957600080fd5b81356020612b496127b38361276e565b82815260059290921b84018101918181019089841115612b6857600080fd5b948201945b83861015612b8f578535612b808161264b565b82529482019490820190612b6d565b96505086013592505080821115612ba557600080fd5b50612bb285828601612792565b9150509250929050565b60008060408385031215612bcf57600080fd5b8235612bda8161264b565b91506020830135612a2a8161264b565b8060005b6005811015610e4e578151845260209384019390910190600101612bee565b60a0810161064b8284612bea565b634e487b7160e01b600052603260045260246000fd5b600181811c90821680612c4557607f821691505b602082108103612c6557634e487b7160e01b600052602260045260246000fd5b50919050565b634e487b7160e01b600052601160045260246000fd5b8082018082111561064b5761064b612c6b565b600060208284031215612ca657600080fd5b5051919050565b82815260c08101610e226020830184612bea565b60008151808452602080850194506020840160005b83811015612cfb5781516001600160a01b031687529582019590820190600101612cd6565b509495945050505050565b6001600160a01b0383168152604060208201819052600090612d2a90830184612cc1565b949350505050565b602081526000610e226020830184612cc1565b8181038181111561064b5761064b612c6b565b6001600160a01b03841681526020810183905260e08101612d2a6040830184612bea565b600060208284031215612d8e57600080fd5b81518015158114610e2257600080fd5b600181815b80851115612dd9578160001904821115612dbf57612dbf612c6b565b80851615612dcc57918102915b93841c9390800290612da3565b509250929050565b600082612df05750600161064b565b81612dfd5750600061064b565b8160018114612e135760028114612e1d57612e39565b600191505061064b565b60ff841115612e2e57612e2e612c6b565b50506001821b61064b565b5060208310610133831016604e8410600b8410161715612e5c575081810a61064b565b612e668383612d9e565b8060001904821115612e7a57612e7a612c6b565b029392505050565b6000610e2260ff841683612de1565b808202811582820484141761064b5761064b612c6b565b600082612ec557634e487b7160e01b600052601260045260246000fd5b500490565b6001600160a01b03831681526060810160208083018460005b6002811015612f0057815183529183019190830190600101612ee3565b505050509392505050565b83815260e08101612f1f6020830185612bea565b8260c0830152949350505050565b60008251612f3f8184602087016125f4565b919091019291505056febf233dd2aafeb4d50879c4aa5c81e96d92f6e6945c906a58f9f2d1c1631b4b267b765e0e932d348852a6f810bfa1ab891e259123f02db8cdcde614c570223357a26469706673582212208ad0799b58d7232a85c02cdcc4a009f7830d46bf6d8ae466a663ba8bdc25eb4564736f6c63430008160033",
  "linkReferences": {},
  "deployedLinkReferences": {}
}