{
  "_format": "hh-sol-artifact-1",
  "contractName": "ZunamiVotingToken",
  "sourceName": "contracts/staking/ZunamiVotingToken.sol",
  "abi": [
    {
      "inputs": [
        {
          "internalType": "address",
          "name": "defaultAdmin",
          "type": "address"
        }
      ],
      "stateMutability": "nonpayable",
      "type": "constructor"
    },
    {
      "inputs": [],
      "name": "AccessControlBadConfirmation",
      "type": "error"
    },
    {
      "inputs": [
        {
          "internalType": "address",
          "name": "account",
          "type": "address"
        },
        {
          "internalType": "bytes32",
          "name": "neededRole",
          "type": "bytes32"
        }
      ],
      "name": "AccessControlUnauthorizedAccount",
      "type": "error"
    },
    {
      "inputs": [],
      "name": "CheckpointUnorderedInsertion",
      "type": "error"
    },
    {
      "inputs": [],
      "name": "ECDSAInvalidSignature",
      "type": "error"
    },
    {
      "inputs": [
        {
          "internalType": "uint256",
          "name": "length",
          "type": "uint256"
        }
      ],
      "name": "ECDSAInvalidSignatureLength",
      "type": "error"
    },
    {
      "inputs": [
        {
          "internalType": "bytes32",
          "name": "s",
          "type": "bytes32"
        }
      ],
      "name": "ECDSAInvalidSignatureS",
      "type": "error"
    },
    {
      "inputs": [
        {
          "internalType": "uint256",
          "name": "increasedSupply",
          "type": "uint256"
        },
        {
          "internalType": "uint256",
          "name": "cap",
          "type": "uint256"
        }
      ],
      "name": "ERC20ExceededSafeSupply",
      "type": "error"
    },
    {
      "inputs": [
        {
          "internalType": "address",
          "name": "spender",
          "type": "address"
        },
        {
          "internalType": "uint256",
          "name": "allowance",
          "type": "uint256"
        },
        {
          "internalType": "uint256",
          "name": "needed",
          "type": "uint256"
        }
      ],
      "name": "ERC20InsufficientAllowance",
      "type": "error"
    },
    {
      "inputs": [
        {
          "internalType": "address",
          "name": "sender",
          "type": "address"
        },
        {
          "internalType": "uint256",
          "name": "balance",
          "type": "uint256"
        },
        {
          "internalType": "uint256",
          "name": "needed",
          "type": "uint256"
        }
      ],
      "name": "ERC20InsufficientBalance",
      "type": "error"
    },
    {
      "inputs": [
        {
          "internalType": "address",
          "name": "approver",
          "type": "address"
        }
      ],
      "name": "ERC20InvalidApprover",
      "type": "error"
    },
    {
      "inputs": [
        {
          "internalType": "address",
          "name": "receiver",
          "type": "address"
        }
      ],
      "name": "ERC20InvalidReceiver",
      "type": "error"
    },
    {
      "inputs": [
        {
          "internalType": "address",
          "name": "sender",
          "type": "address"
        }
      ],
      "name": "ERC20InvalidSender",
      "type": "error"
    },
    {
      "inputs": [
        {
          "internalType": "address",
          "name": "spender",
          "type": "address"
        }
      ],
      "name": "ERC20InvalidSpender",
      "type": "error"
    },
    {
      "inputs": [
        {
          "internalType": "uint256",
          "name": "deadline",
          "type": "uint256"
        }
      ],
      "name": "ERC2612ExpiredSignature",
      "type": "error"
    },
    {
      "inputs": [
        {
          "internalType": "address",
          "name": "signer",
          "type": "address"
        },
        {
          "internalType": "address",
          "name": "owner",
          "type": "address"
        }
      ],
      "name": "ERC2612InvalidSigner",
      "type": "error"
    },
    {
      "inputs": [
        {
          "internalType": "uint256",
          "name": "timepoint",
          "type": "uint256"
        },
        {
          "internalType": "uint48",
          "name": "clock",
          "type": "uint48"
        }
      ],
      "name": "ERC5805FutureLookup",
      "type": "error"
    },
    {
      "inputs": [],
      "name": "ERC6372InconsistentClock",
      "type": "error"
    },
    {
      "inputs": [
        {
          "internalType": "address",
          "name": "account",
          "type": "address"
        },
        {
          "internalType": "uint256",
          "name": "currentNonce",
          "type": "uint256"
        }
      ],
      "name": "InvalidAccountNonce",
      "type": "error"
    },
    {
      "inputs": [],
      "name": "InvalidShortString",
      "type": "error"
    },
    {
      "inputs": [
        {
          "internalType": "uint8",
          "name": "bits",
          "type": "uint8"
        },
        {
          "internalType": "uint256",
          "name": "value",
          "type": "uint256"
        }
      ],
      "name": "SafeCastOverflowedUintDowncast",
      "type": "error"
    },
    {
      "inputs": [
        {
          "internalType": "string",
          "name": "str",
          "type": "string"
        }
      ],
      "name": "StringTooLong",
      "type": "error"
    },
    {
      "inputs": [
        {
          "internalType": "uint256",
          "name": "expiry",
          "type": "uint256"
        }
      ],
      "name": "VotesExpiredSignature",
      "type": "error"
    },
    {
      "inputs": [],
      "name": "ZeroAddress",
      "type": "error"
    },
    {
      "anonymous": false,
      "inputs": [
        {
          "indexed": true,
          "internalType": "address",
          "name": "owner",
          "type": "address"
        },
        {
          "indexed": true,
          "internalType": "address",
          "name": "spender",
          "type": "address"
        },
        {
          "indexed": false,
          "internalType": "uint256",
          "name": "value",
          "type": "uint256"
        }
      ],
      "name": "Approval",
      "type": "event"
    },
    {
      "anonymous": false,
      "inputs": [
        {
          "indexed": true,
          "internalType": "address",
          "name": "delegator",
          "type": "address"
        },
        {
          "indexed": true,
          "internalType": "address",
          "name": "fromDelegate",
          "type": "address"
        },
        {
          "indexed": true,
          "internalType": "address",
          "name": "toDelegate",
          "type": "address"
        }
      ],
      "name": "DelegateChanged",
      "type": "event"
    },
    {
      "anonymous": false,
      "inputs": [
        {
          "indexed": true,
          "internalType": "address",
          "name": "delegate",
          "type": "address"
        },
        {
          "indexed": false,
          "internalType": "uint256",
          "name": "previousVotes",
          "type": "uint256"
        },
        {
          "indexed": false,
          "internalType": "uint256",
          "name": "newVotes",
          "type": "uint256"
        }
      ],
      "name": "DelegateVotesChanged",
      "type": "event"
    },
    {
      "anonymous": false,
      "inputs": [],
      "name": "EIP712DomainChanged",
      "type": "event"
    },
    {
      "anonymous": false,
      "inputs": [
        {
          "indexed": true,
          "internalType": "bytes32",
          "name": "role",
          "type": "bytes32"
        },
        {
          "indexed": true,
          "internalType": "bytes32",
          "name": "previousAdminRole",
          "type": "bytes32"
        },
        {
          "indexed": true,
          "internalType": "bytes32",
          "name": "newAdminRole",
          "type": "bytes32"
        }
      ],
      "name": "RoleAdminChanged",
      "type": "event"
    },
    {
      "anonymous": false,
      "inputs": [
        {
          "indexed": true,
          "internalType": "bytes32",
          "name": "role",
          "type": "bytes32"
        },
        {
          "indexed": true,
          "internalType": "address",
          "name": "account",
          "type": "address"
        },
        {
          "indexed": true,
          "internalType": "address",
          "name": "sender",
          "type": "address"
        }
      ],
      "name": "RoleGranted",
      "type": "event"
    },
    {
      "anonymous": false,
      "inputs": [
        {
          "indexed": true,
          "internalType": "bytes32",
          "name": "role",
          "type": "bytes32"
        },
        {
          "indexed": true,
          "internalType": "address",
          "name": "account",
          "type": "address"
        },
        {
          "indexed": true,
          "internalType": "address",
          "name": "sender",
          "type": "address"
        }
      ],
      "name": "RoleRevoked",
      "type": "event"
    },
    {
      "anonymous": false,
      "inputs": [
        {
          "indexed": true,
          "internalType": "address",
          "name": "from",
          "type": "address"
        },
        {
          "indexed": true,
          "internalType": "address",
          "name": "to",
          "type": "address"
        },
        {
          "indexed": false,
          "internalType": "uint256",
          "name": "value",
          "type": "uint256"
        }
      ],
      "name": "Transfer",
      "type": "event"
    },
    {
      "inputs": [],
      "name": "CLOCK_MODE",
      "outputs": [
        {
          "internalType": "string",
          "name": "",
          "type": "string"
        }
      ],
      "stateMutability": "view",
      "type": "function"
    },
    {
      "inputs": [],
      "name": "DEFAULT_ADMIN_ROLE",
      "outputs": [
        {
          "internalType": "bytes32",
          "name": "",
          "type": "bytes32"
        }
      ],
      "stateMutability": "view",
      "type": "function"
    },
    {
      "inputs": [],
      "name": "DOMAIN_SEPARATOR",
      "outputs": [
        {
          "internalType": "bytes32",
          "name": "",
          "type": "bytes32"
        }
      ],
      "stateMutability": "view",
      "type": "function"
    },
    {
      "inputs": [],
      "name": "ISSUER_ROLE",
      "outputs": [
        {
          "internalType": "bytes32",
          "name": "",
          "type": "bytes32"
        }
      ],
      "stateMutability": "view",
      "type": "function"
    },
    {
      "inputs": [
        {
          "internalType": "address",
          "name": "owner",
          "type": "address"
        },
        {
          "internalType": "address",
          "name": "spender",
          "type": "address"
        }
      ],
      "name": "allowance",
      "outputs": [
        {
          "internalType": "uint256",
          "name": "",
          "type": "uint256"
        }
      ],
      "stateMutability": "view",
      "type": "function"
    },
    {
      "inputs": [
        {
          "internalType": "address",
          "name": "spender",
          "type": "address"
        },
        {
          "internalType": "uint256",
          "name": "value",
          "type": "uint256"
        }
      ],
      "name": "approve",
      "outputs": [
        {
          "internalType": "bool",
          "name": "",
          "type": "bool"
        }
      ],
      "stateMutability": "nonpayable",
      "type": "function"
    },
    {
      "inputs": [
        {
          "internalType": "address",
          "name": "account",
          "type": "address"
        }
      ],
      "name": "balanceOf",
      "outputs": [
        {
          "internalType": "uint256",
          "name": "",
          "type": "uint256"
        }
      ],
      "stateMutability": "view",
      "type": "function"
    },
    {
      "inputs": [
        {
          "internalType": "uint256",
          "name": "amount",
          "type": "uint256"
        }
      ],
      "name": "burn",
      "outputs": [],
      "stateMutability": "nonpayable",
      "type": "function"
    },
    {
      "inputs": [
        {
          "internalType": "address",
          "name": "account",
          "type": "address"
        },
        {
          "internalType": "uint256",
          "name": "amount",
          "type": "uint256"
        }
      ],
      "name": "burnFrom",
      "outputs": [],
      "stateMutability": "nonpayable",
      "type": "function"
    },
    {
      "inputs": [
        {
          "internalType": "address",
          "name": "account",
          "type": "address"
        },
        {
          "internalType": "uint32",
          "name": "pos",
          "type": "uint32"
        }
      ],
      "name": "checkpoints",
      "outputs": [
        {
          "components": [
            {
              "internalType": "uint48",
              "name": "_key",
              "type": "uint48"
            },
            {
              "internalType": "uint208",
              "name": "_value",
              "type": "uint208"
            }
          ],
          "internalType": "struct Checkpoints.Checkpoint208",
          "name": "",
          "type": "tuple"
        }
      ],
      "stateMutability": "view",
      "type": "function"
    },
    {
      "inputs": [],
      "name": "clock",
      "outputs": [
        {
          "internalType": "uint48",
          "name": "",
          "type": "uint48"
        }
      ],
      "stateMutability": "view",
      "type": "function"
    },
    {
      "inputs": [],
      "name": "decimals",
      "outputs": [
        {
          "internalType": "uint8",
          "name": "",
          "type": "uint8"
        }
      ],
      "stateMutability": "view",
      "type": "function"
    },
    {
      "inputs": [
        {
          "internalType": "address",
          "name": "delegatee",
          "type": "address"
        }
      ],
      "name": "delegate",
      "outputs": [],
      "stateMutability": "nonpayable",
      "type": "function"
    },
    {
      "inputs": [
        {
          "internalType": "address",
          "name": "delegatee",
          "type": "address"
        },
        {
          "internalType": "uint256",
          "name": "nonce",
          "type": "uint256"
        },
        {
          "internalType": "uint256",
          "name": "expiry",
          "type": "uint256"
        },
        {
          "internalType": "uint8",
          "name": "v",
          "type": "uint8"
        },
        {
          "internalType": "bytes32",
          "name": "r",
          "type": "bytes32"
        },
        {
          "internalType": "bytes32",
          "name": "s",
          "type": "bytes32"
        }
      ],
      "name": "delegateBySig",
      "outputs": [],
      "stateMutability": "nonpayable",
      "type": "function"
    },
    {
      "inputs": [
        {
          "internalType": "address",
          "name": "account",
          "type": "address"
        }
      ],
      "name": "delegates",
      "outputs": [
        {
          "internalType": "address",
          "name": "",
          "type": "address"
        }
      ],
      "stateMutability": "view",
      "type": "function"
    },
    {
      "inputs": [],
      "name": "eip712Domain",
      "outputs": [
        {
          "internalType": "bytes1",
          "name": "fields",
          "type": "bytes1"
        },
        {
          "internalType": "string",
          "name": "name",
          "type": "string"
        },
        {
          "internalType": "string",
          "name": "version",
          "type": "string"
        },
        {
          "internalType": "uint256",
          "name": "chainId",
          "type": "uint256"
        },
        {
          "internalType": "address",
          "name": "verifyingContract",
          "type": "address"
        },
        {
          "internalType": "bytes32",
          "name": "salt",
          "type": "bytes32"
        },
        {
          "internalType": "uint256[]",
          "name": "extensions",
          "type": "uint256[]"
        }
      ],
      "stateMutability": "view",
      "type": "function"
    },
    {
      "inputs": [
        {
          "internalType": "uint256",
          "name": "timepoint",
          "type": "uint256"
        }
      ],
      "name": "getPastTotalSupply",
      "outputs": [
        {
          "internalType": "uint256",
          "name": "",
          "type": "uint256"
        }
      ],
      "stateMutability": "view",
      "type": "function"
    },
    {
      "inputs": [
        {
          "internalType": "address",
          "name": "account",
          "type": "address"
        },
        {
          "internalType": "uint256",
          "name": "timepoint",
          "type": "uint256"
        }
      ],
      "name": "getPastVotes",
      "outputs": [
        {
          "internalType": "uint256",
          "name": "",
          "type": "uint256"
        }
      ],
      "stateMutability": "view",
      "type": "function"
    },
    {
      "inputs": [
        {
          "internalType": "bytes32",
          "name": "role",
          "type": "bytes32"
        }
      ],
      "name": "getRoleAdmin",
      "outputs": [
        {
          "internalType": "bytes32",
          "name": "",
          "type": "bytes32"
        }
      ],
      "stateMutability": "view",
      "type": "function"
    },
    {
      "inputs": [
        {
          "internalType": "address",
          "name": "account",
          "type": "address"
        }
      ],
      "name": "getVotes",
      "outputs": [
        {
          "internalType": "uint256",
          "name": "",
          "type": "uint256"
        }
      ],
      "stateMutability": "view",
      "type": "function"
    },
    {
      "inputs": [
        {
          "internalType": "bytes32",
          "name": "role",
          "type": "bytes32"
        },
        {
          "internalType": "address",
          "name": "account",
          "type": "address"
        }
      ],
      "name": "grantRole",
      "outputs": [],
      "stateMutability": "nonpayable",
      "type": "function"
    },
    {
      "inputs": [
        {
          "internalType": "bytes32",
          "name": "role",
          "type": "bytes32"
        },
        {
          "internalType": "address",
          "name": "account",
          "type": "address"
        }
      ],
      "name": "hasRole",
      "outputs": [
        {
          "internalType": "bool",
          "name": "",
          "type": "bool"
        }
      ],
      "stateMutability": "view",
      "type": "function"
    },
    {
      "inputs": [
        {
          "internalType": "address",
          "name": "to",
          "type": "address"
        },
        {
          "internalType": "uint256",
          "name": "amount",
          "type": "uint256"
        }
      ],
      "name": "mint",
      "outputs": [],
      "stateMutability": "nonpayable",
      "type": "function"
    },
    {
      "inputs": [],
      "name": "name",
      "outputs": [
        {
          "internalType": "string",
          "name": "",
          "type": "string"
        }
      ],
      "stateMutability": "view",
      "type": "function"
    },
    {
      "inputs": [
        {
          "internalType": "address",
          "name": "owner",
          "type": "address"
        }
      ],
      "name": "nonces",
      "outputs": [
        {
          "internalType": "uint256",
          "name": "",
          "type": "uint256"
        }
      ],
      "stateMutability": "view",
      "type": "function"
    },
    {
      "inputs": [
        {
          "internalType": "address",
          "name": "account",
          "type": "address"
        }
      ],
      "name": "numCheckpoints",
      "outputs": [
        {
          "internalType": "uint32",
          "name": "",
          "type": "uint32"
        }
      ],
      "stateMutability": "view",
      "type": "function"
    },
    {
      "inputs": [
        {
          "internalType": "address",
          "name": "owner",
          "type": "address"
        },
        {
          "internalType": "address",
          "name": "spender",
          "type": "address"
        },
        {
          "internalType": "uint256",
          "name": "value",
          "type": "uint256"
        },
        {
          "internalType": "uint256",
          "name": "deadline",
          "type": "uint256"
        },
        {
          "internalType": "uint8",
          "name": "v",
          "type": "uint8"
        },
        {
          "internalType": "bytes32",
          "name": "r",
          "type": "bytes32"
        },
        {
          "internalType": "bytes32",
          "name": "s",
          "type": "bytes32"
        }
      ],
      "name": "permit",
      "outputs": [],
      "stateMutability": "nonpayable",
      "type": "function"
    },
    {
      "inputs": [
        {
          "internalType": "bytes32",
          "name": "role",
          "type": "bytes32"
        },
        {
          "internalType": "address",
          "name": "callerConfirmation",
          "type": "address"
        }
      ],
      "name": "renounceRole",
      "outputs": [],
      "stateMutability": "nonpayable",
      "type": "function"
    },
    {
      "inputs": [
        {
          "internalType": "bytes32",
          "name": "role",
          "type": "bytes32"
        },
        {
          "internalType": "address",
          "name": "account",
          "type": "address"
        }
      ],
      "name": "revokeRole",
      "outputs": [],
      "stateMutability": "nonpayable",
      "type": "function"
    },
    {
      "inputs": [
        {
          "internalType": "address",
          "name": "_updateCallback",
          "type": "address"
        }
      ],
      "name": "setUpdateCallback",
      "outputs": [],
      "stateMutability": "nonpayable",
      "type": "function"
    },
    {
      "inputs": [
        {
          "internalType": "bytes4",
          "name": "interfaceId",
          "type": "bytes4"
        }
      ],
      "name": "supportsInterface",
      "outputs": [
        {
          "internalType": "bool",
          "name": "",
          "type": "bool"
        }
      ],
      "stateMutability": "view",
      "type": "function"
    },
    {
      "inputs": [],
      "name": "symbol",
      "outputs": [
        {
          "internalType": "string",
          "name": "",
          "type": "string"
        }
      ],
      "stateMutability": "view",
      "type": "function"
    },
    {
      "inputs": [],
      "name": "totalSupply",
      "outputs": [
        {
          "internalType": "uint256",
          "name": "",
          "type": "uint256"
        }
      ],
      "stateMutability": "view",
      "type": "function"
    },
    {
      "inputs": [
        {
          "internalType": "address",
          "name": "to",
          "type": "address"
        },
        {
          "internalType": "uint256",
          "name": "value",
          "type": "uint256"
        }
      ],
      "name": "transfer",
      "outputs": [
        {
          "internalType": "bool",
          "name": "",
          "type": "bool"
        }
      ],
      "stateMutability": "nonpayable",
      "type": "function"
    },
    {
      "inputs": [
        {
          "internalType": "address",
          "name": "from",
          "type": "address"
        },
        {
          "internalType": "address",
          "name": "to",
          "type": "address"
        },
        {
          "internalType": "uint256",
          "name": "value",
          "type": "uint256"
        }
      ],
      "name": "transferFrom",
      "outputs": [
        {
          "internalType": "bool",
          "name": "",
          "type": "bool"
        }
      ],
      "stateMutability": "nonpayable",
      "type": "function"
    },
    {
      "inputs": [],
      "name": "updateCallback",
      "outputs": [
        {
          "internalType": "contract IERC20UpdateCallback",
          "name": "",
          "type": "address"
        }
      ],
      "stateMutability": "view",
      "type": "function"
    }
  ],
  "bytecode": "0x6101606040523480156200001257600080fd5b5060405162002993380380620029938339810160408190526200003591620002ed565b604051806040016040528060138152602001722d3ab730b6b4902b37ba34b733902a37b5b2b760691b81525080604051806040016040528060018152602001603160f81b815250604051806040016040528060138152602001722d3ab730b6b4902b37ba34b733902a37b5b2b760691b815250604051806040016040528060058152602001643b362d2aa760d91b8152508160039081620000d79190620003c6565b506004620000e68282620003c6565b50620000f891508390506006620001b6565b6101205262000109816007620001b6565b61014052815160208084019190912060e052815190820120610100524660a0526200019760e05161010051604080517f8b73c3c69bb8fe3d512ecc4cf759cc79239f7b179b0ffacaa9a75d522b39400f60208201529081019290925260608201524660808201523060a082015260009060c00160405160208183030381529060405280519060200120905090565b60805250503060c05250620001ae600082620001ef565b505062000508565b6000602083511015620001d657620001ce83620002a1565b9050620001e9565b81620001e38482620003c6565b5060ff90505b92915050565b60008281526005602090815260408083206001600160a01b038516845290915281205460ff16620002985760008381526005602090815260408083206001600160a01b03861684529091529020805460ff191660011790556200024f3390565b6001600160a01b0316826001600160a01b0316847f2f8788117e7eff1d82e926ec794901d17c78024a50270940304540a733656f0d60405160405180910390a4506001620001e9565b506000620001e9565b600080829050601f81511115620002d8578260405163305a27a960e01b8152600401620002cf919062000492565b60405180910390fd5b8051620002e582620004e3565b179392505050565b6000602082840312156200030057600080fd5b81516001600160a01b03811681146200031857600080fd5b9392505050565b634e487b7160e01b600052604160045260246000fd5b600181811c908216806200034a57607f821691505b6020821081036200036b57634e487b7160e01b600052602260045260246000fd5b50919050565b601f821115620003c1576000816000526020600020601f850160051c810160208610156200039c5750805b601f850160051c820191505b81811015620003bd57828155600101620003a8565b5050505b505050565b81516001600160401b03811115620003e257620003e26200031f565b620003fa81620003f3845462000335565b8462000371565b602080601f831160018114620004325760008415620004195750858301515b600019600386901b1c1916600185901b178555620003bd565b600085815260208120601f198616915b82811015620004635788860151825594840194600190910190840162000442565b5085821015620004825787850151600019600388901b60f8161c191681555b5050505050600190811b01905550565b60006020808352835180602085015260005b81811015620004c257858101830151858201604001528201620004a4565b506000604082860101526040601f19601f8301168501019250505092915050565b805160208083015191908110156200036b5760001960209190910360031b1b16919050565b60805160a05160c05160e0516101005161012051610140516124306200056360003960006111d0015260006111a301526000610ec801526000610ea001526000610dfb01526000610e2501526000610e4f01526124306000f3fe608060405234801561001057600080fd5b506004361061021c5760003560e01c806370a082311161012557806395d89b41116100ad578063c3cda5201161007c578063c3cda520146104d8578063d505accf146104eb578063d547741f146104fe578063dd62ed3e14610511578063f1127ed81461054a57600080fd5b806395d89b41146104a25780639ab24eb0146104aa578063a217fddf146104bd578063a9059cbb146104c557600080fd5b806384b0196e116100f457806384b0196e1461042f5780638e539e8c1461044a57806391d148541461045d57806391ddadf41461047057806395b8a42f1461048f57600080fd5b806370a08231146103cb57806379cc6790146103f45780637ecebe001461040757806382aefa241461041a57600080fd5b806336568abe116101a85780634bf5d7e9116101775780634bf5d7e914610331578063587cde1e146103395780635c19a95c1461037d57806368826a02146103905780636fcfff45146103a357600080fd5b806336568abe146102e55780633a46b1a8146102f857806340c10f191461030b57806342966c681461031e57600080fd5b806323b872dd116101ef57806323b872dd14610283578063248a9ca3146102965780632f2ff15d146102b9578063313ce567146102ce5780633644e515146102dd57600080fd5b806301ffc9a71461022157806306fdde0314610249578063095ea7b31461025e57806318160ddd14610271575b600080fd5b61023461022f366004611f7e565b610589565b60405190151581526020015b60405180910390f35b6102516105c0565b6040516102409190611fee565b61023461026c36600461201d565b610652565b6002545b604051908152602001610240565b610234610291366004612047565b61066a565b6102756102a4366004612083565b60009081526005602052604090206001015490565b6102cc6102c736600461209c565b61068e565b005b60405160128152602001610240565b6102756106b9565b6102cc6102f336600461209c565b6106c8565b61027561030636600461201d565b610700565b6102cc61031936600461201d565b610786565b6102cc61032c366004612083565b6107a8565b6102516107ce565b6103656103473660046120c8565b6001600160a01b039081166000908152600960205260409020541690565b6040516001600160a01b039091168152602001610240565b6102cc61038b3660046120c8565b610846565b600c54610365906001600160a01b031681565b6103b66103b13660046120c8565b610851565b60405163ffffffff9091168152602001610240565b6102756103d93660046120c8565b6001600160a01b031660009081526020819052604090205490565b6102cc61040236600461201d565b61085c565b6102756104153660046120c8565b610889565b6102756000805160206123db83398151915281565b610437610894565b60405161024097969594939291906120e3565b610275610458366004612083565b6108da565b61023461046b36600461209c565b610944565b61047861096f565b60405165ffffffffffff9091168152602001610240565b6102cc61049d3660046120c8565b610979565b6102516109db565b6102756104b83660046120c8565b6109ea565b610275600081565b6102346104d336600461201d565b610a1a565b6102cc6104e636600461218d565b610a28565b6102cc6104f93660046121e5565b610ae5565b6102cc61050c36600461209c565b610c1f565b61027561051f36600461224f565b6001600160a01b03918216600090815260016020908152604080832093909416825291909152205490565b61055d610558366004612279565b610c44565b60408051825165ffffffffffff1681526020928301516001600160d01b03169281019290925201610240565b60006001600160e01b03198216637965db0b60e01b14806105ba57506301ffc9a760e01b6001600160e01b03198316145b92915050565b6060600380546105cf906122b9565b80601f01602080910402602001604051908101604052809291908181526020018280546105fb906122b9565b80156106485780601f1061061d57610100808354040283529160200191610648565b820191906000526020600020905b81548152906001019060200180831161062b57829003601f168201915b5050505050905090565b600033610660818585610c69565b5060019392505050565b600033610678858285610c76565b610683858585610cee565b506001949350505050565b6000828152600560205260409020600101546106a981610d4d565b6106b38383610d5a565b50505050565b60006106c3610dee565b905090565b6001600160a01b03811633146106f15760405163334bd91960e11b815260040160405180910390fd5b6106fb8282610f19565b505050565b60008061070b61096f565b90508065ffffffffffff16831061074b57604051637669fc0f60e11b81526004810184905265ffffffffffff821660248201526044015b60405180910390fd5b61077561075784610f86565b6001600160a01b0386166000908152600a6020526040902090610fbd565b6001600160d01b0316949350505050565b6000805160206123db83398151915261079e81610d4d565b6106fb8383611073565b6000805160206123db8339815191526107c081610d4d565b6107ca33836110a9565b5050565b60606107d86110df565b65ffffffffffff166107e861096f565b65ffffffffffff161461080e576040516301bfc1c560e61b815260040160405180910390fd5b5060408051808201909152601d81527f6d6f64653d626c6f636b6e756d6265722666726f6d3d64656661756c74000000602082015290565b336107ca81836110ea565b60006105ba8261115c565b6000805160206123db83398151915261087481610d4d565b61087f833384610c76565b6106fb83836110a9565b60006105ba8261117e565b6000606080600080600060606108a861119c565b6108b06111c9565b60408051600080825260208201909252600f60f81b9b939a50919850469750309650945092509050565b6000806108e561096f565b90508065ffffffffffff16831061092057604051637669fc0f60e11b81526004810184905265ffffffffffff82166024820152604401610742565b61093461092c84610f86565b600b90610fbd565b6001600160d01b03169392505050565b60009182526005602090815260408084206001600160a01b0393909316845291905290205460ff1690565b60006106c36110df565b6000805160206123db83398151915261099181610d4d565b6001600160a01b0382166109b85760405163d92e233d60e01b815260040160405180910390fd5b50600c80546001600160a01b0319166001600160a01b0392909216919091179055565b6060600480546105cf906122b9565b6001600160a01b0381166000908152600a60205260408120610a0b906111f6565b6001600160d01b031692915050565b600033610660818585610cee565b83421115610a4c57604051632341d78760e11b815260048101859052602401610742565b604080517fe48329057bfd03d55e49b547132e39cffd9c1820ad7b9d4c5307691425d15adf60208201526001600160a01b038816918101919091526060810186905260808101859052600090610ac690610abe9060a0016040516020818303038152906040528051906020012061122f565b85858561125c565b9050610ad2818761128a565b610adc81886110ea565b50505050505050565b83421115610b095760405163313c898160e11b815260048101859052602401610742565b60007f6e71edae12b1b97f4d1f60370fef10105fa2faae0126114a169c64845d6126c9888888610b568c6001600160a01b0316600090815260086020526040902080546001810190915590565b6040805160208101969096526001600160a01b0394851690860152929091166060840152608083015260a082015260c0810186905260e0016040516020818303038152906040528051906020012090506000610bb18261122f565b90506000610bc18287878761125c565b9050896001600160a01b0316816001600160a01b031614610c08576040516325c0072360e11b81526001600160a01b0380831660048301528b166024820152604401610742565b610c138a8a8a610c69565b50505050505050505050565b600082815260056020526040902060010154610c3a81610d4d565b6106b38383610f19565b6040805180820190915260008082526020820152610c6283836112dd565b9392505050565b6106fb8383836001611313565b6001600160a01b0383811660009081526001602090815260408083209386168352929052205460001981146106b35781811015610cdf57604051637dc7a0d960e11b81526001600160a01b03841660048201526024810182905260448101839052606401610742565b6106b384848484036000611313565b6001600160a01b038316610d1857604051634b637e8f60e11b815260006004820152602401610742565b6001600160a01b038216610d425760405163ec442f0560e01b815260006004820152602401610742565b6106fb8383836113e8565b610d57813361145d565b50565b6000610d668383610944565b610de65760008381526005602090815260408083206001600160a01b03861684529091529020805460ff19166001179055610d9e3390565b6001600160a01b0316826001600160a01b0316847f2f8788117e7eff1d82e926ec794901d17c78024a50270940304540a733656f0d60405160405180910390a45060016105ba565b5060006105ba565b6000306001600160a01b037f000000000000000000000000000000000000000000000000000000000000000016148015610e4757507f000000000000000000000000000000000000000000000000000000000000000046145b15610e7157507f000000000000000000000000000000000000000000000000000000000000000090565b6106c3604080517f8b73c3c69bb8fe3d512ecc4cf759cc79239f7b179b0ffacaa9a75d522b39400f60208201527f0000000000000000000000000000000000000000000000000000000000000000918101919091527f000000000000000000000000000000000000000000000000000000000000000060608201524660808201523060a082015260009060c00160405160208183030381529060405280519060200120905090565b6000610f258383610944565b15610de65760008381526005602090815260408083206001600160a01b0386168085529252808320805460ff1916905551339286917ff6391f5c32d9c69d2a47ea670b442974b53935d1edc7fd64eb21e047a839171b9190a45060016105ba565b600065ffffffffffff821115610fb9576040516306dfcc6560e41b81526030600482015260248101839052604401610742565b5090565b81546000908181600581111561101c576000610fd884611496565b610fe29085612309565b60008881526020902090915081015465ffffffffffff908116908716101561100c5780915061101a565b61101781600161231c565b92505b505b600061102a8787858561157e565b905080156110655761104f87611041600184612309565b600091825260209091200190565b54600160301b90046001600160d01b0316611068565b60005b979650505050505050565b6001600160a01b03821661109d5760405163ec442f0560e01b815260006004820152602401610742565b6107ca600083836113e8565b6001600160a01b0382166110d357604051634b637e8f60e11b815260006004820152602401610742565b6107ca826000836113e8565b60006106c343610f86565b6001600160a01b0382811660008181526009602052604080822080548686166001600160a01b0319821681179092559151919094169392849290917f3134e8a2e6d97e929a7e54011ea5485d7d196dd5f0ba4d4ef95803e8e3fc257f9190a46106fb8183611157866115e0565b6115fe565b6001600160a01b0381166000908152600a60205260408120546105ba9061176a565b6001600160a01b0381166000908152600860205260408120546105ba565b60606106c37f0000000000000000000000000000000000000000000000000000000000000000600661179b565b60606106c37f0000000000000000000000000000000000000000000000000000000000000000600761179b565b805460009080156112265761121083611041600184612309565b54600160301b90046001600160d01b0316610c62565b60009392505050565b60006105ba61123c610dee565b8360405161190160f01b8152600281019290925260228201526042902090565b60008060008061126e88888888611846565b92509250925061127e8282611915565b50909695505050505050565b6001600160a01b03821660009081526008602052604090208054600181019091558181146106fb576040516301d4b62360e61b81526001600160a01b038416600482015260248101829052604401610742565b60408051808201909152600080825260208201526001600160a01b0383166000908152600a60205260409020610c6290836119ce565b6001600160a01b03841661133d5760405163e602df0560e01b815260006004820152602401610742565b6001600160a01b03831661136757604051634a1406b160e11b815260006004820152602401610742565b6001600160a01b03808516600090815260016020908152604080832093871683529290522082905580156106b357826001600160a01b0316846001600160a01b03167f8c5be1e5ebec7d5bd14f71427d1e84f3dd0314c0f7b2291e5b200ac8c7c3b925846040516113da91815260200190565b60405180910390a350505050565b6113f3838383611a3e565b600c54604051635a414a1160e11b81526001600160a01b0385811660048301528481166024830152604482018490529091169063b482942290606401600060405180830381600087803b15801561144957600080fd5b505af1158015610adc573d6000803e3d6000fd5b6114678282610944565b6107ca5760405163e2517d3f60e01b81526001600160a01b038216600482015260248101839052604401610742565b6000816000036114a857506000919050565b600060016114b584611aa5565b901c6001901b905060018184816114ce576114ce61232f565b048201901c905060018184816114e6576114e661232f565b048201901c905060018184816114fe576114fe61232f565b048201901c905060018184816115165761151661232f565b048201901c9050600181848161152e5761152e61232f565b048201901c905060018184816115465761154661232f565b048201901c9050600181848161155e5761155e61232f565b048201901c9050610c62818285816115785761157861232f565b04611b39565b60005b818310156115d85760006115958484611b4f565b60008781526020902090915065ffffffffffff86169082015465ffffffffffff1611156115c4578092506115d2565b6115cf81600161231c565b93505b50611581565b509392505050565b6001600160a01b0381166000908152602081905260408120546105ba565b816001600160a01b0316836001600160a01b0316141580156116205750600081115b156106fb576001600160a01b038316156116c8576001600160a01b0383166000908152600a60205260408120819061166390611b6a61165e86611b76565b611baa565b6001600160d01b031691506001600160d01b03169150846001600160a01b03167fdec2bacdd2f05b59de34da9b523dff8be42e5e38e818c82fdb0bae774387a72483836040516116bd929190918252602082015260400190565b60405180910390a250505b6001600160a01b038216156106fb576001600160a01b0382166000908152600a60205260408120819061170190611be361165e86611b76565b6001600160d01b031691506001600160d01b03169150836001600160a01b03167fdec2bacdd2f05b59de34da9b523dff8be42e5e38e818c82fdb0bae774387a724838360405161175b929190918252602082015260400190565b60405180910390a25050505050565b600063ffffffff821115610fb9576040516306dfcc6560e41b81526020600482015260248101839052604401610742565b606060ff83146117b5576117ae83611bef565b90506105ba565b8180546117c1906122b9565b80601f01602080910402602001604051908101604052809291908181526020018280546117ed906122b9565b801561183a5780601f1061180f5761010080835404028352916020019161183a565b820191906000526020600020905b81548152906001019060200180831161181d57829003601f168201915b505050505090506105ba565b600080807f7fffffffffffffffffffffffffffffff5d576e7357a4501ddfe92f46681b20a0841115611881575060009150600390508261190b565b604080516000808252602082018084528a905260ff891692820192909252606081018790526080810186905260019060a0016020604051602081039080840390855afa1580156118d5573d6000803e3d6000fd5b5050604051601f1901519150506001600160a01b0381166119015750600092506001915082905061190b565b9250600091508190505b9450945094915050565b600082600381111561192957611929612345565b03611932575050565b600182600381111561194657611946612345565b036119645760405163f645eedf60e01b815260040160405180910390fd5b600282600381111561197857611978612345565b036119995760405163fce698f760e01b815260048101829052602401610742565b60038260038111156119ad576119ad612345565b036107ca576040516335e2f38360e21b815260048101829052602401610742565b6040805180820190915260008082526020820152826000018263ffffffff16815481106119fd576119fd61235b565b60009182526020918290206040805180820190915291015465ffffffffffff81168252600160301b90046001600160d01b0316918101919091529392505050565b611a49838383611c2e565b6001600160a01b038316611a9a576000611a6260025490565b90506001600160d01b0380821115611a9757604051630e58ae9360e11b81526004810183905260248101829052604401610742565b50505b6106fb838383611d58565b600080608083901c15611aba57608092831c92015b604083901c15611acc57604092831c92015b602083901c15611ade57602092831c92015b601083901c15611af057601092831c92015b600883901c15611b0257600892831c92015b600483901c15611b1457600492831c92015b600283901c15611b2657600292831c92015b600183901c156105ba5760010192915050565b6000818310611b485781610c62565b5090919050565b6000611b5e6002848418612371565b610c629084841661231c565b6000610c628284612393565b60006001600160d01b03821115610fb9576040516306dfcc6560e41b815260d0600482015260248101839052604401610742565b600080611bd6611bb861096f565b611bce611bc4886111f6565b868863ffffffff16565b879190611dce565b915091505b935093915050565b6000610c6282846123ba565b60606000611bfc83611ddc565b604080516020808252818301909252919250600091906020820181803683375050509182525060208101929092525090565b6001600160a01b038316611c59578060026000828254611c4e919061231c565b90915550611ccb9050565b6001600160a01b03831660009081526020819052604090205481811015611cac5760405163391434e360e21b81526001600160a01b03851660048201526024810182905260448101839052606401610742565b6001600160a01b03841660009081526020819052604090209082900390555b6001600160a01b038216611ce757600280548290039055611d06565b6001600160a01b03821660009081526020819052604090208054820190555b816001600160a01b0316836001600160a01b03167fddf252ad1be2c89b69c2b068fc378daa952ba7f163c4a11628f55a4df523b3ef83604051611d4b91815260200190565b60405180910390a3505050565b6001600160a01b038316611d7a57611d77600b611be361165e84611b76565b50505b6001600160a01b038216611d9c57611d99600b611b6a61165e84611b76565b50505b6001600160a01b038381166000908152600960205260408082205485841683529120546106fb929182169116836115fe565b600080611bd6858585611e04565b600060ff8216601f8111156105ba57604051632cd44ac360e21b815260040160405180910390fd5b825460009081908015611f23576000611e2287611041600185612309565b60408051808201909152905465ffffffffffff808216808452600160301b9092046001600160d01b031660208401529192509087161015611e7657604051632520601d60e01b815260040160405180910390fd5b805165ffffffffffff808816911603611ec25784611e9988611041600186612309565b80546001600160d01b0392909216600160301b0265ffffffffffff909216919091179055611f13565b6040805180820190915265ffffffffffff80881682526001600160d01b0380881660208085019182528b54600181018d5560008d81529190912094519151909216600160301b029216919091179101555b602001519250839150611bdb9050565b50506040805180820190915265ffffffffffff80851682526001600160d01b0380851660208085019182528854600181018a5560008a815291822095519251909316600160301b029190931617920191909155905081611bdb565b600060208284031215611f9057600080fd5b81356001600160e01b031981168114610c6257600080fd5b6000815180845260005b81811015611fce57602081850181015186830182015201611fb2565b506000602082860101526020601f19601f83011685010191505092915050565b602081526000610c626020830184611fa8565b80356001600160a01b038116811461201857600080fd5b919050565b6000806040838503121561203057600080fd5b61203983612001565b946020939093013593505050565b60008060006060848603121561205c57600080fd5b61206584612001565b925061207360208501612001565b9150604084013590509250925092565b60006020828403121561209557600080fd5b5035919050565b600080604083850312156120af57600080fd5b823591506120bf60208401612001565b90509250929050565b6000602082840312156120da57600080fd5b610c6282612001565b60ff60f81b881681526000602060e0602084015261210460e084018a611fa8565b8381036040850152612116818a611fa8565b606085018990526001600160a01b038816608086015260a0850187905284810360c08601528551808252602080880193509091019060005b8181101561216a5783518352928401929184019160010161214e565b50909c9b505050505050505050505050565b803560ff8116811461201857600080fd5b60008060008060008060c087890312156121a657600080fd5b6121af87612001565b955060208701359450604087013593506121cb6060880161217c565b92506080870135915060a087013590509295509295509295565b600080600080600080600060e0888a03121561220057600080fd5b61220988612001565b965061221760208901612001565b955060408801359450606088013593506122336080890161217c565b925060a0880135915060c0880135905092959891949750929550565b6000806040838503121561226257600080fd5b61226b83612001565b91506120bf60208401612001565b6000806040838503121561228c57600080fd5b61229583612001565b9150602083013563ffffffff811681146122ae57600080fd5b809150509250929050565b600181811c908216806122cd57607f821691505b6020821081036122ed57634e487b7160e01b600052602260045260246000fd5b50919050565b634e487b7160e01b600052601160045260246000fd5b818103818111156105ba576105ba6122f3565b808201808211156105ba576105ba6122f3565b634e487b7160e01b600052601260045260246000fd5b634e487b7160e01b600052602160045260246000fd5b634e487b7160e01b600052603260045260246000fd5b60008261238e57634e487b7160e01b600052601260045260246000fd5b500490565b6001600160d01b038281168282160390808211156123b3576123b36122f3565b5092915050565b6001600160d01b038181168382160190808211156123b3576123b36122f356fe114e74f6ea3bd819998f78687bfcb11b140da08e9b7d222fa9c1f1ba1f2aa122a264697066735822122069709ed2343aed55dcf583c4fa20925ca0a55ae8b2933375de0df56c7feeba6564736f6c63430008160033",
  "linkReferences": {},
  "deployedLinkReferences": {}
}