{
  "_format": "hh-sol-artifact-1",
  "contractName": "CrvUsdOracle",
  "sourceName": "contracts/lib/Oracle/contracts/oracles/CrvUsdOracle.sol",
  "abi": [
    {
      "inputs": [
        {
          "internalType": "address",
          "name": "genericOracle_",
          "type": "address"
        }
      ],
      "stateMutability": "nonpayable",
      "type": "constructor"
    },
    {
      "inputs": [
        {
          "internalType": "address",
          "name": "token_",
          "type": "address"
        }
      ],
      "name": "getUSDPrice",
      "outputs": [
        {
          "internalType": "uint256",
          "name": "",
          "type": "uint256"
        }
      ],
      "stateMutability": "view",
      "type": "function"
    },
    {
      "inputs": [
        {
          "internalType": "address",
          "name": "token_",
          "type": "address"
        }
      ],
      "name": "isTokenSupported",
      "outputs": [
        {
          "internalType": "bool",
          "name": "",
          "type": "bool"
        }
      ],
      "stateMutability": "pure",
      "type": "function"
    }
  ],
  "bytecode": "0x60a060405234801561001057600080fd5b5060405161059f38038061059f83398101604081905261002f91610040565b6001600160a01b0316608052610070565b60006020828403121561005257600080fd5b81516001600160a01b038116811461006957600080fd5b9392505050565b60805161051461008b60003960006101e301526105146000f3fe608060405234801561001057600080fd5b50600436106100365760003560e01c806375151b631461003b5780638b2f0f4f14610080575b600080fd5b61006b61004936600461035d565b6001600160a01b031673f939e0a03fb07f59a73314e73794be0e57ac1b4e1490565b60405190151581526020015b60405180910390f35b61009361008e36600461035d565b6100a1565b604051908152602001610077565b600073f939e0a03fb07f59a73314e73794be0e57ac1b4e6001600160a01b038316146101095760405162461bcd60e51b81526020600482015260136024820152721d1bdad95b881b9bdd081cdd5c1c1bdc9d1959606a1b604482015260640160405180910390fd5b600061013d734dece678ceceb27446b35c672dc7d61f30bad69e73a0b86991c6218b36c1d19d4a2e9eb0ce3606eb486101bf565b9050600061017373390f3595bca2df7d23783dfd126427cceb997bf473dac17f958d2ee523a2206206994597c13d831ec76101bf565b905060006101a973ca978a0528116dda3cba9acd3e68bc6191ca53d0738e870d67f660d95d5be530380d0ec0bd388289e16101bf565b90506101b68383836102cb565b95945050505050565b604051638b2f0f4f60e01b81526001600160a01b03828116600483015260009182917f00000000000000000000000000000000000000000000000000000000000000001690638b2f0f4f90602401602060405180830381865afa15801561022a573d6000803e3d6000fd5b505050506040513d601f19601f8201168201806040525081019061024e9190610386565b90506000846001600160a01b03166386fc88d36040518163ffffffff1660e01b8152600401602060405180830381865afa158015610290573d6000803e3d6000fd5b505050506040513d601f19601f820116820180604052508101906102b49190610386565b90506102c0828261033b565b925050505b92915050565b60008284101580156102dd5750818411155b806102f357508184101580156102f35750828411155b156102ff575082610334565b83831015801561030f5750818311155b8061032557508183101580156103255750838311155b15610331575081610334565b50805b9392505050565b60006103496012600a610499565b61035383856104a5565b61033491906104bc565b60006020828403121561036f57600080fd5b81356001600160a01b038116811461033457600080fd5b60006020828403121561039857600080fd5b5051919050565b634e487b7160e01b600052601160045260246000fd5b600181815b808511156103f05781600019048211156103d6576103d661039f565b808516156103e357918102915b93841c93908002906103ba565b509250929050565b600082610407575060016102c5565b81610414575060006102c5565b816001811461042a576002811461043457610450565b60019150506102c5565b60ff8411156104455761044561039f565b50506001821b6102c5565b5060208310610133831016604e8410600b8410161715610473575081810a6102c5565b61047d83836103b5565b80600019048211156104915761049161039f565b029392505050565b600061033483836103f8565b80820281158282048414176102c5576102c561039f565b6000826104d957634e487b7160e01b600052601260045260246000fd5b50049056fea2646970667358221220fbe1b97a10bf67377d4be59eecd4f53deae7cc1ef3641400a6681759952cf57464736f6c63430008170033",
  "linkReferences": {},
  "deployedLinkReferences": {}
}