{
  "_format": "hh-sol-artifact-1",
  "contractName": "CurveRegistryCache",
  "sourceName": "contracts/lib/Oracle/contracts/CurveRegistryCache.sol",
  "abi": [
    {
      "inputs": [],
      "name": "BOOSTER",
      "outputs": [
        {
          "internalType": "contract IBooster",
          "name": "",
          "type": "address"
        }
      ],
      "stateMutability": "view",
      "type": "function"
    },
    {
      "inputs": [
        {
          "internalType": "address",
          "name": "pool_",
          "type": "address"
        }
      ],
      "name": "assetType",
      "outputs": [
        {
          "internalType": "enum CurvePoolUtils.AssetType",
          "name": "",
          "type": "uint8"
        }
      ],
      "stateMutability": "view",
      "type": "function"
    },
    {
      "inputs": [
        {
          "internalType": "address",
          "name": "pool_",
          "type": "address"
        }
      ],
      "name": "basePool",
      "outputs": [
        {
          "internalType": "address",
          "name": "",
          "type": "address"
        }
      ],
      "stateMutability": "view",
      "type": "function"
    },
    {
      "inputs": [
        {
          "internalType": "address",
          "name": "pool_",
          "type": "address"
        },
        {
          "internalType": "address",
          "name": "coin_",
          "type": "address"
        }
      ],
      "name": "coinIndex",
      "outputs": [
        {
          "internalType": "int128",
          "name": "",
          "type": "int128"
        }
      ],
      "stateMutability": "view",
      "type": "function"
    },
    {
      "inputs": [
        {
          "internalType": "address",
          "name": "pool_",
          "type": "address"
        },
        {
          "internalType": "address",
          "name": "from_",
          "type": "address"
        },
        {
          "internalType": "address",
          "name": "to_",
          "type": "address"
        }
      ],
      "name": "coinIndices",
      "outputs": [
        {
          "internalType": "int128",
          "name": "",
          "type": "int128"
        },
        {
          "internalType": "int128",
          "name": "",
          "type": "int128"
        },
        {
          "internalType": "bool",
          "name": "",
          "type": "bool"
        }
      ],
      "stateMutability": "view",
      "type": "function"
    },
    {
      "inputs": [
        {
          "internalType": "address",
          "name": "pool_",
          "type": "address"
        }
      ],
      "name": "coins",
      "outputs": [
        {
          "internalType": "address[]",
          "name": "",
          "type": "address[]"
        }
      ],
      "stateMutability": "view",
      "type": "function"
    },
    {
      "inputs": [
        {
          "internalType": "address",
          "name": "pool_",
          "type": "address"
        }
      ],
      "name": "decimals",
      "outputs": [
        {
          "internalType": "uint256[]",
          "name": "",
          "type": "uint256[]"
        }
      ],
      "stateMutability": "view",
      "type": "function"
    },
    {
      "inputs": [
        {
          "internalType": "address",
          "name": "pool_",
          "type": "address"
        },
        {
          "internalType": "address",
          "name": "coin_",
          "type": "address"
        }
      ],
      "name": "hasCoinAnywhere",
      "outputs": [
        {
          "internalType": "bool",
          "name": "",
          "type": "bool"
        }
      ],
      "stateMutability": "view",
      "type": "function"
    },
    {
      "inputs": [
        {
          "internalType": "address",
          "name": "pool_",
          "type": "address"
        },
        {
          "internalType": "address",
          "name": "coin_",
          "type": "address"
        }
      ],
      "name": "hasCoinDirectly",
      "outputs": [
        {
          "internalType": "bool",
          "name": "",
          "type": "bool"
        }
      ],
      "stateMutability": "view",
      "type": "function"
    },
    {
      "inputs": [
        {
          "internalType": "address",
          "name": "pool_",
          "type": "address"
        }
      ],
      "name": "initPool",
      "outputs": [],
      "stateMutability": "nonpayable",
      "type": "function"
    },
    {
      "inputs": [
        {
          "internalType": "address",
          "name": "pool_",
          "type": "address"
        }
      ],
      "name": "interfaceVersion",
      "outputs": [
        {
          "internalType": "uint256",
          "name": "",
          "type": "uint256"
        }
      ],
      "stateMutability": "view",
      "type": "function"
    },
    {
      "inputs": [
        {
          "internalType": "address",
          "name": "pool_",
          "type": "address"
        }
      ],
      "name": "isRegistered",
      "outputs": [
        {
          "internalType": "bool",
          "name": "",
          "type": "bool"
        }
      ],
      "stateMutability": "view",
      "type": "function"
    },
    {
      "inputs": [
        {
          "internalType": "uint256",
          "name": "pid_",
          "type": "uint256"
        }
      ],
      "name": "isShutdownPid",
      "outputs": [
        {
          "internalType": "bool",
          "name": "",
          "type": "bool"
        }
      ],
      "stateMutability": "view",
      "type": "function"
    },
    {
      "inputs": [
        {
          "internalType": "address",
          "name": "pool_",
          "type": "address"
        }
      ],
      "name": "lpToken",
      "outputs": [
        {
          "internalType": "address",
          "name": "",
          "type": "address"
        }
      ],
      "stateMutability": "view",
      "type": "function"
    },
    {
      "inputs": [
        {
          "internalType": "address",
          "name": "pool_",
          "type": "address"
        }
      ],
      "name": "nCoins",
      "outputs": [
        {
          "internalType": "uint256",
          "name": "",
          "type": "uint256"
        }
      ],
      "stateMutability": "view",
      "type": "function"
    },
    {
      "inputs": [
        {
          "internalType": "address",
          "name": "lpToken_",
          "type": "address"
        }
      ],
      "name": "poolFromLpToken",
      "outputs": [
        {
          "internalType": "address",
          "name": "",
          "type": "address"
        }
      ],
      "stateMutability": "view",
      "type": "function"
    }
  ],
  "bytecode": "0x608060405234801561001057600080fd5b5061160e806100206000396000f3fe608060405234801561001057600080fd5b50600436106100ff5760003560e01c80637d0f7a8811610097578063d449a83211610066578063d449a832146102a2578063e40ad8ca146102c2578063effd7081146102e2578063f7d372f1146102f557600080fd5b80637d0f7a8814610230578063b677560f14610250578063bf25d02a14610263578063c3c5a5471461027657600080fd5b80635fd5590a116100d35780635fd5590a146101b757806373a2d446146101ef57806375b0ffd11461020257806376a562a41461021d57600080fd5b8062eb8ba4146101045780631760eb5e1461012f57806339d8d3ca146101505780634060c02514610173575b600080fd5b610117610112366004611204565b61030a565b604051600f9190910b81526020015b60405180910390f35b61014261013d36600461123d565b61037d565b604051908152602001610126565b61016361015e366004611261565b6103d4565b6040519015158152602001610126565b61019f61018136600461123d565b6001600160a01b039081166000908152600960205260409020541690565b6040516001600160a01b039091168152602001610126565b6101ca6101c536600461127a565b610459565b60408051600f94850b81529290930b6020830152151591810191909152606001610126565b61019f6101fd36600461123d565b61052b565b61019f73f403c135812408bfbe8713b5a23a04b3d48aae3181565b61019f61022b36600461123d565b610585565b61024361023e36600461123d565b6105df565b60405161012691906112c5565b61016361025e366004611204565b610691565b61014261027136600461123d565b6106fb565b61016361028436600461123d565b6001600160a01b031660009081526020819052604090205460ff1690565b6102b56102b036600461123d565b610752565b6040516101269190611312565b6102d56102d036600461123d565b6107f9565b6040516101269190611360565b6101636102f0366004611204565b610853565b61030861030336600461123d565b6108bd565b005b6001600160a01b038216600090815260208190526040812054839060ff1661034d5760405162461bcd60e51b815260040161034490611388565b60405180910390fd5b50506001600160a01b039182166000908152600560209081526040808320939094168252919091522054600f0b90565b6001600160a01b038116600090815260208190526040812054829060ff166103b75760405162461bcd60e51b815260040161034490611388565b50506001600160a01b03166000908152600b602052604090205490565b604051631526fe2760e01b815260048101829052600090819073f403c135812408bfbe8713b5a23a04b3d48aae3190631526fe279060240160c060405180830381865afa158015610429573d6000803e3d6000fd5b505050506040513d601f19601f8201168201806040525081019061044d91906113e0565b98975050505050505050565b6001600160a01b03831660009081526020819052604081205481908190869060ff166104975760405162461bcd60e51b815260040161034490611388565b6001600160a01b0387811660008181526005602090815260408083208b861680855290835281842054958b1684528184205494845260028352818420908452909152902054600f92830b929190910b9060ff16801561051b57506001600160a01b03808a166000908152600260209081526040808320938b168352929052205460ff165b9350935093505093509350939050565b6001600160a01b038116600090815260208190526040812054829060ff166105655760405162461bcd60e51b815260040161034490611388565b50506001600160a01b039081166000908152600460205260409020541690565b6001600160a01b038116600090815260208190526040812054829060ff166105bf5760405162461bcd60e51b815260040161034490611388565b50506001600160a01b039081166000908152600160205260409020541690565b6001600160a01b038116600090815260208190526040902054606090829060ff1661061c5760405162461bcd60e51b815260040161034490611388565b6001600160a01b0383166000908152600760209081526040918290208054835181840281018401909452808452909183018282801561068457602002820191906000526020600020905b81546001600160a01b03168152600190910190602001808311610666575b5050505050915050919050565b6001600160a01b038216600090815260208190526040812054839060ff166106cb5760405162461bcd60e51b815260040161034490611388565b50506001600160a01b03918216600090815260026020908152604080832093909416825291909152205460ff1690565b6001600160a01b038116600090815260208190526040812054829060ff166107355760405162461bcd60e51b815260040161034490611388565b50506001600160a01b031660009081526006602052604090205490565b6001600160a01b038116600090815260208190526040902054606090829060ff1661078f5760405162461bcd60e51b815260040161034490611388565b6001600160a01b0383166000908152600860209081526040918290208054835181840281018401909452808452909183018282801561068457602002820191906000526020600020905b8154815260200190600101908083116107d9575050505050915050919050565b6001600160a01b038116600090815260208190526040812054829060ff166108335760405162461bcd60e51b815260040161034490611388565b50506001600160a01b03166000908152600a602052604090205460ff1690565b6001600160a01b038216600090815260208190526040812054839060ff1661088d5760405162461bcd60e51b815260040161034490611388565b50506001600160a01b03918216600090815260036020908152604080832093909416825291909152205460ff1690565b6108c6816108c9565b50565b6001600160a01b03811660009081526020819052604090205460ff16156108ed5750565b6108f681611033565b6109515760405162461bcd60e51b815260206004820152602660248201527f4375727665526567697374727943616368653a20696e76616c6964206375727660448201526519481c1bdbdb60d21b6064820152608401610344565b6001600160a01b038116600081815260208190526040808220805460ff1916600117905551633795104960e01b815260048101929092529073f98b45fa17de75fb1ad0e7afd971b0ca00e379fc90633795104990602401602060405180830381865afa1580156109c5573d6000803e3d6000fd5b505050506040513d601f19601f820116820180604052508101906109e99190611462565b6001600160a01b03838116600081815260016020908152604080832080549587166001600160a01b0319968716811790915583526009909152808220805490941683179093559151636f20d6dd60e01b815260048101919091529192509073f98b45fa17de75fb1ad0e7afd971b0ca00e379fc90636f20d6dd90602401602060405180830381865afa158015610a83573d6000803e3d6000fd5b505050506040513d601f19601f82011682018060405250810190610aa79190611462565b6001600160a01b03848116600090815260046020526040902080546001600160a01b031916918316918217905590915015610bc157610ae5816108c9565b6001600160a01b038116600090815260076020908152604080832080548251818502810185019093528083529192909190830182828015610b4f57602002820191906000526020600020905b81546001600160a01b03168152600190910190602001808311610b31575b5050505050905060005b8151811015610bbe576000828281518110610b7657610b7661147f565b6020908102919091018101516001600160a01b03808916600090815260038452604080822092909316815292529020805460ff19166001908117909155919091019050610b59565b50505b6040516319b4e59b60e21b81526001600160a01b038416600482015273f98b45fa17de75fb1ad0e7afd971b0ca00e379fc906366d3966c90602401602060405180830381865afa158015610c19573d6000803e3d6000fd5b505050506040513d601f19601f82011682018060405250810190610c3d9190611495565b6004811115610c4e57610c4e61134a565b6001600160a01b0384166000908152600a60205260409020805460ff19166001836004811115610c8057610c8061134a565b021790555060405163940494f160e01b81526001600160a01b038416600482015260009073f98b45fa17de75fb1ad0e7afd971b0ca00e379fc9063940494f190602401602060405180830381865afa158015610ce0573d6000803e3d6000fd5b505050506040513d601f19601f82011682018060405250810190610d049190611495565b604051639ac90d3d60e01b81526001600160a01b038616600482015290915060009073f98b45fa17de75fb1ad0e7afd971b0ca00e379fc90639ac90d3d9060240161010060405180830381865afa158015610d63573d6000803e3d6000fd5b505050506040513d601f19601f82011682018060405250810190610d8791906114fc565b6040516352b5155560e01b81526001600160a01b038716600482015290915060009073f98b45fa17de75fb1ad0e7afd971b0ca00e379fc906352b515559060240161010060405180830381865afa158015610de6573d6000803e3d6000fd5b505050506040513d601f19601f82011682018060405250810190610e0a9190611566565b905060008367ffffffffffffffff811115610e2757610e276114ae565b604051908082528060200260200182016040528015610e50578160200160208202803683370190505b50905060005b84811015610fd0576000848260088110610e7257610e7261147f565b602002015190506001600160a01b038116610ecf5760405162461bcd60e51b815260206004820181905260248201527f4375727665526567697374727943616368653a20696e76616c696420636f696e6044820152606401610344565b80838381518110610ee257610ee261147f565b6001600160a01b039283166020918202929092018101919091528a821660008181526002835260408082209486168083529484528082208054600160ff199182168117909255848452600386528284208785528652828420805490911690911790558282526005845280822094825293835283812080546fffffffffffffffffffffffffffffffff19166fffffffffffffffffffffffffffffffff88161790559081526008918290529190912090859084908110610fa257610fa261147f565b6020908102919091015182546001818101855560009485529290932090920191909155919091019050610e56565b506001600160a01b038716600090815260066020908152604080832087905560078252909120825161100492840190611175565b5061100e876110c1565b6001600160a01b039097166000908152600b6020526040902096909655505050505050565b6040516330cf540360e11b81526001600160a01b038216600482015260009073f98b45fa17de75fb1ad0e7afd971b0ca00e379fc9063619ea80690602401602060405180830381865afa9250505080156110aa575060408051601f3d908101601f191682019092526110a7918101906115bd565b60015b6110b657506000919050565b92915050565b919050565b600060046001600160a01b0383166000908152600a602052604090205460ff1660048111156110f2576110f261134a565b036110ff57506002919050565b604051634903b0d160e01b8152600060048201526001600160a01b03831690634903b0d190602401602060405180830381865afa925050508015611160575060408051601f3d908101601f1916820190925261115d91810190611495565b60015b61116c57506000919050565b50600192915050565b8280548282559060005260206000209081019282156111ca579160200282015b828111156111ca57825182546001600160a01b0319166001600160a01b03909116178255602090920191600190910190611195565b506111d69291506111da565b5090565b5b808211156111d657600081556001016111db565b6001600160a01b03811681146108c657600080fd5b6000806040838503121561121757600080fd5b8235611222816111ef565b91506020830135611232816111ef565b809150509250929050565b60006020828403121561124f57600080fd5b813561125a816111ef565b9392505050565b60006020828403121561127357600080fd5b5035919050565b60008060006060848603121561128f57600080fd5b833561129a816111ef565b925060208401356112aa816111ef565b915060408401356112ba816111ef565b809150509250925092565b6020808252825182820181905260009190848201906040850190845b818110156113065783516001600160a01b0316835292840192918401916001016112e1565b50909695505050505050565b6020808252825182820181905260009190848201906040850190845b818110156113065783518352928401929184019160010161132e565b634e487b7160e01b600052602160045260246000fd5b602081016005831061138257634e487b7160e01b600052602160045260246000fd5b91905290565b60208082526028908201527f4375727665526567697374727943616368653a20706f6f6c206e6f7420696e696040820152671d1a585b1a5e995960c21b606082015260800190565b805180151581146110bc57600080fd5b60008060008060008060c087890312156113f957600080fd5b8651611404816111ef565b6020880151909650611415816111ef565b6040880151909550611426816111ef565b6060880151909450611437816111ef565b6080880151909350611448816111ef565b915061145660a088016113d0565b90509295509295509295565b60006020828403121561147457600080fd5b815161125a816111ef565b634e487b7160e01b600052603260045260246000fd5b6000602082840312156114a757600080fd5b5051919050565b634e487b7160e01b600052604160045260246000fd5b604051610100810167ffffffffffffffff811182821017156114f657634e487b7160e01b600052604160045260246000fd5b60405290565b600061010080838503121561151057600080fd5b83601f84011261151f57600080fd5b6115276114c4565b90830190808583111561153957600080fd5b845b8381101561155c57805161154e816111ef565b83526020928301920161153b565b5095945050505050565b600061010080838503121561157a57600080fd5b83601f84011261158957600080fd5b6115916114c4565b9083019080858311156115a357600080fd5b845b8381101561155c5780518352602092830192016115a5565b6000602082840312156115cf57600080fd5b61125a826113d056fea264697066735822122097371a347290519cb4178059e7513190b68db3929cc72c23367375182a5168c864736f6c63430008160033",
  "linkReferences": {},
  "deployedLinkReferences": {}
}