{
  "_format": "hh-sol-artifact-1",
  "contractName": "CurveGaugeGauge",
  "sourceName": "contracts/tokenomics/distributor/gauges/CurveGaugeGauge.sol",
  "abi": [
    {
      "inputs": [
        {
          "internalType": "address",
          "name": "_token",
          "type": "address"
        },
        {
          "internalType": "address",
          "name": "_curveGauge",
          "type": "address"
        }
      ],
      "stateMutability": "nonpayable",
      "type": "constructor"
    },
    {
      "inputs": [
        {
          "internalType": "address",
          "name": "target",
          "type": "address"
        }
      ],
      "name": "AddressEmptyCode",
      "type": "error"
    },
    {
      "inputs": [
        {
          "internalType": "address",
          "name": "account",
          "type": "address"
        }
      ],
      "name": "AddressInsufficientBalance",
      "type": "error"
    },
    {
      "inputs": [],
      "name": "FailedInnerCall",
      "type": "error"
    },
    {
      "inputs": [
        {
          "internalType": "address",
          "name": "owner",
          "type": "address"
        }
      ],
      "name": "OwnableInvalidOwner",
      "type": "error"
    },
    {
      "inputs": [
        {
          "internalType": "address",
          "name": "account",
          "type": "address"
        }
      ],
      "name": "OwnableUnauthorizedAccount",
      "type": "error"
    },
    {
      "inputs": [
        {
          "internalType": "address",
          "name": "token",
          "type": "address"
        }
      ],
      "name": "SafeERC20FailedOperation",
      "type": "error"
    },
    {
      "anonymous": false,
      "inputs": [
        {
          "indexed": true,
          "internalType": "address",
          "name": "previousOwner",
          "type": "address"
        },
        {
          "indexed": true,
          "internalType": "address",
          "name": "newOwner",
          "type": "address"
        }
      ],
      "name": "OwnershipTransferStarted",
      "type": "event"
    },
    {
      "anonymous": false,
      "inputs": [
        {
          "indexed": true,
          "internalType": "address",
          "name": "previousOwner",
          "type": "address"
        },
        {
          "indexed": true,
          "internalType": "address",
          "name": "newOwner",
          "type": "address"
        }
      ],
      "name": "OwnershipTransferred",
      "type": "event"
    },
    {
      "inputs": [],
      "name": "CURVE_GAUGE",
      "outputs": [
        {
          "internalType": "contract ICurveGauge",
          "name": "",
          "type": "address"
        }
      ],
      "stateMutability": "view",
      "type": "function"
    },
    {
      "inputs": [],
      "name": "TOKEN",
      "outputs": [
        {
          "internalType": "contract IERC20",
          "name": "",
          "type": "address"
        }
      ],
      "stateMutability": "view",
      "type": "function"
    },
    {
      "inputs": [],
      "name": "WEEK",
      "outputs": [
        {
          "internalType": "uint256",
          "name": "",
          "type": "uint256"
        }
      ],
      "stateMutability": "view",
      "type": "function"
    },
    {
      "inputs": [],
      "name": "acceptOwnership",
      "outputs": [],
      "stateMutability": "nonpayable",
      "type": "function"
    },
    {
      "inputs": [
        {
          "internalType": "uint256",
          "name": "amount",
          "type": "uint256"
        }
      ],
      "name": "distribute",
      "outputs": [],
      "stateMutability": "nonpayable",
      "type": "function"
    },
    {
      "inputs": [],
      "name": "owner",
      "outputs": [
        {
          "internalType": "address",
          "name": "",
          "type": "address"
        }
      ],
      "stateMutability": "view",
      "type": "function"
    },
    {
      "inputs": [],
      "name": "pendingOwner",
      "outputs": [
        {
          "internalType": "address",
          "name": "",
          "type": "address"
        }
      ],
      "stateMutability": "view",
      "type": "function"
    },
    {
      "inputs": [],
      "name": "renounceOwnership",
      "outputs": [],
      "stateMutability": "nonpayable",
      "type": "function"
    },
    {
      "inputs": [
        {
          "internalType": "address",
          "name": "newOwner",
          "type": "address"
        }
      ],
      "name": "transferOwnership",
      "outputs": [],
      "stateMutability": "nonpayable",
      "type": "function"
    },
    {
      "inputs": [
        {
          "internalType": "contract IERC20",
          "name": "_token",
          "type": "address"
        }
      ],
      "name": "withdrawEmergency",
      "outputs": [],
      "stateMutability": "nonpayable",
      "type": "function"
    }
  ],
  "bytecode": "0x60c060405234801561001057600080fd5b50604051610b6f380380610b6f83398101604081905261002f916101a1565b338061005657604051631e4fbdf760e01b8152600060048201526024015b60405180910390fd5b61005f81610119565b506001600160a01b0382166100ab5760405162461bcd60e51b81526020600482015260126024820152715a65726f20746f6b656e206164647265737360701b604482015260640161004d565b6001600160a01b0380831660a05281166101075760405162461bcd60e51b815260206004820152601560248201527f5a65726f20726563656976657220616464726573730000000000000000000000604482015260640161004d565b6001600160a01b0316608052506101d4565b600180546001600160a01b031916905561013281610135565b50565b600080546001600160a01b038381166001600160a01b0319831681178455604051919092169283917f8be0079c531659141344cd1fd0a4f28419497f9722a3daafe3b4186f6b6457e09190a35050565b80516001600160a01b038116811461019c57600080fd5b919050565b600080604083850312156101b457600080fd5b6101bd83610185565b91506101cb60208401610185565b90509250929050565b60805160a05161095c6102136000396000818160fe015281816101fd015261025b01526000818160a80152818161021f0152610293015261095c6000f3fe608060405234801561001057600080fd5b506004361061009e5760003560e01c806391c05b0b1161006657806391c05b0b14610131578063a1c04f0e14610144578063e30c397814610157578063f2fde38b14610168578063f4359ce51461017b57600080fd5b806366f8b361146100a3578063715018a6146100e757806379ba5097146100f157806382bfefc8146100f95780638da5cb5b14610120575b600080fd5b6100ca7f000000000000000000000000000000000000000000000000000000000000000081565b6040516001600160a01b0390911681526020015b60405180910390f35b6100ef610193565b005b6100ef6101a7565b6100ca7f000000000000000000000000000000000000000000000000000000000000000081565b6000546001600160a01b03166100ca565b6100ef61013f366004610850565b6101f0565b6100ef61015236600461087e565b6102f2565b6001546001600160a01b03166100ca565b6100ef61017636600461087e565b610385565b61018562093a8081565b6040519081526020016100de565b61019b6103f6565b6101a56000610423565b565b60015433906001600160a01b031681146101e45760405163118cdaa760e01b81526001600160a01b03821660048201526024015b60405180910390fd5b6101ed81610423565b50565b6102446001600160a01b037f0000000000000000000000000000000000000000000000000000000000000000167f00000000000000000000000000000000000000000000000000000000000000008361043c565b6040516333b50aed60e01b81526001600160a01b037f0000000000000000000000000000000000000000000000000000000000000000811660048301526024820183905262093a8060448301527f000000000000000000000000000000000000000000000000000000000000000016906333b50aed90606401600060405180830381600087803b1580156102d757600080fd5b505af11580156102eb573d6000803e3d6000fd5b5050505050565b6102fa6103f6565b6040516370a0823160e01b81523060048201526000906001600160a01b038316906370a0823190602401602060405180830381865afa158015610341573d6000803e3d6000fd5b505050506040513d601f19601f82011682018060405250810190610365919061089b565b90508015610381576103816001600160a01b03831633836104cc565b5050565b61038d6103f6565b600180546001600160a01b0383166001600160a01b031990911681179091556103be6000546001600160a01b031690565b6001600160a01b03167f38d16b8cac22d99fc7c124b9cd0de2d3fa1faef420bfe791d8c362d765e2270060405160405180910390a350565b6000546001600160a01b031633146101a55760405163118cdaa760e01b81523360048201526024016101db565b600180546001600160a01b03191690556101ed81610530565b604051636eb1769f60e11b81523060048201526001600160a01b0383811660248301526000919085169063dd62ed3e90604401602060405180830381865afa15801561048c573d6000803e3d6000fd5b505050506040513d601f19601f820116820180604052508101906104b0919061089b565b90506104c684846104c185856108b4565b610580565b50505050565b6040516001600160a01b0383811660248301526044820183905261052b91859182169063a9059cbb906064015b604051602081830303815290604052915060e01b6020820180516001600160e01b03838183161783525050505061060c565b505050565b600080546001600160a01b038381166001600160a01b0319831681178455604051919092169283917f8be0079c531659141344cd1fd0a4f28419497f9722a3daafe3b4186f6b6457e09190a35050565b604080516001600160a01b038416602482015260448082018490528251808303909101815260649091019091526020810180516001600160e01b031663095ea7b360e01b1790526105d1848261066f565b6104c6576040516001600160a01b0384811660248301526000604483015261060691869182169063095ea7b3906064016104f9565b6104c684825b60006106216001600160a01b03841683610719565b9050805160001415801561064657508080602001905181019061064491906108d5565b155b1561052b57604051635274afe760e01b81526001600160a01b03841660048201526024016101db565b6000806000846001600160a01b03168460405161068c91906108f7565b6000604051808303816000865af19150503d80600081146106c9576040519150601f19603f3d011682016040523d82523d6000602084013e6106ce565b606091505b50915091508180156106f85750805115806106f85750808060200190518101906106f891906108d5565b801561070e57506000856001600160a01b03163b115b925050505b92915050565b60606107278383600061072e565b9392505050565b6060814710156107535760405163cd78605960e01b81523060048201526024016101db565b600080856001600160a01b0316848660405161076f91906108f7565b60006040518083038185875af1925050503d80600081146107ac576040519150601f19603f3d011682016040523d82523d6000602084013e6107b1565b606091505b50915091506107c18683836107cb565b9695505050505050565b6060826107e0576107db82610827565b610727565b81511580156107f757506001600160a01b0384163b155b1561082057604051639996b31560e01b81526001600160a01b03851660048201526024016101db565b5080610727565b8051156108375780518082602001fd5b604051630a12f52160e11b815260040160405180910390fd5b60006020828403121561086257600080fd5b5035919050565b6001600160a01b03811681146101ed57600080fd5b60006020828403121561089057600080fd5b813561072781610869565b6000602082840312156108ad57600080fd5b5051919050565b8082018082111561071357634e487b7160e01b600052601160045260246000fd5b6000602082840312156108e757600080fd5b8151801515811461072757600080fd5b6000825160005b8181101561091857602081860181015185830152016108fe565b50600092019182525091905056fea2646970667358221220264336da6804a1ba4430831e7621e1d674442761bc277980517beee42a96d7d864736f6c63430008170033",
  "linkReferences": {},
  "deployedLinkReferences": {}
}