{
  "_format": "hh-sol-artifact-1",
  "contractName": "CurveLPOracle",
  "sourceName": "contracts/lib/Oracle/contracts/oracles/CurveLPOracle.sol",
  "abi": [
    {
      "inputs": [
        {
          "internalType": "address",
          "name": "genericOracle",
          "type": "address"
        },
        {
          "internalType": "address",
          "name": "curveRegistryCache_",
          "type": "address"
        }
      ],
      "stateMutability": "nonpayable",
      "type": "constructor"
    },
    {
      "inputs": [
        {
          "internalType": "address",
          "name": "owner",
          "type": "address"
        }
      ],
      "name": "OwnableInvalidOwner",
      "type": "error"
    },
    {
      "inputs": [
        {
          "internalType": "address",
          "name": "account",
          "type": "address"
        }
      ],
      "name": "OwnableUnauthorizedAccount",
      "type": "error"
    },
    {
      "anonymous": false,
      "inputs": [
        {
          "indexed": true,
          "internalType": "address",
          "name": "token",
          "type": "address"
        },
        {
          "indexed": false,
          "internalType": "uint256",
          "name": "threshold",
          "type": "uint256"
        }
      ],
      "name": "ImbalanceThresholdUpdated",
      "type": "event"
    },
    {
      "anonymous": false,
      "inputs": [
        {
          "indexed": true,
          "internalType": "address",
          "name": "previousOwner",
          "type": "address"
        },
        {
          "indexed": true,
          "internalType": "address",
          "name": "newOwner",
          "type": "address"
        }
      ],
      "name": "OwnershipTransferStarted",
      "type": "event"
    },
    {
      "anonymous": false,
      "inputs": [
        {
          "indexed": true,
          "internalType": "address",
          "name": "previousOwner",
          "type": "address"
        },
        {
          "indexed": true,
          "internalType": "address",
          "name": "newOwner",
          "type": "address"
        }
      ],
      "name": "OwnershipTransferred",
      "type": "event"
    },
    {
      "inputs": [],
      "name": "acceptOwnership",
      "outputs": [],
      "stateMutability": "nonpayable",
      "type": "function"
    },
    {
      "inputs": [
        {
          "internalType": "address",
          "name": "token",
          "type": "address"
        }
      ],
      "name": "getUSDPrice",
      "outputs": [
        {
          "internalType": "uint256",
          "name": "",
          "type": "uint256"
        }
      ],
      "stateMutability": "view",
      "type": "function"
    },
    {
      "inputs": [
        {
          "internalType": "address",
          "name": "",
          "type": "address"
        }
      ],
      "name": "imbalanceThresholds",
      "outputs": [
        {
          "internalType": "uint256",
          "name": "",
          "type": "uint256"
        }
      ],
      "stateMutability": "view",
      "type": "function"
    },
    {
      "inputs": [
        {
          "internalType": "address",
          "name": "token",
          "type": "address"
        }
      ],
      "name": "isTokenSupported",
      "outputs": [
        {
          "internalType": "bool",
          "name": "",
          "type": "bool"
        }
      ],
      "stateMutability": "view",
      "type": "function"
    },
    {
      "inputs": [],
      "name": "owner",
      "outputs": [
        {
          "internalType": "address",
          "name": "",
          "type": "address"
        }
      ],
      "stateMutability": "view",
      "type": "function"
    },
    {
      "inputs": [],
      "name": "pendingOwner",
      "outputs": [
        {
          "internalType": "address",
          "name": "",
          "type": "address"
        }
      ],
      "stateMutability": "view",
      "type": "function"
    },
    {
      "inputs": [],
      "name": "renounceOwnership",
      "outputs": [],
      "stateMutability": "nonpayable",
      "type": "function"
    },
    {
      "inputs": [
        {
          "internalType": "address",
          "name": "token",
          "type": "address"
        },
        {
          "internalType": "uint256",
          "name": "threshold",
          "type": "uint256"
        }
      ],
      "name": "setImbalanceThreshold",
      "outputs": [],
      "stateMutability": "nonpayable",
      "type": "function"
    },
    {
      "inputs": [
        {
          "internalType": "address",
          "name": "newOwner",
          "type": "address"
        }
      ],
      "name": "transferOwnership",
      "outputs": [],
      "stateMutability": "nonpayable",
      "type": "function"
    }
  ],
  "bytecode": "0x60c06040523480156200001157600080fd5b50604051620017b1380380620017b183398101604081905262000034916200010a565b33806200005b57604051631e4fbdf760e01b81526000600482015260240160405180910390fd5b62000066816200007f565b506001600160a01b039182166080521660a05262000142565b600180546001600160a01b03191690556200009a816200009d565b50565b600080546001600160a01b038381166001600160a01b0319831681178455604051919092169283917f8be0079c531659141344cd1fd0a4f28419497f9722a3daafe3b4186f6b6457e09190a35050565b80516001600160a01b03811681146200010557600080fd5b919050565b600080604083850312156200011e57600080fd5b6200012983620000ed565b91506200013960208401620000ed565b90509250929050565b60805160a05161160a620001a76000396000818161026401528181610300015281816104c8015281816105990152818161062f015281816106c5015281816109fc01528181610be40152610c790152600081816103810152610811015261160a6000f3fe608060405234801561001057600080fd5b50600436106100935760003560e01c806379ba50971161006657806379ba50971461010b5780638b2f0f4f146101135780638da5cb5b14610126578063e30c39781461014b578063f2fde38b1461015c57600080fd5b806338726f08146100985780634b5a518e146100ad578063715018a6146100e057806375151b63146100e8575b600080fd5b6100ab6100a63660046111c9565b61016f565b005b6100cd6100bb3660046111f5565b60026020526000908152604090205481565b6040519081526020015b60405180910390f35b6100ab610222565b6100fb6100f63660046111f5565b610236565b60405190151581526020016100d7565b6100ab610456565b6100cd6101213660046111f5565b61049a565b6000546001600160a01b03165b6040516001600160a01b0390911681526020016100d7565b6001546001600160a01b0316610133565b6100ab61016a3660046111f5565b610b0b565b610177610b7c565b67016345785d8a00008111156101c95760405162461bcd60e51b81526020600482015260126024820152710e8d0e4cae6d0ded8c840e8dede40d0d2ced60731b60448201526064015b60405180910390fd5b6001600160a01b03821660008181526002602052604090819020839055517f7b718dc4e7c7ee990f859e57df5619938b679591799489da97280f53d0295439906102169084815260200190565b60405180910390a25050565b61022a610b7c565b6102346000610ba9565b565b60008061024283610bc2565b60405163c3c5a54760e01b81526001600160a01b0380831660048301529192507f00000000000000000000000000000000000000000000000000000000000000009091169063c3c5a54790602401602060405180830381865afa1580156102ad573d6000803e3d6000fd5b505050506040513d601f19601f820116820180604052508101906102d19190611212565b6102de5750600092915050565b604051630fa1ef5160e31b81526001600160a01b0382811660048301526000917f000000000000000000000000000000000000000000000000000000000000000090911690637d0f7a8890602401600060405180830381865afa158015610349573d6000803e3d6000fd5b505050506040513d6000823e601f3d908101601f19168201604052610371919081019061129f565b905060005b815181101561044b577f00000000000000000000000000000000000000000000000000000000000000006001600160a01b03166375151b638383815181106103c0576103c061133e565b60200260200101516040518263ffffffff1660e01b81526004016103f391906001600160a01b0391909116815260200190565b602060405180830381865afa158015610410573d6000803e3d6000fd5b505050506040513d601f19601f820116820180604052508101906104349190611212565b61044357506000949350505050565b600101610376565b506001949350505050565b60015433906001600160a01b0316811461048e5760405163118cdaa760e01b81526001600160a01b03821660048201526024016101c0565b61049781610ba9565b50565b6000806104a683610bc2565b60405163c3c5a54760e01b81526001600160a01b0380831660048301529192507f00000000000000000000000000000000000000000000000000000000000000009091169063c3c5a54790602401602060405180830381865afa158015610511573d6000803e3d6000fd5b505050506040513d601f19601f820116820180604052508101906105359190611212565b6105775760405162461bcd60e51b81526020600482015260136024820152721d1bdad95b881b9bdd081cdd5c1c1bdc9d1959606a1b60448201526064016101c0565b604051636a24d41960e11b81526001600160a01b0382811660048301526000917f00000000000000000000000000000000000000000000000000000000000000009091169063d449a83290602401600060405180830381865afa1580156105e2573d6000803e3d6000fd5b505050506040513d6000823e601f3d908101601f1916820160405261060a9190810190611354565b604051630fa1ef5160e31b81526001600160a01b0384811660048301529192506000917f00000000000000000000000000000000000000000000000000000000000000001690637d0f7a8890602401600060405180830381865afa158015610676573d6000803e3d6000fd5b505050506040513d6000823e601f3d908101601f1916820160405261069e919081019061129f565b604051635f92e81560e11b81526001600160a01b03858116600483015291925060009182917f00000000000000000000000000000000000000000000000000000000000000009091169063bf25d02a90602401602060405180830381865afa15801561070e573d6000803e3d6000fd5b505050506040513d601f19601f8201168201806040525081019061073291906113da565b905060008167ffffffffffffffff81111561074f5761074f611234565b604051908082528060200260200182016040528015610778578160200160208202803683370190505b50905060008267ffffffffffffffff81111561079657610796611234565b6040519080825280602002602001820160405280156107bf578160200160208202803683370190505b50905060005b838110156109bf5760008682815181106107e1576107e161133e565b6020908102919091010151604051638b2f0f4f60e01b81526001600160a01b0380831660048301529192506000917f00000000000000000000000000000000000000000000000000000000000000001690638b2f0f4f90602401602060405180830381865afa158015610858573d6000803e3d6000fd5b505050506040513d601f19601f8201168201806040525081019061087c91906113da565b9050808584815181106108915761089161133e565b602002602001018181525050600260008d6001600160a01b03166001600160a01b03168152602001908152602001600020548484815181106108d5576108d561133e565b6020026020010181815250506000811161091e5760405162461bcd60e51b815260206004820152600a6024820152690707269636520697320360b41b60448201526064016101c0565b600061092a8b85610c57565b90506000811161096b5760405162461bcd60e51b815260206004820152600c60248201526b062616c616e636520697320360a41b60448201526064016101c0565b6109a48261099e8c87815181106109845761098461133e565b6020026020010151601285610dcf9092919063ffffffff16565b90610e18565b6109ae9089611409565b975050600190920191506107c59050565b506040805160c0810182526001600160a01b03808a168083526020830187905283516372056c6560e11b81526004810191909152610a92938301917f0000000000000000000000000000000000000000000000000000000000000000169063e40ad8ca90602401602060405180830381865afa158015610a43573d6000803e3d6000fd5b505050506040513d601f19601f82011682018060405250810190610a67919061141c565b6004811115610a7857610a7861143d565b815260200188815260200184815260200183815250610e3a565b610afe896001600160a01b03166318160ddd6040518163ffffffff1660e01b8152600401602060405180830381865afa158015610ad3573d6000803e3d6000fd5b505050506040513d601f19601f82011682018060405250810190610af791906113da565b85906110b5565b9998505050505050505050565b610b13610b7c565b600180546001600160a01b0383166001600160a01b03199091168117909155610b446000546001600160a01b031690565b6001600160a01b03167f38d16b8cac22d99fc7c124b9cd0de2d3fa1faef420bfe791d8c362d765e2270060405160405180910390a350565b6000546001600160a01b031633146102345760405163118cdaa760e01b81523360048201526024016101c0565b600180546001600160a01b0319169055610497816110ce565b604051634060c02560e01b81526001600160a01b0382811660048301526000917f000000000000000000000000000000000000000000000000000000000000000090911690634060c02590602401602060405180830381865afa158015610c2d573d6000803e3d6000fd5b505050506040513d601f19601f82011682018060405250810190610c519190611453565b92915050565b604051630bb075af60e11b81526001600160a01b0383811660048301526000917f000000000000000000000000000000000000000000000000000000000000000090911690631760eb5e90602401602060405180830381865afa158015610cc2573d6000803e3d6000fd5b505050506040513d601f19601f82011682018060405250810190610ce691906113da565b600003610d5f5760405162cb501b60e31b8152600f83900b60048201526001600160a01b0384169063065a80d890602401602060405180830381865afa158015610d34573d6000803e3d6000fd5b505050506040513d601f19601f82011682018060405250810190610d5891906113da565b9050610c51565b604051634903b0d160e01b8152600481018390526001600160a01b03841690634903b0d190602401602060405180830381865afa158015610da4573d6000803e3d6000fd5b505050506040513d601f19601f82011682018060405250810190610dc891906113da565b9392505050565b60008160ff168360ff1603610de5575082610dc8565b8160ff168360ff161115610e0557610dfe84848461111e565b9050610dc8565b610e1084848461113f565b949350505050565b6000610e266012600a611554565b610e308385611560565b610dc89190611577565b60008160600151600081518110610e5357610e5361133e565b60200260200101519050600081600a610e6c9190611554565b905060008360800151600081518110610e8757610e8761133e565b602002602001015190506000600190505b84602001518110156110ae57600085606001518281518110610ebc57610ebc61133e565b60200260200101519050600086608001518381518110610ede57610ede61133e565b602002602001015190506000818587610ef79190611560565b610f019190611577565b90506000610f10828986610dcf565b9050600060048a604001516004811115610f2c57610f2c61143d565b03610fb257895160405163556d6e9f60e01b81526000600482015260248101889052604481018a90526001600160a01b039091169063556d6e9f90606401602060405180830381865afa158015610f87573d6000803e3d6000fd5b505050506040513d601f19601f82011682018060405250810190610fab91906113da565b9050611032565b8951604051635e0d443f60e01b815260006004820152600f88900b6024820152604481018a90526001600160a01b0390911690635e0d443f90606401602060405180830381865afa15801561100b573d6000803e3d6000fd5b505050506040513d601f19601f8201168201806040525081019061102f91906113da565b90505b61105a82828c60a00151898151811061104d5761104d61133e565b6020026020010151611160565b61109d5760405162461bcd60e51b81526020600482015260146024820152731c1bdbdb081a5cc81b9bdd0818985b185b98d95960621b60448201526064016101c0565b505060019093019250610e98915050565b5050505050565b6000816110c46012600a611554565b610e309085611560565b600080546001600160a01b038381166001600160a01b0319831681178455604051919092169283917f8be0079c531659141344cd1fd0a4f28419497f9722a3daafe3b4186f6b6457e09190a35050565b600061112a8284611599565b61113590600a6115b2565b610e109085611577565b600061114b8383611599565b61115690600a6115b2565b610e109085611560565b6000816000036111755766470de4df82000091505b8284111561119b57816111928561118c86826115c1565b906110b5565b11159050610dc8565b816111aa8461118c87826115c1565b1115949350505050565b6001600160a01b038116811461049757600080fd5b600080604083850312156111dc57600080fd5b82356111e7816111b4565b946020939093013593505050565b60006020828403121561120757600080fd5b8135610dc8816111b4565b60006020828403121561122457600080fd5b81518015158114610dc857600080fd5b634e487b7160e01b600052604160045260246000fd5b604051601f8201601f1916810167ffffffffffffffff8111828210171561127357611273611234565b604052919050565b600067ffffffffffffffff82111561129557611295611234565b5060051b60200190565b600060208083850312156112b257600080fd5b825167ffffffffffffffff8111156112c957600080fd5b8301601f810185136112da57600080fd5b80516112ed6112e88261127b565b61124a565b81815260059190911b8201830190838101908783111561130c57600080fd5b928401925b82841015611333578351611324816111b4565b82529284019290840190611311565b979650505050505050565b634e487b7160e01b600052603260045260246000fd5b6000602080838503121561136757600080fd5b825167ffffffffffffffff81111561137e57600080fd5b8301601f8101851361138f57600080fd5b805161139d6112e88261127b565b81815260059190911b820183019083810190878311156113bc57600080fd5b928401925b82841015611333578351825292840192908401906113c1565b6000602082840312156113ec57600080fd5b5051919050565b634e487b7160e01b600052601160045260246000fd5b80820180821115610c5157610c516113f3565b60006020828403121561142e57600080fd5b815160058110610dc857600080fd5b634e487b7160e01b600052602160045260246000fd5b60006020828403121561146557600080fd5b8151610dc8816111b4565b600181815b808511156114ab578160001904821115611491576114916113f3565b8085161561149e57918102915b93841c9390800290611475565b509250929050565b6000826114c257506001610c51565b816114cf57506000610c51565b81600181146114e557600281146114ef5761150b565b6001915050610c51565b60ff841115611500576115006113f3565b50506001821b610c51565b5060208310610133831016604e8410600b841016171561152e575081810a610c51565b6115388383611470565b806000190482111561154c5761154c6113f3565b029392505050565b6000610dc883836114b3565b8082028115828204841417610c5157610c516113f3565b60008261159457634e487b7160e01b600052601260045260246000fd5b500490565b60ff8281168282160390811115610c5157610c516113f3565b6000610dc860ff8416836114b3565b81810381811115610c5157610c516113f356fea2646970667358221220e2fabf383d6f08be67056ce44a7389b5768d041fcee5b490cb3dacfccb7cb85d64736f6c63430008160033",
  "linkReferences": {},
  "deployedLinkReferences": {}
}