{
  "_format": "hh-sol-artifact-1",
  "contractName": "FraxEthNativeConverter",
  "sourceName": "contracts/utils/FraxEthNativeConverter.sol",
  "abi": [
    {
      "inputs": [],
      "stateMutability": "nonpayable",
      "type": "constructor"
    },
    {
      "inputs": [
        {
          "internalType": "address",
          "name": "target",
          "type": "address"
        }
      ],
      "name": "AddressEmptyCode",
      "type": "error"
    },
    {
      "inputs": [
        {
          "internalType": "address",
          "name": "account",
          "type": "address"
        }
      ],
      "name": "AddressInsufficientBalance",
      "type": "error"
    },
    {
      "inputs": [],
      "name": "BrokenSlippage",
      "type": "error"
    },
    {
      "inputs": [],
      "name": "FailedInnerCall",
      "type": "error"
    },
    {
      "inputs": [
        {
          "internalType": "address",
          "name": "token",
          "type": "address"
        }
      ],
      "name": "SafeERC20FailedOperation",
      "type": "error"
    },
    {
      "inputs": [],
      "name": "WrongSlippage",
      "type": "error"
    },
    {
      "inputs": [],
      "name": "ETH_frxETH_POOL_WETH_ID",
      "outputs": [
        {
          "internalType": "int128",
          "name": "",
          "type": "int128"
        }
      ],
      "stateMutability": "view",
      "type": "function"
    },
    {
      "inputs": [],
      "name": "ETH_frxETH_POOL_frxETH_ID",
      "outputs": [
        {
          "internalType": "int128",
          "name": "",
          "type": "int128"
        }
      ],
      "stateMutability": "view",
      "type": "function"
    },
    {
      "inputs": [],
      "name": "SLIPPAGE_DENOMINATOR",
      "outputs": [
        {
          "internalType": "uint256",
          "name": "",
          "type": "uint256"
        }
      ],
      "stateMutability": "view",
      "type": "function"
    },
    {
      "inputs": [],
      "name": "defaultSlippage",
      "outputs": [
        {
          "internalType": "uint256",
          "name": "",
          "type": "uint256"
        }
      ],
      "stateMutability": "view",
      "type": "function"
    },
    {
      "inputs": [],
      "name": "fraxEthPool",
      "outputs": [
        {
          "internalType": "contract ICurvePool2",
          "name": "",
          "type": "address"
        }
      ],
      "stateMutability": "view",
      "type": "function"
    },
    {
      "inputs": [],
      "name": "frxETH",
      "outputs": [
        {
          "internalType": "contract IERC20",
          "name": "",
          "type": "address"
        }
      ],
      "stateMutability": "view",
      "type": "function"
    },
    {
      "inputs": [
        {
          "internalType": "bool",
          "name": "buyToken",
          "type": "bool"
        },
        {
          "internalType": "uint256",
          "name": "amount",
          "type": "uint256"
        },
        {
          "internalType": "uint256",
          "name": "slippage",
          "type": "uint256"
        }
      ],
      "name": "handle",
      "outputs": [
        {
          "internalType": "uint256",
          "name": "tokenAmount",
          "type": "uint256"
        }
      ],
      "stateMutability": "nonpayable",
      "type": "function"
    },
    {
      "inputs": [
        {
          "internalType": "bool",
          "name": "buyToken",
          "type": "bool"
        },
        {
          "internalType": "uint256",
          "name": "amount",
          "type": "uint256"
        }
      ],
      "name": "valuate",
      "outputs": [
        {
          "internalType": "uint256",
          "name": "valuation",
          "type": "uint256"
        }
      ],
      "stateMutability": "view",
      "type": "function"
    },
    {
      "inputs": [],
      "name": "weth",
      "outputs": [
        {
          "internalType": "contract IERC20",
          "name": "",
          "type": "address"
        }
      ],
      "stateMutability": "view",
      "type": "function"
    }
  ],
  "bytecode": "0x60a060405234801561001057600080fd5b50739c3b46c0ceb5b9e304fcd6d88fc50f7dd24b31bc608052608051610a3f61006760003960008181610121015281816101db015281816102b6015281816102dd015281816103d301526103fa0152610a3f6000f3fe608060405234801561001057600080fd5b50600436106100935760003560e01c80638859cb45116100665780638859cb451461011c578063a17a5ebf14610143578063ac9051141461014b578063bda72dbc14610154578063cf228d531461016757600080fd5b80631c297a3e146100985780633fc8cef3146100b85780635487404a146100eb578063565d3e6e14610101575b600080fd5b6100a0600181565b604051600f9190910b81526020015b60405180910390f35b6100d373c02aaa39b223fe8d0a0e5c4f27ead9083c756cc281565b6040516001600160a01b0390911681526020016100af565b6100f3603281565b6040519081526020016100af565b6100d3735e8422345238f34275888049021821e8e08caa1f81565b6100d37f000000000000000000000000000000000000000000000000000000000000000081565b6100a0600081565b6100f361271081565b6100f36101623660046108ce565b61017a565b6100f36101753660046108fa565b610284565b60008160000361018c5750600061027e565b60008361019a57600161019d565b60005b90506000846101ad5760006101b0565b60015b604051635e0d443f60e01b8152600f84810b600483015282900b6024820152604481018690529091507f00000000000000000000000000000000000000000000000000000000000000006001600160a01b031690635e0d443f90606401602060405180830381865afa15801561022a573d6000803e3d6000fd5b505050506040513d601f19601f8201168201806040525081019061024e919061092f565b925061025b8460006104d8565b83101561027b576040516385dfa92d60e01b815260040160405180910390fd5b50505b92915050565b600082600003610296575060006104d1565b83156103b9576102db73c02aaa39b223fe8d0a0e5c4f27ead9083c756cc27f00000000000000000000000000000000000000000000000000000000000000008561052b565b7f00000000000000000000000000000000000000000000000000000000000000006001600160a01b0316633df02124600060018661031988886104d8565b6040516001600160e01b031960e087901b168152600f94850b60048201529290930b6024830152604482015260648101919091526084016020604051808303816000875af115801561036f573d6000803e3d6000fd5b505050506040513d601f19601f82011682018060405250810190610393919061092f565b90506103b4735e8422345238f34275888049021821e8e08caa1f33836105bb565b6104d1565b6103f8735e8422345238f34275888049021821e8e08caa1f7f00000000000000000000000000000000000000000000000000000000000000008561052b565b7f00000000000000000000000000000000000000000000000000000000000000006001600160a01b0316633df02124600160008661043688886104d8565b6040516001600160e01b031960e087901b168152600f94850b60048201529290930b6024830152604482015260648101919091526084016020604051808303816000875af115801561048c573d6000803e3d6000fd5b505050506040513d601f19601f820116820180604052508101906104b0919061092f565b90506104d173c02aaa39b223fe8d0a0e5c4f27ead9083c756cc233836105bb565b9392505050565b60006127108211156104fd57604051633f6fccb560e01b815260040160405180910390fd5b8160000361050a57603291505b612710610517838261095e565b6105219085610971565b6104d19190610988565b604051636eb1769f60e11b81523060048201526001600160a01b0383811660248301526000919085169063dd62ed3e90604401602060405180830381865afa15801561057b573d6000803e3d6000fd5b505050506040513d601f19601f8201168201806040525081019061059f919061092f565b90506105b584846105b085856109aa565b61061f565b50505050565b6040516001600160a01b0383811660248301526044820183905261061a91859182169063a9059cbb906064015b604051602081830303815290604052915060e01b6020820180516001600160e01b0383818316178352505050506106ab565b505050565b604080516001600160a01b038416602482015260448082018490528251808303909101815260649091019091526020810180516001600160e01b031663095ea7b360e01b1790526106708482610713565b6105b5576040516001600160a01b038481166024830152600060448301526106a591869182169063095ea7b3906064016105e8565b6105b584825b60006106c06001600160a01b038416836107bb565b905080516000141580156106e55750808060200190518101906106e391906109bd565b155b1561061a57604051635274afe760e01b81526001600160a01b03841660048201526024015b60405180910390fd5b6000806000846001600160a01b03168460405161073091906109da565b6000604051808303816000865af19150503d806000811461076d576040519150601f19603f3d011682016040523d82523d6000602084013e610772565b606091505b509150915081801561079c57508051158061079c57508080602001905181019061079c91906109bd565b80156107b257506000856001600160a01b03163b115b95945050505050565b60606104d18383600084600080856001600160a01b031684866040516107e191906109da565b60006040518083038185875af1925050503d806000811461081e576040519150601f19603f3d011682016040523d82523d6000602084013e610823565b606091505b509150915061083386838361083d565b9695505050505050565b60608261084d576103b482610894565b815115801561086457506001600160a01b0384163b155b1561088d57604051639996b31560e01b81526001600160a01b038516600482015260240161070a565b50806104d1565b8051156108a45780518082602001fd5b604051630a12f52160e11b815260040160405180910390fd5b50565b80151581146108bd57600080fd5b600080604083850312156108e157600080fd5b82356108ec816108c0565b946020939093013593505050565b60008060006060848603121561090f57600080fd5b833561091a816108c0565b95602085013595506040909401359392505050565b60006020828403121561094157600080fd5b5051919050565b634e487b7160e01b600052601160045260246000fd5b8181038181111561027e5761027e610948565b808202811582820484141761027e5761027e610948565b6000826109a557634e487b7160e01b600052601260045260246000fd5b500490565b8082018082111561027e5761027e610948565b6000602082840312156109cf57600080fd5b81516104d1816108c0565b6000825160005b818110156109fb57602081860181015185830152016109e1565b50600092019182525091905056fea2646970667358221220aad4c52994997efa6366f5529d7b42c00e463674963cc044ee00fb61f702024864736f6c63430008170033",
  "linkReferences": {},
  "deployedLinkReferences": {}
}