{
  "_format": "hh-sol-artifact-1",
  "contractName": "GenericOracle",
  "sourceName": "contracts/lib/Oracle/contracts/oracles/GenericOracle.sol",
  "abi": [
    {
      "inputs": [],
      "stateMutability": "nonpayable",
      "type": "constructor"
    },
    {
      "inputs": [
        {
          "internalType": "address",
          "name": "owner",
          "type": "address"
        }
      ],
      "name": "OwnableInvalidOwner",
      "type": "error"
    },
    {
      "inputs": [
        {
          "internalType": "address",
          "name": "account",
          "type": "address"
        }
      ],
      "name": "OwnableUnauthorizedAccount",
      "type": "error"
    },
    {
      "inputs": [],
      "name": "ZeroAddress",
      "type": "error"
    },
    {
      "anonymous": false,
      "inputs": [
        {
          "indexed": false,
          "internalType": "address",
          "name": "token",
          "type": "address"
        },
        {
          "indexed": false,
          "internalType": "address",
          "name": "oracle",
          "type": "address"
        }
      ],
      "name": "CustomOracleAdded",
      "type": "event"
    },
    {
      "anonymous": false,
      "inputs": [
        {
          "indexed": true,
          "internalType": "address",
          "name": "previousOwner",
          "type": "address"
        },
        {
          "indexed": true,
          "internalType": "address",
          "name": "newOwner",
          "type": "address"
        }
      ],
      "name": "OwnershipTransferStarted",
      "type": "event"
    },
    {
      "anonymous": false,
      "inputs": [
        {
          "indexed": true,
          "internalType": "address",
          "name": "previousOwner",
          "type": "address"
        },
        {
          "indexed": true,
          "internalType": "address",
          "name": "newOwner",
          "type": "address"
        }
      ],
      "name": "OwnershipTransferred",
      "type": "event"
    },
    {
      "inputs": [],
      "name": "acceptOwnership",
      "outputs": [],
      "stateMutability": "nonpayable",
      "type": "function"
    },
    {
      "inputs": [
        {
          "internalType": "address",
          "name": "",
          "type": "address"
        }
      ],
      "name": "customOracles",
      "outputs": [
        {
          "internalType": "contract IOracle",
          "name": "",
          "type": "address"
        }
      ],
      "stateMutability": "view",
      "type": "function"
    },
    {
      "inputs": [
        {
          "internalType": "address",
          "name": "token",
          "type": "address"
        }
      ],
      "name": "getUSDPrice",
      "outputs": [
        {
          "internalType": "uint256",
          "name": "",
          "type": "uint256"
        }
      ],
      "stateMutability": "view",
      "type": "function"
    },
    {
      "inputs": [
        {
          "internalType": "address",
          "name": "curveLpOracle",
          "type": "address"
        },
        {
          "internalType": "address",
          "name": "chainlinkOracle",
          "type": "address"
        }
      ],
      "name": "initialize",
      "outputs": [],
      "stateMutability": "nonpayable",
      "type": "function"
    },
    {
      "inputs": [
        {
          "internalType": "address",
          "name": "token",
          "type": "address"
        }
      ],
      "name": "isTokenSupported",
      "outputs": [
        {
          "internalType": "bool",
          "name": "",
          "type": "bool"
        }
      ],
      "stateMutability": "view",
      "type": "function"
    },
    {
      "inputs": [],
      "name": "owner",
      "outputs": [
        {
          "internalType": "address",
          "name": "",
          "type": "address"
        }
      ],
      "stateMutability": "view",
      "type": "function"
    },
    {
      "inputs": [],
      "name": "pendingOwner",
      "outputs": [
        {
          "internalType": "address",
          "name": "",
          "type": "address"
        }
      ],
      "stateMutability": "view",
      "type": "function"
    },
    {
      "inputs": [],
      "name": "renounceOwnership",
      "outputs": [],
      "stateMutability": "nonpayable",
      "type": "function"
    },
    {
      "inputs": [
        {
          "internalType": "address",
          "name": "token",
          "type": "address"
        },
        {
          "internalType": "address",
          "name": "oracle",
          "type": "address"
        }
      ],
      "name": "setCustomOracle",
      "outputs": [],
      "stateMutability": "nonpayable",
      "type": "function"
    },
    {
      "inputs": [
        {
          "internalType": "address",
          "name": "newOwner",
          "type": "address"
        }
      ],
      "name": "transferOwnership",
      "outputs": [],
      "stateMutability": "nonpayable",
      "type": "function"
    }
  ],
  "bytecode": "0x608060405234801561001057600080fd5b50338061003757604051631e4fbdf760e01b81526000600482015260240160405180910390fd5b61004081610046565b506100b2565b600180546001600160a01b031916905561005f81610062565b50565b600080546001600160a01b038381166001600160a01b0319831681178455604051919092169283917f8be0079c531659141344cd1fd0a4f28419497f9722a3daafe3b4186f6b6457e09190a35050565b610858806100c16000396000f3fe608060405234801561001057600080fd5b506004361061009e5760003560e01c80637c4be525116100665780637c4be525146101035780638b2f0f4f146101445780638da5cb5b14610165578063e30c397814610176578063f2fde38b1461018757600080fd5b8063485cc955146100a357806367b7b289146100b8578063715018a6146100cb57806375151b63146100d357806379ba5097146100fb575b600080fd5b6100b66100b1366004610792565b61019a565b005b6100b66100c6366004610792565b6102d3565b6100b6610394565b6100e66100e13660046107c5565b6103a8565b60405190151581526020015b60405180910390f35b6100b66104b7565b61012c6101113660046107c5565b6002602052600090815260409020546001600160a01b031681565b6040516001600160a01b0390911681526020016100f2565b6101576101523660046107c5565b6104fb565b6040519081526020016100f2565b6000546001600160a01b031661012c565b6001546001600160a01b031661012c565b6100b66101953660046107c5565b610674565b6101a26106e5565b6001600160a01b0382166101fd5760405162461bcd60e51b815260206004820152601a60248201527f63757276654c704f7261636c65207a65726f206164647265737300000000000060448201526064015b60405180910390fd5b6001600160a01b0381166102535760405162461bcd60e51b815260206004820152601c60248201527f636861696e6c696e6b4f7261636c65207a65726f20616464726573730000000060448201526064016101f4565b6004546001600160a01b0316156102a25760405162461bcd60e51b8152602060048201526013602482015272185b1c9958591e481a5b9a5d1a585b1a5e9959606a1b60448201526064016101f4565b600380546001600160a01b039283166001600160a01b03199182161790915560048054939092169216919091179055565b6102db6106e5565b6001600160a01b0382166103025760405163d92e233d60e01b815260040160405180910390fd5b6001600160a01b0381166103295760405163d92e233d60e01b815260040160405180910390fd5b6001600160a01b0382811660008181526002602090815260409182902080546001600160a01b031916948616948517905581519283528201929092527f1b4b9cd5d281236804584b516042a4e440806fdd4d36fe010c13c54c9544f292910160405180910390a15050565b61039c6106e5565b6103a66000610712565b565b6001600160a01b0381811660009081526002602052604081205490911615158061043b57506003546040516375151b6360e01b81526001600160a01b038481166004830152909116906375151b6390602401602060405180830381865afa158015610417573d6000803e3d6000fd5b505050506040513d601f19601f8201168201806040525081019061043b91906107e7565b806104b15750600480546040516375151b6360e01b81526001600160a01b03858116938201939093529116906375151b6390602401602060405180830381865afa15801561048d573d6000803e3d6000fd5b505050506040513d601f19601f820116820180604052508101906104b191906107e7565b92915050565b60015433906001600160a01b031681146104ef5760405163118cdaa760e01b81526001600160a01b03821660048201526024016101f4565b6104f881610712565b50565b6003546040516375151b6360e01b81526001600160a01b03838116600483015260009216906375151b6390602401602060405180830381865afa158015610546573d6000803e3d6000fd5b505050506040513d601f19601f8201168201806040525081019061056a91906107e7565b156105de57600354604051638b2f0f4f60e01b81526001600160a01b03848116600483015290911690638b2f0f4f906024015b602060405180830381865afa1580156105ba573d6000803e3d6000fd5b505050506040513d601f19601f820116820180604052508101906104b19190610809565b6001600160a01b038281166000908152600260205260409020541615610640576001600160a01b0382811660008181526002602052604090819020549051638b2f0f4f60e01b8152600481019290925290911690638b2f0f4f9060240161059d565b60048054604051638b2f0f4f60e01b81526001600160a01b0385811693820193909352911690638b2f0f4f9060240161059d565b61067c6106e5565b600180546001600160a01b0383166001600160a01b031990911681179091556106ad6000546001600160a01b031690565b6001600160a01b03167f38d16b8cac22d99fc7c124b9cd0de2d3fa1faef420bfe791d8c362d765e2270060405160405180910390a350565b6000546001600160a01b031633146103a65760405163118cdaa760e01b81523360048201526024016101f4565b600180546001600160a01b03191690556104f881600080546001600160a01b038381166001600160a01b0319831681178455604051919092169283917f8be0079c531659141344cd1fd0a4f28419497f9722a3daafe3b4186f6b6457e09190a35050565b80356001600160a01b038116811461078d57600080fd5b919050565b600080604083850312156107a557600080fd5b6107ae83610776565b91506107bc60208401610776565b90509250929050565b6000602082840312156107d757600080fd5b6107e082610776565b9392505050565b6000602082840312156107f957600080fd5b815180151581146107e057600080fd5b60006020828403121561081b57600080fd5b505191905056fea2646970667358221220e6f30022c017912e7e325e273c2760cada61b1a9ed43aa5ff62a2153ea8acc7d64736f6c63430008160033",
  "linkReferences": {},
  "deployedLinkReferences": {}
}