{
  "_format": "hh-sol-artifact-1",
  "contractName": "RewardViewer",
  "sourceName": "contracts/view/RewardViewer.sol",
  "abi": [
    {
      "inputs": [
        {
          "internalType": "address",
          "name": "_fraxStakingVaultEarnedViewerAddress",
          "type": "address"
        }
      ],
      "stateMutability": "nonpayable",
      "type": "constructor"
    },
    {
      "inputs": [
        {
          "internalType": "address",
          "name": "owner",
          "type": "address"
        }
      ],
      "name": "OwnableInvalidOwner",
      "type": "error"
    },
    {
      "inputs": [
        {
          "internalType": "address",
          "name": "account",
          "type": "address"
        }
      ],
      "name": "OwnableUnauthorizedAccount",
      "type": "error"
    },
    {
      "inputs": [],
      "name": "ZeroAddress",
      "type": "error"
    },
    {
      "anonymous": false,
      "inputs": [
        {
          "indexed": true,
          "internalType": "address",
          "name": "previousOwner",
          "type": "address"
        },
        {
          "indexed": true,
          "internalType": "address",
          "name": "newOwner",
          "type": "address"
        }
      ],
      "name": "OwnershipTransferStarted",
      "type": "event"
    },
    {
      "anonymous": false,
      "inputs": [
        {
          "indexed": true,
          "internalType": "address",
          "name": "previousOwner",
          "type": "address"
        },
        {
          "indexed": true,
          "internalType": "address",
          "name": "newOwner",
          "type": "address"
        }
      ],
      "name": "OwnershipTransferred",
      "type": "event"
    },
    {
      "anonymous": false,
      "inputs": [
        {
          "indexed": false,
          "internalType": "address",
          "name": "_address",
          "type": "address"
        }
      ],
      "name": "SetFraxStakingVaultEarnedViewer",
      "type": "event"
    },
    {
      "inputs": [],
      "name": "CRV",
      "outputs": [
        {
          "internalType": "contract IERC20",
          "name": "",
          "type": "address"
        }
      ],
      "stateMutability": "view",
      "type": "function"
    },
    {
      "inputs": [],
      "name": "CVX",
      "outputs": [
        {
          "internalType": "contract IERC20",
          "name": "",
          "type": "address"
        }
      ],
      "stateMutability": "view",
      "type": "function"
    },
    {
      "inputs": [],
      "name": "acceptOwnership",
      "outputs": [],
      "stateMutability": "nonpayable",
      "type": "function"
    },
    {
      "inputs": [
        {
          "internalType": "uint256",
          "name": "_crvAmount",
          "type": "uint256"
        }
      ],
      "name": "calculateClaimableCvxForCrv",
      "outputs": [
        {
          "internalType": "uint256",
          "name": "cvxAmount",
          "type": "uint256"
        }
      ],
      "stateMutability": "view",
      "type": "function"
    },
    {
      "inputs": [],
      "name": "fraxStakingVaultEarnedViewer",
      "outputs": [
        {
          "internalType": "contract IFraxStakingVaultEarnedViewer",
          "name": "",
          "type": "address"
        }
      ],
      "stateMutability": "view",
      "type": "function"
    },
    {
      "inputs": [
        {
          "internalType": "address",
          "name": "_strategyAddress",
          "type": "address"
        },
        {
          "internalType": "address",
          "name": "_rewardsAddress",
          "type": "address"
        }
      ],
      "name": "getConvexCurveStrategyRewards",
      "outputs": [
        {
          "internalType": "uint256",
          "name": "crv",
          "type": "uint256"
        },
        {
          "internalType": "uint256",
          "name": "cvx",
          "type": "uint256"
        }
      ],
      "stateMutability": "view",
      "type": "function"
    },
    {
      "inputs": [
        {
          "internalType": "address",
          "name": "_strategyAddress",
          "type": "address"
        },
        {
          "internalType": "address",
          "name": "_rewardsAddress",
          "type": "address"
        },
        {
          "internalType": "address",
          "name": "_extraRewardsAddress",
          "type": "address"
        }
      ],
      "name": "getConvexCurveStrategyRewardsWithExtraReward",
      "outputs": [
        {
          "internalType": "uint256",
          "name": "crv",
          "type": "uint256"
        },
        {
          "internalType": "uint256",
          "name": "cvx",
          "type": "uint256"
        },
        {
          "internalType": "address",
          "name": "extraRewardTokenAddress",
          "type": "address"
        },
        {
          "internalType": "uint256",
          "name": "extraReward",
          "type": "uint256"
        }
      ],
      "stateMutability": "view",
      "type": "function"
    },
    {
      "inputs": [
        {
          "internalType": "address",
          "name": "_strategyAddress",
          "type": "address"
        },
        {
          "internalType": "address",
          "name": "_rewardsAddress",
          "type": "address"
        }
      ],
      "name": "getCrvEarned",
      "outputs": [
        {
          "internalType": "uint256",
          "name": "crvAmount",
          "type": "uint256"
        }
      ],
      "stateMutability": "view",
      "type": "function"
    },
    {
      "inputs": [
        {
          "internalType": "address",
          "name": "_strategyVaultAddress",
          "type": "address"
        }
      ],
      "name": "getFraxStakingVaultEarned",
      "outputs": [
        {
          "internalType": "address[]",
          "name": "tokenAddresses",
          "type": "address[]"
        },
        {
          "internalType": "uint256[]",
          "name": "tokenEarned",
          "type": "uint256[]"
        }
      ],
      "stateMutability": "nonpayable",
      "type": "function"
    },
    {
      "inputs": [
        {
          "internalType": "address",
          "name": "_strategyAddress",
          "type": "address"
        },
        {
          "internalType": "address",
          "name": "_strategyVaultAddress",
          "type": "address"
        }
      ],
      "name": "getStakeDaoVaultEarned",
      "outputs": [
        {
          "internalType": "address[]",
          "name": "",
          "type": "address[]"
        },
        {
          "internalType": "uint256[]",
          "name": "",
          "type": "uint256[]"
        }
      ],
      "stateMutability": "view",
      "type": "function"
    },
    {
      "inputs": [],
      "name": "owner",
      "outputs": [
        {
          "internalType": "address",
          "name": "",
          "type": "address"
        }
      ],
      "stateMutability": "view",
      "type": "function"
    },
    {
      "inputs": [],
      "name": "pendingOwner",
      "outputs": [
        {
          "internalType": "address",
          "name": "",
          "type": "address"
        }
      ],
      "stateMutability": "view",
      "type": "function"
    },
    {
      "inputs": [],
      "name": "renounceOwnership",
      "outputs": [],
      "stateMutability": "nonpayable",
      "type": "function"
    },
    {
      "inputs": [
        {
          "internalType": "address",
          "name": "_fraxStakingVaultEarnedViewerAddress",
          "type": "address"
        }
      ],
      "name": "setFraxStakingVaultEarnedViewer",
      "outputs": [],
      "stateMutability": "nonpayable",
      "type": "function"
    },
    {
      "inputs": [
        {
          "internalType": "address",
          "name": "newOwner",
          "type": "address"
        }
      ],
      "name": "transferOwnership",
      "outputs": [],
      "stateMutability": "nonpayable",
      "type": "function"
    }
  ],
  "bytecode": "0x60806040523480156200001157600080fd5b506040516200138e3803806200138e833981016040819052620000349162000135565b33806200005b57604051631e4fbdf760e01b81526000600482015260240160405180910390fd5b620000668162000099565b506200007281620000b7565b50600280546001600160a01b0319166001600160a01b039290921691909117905562000167565b600180546001600160a01b0319169055620000b481620000e5565b50565b60006001600160a01b038216620000e15760405163d92e233d60e01b815260040160405180910390fd5b5090565b600080546001600160a01b038381166001600160a01b0319831681178455604051919092169283917f8be0079c531659141344cd1fd0a4f28419497f9722a3daafe3b4186f6b6457e09190a35050565b6000602082840312156200014857600080fd5b81516001600160a01b03811681146200016057600080fd5b9392505050565b61121780620001776000396000f3fe608060405234801561001057600080fd5b50600436106100f55760003560e01c806379ba509711610097578063aa78f98b11610066578063aa78f98b14610246578063d801eef914610259578063e30c39781461026c578063f2fde38b1461027d57600080fd5b806379ba5097146101ea5780638da5cb5b146101f2578063945c91421461020357806398a47c6a1461021e57600080fd5b80635f11118d116100d35780635f11118d14610191578063715018a6146101a657806372f63cec146101ae578063759cb53b146101cf57600080fd5b806310f333cd146100fa578063202036d614610145578063212f9b4f14610170575b600080fd5b61010d610108366004610e3c565b610290565b60405161013c949392919093845260208401929092526001600160a01b03166040830152606082015260800190565b60405180910390f35b600254610158906001600160a01b031681565b6040516001600160a01b03909116815260200161013c565b61018361017e366004610e87565b610475565b60405190815260200161013c565b6101a461019f366004610ec0565b6104ea565b005b6101a4610550565b6101c16101bc366004610ec0565b610564565b60405161013c929190610ee4565b610158734e3fbd56cd56c3e72c1403e103b45db9da5b9d2b81565b6101a461074b565b6000546001600160a01b0316610158565b61015873d533a949740bb3306d119cc777fa900ba034cd5281565b61023161022c366004610e87565b610794565b6040805192835260208301919091520161013c565b610183610254366004610f68565b6108cd565b6101c1610267366004610e87565b6109cd565b6001546001600160a01b0316610158565b6101a461028b366004610ec0565b610cf8565b6000806000806000806102a38989610794565b9150915060008790506000816001600160a01b031663f7c618c16040518163ffffffff1660e01b8152600401602060405180830381865afa1580156102ec573d6000803e3d6000fd5b505050506040513d601f19601f820116820180604052508101906103109190610f81565b90506000816001600160a01b031663fc0c546a6040518163ffffffff1660e01b8152600401602060405180830381865afa158015610352573d6000803e3d6000fd5b505050506040513d601f19601f820116820180604052508101906103769190610f81565b6040516246613160e11b81526001600160a01b038e811660048301529192506000918c1690628cc26290602401602060405180830381865afa1580156103c0573d6000803e3d6000fd5b505050506040513d601f19601f820116820180604052508101906103e49190610f9e565b6040516370a0823160e01b81526001600160a01b038f811660048301529192506000918416906370a0823190602401602060405180830381865afa158015610430573d6000803e3d6000fd5b505050506040513d601f19601f820116820180604052508101906104549190610f9e565b61045e9083610fcd565b969e959d50919b5094995092975050505050505050565b6040516246613160e11b81526001600160a01b03838116600483015260009190831690628cc26290602401602060405180830381865afa1580156104bd573d6000803e3d6000fd5b505050506040513d601f19601f820116820180604052508101906104e19190610f9e565b90505b92915050565b6104f2610d69565b6104fb81610d96565b50600280546001600160a01b0319166001600160a01b0383169081179091556040519081527f1f49b3de5ae796f1a28a51fad328947cd3cddb3e6fb67592b7d9da70619e6ecd9060200160405180910390a150565b610558610d69565b6105626000610dc3565b565b6060806000839050600260009054906101000a90046001600160a01b03166001600160a01b03166304b497b7826001600160a01b031663d7b4be246040518163ffffffff1660e01b81526004016020604051808303816000875af11580156105d0573d6000803e3d6000fd5b505050506040513d601f19601f820116820180604052508101906105f49190610f81565b836001600160a01b03166372f702f36040518163ffffffff1660e01b81526004016020604051808303816000875af1158015610634573d6000803e3d6000fd5b505050506040513d601f19601f820116820180604052508101906106589190610f81565b846001600160a01b0316639ec5a8946040518163ffffffff1660e01b81526004016020604051808303816000875af1158015610698573d6000803e3d6000fd5b505050506040513d601f19601f820116820180604052508101906106bc9190610f81565b6040516001600160e01b031960e086901b1681526001600160a01b03938416600482015291831660248301528216604482015290871660648201526084016000604051808303816000875af1158015610719573d6000803e3d6000fd5b505050506040513d6000823e601f3d908101601f1916820160405261074191908101906110ba565b9250925050915091565b60015433906001600160a01b031681146107885760405163118cdaa760e01b81526001600160a01b03821660048201526024015b60405180910390fd5b61079181610dc3565b50565b6040516370a0823160e01b81526001600160a01b03831660048201526000908190819073d533a949740bb3306d119cc777fa900ba034cd52906370a0823190602401602060405180830381865afa1580156107f3573d6000803e3d6000fd5b505050506040513d601f19601f820116820180604052508101906108179190610f9e565b6108218686610475565b61082b9190610fcd565b6040516370a0823160e01b81526001600160a01b0387166004820152909150600090734e3fbd56cd56c3e72c1403e103b45db9da5b9d2b906370a0823190602401602060405180830381865afa158015610889573d6000803e3d6000fd5b505050506040513d601f19601f820116820180604052508101906108ad9190610f9e565b6108b6836108cd565b6108c09190610fcd565b9196919550909350505050565b600080734e3fbd56cd56c3e72c1403e103b45db9da5b9d2b6001600160a01b03166318160ddd6040518163ffffffff1660e01b8152600401602060405180830381865afa158015610922573d6000803e3d6000fd5b505050506040513d601f19601f820116820180604052508101906109469190610f9e565b9050600061095e69152d02c7e14af68000008361117f565b90506103e88110610973575060009392505050565b6000610981826103e86111a1565b905060006103e861099283886111b4565b61099c919061117f565b905060006109b5856a52b7d2dcc80cd2e40000006111a1565b9050808211156109c3578091505b5095945050505050565b6060806000836001600160a01b031663f9a0be686040518163ffffffff1660e01b8152600401602060405180830381865afa158015610a10573d6000803e3d6000fd5b505050506040513d601f19601f82011682018060405250810190610a349190610f81565b90506000816001600160a01b031663963c94b96040518163ffffffff1660e01b8152600401602060405180830381865afa158015610a76573d6000803e3d6000fd5b505050506040513d601f19601f82011682018060405250810190610a9a9190610f9e565b905060008167ffffffffffffffff811115610ab757610ab7610fe0565b604051908082528060200260200182016040528015610ae0578160200160208202803683370190505b50905060008267ffffffffffffffff811115610afe57610afe610fe0565b604051908082528060200260200182016040528015610b27578160200160208202803683370190505b50905060005b83811015610cea576040516354c49fe960e01b8152600481018290526000906001600160a01b038716906354c49fe990602401602060405180830381865afa158015610b7d573d6000803e3d6000fd5b505050506040513d601f19601f82011682018060405250810190610ba19190610f81565b6040516370a0823160e01b81526001600160a01b038b811660048301529192506000918316906370a0823190602401602060405180830381865afa158015610bed573d6000803e3d6000fd5b505050506040513d601f19601f82011682018060405250810190610c119190610f9e565b604051630cff5bdd60e21b81526001600160a01b038d8116600483015284811660248301528916906333fd6f7490604401602060405180830381865afa158015610c5f573d6000803e3d6000fd5b505050506040513d601f19601f82011682018060405250810190610c839190610f9e565b610c8d9190610fcd565b905081858481518110610ca257610ca26111cb565b60200260200101906001600160a01b031690816001600160a01b03168152505080848481518110610cd557610cd56111cb565b60209081029190910101525050600101610b2d565b509097909650945050505050565b610d00610d69565b600180546001600160a01b0383166001600160a01b03199091168117909155610d316000546001600160a01b031690565b6001600160a01b03167f38d16b8cac22d99fc7c124b9cd0de2d3fa1faef420bfe791d8c362d765e2270060405160405180910390a350565b6000546001600160a01b031633146105625760405163118cdaa760e01b815233600482015260240161077f565b60006001600160a01b038216610dbf5760405163d92e233d60e01b815260040160405180910390fd5b5090565b600180546001600160a01b031916905561079181600080546001600160a01b038381166001600160a01b0319831681178455604051919092169283917f8be0079c531659141344cd1fd0a4f28419497f9722a3daafe3b4186f6b6457e09190a35050565b6001600160a01b038116811461079157600080fd5b600080600060608486031215610e5157600080fd5b8335610e5c81610e27565b92506020840135610e6c81610e27565b91506040840135610e7c81610e27565b809150509250925092565b60008060408385031215610e9a57600080fd5b8235610ea581610e27565b91506020830135610eb581610e27565b809150509250929050565b600060208284031215610ed257600080fd5b8135610edd81610e27565b9392505050565b604080825283519082018190526000906020906060840190828701845b82811015610f265781516001600160a01b031684529284019290840190600101610f01565b5050508381038285015284518082528583019183019060005b81811015610f5b57835183529284019291840191600101610f3f565b5090979650505050505050565b600060208284031215610f7a57600080fd5b5035919050565b600060208284031215610f9357600080fd5b8151610edd81610e27565b600060208284031215610fb057600080fd5b5051919050565b634e487b7160e01b600052601160045260246000fd5b808201808211156104e4576104e4610fb7565b634e487b7160e01b600052604160045260246000fd5b604051601f8201601f1916810167ffffffffffffffff8111828210171561101f5761101f610fe0565b604052919050565b600067ffffffffffffffff82111561104157611041610fe0565b5060051b60200190565b600082601f83011261105c57600080fd5b8151602061107161106c83611027565b610ff6565b8083825260208201915060208460051b87010193508684111561109357600080fd5b602086015b848110156110af5780518352918301918301611098565b509695505050505050565b600080604083850312156110cd57600080fd5b825167ffffffffffffffff808211156110e557600080fd5b818501915085601f8301126110f957600080fd5b8151602061110961106c83611027565b82815260059290921b8401810191818101908984111561112857600080fd5b948201945b8386101561114f57855161114081610e27565b8252948201949082019061112d565b9188015191965090935050508082111561116857600080fd5b506111758582860161104b565b9150509250929050565b60008261119c57634e487b7160e01b600052601260045260246000fd5b500490565b818103818111156104e4576104e4610fb7565b80820281158282048414176104e4576104e4610fb7565b634e487b7160e01b600052603260045260246000fdfea2646970667358221220a29d3a22b7a5cee21b268b8d6b66bfbc80c38084e28b54bf3b37ce5bde0a588b64736f6c63430008170033",
  "linkReferences": {},
  "deployedLinkReferences": {}
}