{
  "_format": "hh-sol-artifact-1",
  "contractName": "SellingCurveRewardManager",
  "sourceName": "contracts/utils/rewardManager/SellingCurveRewardManager.sol",
  "abi": [
    {
      "inputs": [
        {
          "internalType": "address",
          "name": "stableConverterAddr",
          "type": "address"
        }
      ],
      "stateMutability": "nonpayable",
      "type": "constructor"
    },
    {
      "inputs": [
        {
          "internalType": "address",
          "name": "target",
          "type": "address"
        }
      ],
      "name": "AddressEmptyCode",
      "type": "error"
    },
    {
      "inputs": [
        {
          "internalType": "address",
          "name": "account",
          "type": "address"
        }
      ],
      "name": "AddressInsufficientBalance",
      "type": "error"
    },
    {
      "inputs": [],
      "name": "FailedInnerCall",
      "type": "error"
    },
    {
      "inputs": [
        {
          "internalType": "address",
          "name": "token",
          "type": "address"
        }
      ],
      "name": "SafeERC20FailedOperation",
      "type": "error"
    },
    {
      "inputs": [],
      "name": "CURVE_TRICRV_POOL_CRV_ID",
      "outputs": [
        {
          "internalType": "uint256",
          "name": "",
          "type": "uint256"
        }
      ],
      "stateMutability": "view",
      "type": "function"
    },
    {
      "inputs": [],
      "name": "CURVE_TRICRV_POOL_WETH_ID",
      "outputs": [
        {
          "internalType": "uint256",
          "name": "",
          "type": "uint256"
        }
      ],
      "stateMutability": "view",
      "type": "function"
    },
    {
      "inputs": [],
      "name": "CURVE_TRICRYPTO2_POOL_USDT_ID",
      "outputs": [
        {
          "internalType": "uint256",
          "name": "",
          "type": "uint256"
        }
      ],
      "stateMutability": "view",
      "type": "function"
    },
    {
      "inputs": [],
      "name": "CURVE_TRICRYPTO2_POOL_WETH_ID",
      "outputs": [
        {
          "internalType": "uint256",
          "name": "",
          "type": "uint256"
        }
      ],
      "stateMutability": "view",
      "type": "function"
    },
    {
      "inputs": [],
      "name": "CURVE_WETH_REWARD_POOL_REWARD_ID",
      "outputs": [
        {
          "internalType": "uint256",
          "name": "",
          "type": "uint256"
        }
      ],
      "stateMutability": "view",
      "type": "function"
    },
    {
      "inputs": [],
      "name": "CURVE_WETH_REWARD_POOL_WETH_ID",
      "outputs": [
        {
          "internalType": "uint256",
          "name": "",
          "type": "uint256"
        }
      ],
      "stateMutability": "view",
      "type": "function"
    },
    {
      "inputs": [],
      "name": "SLIPPAGE_DENOMINATOR",
      "outputs": [
        {
          "internalType": "uint256",
          "name": "",
          "type": "uint256"
        }
      ],
      "stateMutability": "view",
      "type": "function"
    },
    {
      "inputs": [],
      "name": "defaultSlippage",
      "outputs": [
        {
          "internalType": "uint256",
          "name": "",
          "type": "uint256"
        }
      ],
      "stateMutability": "view",
      "type": "function"
    },
    {
      "inputs": [
        {
          "internalType": "address",
          "name": "reward",
          "type": "address"
        },
        {
          "internalType": "uint256",
          "name": "amount",
          "type": "uint256"
        },
        {
          "internalType": "address",
          "name": "receivingToken",
          "type": "address"
        }
      ],
      "name": "handle",
      "outputs": [],
      "stateMutability": "nonpayable",
      "type": "function"
    },
    {
      "inputs": [
        {
          "internalType": "address",
          "name": "",
          "type": "address"
        }
      ],
      "name": "rewardEthCurvePools",
      "outputs": [
        {
          "internalType": "address",
          "name": "",
          "type": "address"
        }
      ],
      "stateMutability": "view",
      "type": "function"
    },
    {
      "inputs": [
        {
          "internalType": "address",
          "name": "",
          "type": "address"
        }
      ],
      "name": "rewardUsdChainlinkOracles",
      "outputs": [
        {
          "internalType": "address",
          "name": "",
          "type": "address"
        }
      ],
      "stateMutability": "view",
      "type": "function"
    },
    {
      "inputs": [],
      "name": "stableConverter",
      "outputs": [
        {
          "internalType": "contract IStableConverter",
          "name": "",
          "type": "address"
        }
      ],
      "stateMutability": "view",
      "type": "function"
    },
    {
      "inputs": [],
      "name": "tricrypto2",
      "outputs": [
        {
          "internalType": "contract ICurveExchangePool",
          "name": "",
          "type": "address"
        }
      ],
      "stateMutability": "view",
      "type": "function"
    },
    {
      "inputs": [
        {
          "internalType": "address",
          "name": "reward",
          "type": "address"
        },
        {
          "internalType": "uint256",
          "name": "amount",
          "type": "uint256"
        },
        {
          "internalType": "address",
          "name": "feeToken",
          "type": "address"
        }
      ],
      "name": "valuate",
      "outputs": [
        {
          "internalType": "uint256",
          "name": "",
          "type": "uint256"
        }
      ],
      "stateMutability": "view",
      "type": "function"
    }
  ],
  "bytecode": "0x60c060405234801561001057600080fd5b5060405161133138038061133183398101604081905261002f916102f2565b6001600160a01b03811661007b5760405162461bcd60e51b815260206004820152600f60248201526e29ba30b13632a1b7b73b32b93a32b960891b604482015260640160405180910390fd5b6001600160a01b031660a05273d51a44d3fae010294c616388b506acda1bfaae466080527f70c3dba262fa5eaaf3e393830b86a1923f032bbcdc463b5d2b22ed5f11b1e68580546001600160a01b0319908116734ebdf703948ddcea3b11f675b4d1fba9d2414a14179091557faddfb4aa8bb2d903028d0cd8ae9f3a952358031d6bc2b55c1a0aa42364fa2c6c8054821673b576491f1e6e5e62f1d8f26062ee822b40b0e0d41790557f541919c86040022d9e18ea6a255cd26949db2e27ffdd387787ea434611d53f448054821673941eb6f616114e4ecaa85377945ea306002612fe1790557fd8110f489b828f28f68a8c9d5e2f791ba8038f9eb356cce1655c5c093e95c049805482167398638facf9a3865cd033f36548713183f69961221790557f26d06d4bfeaf1e3809ca2971d9bbd4bd6e41447c331b451f25691d197d448dbd8054821673fb8814d005c5f32874391e888da6eb2fe7a2790217905560016020527f7260aa658d59a79623ce57bb25957f39070fac81f73789fe9cc0a82cb4b3ddf28054821673d962fc30a72a84ce50161031391756bf2876af5d1790557f1354cde30ff01cefe86de5e324565b9387a794adcf8cd1ddeaf76e7fff0106b08054821673cd627aa160a6fa45eb793d19ef54f5062f20f33f1790557f65930437381ef01f461f120794e151273a59d7d36ad51bd7a8ffeafc41233ecb80548216736ebc52c8c1089be9eb3945c4350b68b8e4c2233f17905573090185f2135308bad17527004364ebcc2d37e5f66000527ff0b12f542e409b7ffafdbb7211a7f51a31c8fed1a7ad6448671938c40e34ef258054909116738c110b94c5f1d347facf5e1e938ab2db60e3c9a8179055610322565b60006020828403121561030457600080fd5b81516001600160a01b038116811461031b57600080fd5b9392505050565b60805160a051610fc0610371600039600081816101ea015281816103df0152818161073601526107a20152600081816101ba015281816102f6015281816105ca015261061a0152610fc06000f3fe608060405234801561001057600080fd5b50600436106100ea5760003560e01c80635c7f49311161008c578063a42b06f811610066578063a42b06f8146101ad578063ac905114146101dc578063b90be74314610173578063bc3a8e29146101e557600080fd5b80635c7f49311461018457806373fe78cf146101ad5780638f421d54146101b557600080fd5b8063426688bc116100c8578063426688bc1461015e578063438acb0f146101735780634a265254146101355780635487404a1461017b57600080fd5b806319507450146100ef5780631dccc49d1461013557806335820b481461014b575b600080fd5b6101186100fd366004610dea565b6001602052600090815260409020546001600160a01b031681565b6040516001600160a01b0390911681526020015b60405180910390f35b61013d600181565b60405190815260200161012c565b61013d610159366004610e05565b61020c565b61017161016c366004610e05565b610459565b005b61013d600281565b61013d61012c81565b610118610192366004610dea565b6000602081905290815260409020546001600160a01b031681565b61013d600081565b6101187f000000000000000000000000000000000000000000000000000000000000000081565b61013d61271081565b6101187f000000000000000000000000000000000000000000000000000000000000000081565b60008260000361021e57506000610452565b6001600160a01b0380851660009081526020819052604081205490911690806102468761088d565b60405163556d6e9f60e01b815260048101839052602481018290526044810189905291935091506000906001600160a01b0385169063556d6e9f90606401602060405180830381865afa1580156102a1573d6000803e3d6000fd5b505050506040513d601f19601f820116820180604052508101906102c59190610e41565b60405163556d6e9f60e01b815260026004820152600060248201819052604482018390529192506001600160a01b037f0000000000000000000000000000000000000000000000000000000000000000169063556d6e9f90606401602060405180830381865afa15801561033d573d6000803e3d6000fd5b505050506040513d601f19601f820116820180604052508101906103619190610e41565b905061036e8989836108cd565b73dac17f958d2ee523a2206206994597c13d831ec6196001600160a01b0388160161039f5794506104529350505050565b6040516305945a4d60e51b815273dac17f958d2ee523a2206206994597c13d831ec760048201526001600160a01b038881166024830152604482018390527f0000000000000000000000000000000000000000000000000000000000000000169063b28b49a090606401602060405180830381865afa158015610426573d6000803e3d6000fd5b505050506040513d601f19601f8201168201806040525081019061044a9190610e41565b955050505050505b9392505050565b8160000361046657505050565b806001600160a01b0316836001600160a01b031603610498576104936001600160a01b0382163384610a0b565b505050565b6001600160a01b03808416600081815260208190526040902054909116906104c1908285610a6a565b6000806104cd8661088d565b604051630b68372160e31b81526004810183905260248101829052604481018890526000606482015291935091506001600160a01b03841690635b41b90890608401600060405180830381600087803b15801561052957600080fd5b505af115801561053d573d6000803e3d6000fd5b50506040516370a0823160e01b815230600482015273c02aaa39b223fe8d0a0e5c4f27ead9083c756cc292506000915082906370a0823190602401602060405180830381865afa158015610595573d6000803e3d6000fd5b505050506040513d601f19601f820116820180604052508101906105b99190610e41565b90506105ef6001600160a01b0383167f000000000000000000000000000000000000000000000000000000000000000083610a6a565b604051630b68372160e31b8152600260048201526000602482018190526044820183905260648201527f00000000000000000000000000000000000000000000000000000000000000006001600160a01b031690635b41b90890608401600060405180830381600087803b15801561066657600080fd5b505af115801561067a573d6000803e3d6000fd5b50506040516370a0823160e01b815230600482015273dac17f958d2ee523a2206206994597c13d831ec792506000915082906370a0823190602401602060405180830381865afa1580156106d2573d6000803e3d6000fd5b505050506040513d601f19601f820116820180604052508101906106f69190610e41565b90506107038a8a836108cd565b6001600160a01b03881673dac17f958d2ee523a2206206994597c13d831ec7146107ff5761075b6001600160a01b0383167f000000000000000000000000000000000000000000000000000000000000000083610a0b565b604051631a378db760e01b815273dac17f958d2ee523a2206206994597c13d831ec760048201526001600160a01b03898116602483015260448201839052600060648301527f00000000000000000000000000000000000000000000000000000000000000001690631a378db790608401600060405180830381600087803b1580156107e657600080fd5b505af11580156107fa573d6000803e3d6000fd5b505050505b6040516370a0823160e01b81523060048201526000906001600160a01b038a16906370a0823190602401602060405180830381865afa158015610846573d6000803e3d6000fd5b505050506040513d601f19601f8201168201806040525081019061086a9190610e41565b90506108806001600160a01b038a163383610a0b565b5050505050505050505050565b60008073d533a949740bb3306d119cc777fa900ba034cd51196001600160a01b038416016108c15750600292600192509050565b50600192600092509050565b6001600160a01b0380841660009081526001602052604090205416806108f35750505050565b6001600160a01b03808516600090815260016020526040808220548151633fabe5a360e21b81529151931692839163feaf968c9160048083019260a09291908290030181865afa15801561094b573d6000803e3d6000fd5b505050506040513d601f19601f8201168201806040525081019061096f9190610e74565b505050915050600061271061012c61271061098a9190610eda565b6109948885610eed565b61099e9190610eed565b6109a89190610f04565b90506109bd68056bc75e2d6310000082610f04565b851015610a025760405162461bcd60e51b815260206004820152600e60248201526d57726f6e6720736c69707061676560901b60448201526064015b60405180910390fd5b50505050505050565b6040516001600160a01b0383811660248301526044820183905261049391859182169063a9059cbb906064015b604051602081830303815290604052915060e01b6020820180516001600160e01b038381831617835250505050610afa565b604051636eb1769f60e11b81523060048201526001600160a01b0383811660248301526000919085169063dd62ed3e90604401602060405180830381865afa158015610aba573d6000803e3d6000fd5b505050506040513d601f19601f82011682018060405250810190610ade9190610e41565b9050610af48484610aef8585610f26565b610b5d565b50505050565b6000610b0f6001600160a01b03841683610bed565b90508051600014158015610b34575080806020019051810190610b329190610f39565b155b1561049357604051635274afe760e01b81526001600160a01b03841660048201526024016109f9565b604080516001600160a01b038416602482015260448082018490528251808303909101815260649091019091526020810180516001600160e01b031663095ea7b360e01b179052610bae8482610c04565b610af4576040516001600160a01b03848116602483015260006044830152610be391869182169063095ea7b390606401610a38565b610af48482610afa565b6060610bfb83836000610cac565b90505b92915050565b6000806000846001600160a01b031684604051610c219190610f5b565b6000604051808303816000865af19150503d8060008114610c5e576040519150601f19603f3d011682016040523d82523d6000602084013e610c63565b606091505b5091509150818015610c8d575080511580610c8d575080806020019051810190610c8d9190610f39565b8015610ca357506000856001600160a01b03163b115b95945050505050565b606081471015610cd15760405163cd78605960e01b81523060048201526024016109f9565b600080856001600160a01b03168486604051610ced9190610f5b565b60006040518083038185875af1925050503d8060008114610d2a576040519150601f19603f3d011682016040523d82523d6000602084013e610d2f565b606091505b5091509150610d3f868383610d49565b9695505050505050565b606082610d5e57610d5982610da5565b610452565b8151158015610d7557506001600160a01b0384163b155b15610d9e57604051639996b31560e01b81526001600160a01b03851660048201526024016109f9565b5080610452565b805115610db55780518082602001fd5b604051630a12f52160e11b815260040160405180910390fd5b80356001600160a01b0381168114610de557600080fd5b919050565b600060208284031215610dfc57600080fd5b610bfb82610dce565b600080600060608486031215610e1a57600080fd5b610e2384610dce565b925060208401359150610e3860408501610dce565b90509250925092565b600060208284031215610e5357600080fd5b5051919050565b805169ffffffffffffffffffff81168114610de557600080fd5b600080600080600060a08688031215610e8c57600080fd5b610e9586610e5a565b9450602086015193506040860151925060608601519150610eb860808701610e5a565b90509295509295909350565b634e487b7160e01b600052601160045260246000fd5b81810381811115610bfe57610bfe610ec4565b8082028115828204841417610bfe57610bfe610ec4565b600082610f2157634e487b7160e01b600052601260045260246000fd5b500490565b80820180821115610bfe57610bfe610ec4565b600060208284031215610f4b57600080fd5b8151801515811461045257600080fd5b6000825160005b81811015610f7c5760208186018101518583015201610f62565b50600092019182525091905056fea2646970667358221220539f96989a107341eb1a3447c9cc5a507ea2f7bf4149bfd9f7eb5bc7f73b763864736f6c63430008170033",
  "linkReferences": {},
  "deployedLinkReferences": {}
}