{
  "_format": "hh-sol-artifact-1",
  "contractName": "sfrxETHERC4626Strat",
  "sourceName": "contracts/strategies/erc4626/eth/sfrxETHERC4626Strat.sol",
  "abi": [
    {
      "inputs": [],
      "stateMutability": "nonpayable",
      "type": "constructor"
    },
    {
      "inputs": [],
      "name": "AccessControlBadConfirmation",
      "type": "error"
    },
    {
      "inputs": [
        {
          "internalType": "address",
          "name": "account",
          "type": "address"
        },
        {
          "internalType": "bytes32",
          "name": "neededRole",
          "type": "bytes32"
        }
      ],
      "name": "AccessControlUnauthorizedAccount",
      "type": "error"
    },
    {
      "inputs": [
        {
          "internalType": "address",
          "name": "target",
          "type": "address"
        }
      ],
      "name": "AddressEmptyCode",
      "type": "error"
    },
    {
      "inputs": [
        {
          "internalType": "address",
          "name": "account",
          "type": "address"
        }
      ],
      "name": "AddressInsufficientBalance",
      "type": "error"
    },
    {
      "inputs": [],
      "name": "FailedInnerCall",
      "type": "error"
    },
    {
      "inputs": [],
      "name": "MustBeCalledByZunamiPool",
      "type": "error"
    },
    {
      "inputs": [],
      "name": "MustHaveOwner",
      "type": "error"
    },
    {
      "inputs": [
        {
          "internalType": "address",
          "name": "token",
          "type": "address"
        }
      ],
      "name": "SafeERC20FailedOperation",
      "type": "error"
    },
    {
      "inputs": [],
      "name": "WrongDecimalMultipliers",
      "type": "error"
    },
    {
      "inputs": [],
      "name": "WrongTokens",
      "type": "error"
    },
    {
      "inputs": [],
      "name": "ZeroAddress",
      "type": "error"
    },
    {
      "inputs": [],
      "name": "ZeroValue",
      "type": "error"
    },
    {
      "anonymous": false,
      "inputs": [
        {
          "indexed": false,
          "internalType": "uint256",
          "name": "oldAmount",
          "type": "uint256"
        },
        {
          "indexed": false,
          "internalType": "uint256",
          "name": "newAmount",
          "type": "uint256"
        }
      ],
      "name": "MinDepositAmountUpdated",
      "type": "event"
    },
    {
      "anonymous": false,
      "inputs": [
        {
          "indexed": false,
          "internalType": "address",
          "name": "oracleAddr",
          "type": "address"
        }
      ],
      "name": "PriceOracleSet",
      "type": "event"
    },
    {
      "anonymous": false,
      "inputs": [
        {
          "indexed": true,
          "internalType": "bytes32",
          "name": "role",
          "type": "bytes32"
        },
        {
          "indexed": true,
          "internalType": "bytes32",
          "name": "previousAdminRole",
          "type": "bytes32"
        },
        {
          "indexed": true,
          "internalType": "bytes32",
          "name": "newAdminRole",
          "type": "bytes32"
        }
      ],
      "name": "RoleAdminChanged",
      "type": "event"
    },
    {
      "anonymous": false,
      "inputs": [
        {
          "indexed": true,
          "internalType": "bytes32",
          "name": "role",
          "type": "bytes32"
        },
        {
          "indexed": true,
          "internalType": "address",
          "name": "account",
          "type": "address"
        },
        {
          "indexed": true,
          "internalType": "address",
          "name": "sender",
          "type": "address"
        }
      ],
      "name": "RoleGranted",
      "type": "event"
    },
    {
      "anonymous": false,
      "inputs": [
        {
          "indexed": true,
          "internalType": "bytes32",
          "name": "role",
          "type": "bytes32"
        },
        {
          "indexed": true,
          "internalType": "address",
          "name": "account",
          "type": "address"
        },
        {
          "indexed": true,
          "internalType": "address",
          "name": "sender",
          "type": "address"
        }
      ],
      "name": "RoleRevoked",
      "type": "event"
    },
    {
      "anonymous": false,
      "inputs": [
        {
          "indexed": false,
          "internalType": "address",
          "name": "nativeConverter",
          "type": "address"
        }
      ],
      "name": "SetNativeConverter",
      "type": "event"
    },
    {
      "anonymous": false,
      "inputs": [
        {
          "indexed": false,
          "internalType": "address",
          "name": "zunamiPoolAddr",
          "type": "address"
        }
      ],
      "name": "ZunamiPoolSet",
      "type": "event"
    },
    {
      "inputs": [],
      "name": "DEFAULT_ADMIN_ROLE",
      "outputs": [
        {
          "internalType": "bytes32",
          "name": "",
          "type": "bytes32"
        }
      ],
      "stateMutability": "view",
      "type": "function"
    },
    {
      "inputs": [],
      "name": "DEPOSIT_DENOMINATOR",
      "outputs": [
        {
          "internalType": "uint256",
          "name": "",
          "type": "uint256"
        }
      ],
      "stateMutability": "view",
      "type": "function"
    },
    {
      "inputs": [],
      "name": "POOL_ASSETS",
      "outputs": [
        {
          "internalType": "uint8",
          "name": "",
          "type": "uint8"
        }
      ],
      "stateMutability": "view",
      "type": "function"
    },
    {
      "inputs": [],
      "name": "PRICE_DENOMINATOR",
      "outputs": [
        {
          "internalType": "uint256",
          "name": "",
          "type": "uint256"
        }
      ],
      "stateMutability": "view",
      "type": "function"
    },
    {
      "inputs": [],
      "name": "RATIO_MULTIPLIER",
      "outputs": [
        {
          "internalType": "uint256",
          "name": "",
          "type": "uint256"
        }
      ],
      "stateMutability": "view",
      "type": "function"
    },
    {
      "inputs": [],
      "name": "ZUNAMI_FRXETH_TOKEN_ID",
      "outputs": [
        {
          "internalType": "uint256",
          "name": "",
          "type": "uint256"
        }
      ],
      "stateMutability": "view",
      "type": "function"
    },
    {
      "inputs": [],
      "name": "ZUNAMI_WETH_TOKEN_ID",
      "outputs": [
        {
          "internalType": "uint256",
          "name": "",
          "type": "uint256"
        }
      ],
      "stateMutability": "view",
      "type": "function"
    },
    {
      "inputs": [
        {
          "internalType": "uint256[5]",
          "name": "tokenAmounts",
          "type": "uint256[5]"
        },
        {
          "internalType": "bool",
          "name": "",
          "type": "bool"
        }
      ],
      "name": "calcTokenAmount",
      "outputs": [
        {
          "internalType": "uint256",
          "name": "sharesAmount",
          "type": "uint256"
        }
      ],
      "stateMutability": "view",
      "type": "function"
    },
    {
      "inputs": [
        {
          "internalType": "address",
          "name": "receiver",
          "type": "address"
        },
        {
          "internalType": "contract IERC20[]",
          "name": "",
          "type": "address[]"
        }
      ],
      "name": "claimRewards",
      "outputs": [],
      "stateMutability": "nonpayable",
      "type": "function"
    },
    {
      "inputs": [
        {
          "internalType": "uint256[5]",
          "name": "amounts",
          "type": "uint256[5]"
        }
      ],
      "name": "deposit",
      "outputs": [
        {
          "internalType": "uint256",
          "name": "",
          "type": "uint256"
        }
      ],
      "stateMutability": "nonpayable",
      "type": "function"
    },
    {
      "inputs": [],
      "name": "depositedAssets",
      "outputs": [
        {
          "internalType": "uint256",
          "name": "",
          "type": "uint256"
        }
      ],
      "stateMutability": "view",
      "type": "function"
    },
    {
      "inputs": [],
      "name": "depositedLiquidity",
      "outputs": [
        {
          "internalType": "uint256",
          "name": "",
          "type": "uint256"
        }
      ],
      "stateMutability": "view",
      "type": "function"
    },
    {
      "inputs": [
        {
          "internalType": "bytes32",
          "name": "role",
          "type": "bytes32"
        }
      ],
      "name": "getRoleAdmin",
      "outputs": [
        {
          "internalType": "bytes32",
          "name": "",
          "type": "bytes32"
        }
      ],
      "stateMutability": "view",
      "type": "function"
    },
    {
      "inputs": [
        {
          "internalType": "bytes32",
          "name": "role",
          "type": "bytes32"
        },
        {
          "internalType": "address",
          "name": "account",
          "type": "address"
        }
      ],
      "name": "grantRole",
      "outputs": [],
      "stateMutability": "nonpayable",
      "type": "function"
    },
    {
      "inputs": [
        {
          "internalType": "bytes32",
          "name": "role",
          "type": "bytes32"
        },
        {
          "internalType": "address",
          "name": "account",
          "type": "address"
        }
      ],
      "name": "hasRole",
      "outputs": [
        {
          "internalType": "bool",
          "name": "",
          "type": "bool"
        }
      ],
      "stateMutability": "view",
      "type": "function"
    },
    {
      "inputs": [],
      "name": "minDepositAmount",
      "outputs": [
        {
          "internalType": "uint256",
          "name": "",
          "type": "uint256"
        }
      ],
      "stateMutability": "view",
      "type": "function"
    },
    {
      "inputs": [],
      "name": "nativeConverter",
      "outputs": [
        {
          "internalType": "contract INativeConverter",
          "name": "",
          "type": "address"
        }
      ],
      "stateMutability": "view",
      "type": "function"
    },
    {
      "inputs": [],
      "name": "oracle",
      "outputs": [
        {
          "internalType": "contract IOracle",
          "name": "",
          "type": "address"
        }
      ],
      "stateMutability": "view",
      "type": "function"
    },
    {
      "inputs": [
        {
          "internalType": "bytes32",
          "name": "role",
          "type": "bytes32"
        },
        {
          "internalType": "address",
          "name": "callerConfirmation",
          "type": "address"
        }
      ],
      "name": "renounceRole",
      "outputs": [],
      "stateMutability": "nonpayable",
      "type": "function"
    },
    {
      "inputs": [
        {
          "internalType": "bytes32",
          "name": "role",
          "type": "bytes32"
        },
        {
          "internalType": "address",
          "name": "account",
          "type": "address"
        }
      ],
      "name": "revokeRole",
      "outputs": [],
      "stateMutability": "nonpayable",
      "type": "function"
    },
    {
      "inputs": [
        {
          "internalType": "address",
          "name": "nativeConverterAddr",
          "type": "address"
        }
      ],
      "name": "setNativeConverter",
      "outputs": [],
      "stateMutability": "nonpayable",
      "type": "function"
    },
    {
      "inputs": [
        {
          "internalType": "address",
          "name": "oracleAddr",
          "type": "address"
        }
      ],
      "name": "setPriceOracle",
      "outputs": [],
      "stateMutability": "nonpayable",
      "type": "function"
    },
    {
      "inputs": [
        {
          "internalType": "address",
          "name": "zunamiAddr",
          "type": "address"
        }
      ],
      "name": "setZunamiPool",
      "outputs": [],
      "stateMutability": "nonpayable",
      "type": "function"
    },
    {
      "inputs": [
        {
          "internalType": "bytes4",
          "name": "interfaceId",
          "type": "bytes4"
        }
      ],
      "name": "supportsInterface",
      "outputs": [
        {
          "internalType": "bool",
          "name": "",
          "type": "bool"
        }
      ],
      "stateMutability": "view",
      "type": "function"
    },
    {
      "inputs": [
        {
          "internalType": "uint256",
          "name": "",
          "type": "uint256"
        }
      ],
      "name": "tokenDecimalsMultipliers",
      "outputs": [
        {
          "internalType": "uint256",
          "name": "",
          "type": "uint256"
        }
      ],
      "stateMutability": "view",
      "type": "function"
    },
    {
      "inputs": [
        {
          "internalType": "uint256",
          "name": "",
          "type": "uint256"
        }
      ],
      "name": "tokens",
      "outputs": [
        {
          "internalType": "contract IERC20",
          "name": "",
          "type": "address"
        }
      ],
      "stateMutability": "view",
      "type": "function"
    },
    {
      "inputs": [],
      "name": "totalHoldings",
      "outputs": [
        {
          "internalType": "uint256",
          "name": "",
          "type": "uint256"
        }
      ],
      "stateMutability": "view",
      "type": "function"
    },
    {
      "inputs": [
        {
          "internalType": "uint256",
          "name": "_minDepositAmount",
          "type": "uint256"
        }
      ],
      "name": "updateMinDepositAmount",
      "outputs": [],
      "stateMutability": "nonpayable",
      "type": "function"
    },
    {
      "inputs": [],
      "name": "vault",
      "outputs": [
        {
          "internalType": "contract IERC4626",
          "name": "",
          "type": "address"
        }
      ],
      "stateMutability": "view",
      "type": "function"
    },
    {
      "inputs": [],
      "name": "vaultAsset",
      "outputs": [
        {
          "internalType": "contract IERC20",
          "name": "",
          "type": "address"
        }
      ],
      "stateMutability": "view",
      "type": "function"
    },
    {
      "inputs": [
        {
          "internalType": "address",
          "name": "receiver",
          "type": "address"
        },
        {
          "internalType": "uint256",
          "name": "poolTokenRatio",
          "type": "uint256"
        },
        {
          "internalType": "uint256[5]",
          "name": "tokenAmounts",
          "type": "uint256[5]"
        }
      ],
      "name": "withdraw",
      "outputs": [
        {
          "internalType": "bool",
          "name": "",
          "type": "bool"
        }
      ],
      "stateMutability": "nonpayable",
      "type": "function"
    },
    {
      "inputs": [
        {
          "internalType": "uint256[5]",
          "name": "minTokenAmounts",
          "type": "uint256[5]"
        }
      ],
      "name": "withdrawAll",
      "outputs": [],
      "stateMutability": "nonpayable",
      "type": "function"
    },
    {
      "inputs": [
        {
          "internalType": "contract IERC20",
          "name": "_token",
          "type": "address"
        }
      ],
      "name": "withdrawStuckToken",
      "outputs": [],
      "stateMutability": "nonpayable",
      "type": "function"
    },
    {
      "inputs": [],
      "name": "zunamiPool",
      "outputs": [
        {
          "internalType": "contract IPool",
          "name": "",
          "type": "address"
        }
      ],
      "stateMutability": "view",
      "type": "function"
    }
  ],
  "bytecode": "0x60c06040526126de6002553480156200001757600080fd5b506040805160a0808201835273c02aaa39b223fe8d0a0e5c4f27ead9083c756cc28252735e8422345238f34275888049021821e8e08caa1f60208084018290526000848601819052606080860182905260808087018390528751958601885260018087529386019390935295840181905294830185905282018490529192909173ac3e018457b222d93114458476f3e3416abbe38f91849084908490849084908490620000c59033620002ad565b506000805b600581101562000219578180156200010557506000848260058110620000f457620000f462000401565b60200201516001600160a01b031614155b156200012457604051631d37a6fd60e11b815260040160405180910390fd5b60008482600581106200013b576200013b62000401565b60200201516001600160a01b0316036200015457600191505b60008482600581106200016b576200016b62000401565b60200201516001600160a01b0316141580156200019f575082816005811062000198576200019862000401565b6020020151155b80620001f157506000848260058110620001bd57620001bd62000401565b60200201516001600160a01b0316148015620001f15750828160058110620001e957620001e962000401565b602002015115155b15620002105760405163bfa45dc560e01b815260040160405180910390fd5b600101620000ca565b506200022960038460056200035c565b50620002396008836005620003b9565b5050506001600160a01b0383169050620002665760405163d92e233d60e01b815260040160405180910390fd5b6001600160a01b0381166200028e5760405163d92e233d60e01b815260040160405180910390fd5b6001600160a01b039182166080521660a0525062000417945050505050565b6000828152602081815260408083206001600160a01b038516845290915281205460ff1662000352576000838152602081815260408083206001600160a01b03861684529091529020805460ff19166001179055620003093390565b6001600160a01b0316826001600160a01b0316847f2f8788117e7eff1d82e926ec794901d17c78024a50270940304540a733656f0d60405160405180910390a450600162000356565b5060005b92915050565b8260058101928215620003a7579160200282015b82811115620003a757825182546001600160a01b0319166001600160a01b0390911617825560209092019160019091019062000370565b50620003b5929150620003ea565b5090565b8260058101928215620003a7579160200282015b82811115620003a7578251825591602001919060010190620003cd565b5b80821115620003b55760008155600101620003eb565b634e487b7160e01b600052603260045260246000fd5b60805160a051611ef66200047c6000396000818161030f01526116d4015260008181610478015281816105b90152818161067f01528181610c6701528181610fc001528181611370015281816114410152818161149b01526116470152611ef66000f3fe608060405234801561001057600080fd5b50600436106102065760003560e01c80636c1516e11161011a5780638bd0a5d2116100ad578063b67d611d1161007c578063b67d611d14610445578063d547741f14610458578063d5f651a414610386578063e9ec2e991461046b578063fbfa77cf1461047357600080fd5b80638bd0a5d21461040c57806391d148541461041f5780639d57b9a614610432578063a217fddf146103e857600080fd5b806381a7b894116100e957806381a7b894146103d557806382f8aaca146103e857806384780205146103f0578063861b30301461040357600080fd5b80636c1516e1146103865780636d9164c61461039557806375451b4f146103a85780637dc0d1d0146103c257600080fd5b80632f2ff15d1161019d5780634f64b2be1161016c5780634f64b2be14610331578063530e784f1461034457806356edb31614610357578063596159831461036a578063645006ca1461037d57600080fd5b80632f2ff15d146102d157806336568abe146102e457806345c78f1d146102f75780634ab9e16b1461030a57600080fd5b80631a9753a8116101d95780631a9753a8146102685780632026ffa314610270578063213c79d814610283578063248a9ca3146102ae57600080fd5b806301ffc9a71461020b578063068acf6c1461023357806310c231c7146102485780631977488a1461025f575b600080fd5b61021e610219366004611b19565b61049a565b60405190151581526020015b60405180910390f35b610246610241366004611b58565b6104d1565b005b610251600e5481565b60405190815260200161022a565b61025161271081565b610251600181565b61024661027e366004611bbc565b610568565b600154610296906001600160a01b031681565b6040516001600160a01b03909116815260200161022a565b6102516102bc366004611c83565b60009081526020819052604090206001015490565b6102466102df366004611c9c565b61070c565b6102466102f2366004611c9c565b610737565b601054610296906001600160a01b031681565b6102967f000000000000000000000000000000000000000000000000000000000000000081565b61029661033f366004611c83565b61076a565b610246610352366004611b58565b61078a565b610251610365366004611c83565b610812565b610246610378366004611b58565b610829565b61025160025481565b610251670de0b6b3a764000081565b61021e6103a3366004611d3a565b6108a9565b6103b0600581565b60405160ff909116815260200161022a565b600d54610296906001600160a01b031681565b6102466103e3366004611d79565b610a7f565b610251600081565b6102466103fe366004611c83565b610b1a565b610251600f5481565b61024661041a366004611b58565b610bba565b61021e61042d366004611c9c565b610c3a565b610251610440366004611da3565b610c63565b610251610453366004611d79565b610cfc565b610246610466366004611c9c565b610d76565b610251610d9b565b6102967f000000000000000000000000000000000000000000000000000000000000000081565b60006001600160e01b03198216637965db0b60e01b14806104cb57506301ffc9a760e01b6001600160e01b03198316145b92915050565b60006104dc81610db3565b6040516370a0823160e01b81523060048201526000906001600160a01b038416906370a0823190602401602060405180830381865afa158015610523573d6000803e3d6000fd5b505050506040513d601f19601f820116820180604052508101906105479190611dd0565b90508015610563576105636001600160a01b0384163383610dbd565b505050565b6001546001600160a01b0316336001600160a01b03161461059c576040516304d6e46b60e31b815260040160405180910390fd5b600e5460405163266d6a8360e11b81526000916001600160a01b037f00000000000000000000000000000000000000000000000000000000000000001691634cdad506916105f09160040190815260200190565b602060405180830381865afa15801561060d573d6000803e3d6000fd5b505050506040513d601f19601f820116820180604052508101906106319190611dd0565b9050600f54811115610563576000600f548261064d9190611dff565b604051632d182be560e21b8152600481018290526001600160a01b0386811660248301523060448301529192506000917f0000000000000000000000000000000000000000000000000000000000000000169063b460af94906064016020604051808303816000875af11580156106c8573d6000803e3d6000fd5b505050506040513d601f19601f820116820180604052508101906106ec9190611dd0565b905080600e60008282546107009190611dff565b90915550505050505050565b60008281526020819052604090206001015461072781610db3565b6107318383610e1c565b50505050565b6001600160a01b03811633146107605760405163334bd91960e11b815260040160405180910390fd5b6105638282610eae565b6003816005811061077a57600080fd5b01546001600160a01b0316905081565b600061079581610db3565b6001600160a01b0382166107bc5760405163d92e233d60e01b815260040160405180910390fd5b600d80546001600160a01b0319166001600160a01b0384169081179091556040519081527f6536690106168bdf4ba72c128a053d817999b1db90cae23f139b293bf862cb75906020015b60405180910390a15050565b6008816005811061082257600080fd5b0154905081565b600061083481610db3565b6001600160a01b03821661085b5760405163d92e233d60e01b815260040160405180910390fd5b600180546001600160a01b0319166001600160a01b0384169081179091556040519081527ffa639b2012458fd129b4bf30b2a98c9b56cc3a9ba0606013b8d1f9232cb4498a90602001610806565b6001546000906001600160a01b0316336001600160a01b0316146108e0576040516304d6e46b60e31b815260040160405180910390fd5b60006108eb84610f19565b90506108f8836000610c63565b811015610909576000915050610a78565b60408051600580825260c082019092526000916020820160a08036833701905050905060005b6005811015610a005760006003826005811061094d5761094d611e12565b01546001600160a01b031614610a00576003816005811061097057610970611e12565b01546040516370a0823160e01b81523060048201526001600160a01b03909116906370a0823190602401602060405180830381865afa1580156109b7573d6000803e3d6000fd5b505050506040513d601f19601f820116820180604052508101906109db9190611dd0565b8282815181106109ed576109ed611e12565b602090810291909101015260010161092f565b5081600e6000828254610a139190611dff565b90915550610a25905082856000610f9d565b6040805160a0810191829052610a7191610a6a919060039060059082845b81546001600160a01b03168152600190910190602001808311610a43575050505050611035565b87836110b3565b6001925050505b9392505050565b6001546001600160a01b0316336001600160a01b031614610ab3576040516304d6e46b60e31b815260040160405180910390fd5b610ac1600e54826001610f9d565b6000600e556040805160a0810191829052600380546001600160a01b03168252610b1792610b05929190600590600460208501808311610a43575050505050611035565b33610b12600060056111b4565b6110b3565b50565b6000610b2581610db3565b600082118015610b3757506127108211155b610b785760405162461bcd60e51b815260206004820152600d60248201526c57726f6e6720616d6f756e742160981b60448201526064015b60405180910390fd5b60025460408051918252602082018490527f5fb4589fcdfab8bd40d9776abc10876bb1cb02c0edab28d05cc42869b40e0329910160405180910390a150600255565b6000610bc581610db3565b6001600160a01b038216610bec5760405163d92e233d60e01b815260040160405180910390fd5b601080546001600160a01b0319166001600160a01b0384169081179091556040519081527f113fc8a4a3586fbe8fc642d61341bb99d766df26cec9b27aff5417a921f8621f90602001610806565b6000918252602082815260408084206001600160a01b0393909316845291905290205460ff1690565b60007f00000000000000000000000000000000000000000000000000000000000000006001600160a01b031663c6e6f592610c9d85611233565b6040518263ffffffff1660e01b8152600401610cbb91815260200190565b602060405180830381865afa158015610cd8573d6000803e3d6000fd5b505050506040513d601f19601f82011682018060405250810190610a789190611dd0565b6001546000906001600160a01b0316336001600160a01b031614610d33576040516304d6e46b60e31b815260040160405180910390fd5b610d3c826112ba565b610d4857506000919050565b6000610d5383611439565b905080600e6000828254610d679190611e28565b90915550610a789050816114ec565b600082815260208190526040902060010154610d9181610db3565b6107318383610eae565b6000610dae610da9600e5490565b6114ec565b905090565b610b178133611509565b6040516001600160a01b0383811660248301526044820183905261056391859182169063a9059cbb906064015b604051602081830303815290604052915060e01b6020820180516001600160e01b038381831617835250505050611546565b6000610e288383610c3a565b610ea6576000838152602081815260408083206001600160a01b03861684529091529020805460ff19166001179055610e5e3390565b6001600160a01b0316826001600160a01b0316847f2f8788117e7eff1d82e926ec794901d17c78024a50270940304540a733656f0d60405160405180910390a45060016104cb565b5060006104cb565b6000610eba8383610c3a565b15610ea6576000838152602081815260408083206001600160a01b0386168085529252808320805460ff1916905551339286917ff6391f5c32d9c69d2a47ea670b442974b53935d1edc7fd64eb21e047a839171b9190a45060016104cb565b60008082118015610f325750670de0b6b3a76400008211155b610f765760405162461bcd60e51b815260206004820152601560248201527457726f6e6720506f6f6c546f6b656e20526174696f60581b6044820152606401610b6f565b670de0b6b3a764000082610f89600e5490565b610f939190611e3b565b6104cb9190611e52565b604051635d043b2960e11b815260048101849052306024820181905260448201527f00000000000000000000000000000000000000000000000000000000000000006001600160a01b03169063ba087652906064016020604051808303816000875af1158015611011573d6000803e3d6000fd5b505050506040513d601f19601f820116820180604052508101906107319190611dd0565b60408051600580825260c082019092526060916020820160a08036833701905050905060005b60058110156110ad5782816005811061107657611076611e12565b602002015182828151811061108d5761108d611e12565b6001600160a01b039092166020928302919091019091015260010161105b565b50919050565b60008060005b85518110156111ac578581815181106110d4576110d4611e12565b6020026020010151915060006001600160a01b0316826001600160a01b031603156111ac5783818151811061110b5761110b611e12565b60209081029190910101516040516370a0823160e01b81523060048201526001600160a01b038416906370a0823190602401602060405180830381865afa15801561115a573d6000803e3d6000fd5b505050506040513d601f19601f8201168201806040525081019061117e9190611dd0565b6111889190611dff565b925082156111a4576111a46001600160a01b0383168685610dbd565b6001016110b9565b505050505050565b60608167ffffffffffffffff8111156111cf576111cf611b75565b6040519080825280602002602001820160405280156111f8578160200160208202803683370190505b50905060005b8281101561122c578382828151811061121957611219611e12565b60209081029190910101526001016111fe565b5092915050565b6010548151604051632f69cb6f60e21b81526001600482015260248101919091526000916001600160a01b03169063bda72dbc90604401602060405180830381865afa158015611287573d6000803e3d6000fd5b505050506040513d601f19601f820116820180604052508101906112ab9190611dd0565b60208301516104cb9190611e28565b6040805160a081019182905260009182919060089060059082845b8154815260200190600101908083116112d55750505050509050600080600090505b600581101561134c5782816005811061131257611312611e12565b602002015185826005811061132957611329611e12565b60200201516113389190611e3b565b6113429083611e28565b91506001016112f7565b506000612710600254836113609190611e3b565b61136a9190611e52565b905060007f00000000000000000000000000000000000000000000000000000000000000006001600160a01b031663c6e6f5926113a688611233565b6040518263ffffffff1660e01b81526004016113c491815260200190565b602060405180830381865afa1580156113e1573d6000803e3d6000fd5b505050506040513d601f19601f820116820180604052508101906114059190611dd0565b905081670de0b6b3a76400006114196115a9565b6114239084611e3b565b61142d9190611e52565b10159695505050505050565b6000806114667f00000000000000000000000000000000000000000000000000000000000000008461175c565b905080600f600082825461147a9190611e28565b9091555050604051636e553f6560e01b8152600481018290523060248201527f00000000000000000000000000000000000000000000000000000000000000006001600160a01b031690636e553f65906044016020604051808303816000875af1158015610cd8573d6000803e3d6000fd5b6000670de0b6b3a76400006114ff6115a9565b610f939084611e3b565b6115138282610c3a565b6115425760405163e2517d3f60e01b81526001600160a01b038216600482015260248101839052604401610b6f565b5050565b600061155b6001600160a01b03841683611827565b9050805160001415801561158057508080602001905181019061157e9190611e74565b155b1561056357604051635274afe760e01b81526001600160a01b0384166004820152602401610b6f565b600d54604051638b2f0f4f60e01b815273eeeeeeeeeeeeeeeeeeeeeeeeeeeeeeeeeeeeeeee60048201526000916001600160a01b031690638b2f0f4f90602401602060405180830381865afa158015611606573d6000803e3d6000fd5b505050506040513d601f19601f8201168201806040525081019061162a9190611dd0565b6040516303d1689d60e11b8152670de0b6b3a764000060048201527f00000000000000000000000000000000000000000000000000000000000000006001600160a01b0316906307a2d13a90602401602060405180830381865afa158015611696573d6000803e3d6000fd5b505050506040513d601f19601f820116820180604052508101906116ba9190611dd0565b600d54604051638b2f0f4f60e01b81526001600160a01b037f00000000000000000000000000000000000000000000000000000000000000008116600483015290911690638b2f0f4f90602401602060405180830381865afa158015611724573d6000803e3d6000fd5b505050506040513d601f19601f820116820180604052508101906117489190611dd0565b6117529190611e3b565b610dae9190611e52565b60208101518151801561181057601054600354611786916001600160a01b03918216911683610dbd565b60105460405163cf228d5360e01b81526001600482015260248101839052600060448201526001600160a01b039091169063cf228d53906064016020604051808303816000875af11580156117df573d6000803e3d6000fd5b505050506040513d601f19601f820116820180604052508101906118039190611dd0565b61180d9083611e28565b91505b60045461122c906001600160a01b03168584611835565b6060610a78838360006118bf565b604051636eb1769f60e11b81523060048201526001600160a01b0383811660248301526000919085169063dd62ed3e90604401602060405180830381865afa158015611885573d6000803e3d6000fd5b505050506040513d601f19601f820116820180604052508101906118a99190611dd0565b905061073184846118ba8585611e28565b61195c565b6060814710156118e45760405163cd78605960e01b8152306004820152602401610b6f565b600080856001600160a01b031684866040516119009190611e91565b60006040518083038185875af1925050503d806000811461193d576040519150601f19603f3d011682016040523d82523d6000602084013e611942565b606091505b50915091506119528683836119ec565b9695505050505050565b604080516001600160a01b038416602482015260448082018490528251808303909101815260649091019091526020810180516001600160e01b031663095ea7b360e01b1790526119ad8482611a48565b610731576040516001600160a01b038481166024830152600060448301526119e291869182169063095ea7b390606401610dea565b6107318482611546565b606082611a01576119fc82611af0565b610a78565b8151158015611a1857506001600160a01b0384163b155b15611a4157604051639996b31560e01b81526001600160a01b0385166004820152602401610b6f565b5080610a78565b6000806000846001600160a01b031684604051611a659190611e91565b6000604051808303816000865af19150503d8060008114611aa2576040519150601f19603f3d011682016040523d82523d6000602084013e611aa7565b606091505b5091509150818015611ad1575080511580611ad1575080806020019051810190611ad19190611e74565b8015611ae757506000856001600160a01b03163b115b95945050505050565b805115611b005780518082602001fd5b604051630a12f52160e11b815260040160405180910390fd5b600060208284031215611b2b57600080fd5b81356001600160e01b031981168114610a7857600080fd5b6001600160a01b0381168114610b1757600080fd5b600060208284031215611b6a57600080fd5b8135610a7881611b43565b634e487b7160e01b600052604160045260246000fd5b604051601f8201601f1916810167ffffffffffffffff81118282101715611bb457611bb4611b75565b604052919050565b60008060408385031215611bcf57600080fd5b8235611bda81611b43565b915060208381013567ffffffffffffffff80821115611bf857600080fd5b818601915086601f830112611c0c57600080fd5b813581811115611c1e57611c1e611b75565b8060051b9150611c2f848301611b8b565b8181529183018401918481019089841115611c4957600080fd5b938501935b83851015611c735784359250611c6383611b43565b8282529385019390850190611c4e565b8096505050505050509250929050565b600060208284031215611c9557600080fd5b5035919050565b60008060408385031215611caf57600080fd5b823591506020830135611cc181611b43565b809150509250929050565b600082601f830112611cdd57600080fd5b60405160a0810181811067ffffffffffffffff82111715611d0057611d00611b75565b6040528060a0840185811115611d1557600080fd5b845b81811015611d2f578035835260209283019201611d17565b509195945050505050565b600080600060e08486031215611d4f57600080fd5b8335611d5a81611b43565b925060208401359150611d708560408601611ccc565b90509250925092565b600060a08284031215611d8b57600080fd5b610a788383611ccc565b8015158114610b1757600080fd5b60008060c08385031215611db657600080fd5b611dc08484611ccc565b915060a0830135611cc181611d95565b600060208284031215611de257600080fd5b5051919050565b634e487b7160e01b600052601160045260246000fd5b818103818111156104cb576104cb611de9565b634e487b7160e01b600052603260045260246000fd5b808201808211156104cb576104cb611de9565b80820281158282048414176104cb576104cb611de9565b600082611e6f57634e487b7160e01b600052601260045260246000fd5b500490565b600060208284031215611e8657600080fd5b8151610a7881611d95565b6000825160005b81811015611eb25760208186018101518583015201611e98565b50600092019182525091905056fea2646970667358221220e5629c2bdf86c6d90d3e0ecad7c774cca5fbde970c8a8bbbdf8122e546ef400964736f6c63430008170033",
  "linkReferences": {},
  "deployedLinkReferences": {}
}