{
  "_format": "hh-sol-artifact-1",
  "contractName": "sfrxETHERC4626Strat",
  "sourceName": "contracts/strategies/erc4626/eth/sfrxETHERC4626Strat.sol",
  "abi": [
    {
      "inputs": [],
      "stateMutability": "nonpayable",
      "type": "constructor"
    },
    {
      "inputs": [],
      "name": "AccessControlBadConfirmation",
      "type": "error"
    },
    {
      "inputs": [
        {
          "internalType": "address",
          "name": "account",
          "type": "address"
        },
        {
          "internalType": "bytes32",
          "name": "neededRole",
          "type": "bytes32"
        }
      ],
      "name": "AccessControlUnauthorizedAccount",
      "type": "error"
    },
    {
      "inputs": [
        {
          "internalType": "address",
          "name": "target",
          "type": "address"
        }
      ],
      "name": "AddressEmptyCode",
      "type": "error"
    },
    {
      "inputs": [
        {
          "internalType": "address",
          "name": "account",
          "type": "address"
        }
      ],
      "name": "AddressInsufficientBalance",
      "type": "error"
    },
    {
      "inputs": [],
      "name": "DepositLiquidityValueTooLow",
      "type": "error"
    },
    {
      "inputs": [],
      "name": "FailedInnerCall",
      "type": "error"
    },
    {
      "inputs": [],
      "name": "MustBeCalledByZunamiPool",
      "type": "error"
    },
    {
      "inputs": [],
      "name": "MustHaveOwner",
      "type": "error"
    },
    {
      "inputs": [
        {
          "internalType": "address",
          "name": "token",
          "type": "address"
        }
      ],
      "name": "SafeERC20FailedOperation",
      "type": "error"
    },
    {
      "inputs": [],
      "name": "WrongDecimalMultipliers",
      "type": "error"
    },
    {
      "inputs": [],
      "name": "WrongTokens",
      "type": "error"
    },
    {
      "inputs": [],
      "name": "ZeroAddress",
      "type": "error"
    },
    {
      "inputs": [],
      "name": "ZeroValue",
      "type": "error"
    },
    {
      "anonymous": false,
      "inputs": [
        {
          "indexed": false,
          "internalType": "address",
          "name": "oracleAddr",
          "type": "address"
        }
      ],
      "name": "PriceOracleSet",
      "type": "event"
    },
    {
      "anonymous": false,
      "inputs": [
        {
          "indexed": true,
          "internalType": "bytes32",
          "name": "role",
          "type": "bytes32"
        },
        {
          "indexed": true,
          "internalType": "bytes32",
          "name": "previousAdminRole",
          "type": "bytes32"
        },
        {
          "indexed": true,
          "internalType": "bytes32",
          "name": "newAdminRole",
          "type": "bytes32"
        }
      ],
      "name": "RoleAdminChanged",
      "type": "event"
    },
    {
      "anonymous": false,
      "inputs": [
        {
          "indexed": true,
          "internalType": "bytes32",
          "name": "role",
          "type": "bytes32"
        },
        {
          "indexed": true,
          "internalType": "address",
          "name": "account",
          "type": "address"
        },
        {
          "indexed": true,
          "internalType": "address",
          "name": "sender",
          "type": "address"
        }
      ],
      "name": "RoleGranted",
      "type": "event"
    },
    {
      "anonymous": false,
      "inputs": [
        {
          "indexed": true,
          "internalType": "bytes32",
          "name": "role",
          "type": "bytes32"
        },
        {
          "indexed": true,
          "internalType": "address",
          "name": "account",
          "type": "address"
        },
        {
          "indexed": true,
          "internalType": "address",
          "name": "sender",
          "type": "address"
        }
      ],
      "name": "RoleRevoked",
      "type": "event"
    },
    {
      "anonymous": false,
      "inputs": [
        {
          "indexed": false,
          "internalType": "address",
          "name": "converter",
          "type": "address"
        }
      ],
      "name": "SetTokenConverter",
      "type": "event"
    },
    {
      "anonymous": false,
      "inputs": [
        {
          "indexed": false,
          "internalType": "uint256",
          "name": "oldSlippage",
          "type": "uint256"
        },
        {
          "indexed": false,
          "internalType": "uint256",
          "name": "newSlippage",
          "type": "uint256"
        }
      ],
      "name": "SlippageSet",
      "type": "event"
    },
    {
      "anonymous": false,
      "inputs": [
        {
          "indexed": false,
          "internalType": "address",
          "name": "zunamiPoolAddr",
          "type": "address"
        }
      ],
      "name": "ZunamiPoolSet",
      "type": "event"
    },
    {
      "inputs": [],
      "name": "DEFAULT_ADMIN_ROLE",
      "outputs": [
        {
          "internalType": "bytes32",
          "name": "",
          "type": "bytes32"
        }
      ],
      "stateMutability": "view",
      "type": "function"
    },
    {
      "inputs": [],
      "name": "POOL_ASSETS",
      "outputs": [
        {
          "internalType": "uint8",
          "name": "",
          "type": "uint8"
        }
      ],
      "stateMutability": "view",
      "type": "function"
    },
    {
      "inputs": [],
      "name": "PRICE_DENOMINATOR",
      "outputs": [
        {
          "internalType": "uint256",
          "name": "",
          "type": "uint256"
        }
      ],
      "stateMutability": "view",
      "type": "function"
    },
    {
      "inputs": [],
      "name": "RATIO_MULTIPLIER",
      "outputs": [
        {
          "internalType": "uint256",
          "name": "",
          "type": "uint256"
        }
      ],
      "stateMutability": "view",
      "type": "function"
    },
    {
      "inputs": [],
      "name": "SLIPPAGE_DENOMINATOR",
      "outputs": [
        {
          "internalType": "uint256",
          "name": "",
          "type": "uint256"
        }
      ],
      "stateMutability": "view",
      "type": "function"
    },
    {
      "inputs": [],
      "name": "ZUNAMI_FRXETH_TOKEN_ID",
      "outputs": [
        {
          "internalType": "uint256",
          "name": "",
          "type": "uint256"
        }
      ],
      "stateMutability": "view",
      "type": "function"
    },
    {
      "inputs": [],
      "name": "ZUNAMI_WETH_TOKEN_ID",
      "outputs": [
        {
          "internalType": "uint256",
          "name": "",
          "type": "uint256"
        }
      ],
      "stateMutability": "view",
      "type": "function"
    },
    {
      "inputs": [
        {
          "internalType": "uint256[5]",
          "name": "tokenAmounts",
          "type": "uint256[5]"
        },
        {
          "internalType": "bool",
          "name": "",
          "type": "bool"
        }
      ],
      "name": "calcTokenAmount",
      "outputs": [
        {
          "internalType": "uint256",
          "name": "sharesAmount",
          "type": "uint256"
        }
      ],
      "stateMutability": "view",
      "type": "function"
    },
    {
      "inputs": [
        {
          "internalType": "address",
          "name": "receiver",
          "type": "address"
        },
        {
          "internalType": "contract IERC20[]",
          "name": "rewardTokens",
          "type": "address[]"
        }
      ],
      "name": "claimRewards",
      "outputs": [],
      "stateMutability": "nonpayable",
      "type": "function"
    },
    {
      "inputs": [],
      "name": "converter",
      "outputs": [
        {
          "internalType": "contract ITokenConverter",
          "name": "",
          "type": "address"
        }
      ],
      "stateMutability": "view",
      "type": "function"
    },
    {
      "inputs": [
        {
          "internalType": "uint256[5]",
          "name": "amounts",
          "type": "uint256[5]"
        }
      ],
      "name": "deposit",
      "outputs": [
        {
          "internalType": "uint256",
          "name": "liquidityValue",
          "type": "uint256"
        }
      ],
      "stateMutability": "nonpayable",
      "type": "function"
    },
    {
      "inputs": [],
      "name": "depositedAssets",
      "outputs": [
        {
          "internalType": "uint256",
          "name": "",
          "type": "uint256"
        }
      ],
      "stateMutability": "view",
      "type": "function"
    },
    {
      "inputs": [],
      "name": "depositedLiquidity",
      "outputs": [
        {
          "internalType": "uint256",
          "name": "",
          "type": "uint256"
        }
      ],
      "stateMutability": "view",
      "type": "function"
    },
    {
      "inputs": [
        {
          "internalType": "bytes32",
          "name": "role",
          "type": "bytes32"
        }
      ],
      "name": "getRoleAdmin",
      "outputs": [
        {
          "internalType": "bytes32",
          "name": "",
          "type": "bytes32"
        }
      ],
      "stateMutability": "view",
      "type": "function"
    },
    {
      "inputs": [
        {
          "internalType": "bytes32",
          "name": "role",
          "type": "bytes32"
        },
        {
          "internalType": "address",
          "name": "account",
          "type": "address"
        }
      ],
      "name": "grantRole",
      "outputs": [],
      "stateMutability": "nonpayable",
      "type": "function"
    },
    {
      "inputs": [
        {
          "internalType": "bytes32",
          "name": "role",
          "type": "bytes32"
        },
        {
          "internalType": "address",
          "name": "account",
          "type": "address"
        }
      ],
      "name": "hasRole",
      "outputs": [
        {
          "internalType": "bool",
          "name": "",
          "type": "bool"
        }
      ],
      "stateMutability": "view",
      "type": "function"
    },
    {
      "inputs": [],
      "name": "oracle",
      "outputs": [
        {
          "internalType": "contract IOracle",
          "name": "",
          "type": "address"
        }
      ],
      "stateMutability": "view",
      "type": "function"
    },
    {
      "inputs": [
        {
          "internalType": "bytes32",
          "name": "role",
          "type": "bytes32"
        },
        {
          "internalType": "address",
          "name": "callerConfirmation",
          "type": "address"
        }
      ],
      "name": "renounceRole",
      "outputs": [],
      "stateMutability": "nonpayable",
      "type": "function"
    },
    {
      "inputs": [
        {
          "internalType": "bytes32",
          "name": "role",
          "type": "bytes32"
        },
        {
          "internalType": "address",
          "name": "account",
          "type": "address"
        }
      ],
      "name": "revokeRole",
      "outputs": [],
      "stateMutability": "nonpayable",
      "type": "function"
    },
    {
      "inputs": [
        {
          "internalType": "address",
          "name": "oracleAddr",
          "type": "address"
        }
      ],
      "name": "setPriceOracle",
      "outputs": [],
      "stateMutability": "nonpayable",
      "type": "function"
    },
    {
      "inputs": [
        {
          "internalType": "uint256",
          "name": "_slippage",
          "type": "uint256"
        }
      ],
      "name": "setSlippage",
      "outputs": [],
      "stateMutability": "nonpayable",
      "type": "function"
    },
    {
      "inputs": [
        {
          "internalType": "address",
          "name": "tokenConverterAddr",
          "type": "address"
        }
      ],
      "name": "setTokenConverter",
      "outputs": [],
      "stateMutability": "nonpayable",
      "type": "function"
    },
    {
      "inputs": [
        {
          "internalType": "address",
          "name": "zunamiAddr",
          "type": "address"
        }
      ],
      "name": "setZunamiPool",
      "outputs": [],
      "stateMutability": "nonpayable",
      "type": "function"
    },
    {
      "inputs": [],
      "name": "slippage",
      "outputs": [
        {
          "internalType": "uint256",
          "name": "",
          "type": "uint256"
        }
      ],
      "stateMutability": "view",
      "type": "function"
    },
    {
      "inputs": [
        {
          "internalType": "bytes4",
          "name": "interfaceId",
          "type": "bytes4"
        }
      ],
      "name": "supportsInterface",
      "outputs": [
        {
          "internalType": "bool",
          "name": "",
          "type": "bool"
        }
      ],
      "stateMutability": "view",
      "type": "function"
    },
    {
      "inputs": [
        {
          "internalType": "uint256",
          "name": "",
          "type": "uint256"
        }
      ],
      "name": "tokenDecimalsMultipliers",
      "outputs": [
        {
          "internalType": "uint256",
          "name": "",
          "type": "uint256"
        }
      ],
      "stateMutability": "view",
      "type": "function"
    },
    {
      "inputs": [
        {
          "internalType": "uint256",
          "name": "",
          "type": "uint256"
        }
      ],
      "name": "tokens",
      "outputs": [
        {
          "internalType": "contract IERC20",
          "name": "",
          "type": "address"
        }
      ],
      "stateMutability": "view",
      "type": "function"
    },
    {
      "inputs": [],
      "name": "totalHoldings",
      "outputs": [
        {
          "internalType": "uint256",
          "name": "",
          "type": "uint256"
        }
      ],
      "stateMutability": "view",
      "type": "function"
    },
    {
      "inputs": [],
      "name": "vault",
      "outputs": [
        {
          "internalType": "contract IERC4626",
          "name": "",
          "type": "address"
        }
      ],
      "stateMutability": "view",
      "type": "function"
    },
    {
      "inputs": [],
      "name": "vaultAsset",
      "outputs": [
        {
          "internalType": "contract IERC20",
          "name": "",
          "type": "address"
        }
      ],
      "stateMutability": "view",
      "type": "function"
    },
    {
      "inputs": [
        {
          "internalType": "address",
          "name": "receiver",
          "type": "address"
        },
        {
          "internalType": "uint256",
          "name": "poolTokenRatio",
          "type": "uint256"
        },
        {
          "internalType": "uint256[5]",
          "name": "tokenAmounts",
          "type": "uint256[5]"
        }
      ],
      "name": "withdraw",
      "outputs": [
        {
          "internalType": "bool",
          "name": "",
          "type": "bool"
        }
      ],
      "stateMutability": "nonpayable",
      "type": "function"
    },
    {
      "inputs": [
        {
          "internalType": "uint256[5]",
          "name": "minTokenAmounts",
          "type": "uint256[5]"
        }
      ],
      "name": "withdrawAll",
      "outputs": [],
      "stateMutability": "nonpayable",
      "type": "function"
    },
    {
      "inputs": [
        {
          "internalType": "contract IERC20",
          "name": "_token",
          "type": "address"
        }
      ],
      "name": "withdrawStuckToken",
      "outputs": [],
      "stateMutability": "nonpayable",
      "type": "function"
    },
    {
      "inputs": [],
      "name": "zunamiPool",
      "outputs": [
        {
          "internalType": "contract IPool",
          "name": "",
          "type": "address"
        }
      ],
      "stateMutability": "view",
      "type": "function"
    }
  ],
  "bytecode": "0x60c060405260326002553480156200001657600080fd5b506040805160a0808201835273c02aaa39b223fe8d0a0e5c4f27ead9083c756cc28252735e8422345238f34275888049021821e8e08caa1f60208084018290526000848601819052606080860182905260808087018390528751958601885260018087529386019390935295840181905294830185905282018490529192909173ac3e018457b222d93114458476f3e3416abbe38f91849084908490849084908490620000c49033620002ac565b506000805b600581101562000218578180156200010457506000848260058110620000f357620000f362000400565b60200201516001600160a01b031614155b156200012357604051631d37a6fd60e11b815260040160405180910390fd5b60008482600581106200013a576200013a62000400565b60200201516001600160a01b0316036200015357600191505b60008482600581106200016a576200016a62000400565b60200201516001600160a01b0316141580156200019e575082816005811062000197576200019762000400565b6020020151155b80620001f057506000848260058110620001bc57620001bc62000400565b60200201516001600160a01b0316148015620001f05750828160058110620001e857620001e862000400565b602002015115155b156200020f5760405163bfa45dc560e01b815260040160405180910390fd5b600101620000c9565b506200022860038460056200035b565b50620002386008836005620003b8565b5050506001600160a01b0383169050620002655760405163d92e233d60e01b815260040160405180910390fd5b6001600160a01b0381166200028d5760405163d92e233d60e01b815260040160405180910390fd5b6001600160a01b039182166080521660a0525062000416945050505050565b6000828152602081815260408083206001600160a01b038516845290915281205460ff1662000351576000838152602081815260408083206001600160a01b03861684529091529020805460ff19166001179055620003083390565b6001600160a01b0316826001600160a01b0316847f2f8788117e7eff1d82e926ec794901d17c78024a50270940304540a733656f0d60405160405180910390a450600162000355565b5060005b92915050565b8260058101928215620003a6579160200282015b82811115620003a657825182546001600160a01b0319166001600160a01b039091161782556020909201916001909101906200036f565b50620003b4929150620003e9565b5090565b8260058101928215620003a6579160200282015b82811115620003a6578251825591602001919060010190620003cc565b5b80821115620003b45760008155600101620003ea565b634e487b7160e01b600052603260045260246000fd5b60805160a05161200a62000474600039600081816102fc0152611895015260008181610478015281816109f401528181610d1901528181610dd101528181611193015281816113c10152818161141b0152611808015261200a6000f3fe608060405234801561001057600080fd5b50600436106102065760003560e01c806375451b4f1161011a578063ac905114116100ad578063d547741f1161007c578063d547741f14610445578063d5f651a41461036a578063e9ec2e9914610458578063f0fa55a914610460578063fbfa77cf1461047357600080fd5b8063ac90511414610403578063b67d611d1461040c578063bd38837b1461041f578063c56aa1661461043257600080fd5b8063861b3030116100e9578063861b3030146103d457806391d14854146103dd5780639d57b9a6146103f0578063a217fddf146103cc57600080fd5b806375451b4f1461038c5780637dc0d1d0146103a657806381a7b894146103b957806382f8aaca146103cc57600080fd5b806336568abe1161019d578063530e784f1161016c578063530e784f1461033157806356edb3161461034457806359615983146103575780636c1516e11461036a5780636d9164c61461037957600080fd5b806336568abe146102db5780633e032a3b146102ee5780634ab9e16b146102f75780634f64b2be1461031e57600080fd5b80632026ffa3116101d95780632026ffa314610267578063213c79d81461027a578063248a9ca3146102a55780632f2ff15d146102c857600080fd5b806301ffc9a71461020b578063068acf6c1461023357806310c231c7146102485780631a9753a81461025f575b600080fd5b61021e610219366004611c2d565b61049a565b60405190151581526020015b60405180910390f35b610246610241366004611c6c565b6104d1565b005b610251600e5481565b60405190815260200161022a565b610251600181565b610246610275366004611cd0565b610568565b60015461028d906001600160a01b031681565b6040516001600160a01b03909116815260200161022a565b6102516102b3366004611d97565b60009081526020819052604090206001015490565b6102466102d6366004611db0565b6105be565b6102466102e9366004611db0565b6105e9565b61025160025481565b61028d7f000000000000000000000000000000000000000000000000000000000000000081565b61028d61032c366004611d97565b61061c565b61024661033f366004611c6c565b61063c565b610251610352366004611d97565b6106c4565b610246610365366004611c6c565b6106db565b610251670de0b6b3a764000081565b61021e610387366004611e4e565b61075b565b610394600581565b60405160ff909116815260200161022a565b600d5461028d906001600160a01b031681565b6102466103c7366004611e8d565b610931565b610251600081565b610251600f5481565b61021e6103eb366004611db0565b6109c7565b6102516103fe366004611eb7565b6109f0565b61025161271081565b61025161041a366004611e8d565b610a89565b60105461028d906001600160a01b031681565b610246610440366004611c6c565b610b2d565b610246610453366004611db0565b610bad565b610251610bd2565b61024661046e366004611d97565b610bea565b61028d7f000000000000000000000000000000000000000000000000000000000000000081565b60006001600160e01b03198216637965db0b60e01b14806104cb57506301ffc9a760e01b6001600160e01b03198316145b92915050565b60006104dc81610c93565b6040516370a0823160e01b81523060048201526000906001600160a01b038416906370a0823190602401602060405180830381865afa158015610523573d6000803e3d6000fd5b505050506040513d601f19601f820116820180604052508101906105479190611ee4565b90508015610563576105636001600160a01b0384163383610c9d565b505050565b6001546001600160a01b0316336001600160a01b03161461059c576040516304d6e46b60e31b815260040160405180910390fd5b6105a4610cfc565b6105ba81836105b560008551610e6f565b610eee565b5050565b6000828152602081905260409020600101546105d981610c93565b6105e38383610fef565b50505050565b6001600160a01b03811633146106125760405163334bd91960e11b815260040160405180910390fd5b6105638282611081565b6003816005811061062c57600080fd5b01546001600160a01b0316905081565b600061064781610c93565b6001600160a01b03821661066e5760405163d92e233d60e01b815260040160405180910390fd5b600d80546001600160a01b0319166001600160a01b0384169081179091556040519081527f6536690106168bdf4ba72c128a053d817999b1db90cae23f139b293bf862cb75906020015b60405180910390a15050565b600881600581106106d457600080fd5b0154905081565b60006106e681610c93565b6001600160a01b03821661070d5760405163d92e233d60e01b815260040160405180910390fd5b600180546001600160a01b0319166001600160a01b0384169081179091556040519081527ffa639b2012458fd129b4bf30b2a98c9b56cc3a9ba0606013b8d1f9232cb4498a906020016106b8565b6001546000906001600160a01b0316336001600160a01b031614610792576040516304d6e46b60e31b815260040160405180910390fd5b600061079d846110ec565b90506107aa8360006109f0565b8110156107bb57600091505061092a565b60408051600580825260c082019092526000916020820160a08036833701905050905060005b60058110156108b2576000600382600581106107ff576107ff611efd565b01546001600160a01b0316146108b2576003816005811061082257610822611efd565b01546040516370a0823160e01b81523060048201526001600160a01b03909116906370a0823190602401602060405180830381865afa158015610869573d6000803e3d6000fd5b505050506040513d601f19601f8201168201806040525081019061088d9190611ee4565b82828151811061089f5761089f611efd565b60209081029190910101526001016107e1565b5081600e60008282546108c59190611f29565b909155506108d7905082856000611170565b6040805160a08101918290526109239161091c919060039060059082845b81546001600160a01b031681526001909101906020018083116108f5575050505050611208565b8783610eee565b6001925050505b9392505050565b6001546001600160a01b0316336001600160a01b031614610965576040516304d6e46b60e31b815260040160405180910390fd5b610973600e54826001611170565b6000600e556040805160a0810191829052600380546001600160a01b031682526109c4926109b79291906005906004602085018083116108f5575050505050611208565b336105b560006005610e6f565b50565b6000918252602082815260408084206001600160a01b0393909316845291905290205460ff1690565b60007f00000000000000000000000000000000000000000000000000000000000000006001600160a01b031663c6e6f592610a2a85611286565b6040518263ffffffff1660e01b8152600401610a4891815260200190565b602060405180830381865afa158015610a65573d6000803e3d6000fd5b505050506040513d601f19601f8201168201806040525081019061092a9190611ee4565b6001546000906001600160a01b0316336001600160a01b031614610ac0576040516304d6e46b60e31b815260040160405180910390fd5b6000610acb8361131f565b90506000610ad8846113b9565b905080600e6000828254610aec9190611f3c565b90915550610afb90508161146c565b9250610b0682611489565b831015610b2657604051630224f5df60e11b815260040160405180910390fd5b5050919050565b6000610b3881610c93565b6001600160a01b038216610b5f5760405163d92e233d60e01b815260040160405180910390fd5b601080546001600160a01b0319166001600160a01b0384169081179091556040519081527f18f0ece2d6ea55163aef7a7c841762e706a96c532ed665e8abefaa00d1767fb8906020016106b8565b600082815260208190526040902060010154610bc881610c93565b6105e38383611081565b6000610be5610be0600e5490565b61146c565b905090565b6000610bf581610c93565b600082118015610c0757506127108211155b610c515760405162461bcd60e51b815260206004820152601660248201527557726f6e6720736c697070616765206e756d6265722160501b60448201526064015b60405180910390fd5b60025460408051918252602082018490527f785f467195f308c252d89e7e85c95a6b7646506ba4774a1dc54e0eedc08e3d43910160405180910390a150600255565b6109c4813361149e565b6040516001600160a01b0383811660248301526044820183905261056391859182169063a9059cbb906064015b604051602081830303815290604052915060e01b6020820180516001600160e01b0383818316178352505050506114d7565b600e5460405163266d6a8360e11b81526000916001600160a01b037f00000000000000000000000000000000000000000000000000000000000000001691634cdad50691610d509160040190815260200190565b602060405180830381865afa158015610d6d573d6000803e3d6000fd5b505050506040513d601f19601f82011682018060405250810190610d919190611ee4565b9050600f548111156109c4576000600f5482610dad9190611f29565b6040516363737ac960e11b8152600481018290529091506000906001600160a01b037f0000000000000000000000000000000000000000000000000000000000000000169063c6e6f59290602401602060405180830381865afa158015610e18573d6000803e3d6000fd5b505050506040513d601f19601f82011682018060405250810190610e3c9190611ee4565b9050610e46611c0f565b610e5282826000611170565b81600e6000828254610e649190611f29565b909155505050505050565b60608167ffffffffffffffff811115610e8a57610e8a611c89565b604051908082528060200260200182016040528015610eb3578160200160208202803683370190505b50905060005b82811015610ee75783828281518110610ed457610ed4611efd565b6020908102919091010152600101610eb9565b5092915050565b60008060005b8551811015610fe757858181518110610f0f57610f0f611efd565b6020026020010151915060006001600160a01b0316826001600160a01b03160315610fe757838181518110610f4657610f46611efd565b60209081029190910101516040516370a0823160e01b81523060048201526001600160a01b038416906370a0823190602401602060405180830381865afa158015610f95573d6000803e3d6000fd5b505050506040513d601f19601f82011682018060405250810190610fb99190611ee4565b610fc39190611f29565b92508215610fdf57610fdf6001600160a01b0383168685610c9d565b600101610ef4565b505050505050565b6000610ffb83836109c7565b611079576000838152602081815260408083206001600160a01b03861684529091529020805460ff191660011790556110313390565b6001600160a01b0316826001600160a01b0316847f2f8788117e7eff1d82e926ec794901d17c78024a50270940304540a733656f0d60405160405180910390a45060016104cb565b5060006104cb565b600061108d83836109c7565b15611079576000838152602081815260408083206001600160a01b0386168085529252808320805460ff1916905551339286917ff6391f5c32d9c69d2a47ea670b442974b53935d1edc7fd64eb21e047a839171b9190a45060016104cb565b600080821180156111055750670de0b6b3a76400008211155b6111495760405162461bcd60e51b815260206004820152601560248201527457726f6e6720506f6f6c546f6b656e20526174696f60581b6044820152606401610c48565b670de0b6b3a76400008261115c600e5490565b6111669190611f4f565b6104cb9190611f66565b604051635d043b2960e11b815260048101849052306024820181905260448201527f00000000000000000000000000000000000000000000000000000000000000006001600160a01b03169063ba087652906064016020604051808303816000875af11580156111e4573d6000803e3d6000fd5b505050506040513d601f19601f820116820180604052508101906105e39190611ee4565b60408051600580825260c082019092526060916020820160a08036833701905050905060005b60058110156112805782816005811061124957611249611efd565b602002015182828151811061126057611260611efd565b6001600160a01b039092166020928302919091019091015260010161122e565b50919050565b6010546003546004805484516040516305945a4d60e51b81526001600160a01b039485169381019390935290831660248301526044820152600092919091169063b28b49a090606401602060405180830381865afa1580156112ec573d6000803e3d6000fd5b505050506040513d601f19601f820116820180604052508101906113109190611ee4565b60208301516104cb9190611f3c565b6000805b600581101561128057670de0b6b3a76400006008826005811061134857611348611efd565b015484836005811061135c5761135c611efd565b60200201516113876003856005811061137757611377611efd565b01546001600160a01b031661153a565b6113919190611f4f565b61139b9190611f4f565b6113a59190611f66565b6113af9083611f3c565b9150600101611323565b6000806113e67f000000000000000000000000000000000000000000000000000000000000000084611666565b905080600f60008282546113fa9190611f3c565b9091555050604051636e553f6560e01b8152600481018290523060248201527f00000000000000000000000000000000000000000000000000000000000000006001600160a01b031690636e553f65906044016020604051808303816000875af1158015610a65573d6000803e3d6000fd5b6000670de0b6b3a764000061147f61176a565b6111669084611f4f565b600061271060025461271061147f9190611f29565b6114a882826109c7565b6105ba5760405163e2517d3f60e01b81526001600160a01b038216600482015260248101839052604401610c48565b60006114ec6001600160a01b0384168361191d565b9050805160001415801561151157508080602001905181019061150f9190611f88565b155b1561056357604051635274afe760e01b81526001600160a01b0384166004820152602401610c48565b600073c02aaa39b223fe8d0a0e5c4f27ead9083c756cc1196001600160a01b038316016115705750670de0b6b3a7640000919050565b600d54604051638b2f0f4f60e01b815273eeeeeeeeeeeeeeeeeeeeeeeeeeeeeeeeeeeeeeee60048201526001600160a01b0390911690638b2f0f4f90602401602060405180830381865afa1580156115cc573d6000803e3d6000fd5b505050506040513d601f19601f820116820180604052508101906115f09190611ee4565b600d54604051638b2f0f4f60e01b81526001600160a01b038581166004830152670de0b6b3a7640000921690638b2f0f4f90602401602060405180830381865afa158015611642573d6000803e3d6000fd5b505050506040513d601f19601f8201168201806040525081019061115c9190611ee4565b60208101518151801561175357601054600354611690916001600160a01b03918216911683610c9d565b6010546001600160a01b0316631a378db76003600001546001600160a01b03166003600101546001600160a01b0316846116c981611489565b6040516001600160e01b031960e087901b1681526001600160a01b039485166004820152939092166024840152604483015260648201526084016020604051808303816000875af1158015611722573d6000803e3d6000fd5b505050506040513d601f19601f820116820180604052508101906117469190611ee4565b6117509083611f3c565b91505b600454610ee7906001600160a01b0316858461192b565b600d54604051638b2f0f4f60e01b815273eeeeeeeeeeeeeeeeeeeeeeeeeeeeeeeeeeeeeeee60048201526000916001600160a01b031690638b2f0f4f90602401602060405180830381865afa1580156117c7573d6000803e3d6000fd5b505050506040513d601f19601f820116820180604052508101906117eb9190611ee4565b6040516303d1689d60e11b8152670de0b6b3a764000060048201527f00000000000000000000000000000000000000000000000000000000000000006001600160a01b0316906307a2d13a90602401602060405180830381865afa158015611857573d6000803e3d6000fd5b505050506040513d601f19601f8201168201806040525081019061187b9190611ee4565b600d54604051638b2f0f4f60e01b81526001600160a01b037f00000000000000000000000000000000000000000000000000000000000000008116600483015290911690638b2f0f4f90602401602060405180830381865afa1580156118e5573d6000803e3d6000fd5b505050506040513d601f19601f820116820180604052508101906119099190611ee4565b6119139190611f4f565b610be59190611f66565b606061092a838360006119b5565b604051636eb1769f60e11b81523060048201526001600160a01b0383811660248301526000919085169063dd62ed3e90604401602060405180830381865afa15801561197b573d6000803e3d6000fd5b505050506040513d601f19601f8201168201806040525081019061199f9190611ee4565b90506105e384846119b08585611f3c565b611a52565b6060814710156119da5760405163cd78605960e01b8152306004820152602401610c48565b600080856001600160a01b031684866040516119f69190611fa5565b60006040518083038185875af1925050503d8060008114611a33576040519150601f19603f3d011682016040523d82523d6000602084013e611a38565b606091505b5091509150611a48868383611ae2565b9695505050505050565b604080516001600160a01b038416602482015260448082018490528251808303909101815260649091019091526020810180516001600160e01b031663095ea7b360e01b179052611aa38482611b3e565b6105e3576040516001600160a01b03848116602483015260006044830152611ad891869182169063095ea7b390606401610cca565b6105e384826114d7565b606082611af757611af282611be6565b61092a565b8151158015611b0e57506001600160a01b0384163b155b15611b3757604051639996b31560e01b81526001600160a01b0385166004820152602401610c48565b508061092a565b6000806000846001600160a01b031684604051611b5b9190611fa5565b6000604051808303816000865af19150503d8060008114611b98576040519150601f19603f3d011682016040523d82523d6000602084013e611b9d565b606091505b5091509150818015611bc7575080511580611bc7575080806020019051810190611bc79190611f88565b8015611bdd57506000856001600160a01b03163b115b95945050505050565b805115611bf65780518082602001fd5b604051630a12f52160e11b815260040160405180910390fd5b6040518060a001604052806005906020820280368337509192915050565b600060208284031215611c3f57600080fd5b81356001600160e01b03198116811461092a57600080fd5b6001600160a01b03811681146109c457600080fd5b600060208284031215611c7e57600080fd5b813561092a81611c57565b634e487b7160e01b600052604160045260246000fd5b604051601f8201601f1916810167ffffffffffffffff81118282101715611cc857611cc8611c89565b604052919050565b60008060408385031215611ce357600080fd5b8235611cee81611c57565b915060208381013567ffffffffffffffff80821115611d0c57600080fd5b818601915086601f830112611d2057600080fd5b813581811115611d3257611d32611c89565b8060051b9150611d43848301611c9f565b8181529183018401918481019089841115611d5d57600080fd5b938501935b83851015611d875784359250611d7783611c57565b8282529385019390850190611d62565b8096505050505050509250929050565b600060208284031215611da957600080fd5b5035919050565b60008060408385031215611dc357600080fd5b823591506020830135611dd581611c57565b809150509250929050565b600082601f830112611df157600080fd5b60405160a0810181811067ffffffffffffffff82111715611e1457611e14611c89565b6040528060a0840185811115611e2957600080fd5b845b81811015611e43578035835260209283019201611e2b565b509195945050505050565b600080600060e08486031215611e6357600080fd5b8335611e6e81611c57565b925060208401359150611e848560408601611de0565b90509250925092565b600060a08284031215611e9f57600080fd5b61092a8383611de0565b80151581146109c457600080fd5b60008060c08385031215611eca57600080fd5b611ed48484611de0565b915060a0830135611dd581611ea9565b600060208284031215611ef657600080fd5b5051919050565b634e487b7160e01b600052603260045260246000fd5b634e487b7160e01b600052601160045260246000fd5b818103818111156104cb576104cb611f13565b808201808211156104cb576104cb611f13565b80820281158282048414176104cb576104cb611f13565b600082611f8357634e487b7160e01b600052601260045260246000fd5b500490565b600060208284031215611f9a57600080fd5b815161092a81611ea9565b6000825160005b81811015611fc65760208186018101518583015201611fac565b50600092019182525091905056fea2646970667358221220bf2abe3412c5f87062d068b64a232a9e29d3383cf851e2420fec0e50d1f78eea64736f6c63430008170033",
  "linkReferences": {},
  "deployedLinkReferences": {}
}