{
  "_format": "hh-sol-artifact-1",
  "contractName": "StableConverter",
  "sourceName": "contracts/utils/StableConverter.sol",
  "abi": [
    {
      "inputs": [],
      "stateMutability": "nonpayable",
      "type": "constructor"
    },
    {
      "inputs": [
        {
          "internalType": "address",
          "name": "target",
          "type": "address"
        }
      ],
      "name": "AddressEmptyCode",
      "type": "error"
    },
    {
      "inputs": [
        {
          "internalType": "address",
          "name": "account",
          "type": "address"
        }
      ],
      "name": "AddressInsufficientBalance",
      "type": "error"
    },
    {
      "inputs": [],
      "name": "BrokenSlippage",
      "type": "error"
    },
    {
      "inputs": [],
      "name": "FailedInnerCall",
      "type": "error"
    },
    {
      "inputs": [
        {
          "internalType": "address",
          "name": "token",
          "type": "address"
        }
      ],
      "name": "SafeERC20FailedOperation",
      "type": "error"
    },
    {
      "inputs": [
        {
          "internalType": "address",
          "name": "stable",
          "type": "address"
        }
      ],
      "name": "WrongFromStable",
      "type": "error"
    },
    {
      "inputs": [],
      "name": "WrongSlippage",
      "type": "error"
    },
    {
      "inputs": [
        {
          "internalType": "address",
          "name": "stable",
          "type": "address"
        }
      ],
      "name": "WrongToStable",
      "type": "error"
    },
    {
      "inputs": [],
      "name": "DEFAULT_SLIPPAGE",
      "outputs": [
        {
          "internalType": "uint256",
          "name": "",
          "type": "uint256"
        }
      ],
      "stateMutability": "view",
      "type": "function"
    },
    {
      "inputs": [],
      "name": "SLIPPAGE_DENOMINATOR",
      "outputs": [
        {
          "internalType": "uint256",
          "name": "",
          "type": "uint256"
        }
      ],
      "stateMutability": "view",
      "type": "function"
    },
    {
      "inputs": [
        {
          "internalType": "uint256",
          "name": "",
          "type": "uint256"
        }
      ],
      "name": "SUPPORTED_STABLES",
      "outputs": [
        {
          "internalType": "address",
          "name": "",
          "type": "address"
        }
      ],
      "stateMutability": "view",
      "type": "function"
    },
    {
      "inputs": [],
      "name": "curve3Pool",
      "outputs": [
        {
          "internalType": "contract ICurvePool",
          "name": "",
          "type": "address"
        }
      ],
      "stateMutability": "view",
      "type": "function"
    },
    {
      "inputs": [
        {
          "internalType": "address",
          "name": "",
          "type": "address"
        }
      ],
      "name": "curve3PoolStableDecimals",
      "outputs": [
        {
          "internalType": "int8",
          "name": "",
          "type": "int8"
        }
      ],
      "stateMutability": "view",
      "type": "function"
    },
    {
      "inputs": [
        {
          "internalType": "address",
          "name": "",
          "type": "address"
        }
      ],
      "name": "curve3PoolStableIndex",
      "outputs": [
        {
          "internalType": "int128",
          "name": "",
          "type": "int128"
        }
      ],
      "stateMutability": "view",
      "type": "function"
    },
    {
      "inputs": [
        {
          "internalType": "address",
          "name": "from",
          "type": "address"
        },
        {
          "internalType": "address",
          "name": "to",
          "type": "address"
        },
        {
          "internalType": "uint256",
          "name": "amount",
          "type": "uint256"
        },
        {
          "internalType": "uint256",
          "name": "slippage",
          "type": "uint256"
        }
      ],
      "name": "handle",
      "outputs": [],
      "stateMutability": "nonpayable",
      "type": "function"
    },
    {
      "inputs": [
        {
          "internalType": "address",
          "name": "stable",
          "type": "address"
        }
      ],
      "name": "isStableSupported",
      "outputs": [
        {
          "internalType": "bool",
          "name": "",
          "type": "bool"
        }
      ],
      "stateMutability": "view",
      "type": "function"
    },
    {
      "inputs": [
        {
          "internalType": "address",
          "name": "from",
          "type": "address"
        },
        {
          "internalType": "address",
          "name": "to",
          "type": "address"
        },
        {
          "internalType": "uint256",
          "name": "amount",
          "type": "uint256"
        }
      ],
      "name": "valuate",
      "outputs": [
        {
          "internalType": "uint256",
          "name": "valuation",
          "type": "uint256"
        }
      ],
      "stateMutability": "view",
      "type": "function"
    }
  ],
  "bytecode": "0x610100604052736b175474e89094c44da98b954eedeac495271d0f60a090815273a0b86991c6218b36c1d19d4a2e9eb0ce3606eb4860c05273dac17f958d2ee523a2206206994597c13d831ec760e05261005d9060009060036101b4565b5034801561006a57600080fd5b5073bebc44782c7db0a1a60cb6fe97d0b483032ff1c76080527f441e47f386d1abf8865df2cb7ba5c4249e128119a8946908f73d644d268dacef80546001600160801b03199081169091557f1f26cc04db5725a6013f9a871c79fcbf894bb366deda2d7526896a3d7f7bf1e6805460ff199081166012179091557f37c5eec85d84da1cf053e48828b531c27553684966639a8ba393ecfe725880fd8054831660011790557f2216881abda8ce28bb79ec6ad24ecf589e0594fff84ade38d82ca32ec9eff5c680548216600690811790915573dac17f958d2ee523a2206206994597c13d831ec76000527f82a5f3f697c19feba90e97eb50cf7817270ec4e8adf5c43afb6668e726e6e671805490931660021790925560046020527fce6b0bb3482d6fcd115ad33ec4464c30e4c8b24ec6e3e5aa13819b39c576a85c80549091169091179055610221565b82600381019282156101fc579160200282015b828111156101fc57825182546001600160a01b0319166001600160a01b039091161782556020909201916001909101906101c7565b5061020892915061020c565b5090565b5b80821115610208576000815560010161020d565b608051610d2b6102516000396000818161011001528181610288015281816102e9015261050a0152610d2b6000f3fe608060405234801561001057600080fd5b50600436106100935760003560e01c80636f19a376116100665780636f19a3761461014a5780638955522d1461017f578063a879851014610192578063ac905114146101a8578063b28b49a0146101b157600080fd5b806307902419146100985780630b67dbeb146100c05780631a378db7146100f657806363a6b1da1461010b575b600080fd5b6100ab6100a6366004610a29565b6101c4565b60405190151581526020015b60405180910390f35b6100e36100ce366004610a29565b600360205260009081526040902054600f0b81565b604051600f9190910b81526020016100b7565b610109610104366004610a44565b61020c565b005b6101327f000000000000000000000000000000000000000000000000000000000000000081565b6040516001600160a01b0390911681526020016100b7565b61016c610158366004610a29565b600460205260009081526040812054900b81565b60405160009190910b81526020016100b7565b61013261018d366004610a86565b61042b565b61019a601e81565b6040519081526020016100b7565b61019a61271081565b61019a6101bf366004610a9f565b61044b565b600080546001600160a01b03838116911614806101ee57506001546001600160a01b038381169116145b8061020657506002546001600160a01b038381169116145b92915050565b610215846101c4565b610242576040516333acb85f60e21b81526001600160a01b03851660048201526024015b60405180910390fd5b61024b836101c4565b610273576040516318c5d33b60e31b81526001600160a01b0384166004820152602401610239565b8115610425576102ad6001600160a01b0385167f0000000000000000000000000000000000000000000000000000000000000000846105d9565b6001600160a01b0384811660008181526003602090815260408083205488861680855282852054958552600490935281842054928452908320547f000000000000000000000000000000000000000000000000000000000000000090951694633df0212494600f92830b94920b9288926103399284928a926103349291810b91900b610af1565b610663565b6040516001600160e01b031960e087901b168152600f94850b60048201529290930b602483015260448201526064810191909152608401600060405180830381600087803b15801561038a57600080fd5b505af115801561039e573d6000803e3d6000fd5b50506040516370a0823160e01b8152306004820152859250610423915033906001600160a01b038416906370a0823190602401602060405180830381865afa1580156103ee573d6000803e3d6000fd5b505050506040513d601f19601f820116820180604052508101906104129190610b12565b6001600160a01b0384169190610710565b505b50505050565b6000816003811061043b57600080fd5b01546001600160a01b0316905081565b6000610456846101c4565b61047e576040516333acb85f60e21b81526001600160a01b0385166004820152602401610239565b610487836101c4565b6104af576040516318c5d33b60e31b81526001600160a01b0384166004820152602401610239565b816000036104bf575060006105d2565b6001600160a01b0384811660009081526003602052604080822054868416835291819020549051635e0d443f60e01b8152600f92830b6004820152910b6024820152604481018490527f000000000000000000000000000000000000000000000000000000000000000090911690635e0d443f90606401602060405180830381865afa158015610553573d6000803e3d6000fd5b505050506040513d601f19601f820116820180604052508101906105779190610b12565b6001600160a01b038086166000908152600460205260408082205492871682528120549293506105b29285926103349190830b90830b610af1565b8110156105d2576040516385dfa92d60e01b815260040160405180910390fd5b9392505050565b604051636eb1769f60e11b81523060048201526001600160a01b0383811660248301526000919085169063dd62ed3e90604401602060405180830381865afa158015610629573d6000803e3d6000fd5b505050506040513d601f19601f8201168201806040525081019061064d9190610b12565b9050610425848461065e8585610b2b565b610774565b600061271083111561068857604051633f6fccb560e01b815260040160405180910390fd5b8260000361069557601e92505b60006106a384612710610b3e565b6106ad9086610b51565b905060008360000b12156106e3576106c783600019610b68565b6106d290600a610c73565b6106dc9082610c82565b90506106fb565b6106ee83600a610c73565b6106f89082610b51565b90505b61070761271082610c82565b95945050505050565b6040516001600160a01b0383811660248301526044820183905261076f91859182169063a9059cbb906064015b604051602081830303815290604052915060e01b6020820180516001600160e01b038381831617835250505050610800565b505050565b604080516001600160a01b038416602482015260448082018490528251808303909101815260649091019091526020810180516001600160e01b031663095ea7b360e01b1790526107c58482610863565b610425576040516001600160a01b038481166024830152600060448301526107fa91869182169063095ea7b39060640161073d565b61042584825b60006108156001600160a01b03841683610906565b9050805160001415801561083a5750808060200190518101906108389190610ca4565b155b1561076f57604051635274afe760e01b81526001600160a01b0384166004820152602401610239565b6000806000846001600160a01b0316846040516108809190610cc6565b6000604051808303816000865af19150503d80600081146108bd576040519150601f19603f3d011682016040523d82523d6000602084013e6108c2565b606091505b50915091508180156108ec5750805115806108ec5750808060200190518101906108ec9190610ca4565b80156107075750505050506001600160a01b03163b151590565b60606105d28383600084600080856001600160a01b0316848660405161092c9190610cc6565b60006040518083038185875af1925050503d8060008114610969576040519150601f19603f3d011682016040523d82523d6000602084013e61096e565b606091505b509150915061097e868383610988565b9695505050505050565b60608261099d57610998826109e4565b6105d2565b81511580156109b457506001600160a01b0384163b155b156109dd57604051639996b31560e01b81526001600160a01b0385166004820152602401610239565b50806105d2565b8051156109f45780518082602001fd5b604051630a12f52160e11b815260040160405180910390fd5b80356001600160a01b0381168114610a2457600080fd5b919050565b600060208284031215610a3b57600080fd5b6105d282610a0d565b60008060008060808587031215610a5a57600080fd5b610a6385610a0d565b9350610a7160208601610a0d565b93969395505050506040820135916060013590565b600060208284031215610a9857600080fd5b5035919050565b600080600060608486031215610ab457600080fd5b610abd84610a0d565b9250610acb60208501610a0d565b9150604084013590509250925092565b634e487b7160e01b600052601160045260246000fd5b600082810b9082900b03607f198112607f8213171561020657610206610adb565b600060208284031215610b2457600080fd5b5051919050565b8082018082111561020657610206610adb565b8181038181111561020657610206610adb565b808202811582820484141761020657610206610adb565b60008260000b8260000b028060000b9150808214610b8857610b88610adb565b5092915050565b600181815b80851115610bca578160001904821115610bb057610bb0610adb565b80851615610bbd57918102915b93841c9390800290610b94565b509250929050565b600082610be157506001610206565b81610bee57506000610206565b8160018114610c045760028114610c0e57610c2a565b6001915050610206565b60ff841115610c1f57610c1f610adb565b50506001821b610206565b5060208310610133831016604e8410600b8410161715610c4d575081810a610206565b610c578383610b8f565b8060001904821115610c6b57610c6b610adb565b029392505050565b60006105d260ff841683610bd2565b600082610c9f57634e487b7160e01b600052601260045260246000fd5b500490565b600060208284031215610cb657600080fd5b815180151581146105d257600080fd5b6000825160005b81811015610ce75760208186018101518583015201610ccd565b50600092019182525091905056fea264697066735822122056429fff26aae9732c0f7d855855b80dc3102a5ceef53d90f6df1e03ff428f0664736f6c63430008160033",
  "linkReferences": {},
  "deployedLinkReferences": {}
}