{
  "_format": "hh-sol-artifact-1",
  "contractName": "StableConverter",
  "sourceName": "contracts/utils/StableConverter.sol",
  "abi": [
    {
      "inputs": [],
      "stateMutability": "nonpayable",
      "type": "constructor"
    },
    {
      "inputs": [
        {
          "internalType": "address",
          "name": "target",
          "type": "address"
        }
      ],
      "name": "AddressEmptyCode",
      "type": "error"
    },
    {
      "inputs": [
        {
          "internalType": "address",
          "name": "account",
          "type": "address"
        }
      ],
      "name": "AddressInsufficientBalance",
      "type": "error"
    },
    {
      "inputs": [],
      "name": "BrokenSlippage",
      "type": "error"
    },
    {
      "inputs": [],
      "name": "FailedInnerCall",
      "type": "error"
    },
    {
      "inputs": [
        {
          "internalType": "address",
          "name": "token",
          "type": "address"
        }
      ],
      "name": "SafeERC20FailedOperation",
      "type": "error"
    },
    {
      "inputs": [
        {
          "internalType": "address",
          "name": "stable",
          "type": "address"
        }
      ],
      "name": "WrongFromStable",
      "type": "error"
    },
    {
      "inputs": [],
      "name": "WrongSlippage",
      "type": "error"
    },
    {
      "inputs": [
        {
          "internalType": "address",
          "name": "stable",
          "type": "address"
        }
      ],
      "name": "WrongToStable",
      "type": "error"
    },
    {
      "inputs": [],
      "name": "DEFAULT_SLIPPAGE",
      "outputs": [
        {
          "internalType": "uint256",
          "name": "",
          "type": "uint256"
        }
      ],
      "stateMutability": "view",
      "type": "function"
    },
    {
      "inputs": [],
      "name": "SLIPPAGE_DENOMINATOR",
      "outputs": [
        {
          "internalType": "uint256",
          "name": "",
          "type": "uint256"
        }
      ],
      "stateMutability": "view",
      "type": "function"
    },
    {
      "inputs": [
        {
          "internalType": "uint256",
          "name": "",
          "type": "uint256"
        }
      ],
      "name": "SUPPORTED_STABLES",
      "outputs": [
        {
          "internalType": "address",
          "name": "",
          "type": "address"
        }
      ],
      "stateMutability": "view",
      "type": "function"
    },
    {
      "inputs": [],
      "name": "crvUsdZunUsdPool",
      "outputs": [
        {
          "internalType": "contract ICurvePool",
          "name": "",
          "type": "address"
        }
      ],
      "stateMutability": "view",
      "type": "function"
    },
    {
      "inputs": [],
      "name": "curve3Pool",
      "outputs": [
        {
          "internalType": "contract ICurvePool",
          "name": "",
          "type": "address"
        }
      ],
      "stateMutability": "view",
      "type": "function"
    },
    {
      "inputs": [
        {
          "internalType": "address",
          "name": "",
          "type": "address"
        }
      ],
      "name": "curve3PoolStableIndex",
      "outputs": [
        {
          "internalType": "int128",
          "name": "",
          "type": "int128"
        }
      ],
      "stateMutability": "view",
      "type": "function"
    },
    {
      "inputs": [
        {
          "internalType": "address",
          "name": "from",
          "type": "address"
        },
        {
          "internalType": "address",
          "name": "to",
          "type": "address"
        },
        {
          "internalType": "uint256",
          "name": "amount",
          "type": "uint256"
        },
        {
          "internalType": "uint256",
          "name": "slippage",
          "type": "uint256"
        }
      ],
      "name": "handle",
      "outputs": [],
      "stateMutability": "nonpayable",
      "type": "function"
    },
    {
      "inputs": [
        {
          "internalType": "address",
          "name": "stable",
          "type": "address"
        }
      ],
      "name": "isStableSupported",
      "outputs": [
        {
          "internalType": "bool",
          "name": "",
          "type": "bool"
        }
      ],
      "stateMutability": "view",
      "type": "function"
    },
    {
      "inputs": [
        {
          "internalType": "address",
          "name": "",
          "type": "address"
        }
      ],
      "name": "stablesDecimals",
      "outputs": [
        {
          "internalType": "int8",
          "name": "",
          "type": "int8"
        }
      ],
      "stateMutability": "view",
      "type": "function"
    },
    {
      "inputs": [],
      "name": "usdtCrvUsdPool",
      "outputs": [
        {
          "internalType": "contract ICurvePool",
          "name": "",
          "type": "address"
        }
      ],
      "stateMutability": "view",
      "type": "function"
    },
    {
      "inputs": [
        {
          "internalType": "address",
          "name": "from",
          "type": "address"
        },
        {
          "internalType": "address",
          "name": "to",
          "type": "address"
        },
        {
          "internalType": "uint256",
          "name": "amount",
          "type": "uint256"
        }
      ],
      "name": "valuate",
      "outputs": [
        {
          "internalType": "uint256",
          "name": "valuation",
          "type": "uint256"
        }
      ],
      "stateMutability": "view",
      "type": "function"
    }
  ],
  "bytecode": "0x610100604052736b175474e89094c44da98b954eedeac495271d0f608090815273a0b86991c6218b36c1d19d4a2e9eb0ce3606eb4860a05273dac17f958d2ee523a2206206994597c13d831ec760c052738c0d76c9b18779665475f3e212d9ca1ed6a1a0e660e052610075906000906004610205565b5034801561008257600080fd5b507f28c420d41601e064fc8cc12b320362ca54019acc8f163ced66d9dc6175c0882880546001600160801b03199081169091557f84893e0f271e5f8233d24aa85ba38e0d2ed8f0fc8f608c286ccee51e6c35dd6e8054821660011790557f591a3b2777bc31889c69fb5cad740ac457874aa5ce74c0ad08912df8ad7d112c805460029216821790556020527ff02f5385b52432c1a270c20c346d380219f286755cbd16bede4ce0fb454a47228054601260ff1991821681179092557fb7598821b71eb990d952f174dec3507a6d48dc93be8e23cae785c98ca310bfbb8054600690831681179091557ff4f699a1ef35e64890828cc562d137cceeab28af8455567ef14b6ec385c8e4418054831690911790557fc2710ea183ca8e61de4187e422f87427a67f7ba0242d62cc59b9488d924f7559805482168317905573f939e0a03fb07f59a73314e73794be0e57ac1b4e6000527ff555aa5ca1ea11d7462de021fc1d49cb47adca544879e0a213828d0e84e5a8b08054909116909117905561027f565b82805482825590600052602060002090810192821561025a579160200282015b8281111561025a57825182546001600160a01b0319166001600160a01b03909116178255602090920191600190910190610225565b5061026692915061026a565b5090565b5b80821115610266576000815560010161026b565b6111998061028e6000396000f3fe608060405234801561001057600080fd5b50600436106100a95760003560e01c80638955522d116100715780638955522d1461016f57806394559e17146101825780639f19915c146101b7578063a8798510146101d2578063ac905114146101e8578063b28b49a0146101f157600080fd5b806307902419146100ae5780630b67dbeb146100d65780631a378db71461010c57806337eb26541461012157806363a6b1da14610154575b600080fd5b6100c16100bc366004610e81565b610204565b60405190151581526020015b60405180910390f35b6100f96100e4366004610e81565b600160205260009081526040902054600f0b81565b604051600f9190910b81526020016100cd565b61011f61011a366004610e9c565b6102d8565b005b61013c738c24b3213fd851db80245fccc42c40b94ac9a74581565b6040516001600160a01b0390911681526020016100cd565b61013c73bebc44782c7db0a1a60cb6fe97d0b483032ff1c781565b61013c61017d366004610ede565b610888565b6101a4610190366004610e81565b600260205260009081526040812054900b81565b60405160009190910b81526020016100cd565b61013c73390f3595bca2df7d23783dfd126427cceb997bf481565b6101da601e81565b6040519081526020016100cd565b6101da61271081565b6101da6101ff366004610ef7565b6108b2565b60008060008154811061021957610219610f33565b6000918252602090912001546001600160a01b03838116911614806102685750600060018154811061024d5761024d610f33565b6000918252602090912001546001600160a01b038381169116145b8061029d5750600060028154811061028257610282610f33565b6000918252602090912001546001600160a01b038381169116145b806102d2575060006003815481106102b7576102b7610f33565b6000918252602090912001546001600160a01b038381169116145b92915050565b6102e184610204565b61030e576040516333acb85f60e21b81526001600160a01b03851660048201526024015b60405180910390fd5b61031783610204565b61033f576040516318c5d33b60e31b81526001600160a01b0384166004820152602401610305565b8115610882576001600160a01b038416736b175474e89094c44da98b954eedeac495271d0f148061038c57506001600160a01b03841673a0b86991c6218b36c1d19d4a2e9eb0ce3606eb48145b806103b357506001600160a01b03841673dac17f958d2ee523a2206206994597c13d831ec7145b801561042857506001600160a01b038316736b175474e89094c44da98b954eedeac495271d0f148061040157506001600160a01b03831673a0b86991c6218b36c1d19d4a2e9eb0ce3606eb48145b8061042857506001600160a01b03831673dac17f958d2ee523a2206206994597c13d831ec7145b1561053a576104556001600160a01b03851673bebc44782c7db0a1a60cb6fe97d0b483032ff1c784610a31565b6001600160a01b038481166000818152600160209081526040808320549488168084528184205494845260029092528083205491835282205473bebc44782c7db0a1a60cb6fe97d0b483032ff1c794633df0212494600f91820b94910b9288926104d09284928a926104cb9291820b910b610f5f565b610abb565b6040516001600160e01b031960e087901b168152600f94850b60048201529290930b602483015260448201526064810191909152608401600060405180830381600087803b15801561052157600080fd5b505af1158015610535573d6000803e3d6000fd5b505050505b6001600160a01b03841673dac17f958d2ee523a2206206994597c13d831ec714801561058257506001600160a01b038316738c0d76c9b18779665475f3e212d9ca1ed6a1a0e6145b156107ff576105ba73dac17f958d2ee523a2206206994597c13d831ec773390f3595bca2df7d23783dfd126427cceb997bf484610a31565b60026020527ff4f699a1ef35e64890828cc562d137cceeab28af8455567ef14b6ec385c8e4415473f939e0a03fb07f59a73314e73794be0e57ac1b4e60009081527ff555aa5ca1ea11d7462de021fc1d49cb47adca544879e0a213828d0e84e5a8b05473390f3595bca2df7d23783dfd126427cceb997bf492633df021249291600191879161065691839189916104cb9190880b90880b610f5f565b6040516001600160e01b031960e087901b168152600f94850b60048201529290930b602483015260448201526064810191909152608401600060405180830381600087803b1580156106a757600080fd5b505af11580156106bb573d6000803e3d6000fd5b50506040516370a0823160e01b81523060048201526000925073f939e0a03fb07f59a73314e73794be0e57ac1b4e91506370a0823190602401602060405180830381865afa158015610711573d6000803e3d6000fd5b505050506040513d601f19601f820116820180604052508101906107359190610f80565b905061076a73f939e0a03fb07f59a73314e73794be0e57ac1b4e738c24b3213fd851db80245fccc42c40b94ac9a74583610a31565b738c24b3213fd851db80245fccc42c40b94ac9a745633df021246000600184610794888885610abb565b6040516001600160e01b031960e087901b168152600f94850b60048201529290930b602483015260448201526064810191909152608401600060405180830381600087803b1580156107e557600080fd5b505af11580156107f9573d6000803e3d6000fd5b50505050505b6040516370a0823160e01b815230600482015283906108809033906001600160a01b038416906370a0823190602401602060405180830381865afa15801561084b573d6000803e3d6000fd5b505050506040513d601f19601f8201168201806040525081019061086f9190610f80565b6001600160a01b0384169190610b68565b505b50505050565b6000818154811061089857600080fd5b6000918252602090912001546001600160a01b0316905081565b60006108bd84610204565b6108e5576040516333acb85f60e21b81526001600160a01b0385166004820152602401610305565b6108ee83610204565b610916576040516318c5d33b60e31b81526001600160a01b0384166004820152602401610305565b8160000361092657506000610a2a565b6001600160a01b0384811660009081526001602052604080822054928616825290819020549051635e0d443f60e01b8152600f92830b6004820152910b60248201526044810183905273bebc44782c7db0a1a60cb6fe97d0b483032ff1c790635e0d443f90606401602060405180830381865afa1580156109ab573d6000803e3d6000fd5b505050506040513d601f19601f820116820180604052508101906109cf9190610f80565b6001600160a01b03808616600090815260026020526040808220549287168252812054929350610a0a9285926104cb9190830b90830b610f5f565b811015610a2a576040516385dfa92d60e01b815260040160405180910390fd5b9392505050565b604051636eb1769f60e11b81523060048201526001600160a01b0383811660248301526000919085169063dd62ed3e90604401602060405180830381865afa158015610a81573d6000803e3d6000fd5b505050506040513d601f19601f82011682018060405250810190610aa59190610f80565b90506108828484610ab68585610f99565b610bcc565b6000612710831115610ae057604051633f6fccb560e01b815260040160405180910390fd5b82600003610aed57601e92505b6000610afb84612710610fac565b610b059086610fbf565b905060008360000b1215610b3b57610b1f83600019610fd6565b610b2a90600a6110e1565b610b3490826110f0565b9050610b53565b610b4683600a6110e1565b610b509082610fbf565b90505b610b5f612710826110f0565b95945050505050565b6040516001600160a01b03838116602483015260448201839052610bc791859182169063a9059cbb906064015b604051602081830303815290604052915060e01b6020820180516001600160e01b038381831617835250505050610c58565b505050565b604080516001600160a01b038416602482015260448082018490528251808303909101815260649091019091526020810180516001600160e01b031663095ea7b360e01b179052610c1d8482610cbb565b610882576040516001600160a01b03848116602483015260006044830152610c5291869182169063095ea7b390606401610b95565b61088284825b6000610c6d6001600160a01b03841683610d5e565b90508051600014158015610c92575080806020019051810190610c909190611112565b155b15610bc757604051635274afe760e01b81526001600160a01b0384166004820152602401610305565b6000806000846001600160a01b031684604051610cd89190611134565b6000604051808303816000865af19150503d8060008114610d15576040519150601f19603f3d011682016040523d82523d6000602084013e610d1a565b606091505b5091509150818015610d44575080511580610d44575080806020019051810190610d449190611112565b8015610b5f5750505050506001600160a01b03163b151590565b6060610a2a8383600084600080856001600160a01b03168486604051610d849190611134565b60006040518083038185875af1925050503d8060008114610dc1576040519150601f19603f3d011682016040523d82523d6000602084013e610dc6565b606091505b5091509150610dd6868383610de0565b9695505050505050565b606082610df557610df082610e3c565b610a2a565b8151158015610e0c57506001600160a01b0384163b155b15610e3557604051639996b31560e01b81526001600160a01b0385166004820152602401610305565b5080610a2a565b805115610e4c5780518082602001fd5b604051630a12f52160e11b815260040160405180910390fd5b80356001600160a01b0381168114610e7c57600080fd5b919050565b600060208284031215610e9357600080fd5b610a2a82610e65565b60008060008060808587031215610eb257600080fd5b610ebb85610e65565b9350610ec960208601610e65565b93969395505050506040820135916060013590565b600060208284031215610ef057600080fd5b5035919050565b600080600060608486031215610f0c57600080fd5b610f1584610e65565b9250610f2360208501610e65565b9150604084013590509250925092565b634e487b7160e01b600052603260045260246000fd5b634e487b7160e01b600052601160045260246000fd5b600082810b9082900b03607f198112607f821317156102d2576102d2610f49565b600060208284031215610f9257600080fd5b5051919050565b808201808211156102d2576102d2610f49565b818103818111156102d2576102d2610f49565b80820281158282048414176102d2576102d2610f49565b60008260000b8260000b028060000b9150808214610ff657610ff6610f49565b5092915050565b600181815b8085111561103857816000190482111561101e5761101e610f49565b8085161561102b57918102915b93841c9390800290611002565b509250929050565b60008261104f575060016102d2565b8161105c575060006102d2565b8160018114611072576002811461107c57611098565b60019150506102d2565b60ff84111561108d5761108d610f49565b50506001821b6102d2565b5060208310610133831016604e8410600b84101617156110bb575081810a6102d2565b6110c58383610ffd565b80600019048211156110d9576110d9610f49565b029392505050565b6000610a2a60ff841683611040565b60008261110d57634e487b7160e01b600052601260045260246000fd5b500490565b60006020828403121561112457600080fd5b81518015158114610a2a57600080fd5b6000825160005b81811015611155576020818601810151858301520161113b565b50600092019182525091905056fea2646970667358221220a7369f9358d35a65d9f2540df2da440e6677c90f48403672a2e514c3a2fcdfe464736f6c63430008170033",
  "linkReferences": {},
  "deployedLinkReferences": {}
}