{
  "_format": "hh-sol-artifact-1",
  "contractName": "StakingRewardDistributorGauge",
  "sourceName": "contracts/tokenomics/distributor/gauges/StakingRewardDistributorGauge.sol",
  "abi": [
    {
      "inputs": [
        {
          "internalType": "address",
          "name": "_token",
          "type": "address"
        },
        {
          "internalType": "address",
          "name": "_tokenDistributor",
          "type": "address"
        }
      ],
      "stateMutability": "nonpayable",
      "type": "constructor"
    },
    {
      "inputs": [
        {
          "internalType": "address",
          "name": "target",
          "type": "address"
        }
      ],
      "name": "AddressEmptyCode",
      "type": "error"
    },
    {
      "inputs": [
        {
          "internalType": "address",
          "name": "account",
          "type": "address"
        }
      ],
      "name": "AddressInsufficientBalance",
      "type": "error"
    },
    {
      "inputs": [],
      "name": "FailedInnerCall",
      "type": "error"
    },
    {
      "inputs": [
        {
          "internalType": "address",
          "name": "owner",
          "type": "address"
        }
      ],
      "name": "OwnableInvalidOwner",
      "type": "error"
    },
    {
      "inputs": [
        {
          "internalType": "address",
          "name": "account",
          "type": "address"
        }
      ],
      "name": "OwnableUnauthorizedAccount",
      "type": "error"
    },
    {
      "inputs": [
        {
          "internalType": "address",
          "name": "token",
          "type": "address"
        }
      ],
      "name": "SafeERC20FailedOperation",
      "type": "error"
    },
    {
      "anonymous": false,
      "inputs": [
        {
          "indexed": true,
          "internalType": "address",
          "name": "previousOwner",
          "type": "address"
        },
        {
          "indexed": true,
          "internalType": "address",
          "name": "newOwner",
          "type": "address"
        }
      ],
      "name": "OwnershipTransferStarted",
      "type": "event"
    },
    {
      "anonymous": false,
      "inputs": [
        {
          "indexed": true,
          "internalType": "address",
          "name": "previousOwner",
          "type": "address"
        },
        {
          "indexed": true,
          "internalType": "address",
          "name": "newOwner",
          "type": "address"
        }
      ],
      "name": "OwnershipTransferred",
      "type": "event"
    },
    {
      "inputs": [],
      "name": "REWARD_DISTRIBUTOR",
      "outputs": [
        {
          "internalType": "contract IDistributor",
          "name": "",
          "type": "address"
        }
      ],
      "stateMutability": "view",
      "type": "function"
    },
    {
      "inputs": [],
      "name": "TOKEN",
      "outputs": [
        {
          "internalType": "contract IERC20",
          "name": "",
          "type": "address"
        }
      ],
      "stateMutability": "view",
      "type": "function"
    },
    {
      "inputs": [],
      "name": "acceptOwnership",
      "outputs": [],
      "stateMutability": "nonpayable",
      "type": "function"
    },
    {
      "inputs": [
        {
          "internalType": "uint256",
          "name": "amount",
          "type": "uint256"
        }
      ],
      "name": "distribute",
      "outputs": [],
      "stateMutability": "nonpayable",
      "type": "function"
    },
    {
      "inputs": [],
      "name": "owner",
      "outputs": [
        {
          "internalType": "address",
          "name": "",
          "type": "address"
        }
      ],
      "stateMutability": "view",
      "type": "function"
    },
    {
      "inputs": [],
      "name": "pendingOwner",
      "outputs": [
        {
          "internalType": "address",
          "name": "",
          "type": "address"
        }
      ],
      "stateMutability": "view",
      "type": "function"
    },
    {
      "inputs": [],
      "name": "renounceOwnership",
      "outputs": [],
      "stateMutability": "nonpayable",
      "type": "function"
    },
    {
      "inputs": [
        {
          "internalType": "address",
          "name": "newOwner",
          "type": "address"
        }
      ],
      "name": "transferOwnership",
      "outputs": [],
      "stateMutability": "nonpayable",
      "type": "function"
    },
    {
      "inputs": [
        {
          "internalType": "contract IERC20",
          "name": "_token",
          "type": "address"
        }
      ],
      "name": "withdrawEmergency",
      "outputs": [],
      "stateMutability": "nonpayable",
      "type": "function"
    }
  ],
  "bytecode": "0x60c060405234801561001057600080fd5b50604051610b43380380610b4383398101604081905261002f916101a1565b338061005657604051631e4fbdf760e01b8152600060048201526024015b60405180910390fd5b61005f81610119565b506001600160a01b0382166100ab5760405162461bcd60e51b81526020600482015260126024820152715a65726f20746f6b656e206164647265737360701b604482015260640161004d565b6001600160a01b0380831660a05281166101075760405162461bcd60e51b815260206004820152601560248201527f5a65726f20726563656976657220616464726573730000000000000000000000604482015260640161004d565b6001600160a01b0316608052506101d4565b600180546001600160a01b031916905561013281610135565b50565b600080546001600160a01b038381166001600160a01b0319831681178455604051919092169283917f8be0079c531659141344cd1fd0a4f28419497f9722a3daafe3b4186f6b6457e09190a35050565b80516001600160a01b038116811461019c57600080fd5b919050565b600080604083850312156101b457600080fd5b6101bd83610185565b91506101cb60208401610185565b90509250929050565b60805160a05161092f6102146000396000818160af015281816101d90152610237015260008181610103015281816101fb0152610266015261092f6000f3fe608060405234801561001057600080fd5b50600436106100935760003560e01c80638de728e4116100665780638de728e4146100fe57806391c05b0b14610125578063a1c04f0e14610138578063e30c39781461014b578063f2fde38b1461015c57600080fd5b8063715018a61461009857806379ba5097146100a257806382bfefc8146100aa5780638da5cb5b146100ed575b600080fd5b6100a061016f565b005b6100a0610183565b6100d17f000000000000000000000000000000000000000000000000000000000000000081565b6040516001600160a01b03909116815260200160405180910390f35b6000546001600160a01b03166100d1565b6100d17f000000000000000000000000000000000000000000000000000000000000000081565b6100a0610133366004610823565b6101cc565b6100a0610146366004610851565b6102c5565b6001546001600160a01b03166100d1565b6100a061016a366004610851565b610358565b6101776103c9565b61018160006103f6565b565b60015433906001600160a01b031681146101c05760405163118cdaa760e01b81526001600160a01b03821660048201526024015b60405180910390fd5b6101c9816103f6565b50565b6102206001600160a01b037f0000000000000000000000000000000000000000000000000000000000000000167f00000000000000000000000000000000000000000000000000000000000000008361040f565b604051631f72642160e31b81526001600160a01b037f000000000000000000000000000000000000000000000000000000000000000081166004830152602482018390527f0000000000000000000000000000000000000000000000000000000000000000169063fb93210890604401600060405180830381600087803b1580156102aa57600080fd5b505af11580156102be573d6000803e3d6000fd5b5050505050565b6102cd6103c9565b6040516370a0823160e01b81523060048201526000906001600160a01b038316906370a0823190602401602060405180830381865afa158015610314573d6000803e3d6000fd5b505050506040513d601f19601f82011682018060405250810190610338919061086e565b90508015610354576103546001600160a01b038316338361049f565b5050565b6103606103c9565b600180546001600160a01b0383166001600160a01b031990911681179091556103916000546001600160a01b031690565b6001600160a01b03167f38d16b8cac22d99fc7c124b9cd0de2d3fa1faef420bfe791d8c362d765e2270060405160405180910390a350565b6000546001600160a01b031633146101815760405163118cdaa760e01b81523360048201526024016101b7565b600180546001600160a01b03191690556101c981610503565b604051636eb1769f60e11b81523060048201526001600160a01b0383811660248301526000919085169063dd62ed3e90604401602060405180830381865afa15801561045f573d6000803e3d6000fd5b505050506040513d601f19601f82011682018060405250810190610483919061086e565b905061049984846104948585610887565b610553565b50505050565b6040516001600160a01b038381166024830152604482018390526104fe91859182169063a9059cbb906064015b604051602081830303815290604052915060e01b6020820180516001600160e01b0383818316178352505050506105df565b505050565b600080546001600160a01b038381166001600160a01b0319831681178455604051919092169283917f8be0079c531659141344cd1fd0a4f28419497f9722a3daafe3b4186f6b6457e09190a35050565b604080516001600160a01b038416602482015260448082018490528251808303909101815260649091019091526020810180516001600160e01b031663095ea7b360e01b1790526105a48482610642565b610499576040516001600160a01b038481166024830152600060448301526105d991869182169063095ea7b3906064016104cc565b61049984825b60006105f46001600160a01b038416836106ec565b9050805160001415801561061957508080602001905181019061061791906108a8565b155b156104fe57604051635274afe760e01b81526001600160a01b03841660048201526024016101b7565b6000806000846001600160a01b03168460405161065f91906108ca565b6000604051808303816000865af19150503d806000811461069c576040519150601f19603f3d011682016040523d82523d6000602084013e6106a1565b606091505b50915091508180156106cb5750805115806106cb5750808060200190518101906106cb91906108a8565b80156106e157506000856001600160a01b03163b115b925050505b92915050565b60606106fa83836000610701565b9392505050565b6060814710156107265760405163cd78605960e01b81523060048201526024016101b7565b600080856001600160a01b0316848660405161074291906108ca565b60006040518083038185875af1925050503d806000811461077f576040519150601f19603f3d011682016040523d82523d6000602084013e610784565b606091505b509150915061079486838361079e565b9695505050505050565b6060826107b3576107ae826107fa565b6106fa565b81511580156107ca57506001600160a01b0384163b155b156107f357604051639996b31560e01b81526001600160a01b03851660048201526024016101b7565b50806106fa565b80511561080a5780518082602001fd5b604051630a12f52160e11b815260040160405180910390fd5b60006020828403121561083557600080fd5b5035919050565b6001600160a01b03811681146101c957600080fd5b60006020828403121561086357600080fd5b81356106fa8161083c565b60006020828403121561088057600080fd5b5051919050565b808201808211156106e657634e487b7160e01b600052601160045260246000fd5b6000602082840312156108ba57600080fd5b815180151581146106fa57600080fd5b6000825160005b818110156108eb57602081860181015185830152016108d1565b50600092019182525091905056fea2646970667358221220afca21d1789becc597972198d3fa63822b4a5faf98a337329bcea773cf52f6b164736f6c63430008170033",
  "linkReferences": {},
  "deployedLinkReferences": {}
}