{
  "_format": "hh-sol-artifact-1",
  "contractName": "StakingRewardDistributor",
  "sourceName": "contracts/tokenomics/staking/StakingRewardDistributor.sol",
  "abi": [
    {
      "inputs": [],
      "name": "AbsentRewardToken",
      "type": "error"
    },
    {
      "inputs": [],
      "name": "AccessControlBadConfirmation",
      "type": "error"
    },
    {
      "inputs": [
        {
          "internalType": "address",
          "name": "account",
          "type": "address"
        },
        {
          "internalType": "bytes32",
          "name": "neededRole",
          "type": "bytes32"
        }
      ],
      "name": "AccessControlUnauthorizedAccount",
      "type": "error"
    },
    {
      "inputs": [
        {
          "internalType": "address",
          "name": "target",
          "type": "address"
        }
      ],
      "name": "AddressEmptyCode",
      "type": "error"
    },
    {
      "inputs": [
        {
          "internalType": "address",
          "name": "account",
          "type": "address"
        }
      ],
      "name": "AddressInsufficientBalance",
      "type": "error"
    },
    {
      "inputs": [],
      "name": "ECDSAInvalidSignature",
      "type": "error"
    },
    {
      "inputs": [
        {
          "internalType": "uint256",
          "name": "length",
          "type": "uint256"
        }
      ],
      "name": "ECDSAInvalidSignatureLength",
      "type": "error"
    },
    {
      "inputs": [
        {
          "internalType": "bytes32",
          "name": "s",
          "type": "bytes32"
        }
      ],
      "name": "ECDSAInvalidSignatureS",
      "type": "error"
    },
    {
      "inputs": [
        {
          "internalType": "address",
          "name": "implementation",
          "type": "address"
        }
      ],
      "name": "ERC1967InvalidImplementation",
      "type": "error"
    },
    {
      "inputs": [],
      "name": "ERC1967NonPayable",
      "type": "error"
    },
    {
      "inputs": [
        {
          "internalType": "address",
          "name": "spender",
          "type": "address"
        },
        {
          "internalType": "uint256",
          "name": "allowance",
          "type": "uint256"
        },
        {
          "internalType": "uint256",
          "name": "needed",
          "type": "uint256"
        }
      ],
      "name": "ERC20InsufficientAllowance",
      "type": "error"
    },
    {
      "inputs": [
        {
          "internalType": "address",
          "name": "sender",
          "type": "address"
        },
        {
          "internalType": "uint256",
          "name": "balance",
          "type": "uint256"
        },
        {
          "internalType": "uint256",
          "name": "needed",
          "type": "uint256"
        }
      ],
      "name": "ERC20InsufficientBalance",
      "type": "error"
    },
    {
      "inputs": [
        {
          "internalType": "address",
          "name": "approver",
          "type": "address"
        }
      ],
      "name": "ERC20InvalidApprover",
      "type": "error"
    },
    {
      "inputs": [
        {
          "internalType": "address",
          "name": "receiver",
          "type": "address"
        }
      ],
      "name": "ERC20InvalidReceiver",
      "type": "error"
    },
    {
      "inputs": [
        {
          "internalType": "address",
          "name": "sender",
          "type": "address"
        }
      ],
      "name": "ERC20InvalidSender",
      "type": "error"
    },
    {
      "inputs": [
        {
          "internalType": "address",
          "name": "spender",
          "type": "address"
        }
      ],
      "name": "ERC20InvalidSpender",
      "type": "error"
    },
    {
      "inputs": [
        {
          "internalType": "uint256",
          "name": "deadline",
          "type": "uint256"
        }
      ],
      "name": "ERC2612ExpiredSignature",
      "type": "error"
    },
    {
      "inputs": [
        {
          "internalType": "address",
          "name": "signer",
          "type": "address"
        },
        {
          "internalType": "address",
          "name": "owner",
          "type": "address"
        }
      ],
      "name": "ERC2612InvalidSigner",
      "type": "error"
    },
    {
      "inputs": [],
      "name": "FailedInnerCall",
      "type": "error"
    },
    {
      "inputs": [
        {
          "internalType": "address",
          "name": "account",
          "type": "address"
        },
        {
          "internalType": "uint256",
          "name": "currentNonce",
          "type": "uint256"
        }
      ],
      "name": "InvalidAccountNonce",
      "type": "error"
    },
    {
      "inputs": [],
      "name": "InvalidInitialization",
      "type": "error"
    },
    {
      "inputs": [],
      "name": "NotInitializing",
      "type": "error"
    },
    {
      "inputs": [],
      "name": "ReentrancyGuardReentrantCall",
      "type": "error"
    },
    {
      "inputs": [
        {
          "internalType": "address",
          "name": "token",
          "type": "address"
        }
      ],
      "name": "SafeERC20FailedOperation",
      "type": "error"
    },
    {
      "inputs": [],
      "name": "TokenAlreadyAdded",
      "type": "error"
    },
    {
      "inputs": [],
      "name": "UUPSUnauthorizedCallContext",
      "type": "error"
    },
    {
      "inputs": [
        {
          "internalType": "bytes32",
          "name": "slot",
          "type": "bytes32"
        }
      ],
      "name": "UUPSUnsupportedProxiableUUID",
      "type": "error"
    },
    {
      "inputs": [],
      "name": "WrongAmount",
      "type": "error"
    },
    {
      "inputs": [],
      "name": "ZeroAddress",
      "type": "error"
    },
    {
      "inputs": [],
      "name": "ZeroAmount",
      "type": "error"
    },
    {
      "inputs": [],
      "name": "ZeroSupply",
      "type": "error"
    },
    {
      "anonymous": false,
      "inputs": [
        {
          "indexed": true,
          "internalType": "address",
          "name": "owner",
          "type": "address"
        },
        {
          "indexed": true,
          "internalType": "address",
          "name": "spender",
          "type": "address"
        },
        {
          "indexed": false,
          "internalType": "uint256",
          "name": "value",
          "type": "uint256"
        }
      ],
      "name": "Approval",
      "type": "event"
    },
    {
      "anonymous": false,
      "inputs": [
        {
          "indexed": true,
          "internalType": "address",
          "name": "user",
          "type": "address"
        },
        {
          "indexed": true,
          "internalType": "uint256",
          "name": "tid",
          "type": "uint256"
        },
        {
          "indexed": false,
          "internalType": "uint256",
          "name": "amount",
          "type": "uint256"
        }
      ],
      "name": "Claimed",
      "type": "event"
    },
    {
      "anonymous": false,
      "inputs": [
        {
          "indexed": true,
          "internalType": "address",
          "name": "user",
          "type": "address"
        },
        {
          "indexed": false,
          "internalType": "uint256",
          "name": "amount",
          "type": "uint256"
        }
      ],
      "name": "Deposited",
      "type": "event"
    },
    {
      "anonymous": false,
      "inputs": [
        {
          "indexed": true,
          "internalType": "uint256",
          "name": "tid",
          "type": "uint256"
        },
        {
          "indexed": false,
          "internalType": "uint256",
          "name": "distribution",
          "type": "uint256"
        }
      ],
      "name": "DistributionUpdated",
      "type": "event"
    },
    {
      "anonymous": false,
      "inputs": [],
      "name": "EIP712DomainChanged",
      "type": "event"
    },
    {
      "anonymous": false,
      "inputs": [
        {
          "indexed": false,
          "internalType": "uint64",
          "name": "version",
          "type": "uint64"
        }
      ],
      "name": "Initialized",
      "type": "event"
    },
    {
      "anonymous": false,
      "inputs": [
        {
          "indexed": true,
          "internalType": "address",
          "name": "token",
          "type": "address"
        },
        {
          "indexed": true,
          "internalType": "uint256",
          "name": "tid",
          "type": "uint256"
        }
      ],
      "name": "RewardTokenAdded",
      "type": "event"
    },
    {
      "anonymous": false,
      "inputs": [
        {
          "indexed": true,
          "internalType": "address",
          "name": "claimant",
          "type": "address"
        },
        {
          "indexed": true,
          "internalType": "address",
          "name": "receiver",
          "type": "address"
        }
      ],
      "name": "RewardsReceiverSet",
      "type": "event"
    },
    {
      "anonymous": false,
      "inputs": [
        {
          "indexed": true,
          "internalType": "bytes32",
          "name": "role",
          "type": "bytes32"
        },
        {
          "indexed": true,
          "internalType": "bytes32",
          "name": "previousAdminRole",
          "type": "bytes32"
        },
        {
          "indexed": true,
          "internalType": "bytes32",
          "name": "newAdminRole",
          "type": "bytes32"
        }
      ],
      "name": "RoleAdminChanged",
      "type": "event"
    },
    {
      "anonymous": false,
      "inputs": [
        {
          "indexed": true,
          "internalType": "bytes32",
          "name": "role",
          "type": "bytes32"
        },
        {
          "indexed": true,
          "internalType": "address",
          "name": "account",
          "type": "address"
        },
        {
          "indexed": true,
          "internalType": "address",
          "name": "sender",
          "type": "address"
        }
      ],
      "name": "RoleGranted",
      "type": "event"
    },
    {
      "anonymous": false,
      "inputs": [
        {
          "indexed": true,
          "internalType": "bytes32",
          "name": "role",
          "type": "bytes32"
        },
        {
          "indexed": true,
          "internalType": "address",
          "name": "account",
          "type": "address"
        },
        {
          "indexed": true,
          "internalType": "address",
          "name": "sender",
          "type": "address"
        }
      ],
      "name": "RoleRevoked",
      "type": "event"
    },
    {
      "anonymous": false,
      "inputs": [
        {
          "indexed": true,
          "internalType": "address",
          "name": "from",
          "type": "address"
        },
        {
          "indexed": true,
          "internalType": "address",
          "name": "to",
          "type": "address"
        },
        {
          "indexed": false,
          "internalType": "uint256",
          "name": "value",
          "type": "uint256"
        }
      ],
      "name": "Transfer",
      "type": "event"
    },
    {
      "anonymous": false,
      "inputs": [
        {
          "indexed": true,
          "internalType": "address",
          "name": "implementation",
          "type": "address"
        }
      ],
      "name": "Upgraded",
      "type": "event"
    },
    {
      "anonymous": false,
      "inputs": [
        {
          "indexed": true,
          "internalType": "uint256",
          "name": "tid",
          "type": "uint256"
        },
        {
          "indexed": true,
          "internalType": "address",
          "name": "user",
          "type": "address"
        },
        {
          "indexed": false,
          "internalType": "uint256",
          "name": "distribution",
          "type": "uint256"
        }
      ],
      "name": "UserDistributionUpdated",
      "type": "event"
    },
    {
      "anonymous": false,
      "inputs": [
        {
          "indexed": true,
          "internalType": "address",
          "name": "user",
          "type": "address"
        },
        {
          "indexed": false,
          "internalType": "uint256",
          "name": "amount",
          "type": "uint256"
        }
      ],
      "name": "Withdrawn",
      "type": "event"
    },
    {
      "inputs": [],
      "name": "DEFAULT_ADMIN_ROLE",
      "outputs": [
        {
          "internalType": "bytes32",
          "name": "",
          "type": "bytes32"
        }
      ],
      "stateMutability": "view",
      "type": "function"
    },
    {
      "inputs": [],
      "name": "DISTRIBUTION_DENOMINATOR",
      "outputs": [
        {
          "internalType": "uint256",
          "name": "",
          "type": "uint256"
        }
      ],
      "stateMutability": "view",
      "type": "function"
    },
    {
      "inputs": [],
      "name": "DISTRIBUTOR_ROLE",
      "outputs": [
        {
          "internalType": "bytes32",
          "name": "",
          "type": "bytes32"
        }
      ],
      "stateMutability": "view",
      "type": "function"
    },
    {
      "inputs": [],
      "name": "DOMAIN_SEPARATOR",
      "outputs": [
        {
          "internalType": "bytes32",
          "name": "",
          "type": "bytes32"
        }
      ],
      "stateMutability": "view",
      "type": "function"
    },
    {
      "inputs": [],
      "name": "UPGRADE_INTERFACE_VERSION",
      "outputs": [
        {
          "internalType": "string",
          "name": "",
          "type": "string"
        }
      ],
      "stateMutability": "view",
      "type": "function"
    },
    {
      "inputs": [
        {
          "internalType": "contract IERC20",
          "name": "_token",
          "type": "address"
        }
      ],
      "name": "addRewardToken",
      "outputs": [],
      "stateMutability": "nonpayable",
      "type": "function"
    },
    {
      "inputs": [
        {
          "internalType": "address",
          "name": "owner",
          "type": "address"
        },
        {
          "internalType": "address",
          "name": "spender",
          "type": "address"
        }
      ],
      "name": "allowance",
      "outputs": [
        {
          "internalType": "uint256",
          "name": "",
          "type": "uint256"
        }
      ],
      "stateMutability": "view",
      "type": "function"
    },
    {
      "inputs": [
        {
          "internalType": "address",
          "name": "spender",
          "type": "address"
        },
        {
          "internalType": "uint256",
          "name": "value",
          "type": "uint256"
        }
      ],
      "name": "approve",
      "outputs": [
        {
          "internalType": "bool",
          "name": "",
          "type": "bool"
        }
      ],
      "stateMutability": "nonpayable",
      "type": "function"
    },
    {
      "inputs": [
        {
          "internalType": "address",
          "name": "account",
          "type": "address"
        }
      ],
      "name": "balanceOf",
      "outputs": [
        {
          "internalType": "uint256",
          "name": "",
          "type": "uint256"
        }
      ],
      "stateMutability": "view",
      "type": "function"
    },
    {
      "inputs": [
        {
          "internalType": "address",
          "name": "_receiver",
          "type": "address"
        }
      ],
      "name": "claim",
      "outputs": [],
      "stateMutability": "nonpayable",
      "type": "function"
    },
    {
      "inputs": [
        {
          "internalType": "uint256",
          "name": "",
          "type": "uint256"
        },
        {
          "internalType": "address",
          "name": "",
          "type": "address"
        }
      ],
      "name": "claimableRewards",
      "outputs": [
        {
          "internalType": "uint256",
          "name": "",
          "type": "uint256"
        }
      ],
      "stateMutability": "view",
      "type": "function"
    },
    {
      "inputs": [
        {
          "internalType": "uint256",
          "name": "",
          "type": "uint256"
        },
        {
          "internalType": "address",
          "name": "",
          "type": "address"
        }
      ],
      "name": "claimedRewards",
      "outputs": [
        {
          "internalType": "uint256",
          "name": "",
          "type": "uint256"
        }
      ],
      "stateMutability": "view",
      "type": "function"
    },
    {
      "inputs": [],
      "name": "decimals",
      "outputs": [
        {
          "internalType": "uint8",
          "name": "",
          "type": "uint8"
        }
      ],
      "stateMutability": "view",
      "type": "function"
    },
    {
      "inputs": [
        {
          "internalType": "uint256",
          "name": "_amount",
          "type": "uint256"
        },
        {
          "internalType": "address",
          "name": "_receiver",
          "type": "address"
        }
      ],
      "name": "deposit",
      "outputs": [],
      "stateMutability": "nonpayable",
      "type": "function"
    },
    {
      "inputs": [
        {
          "internalType": "address",
          "name": "_token",
          "type": "address"
        },
        {
          "internalType": "uint256",
          "name": "_amount",
          "type": "uint256"
        }
      ],
      "name": "distribute",
      "outputs": [],
      "stateMutability": "nonpayable",
      "type": "function"
    },
    {
      "inputs": [],
      "name": "eip712Domain",
      "outputs": [
        {
          "internalType": "bytes1",
          "name": "fields",
          "type": "bytes1"
        },
        {
          "internalType": "string",
          "name": "name",
          "type": "string"
        },
        {
          "internalType": "string",
          "name": "version",
          "type": "string"
        },
        {
          "internalType": "uint256",
          "name": "chainId",
          "type": "uint256"
        },
        {
          "internalType": "address",
          "name": "verifyingContract",
          "type": "address"
        },
        {
          "internalType": "bytes32",
          "name": "salt",
          "type": "bytes32"
        },
        {
          "internalType": "uint256[]",
          "name": "extensions",
          "type": "uint256[]"
        }
      ],
      "stateMutability": "view",
      "type": "function"
    },
    {
      "inputs": [
        {
          "internalType": "uint256",
          "name": "_tid",
          "type": "uint256"
        },
        {
          "internalType": "address",
          "name": "_user",
          "type": "address"
        }
      ],
      "name": "getPendingReward",
      "outputs": [
        {
          "internalType": "uint256",
          "name": "",
          "type": "uint256"
        }
      ],
      "stateMutability": "view",
      "type": "function"
    },
    {
      "inputs": [
        {
          "internalType": "bytes32",
          "name": "role",
          "type": "bytes32"
        }
      ],
      "name": "getRoleAdmin",
      "outputs": [
        {
          "internalType": "bytes32",
          "name": "",
          "type": "bytes32"
        }
      ],
      "stateMutability": "view",
      "type": "function"
    },
    {
      "inputs": [
        {
          "internalType": "bytes32",
          "name": "role",
          "type": "bytes32"
        },
        {
          "internalType": "address",
          "name": "account",
          "type": "address"
        }
      ],
      "name": "grantRole",
      "outputs": [],
      "stateMutability": "nonpayable",
      "type": "function"
    },
    {
      "inputs": [
        {
          "internalType": "bytes32",
          "name": "role",
          "type": "bytes32"
        },
        {
          "internalType": "address",
          "name": "account",
          "type": "address"
        }
      ],
      "name": "hasRole",
      "outputs": [
        {
          "internalType": "bool",
          "name": "",
          "type": "bool"
        }
      ],
      "stateMutability": "view",
      "type": "function"
    },
    {
      "inputs": [
        {
          "internalType": "address",
          "name": "_token",
          "type": "address"
        },
        {
          "internalType": "string",
          "name": "_name",
          "type": "string"
        },
        {
          "internalType": "string",
          "name": "_symbol",
          "type": "string"
        },
        {
          "internalType": "address",
          "name": "_defaultAdmin",
          "type": "address"
        }
      ],
      "name": "initialize",
      "outputs": [],
      "stateMutability": "nonpayable",
      "type": "function"
    },
    {
      "inputs": [
        {
          "internalType": "address",
          "name": "_token",
          "type": "address"
        }
      ],
      "name": "isRewardTokenAdded",
      "outputs": [
        {
          "internalType": "bool",
          "name": "",
          "type": "bool"
        }
      ],
      "stateMutability": "view",
      "type": "function"
    },
    {
      "inputs": [],
      "name": "name",
      "outputs": [
        {
          "internalType": "string",
          "name": "",
          "type": "string"
        }
      ],
      "stateMutability": "view",
      "type": "function"
    },
    {
      "inputs": [
        {
          "internalType": "address",
          "name": "owner",
          "type": "address"
        }
      ],
      "name": "nonces",
      "outputs": [
        {
          "internalType": "uint256",
          "name": "",
          "type": "uint256"
        }
      ],
      "stateMutability": "view",
      "type": "function"
    },
    {
      "inputs": [
        {
          "internalType": "address",
          "name": "owner",
          "type": "address"
        },
        {
          "internalType": "address",
          "name": "spender",
          "type": "address"
        },
        {
          "internalType": "uint256",
          "name": "value",
          "type": "uint256"
        },
        {
          "internalType": "uint256",
          "name": "deadline",
          "type": "uint256"
        },
        {
          "internalType": "uint8",
          "name": "v",
          "type": "uint8"
        },
        {
          "internalType": "bytes32",
          "name": "r",
          "type": "bytes32"
        },
        {
          "internalType": "bytes32",
          "name": "s",
          "type": "bytes32"
        }
      ],
      "name": "permit",
      "outputs": [],
      "stateMutability": "nonpayable",
      "type": "function"
    },
    {
      "inputs": [],
      "name": "proxiableUUID",
      "outputs": [
        {
          "internalType": "bytes32",
          "name": "",
          "type": "bytes32"
        }
      ],
      "stateMutability": "view",
      "type": "function"
    },
    {
      "inputs": [
        {
          "internalType": "bytes32",
          "name": "role",
          "type": "bytes32"
        },
        {
          "internalType": "address",
          "name": "callerConfirmation",
          "type": "address"
        }
      ],
      "name": "renounceRole",
      "outputs": [],
      "stateMutability": "nonpayable",
      "type": "function"
    },
    {
      "inputs": [
        {
          "internalType": "bytes32",
          "name": "role",
          "type": "bytes32"
        },
        {
          "internalType": "address",
          "name": "account",
          "type": "address"
        }
      ],
      "name": "revokeRole",
      "outputs": [],
      "stateMutability": "nonpayable",
      "type": "function"
    },
    {
      "inputs": [],
      "name": "rewardTokenCount",
      "outputs": [
        {
          "internalType": "uint256",
          "name": "",
          "type": "uint256"
        }
      ],
      "stateMutability": "view",
      "type": "function"
    },
    {
      "inputs": [
        {
          "internalType": "uint256",
          "name": "",
          "type": "uint256"
        }
      ],
      "name": "rewardTokenInfo",
      "outputs": [
        {
          "internalType": "contract IERC20",
          "name": "token",
          "type": "address"
        },
        {
          "internalType": "uint256",
          "name": "balance",
          "type": "uint256"
        },
        {
          "internalType": "uint256",
          "name": "distribution",
          "type": "uint256"
        }
      ],
      "stateMutability": "view",
      "type": "function"
    },
    {
      "inputs": [
        {
          "internalType": "address",
          "name": "",
          "type": "address"
        }
      ],
      "name": "rewardTokenTidByAddress",
      "outputs": [
        {
          "internalType": "uint256",
          "name": "",
          "type": "uint256"
        }
      ],
      "stateMutability": "view",
      "type": "function"
    },
    {
      "inputs": [
        {
          "internalType": "address",
          "name": "",
          "type": "address"
        }
      ],
      "name": "rewardsReceiver",
      "outputs": [
        {
          "internalType": "address",
          "name": "",
          "type": "address"
        }
      ],
      "stateMutability": "view",
      "type": "function"
    },
    {
      "inputs": [
        {
          "internalType": "address",
          "name": "_receiver",
          "type": "address"
        }
      ],
      "name": "setRewardsReceiver",
      "outputs": [],
      "stateMutability": "nonpayable",
      "type": "function"
    },
    {
      "inputs": [
        {
          "internalType": "bytes4",
          "name": "interfaceId",
          "type": "bytes4"
        }
      ],
      "name": "supportsInterface",
      "outputs": [
        {
          "internalType": "bool",
          "name": "",
          "type": "bool"
        }
      ],
      "stateMutability": "view",
      "type": "function"
    },
    {
      "inputs": [],
      "name": "symbol",
      "outputs": [
        {
          "internalType": "string",
          "name": "",
          "type": "string"
        }
      ],
      "stateMutability": "view",
      "type": "function"
    },
    {
      "inputs": [],
      "name": "token",
      "outputs": [
        {
          "internalType": "contract IERC20",
          "name": "",
          "type": "address"
        }
      ],
      "stateMutability": "view",
      "type": "function"
    },
    {
      "inputs": [],
      "name": "totalAmount",
      "outputs": [
        {
          "internalType": "uint256",
          "name": "",
          "type": "uint256"
        }
      ],
      "stateMutability": "view",
      "type": "function"
    },
    {
      "inputs": [],
      "name": "totalSupply",
      "outputs": [
        {
          "internalType": "uint256",
          "name": "",
          "type": "uint256"
        }
      ],
      "stateMutability": "view",
      "type": "function"
    },
    {
      "inputs": [
        {
          "internalType": "address",
          "name": "recipient",
          "type": "address"
        },
        {
          "internalType": "uint256",
          "name": "amount",
          "type": "uint256"
        }
      ],
      "name": "transfer",
      "outputs": [
        {
          "internalType": "bool",
          "name": "",
          "type": "bool"
        }
      ],
      "stateMutability": "nonpayable",
      "type": "function"
    },
    {
      "inputs": [
        {
          "internalType": "address",
          "name": "sender",
          "type": "address"
        },
        {
          "internalType": "address",
          "name": "recipient",
          "type": "address"
        },
        {
          "internalType": "uint256",
          "name": "amount",
          "type": "uint256"
        }
      ],
      "name": "transferFrom",
      "outputs": [
        {
          "internalType": "bool",
          "name": "",
          "type": "bool"
        }
      ],
      "stateMutability": "nonpayable",
      "type": "function"
    },
    {
      "inputs": [
        {
          "internalType": "address",
          "name": "newImplementation",
          "type": "address"
        },
        {
          "internalType": "bytes",
          "name": "data",
          "type": "bytes"
        }
      ],
      "name": "upgradeToAndCall",
      "outputs": [],
      "stateMutability": "payable",
      "type": "function"
    },
    {
      "inputs": [
        {
          "internalType": "address",
          "name": "",
          "type": "address"
        },
        {
          "internalType": "uint256",
          "name": "",
          "type": "uint256"
        }
      ],
      "name": "userRewardDistribution",
      "outputs": [
        {
          "internalType": "uint256",
          "name": "",
          "type": "uint256"
        }
      ],
      "stateMutability": "view",
      "type": "function"
    },
    {
      "inputs": [],
      "name": "version",
      "outputs": [
        {
          "internalType": "uint256",
          "name": "",
          "type": "uint256"
        }
      ],
      "stateMutability": "pure",
      "type": "function"
    },
    {
      "inputs": [
        {
          "internalType": "uint256",
          "name": "_amount",
          "type": "uint256"
        },
        {
          "internalType": "bool",
          "name": "_claimRewards",
          "type": "bool"
        },
        {
          "internalType": "address",
          "name": "_receiver",
          "type": "address"
        }
      ],
      "name": "withdraw",
      "outputs": [],
      "stateMutability": "nonpayable",
      "type": "function"
    },
    {
      "inputs": [
        {
          "internalType": "contract IERC20",
          "name": "_token",
          "type": "address"
        }
      ],
      "name": "withdrawEmergency",
      "outputs": [],
      "stateMutability": "nonpayable",
      "type": "function"
    }
  ],
  "bytecode": "0x60a0604052306080523480156200001557600080fd5b506200002062000026565b620000da565b7ff0c57e16840df040f15088dc2f81fe391c3923bec73e23a9662efc9c229c6a00805468010000000000000000900460ff1615620000775760405163f92ee8a960e01b815260040160405180910390fd5b80546001600160401b0390811614620000d75780546001600160401b0319166001600160401b0390811782556040519081527fc7f505b2f371ae2175ee4913f4499e1f2633a7b5936321eed1cdaeb6115181d29060200160405180910390a15b50565b60805161340d6200010460003960008181611a5b01528181611a840152611bca015261340d6000f3fe6080604052600436106102725760003560e01c80636a6904fb1161014f578063ad3cb1cc116100c1578063d547741f1161007a578063d547741f146107ed578063dd62ed3e1461080d578063e56858231461082d578063f0bd87cc1461084d578063fb93210814610881578063fc0c546a146108a157600080fd5b8063ad3cb1cc146106df578063b1c20abe14610710578063b33068c41461073d578063bd095c9e14610775578063c59b1f3c146107ad578063d505accf146107cd57600080fd5b806391d148541161011357806391d148541461064057806395d89b4114610660578063a1c04f0e14610675578063a217fddf14610695578063a9059cbb146106aa578063abb06b95146106ca57600080fd5b80636a6904fb1461059c5780636e553f65146105b857806370a08231146105d85780637ecebe00146105f857806384b0196e1461061857600080fd5b80632f2ff15d116101e85780634479fc67116101ac5780634479fc67146104ad5780634f1ef286146104f257806352d1902d1461050557806354fd4d501461051a578063613d25bb1461052e57806368bbad981461054e57600080fd5b80632f2ff15d14610404578063313ce567146104245780633644e5151461044057806336568abe14610455578063396236cb1461047557600080fd5b80631a39d8ef1161023a5780631a39d8ef1461034e5780631c03e6cc146103645780631e83409a1461038457806323b872dd146103a4578063248a9ca3146103c457806326195826146103e457600080fd5b806301ffc9a71461027757806306fdde03146102ac578063095ea7b3146102ce57806310a2656a146102ee57806318160ddd14610310575b600080fd5b34801561028357600080fd5b50610297610292366004612c5e565b6108c1565b60405190151581526020015b60405180910390f35b3480156102b857600080fd5b506102c16108f8565b6040516102a39190612cd8565b3480156102da57600080fd5b506102976102e9366004612d00565b6109a1565b3480156102fa57600080fd5b5061030e610309366004612d3a565b6109b9565b005b34801561031c57600080fd5b507f52c63247e1f47db19d5ce0460030c497f067ca4cebf71ba98eeadabe20bace02545b6040519081526020016102a3565b34801561035a57600080fd5b5061034060075481565b34801561037057600080fd5b5061030e61037f366004612d7c565b610aa4565b34801561039057600080fd5b5061030e61039f366004612d7c565b610bff565b3480156103b057600080fd5b506102976103bf366004612d99565b610c3b565b3480156103d057600080fd5b506103406103df366004612dda565b610c70565b3480156103f057600080fd5b5061030e6103ff366004612d7c565b610c92565b34801561041057600080fd5b5061030e61041f366004612df3565b610ce9565b34801561043057600080fd5b50604051601281526020016102a3565b34801561044c57600080fd5b50610340610d0b565b34801561046157600080fd5b5061030e610470366004612df3565b610d1a565b34801561048157600080fd5b50610340610490366004612d00565b600660209081526000928352604080842090915290825290205481565b3480156104b957600080fd5b506104cd6104c8366004612dda565b610d4d565b604080516001600160a01b0390941684526020840192909252908201526060016102a3565b61030e610500366004612eaf565b610d8a565b34801561051157600080fd5b50610340610da9565b34801561052657600080fd5b506001610340565b34801561053a57600080fd5b5061030e610549366004612f33565b610dc6565b34801561055a57600080fd5b50610584610569366004612d7c565b6005602052600090815260409020546001600160a01b031681565b6040516001600160a01b0390911681526020016102a3565b3480156105a857600080fd5b50610340670de0b6b3a764000081565b3480156105c457600080fd5b5061030e6105d3366004612df3565b610f70565b3480156105e457600080fd5b506103406105f3366004612d7c565b611058565b34801561060457600080fd5b50610340610613366004612d7c565b61108b565b34801561062457600080fd5b5061062d611096565b6040516102a39796959493929190612fbc565b34801561064c57600080fd5b5061029761065b366004612df3565b611147565b34801561066c57600080fd5b506102c161117f565b34801561068157600080fd5b5061030e610690366004612d7c565b6111be565b3480156106a157600080fd5b50610340600081565b3480156106b657600080fd5b506102976106c5366004612d00565b611250565b3480156106d657600080fd5b50600154610340565b3480156106eb57600080fd5b506102c1604051806040016040528060058152602001640352e302e360dc1b81525081565b34801561071c57600080fd5b5061034061072b366004612d7c565b60026020526000908152604090205481565b34801561074957600080fd5b50610340610758366004612df3565b600460209081526000928352604080842090915290825290205481565b34801561078157600080fd5b50610340610790366004612df3565b600360209081526000928352604080842090915290825290205481565b3480156107b957600080fd5b506103406107c8366004612df3565b61127d565b3480156107d957600080fd5b5061030e6107e8366004613055565b611388565b3480156107f957600080fd5b5061030e610808366004612df3565b6114e1565b34801561081957600080fd5b506103406108283660046130cc565b6114fd565b34801561083957600080fd5b50610297610848366004612d7c565b611547565b34801561085957600080fd5b506103407ffbd454f36a7e1a388bd6fc3ab10d434aa4578f811acbbcf33afb1c697486313c81565b34801561088d57600080fd5b5061030e61089c366004612d00565b6115c5565b3480156108ad57600080fd5b50600054610584906001600160a01b031681565b60006001600160e01b03198216637965db0b60e01b14806108f257506301ffc9a760e01b6001600160e01b03198316145b92915050565b606060006000805160206133388339815191525b905080600301805461091d906130fa565b80601f0160208091040260200160405190810160405280929190818152602001828054610949906130fa565b80156109965780601f1061096b57610100808354040283529160200191610996565b820191906000526020600020905b81548152906001019060200180831161097957829003601f168201915b505050505091505090565b6000336109af8185856116e9565b5060019392505050565b6109c16116f6565b6001600160a01b0381166109d25750335b826109dc33611058565b10156109fb576040516349986e7360e01b815260040160405180910390fd5b6000610a0561172e565b9050610a1433828560006117bb565b8315610a5257610a24338561184e565b8360076000828254610a36919061314a565b9091555050600054610a52906001600160a01b03168386611884565b60405184815233907f7084f5476618d8e60b11ef0d7d3f06914655adb8793e28ff7f018d4c76d505d59060200160405180910390a250610a9f60016000805160206133b883398151915255565b505050565b6000610aaf816118f7565b6001600160a01b038216610ad65760405163d92e233d60e01b815260040160405180910390fd5b610adf82611547565b15610afd5760405163630b374b60e01b815260040160405180910390fd5b60018054604080516060810182526001600160a01b0386811680835260006020808501828152858701838152888a018a5598835294517fb10e2d527612073b26eecdfd717e6a320cf44b4afac2b0732d9fcbe2b7fa0cf66003890290810180546001600160a01b031916929096169190911790945593517fb10e2d527612073b26eecdfd717e6a320cf44b4afac2b0732d9fcbe2b7fa0cf784015595517fb10e2d527612073b26eecdfd717e6a320cf44b4afac2b0732d9fcbe2b7fa0cf89092019190915580855260029091528184208390559051919283927f68e3e9397770d9dfa88c0953a34e1a70a05416b3895957f5b689787a920791c49190a3505050565b610c076116f6565b6000610c1161172e565b9050610c2033826001856117bb565b50610c3860016000805160206133b883398151915255565b50565b6000610c456116f6565b610c50848484611901565b9050610c6960016000805160206133b883398151915255565b9392505050565b6000908152600080516020613398833981519152602052604090206001015490565b3360008181526005602052604080822080546001600160a01b0319166001600160a01b03861690811790915590519092917f8eb3f1a8f49a22a9fcda79d30a2cf0bde5f65585f6530392b5a8deb6df47223991a350565b610cf282610c70565b610cfb816118f7565b610d058383611925565b50505050565b6000610d156119ca565b905090565b6001600160a01b0381163314610d435760405163334bd91960e11b815260040160405180910390fd5b610a9f82826119d4565b60018181548110610d5d57600080fd5b60009182526020909120600390910201805460018201546002909201546001600160a01b03909116925083565b610d92611a50565b610d9b82611af7565b610da58282611b02565b5050565b6000610db3611bbf565b5060008051602061337883398151915290565b7ff0c57e16840df040f15088dc2f81fe391c3923bec73e23a9662efc9c229c6a008054600160401b810460ff16159067ffffffffffffffff16600081158015610e0c5750825b905060008267ffffffffffffffff166001148015610e295750303b155b905081158015610e37575080155b15610e555760405163f92ee8a960e01b815260040160405180910390fd5b845467ffffffffffffffff191660011785558315610e7f57845460ff60401b1916600160401b1785555b6001600160a01b038916610ea65760405163d92e233d60e01b815260040160405180910390fd5b6001600160a01b038616610ecd5760405163d92e233d60e01b815260040160405180910390fd5b610ed78888611c08565b610ee088611c1a565b610ee8611c45565b610ef0611c45565b610ef8611c4d565b610f03600087611925565b50600080546001600160a01b0319166001600160a01b038b161790558315610f6557845460ff60401b19168555604051600181527fc7f505b2f371ae2175ee4913f4499e1f2633a7b5936321eed1cdaeb6115181d29060200160405180910390a15b505050505050505050565b610f786116f6565b81600003610f9957604051631f2a200560e01b815260040160405180910390fd5b6001600160a01b038116610faa5750335b6000610fb461172e565b9050610fc382826000806117bb565b600054610fdb906001600160a01b0316333086611c5d565b8260076000828254610fed919061315d565b90915550610ffd90508284611c96565b816001600160a01b03167f2da466a7b24304f47e87fa2e1e5a81b9831ce54fec19055ce277ca2f39ba42c48460405161103891815260200190565b60405180910390a250610da560016000805160206133b883398151915255565b6000806000805160206133388339815191525b6001600160a01b0390931660009081526020939093525050604090205490565b60006108f282611ccc565b6000606080828080838160008051602061335883398151915280549091501580156110c357506001810154155b61110c5760405162461bcd60e51b81526020600482015260156024820152741152540dcc4c8e88155b9a5b9a5d1a585b1a5e9959605a1b60448201526064015b60405180910390fd5b611114611cd7565b61111c611d16565b60408051600080825260208201909252600f60f81b9c939b5091995046985030975095509350915050565b6000918252600080516020613398833981519152602090815260408084206001600160a01b0393909316845291905290205460ff1690565b7f52c63247e1f47db19d5ce0460030c497f067ca4cebf71ba98eeadabe20bace0480546060916000805160206133388339815191529161091d906130fa565b60006111c9816118f7565b6040516370a0823160e01b81523060048201526000906001600160a01b038416906370a0823190602401602060405180830381865afa158015611210573d6000803e3d6000fd5b505050506040513d601f19601f820116820180604052508101906112349190613170565b90508015610a9f57610a9f6001600160a01b0384163383611884565b600061125a6116f6565b6112648383611d2e565b90506108f260016000805160206133b883398151915255565b600080600090506001848154811061129757611297613189565b60009182526020808320600260039093020191909101546001600160a01b03861683526006825260408084208885529092529120541015611352576001600160a01b038316600090815260066020908152604080832087845290915290205460018054670de0b6b3a76400009291908790811061131657611316613189565b906000526020600020906003020160020154611332919061314a565b61133b85611058565b611345919061319f565b61134f91906131b6565b90505b60008481526003602090815260408083206001600160a01b038716845290915290205461138090829061315d565b949350505050565b834211156113ac5760405163313c898160e11b815260048101859052602401611103565b60007f6e71edae12b1b97f4d1f60370fef10105fa2faae0126114a169c64845d6126c98888886114188c6001600160a01b031660009081527f5ab42ced628888259c08ac98db1eb0cf702fc1501344311d8b100cd1bfe4bb006020526040902080546001810190915590565b6040805160208101969096526001600160a01b0394851690860152929091166060840152608083015260a082015260c0810186905260e001604051602081830303815290604052805190602001209050600061147382611d3c565b9050600061148382878787611d69565b9050896001600160a01b0316816001600160a01b0316146114ca576040516325c0072360e11b81526001600160a01b0380831660048301528b166024820152604401611103565b6114d58a8a8a6116e9565b50505050505050505050565b6114ea82610c70565b6114f3816118f7565b610d0583836119d4565b6001600160a01b0391821660009081527f52c63247e1f47db19d5ce0460030c497f067ca4cebf71ba98eeadabe20bace016020908152604080832093909416825291909152205490565b6001600160a01b038116600090815260026020526040812054801515806115ae5750600154158015906115ae5750826001600160a01b03166001828154811061159257611592613189565b60009182526020909120600390910201546001600160a01b0316145b156115bc5750600192915050565b50600092915050565b7ffbd454f36a7e1a388bd6fc3ab10d434aa4578f811acbbcf33afb1c697486313c6115ef816118f7565b6007546000036116125760405163c16f3a9360e01b815260040160405180910390fd5b8160000361163357604051631f2a200560e01b815260040160405180910390fd5b6001600160a01b03831661165a5760405163d92e233d60e01b815260040160405180910390fd5b61166383611547565b6116805760405163363b89e360e01b815260040160405180910390fd5b6001600160a01b038316600090815260026020526040902054600180546116d991339130918791869081106116b7576116b7613189565b60009182526020909120600390910201546001600160a01b0316929190611c5d565b6116e281611d97565b5050505050565b610a9f8383836001611f2c565b6000805160206133b883398151915280546001190161172857604051633ee5aeb560e01b815260040160405180910390fd5b60029055565b60015460609060008167ffffffffffffffff81111561174f5761174f612e23565b604051908082528060200260200182016040528015611778578160200160208202803683370190505b50905060005b828110156117b45761178f81611d97565b8282815181106117a1576117a1613189565b602090810291909101015260010161177e565b5092915050565b808280156117d057506001600160a01b038116155b156117f957506001600160a01b0380851660009081526005602052604090205416806117f95750835b600061180486611058565b60015490915060005b818110156118445761183c818986868b868151811061182e5761182e613189565b60200260200101518b612013565b60010161180d565b5050505050505050565b6001600160a01b03821661187857604051634b637e8f60e11b815260006004820152602401611103565b610da58260008361228c565b6040516001600160a01b03838116602483015260448201839052610a9f91859182169063a9059cbb906064015b604051602081830303815290604052915060e01b6020820180516001600160e01b0383818316178352505050506122c5565b60016000805160206133b883398151915255565b610c388133612328565b60003361190f858285612361565b61191a8585856123c1565b506001949350505050565b60006000805160206133988339815191526119408484611147565b6119c0576000848152602082815260408083206001600160a01b03871684529091529020805460ff191660011790556119763390565b6001600160a01b0316836001600160a01b0316857f2f8788117e7eff1d82e926ec794901d17c78024a50270940304540a733656f0d60405160405180910390a460019150506108f2565b60009150506108f2565b6000610d15612420565b60006000805160206133988339815191526119ef8484611147565b156119c0576000848152602082815260408083206001600160a01b0387168085529252808320805460ff1916905551339287917ff6391f5c32d9c69d2a47ea670b442974b53935d1edc7fd64eb21e047a839171b9190a460019150506108f2565b306001600160a01b037f0000000000000000000000000000000000000000000000000000000000000000161480611ad757507f00000000000000000000000000000000000000000000000000000000000000006001600160a01b0316611acb600080516020613378833981519152546001600160a01b031690565b6001600160a01b031614155b15611af55760405163703e46dd60e11b815260040160405180910390fd5b565b6000610da5816118f7565b816001600160a01b03166352d1902d6040518163ffffffff1660e01b8152600401602060405180830381865afa925050508015611b5c575060408051601f3d908101601f19168201909252611b5991810190613170565b60015b611b8457604051634c9c8ce360e01b81526001600160a01b0383166004820152602401611103565b6000805160206133788339815191528114611bb557604051632a87526960e21b815260048101829052602401611103565b610a9f8383612494565b306001600160a01b037f00000000000000000000000000000000000000000000000000000000000000001614611af55760405163703e46dd60e11b815260040160405180910390fd5b611c106124ea565b610da58282612533565b611c226124ea565b610c3881604051806040016040528060018152602001603160f81b815250612584565b611af56124ea565b611c556124ea565b611af56125e5565b6040516001600160a01b038481166024830152838116604483015260648201839052610d059186918216906323b872dd906084016118b1565b6001600160a01b038216611cc05760405163ec442f0560e01b815260006004820152602401611103565b610da56000838361228c565b60006108f2826125ed565b7fa16a46d94261c7517cc8ff89f61c0ce93598e3c849801011dee649a6a557d10280546060916000805160206133588339815191529161091d906130fa565b6060600060008051602061335883398151915261090c565b6000336109af8185856123c1565b60006108f2611d496119ca565b8360405161190160f01b8152600281019290925260228201526042902090565b600080600080611d7b88888888612616565b925092509250611d8b82826126e5565b50909695505050505050565b60008060018381548110611dad57611dad613189565b60009182526020822060039091020180549092506001600160a01b03169080611df47f52c63247e1f47db19d5ce0460030c497f067ca4cebf71ba98eeadabe20bace025490565b90508015611ece576040516370a0823160e01b81523060048201526000906001600160a01b038516906370a0823190602401602060405180830381865afa158015611e43573d6000803e3d6000fd5b505050506040513d601f19601f82011682018060405250810190611e679190613170565b6000549091506001600160a01b0390811690851603611e8c57611e898161279e565b90505b8460010154811115611ec85781856001015482611ea9919061314a565b611ebb90670de0b6b3a764000061319f565b611ec591906131b6565b92505b60018501555b818460020154611ede919061315d565b94508115611f23576002840185905560405185815286907f92115ad895c1825fe8760a760481c930f7c591faee70d76e646401a1158746eb9060200160405180910390a25b50505050919050565b6000805160206133388339815191526001600160a01b038516611f655760405163e602df0560e01b815260006004820152602401611103565b6001600160a01b038416611f8f57604051634a1406b160e11b815260006004820152602401611103565b6001600160a01b038086166000908152600183016020908152604080832093881683529290522083905581156116e257836001600160a01b0316856001600160a01b03167f8c5be1e5ebec7d5bd14f71427d1e84f3dd0314c0f7b2291e5b200ac8c7c3b9258560405161200491815260200190565b60405180910390a35050505050565b6001600160a01b038516600090815260066020908152604080832089845290915281205490838210156120c3576001600160a01b03871660008181526006602090815260408083208c845282529182902087905590518681528a917f8567bd7ba46fc931ec5088db3870d59640e678126a4c443bf7d45e0b16bba318910160405180910390a3670de0b6b3a76400006120ac838661314a565b6120b6908761319f565b6120c091906131b6565b90505b60008881526003602090815260408083206001600160a01b038b1684529091528120546120f190839061315d565b90508015610f6557831561225657600061213860018b8154811061211757612117613189565b60009182526020909120600390910201546001600160a01b031689846127ae565b90508060018b8154811061214e5761214e613189565b9060005260206000209060030201600101600082825461216e919061314a565b909155505060008a81526004602090815260408083206001600160a01b038d168452909152812080548392906121a590849061315d565b909155505060008a81526003602090815260408083206001600160a01b038d1684529091529020541515806121d957508082115b1561220c576121e8818361314a565b60008b81526003602090815260408083206001600160a01b038e1684529091529020555b89886001600160a01b03167f987d620f307ff6b94d58743cb7a7509f24071586a77759b77c2d4e29f75a2f9a8460405161224891815260200190565b60405180910390a350610f65565b8115610f655760008981526003602090815260408083206001600160a01b038c1684529091529020819055505050505050505050565b80156122ba57600061229c61172e565b90506122ab84826000806117bb565b6122b883826000806117bb565b505b610a9f838383612848565b60006122da6001600160a01b03841683612986565b905080516000141580156122ff5750808060200190518101906122fd91906131d8565b155b15610a9f57604051635274afe760e01b81526001600160a01b0384166004820152602401611103565b6123328282611147565b610da55760405163e2517d3f60e01b81526001600160a01b038216600482015260248101839052604401611103565b600061236d84846114fd565b90506000198114610d0557818110156123b257604051637dc7a0d960e11b81526001600160a01b03841660048201526024810182905260448101839052606401611103565b610d0584848484036000611f2c565b6001600160a01b0383166123eb57604051634b637e8f60e11b815260006004820152602401611103565b6001600160a01b0382166124155760405163ec442f0560e01b815260006004820152602401611103565b610a9f83838361228c565b60007f8b73c3c69bb8fe3d512ecc4cf759cc79239f7b179b0ffacaa9a75d522b39400f61244b612994565b6124536129fe565b60408051602081019490945283019190915260608201524660808201523060a082015260c00160405160208183030381529060405280519060200120905090565b61249d82612a42565b6040516001600160a01b038316907fbc7cd75a20ee27fd9adebab32041f755214dbc6bffa90cc0225b39da2e5c2d3b90600090a28051156124e257610a9f8282612aa7565b610da5612b1d565b7ff0c57e16840df040f15088dc2f81fe391c3923bec73e23a9662efc9c229c6a0054600160401b900460ff16611af557604051631afcd79f60e31b815260040160405180910390fd5b61253b6124ea565b6000805160206133388339815191527f52c63247e1f47db19d5ce0460030c497f067ca4cebf71ba98eeadabe20bace036125758482613245565b5060048101610d058382613245565b61258c6124ea565b6000805160206133588339815191527fa16a46d94261c7517cc8ff89f61c0ce93598e3c849801011dee649a6a557d1026125c68482613245565b50600381016125d58382613245565b5060008082556001909101555050565b6118e36124ea565b6000807f5ab42ced628888259c08ac98db1eb0cf702fc1501344311d8b100cd1bfe4bb0061106b565b600080807f7fffffffffffffffffffffffffffffff5d576e7357a4501ddfe92f46681b20a084111561265157506000915060039050826126db565b604080516000808252602082018084528a905260ff891692820192909252606081018790526080810186905260019060a0016020604051602081039080840390855afa1580156126a5573d6000803e3d6000fd5b5050604051601f1901519150506001600160a01b0381166126d1575060009250600191508290506126db565b9250600091508190505b9450945094915050565b60008260038111156126f9576126f9613305565b03612702575050565b600182600381111561271657612716613305565b036127345760405163f645eedf60e01b815260040160405180910390fd5b600282600381111561274857612748613305565b036127695760405163fce698f760e01b815260048101829052602401611103565b600382600381111561277d5761277d613305565b03610da5576040516335e2f38360e21b815260048101829052602401611103565b6000600754826108f2919061314a565b6040516370a0823160e01b815230600482015260009081906001600160a01b038616906370a0823190602401602060405180830381865afa1580156127f7573d6000803e3d6000fd5b505050506040513d601f19601f8201168201806040525081019061281b9190613170565b90508291508082111561282c578091505b6128406001600160a01b0386168584611884565b509392505050565b6000805160206133388339815191526001600160a01b0384166128845781816002016000828254612879919061315d565b909155506128f69050565b6001600160a01b038416600090815260208290526040902054828110156128d75760405163391434e360e21b81526001600160a01b03861660048201526024810182905260448101849052606401611103565b6001600160a01b03851660009081526020839052604090209083900390555b6001600160a01b038316612914576002810180548390039055612933565b6001600160a01b03831660009081526020829052604090208054830190555b826001600160a01b0316846001600160a01b03167fddf252ad1be2c89b69c2b068fc378daa952ba7f163c4a11628f55a4df523b3ef8460405161297891815260200190565b60405180910390a350505050565b6060610c6983836000612b3c565b6000600080516020613358833981519152816129ae611cd7565b8051909150156129c657805160209091012092915050565b815480156129d5579392505050565b7fc5d2460186f7233c927e7db2dcc703c0e500b653ca82273b7bfad8045d85a470935050505090565b600060008051602061335883398151915281612a18611d16565b805190915015612a3057805160209091012092915050565b600182015480156129d5579392505050565b806001600160a01b03163b600003612a7857604051634c9c8ce360e01b81526001600160a01b0382166004820152602401611103565b60008051602061337883398151915280546001600160a01b0319166001600160a01b0392909216919091179055565b6060600080846001600160a01b031684604051612ac4919061331b565b600060405180830381855af49150503d8060008114612aff576040519150601f19603f3d011682016040523d82523d6000602084013e612b04565b606091505b5091509150612b14858383612bd9565b95945050505050565b3415611af55760405163b398979f60e01b815260040160405180910390fd5b606081471015612b615760405163cd78605960e01b8152306004820152602401611103565b600080856001600160a01b03168486604051612b7d919061331b565b60006040518083038185875af1925050503d8060008114612bba576040519150601f19603f3d011682016040523d82523d6000602084013e612bbf565b606091505b5091509150612bcf868383612bd9565b9695505050505050565b606082612bee57612be982612c35565b610c69565b8151158015612c0557506001600160a01b0384163b155b15612c2e57604051639996b31560e01b81526001600160a01b0385166004820152602401611103565b5080610c69565b805115612c455780518082602001fd5b604051630a12f52160e11b815260040160405180910390fd5b600060208284031215612c7057600080fd5b81356001600160e01b031981168114610c6957600080fd5b60005b83811015612ca3578181015183820152602001612c8b565b50506000910152565b60008151808452612cc4816020860160208601612c88565b601f01601f19169290920160200192915050565b602081526000610c696020830184612cac565b6001600160a01b0381168114610c3857600080fd5b60008060408385031215612d1357600080fd5b8235612d1e81612ceb565b946020939093013593505050565b8015158114610c3857600080fd5b600080600060608486031215612d4f57600080fd5b833592506020840135612d6181612d2c565b91506040840135612d7181612ceb565b809150509250925092565b600060208284031215612d8e57600080fd5b8135610c6981612ceb565b600080600060608486031215612dae57600080fd5b8335612db981612ceb565b92506020840135612dc981612ceb565b929592945050506040919091013590565b600060208284031215612dec57600080fd5b5035919050565b60008060408385031215612e0657600080fd5b823591506020830135612e1881612ceb565b809150509250929050565b634e487b7160e01b600052604160045260246000fd5b600067ffffffffffffffff80841115612e5457612e54612e23565b604051601f8501601f19908116603f01168101908282118183101715612e7c57612e7c612e23565b81604052809350858152868686011115612e9557600080fd5b858560208301376000602087830101525050509392505050565b60008060408385031215612ec257600080fd5b8235612ecd81612ceb565b9150602083013567ffffffffffffffff811115612ee957600080fd5b8301601f81018513612efa57600080fd5b612f0985823560208401612e39565b9150509250929050565b600082601f830112612f2457600080fd5b610c6983833560208501612e39565b60008060008060808587031215612f4957600080fd5b8435612f5481612ceb565b9350602085013567ffffffffffffffff80821115612f7157600080fd5b612f7d88838901612f13565b94506040870135915080821115612f9357600080fd5b50612fa087828801612f13565b9250506060850135612fb181612ceb565b939692955090935050565b60ff60f81b881681526000602060e06020840152612fdd60e084018a612cac565b8381036040850152612fef818a612cac565b606085018990526001600160a01b038816608086015260a0850187905284810360c08601528551808252602080880193509091019060005b8181101561304357835183529284019291840191600101613027565b50909c9b505050505050505050505050565b600080600080600080600060e0888a03121561307057600080fd5b873561307b81612ceb565b9650602088013561308b81612ceb565b95506040880135945060608801359350608088013560ff811681146130af57600080fd5b9699959850939692959460a0840135945060c09093013592915050565b600080604083850312156130df57600080fd5b82356130ea81612ceb565b91506020830135612e1881612ceb565b600181811c9082168061310e57607f821691505b60208210810361312e57634e487b7160e01b600052602260045260246000fd5b50919050565b634e487b7160e01b600052601160045260246000fd5b818103818111156108f2576108f2613134565b808201808211156108f2576108f2613134565b60006020828403121561318257600080fd5b5051919050565b634e487b7160e01b600052603260045260246000fd5b80820281158282048414176108f2576108f2613134565b6000826131d357634e487b7160e01b600052601260045260246000fd5b500490565b6000602082840312156131ea57600080fd5b8151610c6981612d2c565b601f821115610a9f576000816000526020600020601f850160051c8101602086101561321e5750805b601f850160051c820191505b8181101561323d5782815560010161322a565b505050505050565b815167ffffffffffffffff81111561325f5761325f612e23565b6132738161326d84546130fa565b846131f5565b602080601f8311600181146132a857600084156132905750858301515b600019600386901b1c1916600185901b17855561323d565b600085815260208120601f198616915b828110156132d7578886015182559484019460019091019084016132b8565b50858210156132f55787850151600019600388901b60f8161c191681555b5050505050600190811b01905550565b634e487b7160e01b600052602160045260246000fd5b6000825161332d818460208701612c88565b919091019291505056fe52c63247e1f47db19d5ce0460030c497f067ca4cebf71ba98eeadabe20bace00a16a46d94261c7517cc8ff89f61c0ce93598e3c849801011dee649a6a557d100360894a13ba1a3210667c828492db98dca3e2076cc3735a920a3ca505d382bbc02dd7bc7dec4dceedda775e58dd541e08a116c6c53815c0bd028192f7b6268009b779b17422d0df92223018b32b4d1fa46e071723d6817e2486d003becc55f00a2646970667358221220ff4755e48fcf59bbf00a7b4f444745aed281e6461aa4dda8961467cbed0850fb64736f6c63430008170033",
  "linkReferences": {},
  "deployedLinkReferences": {}
}