{
  "_format": "hh-sol-artifact-1",
  "contractName": "StaticCurveLPOracle",
  "sourceName": "contracts/lib/Oracle/contracts/oracles/StaticCurveLPOracle.sol",
  "abi": [
    {
      "inputs": [
        {
          "internalType": "address",
          "name": "genericOracle_",
          "type": "address"
        },
        {
          "internalType": "address[]",
          "name": "coins_",
          "type": "address[]"
        },
        {
          "internalType": "uint256[]",
          "name": "decimals_",
          "type": "uint256[]"
        },
        {
          "internalType": "address",
          "name": "pool_",
          "type": "address"
        }
      ],
      "stateMutability": "nonpayable",
      "type": "constructor"
    },
    {
      "inputs": [
        {
          "internalType": "address",
          "name": "owner",
          "type": "address"
        }
      ],
      "name": "OwnableInvalidOwner",
      "type": "error"
    },
    {
      "inputs": [
        {
          "internalType": "address",
          "name": "account",
          "type": "address"
        }
      ],
      "name": "OwnableUnauthorizedAccount",
      "type": "error"
    },
    {
      "inputs": [],
      "name": "ZeroAddress",
      "type": "error"
    },
    {
      "anonymous": false,
      "inputs": [
        {
          "indexed": true,
          "internalType": "address",
          "name": "token",
          "type": "address"
        },
        {
          "indexed": false,
          "internalType": "uint256",
          "name": "threshold",
          "type": "uint256"
        }
      ],
      "name": "ImbalanceThresholdUpdated",
      "type": "event"
    },
    {
      "anonymous": false,
      "inputs": [
        {
          "indexed": true,
          "internalType": "address",
          "name": "previousOwner",
          "type": "address"
        },
        {
          "indexed": true,
          "internalType": "address",
          "name": "newOwner",
          "type": "address"
        }
      ],
      "name": "OwnershipTransferStarted",
      "type": "event"
    },
    {
      "anonymous": false,
      "inputs": [
        {
          "indexed": true,
          "internalType": "address",
          "name": "previousOwner",
          "type": "address"
        },
        {
          "indexed": true,
          "internalType": "address",
          "name": "newOwner",
          "type": "address"
        }
      ],
      "name": "OwnershipTransferred",
      "type": "event"
    },
    {
      "inputs": [],
      "name": "acceptOwnership",
      "outputs": [],
      "stateMutability": "nonpayable",
      "type": "function"
    },
    {
      "inputs": [
        {
          "internalType": "uint256",
          "name": "",
          "type": "uint256"
        }
      ],
      "name": "coins",
      "outputs": [
        {
          "internalType": "address",
          "name": "",
          "type": "address"
        }
      ],
      "stateMutability": "view",
      "type": "function"
    },
    {
      "inputs": [
        {
          "internalType": "uint256",
          "name": "",
          "type": "uint256"
        }
      ],
      "name": "decimals",
      "outputs": [
        {
          "internalType": "uint256",
          "name": "",
          "type": "uint256"
        }
      ],
      "stateMutability": "view",
      "type": "function"
    },
    {
      "inputs": [
        {
          "internalType": "address",
          "name": "token",
          "type": "address"
        }
      ],
      "name": "getUSDPrice",
      "outputs": [
        {
          "internalType": "uint256",
          "name": "",
          "type": "uint256"
        }
      ],
      "stateMutability": "view",
      "type": "function"
    },
    {
      "inputs": [
        {
          "internalType": "address",
          "name": "",
          "type": "address"
        }
      ],
      "name": "imbalanceThresholds",
      "outputs": [
        {
          "internalType": "uint256",
          "name": "",
          "type": "uint256"
        }
      ],
      "stateMutability": "view",
      "type": "function"
    },
    {
      "inputs": [
        {
          "internalType": "address",
          "name": "token",
          "type": "address"
        }
      ],
      "name": "isTokenSupported",
      "outputs": [
        {
          "internalType": "bool",
          "name": "",
          "type": "bool"
        }
      ],
      "stateMutability": "view",
      "type": "function"
    },
    {
      "inputs": [],
      "name": "owner",
      "outputs": [
        {
          "internalType": "address",
          "name": "",
          "type": "address"
        }
      ],
      "stateMutability": "view",
      "type": "function"
    },
    {
      "inputs": [],
      "name": "pendingOwner",
      "outputs": [
        {
          "internalType": "address",
          "name": "",
          "type": "address"
        }
      ],
      "stateMutability": "view",
      "type": "function"
    },
    {
      "inputs": [],
      "name": "pool",
      "outputs": [
        {
          "internalType": "address",
          "name": "",
          "type": "address"
        }
      ],
      "stateMutability": "view",
      "type": "function"
    },
    {
      "inputs": [],
      "name": "renounceOwnership",
      "outputs": [],
      "stateMutability": "nonpayable",
      "type": "function"
    },
    {
      "inputs": [
        {
          "internalType": "address",
          "name": "token",
          "type": "address"
        },
        {
          "internalType": "uint256",
          "name": "threshold",
          "type": "uint256"
        }
      ],
      "name": "setImbalanceThreshold",
      "outputs": [],
      "stateMutability": "nonpayable",
      "type": "function"
    },
    {
      "inputs": [
        {
          "internalType": "address",
          "name": "newOwner",
          "type": "address"
        }
      ],
      "name": "transferOwnership",
      "outputs": [],
      "stateMutability": "nonpayable",
      "type": "function"
    }
  ],
  "bytecode": "0x60a06040523480156200001157600080fd5b506040516200148738038062001487833981016040819052620000349162000384565b33806200005c57604051631e4fbdf760e01b8152600060048201526024015b60405180910390fd5b620000678162000154565b506001600160a01b0384166080528151835114620000ba5760405162461bcd60e51b815260206004820152600f60248201526e0d8cadccee8d040dad2e6dac2e8c6d608b1b604482015260640162000053565b8251620000cf906003906020860190620001c2565b508151620000e59060049060208501906200022c565b506001600160a01b0381166200012a5760405162461bcd60e51b81526020600482015260096024820152681e995c9bc81c1bdbdb60ba1b604482015260640162000053565b600580546001600160a01b0319166001600160a01b0392909216919091179055506200047b915050565b600180546001600160a01b03191690556200016f8162000172565b50565b600080546001600160a01b038381166001600160a01b0319831681178455604051919092169283917f8be0079c531659141344cd1fd0a4f28419497f9722a3daafe3b4186f6b6457e09190a35050565b8280548282559060005260206000209081019282156200021a579160200282015b828111156200021a57825182546001600160a01b0319166001600160a01b03909116178255602090920191600190910190620001e3565b50620002289291506200026a565b5090565b8280548282559060005260206000209081019282156200021a579160200282015b828111156200021a5782518255916020019190600101906200024d565b5b808211156200022857600081556001016200026b565b80516001600160a01b03811681146200029957600080fd5b919050565b634e487b7160e01b600052604160045260246000fd5b604051601f8201601f191681016001600160401b0381118282101715620002df57620002df6200029e565b604052919050565b60006001600160401b038211156200030357620003036200029e565b5060051b60200190565b600082601f8301126200031f57600080fd5b81516020620003386200033283620002e7565b620002b4565b8083825260208201915060208460051b8701019350868411156200035b57600080fd5b602086015b8481101562000379578051835291830191830162000360565b509695505050505050565b600080600080608085870312156200039b57600080fd5b620003a68562000281565b602086810151919550906001600160401b0380821115620003c657600080fd5b818801915088601f830112620003db57600080fd5b8151620003ec6200033282620002e7565b81815260059190911b8301840190848101908b8311156200040c57600080fd5b938501935b828510156200043557620004258562000281565b8252938501939085019062000411565b60408b015190985094505050808311156200044f57600080fd5b50506200045f878288016200030d565b925050620004706060860162000281565b905092959194509250565b608051610fe96200049e600039600081816102e401526105310152610fe96000f3fe608060405234801561001057600080fd5b50600436106100b45760003560e01c806379ba50971161007157806379ba50971461016a5780638b2f0f4f146101725780638da5cb5b14610185578063c661065714610196578063e30c3978146101a9578063f2fde38b146101ba57600080fd5b806316f0115b146100b957806338726f08146100e95780633f47e662146100fe5780634b5a518e1461011f578063715018a61461013f57806375151b6314610147575b600080fd5b6005546100cc906001600160a01b031681565b6040516001600160a01b0390911681526020015b60405180910390f35b6100fc6100f7366004610d4b565b6101cd565b005b61011161010c366004610d75565b610280565b6040519081526020016100e0565b61011161012d366004610d8e565b60026020526000908152604090205481565b6100fc6102a1565b61015a610155366004610d8e565b6102b5565b60405190151581526020016100e0565b6100fc6103b6565b610111610180366004610d8e565b6103fa565b6000546001600160a01b03166100cc565b6100cc6101a4366004610d75565b6107f2565b6001546001600160a01b03166100cc565b6100fc6101c8366004610d8e565b61081c565b6101d561088d565b67016345785d8a00008111156102275760405162461bcd60e51b81526020600482015260126024820152710e8d0e4cae6d0ded8c840e8dede40d0d2ced60731b60448201526064015b60405180910390fd5b6001600160a01b03821660008181526002602052604090819020839055517f7b718dc4e7c7ee990f859e57df5619938b679591799489da97280f53d0295439906102749084815260200190565b60405180910390a25050565b6004818154811061029057600080fd5b600091825260209091200154905081565b6102a961088d565b6102b360006108ba565b565b6005546000906001600160a01b038381169116146102d557506000919050565b60005b6003548110156103ad577f00000000000000000000000000000000000000000000000000000000000000006001600160a01b03166375151b636003838154811061032457610324610da9565b60009182526020909120015460405160e083901b6001600160e01b03191681526001600160a01b039091166004820152602401602060405180830381865afa158015610374573d6000803e3d6000fd5b505050506040513d601f19601f820116820180604052508101906103989190610dbf565b6103a55750600092915050565b6001016102d8565b50600192915050565b60015433906001600160a01b031681146103ee5760405163118cdaa760e01b81526001600160a01b038216600482015260240161021e565b6103f7816108ba565b50565b6005546000906001600160a01b038381169116146104505760405162461bcd60e51b81526020600482015260136024820152721d1bdad95b881b9bdd081cdd5c1c1bdc9d1959606a1b604482015260640161021e565b600354600090818167ffffffffffffffff81111561047057610470610de1565b604051908082528060200260200182016040528015610499578160200160208202803683370190505b50905060008267ffffffffffffffff8111156104b7576104b7610de1565b6040519080825280602002602001820160405280156104e0578160200160208202803683370190505b50905060005b838110156106ea5760006003828154811061050357610503610da9565b6000918252602082200154604051638b2f0f4f60e01b81526001600160a01b039182166004820181905293507f000000000000000000000000000000000000000000000000000000000000000090911690638b2f0f4f90602401602060405180830381865afa15801561057a573d6000803e3d6000fd5b505050506040513d601f19601f8201168201806040525081019061059e9190610df7565b9050808584815181106105b3576105b3610da9565b602002602001018181525050600260008a6001600160a01b03166001600160a01b03168152602001908152602001600020548484815181106105f7576105f7610da9565b602002602001018181525050600081116106405760405162461bcd60e51b815260206004820152600a6024820152690707269636520697320360b41b604482015260640161021e565b600554600090610659906001600160a01b0316856108d3565b90506000811161069a5760405162461bcd60e51b815260206004820152600c60248201526b062616c616e636520697320360a41b604482015260640161021e565b6106cf826106c9600487815481106106b4576106b4610da9565b60009182526020909120015484906012610948565b90610993565b6106d99089610e26565b975050600190920191506104e69050565b506040805160c0810182526005546001600160a01b031681526020810185905261077c91810160008152602001600480548060200260200160405190810160405280929190818152602001828054801561076357602002820191906000526020600020905b81548152602001906001019080831161074f575b50505050508152602001848152602001838152506109b5565b6107e8866001600160a01b03166318160ddd6040518163ffffffff1660e01b8152600401602060405180830381865afa1580156107bd573d6000803e3d6000fd5b505050506040513d601f19601f820116820180604052508101906107e19190610df7565b8590610c30565b9695505050505050565b6003818154811061080257600080fd5b6000918252602090912001546001600160a01b0316905081565b61082461088d565b600180546001600160a01b0383166001600160a01b031990911681179091556108556000546001600160a01b031690565b6001600160a01b03167f38d16b8cac22d99fc7c124b9cd0de2d3fa1faef420bfe791d8c362d765e2270060405160405180910390a350565b6000546001600160a01b031633146102b35760405163118cdaa760e01b815233600482015260240161021e565b600180546001600160a01b03191690556103f781610c49565b604051634903b0d160e01b8152600481018290526000906001600160a01b03841690634903b0d190602401602060405180830381865afa15801561091b573d6000803e3d6000fd5b505050506040513d601f19601f8201168201806040525081019061093f9190610df7565b90505b92915050565b60008160ff168360ff160361095e57508261098c565b8160ff168360ff16111561097e57610977848484610c99565b905061098c565b610989848484610cba565b90505b9392505050565b60006109a16012600a610f33565b6109ab8385610f3f565b61093f9190610f56565b600081606001516000815181106109ce576109ce610da9565b60200260200101519050600081600a6109e79190610f33565b905060008360800151600081518110610a0257610a02610da9565b602002602001015190506000600190505b8460200151811015610c2957600085606001518281518110610a3757610a37610da9565b60200260200101519050600086608001518381518110610a5957610a59610da9565b602002602001015190506000818587610a729190610f3f565b610a7c9190610f56565b90506000610a8b828986610948565b9050600060048a604001516004811115610aa757610aa7610e39565b03610b2d57895160405163556d6e9f60e01b81526000600482015260248101889052604481018a90526001600160a01b039091169063556d6e9f90606401602060405180830381865afa158015610b02573d6000803e3d6000fd5b505050506040513d601f19601f82011682018060405250810190610b269190610df7565b9050610bad565b8951604051635e0d443f60e01b815260006004820152600f88900b6024820152604481018a90526001600160a01b0390911690635e0d443f90606401602060405180830381865afa158015610b86573d6000803e3d6000fd5b505050506040513d601f19601f82011682018060405250810190610baa9190610df7565b90505b610bd582828c60a001518981518110610bc857610bc8610da9565b6020026020010151610cdb565b610c185760405162461bcd60e51b81526020600482015260146024820152731c1bdbdb081a5cc81b9bdd0818985b185b98d95960621b604482015260640161021e565b505060019093019250610a13915050565b5050505050565b600081610c3f6012600a610f33565b6109ab9085610f3f565b600080546001600160a01b038381166001600160a01b0319831681178455604051919092169283917f8be0079c531659141344cd1fd0a4f28419497f9722a3daafe3b4186f6b6457e09190a35050565b6000610ca58284610f78565b610cb090600a610f91565b6109899085610f56565b6000610cc68383610f78565b610cd190600a610f91565b6109899085610f3f565b600081600003610cf05766470de4df82000091505b82841115610d165781610d0d85610d078682610fa0565b90610c30565b1115905061098c565b81610d2584610d078782610fa0565b1115949350505050565b80356001600160a01b0381168114610d4657600080fd5b919050565b60008060408385031215610d5e57600080fd5b610d6783610d2f565b946020939093013593505050565b600060208284031215610d8757600080fd5b5035919050565b600060208284031215610da057600080fd5b61093f82610d2f565b634e487b7160e01b600052603260045260246000fd5b600060208284031215610dd157600080fd5b8151801515811461098c57600080fd5b634e487b7160e01b600052604160045260246000fd5b600060208284031215610e0957600080fd5b5051919050565b634e487b7160e01b600052601160045260246000fd5b8082018082111561094257610942610e10565b634e487b7160e01b600052602160045260246000fd5b600181815b80851115610e8a578160001904821115610e7057610e70610e10565b80851615610e7d57918102915b93841c9390800290610e54565b509250929050565b600082610ea157506001610942565b81610eae57506000610942565b8160018114610ec45760028114610ece57610eea565b6001915050610942565b60ff841115610edf57610edf610e10565b50506001821b610942565b5060208310610133831016604e8410600b8410161715610f0d575081810a610942565b610f178383610e4f565b8060001904821115610f2b57610f2b610e10565b029392505050565b600061093f8383610e92565b808202811582820484141761094257610942610e10565b600082610f7357634e487b7160e01b600052601260045260246000fd5b500490565b60ff828116828216039081111561094257610942610e10565b600061093f60ff841683610e92565b8181038181111561094257610942610e1056fea26469706673582212209a97038b2d9ef2c31bab3b5435def217c68a2cecdfab6d32fccc4538c64c1cc764736f6c63430008170033",
  "linkReferences": {},
  "deployedLinkReferences": {}
}