{
  "_format": "hh-sol-artifact-1",
  "contractName": "stEthEthConvexCurveStrat",
  "sourceName": "contracts/strategies/curve/convex/eth/stEthEthConvexCurveStrat.sol",
  "abi": [
    {
      "inputs": [],
      "stateMutability": "nonpayable",
      "type": "constructor"
    },
    {
      "inputs": [],
      "name": "AccessControlBadConfirmation",
      "type": "error"
    },
    {
      "inputs": [
        {
          "internalType": "address",
          "name": "account",
          "type": "address"
        },
        {
          "internalType": "bytes32",
          "name": "neededRole",
          "type": "bytes32"
        }
      ],
      "name": "AccessControlUnauthorizedAccount",
      "type": "error"
    },
    {
      "inputs": [
        {
          "internalType": "address",
          "name": "target",
          "type": "address"
        }
      ],
      "name": "AddressEmptyCode",
      "type": "error"
    },
    {
      "inputs": [
        {
          "internalType": "address",
          "name": "account",
          "type": "address"
        }
      ],
      "name": "AddressInsufficientBalance",
      "type": "error"
    },
    {
      "inputs": [],
      "name": "FailedInnerCall",
      "type": "error"
    },
    {
      "inputs": [],
      "name": "MustBeCalledByZunamiPool",
      "type": "error"
    },
    {
      "inputs": [],
      "name": "MustHaveOwner",
      "type": "error"
    },
    {
      "inputs": [
        {
          "internalType": "address",
          "name": "token",
          "type": "address"
        }
      ],
      "name": "SafeERC20FailedOperation",
      "type": "error"
    },
    {
      "inputs": [],
      "name": "WrongBoosterDepositAll",
      "type": "error"
    },
    {
      "inputs": [],
      "name": "WrongDecimalMultipliers",
      "type": "error"
    },
    {
      "inputs": [],
      "name": "WrongTokens",
      "type": "error"
    },
    {
      "inputs": [],
      "name": "ZeroAddress",
      "type": "error"
    },
    {
      "inputs": [],
      "name": "ZeroValue",
      "type": "error"
    },
    {
      "anonymous": false,
      "inputs": [
        {
          "indexed": false,
          "internalType": "uint256",
          "name": "oldAmount",
          "type": "uint256"
        },
        {
          "indexed": false,
          "internalType": "uint256",
          "name": "newAmount",
          "type": "uint256"
        }
      ],
      "name": "MinDepositAmountUpdated",
      "type": "event"
    },
    {
      "anonymous": false,
      "inputs": [
        {
          "indexed": false,
          "internalType": "address",
          "name": "oracleAddr",
          "type": "address"
        }
      ],
      "name": "PriceOracleSet",
      "type": "event"
    },
    {
      "anonymous": false,
      "inputs": [
        {
          "indexed": true,
          "internalType": "bytes32",
          "name": "role",
          "type": "bytes32"
        },
        {
          "indexed": true,
          "internalType": "bytes32",
          "name": "previousAdminRole",
          "type": "bytes32"
        },
        {
          "indexed": true,
          "internalType": "bytes32",
          "name": "newAdminRole",
          "type": "bytes32"
        }
      ],
      "name": "RoleAdminChanged",
      "type": "event"
    },
    {
      "anonymous": false,
      "inputs": [
        {
          "indexed": true,
          "internalType": "bytes32",
          "name": "role",
          "type": "bytes32"
        },
        {
          "indexed": true,
          "internalType": "address",
          "name": "account",
          "type": "address"
        },
        {
          "indexed": true,
          "internalType": "address",
          "name": "sender",
          "type": "address"
        }
      ],
      "name": "RoleGranted",
      "type": "event"
    },
    {
      "anonymous": false,
      "inputs": [
        {
          "indexed": true,
          "internalType": "bytes32",
          "name": "role",
          "type": "bytes32"
        },
        {
          "indexed": true,
          "internalType": "address",
          "name": "account",
          "type": "address"
        },
        {
          "indexed": true,
          "internalType": "address",
          "name": "sender",
          "type": "address"
        }
      ],
      "name": "RoleRevoked",
      "type": "event"
    },
    {
      "anonymous": false,
      "inputs": [
        {
          "indexed": false,
          "internalType": "address",
          "name": "nativeConverter",
          "type": "address"
        }
      ],
      "name": "SetNativeConverter",
      "type": "event"
    },
    {
      "anonymous": false,
      "inputs": [
        {
          "indexed": false,
          "internalType": "address",
          "name": "zunamiPoolAddr",
          "type": "address"
        }
      ],
      "name": "ZunamiPoolSet",
      "type": "event"
    },
    {
      "inputs": [],
      "name": "CURVE_POOL_ETH_ID",
      "outputs": [
        {
          "internalType": "uint128",
          "name": "",
          "type": "uint128"
        }
      ],
      "stateMutability": "view",
      "type": "function"
    },
    {
      "inputs": [],
      "name": "CURVE_POOL_ETH_ID_INT",
      "outputs": [
        {
          "internalType": "int128",
          "name": "",
          "type": "int128"
        }
      ],
      "stateMutability": "view",
      "type": "function"
    },
    {
      "inputs": [],
      "name": "CURVE_POOL_TOKEN_ID",
      "outputs": [
        {
          "internalType": "uint128",
          "name": "",
          "type": "uint128"
        }
      ],
      "stateMutability": "view",
      "type": "function"
    },
    {
      "inputs": [],
      "name": "CURVE_POOL_TOKEN_ID_INT",
      "outputs": [
        {
          "internalType": "int128",
          "name": "",
          "type": "int128"
        }
      ],
      "stateMutability": "view",
      "type": "function"
    },
    {
      "inputs": [],
      "name": "DEFAULT_ADMIN_ROLE",
      "outputs": [
        {
          "internalType": "bytes32",
          "name": "",
          "type": "bytes32"
        }
      ],
      "stateMutability": "view",
      "type": "function"
    },
    {
      "inputs": [],
      "name": "DEPOSIT_DENOMINATOR",
      "outputs": [
        {
          "internalType": "uint256",
          "name": "",
          "type": "uint256"
        }
      ],
      "stateMutability": "view",
      "type": "function"
    },
    {
      "inputs": [],
      "name": "POOL_ASSETS",
      "outputs": [
        {
          "internalType": "uint8",
          "name": "",
          "type": "uint8"
        }
      ],
      "stateMutability": "view",
      "type": "function"
    },
    {
      "inputs": [],
      "name": "PRICE_DENOMINATOR",
      "outputs": [
        {
          "internalType": "uint256",
          "name": "",
          "type": "uint256"
        }
      ],
      "stateMutability": "view",
      "type": "function"
    },
    {
      "inputs": [],
      "name": "RATIO_MULTIPLIER",
      "outputs": [
        {
          "internalType": "uint256",
          "name": "",
          "type": "uint256"
        }
      ],
      "stateMutability": "view",
      "type": "function"
    },
    {
      "inputs": [],
      "name": "ZUNAMI_FRXETH_TOKEN_ID",
      "outputs": [
        {
          "internalType": "uint256",
          "name": "",
          "type": "uint256"
        }
      ],
      "stateMutability": "view",
      "type": "function"
    },
    {
      "inputs": [],
      "name": "ZUNAMI_WETH_TOKEN_ID",
      "outputs": [
        {
          "internalType": "uint256",
          "name": "",
          "type": "uint256"
        }
      ],
      "stateMutability": "view",
      "type": "function"
    },
    {
      "inputs": [
        {
          "internalType": "uint256[5]",
          "name": "tokenAmounts",
          "type": "uint256[5]"
        },
        {
          "internalType": "bool",
          "name": "isDeposit",
          "type": "bool"
        }
      ],
      "name": "calcTokenAmount",
      "outputs": [
        {
          "internalType": "uint256",
          "name": "sharesAmount",
          "type": "uint256"
        }
      ],
      "stateMutability": "view",
      "type": "function"
    },
    {
      "inputs": [
        {
          "internalType": "address",
          "name": "receiver",
          "type": "address"
        },
        {
          "internalType": "contract IERC20[]",
          "name": "rewardTokens",
          "type": "address[]"
        }
      ],
      "name": "claimRewards",
      "outputs": [],
      "stateMutability": "nonpayable",
      "type": "function"
    },
    {
      "inputs": [],
      "name": "cvxBooster",
      "outputs": [
        {
          "internalType": "contract IConvexBooster",
          "name": "",
          "type": "address"
        }
      ],
      "stateMutability": "view",
      "type": "function"
    },
    {
      "inputs": [],
      "name": "cvxPID",
      "outputs": [
        {
          "internalType": "uint256",
          "name": "",
          "type": "uint256"
        }
      ],
      "stateMutability": "view",
      "type": "function"
    },
    {
      "inputs": [],
      "name": "cvxRewards",
      "outputs": [
        {
          "internalType": "contract IConvexRewards",
          "name": "",
          "type": "address"
        }
      ],
      "stateMutability": "view",
      "type": "function"
    },
    {
      "inputs": [
        {
          "internalType": "uint256[5]",
          "name": "amounts",
          "type": "uint256[5]"
        }
      ],
      "name": "deposit",
      "outputs": [
        {
          "internalType": "uint256",
          "name": "",
          "type": "uint256"
        }
      ],
      "stateMutability": "nonpayable",
      "type": "function"
    },
    {
      "inputs": [],
      "name": "depositedLiquidity",
      "outputs": [
        {
          "internalType": "uint256",
          "name": "",
          "type": "uint256"
        }
      ],
      "stateMutability": "view",
      "type": "function"
    },
    {
      "inputs": [
        {
          "internalType": "bytes32",
          "name": "role",
          "type": "bytes32"
        }
      ],
      "name": "getRoleAdmin",
      "outputs": [
        {
          "internalType": "bytes32",
          "name": "",
          "type": "bytes32"
        }
      ],
      "stateMutability": "view",
      "type": "function"
    },
    {
      "inputs": [
        {
          "internalType": "bytes32",
          "name": "role",
          "type": "bytes32"
        },
        {
          "internalType": "address",
          "name": "account",
          "type": "address"
        }
      ],
      "name": "grantRole",
      "outputs": [],
      "stateMutability": "nonpayable",
      "type": "function"
    },
    {
      "inputs": [
        {
          "internalType": "bytes32",
          "name": "role",
          "type": "bytes32"
        },
        {
          "internalType": "address",
          "name": "account",
          "type": "address"
        }
      ],
      "name": "hasRole",
      "outputs": [
        {
          "internalType": "bool",
          "name": "",
          "type": "bool"
        }
      ],
      "stateMutability": "view",
      "type": "function"
    },
    {
      "inputs": [],
      "name": "minDepositAmount",
      "outputs": [
        {
          "internalType": "uint256",
          "name": "",
          "type": "uint256"
        }
      ],
      "stateMutability": "view",
      "type": "function"
    },
    {
      "inputs": [],
      "name": "nativeConverter",
      "outputs": [
        {
          "internalType": "contract INativeConverter",
          "name": "",
          "type": "address"
        }
      ],
      "stateMutability": "view",
      "type": "function"
    },
    {
      "inputs": [],
      "name": "oracle",
      "outputs": [
        {
          "internalType": "contract IOracle",
          "name": "",
          "type": "address"
        }
      ],
      "stateMutability": "view",
      "type": "function"
    },
    {
      "inputs": [],
      "name": "pool",
      "outputs": [
        {
          "internalType": "contract ICurvePool2",
          "name": "",
          "type": "address"
        }
      ],
      "stateMutability": "view",
      "type": "function"
    },
    {
      "inputs": [],
      "name": "poolToken",
      "outputs": [
        {
          "internalType": "contract IERC20",
          "name": "",
          "type": "address"
        }
      ],
      "stateMutability": "view",
      "type": "function"
    },
    {
      "inputs": [
        {
          "internalType": "bytes32",
          "name": "role",
          "type": "bytes32"
        },
        {
          "internalType": "address",
          "name": "callerConfirmation",
          "type": "address"
        }
      ],
      "name": "renounceRole",
      "outputs": [],
      "stateMutability": "nonpayable",
      "type": "function"
    },
    {
      "inputs": [
        {
          "internalType": "bytes32",
          "name": "role",
          "type": "bytes32"
        },
        {
          "internalType": "address",
          "name": "account",
          "type": "address"
        }
      ],
      "name": "revokeRole",
      "outputs": [],
      "stateMutability": "nonpayable",
      "type": "function"
    },
    {
      "inputs": [
        {
          "internalType": "address",
          "name": "nativeConverterAddr",
          "type": "address"
        }
      ],
      "name": "setNativeConverter",
      "outputs": [],
      "stateMutability": "nonpayable",
      "type": "function"
    },
    {
      "inputs": [
        {
          "internalType": "address",
          "name": "oracleAddr",
          "type": "address"
        }
      ],
      "name": "setPriceOracle",
      "outputs": [],
      "stateMutability": "nonpayable",
      "type": "function"
    },
    {
      "inputs": [
        {
          "internalType": "address",
          "name": "zunamiAddr",
          "type": "address"
        }
      ],
      "name": "setZunamiPool",
      "outputs": [],
      "stateMutability": "nonpayable",
      "type": "function"
    },
    {
      "inputs": [
        {
          "internalType": "bytes4",
          "name": "interfaceId",
          "type": "bytes4"
        }
      ],
      "name": "supportsInterface",
      "outputs": [
        {
          "internalType": "bool",
          "name": "",
          "type": "bool"
        }
      ],
      "stateMutability": "view",
      "type": "function"
    },
    {
      "inputs": [
        {
          "internalType": "uint256",
          "name": "",
          "type": "uint256"
        }
      ],
      "name": "tokenDecimalsMultipliers",
      "outputs": [
        {
          "internalType": "uint256",
          "name": "",
          "type": "uint256"
        }
      ],
      "stateMutability": "view",
      "type": "function"
    },
    {
      "inputs": [
        {
          "internalType": "uint256",
          "name": "",
          "type": "uint256"
        }
      ],
      "name": "tokens",
      "outputs": [
        {
          "internalType": "contract IERC20",
          "name": "",
          "type": "address"
        }
      ],
      "stateMutability": "view",
      "type": "function"
    },
    {
      "inputs": [],
      "name": "totalHoldings",
      "outputs": [
        {
          "internalType": "uint256",
          "name": "",
          "type": "uint256"
        }
      ],
      "stateMutability": "view",
      "type": "function"
    },
    {
      "inputs": [
        {
          "internalType": "uint256",
          "name": "_minDepositAmount",
          "type": "uint256"
        }
      ],
      "name": "updateMinDepositAmount",
      "outputs": [],
      "stateMutability": "nonpayable",
      "type": "function"
    },
    {
      "inputs": [],
      "name": "weth",
      "outputs": [
        {
          "internalType": "contract IWETH",
          "name": "",
          "type": "address"
        }
      ],
      "stateMutability": "view",
      "type": "function"
    },
    {
      "inputs": [
        {
          "internalType": "address",
          "name": "receiver",
          "type": "address"
        },
        {
          "internalType": "uint256",
          "name": "poolTokenRatio",
          "type": "uint256"
        },
        {
          "internalType": "uint256[5]",
          "name": "tokenAmounts",
          "type": "uint256[5]"
        }
      ],
      "name": "withdraw",
      "outputs": [
        {
          "internalType": "bool",
          "name": "",
          "type": "bool"
        }
      ],
      "stateMutability": "nonpayable",
      "type": "function"
    },
    {
      "inputs": [
        {
          "internalType": "uint256[5]",
          "name": "minTokenAmounts",
          "type": "uint256[5]"
        }
      ],
      "name": "withdrawAll",
      "outputs": [],
      "stateMutability": "nonpayable",
      "type": "function"
    },
    {
      "inputs": [
        {
          "internalType": "contract IERC20",
          "name": "_token",
          "type": "address"
        }
      ],
      "name": "withdrawStuckToken",
      "outputs": [],
      "stateMutability": "nonpayable",
      "type": "function"
    },
    {
      "inputs": [],
      "name": "zunamiPool",
      "outputs": [
        {
          "internalType": "contract IPool",
          "name": "",
          "type": "address"
        }
      ],
      "stateMutability": "view",
      "type": "function"
    },
    {
      "stateMutability": "payable",
      "type": "receive"
    }
  ],
  "bytecode": "0x6101206040526126de6002553480156200001857600080fd5b506040518060a0016040528073c02aaa39b223fe8d0a0e5c4f27ead9083c756cc26001600160a01b03166001600160a01b03168152602001735e8422345238f34275888049021821e8e08caa1f6001600160a01b03166001600160a01b0316815260200160006001600160a01b03166001600160a01b0316815260200160006001600160a01b03166001600160a01b0316815260200160006001600160a01b03166001600160a01b03168152506040518060a001604052806001815260200160018152602001600081526020016000815260200160008152507321e27a5e5513d6e65c4f830167390997aa84843a8073f403c135812408bfbe8713b5a23a04b3d48aae31736b27d7bc63f1999d14ff9ba900069ee516669ee860b186868686868686868686868383620001556000801b33620003cd60201b60201c565b506000805b6005811015620002a957818015620001955750600084826005811062000184576200018462000521565b60200201516001600160a01b031614155b15620001b457604051631d37a6fd60e11b815260040160405180910390fd5b6000848260058110620001cb57620001cb62000521565b60200201516001600160a01b031603620001e457600191505b6000848260058110620001fb57620001fb62000521565b60200201516001600160a01b0316141580156200022f575082816005811062000228576200022862000521565b6020020151155b8062000281575060008482600581106200024d576200024d62000521565b60200201516001600160a01b031614801562000281575082816005811062000279576200027962000521565b602002015115155b15620002a05760405163bfa45dc560e01b815260040160405180910390fd5b6001016200015a565b50620002b960038460056200047c565b50620002c96008836005620004d9565b5050506001600160a01b0383169050620002f65760405163d92e233d60e01b815260040160405180910390fd5b6001600160a01b038083166080528116620003245760405163d92e233d60e01b815260040160405180910390fd5b6001600160a01b0390811660a05286169250620003579150505760405163d92e233d60e01b815260040160405180910390fd5b6001600160a01b0380841660e0528216620003855760405163d92e233d60e01b815260040160405180910390fd5b6001600160a01b038216610100526000819003620003b657604051637c946ed760e01b815260040160405180910390fd5b60c05250620005379b505050505050505050505050565b6000828152602081815260408083206001600160a01b038516845290915281205460ff1662000472576000838152602081815260408083206001600160a01b03861684529091529020805460ff19166001179055620004293390565b6001600160a01b0316826001600160a01b0316847f2f8788117e7eff1d82e926ec794901d17c78024a50270940304540a733656f0d60405160405180910390a450600162000476565b5060005b92915050565b8260058101928215620004c7579160200282015b82811115620004c757825182546001600160a01b0319166001600160a01b0390911617825560209092019160019091019062000490565b50620004d59291506200050a565b5090565b8260058101928215620004c7579160200282015b82811115620004c7578251825591602001919060010190620004ed565b5b80821115620004d557600081556001016200050b565b634e487b7160e01b600052603260045260246000fd5b60805160a05160c05160e051610100516124f3620005d7600039600081816106e601528181610fec0152818161138b015261141101526000818161029d01528181611bed0152611c5501526000818161030b0152611c2101526000818161073a015281816119ab0152611bcb01526000818161036301528181610e350152818161168b0152818161175d015281816118560152611b3b01526124f36000f3fe60806040526004361061024a5760003560e01c8063698925eb11610139578063978b39d0116100b6578063cbdf382c1161007a578063cbdf382c14610728578063ceae9c441461075c578063d547741f14610771578063d5f651a414610566578063df32755414610791578063e9ec2e99146107a657600080fd5b8063978b39d01461067e5780639d57b9a6146106b4578063a217fddf14610609578063aa5ccb90146106d4578063b67d611d1461070857600080fd5b806381a7b894116100fd57806381a7b894146105e957806382f8aaca14610609578063847802051461061e5780638bd0a5d21461063e57806391d148541461065e57600080fd5b8063698925eb1461053e5780636c1516e1146105665780636d9164c61461058257806375451b4f146105a25780637dc0d1d0146105c957600080fd5b8063248a9ca3116101c75780634f64b2be1161018b5780634f64b2be146104a8578063530e784f146104c857806356edb316146104e85780635961598314610508578063645006ca1461052857600080fd5b8063248a9ca3146103f05780632f2ff15d1461042057806336568abe146104405780633fc8cef31461046057806345c78f1d1461048857600080fd5b806316f0115b1161020e57806316f0115b146103515780631977488a146103855780631a9753a81461039b5780632026ffa3146103b0578063213c79d8146103d057600080fd5b806301ffc9a7146102565780630229c64c1461028b578063068acf6c146102d757806308051e97146102f957806310c231c71461033b57600080fd5b3661025157005b600080fd5b34801561026257600080fd5b506102766102713660046120bb565b6107bb565b60405190151581526020015b60405180910390f35b34801561029757600080fd5b506102bf7f000000000000000000000000000000000000000000000000000000000000000081565b6040516001600160a01b039091168152602001610282565b3480156102e357600080fd5b506102f76102f23660046120fa565b6107f2565b005b34801561030557600080fd5b5061032d7f000000000000000000000000000000000000000000000000000000000000000081565b604051908152602001610282565b34801561034757600080fd5b5061032d600e5481565b34801561035d57600080fd5b506102bf7f000000000000000000000000000000000000000000000000000000000000000081565b34801561039157600080fd5b5061032d61271081565b3480156103a757600080fd5b5061032d600181565b3480156103bc57600080fd5b506102f76103cb36600461215e565b610889565b3480156103dc57600080fd5b506001546102bf906001600160a01b031681565b3480156103fc57600080fd5b5061032d61040b366004612225565b60009081526020819052604090206001015490565b34801561042c57600080fd5b506102f761043b36600461223e565b6108df565b34801561044c57600080fd5b506102f761045b36600461223e565b61090a565b34801561046c57600080fd5b506102bf73c02aaa39b223fe8d0a0e5c4f27ead9083c756cc281565b34801561049457600080fd5b50600f546102bf906001600160a01b031681565b3480156104b457600080fd5b506102bf6104c3366004612225565b61093d565b3480156104d457600080fd5b506102f76104e33660046120fa565b61095d565b3480156104f457600080fd5b5061032d610503366004612225565b6109e5565b34801561051457600080fd5b506102f76105233660046120fa565b6109fc565b34801561053457600080fd5b5061032d60025481565b34801561054a57600080fd5b50610553600181565b604051600f9190910b8152602001610282565b34801561057257600080fd5b5061032d670de0b6b3a764000081565b34801561058e57600080fd5b5061027661059d3660046122dc565b610a7c565b3480156105ae57600080fd5b506105b7600581565b60405160ff9091168152602001610282565b3480156105d557600080fd5b50600d546102bf906001600160a01b031681565b3480156105f557600080fd5b506102f761060436600461231b565b610c52565b34801561061557600080fd5b5061032d600081565b34801561062a57600080fd5b506102f7610639366004612225565b610ce8565b34801561064a57600080fd5b506102f76106593660046120fa565b610d88565b34801561066a57600080fd5b5061027661067936600461223e565b610e08565b34801561068a57600080fd5b50610693600081565b6040516fffffffffffffffffffffffffffffffff9091168152602001610282565b3480156106c057600080fd5b5061032d6106cf366004612345565b610e31565b3480156106e057600080fd5b506102bf7f000000000000000000000000000000000000000000000000000000000000000081565b34801561071457600080fd5b5061032d61072336600461231b565b610eca565b34801561073457600080fd5b506102bf7f000000000000000000000000000000000000000000000000000000000000000081565b34801561076857600080fd5b50610693600181565b34801561077d57600080fd5b506102f761078c36600461223e565b610f44565b34801561079d57600080fd5b50610553600081565b3480156107b257600080fd5b5061032d610f69565b60006001600160e01b03198216637965db0b60e01b14806107ec57506301ffc9a760e01b6001600160e01b03198316145b92915050565b60006107fd81610f81565b6040516370a0823160e01b81523060048201526000906001600160a01b038416906370a0823190602401602060405180830381865afa158015610844573d6000803e3d6000fd5b505050506040513d601f19601f820116820180604052508101906108689190612372565b90508015610884576108846001600160a01b0384163383610f8b565b505050565b6001546001600160a01b0316336001600160a01b0316146108bd576040516304d6e46b60e31b815260040160405180910390fd5b6108c5610fea565b6108db81836108d66000855161106e565b6110ed565b5050565b6000828152602081905260409020600101546108fa81610f81565b61090483836111ee565b50505050565b6001600160a01b03811633146109335760405163334bd91960e11b815260040160405180910390fd5b6108848282611280565b6003816005811061094d57600080fd5b01546001600160a01b0316905081565b600061096881610f81565b6001600160a01b03821661098f5760405163d92e233d60e01b815260040160405180910390fd5b600d80546001600160a01b0319166001600160a01b0384169081179091556040519081527f6536690106168bdf4ba72c128a053d817999b1db90cae23f139b293bf862cb75906020015b60405180910390a15050565b600881600581106109f557600080fd5b0154905081565b6000610a0781610f81565b6001600160a01b038216610a2e5760405163d92e233d60e01b815260040160405180910390fd5b600180546001600160a01b0319166001600160a01b0384169081179091556040519081527ffa639b2012458fd129b4bf30b2a98c9b56cc3a9ba0606013b8d1f9232cb4498a906020016109d9565b6001546000906001600160a01b0316336001600160a01b031614610ab3576040516304d6e46b60e31b815260040160405180910390fd5b6000610abe846112eb565b9050610acb836000610e31565b811015610adc576000915050610c4b565b60408051600580825260c082019092526000916020820160a08036833701905050905060005b6005811015610bd357600060038260058110610b2057610b2061238b565b01546001600160a01b031614610bd35760038160058110610b4357610b4361238b565b01546040516370a0823160e01b81523060048201526001600160a01b03909116906370a0823190602401602060405180830381865afa158015610b8a573d6000803e3d6000fd5b505050506040513d601f19601f82011682018060405250810190610bae9190612372565b828281518110610bc057610bc061238b565b6020908102919091010152600101610b02565b5081600e6000828254610be691906123b7565b90915550610bf890508285600061136f565b6040805160a0810191829052610c4491610c3d919060039060059082845b81546001600160a01b03168152600190910190602001808311610c16575050505050611481565b87836110ed565b6001925050505b9392505050565b6001546001600160a01b0316336001600160a01b031614610c86576040516304d6e46b60e31b815260040160405180910390fd5b610c94600e5482600161136f565b6000600e556040805160a0810191829052600380546001600160a01b03168252610ce592610cd8929190600590600460208501808311610c16575050505050611481565b336108d66000600561106e565b50565b6000610cf381610f81565b600082118015610d0557506127108211155b610d465760405162461bcd60e51b815260206004820152600d60248201526c57726f6e6720616d6f756e742160981b60448201526064015b60405180910390fd5b60025460408051918252602082018490527f5fb4589fcdfab8bd40d9776abc10876bb1cb02c0edab28d05cc42869b40e0329910160405180910390a150600255565b6000610d9381610f81565b6001600160a01b038216610dba5760405163d92e233d60e01b815260040160405180910390fd5b600f80546001600160a01b0319166001600160a01b0384169081179091556040519081527f113fc8a4a3586fbe8fc642d61341bb99d766df26cec9b27aff5417a921f8621f906020016109d9565b6000918252602082815260408084206001600160a01b0393909316845291905290205460ff1690565b60007f00000000000000000000000000000000000000000000000000000000000000006001600160a01b031663ed8e84f3610e6b856114ff565b846040518363ffffffff1660e01b8152600401610e899291906123ed565b602060405180830381865afa158015610ea6573d6000803e3d6000fd5b505050506040513d601f19601f82011682018060405250810190610c4b9190612372565b6001546000906001600160a01b0316336001600160a01b031614610f01576040516304d6e46b60e31b815260040160405180910390fd5b610f0a826115d5565b610f1657506000919050565b6000610f2183611755565b905080600e6000828254610f35919061240a565b90915550610c4b905081611798565b600082815260208190526040902060010154610f5f81610f81565b6109048383611280565b6000610f7c610f77600e5490565b611798565b905090565b610ce581336117b5565b6040516001600160a01b0383811660248301526044820183905261088491859182169063a9059cbb906064015b604051602081830303815290604052915060e01b6020820180516001600160e01b0383818316178352505050506117ee565b7f00000000000000000000000000000000000000000000000000000000000000006001600160a01b0316633d18b9126040518163ffffffff1660e01b81526004016020604051808303816000875af115801561104a573d6000803e3d6000fd5b505050506040513d601f19601f82011682018060405250810190610ce5919061241d565b60608167ffffffffffffffff81111561108957611089612117565b6040519080825280602002602001820160405280156110b2578160200160208202803683370190505b50905060005b828110156110e657838282815181106110d3576110d361238b565b60209081029190910101526001016110b8565b5092915050565b60008060005b85518110156111e65785818151811061110e5761110e61238b565b6020026020010151915060006001600160a01b0316826001600160a01b031603156111e6578381815181106111455761114561238b565b60209081029190910101516040516370a0823160e01b81523060048201526001600160a01b038416906370a0823190602401602060405180830381865afa158015611194573d6000803e3d6000fd5b505050506040513d601f19601f820116820180604052508101906111b89190612372565b6111c291906123b7565b925082156111de576111de6001600160a01b0383168685610f8b565b6001016110f3565b505050505050565b60006111fa8383610e08565b611278576000838152602081815260408083206001600160a01b03861684529091529020805460ff191660011790556112303390565b6001600160a01b0316826001600160a01b0316847f2f8788117e7eff1d82e926ec794901d17c78024a50270940304540a733656f0d60405160405180910390a45060016107ec565b5060006107ec565b600061128c8383610e08565b15611278576000838152602081815260408083206001600160a01b0386168085529252808320805460ff1916905551339286917ff6391f5c32d9c69d2a47ea670b442974b53935d1edc7fd64eb21e047a839171b9190a45060016107ec565b600080821180156113045750670de0b6b3a76400008211155b6113485760405162461bcd60e51b815260206004820152601560248201527457726f6e6720506f6f6c546f6b656e20526174696f60581b6044820152606401610d3d565b670de0b6b3a76400008261135b600e5490565b611365919061243a565b6107ec9190612451565b80156113f4576040516324f81cd160e11b8152600160048201527f00000000000000000000000000000000000000000000000000000000000000006001600160a01b0316906349f039a290602401600060405180830381600087803b1580156113d757600080fd5b505af11580156113eb573d6000803e3d6000fd5b50505050611476565b604051636197390160e11b815260048101849052600060248201527f00000000000000000000000000000000000000000000000000000000000000006001600160a01b03169063c32e720290604401600060405180830381600087803b15801561145d57600080fd5b505af1158015611471573d6000803e3d6000fd5b505050505b610884838383611851565b60408051600580825260c082019092526060916020820160a08036833701905050905060005b60058110156114f9578281600581106114c2576114c261238b565b60200201518282815181106114d9576114d961238b565b6001600160a01b03909216602092830291909101909101526001016114a7565b50919050565b61150761209d565b815115801561151857506020820151155b15611536575050604080518082019091526000808252602082015290565b6040805180820191829052600f546020850151632f69cb6f60e21b9093526000604483015260648201929092529081906001600160a01b031663bda72dbc60848301602060405180830381865afa158015611595573d6000803e3d6000fd5b505050506040513d601f19601f820116820180604052508101906115b99190612372565b84516115c5919061240a565b8152600060209091015292915050565b6040805160a081019182905260009182919060089060059082845b8154815260200190600101908083116115f05750505050509050600080600090505b60058110156116675782816005811061162d5761162d61238b565b60200201518582600581106116445761164461238b565b6020020151611653919061243a565b61165d908361240a565b9150600101611612565b5060006127106002548361167b919061243a565b6116859190612451565b905060007f00000000000000000000000000000000000000000000000000000000000000006001600160a01b031663ed8e84f36116c1886114ff565b60016040518363ffffffff1660e01b81526004016116e09291906123ed565b602060405180830381865afa1580156116fd573d6000803e3d6000fd5b505050506040513d601f19601f820116820180604052508101906117219190612372565b905081670de0b6b3a7640000611735611910565b61173f908461243a565b6117499190612451565b10159695505050505050565b6000806117827f000000000000000000000000000000000000000000000000000000000000000084611a3b565b905061178d81611b27565b91506114f982611bbe565b6000670de0b6b3a76400006117ab611910565b611365908461243a565b6117bf8282610e08565b6108db5760405163e2517d3f60e01b81526001600160a01b038216600482015260248101839052604401610d3d565b60006118036001600160a01b03841683611ce7565b90508051600014158015611828575080806020019051810190611826919061241d565b155b1561088457604051635274afe760e01b81526001600160a01b0384166004820152602401610d3d565b6000807f00000000000000000000000000000000000000000000000000000000000000006001600160a01b0316631a4d01d28683878160200201516040516001600160e01b031960e086901b1681526004810193909352600f9190910b602483015260448201526064016020604051808303816000875af11580156118da573d6000803e3d6000fd5b505050506040513d601f19601f820116820180604052508101906118fe9190612372565b905061190981611cf5565b5050505050565b600d54604051638b2f0f4f60e01b815273eeeeeeeeeeeeeeeeeeeeeeeeeeeeeeeeeeeeeeee60048201526000916001600160a01b031690638b2f0f4f90602401602060405180830381865afa15801561196d573d6000803e3d6000fd5b505050506040513d601f19601f820116820180604052508101906119919190612372565b600d54604051638b2f0f4f60e01b81526001600160a01b037f00000000000000000000000000000000000000000000000000000000000000008116600483015290911690638b2f0f4f90602401602060405180830381865afa1580156119fb573d6000803e3d6000fd5b505050506040513d601f19601f82011682018060405250810190611a1f9190612372565b611a3190670de0b6b3a764000061243a565b610f7c9190612451565b611a4361209d565b602082015115611b0c57600f546020830151600454611a70926001600160a01b0391821692911690610f8b565b600f546001600160a01b031663cf228d53600084600160200201516040516001600160e01b031960e085901b16815291151560048301526024820152600060448201526064016020604051808303816000875af1158015611ad5573d6000803e3d6000fd5b505050506040513d601f19601f82011682018060405250810190611af99190612372565b82518390611b0890839061240a565b9052505b815115611b1e578151611b1e90611d58565b47815292915050565b8051604051630b4c7e4d60e01b81526000917f00000000000000000000000000000000000000000000000000000000000000006001600160a01b031691630b4c7e4d9190611b7b9086908690600401612473565b60206040518083038185885af1158015611b99573d6000803e3d6000fd5b50505050506040513d601f19601f820116820180604052508101906107ec9190612372565b611c126001600160a01b037f0000000000000000000000000000000000000000000000000000000000000000167f000000000000000000000000000000000000000000000000000000000000000083611db9565b6040516321d0683360e11b81527f0000000000000000000000000000000000000000000000000000000000000000600482015260248101829052600160448201527f00000000000000000000000000000000000000000000000000000000000000006001600160a01b0316906343a0d066906064016020604051808303816000875af1158015611ca6573d6000803e3d6000fd5b505050506040513d601f19601f82011682018060405250810190611cca919061241d565b610ce557604051632e62408b60e11b815260040160405180910390fd5b6060610c4b83836000611e43565b73c02aaa39b223fe8d0a0e5c4f27ead9083c756cc26001600160a01b031663d0e30db0826040518263ffffffff1660e01b81526004016000604051808303818588803b158015611d4457600080fd5b505af11580156111e6573d6000803e3d6000fd5b604051632e1a7d4d60e01b81526004810182905273c02aaa39b223fe8d0a0e5c4f27ead9083c756cc290632e1a7d4d90602401600060405180830381600087803b158015611da557600080fd5b505af1158015611909573d6000803e3d6000fd5b604051636eb1769f60e11b81523060048201526001600160a01b0383811660248301526000919085169063dd62ed3e90604401602060405180830381865afa158015611e09573d6000803e3d6000fd5b505050506040513d601f19601f82011682018060405250810190611e2d9190612372565b90506109048484611e3e858561240a565b611ee0565b606081471015611e685760405163cd78605960e01b8152306004820152602401610d3d565b600080856001600160a01b03168486604051611e84919061248e565b60006040518083038185875af1925050503d8060008114611ec1576040519150601f19603f3d011682016040523d82523d6000602084013e611ec6565b606091505b5091509150611ed6868383611f70565b9695505050505050565b604080516001600160a01b038416602482015260448082018490528251808303909101815260649091019091526020810180516001600160e01b031663095ea7b360e01b179052611f318482611fcc565b610904576040516001600160a01b03848116602483015260006044830152611f6691869182169063095ea7b390606401610fb8565b61090484826117ee565b606082611f8557611f8082612074565b610c4b565b8151158015611f9c57506001600160a01b0384163b155b15611fc557604051639996b31560e01b81526001600160a01b0385166004820152602401610d3d565b5080610c4b565b6000806000846001600160a01b031684604051611fe9919061248e565b6000604051808303816000865af19150503d8060008114612026576040519150601f19603f3d011682016040523d82523d6000602084013e61202b565b606091505b5091509150818015612055575080511580612055575080806020019051810190612055919061241d565b801561206b57506000856001600160a01b03163b115b95945050505050565b8051156120845780518082602001fd5b604051630a12f52160e11b815260040160405180910390fd5b60405180604001604052806002906020820280368337509192915050565b6000602082840312156120cd57600080fd5b81356001600160e01b031981168114610c4b57600080fd5b6001600160a01b0381168114610ce557600080fd5b60006020828403121561210c57600080fd5b8135610c4b816120e5565b634e487b7160e01b600052604160045260246000fd5b604051601f8201601f1916810167ffffffffffffffff8111828210171561215657612156612117565b604052919050565b6000806040838503121561217157600080fd5b823561217c816120e5565b915060208381013567ffffffffffffffff8082111561219a57600080fd5b818601915086601f8301126121ae57600080fd5b8135818111156121c0576121c0612117565b8060051b91506121d184830161212d565b81815291830184019184810190898411156121eb57600080fd5b938501935b838510156122155784359250612205836120e5565b82825293850193908501906121f0565b8096505050505050509250929050565b60006020828403121561223757600080fd5b5035919050565b6000806040838503121561225157600080fd5b823591506020830135612263816120e5565b809150509250929050565b600082601f83011261227f57600080fd5b60405160a0810181811067ffffffffffffffff821117156122a2576122a2612117565b6040528060a08401858111156122b757600080fd5b845b818110156122d15780358352602092830192016122b9565b509195945050505050565b600080600060e084860312156122f157600080fd5b83356122fc816120e5565b925060208401359150612312856040860161226e565b90509250925092565b600060a0828403121561232d57600080fd5b610c4b838361226e565b8015158114610ce557600080fd5b60008060c0838503121561235857600080fd5b612362848461226e565b915060a083013561226381612337565b60006020828403121561238457600080fd5b5051919050565b634e487b7160e01b600052603260045260246000fd5b634e487b7160e01b600052601160045260246000fd5b818103818111156107ec576107ec6123a1565b8060005b60028110156109045781518452602093840193909101906001016123ce565b606081016123fb82856123ca565b82151560408301529392505050565b808201808211156107ec576107ec6123a1565b60006020828403121561242f57600080fd5b8151610c4b81612337565b80820281158282048414176107ec576107ec6123a1565b60008261246e57634e487b7160e01b600052601260045260246000fd5b500490565b6060810161248182856123ca565b8260408301529392505050565b6000825160005b818110156124af5760208186018101518583015201612495565b50600092019182525091905056fea26469706673582212205afcdafb91fa9003cc19b92e8b6a793cf70ae89cbe257d59154871c074140c5d64736f6c63430008170033",
  "linkReferences": {},
  "deployedLinkReferences": {}
}