{
  "_format": "hh-sol-artifact-1",
  "contractName": "stEthEthConvexCurveStrat",
  "sourceName": "contracts/strategies/curve/convex/eth/stEthEthConvexCurveStrat.sol",
  "abi": [
    {
      "inputs": [],
      "stateMutability": "nonpayable",
      "type": "constructor"
    },
    {
      "inputs": [],
      "name": "AccessControlBadConfirmation",
      "type": "error"
    },
    {
      "inputs": [
        {
          "internalType": "address",
          "name": "account",
          "type": "address"
        },
        {
          "internalType": "bytes32",
          "name": "neededRole",
          "type": "bytes32"
        }
      ],
      "name": "AccessControlUnauthorizedAccount",
      "type": "error"
    },
    {
      "inputs": [
        {
          "internalType": "address",
          "name": "target",
          "type": "address"
        }
      ],
      "name": "AddressEmptyCode",
      "type": "error"
    },
    {
      "inputs": [
        {
          "internalType": "address",
          "name": "account",
          "type": "address"
        }
      ],
      "name": "AddressInsufficientBalance",
      "type": "error"
    },
    {
      "inputs": [],
      "name": "DepositLiquidityValueTooLow",
      "type": "error"
    },
    {
      "inputs": [],
      "name": "FailedInnerCall",
      "type": "error"
    },
    {
      "inputs": [],
      "name": "MustBeCalledByZunamiPool",
      "type": "error"
    },
    {
      "inputs": [],
      "name": "MustHaveOwner",
      "type": "error"
    },
    {
      "inputs": [
        {
          "internalType": "address",
          "name": "token",
          "type": "address"
        }
      ],
      "name": "SafeERC20FailedOperation",
      "type": "error"
    },
    {
      "inputs": [],
      "name": "WrongBoosterDepositAll",
      "type": "error"
    },
    {
      "inputs": [],
      "name": "WrongDecimalMultipliers",
      "type": "error"
    },
    {
      "inputs": [],
      "name": "WrongTokens",
      "type": "error"
    },
    {
      "inputs": [],
      "name": "ZeroAddress",
      "type": "error"
    },
    {
      "inputs": [],
      "name": "ZeroValue",
      "type": "error"
    },
    {
      "anonymous": false,
      "inputs": [
        {
          "indexed": false,
          "internalType": "address",
          "name": "oracleAddr",
          "type": "address"
        }
      ],
      "name": "PriceOracleSet",
      "type": "event"
    },
    {
      "anonymous": false,
      "inputs": [
        {
          "indexed": true,
          "internalType": "bytes32",
          "name": "role",
          "type": "bytes32"
        },
        {
          "indexed": true,
          "internalType": "bytes32",
          "name": "previousAdminRole",
          "type": "bytes32"
        },
        {
          "indexed": true,
          "internalType": "bytes32",
          "name": "newAdminRole",
          "type": "bytes32"
        }
      ],
      "name": "RoleAdminChanged",
      "type": "event"
    },
    {
      "anonymous": false,
      "inputs": [
        {
          "indexed": true,
          "internalType": "bytes32",
          "name": "role",
          "type": "bytes32"
        },
        {
          "indexed": true,
          "internalType": "address",
          "name": "account",
          "type": "address"
        },
        {
          "indexed": true,
          "internalType": "address",
          "name": "sender",
          "type": "address"
        }
      ],
      "name": "RoleGranted",
      "type": "event"
    },
    {
      "anonymous": false,
      "inputs": [
        {
          "indexed": true,
          "internalType": "bytes32",
          "name": "role",
          "type": "bytes32"
        },
        {
          "indexed": true,
          "internalType": "address",
          "name": "account",
          "type": "address"
        },
        {
          "indexed": true,
          "internalType": "address",
          "name": "sender",
          "type": "address"
        }
      ],
      "name": "RoleRevoked",
      "type": "event"
    },
    {
      "anonymous": false,
      "inputs": [
        {
          "indexed": false,
          "internalType": "address",
          "name": "converter",
          "type": "address"
        }
      ],
      "name": "SetTokenConverter",
      "type": "event"
    },
    {
      "anonymous": false,
      "inputs": [
        {
          "indexed": false,
          "internalType": "uint256",
          "name": "oldSlippage",
          "type": "uint256"
        },
        {
          "indexed": false,
          "internalType": "uint256",
          "name": "newSlippage",
          "type": "uint256"
        }
      ],
      "name": "SlippageSet",
      "type": "event"
    },
    {
      "anonymous": false,
      "inputs": [
        {
          "indexed": false,
          "internalType": "address",
          "name": "zunamiPoolAddr",
          "type": "address"
        }
      ],
      "name": "ZunamiPoolSet",
      "type": "event"
    },
    {
      "inputs": [],
      "name": "CURVE_POOL_ETH_ID",
      "outputs": [
        {
          "internalType": "uint128",
          "name": "",
          "type": "uint128"
        }
      ],
      "stateMutability": "view",
      "type": "function"
    },
    {
      "inputs": [],
      "name": "CURVE_POOL_ETH_ID_INT",
      "outputs": [
        {
          "internalType": "int128",
          "name": "",
          "type": "int128"
        }
      ],
      "stateMutability": "view",
      "type": "function"
    },
    {
      "inputs": [],
      "name": "CURVE_POOL_TOKEN_ID",
      "outputs": [
        {
          "internalType": "uint128",
          "name": "",
          "type": "uint128"
        }
      ],
      "stateMutability": "view",
      "type": "function"
    },
    {
      "inputs": [],
      "name": "CURVE_POOL_TOKEN_ID_INT",
      "outputs": [
        {
          "internalType": "int128",
          "name": "",
          "type": "int128"
        }
      ],
      "stateMutability": "view",
      "type": "function"
    },
    {
      "inputs": [],
      "name": "DEFAULT_ADMIN_ROLE",
      "outputs": [
        {
          "internalType": "bytes32",
          "name": "",
          "type": "bytes32"
        }
      ],
      "stateMutability": "view",
      "type": "function"
    },
    {
      "inputs": [],
      "name": "POOL_ASSETS",
      "outputs": [
        {
          "internalType": "uint8",
          "name": "",
          "type": "uint8"
        }
      ],
      "stateMutability": "view",
      "type": "function"
    },
    {
      "inputs": [],
      "name": "PRICE_DENOMINATOR",
      "outputs": [
        {
          "internalType": "uint256",
          "name": "",
          "type": "uint256"
        }
      ],
      "stateMutability": "view",
      "type": "function"
    },
    {
      "inputs": [],
      "name": "RATIO_MULTIPLIER",
      "outputs": [
        {
          "internalType": "uint256",
          "name": "",
          "type": "uint256"
        }
      ],
      "stateMutability": "view",
      "type": "function"
    },
    {
      "inputs": [],
      "name": "SLIPPAGE_DENOMINATOR",
      "outputs": [
        {
          "internalType": "uint256",
          "name": "",
          "type": "uint256"
        }
      ],
      "stateMutability": "view",
      "type": "function"
    },
    {
      "inputs": [],
      "name": "ZUNAMI_FRXETH_TOKEN_ID",
      "outputs": [
        {
          "internalType": "uint256",
          "name": "",
          "type": "uint256"
        }
      ],
      "stateMutability": "view",
      "type": "function"
    },
    {
      "inputs": [],
      "name": "ZUNAMI_WETH_TOKEN_ID",
      "outputs": [
        {
          "internalType": "uint256",
          "name": "",
          "type": "uint256"
        }
      ],
      "stateMutability": "view",
      "type": "function"
    },
    {
      "inputs": [
        {
          "internalType": "uint256[5]",
          "name": "tokenAmounts",
          "type": "uint256[5]"
        },
        {
          "internalType": "bool",
          "name": "isDeposit",
          "type": "bool"
        }
      ],
      "name": "calcTokenAmount",
      "outputs": [
        {
          "internalType": "uint256",
          "name": "sharesAmount",
          "type": "uint256"
        }
      ],
      "stateMutability": "view",
      "type": "function"
    },
    {
      "inputs": [
        {
          "internalType": "address",
          "name": "receiver",
          "type": "address"
        },
        {
          "internalType": "contract IERC20[]",
          "name": "rewardTokens",
          "type": "address[]"
        }
      ],
      "name": "claimRewards",
      "outputs": [],
      "stateMutability": "nonpayable",
      "type": "function"
    },
    {
      "inputs": [],
      "name": "converter",
      "outputs": [
        {
          "internalType": "contract ITokenConverter",
          "name": "",
          "type": "address"
        }
      ],
      "stateMutability": "view",
      "type": "function"
    },
    {
      "inputs": [],
      "name": "cvxBooster",
      "outputs": [
        {
          "internalType": "contract IConvexBooster",
          "name": "",
          "type": "address"
        }
      ],
      "stateMutability": "view",
      "type": "function"
    },
    {
      "inputs": [],
      "name": "cvxPID",
      "outputs": [
        {
          "internalType": "uint256",
          "name": "",
          "type": "uint256"
        }
      ],
      "stateMutability": "view",
      "type": "function"
    },
    {
      "inputs": [],
      "name": "cvxRewards",
      "outputs": [
        {
          "internalType": "contract IConvexRewards",
          "name": "",
          "type": "address"
        }
      ],
      "stateMutability": "view",
      "type": "function"
    },
    {
      "inputs": [
        {
          "internalType": "uint256[5]",
          "name": "amounts",
          "type": "uint256[5]"
        }
      ],
      "name": "deposit",
      "outputs": [
        {
          "internalType": "uint256",
          "name": "liquidityValue",
          "type": "uint256"
        }
      ],
      "stateMutability": "nonpayable",
      "type": "function"
    },
    {
      "inputs": [],
      "name": "depositedLiquidity",
      "outputs": [
        {
          "internalType": "uint256",
          "name": "",
          "type": "uint256"
        }
      ],
      "stateMutability": "view",
      "type": "function"
    },
    {
      "inputs": [
        {
          "internalType": "bytes32",
          "name": "role",
          "type": "bytes32"
        }
      ],
      "name": "getRoleAdmin",
      "outputs": [
        {
          "internalType": "bytes32",
          "name": "",
          "type": "bytes32"
        }
      ],
      "stateMutability": "view",
      "type": "function"
    },
    {
      "inputs": [
        {
          "internalType": "bytes32",
          "name": "role",
          "type": "bytes32"
        },
        {
          "internalType": "address",
          "name": "account",
          "type": "address"
        }
      ],
      "name": "grantRole",
      "outputs": [],
      "stateMutability": "nonpayable",
      "type": "function"
    },
    {
      "inputs": [
        {
          "internalType": "bytes32",
          "name": "role",
          "type": "bytes32"
        },
        {
          "internalType": "address",
          "name": "account",
          "type": "address"
        }
      ],
      "name": "hasRole",
      "outputs": [
        {
          "internalType": "bool",
          "name": "",
          "type": "bool"
        }
      ],
      "stateMutability": "view",
      "type": "function"
    },
    {
      "inputs": [],
      "name": "oracle",
      "outputs": [
        {
          "internalType": "contract IOracle",
          "name": "",
          "type": "address"
        }
      ],
      "stateMutability": "view",
      "type": "function"
    },
    {
      "inputs": [],
      "name": "pool",
      "outputs": [
        {
          "internalType": "contract ICurvePool2",
          "name": "",
          "type": "address"
        }
      ],
      "stateMutability": "view",
      "type": "function"
    },
    {
      "inputs": [],
      "name": "poolToken",
      "outputs": [
        {
          "internalType": "contract IERC20",
          "name": "",
          "type": "address"
        }
      ],
      "stateMutability": "view",
      "type": "function"
    },
    {
      "inputs": [
        {
          "internalType": "bytes32",
          "name": "role",
          "type": "bytes32"
        },
        {
          "internalType": "address",
          "name": "callerConfirmation",
          "type": "address"
        }
      ],
      "name": "renounceRole",
      "outputs": [],
      "stateMutability": "nonpayable",
      "type": "function"
    },
    {
      "inputs": [
        {
          "internalType": "bytes32",
          "name": "role",
          "type": "bytes32"
        },
        {
          "internalType": "address",
          "name": "account",
          "type": "address"
        }
      ],
      "name": "revokeRole",
      "outputs": [],
      "stateMutability": "nonpayable",
      "type": "function"
    },
    {
      "inputs": [
        {
          "internalType": "address",
          "name": "oracleAddr",
          "type": "address"
        }
      ],
      "name": "setPriceOracle",
      "outputs": [],
      "stateMutability": "nonpayable",
      "type": "function"
    },
    {
      "inputs": [
        {
          "internalType": "uint256",
          "name": "_slippage",
          "type": "uint256"
        }
      ],
      "name": "setSlippage",
      "outputs": [],
      "stateMutability": "nonpayable",
      "type": "function"
    },
    {
      "inputs": [
        {
          "internalType": "address",
          "name": "tokenConverterAddr",
          "type": "address"
        }
      ],
      "name": "setTokenConverter",
      "outputs": [],
      "stateMutability": "nonpayable",
      "type": "function"
    },
    {
      "inputs": [
        {
          "internalType": "address",
          "name": "zunamiAddr",
          "type": "address"
        }
      ],
      "name": "setZunamiPool",
      "outputs": [],
      "stateMutability": "nonpayable",
      "type": "function"
    },
    {
      "inputs": [],
      "name": "slippage",
      "outputs": [
        {
          "internalType": "uint256",
          "name": "",
          "type": "uint256"
        }
      ],
      "stateMutability": "view",
      "type": "function"
    },
    {
      "inputs": [
        {
          "internalType": "bytes4",
          "name": "interfaceId",
          "type": "bytes4"
        }
      ],
      "name": "supportsInterface",
      "outputs": [
        {
          "internalType": "bool",
          "name": "",
          "type": "bool"
        }
      ],
      "stateMutability": "view",
      "type": "function"
    },
    {
      "inputs": [
        {
          "internalType": "uint256",
          "name": "",
          "type": "uint256"
        }
      ],
      "name": "tokenDecimalsMultipliers",
      "outputs": [
        {
          "internalType": "uint256",
          "name": "",
          "type": "uint256"
        }
      ],
      "stateMutability": "view",
      "type": "function"
    },
    {
      "inputs": [
        {
          "internalType": "uint256",
          "name": "",
          "type": "uint256"
        }
      ],
      "name": "tokens",
      "outputs": [
        {
          "internalType": "contract IERC20",
          "name": "",
          "type": "address"
        }
      ],
      "stateMutability": "view",
      "type": "function"
    },
    {
      "inputs": [],
      "name": "totalHoldings",
      "outputs": [
        {
          "internalType": "uint256",
          "name": "",
          "type": "uint256"
        }
      ],
      "stateMutability": "view",
      "type": "function"
    },
    {
      "inputs": [],
      "name": "weth",
      "outputs": [
        {
          "internalType": "contract IWETH",
          "name": "",
          "type": "address"
        }
      ],
      "stateMutability": "view",
      "type": "function"
    },
    {
      "inputs": [
        {
          "internalType": "address",
          "name": "receiver",
          "type": "address"
        },
        {
          "internalType": "uint256",
          "name": "poolTokenRatio",
          "type": "uint256"
        },
        {
          "internalType": "uint256[5]",
          "name": "tokenAmounts",
          "type": "uint256[5]"
        }
      ],
      "name": "withdraw",
      "outputs": [
        {
          "internalType": "bool",
          "name": "",
          "type": "bool"
        }
      ],
      "stateMutability": "nonpayable",
      "type": "function"
    },
    {
      "inputs": [
        {
          "internalType": "uint256[5]",
          "name": "minTokenAmounts",
          "type": "uint256[5]"
        }
      ],
      "name": "withdrawAll",
      "outputs": [],
      "stateMutability": "nonpayable",
      "type": "function"
    },
    {
      "inputs": [
        {
          "internalType": "contract IERC20",
          "name": "_token",
          "type": "address"
        }
      ],
      "name": "withdrawStuckToken",
      "outputs": [],
      "stateMutability": "nonpayable",
      "type": "function"
    },
    {
      "inputs": [],
      "name": "zunamiPool",
      "outputs": [
        {
          "internalType": "contract IPool",
          "name": "",
          "type": "address"
        }
      ],
      "stateMutability": "view",
      "type": "function"
    },
    {
      "stateMutability": "payable",
      "type": "receive"
    }
  ],
  "bytecode": "0x61012060405260326002553480156200001757600080fd5b506040518060a0016040528073c02aaa39b223fe8d0a0e5c4f27ead9083c756cc26001600160a01b03166001600160a01b03168152602001735e8422345238f34275888049021821e8e08caa1f6001600160a01b03166001600160a01b0316815260200160006001600160a01b03166001600160a01b0316815260200160006001600160a01b03166001600160a01b0316815260200160006001600160a01b03166001600160a01b03168152506040518060a001604052806001815260200160018152602001600081526020016000815260200160008152507321e27a5e5513d6e65c4f830167390997aa84843a8073f403c135812408bfbe8713b5a23a04b3d48aae31736b27d7bc63f1999d14ff9ba900069ee516669ee860b186868686868686868686868383620001546000801b33620003cc60201b60201c565b506000805b6005811015620002a857818015620001945750600084826005811062000183576200018362000520565b60200201516001600160a01b031614155b15620001b357604051631d37a6fd60e11b815260040160405180910390fd5b6000848260058110620001ca57620001ca62000520565b60200201516001600160a01b031603620001e357600191505b6000848260058110620001fa57620001fa62000520565b60200201516001600160a01b0316141580156200022e575082816005811062000227576200022762000520565b6020020151155b8062000280575060008482600581106200024c576200024c62000520565b60200201516001600160a01b031614801562000280575082816005811062000278576200027862000520565b602002015115155b156200029f5760405163bfa45dc560e01b815260040160405180910390fd5b60010162000159565b50620002b860038460056200047b565b50620002c86008836005620004d8565b5050506001600160a01b0383169050620002f55760405163d92e233d60e01b815260040160405180910390fd5b6001600160a01b038083166080528116620003235760405163d92e233d60e01b815260040160405180910390fd5b6001600160a01b0390811660a05286169250620003569150505760405163d92e233d60e01b815260040160405180910390fd5b6001600160a01b0380841660e0528216620003845760405163d92e233d60e01b815260040160405180910390fd5b6001600160a01b038216610100526000819003620003b557604051637c946ed760e01b815260040160405180910390fd5b60c05250620005369b505050505050505050505050565b6000828152602081815260408083206001600160a01b038516845290915281205460ff1662000471576000838152602081815260408083206001600160a01b03861684529091529020805460ff19166001179055620004283390565b6001600160a01b0316826001600160a01b0316847f2f8788117e7eff1d82e926ec794901d17c78024a50270940304540a733656f0d60405160405180910390a450600162000475565b5060005b92915050565b8260058101928215620004c6579160200282015b82811115620004c657825182546001600160a01b0319166001600160a01b039091161782556020909201916001909101906200048f565b50620004d492915062000509565b5090565b8260058101928215620004c6579160200282015b82811115620004c6578251825591602001919060010190620004ec565b5b80821115620004d457600081556001016200050a565b634e487b7160e01b600052603260045260246000fd5b60805160a05160c05160e051610100516124bc620005cf600039600081816106700152818161101f015281816113be015261144401526000818161029d01528181611b8b0152611bf301526000818161030b0152611bbf01526000818161071a01528181611b690152611c8c01526000818161036301528181610d15015281816116b9015281816117c70152611ad901526124bc6000f3fe60806040526004361061024a5760003560e01c80636d9164c611610139578063ac905114116100b6578063ceae9c441161007a578063ceae9c441461073c578063d547741f14610751578063d5f651a414610530578063df32755414610771578063e9ec2e9914610786578063f0fa55a91461079b57600080fd5b8063ac90511414610692578063b67d611d146106a8578063bd38837b146106c8578063c56aa166146106e8578063cbdf382c1461070857600080fd5b806391d14854116100fd57806391d14854146105e8578063978b39d0146106085780639d57b9a61461063e578063a217fddf146105d3578063aa5ccb901461065e57600080fd5b80636d9164c61461054c57806375451b4f1461056c5780637dc0d1d01461059357806381a7b894146105b357806382f8aaca146105d357600080fd5b80632f2ff15d116101c7578063530e784f1161018b578063530e784f146104a857806356edb316146104c857806359615983146104e8578063698925eb146105085780636c1516e11461053057600080fd5b80632f2ff15d1461040a57806336568abe1461042a5780633e032a3b1461044a5780633fc8cef3146104605780634f64b2be1461048857600080fd5b806316f0115b1161020e57806316f0115b146103515780631a9753a8146103855780632026ffa31461039a578063213c79d8146103ba578063248a9ca3146103da57600080fd5b806301ffc9a7146102565780630229c64c1461028b578063068acf6c146102d757806308051e97146102f957806310c231c71461033b57600080fd5b3661025157005b600080fd5b34801561026257600080fd5b50610276610271366004612084565b6107bb565b60405190151581526020015b60405180910390f35b34801561029757600080fd5b506102bf7f000000000000000000000000000000000000000000000000000000000000000081565b6040516001600160a01b039091168152602001610282565b3480156102e357600080fd5b506102f76102f23660046120c3565b6107f2565b005b34801561030557600080fd5b5061032d7f000000000000000000000000000000000000000000000000000000000000000081565b604051908152602001610282565b34801561034757600080fd5b5061032d600e5481565b34801561035d57600080fd5b506102bf7f000000000000000000000000000000000000000000000000000000000000000081565b34801561039157600080fd5b5061032d600181565b3480156103a657600080fd5b506102f76103b5366004612127565b610889565b3480156103c657600080fd5b506001546102bf906001600160a01b031681565b3480156103e657600080fd5b5061032d6103f53660046121ee565b60009081526020819052604090206001015490565b34801561041657600080fd5b506102f7610425366004612207565b6108df565b34801561043657600080fd5b506102f7610445366004612207565b61090a565b34801561045657600080fd5b5061032d60025481565b34801561046c57600080fd5b506102bf73c02aaa39b223fe8d0a0e5c4f27ead9083c756cc281565b34801561049457600080fd5b506102bf6104a33660046121ee565b61093d565b3480156104b457600080fd5b506102f76104c33660046120c3565b61095d565b3480156104d457600080fd5b5061032d6104e33660046121ee565b6109e5565b3480156104f457600080fd5b506102f76105033660046120c3565b6109fc565b34801561051457600080fd5b5061051d600181565b604051600f9190910b8152602001610282565b34801561053c57600080fd5b5061032d670de0b6b3a764000081565b34801561055857600080fd5b506102766105673660046122a5565b610a7c565b34801561057857600080fd5b50610581600581565b60405160ff9091168152602001610282565b34801561059f57600080fd5b50600d546102bf906001600160a01b031681565b3480156105bf57600080fd5b506102f76105ce3660046122e4565b610c52565b3480156105df57600080fd5b5061032d600081565b3480156105f457600080fd5b50610276610603366004612207565b610ce8565b34801561061457600080fd5b5061061d600081565b6040516fffffffffffffffffffffffffffffffff9091168152602001610282565b34801561064a57600080fd5b5061032d61065936600461230e565b610d11565b34801561066a57600080fd5b506102bf7f000000000000000000000000000000000000000000000000000000000000000081565b34801561069e57600080fd5b5061032d61271081565b3480156106b457600080fd5b5061032d6106c33660046122e4565b610daa565b3480156106d457600080fd5b50600f546102bf906001600160a01b031681565b3480156106f457600080fd5b506102f76107033660046120c3565b610e4e565b34801561071457600080fd5b506102bf7f000000000000000000000000000000000000000000000000000000000000000081565b34801561074857600080fd5b5061061d600181565b34801561075d57600080fd5b506102f761076c366004612207565b610ece565b34801561077d57600080fd5b5061051d600081565b34801561079257600080fd5b5061032d610ef3565b3480156107a757600080fd5b506102f76107b63660046121ee565b610f0b565b60006001600160e01b03198216637965db0b60e01b14806107ec57506301ffc9a760e01b6001600160e01b03198316145b92915050565b60006107fd81610fb4565b6040516370a0823160e01b81523060048201526000906001600160a01b038416906370a0823190602401602060405180830381865afa158015610844573d6000803e3d6000fd5b505050506040513d601f19601f82011682018060405250810190610868919061233b565b90508015610884576108846001600160a01b0384163383610fbe565b505050565b6001546001600160a01b0316336001600160a01b0316146108bd576040516304d6e46b60e31b815260040160405180910390fd5b6108c561101d565b6108db81836108d6600085516110a1565b611120565b5050565b6000828152602081905260409020600101546108fa81610fb4565b6109048383611221565b50505050565b6001600160a01b03811633146109335760405163334bd91960e11b815260040160405180910390fd5b61088482826112b3565b6003816005811061094d57600080fd5b01546001600160a01b0316905081565b600061096881610fb4565b6001600160a01b03821661098f5760405163d92e233d60e01b815260040160405180910390fd5b600d80546001600160a01b0319166001600160a01b0384169081179091556040519081527f6536690106168bdf4ba72c128a053d817999b1db90cae23f139b293bf862cb75906020015b60405180910390a15050565b600881600581106109f557600080fd5b0154905081565b6000610a0781610fb4565b6001600160a01b038216610a2e5760405163d92e233d60e01b815260040160405180910390fd5b600180546001600160a01b0319166001600160a01b0384169081179091556040519081527ffa639b2012458fd129b4bf30b2a98c9b56cc3a9ba0606013b8d1f9232cb4498a906020016109d9565b6001546000906001600160a01b0316336001600160a01b031614610ab3576040516304d6e46b60e31b815260040160405180910390fd5b6000610abe8461131e565b9050610acb836000610d11565b811015610adc576000915050610c4b565b60408051600580825260c082019092526000916020820160a08036833701905050905060005b6005811015610bd357600060038260058110610b2057610b20612354565b01546001600160a01b031614610bd35760038160058110610b4357610b43612354565b01546040516370a0823160e01b81523060048201526001600160a01b03909116906370a0823190602401602060405180830381865afa158015610b8a573d6000803e3d6000fd5b505050506040513d601f19601f82011682018060405250810190610bae919061233b565b828281518110610bc057610bc0612354565b6020908102919091010152600101610b02565b5081600e6000828254610be69190612380565b90915550610bf89050828560006113a2565b6040805160a0810191829052610c4491610c3d919060039060059082845b81546001600160a01b03168152600190910190602001808311610c165750505050506114b4565b8783611120565b6001925050505b9392505050565b6001546001600160a01b0316336001600160a01b031614610c86576040516304d6e46b60e31b815260040160405180910390fd5b610c94600e548260016113a2565b6000600e556040805160a0810191829052600380546001600160a01b03168252610ce592610cd8929190600590600460208501808311610c165750505050506114b4565b336108d6600060056110a1565b50565b6000918252602082815260408084206001600160a01b0393909316845291905290205460ff1690565b60007f00000000000000000000000000000000000000000000000000000000000000006001600160a01b031663ed8e84f3610d4b85611532565b846040518363ffffffff1660e01b8152600401610d699291906123b6565b602060405180830381865afa158015610d86573d6000803e3d6000fd5b505050506040513d601f19601f82011682018060405250810190610c4b919061233b565b6001546000906001600160a01b0316336001600160a01b031614610de1576040516304d6e46b60e31b815260040160405180910390fd5b6000610dec83611617565b90506000610df9846116b1565b905080600e6000828254610e0d91906123d3565b90915550610e1c9050816116f4565b9250610e2782611711565b831015610e4757604051630224f5df60e11b815260040160405180910390fd5b5050919050565b6000610e5981610fb4565b6001600160a01b038216610e805760405163d92e233d60e01b815260040160405180910390fd5b600f80546001600160a01b0319166001600160a01b0384169081179091556040519081527f18f0ece2d6ea55163aef7a7c841762e706a96c532ed665e8abefaa00d1767fb8906020016109d9565b600082815260208190526040902060010154610ee981610fb4565b61090483836112b3565b6000610f06610f01600e5490565b6116f4565b905090565b6000610f1681610fb4565b600082118015610f2857506127108211155b610f725760405162461bcd60e51b815260206004820152601660248201527557726f6e6720736c697070616765206e756d6265722160501b60448201526064015b60405180910390fd5b60025460408051918252602082018490527f785f467195f308c252d89e7e85c95a6b7646506ba4774a1dc54e0eedc08e3d43910160405180910390a150600255565b610ce58133611726565b6040516001600160a01b0383811660248301526044820183905261088491859182169063a9059cbb906064015b604051602081830303815290604052915060e01b6020820180516001600160e01b03838183161783525050505061175f565b7f00000000000000000000000000000000000000000000000000000000000000006001600160a01b0316633d18b9126040518163ffffffff1660e01b81526004016020604051808303816000875af115801561107d573d6000803e3d6000fd5b505050506040513d601f19601f82011682018060405250810190610ce591906123e6565b60608167ffffffffffffffff8111156110bc576110bc6120e0565b6040519080825280602002602001820160405280156110e5578160200160208202803683370190505b50905060005b82811015611119578382828151811061110657611106612354565b60209081029190910101526001016110eb565b5092915050565b60008060005b85518110156112195785818151811061114157611141612354565b6020026020010151915060006001600160a01b0316826001600160a01b031603156112195783818151811061117857611178612354565b60209081029190910101516040516370a0823160e01b81523060048201526001600160a01b038416906370a0823190602401602060405180830381865afa1580156111c7573d6000803e3d6000fd5b505050506040513d601f19601f820116820180604052508101906111eb919061233b565b6111f59190612380565b92508215611211576112116001600160a01b0383168685610fbe565b600101611126565b505050505050565b600061122d8383610ce8565b6112ab576000838152602081815260408083206001600160a01b03861684529091529020805460ff191660011790556112633390565b6001600160a01b0316826001600160a01b0316847f2f8788117e7eff1d82e926ec794901d17c78024a50270940304540a733656f0d60405160405180910390a45060016107ec565b5060006107ec565b60006112bf8383610ce8565b156112ab576000838152602081815260408083206001600160a01b0386168085529252808320805460ff1916905551339286917ff6391f5c32d9c69d2a47ea670b442974b53935d1edc7fd64eb21e047a839171b9190a45060016107ec565b600080821180156113375750670de0b6b3a76400008211155b61137b5760405162461bcd60e51b815260206004820152601560248201527457726f6e6720506f6f6c546f6b656e20526174696f60581b6044820152606401610f69565b670de0b6b3a76400008261138e600e5490565b6113989190612403565b6107ec919061241a565b8015611427576040516324f81cd160e11b8152600160048201527f00000000000000000000000000000000000000000000000000000000000000006001600160a01b0316906349f039a290602401600060405180830381600087803b15801561140a57600080fd5b505af115801561141e573d6000803e3d6000fd5b505050506114a9565b604051636197390160e11b815260048101849052600060248201527f00000000000000000000000000000000000000000000000000000000000000006001600160a01b03169063c32e720290604401600060405180830381600087803b15801561149057600080fd5b505af11580156114a4573d6000803e3d6000fd5b505050505b6108848383836117c2565b60408051600580825260c082019092526060916020820160a08036833701905050905060005b600581101561152c578281600581106114f5576114f5612354565b602002015182828151811061150c5761150c612354565b6001600160a01b03909216602092830291909101909101526001016114da565b50919050565b61153a612066565b815115801561154b57506020820151155b15611569575050604080518082019091526000808252602082015290565b6040805180820191829052600f5460045460035460208701516305945a4d60e51b9095526001600160a01b039182166044850152811660648401526084830193909352909182911663b28b49a060a48301602060405180830381865afa1580156115d7573d6000803e3d6000fd5b505050506040513d601f19601f820116820180604052508101906115fb919061233b565b845161160791906123d3565b8152600060209091015292915050565b6000805b600581101561152c57670de0b6b3a76400006008826005811061164057611640612354565b015484836005811061165457611654612354565b602002015161167f6003856005811061166f5761166f612354565b01546001600160a01b0316611881565b6116899190612403565b6116939190612403565b61169d919061241a565b6116a790836123d3565b915060010161161b565b6000806116de7f0000000000000000000000000000000000000000000000000000000000000000846119b7565b90506116e981611ac5565b915061152c82611b5c565b6000670de0b6b3a7640000611707611c85565b6113989084612403565b60006127106002546127106117079190612380565b6117308282610ce8565b6108db5760405163e2517d3f60e01b81526001600160a01b038216600482015260248101839052604401610f69565b60006117746001600160a01b03841683611cb0565b9050805160001415801561179957508080602001905181019061179791906123e6565b155b1561088457604051635274afe760e01b81526001600160a01b0384166004820152602401610f69565b6000807f00000000000000000000000000000000000000000000000000000000000000006001600160a01b0316631a4d01d28683878160200201516040516001600160e01b031960e086901b1681526004810193909352600f9190910b602483015260448201526064016020604051808303816000875af115801561184b573d6000803e3d6000fd5b505050506040513d601f19601f8201168201806040525081019061186f919061233b565b905061187a81611cbe565b5050505050565b600073c02aaa39b223fe8d0a0e5c4f27ead9083c756cc1196001600160a01b038316016118b75750670de0b6b3a7640000919050565b600d54604051638b2f0f4f60e01b815273eeeeeeeeeeeeeeeeeeeeeeeeeeeeeeeeeeeeeeee60048201526001600160a01b0390911690638b2f0f4f90602401602060405180830381865afa158015611913573d6000803e3d6000fd5b505050506040513d601f19601f82011682018060405250810190611937919061233b565b600d54604051638b2f0f4f60e01b81526001600160a01b03858116600483015290911690638b2f0f4f90602401602060405180830381865afa158015611981573d6000803e3d6000fd5b505050506040513d601f19601f820116820180604052508101906119a5919061233b565b61139890670de0b6b3a7640000612403565b6119bf612066565b602082015115611aaa57600f5460208301516004546119ec926001600160a01b0391821692911690610fbe565b600f5460045460035460208501516001600160a01b0393841693631a378db7938116921690611a1a81611711565b6040516001600160e01b031960e087901b1681526001600160a01b039485166004820152939092166024840152604483015260648201526084016020604051808303816000875af1158015611a73573d6000803e3d6000fd5b505050506040513d601f19601f82011682018060405250810190611a97919061233b565b82518390611aa69083906123d3565b9052505b815115611abc578151611abc90611d21565b47815292915050565b8051604051630b4c7e4d60e01b81526000917f00000000000000000000000000000000000000000000000000000000000000006001600160a01b031691630b4c7e4d9190611b19908690869060040161243c565b60206040518083038185885af1158015611b37573d6000803e3d6000fd5b50505050506040513d601f19601f820116820180604052508101906107ec919061233b565b611bb06001600160a01b037f0000000000000000000000000000000000000000000000000000000000000000167f000000000000000000000000000000000000000000000000000000000000000083611d82565b6040516321d0683360e11b81527f0000000000000000000000000000000000000000000000000000000000000000600482015260248101829052600160448201527f00000000000000000000000000000000000000000000000000000000000000006001600160a01b0316906343a0d066906064016020604051808303816000875af1158015611c44573d6000803e3d6000fd5b505050506040513d601f19601f82011682018060405250810190611c6891906123e6565b610ce557604051632e62408b60e11b815260040160405180910390fd5b6000610f067f0000000000000000000000000000000000000000000000000000000000000000611881565b6060610c4b83836000611e0c565b73c02aaa39b223fe8d0a0e5c4f27ead9083c756cc26001600160a01b031663d0e30db0826040518263ffffffff1660e01b81526004016000604051808303818588803b158015611d0d57600080fd5b505af1158015611219573d6000803e3d6000fd5b604051632e1a7d4d60e01b81526004810182905273c02aaa39b223fe8d0a0e5c4f27ead9083c756cc290632e1a7d4d90602401600060405180830381600087803b158015611d6e57600080fd5b505af115801561187a573d6000803e3d6000fd5b604051636eb1769f60e11b81523060048201526001600160a01b0383811660248301526000919085169063dd62ed3e90604401602060405180830381865afa158015611dd2573d6000803e3d6000fd5b505050506040513d601f19601f82011682018060405250810190611df6919061233b565b90506109048484611e0785856123d3565b611ea9565b606081471015611e315760405163cd78605960e01b8152306004820152602401610f69565b600080856001600160a01b03168486604051611e4d9190612457565b60006040518083038185875af1925050503d8060008114611e8a576040519150601f19603f3d011682016040523d82523d6000602084013e611e8f565b606091505b5091509150611e9f868383611f39565b9695505050505050565b604080516001600160a01b038416602482015260448082018490528251808303909101815260649091019091526020810180516001600160e01b031663095ea7b360e01b179052611efa8482611f95565b610904576040516001600160a01b03848116602483015260006044830152611f2f91869182169063095ea7b390606401610feb565b610904848261175f565b606082611f4e57611f498261203d565b610c4b565b8151158015611f6557506001600160a01b0384163b155b15611f8e57604051639996b31560e01b81526001600160a01b0385166004820152602401610f69565b5080610c4b565b6000806000846001600160a01b031684604051611fb29190612457565b6000604051808303816000865af19150503d8060008114611fef576040519150601f19603f3d011682016040523d82523d6000602084013e611ff4565b606091505b509150915081801561201e57508051158061201e57508080602001905181019061201e91906123e6565b801561203457506000856001600160a01b03163b115b95945050505050565b80511561204d5780518082602001fd5b604051630a12f52160e11b815260040160405180910390fd5b60405180604001604052806002906020820280368337509192915050565b60006020828403121561209657600080fd5b81356001600160e01b031981168114610c4b57600080fd5b6001600160a01b0381168114610ce557600080fd5b6000602082840312156120d557600080fd5b8135610c4b816120ae565b634e487b7160e01b600052604160045260246000fd5b604051601f8201601f1916810167ffffffffffffffff8111828210171561211f5761211f6120e0565b604052919050565b6000806040838503121561213a57600080fd5b8235612145816120ae565b915060208381013567ffffffffffffffff8082111561216357600080fd5b818601915086601f83011261217757600080fd5b813581811115612189576121896120e0565b8060051b915061219a8483016120f6565b81815291830184019184810190898411156121b457600080fd5b938501935b838510156121de57843592506121ce836120ae565b82825293850193908501906121b9565b8096505050505050509250929050565b60006020828403121561220057600080fd5b5035919050565b6000806040838503121561221a57600080fd5b82359150602083013561222c816120ae565b809150509250929050565b600082601f83011261224857600080fd5b60405160a0810181811067ffffffffffffffff8211171561226b5761226b6120e0565b6040528060a084018581111561228057600080fd5b845b8181101561229a578035835260209283019201612282565b509195945050505050565b600080600060e084860312156122ba57600080fd5b83356122c5816120ae565b9250602084013591506122db8560408601612237565b90509250925092565b600060a082840312156122f657600080fd5b610c4b8383612237565b8015158114610ce557600080fd5b60008060c0838503121561232157600080fd5b61232b8484612237565b915060a083013561222c81612300565b60006020828403121561234d57600080fd5b5051919050565b634e487b7160e01b600052603260045260246000fd5b634e487b7160e01b600052601160045260246000fd5b818103818111156107ec576107ec61236a565b8060005b6002811015610904578151845260209384019390910190600101612397565b606081016123c48285612393565b82151560408301529392505050565b808201808211156107ec576107ec61236a565b6000602082840312156123f857600080fd5b8151610c4b81612300565b80820281158282048414176107ec576107ec61236a565b60008261243757634e487b7160e01b600052601260045260246000fd5b500490565b6060810161244a8285612393565b8260408301529392505050565b6000825160005b81811015612478576020818601810151858301520161245e565b50600092019182525091905056fea26469706673582212204ed8a3c32954055292e57ca65eee62f5894d798c6d2a06b03686c19b95a8362c64736f6c63430008170033",
  "linkReferences": {},
  "deployedLinkReferences": {}
}