{
  "_format": "hh-sol-artifact-1",
  "contractName": "TokenConverter",
  "sourceName": "contracts/utils/TokenConverter.sol",
  "abi": [
    {
      "inputs": [
        {
          "internalType": "address",
          "name": "curveRouter_",
          "type": "address"
        }
      ],
      "stateMutability": "nonpayable",
      "type": "constructor"
    },
    {
      "inputs": [
        {
          "internalType": "address",
          "name": "target",
          "type": "address"
        }
      ],
      "name": "AddressEmptyCode",
      "type": "error"
    },
    {
      "inputs": [
        {
          "internalType": "address",
          "name": "account",
          "type": "address"
        }
      ],
      "name": "AddressInsufficientBalance",
      "type": "error"
    },
    {
      "inputs": [],
      "name": "FailedInnerCall",
      "type": "error"
    },
    {
      "inputs": [
        {
          "internalType": "address",
          "name": "owner",
          "type": "address"
        }
      ],
      "name": "OwnableInvalidOwner",
      "type": "error"
    },
    {
      "inputs": [
        {
          "internalType": "address",
          "name": "account",
          "type": "address"
        }
      ],
      "name": "OwnableUnauthorizedAccount",
      "type": "error"
    },
    {
      "inputs": [
        {
          "internalType": "address",
          "name": "token",
          "type": "address"
        }
      ],
      "name": "SafeERC20FailedOperation",
      "type": "error"
    },
    {
      "inputs": [],
      "name": "WrongLength",
      "type": "error"
    },
    {
      "inputs": [],
      "name": "ZeroAddress",
      "type": "error"
    },
    {
      "anonymous": false,
      "inputs": [
        {
          "indexed": true,
          "internalType": "address",
          "name": "previousOwner",
          "type": "address"
        },
        {
          "indexed": true,
          "internalType": "address",
          "name": "newOwner",
          "type": "address"
        }
      ],
      "name": "OwnershipTransferStarted",
      "type": "event"
    },
    {
      "anonymous": false,
      "inputs": [
        {
          "indexed": true,
          "internalType": "address",
          "name": "previousOwner",
          "type": "address"
        },
        {
          "indexed": true,
          "internalType": "address",
          "name": "newOwner",
          "type": "address"
        }
      ],
      "name": "OwnershipTransferred",
      "type": "event"
    },
    {
      "inputs": [],
      "name": "acceptOwnership",
      "outputs": [],
      "stateMutability": "nonpayable",
      "type": "function"
    },
    {
      "inputs": [],
      "name": "curveRouter",
      "outputs": [
        {
          "internalType": "address",
          "name": "",
          "type": "address"
        }
      ],
      "stateMutability": "view",
      "type": "function"
    },
    {
      "inputs": [
        {
          "internalType": "address",
          "name": "tokenIn_",
          "type": "address"
        },
        {
          "internalType": "address",
          "name": "tokenOut_",
          "type": "address"
        },
        {
          "internalType": "uint256",
          "name": "amountIn_",
          "type": "uint256"
        },
        {
          "internalType": "uint256",
          "name": "minAmountOut_",
          "type": "uint256"
        }
      ],
      "name": "handle",
      "outputs": [
        {
          "internalType": "uint256",
          "name": "amountOut",
          "type": "uint256"
        }
      ],
      "stateMutability": "nonpayable",
      "type": "function"
    },
    {
      "inputs": [],
      "name": "owner",
      "outputs": [
        {
          "internalType": "address",
          "name": "",
          "type": "address"
        }
      ],
      "stateMutability": "view",
      "type": "function"
    },
    {
      "inputs": [],
      "name": "pendingOwner",
      "outputs": [
        {
          "internalType": "address",
          "name": "",
          "type": "address"
        }
      ],
      "stateMutability": "view",
      "type": "function"
    },
    {
      "inputs": [],
      "name": "renounceOwnership",
      "outputs": [],
      "stateMutability": "nonpayable",
      "type": "function"
    },
    {
      "inputs": [
        {
          "internalType": "address",
          "name": "tokenIn",
          "type": "address"
        },
        {
          "internalType": "address",
          "name": "tokenOut",
          "type": "address"
        },
        {
          "internalType": "address[]",
          "name": "route",
          "type": "address[]"
        },
        {
          "internalType": "uint256[5][]",
          "name": "swapParams",
          "type": "uint256[5][]"
        }
      ],
      "name": "setRoute",
      "outputs": [],
      "stateMutability": "nonpayable",
      "type": "function"
    },
    {
      "inputs": [
        {
          "internalType": "address[]",
          "name": "tokenIn",
          "type": "address[]"
        },
        {
          "internalType": "address[]",
          "name": "tokenOut",
          "type": "address[]"
        },
        {
          "internalType": "address[][]",
          "name": "route",
          "type": "address[][]"
        },
        {
          "internalType": "uint256[5][][]",
          "name": "swapParams",
          "type": "uint256[5][][]"
        }
      ],
      "name": "setRoutes",
      "outputs": [],
      "stateMutability": "nonpayable",
      "type": "function"
    },
    {
      "inputs": [
        {
          "internalType": "address",
          "name": "newOwner",
          "type": "address"
        }
      ],
      "name": "transferOwnership",
      "outputs": [],
      "stateMutability": "nonpayable",
      "type": "function"
    },
    {
      "inputs": [
        {
          "internalType": "address",
          "name": "tokenIn_",
          "type": "address"
        },
        {
          "internalType": "address",
          "name": "tokenOut_",
          "type": "address"
        },
        {
          "internalType": "uint256",
          "name": "amountIn_",
          "type": "uint256"
        }
      ],
      "name": "valuate",
      "outputs": [
        {
          "internalType": "uint256",
          "name": "",
          "type": "uint256"
        }
      ],
      "stateMutability": "view",
      "type": "function"
    }
  ],
  "bytecode": "0x60a06040523480156200001157600080fd5b50604051620015583803806200155883398101604081905262000034916200010f565b33806200005b57604051631e4fbdf760e01b81526000600482015260240160405180910390fd5b6200006681620000a1565b506001600160a01b0381166200008f5760405163d92e233d60e01b815260040160405180910390fd5b6001600160a01b031660805262000141565b600180546001600160a01b0319169055620000bc81620000bf565b50565b600080546001600160a01b038381166001600160a01b0319831681178455604051919092169283917f8be0079c531659141344cd1fd0a4f28419497f9722a3daafe3b4186f6b6457e09190a35050565b6000602082840312156200012257600080fd5b81516001600160a01b03811681146200013a57600080fd5b9392505050565b6080516113e6620001726000396000818161013e015281816101a5015281816101fe01526103b801526113e66000f3fe608060405234801561001057600080fd5b506004361061009e5760003560e01c8063b28b49a011610066578063b28b49a014610113578063c7fe9e6914610126578063cda90b8814610139578063e30c397814610160578063f2fde38b1461017157600080fd5b80631a378db7146100a3578063715018a6146100c957806375cd5a39146100d357806379ba5097146100e65780638da5cb5b146100ee575b600080fd5b6100b66100b1366004610da9565b610184565b6040519081526020015b60405180910390f35b6100d161029f565b005b6100d16100e1366004610fa3565b6102b3565b6100d1610329565b6000546001600160a01b03165b6040516001600160a01b0390911681526020016100c0565b6100b6610121366004611028565b610372565b6100d16101343660046110e4565b61043e565b6100fb7f000000000000000000000000000000000000000000000000000000000000000081565b6001546001600160a01b03166100fb565b6100d161017f3660046111f3565b6105c0565b60008260000361019657506000610297565b6101ca6001600160a01b0386167f000000000000000000000000000000000000000000000000000000000000000085610631565b60006101d686866106c1565b905060006101e4878761078a565b60405163371dc44760e01b81529091506001600160a01b037f0000000000000000000000000000000000000000000000000000000000000000169063371dc4479061023990859085908a908a9060040161128b565b6020604051808303816000875af1158015610258573d6000803e3d6000fd5b505050506040513d601f19601f8201168201806040525081019061027c91906112bc565b9250856102936001600160a01b038216338661086b565b5050505b949350505050565b6102a76108cf565b6102b160006108fc565b565b6102bb6108cf565b60408051808201825283815260208082018490526001600160a01b0380881660009081526002835284812091881681529082529290922081518051929391926103079284920190610bf6565b5060208281015180516103209260018501920190610c5b565b50505050505050565b60015433906001600160a01b031681146103665760405163118cdaa760e01b81526001600160a01b03821660048201526024015b60405180910390fd5b61036f816108fc565b50565b60008160000361038457506000610437565b600061039085856106c1565b9050600061039e868661078a565b604051632062268b60e21b81529091506001600160a01b037f000000000000000000000000000000000000000000000000000000000000000016906381889a2c906103f1908590859089906004016112d5565b602060405180830381865afa15801561040e573d6000803e3d6000fd5b505050506040513d601f19601f8201168201806040525081019061043291906112bc565b925050505b9392505050565b6104466108cf565b8251845114610468576040516349552d5960e11b815260040160405180910390fd5b815184511461048a576040516349552d5960e11b815260040160405180910390fd5b80518451146104ac576040516349552d5960e11b815260040160405180910390fd5b60005b84518110156105b95760405180604001604052808483815181106104d5576104d5611301565b602002602001015181526020018383815181106104f4576104f4611301565b60200260200101518152506002600087848151811061051557610515611301565b60200260200101516001600160a01b03166001600160a01b03168152602001908152602001600020600086848151811061055157610551611301565b60200260200101516001600160a01b03166001600160a01b031681526020019081526020016000206000820151816000019080519060200190610595929190610bf6565b5060208281015180516105ae9260018501920190610c5b565b5050506001016104af565b5050505050565b6105c86108cf565b600180546001600160a01b0383166001600160a01b031990911681179091556105f96000546001600160a01b031690565b6001600160a01b03167f38d16b8cac22d99fc7c124b9cd0de2d3fa1faef420bfe791d8c362d765e2270060405160405180910390a350565b604051636eb1769f60e11b81523060048201526001600160a01b0383811660248301526000919085169063dd62ed3e90604401602060405180830381865afa158015610681573d6000803e3d6000fd5b505050506040513d601f19601f820116820180604052508101906106a591906112bc565b90506106bb84846106b6858561132d565b610915565b50505050565b6106c9610cb1565b60005b6001600160a01b0380851660009081526002602090815260408083209387168352929052205460ff82161015610783576001600160a01b038085166000908152600260209081526040808320938716835292905220805460ff831690811061073657610736611301565b6000918252602090912001546001600160a01b03168260ff8316600b811061076057610760611301565b6001600160a01b03909216602092909202015261077c81611340565b90506106cc565b5092915050565b610792610cd0565b60005b6001600160a01b0380851660009081526002602090815260408083209387168352929052206001015460ff82161015610783576001600160a01b038085166000908152600260209081526040808320938716835292905220600101805460ff831690811061080557610805611301565b600091825260209091206040805160a0810191829052926005908102909201919082845b815481526020019060010190808311610829575050505050828260ff166005811061085657610856611301565b602002015261086481611340565b9050610795565b6040516001600160a01b038381166024830152604482018390526108ca91859182169063a9059cbb906064015b604051602081830303815290604052915060e01b6020820180516001600160e01b0383818316178352505050506109a1565b505050565b6000546001600160a01b031633146102b15760405163118cdaa760e01b815233600482015260240161035d565b600180546001600160a01b031916905561036f81610a04565b604080516001600160a01b038416602482015260448082018490528251808303909101815260649091019091526020810180516001600160e01b031663095ea7b360e01b1790526109668482610a54565b6106bb576040516001600160a01b0384811660248301526000604483015261099b91869182169063095ea7b390606401610898565b6106bb84825b60006109b66001600160a01b03841683610afe565b905080516000141580156109db5750808060200190518101906109d9919061135f565b155b156108ca57604051635274afe760e01b81526001600160a01b038416600482015260240161035d565b600080546001600160a01b038381166001600160a01b0319831681178455604051919092169283917f8be0079c531659141344cd1fd0a4f28419497f9722a3daafe3b4186f6b6457e09190a35050565b6000806000846001600160a01b031684604051610a719190611381565b6000604051808303816000865af19150503d8060008114610aae576040519150601f19603f3d011682016040523d82523d6000602084013e610ab3565b606091505b5091509150818015610add575080511580610add575080806020019051810190610add919061135f565b8015610af357506000856001600160a01b03163b115b925050505b92915050565b60606104378383600084600080856001600160a01b03168486604051610b249190611381565b60006040518083038185875af1925050503d8060008114610b61576040519150601f19603f3d011682016040523d82523d6000602084013e610b66565b606091505b5091509150610432868383606082610b8657610b8182610bcd565b610437565b8151158015610b9d57506001600160a01b0384163b155b15610bc657604051639996b31560e01b81526001600160a01b038516600482015260240161035d565b5080610437565b805115610bdd5780518082602001fd5b604051630a12f52160e11b815260040160405180910390fd5b828054828255906000526020600020908101928215610c4b579160200282015b82811115610c4b57825182546001600160a01b0319166001600160a01b03909116178255602090920191600190910190610c16565b50610c57929150610cfd565b5090565b828054828255906000526020600020906005028101928215610ca5579160200282015b82811115610ca5578251610c959083906005610d12565b5091602001919060050190610c7e565b50610c57929150610d40565b604051806101600160405280600b906020820280368337509192915050565b6040518060a001604052806005905b610ce7610d6f565b815260200190600190039081610cdf5790505090565b5b80821115610c575760008155600101610cfe565b8260058101928215610c4b579160200282015b82811115610c4b578251825591602001919060010190610d25565b80821115610c575760008082556001820181905560028201819055600382018190556004820155600501610d40565b6040518060a001604052806005906020820280368337509192915050565b80356001600160a01b0381168114610da457600080fd5b919050565b60008060008060808587031215610dbf57600080fd5b610dc885610d8d565b9350610dd660208601610d8d565b93969395505050506040820135916060013590565b634e487b7160e01b600052604160045260246000fd5b60405160a0810167ffffffffffffffff81118282101715610e2457610e24610deb565b60405290565b604051601f8201601f1916810167ffffffffffffffff81118282101715610e5357610e53610deb565b604052919050565b600067ffffffffffffffff821115610e7557610e75610deb565b5060051b60200190565b600082601f830112610e9057600080fd5b81356020610ea5610ea083610e5b565b610e2a565b8083825260208201915060208460051b870101935086841115610ec757600080fd5b602086015b84811015610eea57610edd81610d8d565b8352918301918301610ecc565b509695505050505050565b6000601f83601f840112610f0857600080fd5b82356020610f18610ea083610e5b565b82815260a09283028601820192828201919088851115610f3757600080fd5b8388015b85811015610f95578987820112610f525760008081fd5b610f5a610e01565b808383018c811115610f6c5760008081fd5b835b81811015610f855780358452928801928801610f6e565b5050855250928401928101610f3b565b509098975050505050505050565b60008060008060808587031215610fb957600080fd5b610fc285610d8d565b9350610fd060208601610d8d565b9250604085013567ffffffffffffffff80821115610fed57600080fd5b610ff988838901610e7f565b9350606087013591508082111561100f57600080fd5b5061101c87828801610ef5565b91505092959194509250565b60008060006060848603121561103d57600080fd5b61104684610d8d565b925061105460208501610d8d565b9150604084013590509250925092565b600082601f83011261107557600080fd5b81356020611085610ea083610e5b565b82815260059290921b840181019181810190868411156110a457600080fd5b8286015b84811015610eea57803567ffffffffffffffff8111156110c85760008081fd5b6110d68986838b0101610ef5565b8452509183019183016110a8565b600080600080608085870312156110fa57600080fd5b843567ffffffffffffffff8082111561111257600080fd5b61111e88838901610e7f565b955060209150818701358181111561113557600080fd5b61114189828a01610e7f565b95505060408701358181111561115657600080fd5b8701601f8101891361116757600080fd5b8035611175610ea082610e5b565b81815260059190911b8201840190848101908b83111561119457600080fd5b8584015b838110156111cc578035868111156111b05760008081fd5b6111be8e8983890101610e7f565b845250918601918601611198565b50965050505060608701359150808211156111e657600080fd5b5061101c87828801611064565b60006020828403121561120557600080fd5b61043782610d8d565b8060005b600b8110156106bb5781516001600160a01b0316845260209384019390910190600101611212565b806000805b600580821061124e57506105b9565b835186845b83811015611271578251825260209283019290910190600101611253565b50505060a09590950194506020929092019160010161123f565b6104c0810161129a828761120e565b6112a861016083018661123a565b6104808201939093526104a0015292915050565b6000602082840312156112ce57600080fd5b5051919050565b6104a081016112e4828661120e565b6112f261016083018561123a565b82610480830152949350505050565b634e487b7160e01b600052603260045260246000fd5b634e487b7160e01b600052601160045260246000fd5b80820180821115610af857610af8611317565b600060ff821660ff810361135657611356611317565b60010192915050565b60006020828403121561137157600080fd5b8151801515811461043757600080fd5b6000825160005b818110156113a25760208186018101518583015201611388565b50600092019182525091905056fea26469706673582212200b438322adc00b84344960018c548bf3c1251f193225f79e38c86aa37549b95f64736f6c63430008170033",
  "linkReferences": {},
  "deployedLinkReferences": {}
}