{
  "_format": "hh-sol-artifact-1",
  "contractName": "ZunamiPoolControllerApsZunUSD",
  "sourceName": "contracts/configs/aps/ZunamiPoolControllerApsZunUSD.sol",
  "abi": [
    {
      "inputs": [
        {
          "internalType": "address",
          "name": "pool",
          "type": "address"
        }
      ],
      "stateMutability": "nonpayable",
      "type": "constructor"
    },
    {
      "inputs": [],
      "name": "AccessControlBadConfirmation",
      "type": "error"
    },
    {
      "inputs": [
        {
          "internalType": "address",
          "name": "account",
          "type": "address"
        },
        {
          "internalType": "bytes32",
          "name": "neededRole",
          "type": "bytes32"
        }
      ],
      "name": "AccessControlUnauthorizedAccount",
      "type": "error"
    },
    {
      "inputs": [
        {
          "internalType": "address",
          "name": "target",
          "type": "address"
        }
      ],
      "name": "AddressEmptyCode",
      "type": "error"
    },
    {
      "inputs": [
        {
          "internalType": "address",
          "name": "account",
          "type": "address"
        }
      ],
      "name": "AddressInsufficientBalance",
      "type": "error"
    },
    {
      "inputs": [],
      "name": "ECDSAInvalidSignature",
      "type": "error"
    },
    {
      "inputs": [
        {
          "internalType": "uint256",
          "name": "length",
          "type": "uint256"
        }
      ],
      "name": "ECDSAInvalidSignatureLength",
      "type": "error"
    },
    {
      "inputs": [
        {
          "internalType": "bytes32",
          "name": "s",
          "type": "bytes32"
        }
      ],
      "name": "ECDSAInvalidSignatureS",
      "type": "error"
    },
    {
      "inputs": [
        {
          "internalType": "address",
          "name": "spender",
          "type": "address"
        },
        {
          "internalType": "uint256",
          "name": "allowance",
          "type": "uint256"
        },
        {
          "internalType": "uint256",
          "name": "needed",
          "type": "uint256"
        }
      ],
      "name": "ERC20InsufficientAllowance",
      "type": "error"
    },
    {
      "inputs": [
        {
          "internalType": "address",
          "name": "sender",
          "type": "address"
        },
        {
          "internalType": "uint256",
          "name": "balance",
          "type": "uint256"
        },
        {
          "internalType": "uint256",
          "name": "needed",
          "type": "uint256"
        }
      ],
      "name": "ERC20InsufficientBalance",
      "type": "error"
    },
    {
      "inputs": [
        {
          "internalType": "address",
          "name": "approver",
          "type": "address"
        }
      ],
      "name": "ERC20InvalidApprover",
      "type": "error"
    },
    {
      "inputs": [
        {
          "internalType": "address",
          "name": "receiver",
          "type": "address"
        }
      ],
      "name": "ERC20InvalidReceiver",
      "type": "error"
    },
    {
      "inputs": [
        {
          "internalType": "address",
          "name": "sender",
          "type": "address"
        }
      ],
      "name": "ERC20InvalidSender",
      "type": "error"
    },
    {
      "inputs": [
        {
          "internalType": "address",
          "name": "spender",
          "type": "address"
        }
      ],
      "name": "ERC20InvalidSpender",
      "type": "error"
    },
    {
      "inputs": [
        {
          "internalType": "uint256",
          "name": "deadline",
          "type": "uint256"
        }
      ],
      "name": "ERC2612ExpiredSignature",
      "type": "error"
    },
    {
      "inputs": [
        {
          "internalType": "address",
          "name": "signer",
          "type": "address"
        },
        {
          "internalType": "address",
          "name": "owner",
          "type": "address"
        }
      ],
      "name": "ERC2612InvalidSigner",
      "type": "error"
    },
    {
      "inputs": [],
      "name": "EnforcedPause",
      "type": "error"
    },
    {
      "inputs": [],
      "name": "ExpectedPause",
      "type": "error"
    },
    {
      "inputs": [],
      "name": "FailedInnerCall",
      "type": "error"
    },
    {
      "inputs": [],
      "name": "FeeMustBeWithdrawn",
      "type": "error"
    },
    {
      "inputs": [
        {
          "internalType": "address",
          "name": "account",
          "type": "address"
        },
        {
          "internalType": "uint256",
          "name": "currentNonce",
          "type": "uint256"
        }
      ],
      "name": "InvalidAccountNonce",
      "type": "error"
    },
    {
      "inputs": [],
      "name": "InvalidShortString",
      "type": "error"
    },
    {
      "inputs": [],
      "name": "ReentrancyGuardReentrantCall",
      "type": "error"
    },
    {
      "inputs": [
        {
          "internalType": "address",
          "name": "token",
          "type": "address"
        }
      ],
      "name": "SafeERC20FailedOperation",
      "type": "error"
    },
    {
      "inputs": [
        {
          "internalType": "string",
          "name": "str",
          "type": "string"
        }
      ],
      "name": "StringTooLong",
      "type": "error"
    },
    {
      "inputs": [],
      "name": "WrongFee",
      "type": "error"
    },
    {
      "inputs": [
        {
          "internalType": "contract IERC20[]",
          "name": "rewardTokens",
          "type": "address[]"
        }
      ],
      "name": "WrongRewardTokens",
      "type": "error"
    },
    {
      "inputs": [],
      "name": "WrongSid",
      "type": "error"
    },
    {
      "inputs": [
        {
          "internalType": "uint256",
          "name": "tid",
          "type": "uint256"
        }
      ],
      "name": "WrongTokenId",
      "type": "error"
    },
    {
      "inputs": [],
      "name": "ZeroAddress",
      "type": "error"
    },
    {
      "inputs": [],
      "name": "ZeroFeeTokenAddress",
      "type": "error"
    },
    {
      "inputs": [],
      "name": "ZeroRewardManager",
      "type": "error"
    },
    {
      "inputs": [
        {
          "internalType": "uint256",
          "name": "index",
          "type": "uint256"
        }
      ],
      "name": "ZeroTokenAddress",
      "type": "error"
    },
    {
      "inputs": [
        {
          "internalType": "uint256",
          "name": "tid",
          "type": "uint256"
        }
      ],
      "name": "ZeroTokenById",
      "type": "error"
    },
    {
      "anonymous": false,
      "inputs": [
        {
          "indexed": true,
          "internalType": "address",
          "name": "owner",
          "type": "address"
        },
        {
          "indexed": true,
          "internalType": "address",
          "name": "spender",
          "type": "address"
        },
        {
          "indexed": false,
          "internalType": "uint256",
          "name": "value",
          "type": "uint256"
        }
      ],
      "name": "Approval",
      "type": "event"
    },
    {
      "anonymous": false,
      "inputs": [
        {
          "indexed": false,
          "internalType": "uint256",
          "name": "compoundedValue",
          "type": "uint256"
        }
      ],
      "name": "AutoCompoundedAll",
      "type": "event"
    },
    {
      "anonymous": false,
      "inputs": [
        {
          "indexed": false,
          "internalType": "address",
          "name": "feeToken",
          "type": "address"
        },
        {
          "indexed": false,
          "internalType": "uint256",
          "name": "feeValue",
          "type": "uint256"
        }
      ],
      "name": "ClaimedManagementFee",
      "type": "event"
    },
    {
      "anonymous": false,
      "inputs": [
        {
          "indexed": true,
          "internalType": "address",
          "name": "receiver",
          "type": "address"
        },
        {
          "indexed": false,
          "internalType": "uint256",
          "name": "assets",
          "type": "uint256"
        },
        {
          "indexed": false,
          "internalType": "uint256",
          "name": "shares",
          "type": "uint256"
        },
        {
          "indexed": false,
          "internalType": "uint256",
          "name": "sid",
          "type": "uint256"
        }
      ],
      "name": "Deposited",
      "type": "event"
    },
    {
      "anonymous": false,
      "inputs": [],
      "name": "EIP712DomainChanged",
      "type": "event"
    },
    {
      "anonymous": false,
      "inputs": [
        {
          "indexed": false,
          "internalType": "address",
          "name": "oldFeeDistributor",
          "type": "address"
        },
        {
          "indexed": false,
          "internalType": "address",
          "name": "newFeeDistributor",
          "type": "address"
        }
      ],
      "name": "FeeDistributorSet",
      "type": "event"
    },
    {
      "anonymous": false,
      "inputs": [
        {
          "indexed": false,
          "internalType": "uint256",
          "name": "oldManagementFee",
          "type": "uint256"
        },
        {
          "indexed": false,
          "internalType": "uint256",
          "name": "newManagementFee",
          "type": "uint256"
        }
      ],
      "name": "ManagementFeePercentSet",
      "type": "event"
    },
    {
      "anonymous": false,
      "inputs": [
        {
          "indexed": false,
          "internalType": "address",
          "name": "account",
          "type": "address"
        }
      ],
      "name": "Paused",
      "type": "event"
    },
    {
      "anonymous": false,
      "inputs": [
        {
          "indexed": true,
          "internalType": "bytes32",
          "name": "role",
          "type": "bytes32"
        },
        {
          "indexed": true,
          "internalType": "bytes32",
          "name": "previousAdminRole",
          "type": "bytes32"
        },
        {
          "indexed": true,
          "internalType": "bytes32",
          "name": "newAdminRole",
          "type": "bytes32"
        }
      ],
      "name": "RoleAdminChanged",
      "type": "event"
    },
    {
      "anonymous": false,
      "inputs": [
        {
          "indexed": true,
          "internalType": "bytes32",
          "name": "role",
          "type": "bytes32"
        },
        {
          "indexed": true,
          "internalType": "address",
          "name": "account",
          "type": "address"
        },
        {
          "indexed": true,
          "internalType": "address",
          "name": "sender",
          "type": "address"
        }
      ],
      "name": "RoleGranted",
      "type": "event"
    },
    {
      "anonymous": false,
      "inputs": [
        {
          "indexed": true,
          "internalType": "bytes32",
          "name": "role",
          "type": "bytes32"
        },
        {
          "indexed": true,
          "internalType": "address",
          "name": "account",
          "type": "address"
        },
        {
          "indexed": true,
          "internalType": "address",
          "name": "sender",
          "type": "address"
        }
      ],
      "name": "RoleRevoked",
      "type": "event"
    },
    {
      "anonymous": false,
      "inputs": [
        {
          "indexed": false,
          "internalType": "uint256",
          "name": "sid",
          "type": "uint256"
        }
      ],
      "name": "SetDefaultDepositSid",
      "type": "event"
    },
    {
      "anonymous": false,
      "inputs": [
        {
          "indexed": false,
          "internalType": "uint256",
          "name": "sid",
          "type": "uint256"
        }
      ],
      "name": "SetDefaultWithdrawSid",
      "type": "event"
    },
    {
      "anonymous": false,
      "inputs": [
        {
          "indexed": false,
          "internalType": "uint256",
          "name": "tid",
          "type": "uint256"
        }
      ],
      "name": "SetFeeTokenId",
      "type": "event"
    },
    {
      "anonymous": false,
      "inputs": [
        {
          "indexed": false,
          "internalType": "address",
          "name": "rewardManager",
          "type": "address"
        }
      ],
      "name": "SetRewardManager",
      "type": "event"
    },
    {
      "anonymous": false,
      "inputs": [
        {
          "indexed": false,
          "internalType": "contract IERC20[]",
          "name": "rewardTokens",
          "type": "address[]"
        }
      ],
      "name": "SetRewardTokens",
      "type": "event"
    },
    {
      "anonymous": false,
      "inputs": [
        {
          "indexed": true,
          "internalType": "address",
          "name": "from",
          "type": "address"
        },
        {
          "indexed": true,
          "internalType": "address",
          "name": "to",
          "type": "address"
        },
        {
          "indexed": false,
          "internalType": "uint256",
          "name": "value",
          "type": "uint256"
        }
      ],
      "name": "Transfer",
      "type": "event"
    },
    {
      "anonymous": false,
      "inputs": [
        {
          "indexed": false,
          "internalType": "address",
          "name": "account",
          "type": "address"
        }
      ],
      "name": "Unpaused",
      "type": "event"
    },
    {
      "anonymous": false,
      "inputs": [
        {
          "indexed": true,
          "internalType": "address",
          "name": "withdrawer",
          "type": "address"
        },
        {
          "indexed": false,
          "internalType": "uint256",
          "name": "shares",
          "type": "uint256"
        },
        {
          "indexed": false,
          "internalType": "uint256",
          "name": "assets",
          "type": "uint256"
        },
        {
          "indexed": false,
          "internalType": "uint256",
          "name": "sid",
          "type": "uint256"
        }
      ],
      "name": "Withdrawn",
      "type": "event"
    },
    {
      "inputs": [],
      "name": "DEFAULT_ADMIN_ROLE",
      "outputs": [
        {
          "internalType": "bytes32",
          "name": "",
          "type": "bytes32"
        }
      ],
      "stateMutability": "view",
      "type": "function"
    },
    {
      "inputs": [],
      "name": "DOMAIN_SEPARATOR",
      "outputs": [
        {
          "internalType": "bytes32",
          "name": "",
          "type": "bytes32"
        }
      ],
      "stateMutability": "view",
      "type": "function"
    },
    {
      "inputs": [],
      "name": "FEE_DENOMINATOR",
      "outputs": [
        {
          "internalType": "uint256",
          "name": "",
          "type": "uint256"
        }
      ],
      "stateMutability": "view",
      "type": "function"
    },
    {
      "inputs": [],
      "name": "MAX_FEE",
      "outputs": [
        {
          "internalType": "uint256",
          "name": "",
          "type": "uint256"
        }
      ],
      "stateMutability": "view",
      "type": "function"
    },
    {
      "inputs": [],
      "name": "MINIMUM_LIQUIDITY",
      "outputs": [
        {
          "internalType": "uint256",
          "name": "",
          "type": "uint256"
        }
      ],
      "stateMutability": "view",
      "type": "function"
    },
    {
      "inputs": [],
      "name": "MINIMUM_LIQUIDITY_LOCKER",
      "outputs": [
        {
          "internalType": "address",
          "name": "",
          "type": "address"
        }
      ],
      "stateMutability": "view",
      "type": "function"
    },
    {
      "inputs": [],
      "name": "POOL_ASSETS",
      "outputs": [
        {
          "internalType": "uint8",
          "name": "",
          "type": "uint8"
        }
      ],
      "stateMutability": "view",
      "type": "function"
    },
    {
      "inputs": [],
      "name": "PRICE_MULTIPLIER",
      "outputs": [
        {
          "internalType": "uint256",
          "name": "",
          "type": "uint256"
        }
      ],
      "stateMutability": "view",
      "type": "function"
    },
    {
      "inputs": [
        {
          "internalType": "address",
          "name": "owner",
          "type": "address"
        },
        {
          "internalType": "address",
          "name": "spender",
          "type": "address"
        }
      ],
      "name": "allowance",
      "outputs": [
        {
          "internalType": "uint256",
          "name": "",
          "type": "uint256"
        }
      ],
      "stateMutability": "view",
      "type": "function"
    },
    {
      "inputs": [
        {
          "internalType": "address",
          "name": "spender",
          "type": "address"
        },
        {
          "internalType": "uint256",
          "name": "value",
          "type": "uint256"
        }
      ],
      "name": "approve",
      "outputs": [
        {
          "internalType": "bool",
          "name": "",
          "type": "bool"
        }
      ],
      "stateMutability": "nonpayable",
      "type": "function"
    },
    {
      "inputs": [],
      "name": "autoCompoundAll",
      "outputs": [],
      "stateMutability": "nonpayable",
      "type": "function"
    },
    {
      "inputs": [
        {
          "internalType": "address",
          "name": "account",
          "type": "address"
        }
      ],
      "name": "balanceOf",
      "outputs": [
        {
          "internalType": "uint256",
          "name": "",
          "type": "uint256"
        }
      ],
      "stateMutability": "view",
      "type": "function"
    },
    {
      "inputs": [
        {
          "internalType": "uint256",
          "name": "_holdings",
          "type": "uint256"
        },
        {
          "internalType": "uint256",
          "name": "_tokens",
          "type": "uint256"
        }
      ],
      "name": "calcTokenPrice",
      "outputs": [
        {
          "internalType": "uint256",
          "name": "",
          "type": "uint256"
        }
      ],
      "stateMutability": "pure",
      "type": "function"
    },
    {
      "inputs": [],
      "name": "claimManagementFee",
      "outputs": [],
      "stateMutability": "nonpayable",
      "type": "function"
    },
    {
      "inputs": [],
      "name": "collectedManagementFee",
      "outputs": [
        {
          "internalType": "uint256",
          "name": "",
          "type": "uint256"
        }
      ],
      "stateMutability": "view",
      "type": "function"
    },
    {
      "inputs": [],
      "name": "decimals",
      "outputs": [
        {
          "internalType": "uint8",
          "name": "",
          "type": "uint8"
        }
      ],
      "stateMutability": "view",
      "type": "function"
    },
    {
      "inputs": [],
      "name": "defaultDepositSid",
      "outputs": [
        {
          "internalType": "uint256",
          "name": "",
          "type": "uint256"
        }
      ],
      "stateMutability": "view",
      "type": "function"
    },
    {
      "inputs": [],
      "name": "defaultWithdrawSid",
      "outputs": [
        {
          "internalType": "uint256",
          "name": "",
          "type": "uint256"
        }
      ],
      "stateMutability": "view",
      "type": "function"
    },
    {
      "inputs": [
        {
          "internalType": "uint256[5]",
          "name": "amounts",
          "type": "uint256[5]"
        },
        {
          "internalType": "address",
          "name": "receiver",
          "type": "address"
        }
      ],
      "name": "deposit",
      "outputs": [
        {
          "internalType": "uint256",
          "name": "shares",
          "type": "uint256"
        }
      ],
      "stateMutability": "nonpayable",
      "type": "function"
    },
    {
      "inputs": [],
      "name": "eip712Domain",
      "outputs": [
        {
          "internalType": "bytes1",
          "name": "fields",
          "type": "bytes1"
        },
        {
          "internalType": "string",
          "name": "name",
          "type": "string"
        },
        {
          "internalType": "string",
          "name": "version",
          "type": "string"
        },
        {
          "internalType": "uint256",
          "name": "chainId",
          "type": "uint256"
        },
        {
          "internalType": "address",
          "name": "verifyingContract",
          "type": "address"
        },
        {
          "internalType": "bytes32",
          "name": "salt",
          "type": "bytes32"
        },
        {
          "internalType": "uint256[]",
          "name": "extensions",
          "type": "uint256[]"
        }
      ],
      "stateMutability": "view",
      "type": "function"
    },
    {
      "inputs": [],
      "name": "feeDistributor",
      "outputs": [
        {
          "internalType": "address",
          "name": "",
          "type": "address"
        }
      ],
      "stateMutability": "view",
      "type": "function"
    },
    {
      "inputs": [],
      "name": "feeTokenId",
      "outputs": [
        {
          "internalType": "uint256",
          "name": "",
          "type": "uint256"
        }
      ],
      "stateMutability": "view",
      "type": "function"
    },
    {
      "inputs": [
        {
          "internalType": "bytes32",
          "name": "role",
          "type": "bytes32"
        }
      ],
      "name": "getRoleAdmin",
      "outputs": [
        {
          "internalType": "bytes32",
          "name": "",
          "type": "bytes32"
        }
      ],
      "stateMutability": "view",
      "type": "function"
    },
    {
      "inputs": [
        {
          "internalType": "bytes32",
          "name": "role",
          "type": "bytes32"
        },
        {
          "internalType": "address",
          "name": "account",
          "type": "address"
        }
      ],
      "name": "grantRole",
      "outputs": [],
      "stateMutability": "nonpayable",
      "type": "function"
    },
    {
      "inputs": [
        {
          "internalType": "bytes32",
          "name": "role",
          "type": "bytes32"
        },
        {
          "internalType": "address",
          "name": "account",
          "type": "address"
        }
      ],
      "name": "hasRole",
      "outputs": [
        {
          "internalType": "bool",
          "name": "",
          "type": "bool"
        }
      ],
      "stateMutability": "view",
      "type": "function"
    },
    {
      "inputs": [],
      "name": "managementFeePercent",
      "outputs": [
        {
          "internalType": "uint256",
          "name": "",
          "type": "uint256"
        }
      ],
      "stateMutability": "view",
      "type": "function"
    },
    {
      "inputs": [],
      "name": "name",
      "outputs": [
        {
          "internalType": "string",
          "name": "",
          "type": "string"
        }
      ],
      "stateMutability": "view",
      "type": "function"
    },
    {
      "inputs": [
        {
          "internalType": "address",
          "name": "owner",
          "type": "address"
        }
      ],
      "name": "nonces",
      "outputs": [
        {
          "internalType": "uint256",
          "name": "",
          "type": "uint256"
        }
      ],
      "stateMutability": "view",
      "type": "function"
    },
    {
      "inputs": [],
      "name": "pause",
      "outputs": [],
      "stateMutability": "nonpayable",
      "type": "function"
    },
    {
      "inputs": [],
      "name": "paused",
      "outputs": [
        {
          "internalType": "bool",
          "name": "",
          "type": "bool"
        }
      ],
      "stateMutability": "view",
      "type": "function"
    },
    {
      "inputs": [
        {
          "internalType": "address",
          "name": "owner",
          "type": "address"
        },
        {
          "internalType": "address",
          "name": "spender",
          "type": "address"
        },
        {
          "internalType": "uint256",
          "name": "value",
          "type": "uint256"
        },
        {
          "internalType": "uint256",
          "name": "deadline",
          "type": "uint256"
        },
        {
          "internalType": "uint8",
          "name": "v",
          "type": "uint8"
        },
        {
          "internalType": "bytes32",
          "name": "r",
          "type": "bytes32"
        },
        {
          "internalType": "bytes32",
          "name": "s",
          "type": "bytes32"
        }
      ],
      "name": "permit",
      "outputs": [],
      "stateMutability": "nonpayable",
      "type": "function"
    },
    {
      "inputs": [],
      "name": "pool",
      "outputs": [
        {
          "internalType": "contract IPool",
          "name": "",
          "type": "address"
        }
      ],
      "stateMutability": "view",
      "type": "function"
    },
    {
      "inputs": [
        {
          "internalType": "bytes32",
          "name": "role",
          "type": "bytes32"
        },
        {
          "internalType": "address",
          "name": "callerConfirmation",
          "type": "address"
        }
      ],
      "name": "renounceRole",
      "outputs": [],
      "stateMutability": "nonpayable",
      "type": "function"
    },
    {
      "inputs": [
        {
          "internalType": "bytes32",
          "name": "role",
          "type": "bytes32"
        },
        {
          "internalType": "address",
          "name": "account",
          "type": "address"
        }
      ],
      "name": "revokeRole",
      "outputs": [],
      "stateMutability": "nonpayable",
      "type": "function"
    },
    {
      "inputs": [],
      "name": "rewardManager",
      "outputs": [
        {
          "internalType": "contract IRewardManager",
          "name": "",
          "type": "address"
        }
      ],
      "stateMutability": "view",
      "type": "function"
    },
    {
      "inputs": [
        {
          "internalType": "uint256",
          "name": "",
          "type": "uint256"
        }
      ],
      "name": "rewardTokens",
      "outputs": [
        {
          "internalType": "contract IERC20",
          "name": "",
          "type": "address"
        }
      ],
      "stateMutability": "view",
      "type": "function"
    },
    {
      "inputs": [
        {
          "internalType": "uint256",
          "name": "_newPoolId",
          "type": "uint256"
        }
      ],
      "name": "setDefaultDepositSid",
      "outputs": [],
      "stateMutability": "nonpayable",
      "type": "function"
    },
    {
      "inputs": [
        {
          "internalType": "uint256",
          "name": "_newPoolId",
          "type": "uint256"
        }
      ],
      "name": "setDefaultWithdrawSid",
      "outputs": [],
      "stateMutability": "nonpayable",
      "type": "function"
    },
    {
      "inputs": [
        {
          "internalType": "address",
          "name": "_feeDistributor",
          "type": "address"
        }
      ],
      "name": "setFeeDistributor",
      "outputs": [],
      "stateMutability": "nonpayable",
      "type": "function"
    },
    {
      "inputs": [
        {
          "internalType": "uint256",
          "name": "_tokenId",
          "type": "uint256"
        }
      ],
      "name": "setFeeTokenId",
      "outputs": [],
      "stateMutability": "nonpayable",
      "type": "function"
    },
    {
      "inputs": [
        {
          "internalType": "uint256",
          "name": "newManagementFeePercent",
          "type": "uint256"
        }
      ],
      "name": "setManagementFeePercent",
      "outputs": [],
      "stateMutability": "nonpayable",
      "type": "function"
    },
    {
      "inputs": [
        {
          "internalType": "address",
          "name": "rewardManagerAddr",
          "type": "address"
        }
      ],
      "name": "setRewardManager",
      "outputs": [],
      "stateMutability": "nonpayable",
      "type": "function"
    },
    {
      "inputs": [
        {
          "internalType": "contract IERC20[]",
          "name": "rewardTokens_",
          "type": "address[]"
        }
      ],
      "name": "setRewardTokens",
      "outputs": [],
      "stateMutability": "nonpayable",
      "type": "function"
    },
    {
      "inputs": [
        {
          "internalType": "bytes4",
          "name": "interfaceId",
          "type": "bytes4"
        }
      ],
      "name": "supportsInterface",
      "outputs": [
        {
          "internalType": "bool",
          "name": "",
          "type": "bool"
        }
      ],
      "stateMutability": "view",
      "type": "function"
    },
    {
      "inputs": [],
      "name": "symbol",
      "outputs": [
        {
          "internalType": "string",
          "name": "",
          "type": "string"
        }
      ],
      "stateMutability": "view",
      "type": "function"
    },
    {
      "inputs": [],
      "name": "tokenPrice",
      "outputs": [
        {
          "internalType": "uint256",
          "name": "",
          "type": "uint256"
        }
      ],
      "stateMutability": "view",
      "type": "function"
    },
    {
      "inputs": [],
      "name": "totalSupply",
      "outputs": [
        {
          "internalType": "uint256",
          "name": "",
          "type": "uint256"
        }
      ],
      "stateMutability": "view",
      "type": "function"
    },
    {
      "inputs": [
        {
          "internalType": "address",
          "name": "to",
          "type": "address"
        },
        {
          "internalType": "uint256",
          "name": "value",
          "type": "uint256"
        }
      ],
      "name": "transfer",
      "outputs": [
        {
          "internalType": "bool",
          "name": "",
          "type": "bool"
        }
      ],
      "stateMutability": "nonpayable",
      "type": "function"
    },
    {
      "inputs": [
        {
          "internalType": "address",
          "name": "from",
          "type": "address"
        },
        {
          "internalType": "address",
          "name": "to",
          "type": "address"
        },
        {
          "internalType": "uint256",
          "name": "value",
          "type": "uint256"
        }
      ],
      "name": "transferFrom",
      "outputs": [
        {
          "internalType": "bool",
          "name": "",
          "type": "bool"
        }
      ],
      "stateMutability": "nonpayable",
      "type": "function"
    },
    {
      "inputs": [],
      "name": "unpause",
      "outputs": [],
      "stateMutability": "nonpayable",
      "type": "function"
    },
    {
      "inputs": [
        {
          "internalType": "uint256",
          "name": "shares",
          "type": "uint256"
        },
        {
          "internalType": "uint256[5]",
          "name": "minTokenAmounts",
          "type": "uint256[5]"
        },
        {
          "internalType": "address",
          "name": "receiver",
          "type": "address"
        }
      ],
      "name": "withdraw",
      "outputs": [],
      "stateMutability": "nonpayable",
      "type": "function"
    }
  ],
  "bytecode": "0x6101806040526064600e553480156200001757600080fd5b5060405162003a7f38038062003a7f8339810160408190526200003a916200032b565b806040518060400160405280601181526020017005a756e616d692055534420415053204c5607c1b8152506040518060400160405280600b81526020016a06170735a756e5553444c560ac1b815250828280604051806040016040528060018152602001603160f81b81525085858160039081620000b9919062000404565b506004620000c8828262000404565b50620000da91508390506005620001f4565b61012052620000eb816006620001f4565b61014052815160208084019190912060e052815190820120610100524660a0526200017960e05161010051604080517f8b73c3c69bb8fe3d512ecc4cf759cc79239f7b179b0ffacaa9a75d522b39400f60208201529081019290925260608201524660808201523060a082015260009060c00160405160208183030381529060405280519060200120905090565b60805250503060c052506008805460ff191690556001600a556001600160a01b038116620001ba5760405163d92e233d60e01b815260040160405180910390fd5b6001600160a01b03811661016052620001d56000336200022d565b5050601080546001600160a01b03191633179055506200054692505050565b600060208351101562000214576200020c83620002df565b905062000227565b8162000221848262000404565b5060ff90505b92915050565b60008281526009602090815260408083206001600160a01b038516845290915281205460ff16620002d65760008381526009602090815260408083206001600160a01b03861684529091529020805460ff191660011790556200028d3390565b6001600160a01b0316826001600160a01b0316847f2f8788117e7eff1d82e926ec794901d17c78024a50270940304540a733656f0d60405160405180910390a450600162000227565b50600062000227565b600080829050601f8151111562000316578260405163305a27a960e01b81526004016200030d9190620004d0565b60405180910390fd5b8051620003238262000521565b179392505050565b6000602082840312156200033e57600080fd5b81516001600160a01b03811681146200035657600080fd5b9392505050565b634e487b7160e01b600052604160045260246000fd5b600181811c908216806200038857607f821691505b602082108103620003a957634e487b7160e01b600052602260045260246000fd5b50919050565b601f821115620003ff576000816000526020600020601f850160051c81016020861015620003da5750805b601f850160051c820191505b81811015620003fb57828155600101620003e6565b5050505b505050565b81516001600160401b038111156200042057620004206200035d565b620004388162000431845462000373565b84620003af565b602080601f831160018114620004705760008415620004575750858301515b600019600386901b1c1916600185901b178555620003fb565b600085815260208120601f198616915b82811015620004a15788860151825594840194600190910190840162000480565b5085821015620004c05787850151600019600388901b60f8161c191681555b5050505050600190811b01905550565b60006020808352835180602085015260005b818110156200050057858101830151858201604001528201620004e2565b506000604082860101526040601f19601f8301168501019250505092915050565b80516020808301519190811015620003a95760001960209190910360031b1b16919050565b60805160a05160c05160e051610100516101205161014051610160516134556200062a600039600081816103bb0152818161085a0152818161093c01528181610ae701528181610bc801528181610ca901528181610d5601528181610e9701528181610fe5015281816113fb015281816114e301528181611548015281816118910152818161190c01528181611da301528181611e2901528181611f90015281816122fe015261249601526000611d3701526000611d0a01526000611bb601526000611b8e01526000611ae901526000611b1301526000611b3d01526134556000f3fe608060405234801561001057600080fd5b50600436106102f15760003560e01c8063686f6b511161019d578063a217fddf116100e9578063ca54be3b116100a2578063d547741f1161007c578063d547741f14610637578063d73792a9146105e3578063dd62ed3e1461064a578063f66f807b1461068357600080fd5b8063ca54be3b146105fe578063ccfc2e8d14610611578063d505accf1461062457600080fd5b8063a217fddf146105c0578063a9059cbb146105c8578063b44f9b48146105db578063ba9a7a56146105e3578063bc063e1a146105ec578063c37d913d146105f557600080fd5b80637ecebe001161015657806384b0196e1161013057806384b0196e1461058157806391d148541461059c57806395d89b41146105af57806399ec9246146105b757600080fd5b80637ecebe001461055e5780637ff9b596146105715780638456cb591461057957600080fd5b8063686f6b51146104eb57806370a08231146104fe57806370a106b91461052757806373f351c81461053a57806375451b4f146105435780637bb7bed11461054b57600080fd5b80632d62af2f1161025c5780633a8051ac116102155780633f4ba83a116101ef5780633f4ba83a146104bc57806352d0b768146104c45780635920192a146104d75780635c975abb146104e057600080fd5b80633a8051ac1461048d5780633dbb53e9146104965780633f22fdf0146104a957600080fd5b80632d62af2f1461042e5780632f2ff15d14610441578063313ce567146104545780633644e5151461046957806336568abe1461047157806339fb71931461048457600080fd5b8063153ee554116102ae578063153ee554146103a157806316f0115b146103b657806318160ddd146103dd578063201e81a8146103e557806323b872dd146103f8578063248a9ca31461040b57600080fd5b806301ffc9a7146102f657806306fdde031461031e578063095ea7b3146103335780630d43e8ad146103465780630f4ef8a614610371578063113990b814610384575b600080fd5b610309610304366004612c79565b61068b565b60405190151581526020015b60405180910390f35b6103266106c2565b6040516103159190612cf3565b610309610341366004612d1b565b610754565b601054610359906001600160a01b031681565b6040516001600160a01b039091168152602001610315565b601254610359906001600160a01b031681565b610393670de0b6b3a764000081565b604051908152602001610315565b6103b46103af366004612d47565b61076c565b005b6103597f000000000000000000000000000000000000000000000000000000000000000081565b600254610393565b6103b46103f3366004612dd4565b6107f4565b610309610406366004612e7a565b61080c565b610393610419366004612ebb565b60009081526009602052604090206001015490565b61039361043c366004612f24565b610832565b6103b461044f366004612f5c565b6109bb565b60125b60405160ff9091168152602001610315565b6103936109e6565b6103b461047f366004612f5c565b6109f5565b61039360115481565b610393600d5481565b6103936104a4366004612f81565b610a2d565b6103b46104b7366004612ebb565b610a4c565b6103b4610ac4565b6103b46104d2366004612ebb565b610ada565b61035961dead81565b60085460ff16610309565b6103b46104f9366004612ebb565b610bbb565b61039361050c366004612d47565b6001600160a01b031660009081526020819052604090205490565b6103b4610535366004612ebb565b610c9c565b610393600e5481565b610457600581565b610359610559366004612ebb565b610e48565b61039361056c366004612d47565b610e72565b610393610e90565b6103b4610f1f565b610589610f32565b6040516103159796959493929190612fa3565b6103096105aa366004612f5c565b610f78565b610326610fa3565b610393600c5481565b610393600081565b6103096105d6366004612d1b565b610fb2565b6103b4610fc0565b6103936103e881565b61039361012c81565b610393600f5481565b6103b461060c36600461303c565b611193565b6103b461061f366004612d47565b6111ca565b6103b461063236600461307d565b611266565b6103b4610645366004612f5c565b6113a0565b6103936106583660046130f4565b6001600160a01b03918216600090815260016020908152604080832093909416825291909152205490565b6103b46113c5565b60006001600160e01b03198216637965db0b60e01b14806106bc57506301ffc9a760e01b6001600160e01b03198316145b92915050565b6060600380546106d190613122565b80601f01602080910402602001604051908101604052809291908181526020018280546106fd90613122565b801561074a5780601f1061071f5761010080835404028352916020019161074a565b820191906000526020600020905b81548152906001019060200180831161072d57829003601f168201915b5050505050905090565b6000336107628185856115ff565b5060019392505050565b60006107778161160c565b6001600160a01b03821661079e5760405163d92e233d60e01b815260040160405180910390fd5b601280546001600160a01b0319166001600160a01b0384169081179091556040519081527fc05fa79926cd5600b1cc95c8d9d908b7685d3f058c34ea011f8ae3490968ad30906020015b60405180910390a15050565b60006107ff8161160c565b61080882611616565b5050565b60003361081a8582856116ed565b610825858585611765565b60019150505b9392505050565b600061083c6117c4565b6108446117e8565b6001600160a01b038216610856573391505b60007f00000000000000000000000000000000000000000000000000000000000000006001600160a01b0316639d63848a6040518163ffffffff1660e01b815260040160a060405180830381865afa1580156108b6573d6000803e3d6000fd5b505050506040513d601f19601f820116820180604052508101906108da919061315c565b905060005b60058110156109a35760008282600581106108fc576108fc6131ba565b602002015190506001600160a01b038116158015906109315750600086836005811061092a5761092a6131ba565b6020020151115b1561099a5761099a337f000000000000000000000000000000000000000000000000000000000000000088856005811061096d5761096d6131ba565b6020020151868660058110610984576109846131ba565b60200201516001600160a01b0316929190611812565b506001016108df565b506109ae8484611879565b9150506106bc6001600a55565b6000828152600960205260409020600101546109d68161160c565b6109e08383611a48565b50505050565b60006109f0611adc565b905090565b6001600160a01b0381163314610a1e5760405163334bd91960e11b815260040160405180910390fd5b610a288282611c07565b505050565b600081610a42670de0b6b3a7640000856131e6565b61082b91906131fd565b6000610a578161160c565b61012c821115610a7a57604051634d0419db60e11b815260040160405180910390fd5b600e5460408051918252602082018490527f4b9e3389cd92257d5111fc1cd43ed1fab1a6a790024c9cec0acfad96886eeee7910160405180910390a1610abe6113c5565b50600e55565b6000610acf8161160c565b610ad7611c74565b50565b6000610ae58161160c565b7f00000000000000000000000000000000000000000000000000000000000000006001600160a01b03166322068b446040518163ffffffff1660e01b8152600401602060405180830381865afa158015610b43573d6000803e3d6000fd5b505050506040513d601f19601f82011682018060405250810190610b67919061321f565b8210610b8657604051634dd76a3360e01b815260040160405180910390fd5b600d8290556040518281527f1263b39fe165b48c204de3a3d752e6c7a129670cbe325757bdf76562664ef8d1906020016107e8565b6000610bc68161160c565b7f00000000000000000000000000000000000000000000000000000000000000006001600160a01b03166322068b446040518163ffffffff1660e01b8152600401602060405180830381865afa158015610c24573d6000803e3d6000fd5b505050506040513d601f19601f82011682018060405250810190610c48919061321f565b8210610c6757604051634dd76a3360e01b815260040160405180910390fd5b600c8290556040518281527fdefccea87e6a6ac5c177a3e0318456cf032572ae03a96d9f44c4664a92999aef906020016107e8565b6000610ca78161160c565b7f00000000000000000000000000000000000000000000000000000000000000006001600160a01b0316639d63848a6040518163ffffffff1660e01b815260040160a060405180830381865afa158015610d05573d6000803e3d6000fd5b505050506040513d601f19601f82011682018060405250810190610d29919061315c565b50600582101580610dcc57506040516302210ae360e11b8152600481018390526000906001600160a01b037f0000000000000000000000000000000000000000000000000000000000000000169063044215c690602401602060405180830381865afa158015610d9d573d6000803e3d6000fd5b505050506040513d601f19601f82011682018060405250810190610dc19190613238565b6001600160a01b0316145b15610df2576040516311fbc14560e11b8152600481018390526024015b60405180910390fd5b60115415610e1357604051635125b48560e01b815260040160405180910390fd5b600f8290556040518281527f734ef387ad5aca687c870a01e23a5e8dec0499f3d83912614a8bf06a539049ec906020016107e8565b600b8181548110610e5857600080fd5b6000918252602090912001546001600160a01b0316905081565b6001600160a01b0381166000908152600760205260408120546106bc565b60006109f07f00000000000000000000000000000000000000000000000000000000000000006001600160a01b03166318160ddd6040518163ffffffff1660e01b8152600401602060405180830381865afa158015610ef3573d6000803e3d6000fd5b505050506040513d601f19601f82011682018060405250810190610f17919061321f565b600254610a2d565b6000610f2a8161160c565b610ad7611cc6565b600060608060008060006060610f46611d03565b610f4e611d30565b60408051600080825260208201909252600f60f81b9b939a50919850469750309650945092509050565b60009182526009602090815260408084206001600160a01b0393909316845291905290205460ff1690565b6060600480546106d190613122565b600033610762818585611765565b610fc86117e8565b600f546040516302210ae360e11b81526000916001600160a01b037f0000000000000000000000000000000000000000000000000000000000000000169163044215c69161101c9160040190815260200190565b602060405180830381865afa158015611039573d6000803e3d6000fd5b505050506040513d601f19601f8201168201806040525081019061105d9190613238565b90506001600160a01b038116611086576040516323f3a9b760e01b815260040160405180910390fd5b6011546040516370a0823160e01b81523060048201526000906001600160a01b038416906370a0823190602401602060405180830381865afa1580156110d0573d6000803e3d6000fd5b505050506040513d601f19601f820116820180604052508101906110f4919061321f565b905060008183116111055782611107565b815b9050806011600082825461111b9190613255565b9091555050801561114057601054611140906001600160a01b03868116911683611d5d565b604080516001600160a01b0386168152602081018390527f15a050976823afd82c639feaf4828ec3e700c0011eeb105b53f6f6f1c8fe7bc891015b60405180910390a1505050506111916001600a55565b565b61119b6117c4565b6111a36117e8565b6001600160a01b0381166111b45750335b6111c033848484611d8e565b610a286001600a55565b60006111d58161160c565b6001600160a01b0382166111fc5760405163d92e233d60e01b815260040160405180910390fd5b601054604080516001600160a01b03928316815291841660208301527f14ea07ac6324369bb3f11ebf255d527e848b1099791d10d5d82a5e4fc9288cbf910160405180910390a150601080546001600160a01b0319166001600160a01b0392909216919091179055565b8342111561128a5760405163313c898160e11b815260048101859052602401610de9565b60007f6e71edae12b1b97f4d1f60370fef10105fa2faae0126114a169c64845d6126c98888886112d78c6001600160a01b0316600090815260076020526040902080546001810190915590565b6040805160208101969096526001600160a01b0394851690860152929091166060840152608083015260a082015260c0810186905260e001604051602081830303815290604052805190602001209050600061133282611f1e565b9050600061134282878787611f4b565b9050896001600160a01b0316816001600160a01b031614611389576040516325c0072360e11b81526001600160a01b0380831660048301528b166024820152604401610de9565b6113948a8a8a6115ff565b50505050505050505050565b6000828152600960205260409020600101546113bb8161160c565b6109e08383611c07565b6113cd6117c4565b6113d56117e8565b6113de30611f79565b600f546040516302210ae360e11b81526000916001600160a01b037f0000000000000000000000000000000000000000000000000000000000000000169163044215c6916114329160040190815260200190565b602060405180830381865afa15801561144f573d6000803e3d6000fd5b505050506040513d601f19601f820116820180604052508101906114739190613238565b90506001600160a01b03811661149c576040516323f3a9b760e01b815260040160405180910390fd5b60006114a782611ffd565b9050806000036114b85750506115f5565b6114c0612be1565b8181600f54600581106114d5576114d56131ba565b6020020152600f5461152b907f000000000000000000000000000000000000000000000000000000000000000090839060058110611515576115156131ba565b60200201516001600160a01b0386169190611d5d565b600c54604051636766ea0f60e01b81526000916001600160a01b037f00000000000000000000000000000000000000000000000000000000000000001691636766ea0f9161157f918690309060040161328b565b6020604051808303816000875af115801561159e573d6000803e3d6000fd5b505050506040513d601f19601f820116820180604052508101906115c2919061321f565b90507f1a66222d9f5ba56428c4d1cd5c0127998bf6e8c1ab86f3027227b0f1319a6a028160405161117b91815260200190565b6111916001600a55565b610a288383836001612046565b610ad7813361211b565b805160000361163a5780604051630362609760e51b8152600401610de991906132b8565b60005b815181101561169d5760006001600160a01b0316828281518110611663576116636131ba565b60200260200101516001600160a01b0316036116955760405163af7bbf6960e01b815260048101829052602401610de9565b60010161163d565b5080516116b190600b906020840190612bff565b507f69be44b81d4f8b6cf7825a37f020b264079658f3d72856eeb0a0efed09c7d392600b6040516116e29190613343565b60405180910390a150565b6001600160a01b0383811660009081526001602090815260408083209386168352929052205460001981146109e0578181101561175657604051637dc7a0d960e11b81526001600160a01b03841660048201526024810182905260448101839052606401610de9565b6109e084848484036000612046565b6001600160a01b03831661178f57604051634b637e8f60e11b815260006004820152602401610de9565b6001600160a01b0382166117b95760405163ec442f0560e01b815260006004820152602401610de9565b610a28838383612154565b60085460ff16156111915760405163d93c066560e01b815260040160405180910390fd5b6002600a540361180b57604051633ee5aeb560e01b815260040160405180910390fd5b6002600a55565b6040516001600160a01b0384811660248301528381166044830152606482018390526109e09186918216906323b872dd906084015b604051602081830303815290604052915060e01b6020820180516001600160e01b03838183161783525050505061227e565b60405163297a77b960e21b81523060048201526000907f00000000000000000000000000000000000000000000000000000000000000006001600160a01b03169063a5e9dee490602401600060405180830381600087803b1580156118dd57600080fd5b505af11580156118f1573d6000803e3d6000fd5b50506040516370a0823160e01b8152306004820152600092507f00000000000000000000000000000000000000000000000000000000000000006001600160a01b031691506370a0823190602401602060405180830381865afa15801561195c573d6000803e3d6000fd5b505050506040513d601f19601f82011682018060405250810190611980919061321f565b9050600061198e85306122e1565b9050600061199b60025490565b6000036119ba57509150816103e86119b561dead82612378565b6119dc565b82826119c560025490565b6119cf91906131e6565b6119d991906131fd565b93505b6119ef856119ea8387613255565b612378565b600c546040805184815260208101879052908101919091526001600160a01b038616907f91ede45f04a37a7c170f5c1207df3b6bc748dc1e04ad5e917a241d0f52feada39060600160405180910390a250505092915050565b6000611a548383610f78565b611ad45760008381526009602090815260408083206001600160a01b03861684529091529020805460ff19166001179055611a8c3390565b6001600160a01b0316826001600160a01b0316847f2f8788117e7eff1d82e926ec794901d17c78024a50270940304540a733656f0d60405160405180910390a45060016106bc565b5060006106bc565b6000306001600160a01b037f000000000000000000000000000000000000000000000000000000000000000016148015611b3557507f000000000000000000000000000000000000000000000000000000000000000046145b15611b5f57507f000000000000000000000000000000000000000000000000000000000000000090565b6109f0604080517f8b73c3c69bb8fe3d512ecc4cf759cc79239f7b179b0ffacaa9a75d522b39400f60208201527f0000000000000000000000000000000000000000000000000000000000000000918101919091527f000000000000000000000000000000000000000000000000000000000000000060608201524660808201523060a082015260009060c00160405160208183030381529060405280519060200120905090565b6000611c138383610f78565b15611ad45760008381526009602090815260408083206001600160a01b0386168085529252808320805460ff1916905551339286917ff6391f5c32d9c69d2a47ea670b442974b53935d1edc7fd64eb21e047a839171b9190a45060016106bc565b611c7c6123ae565b6008805460ff191690557f5db9ee0a495bf2e6ff9c91a7834c1ba4fdd244a5e8aa4e537bd38aeae4b073aa335b6040516001600160a01b03909116815260200160405180910390a1565b611cce6117c4565b6008805460ff191660011790557f62e78cea01bee320cd4e420270b5ea74000d11b0c9f74754ebdbfc544b05a258611ca93390565b60606109f07f000000000000000000000000000000000000000000000000000000000000000060056123d1565b60606109f07f000000000000000000000000000000000000000000000000000000000000000060066123d1565b6040516001600160a01b03838116602483015260448201839052610a2891859182169063a9059cbb90606401611847565b60405163297a77b960e21b81523060048201527f00000000000000000000000000000000000000000000000000000000000000006001600160a01b03169063a5e9dee490602401600060405180830381600087803b158015611def57600080fd5b505af1158015611e03573d6000803e3d6000fd5b505050506000611e1260025490565b6040516370a0823160e01b815230600482015285907f00000000000000000000000000000000000000000000000000000000000000006001600160a01b0316906370a0823190602401602060405180830381865afa158015611e78573d6000803e3d6000fd5b505050506040513d601f19601f82011682018060405250810190611e9c919061321f565b611ea691906131e6565b611eb091906131fd565b9050611ebd81848461247c565b611ec78585612507565b600d546040805186815260208101849052908101919091526001600160a01b038616907f75e161b3e824b114fc1a33274bd7091918dd4e639cede50b78b15a4eea956a219060600160405180910390a25050505050565b60006106bc611f2b611adc565b8360405161190160f01b8152600281019290925260228201526042902090565b600080600080611f5d8888888861253d565b925092509250611f6d828261260c565b50909695505050505050565b604051632026ffa360e01b81526001600160a01b037f00000000000000000000000000000000000000000000000000000000000000001690632026ffa390611fc8908490600b90600401613356565b600060405180830381600087803b158015611fe257600080fd5b505af1158015611ff6573d6000803e3d6000fd5b5050505050565b6012546000908190612018906001600160a01b0316846126c5565b9050612023816129a9565b601160008282546120349190613382565b909155505060115461082b9082613255565b6001600160a01b0384166120705760405163e602df0560e01b815260006004820152602401610de9565b6001600160a01b03831661209a57604051634a1406b160e11b815260006004820152602401610de9565b6001600160a01b03808516600090815260016020908152604080832093871683529290522082905580156109e057826001600160a01b0316846001600160a01b03167f8c5be1e5ebec7d5bd14f71427d1e84f3dd0314c0f7b2291e5b200ac8c7c3b9258460405161210d91815260200190565b60405180910390a350505050565b6121258282610f78565b6108085760405163e2517d3f60e01b81526001600160a01b038216600482015260248101839052604401610de9565b6001600160a01b03831661217f5780600260008282546121749190613382565b909155506121f19050565b6001600160a01b038316600090815260208190526040902054818110156121d25760405163391434e360e21b81526001600160a01b03851660048201526024810182905260448101839052606401610de9565b6001600160a01b03841660009081526020819052604090209082900390555b6001600160a01b03821661220d5760028054829003905561222c565b6001600160a01b03821660009081526020819052604090208054820190555b816001600160a01b0316836001600160a01b03167fddf252ad1be2c89b69c2b068fc378daa952ba7f163c4a11628f55a4df523b3ef8360405161227191815260200190565b60405180910390a3505050565b60006122936001600160a01b038416836129c6565b905080516000141580156122b85750808060200190518101906122b69190613395565b155b15610a2857604051635274afe760e01b81526001600160a01b0384166004820152602401610de9565b600c54604051636766ea0f60e01b81526000916001600160a01b037f00000000000000000000000000000000000000000000000000000000000000001691636766ea0f91612335918790879060040161328b565b6020604051808303816000875af1158015612354573d6000803e3d6000fd5b505050506040513d601f19601f8201168201806040525081019061082b919061321f565b6001600160a01b0382166123a25760405163ec442f0560e01b815260006004820152602401610de9565b61080860008383612154565b60085460ff1661119157604051638dfc202b60e01b815260040160405180910390fd5b606060ff83146123eb576123e4836129d4565b90506106bc565b8180546123f790613122565b80601f016020809104026020016040519081016040528092919081815260200182805461242390613122565b80156124705780601f1061244557610100808354040283529160200191612470565b820191906000526020600020905b81548152906001019060200180831161245357829003601f168201915b505050505090506106bc565b600d54604051632d526f8f60e21b81526001600160a01b037f0000000000000000000000000000000000000000000000000000000000000000169163b549be3c916124d091908790879087906004016133b7565b600060405180830381600087803b1580156124ea57600080fd5b505af11580156124fe573d6000803e3d6000fd5b50505050505050565b6001600160a01b03821661253157604051634b637e8f60e11b815260006004820152602401610de9565b61080882600083612154565b600080807f7fffffffffffffffffffffffffffffff5d576e7357a4501ddfe92f46681b20a08411156125785750600091506003905082612602565b604080516000808252602082018084528a905260ff891692820192909252606081018790526080810186905260019060a0016020604051602081039080840390855afa1580156125cc573d6000803e3d6000fd5b5050604051601f1901519150506001600160a01b0381166125f857506000925060019150829050612602565b9250600091508190505b9450945094915050565b6000826003811115612620576126206133ed565b03612629575050565b600182600381111561263d5761263d6133ed565b0361265b5760405163f645eedf60e01b815260040160405180910390fd5b600282600381111561266f5761266f6133ed565b036126905760405163fce698f760e01b815260048101829052602401610de9565b60038260038111156126a4576126a46133ed565b03610808576040516335e2f38360e21b815260048101829052602401610de9565b60006001600160a01b0383166126ee576040516310994b1b60e01b815260040160405180910390fd5b600b5460008167ffffffffffffffff81111561270c5761270c612d64565b604051908082528060200260200182016040528015612735578160200160208202803683370190505b509050600160005b8381101561281a57600b8181548110612758576127586131ba565b6000918252602090912001546040516370a0823160e01b81523060048201526001600160a01b03909116906370a0823190602401602060405180830381865afa1580156127a9573d6000803e3d6000fd5b505050506040513d601f19601f820116820180604052508101906127cd919061321f565b8382815181106127df576127df6131ba565b60200260200101818152505060008382815181106127ff576127ff6131ba565b6020026020010151111561281257600091505b60010161273d565b50801561282d57600093505050506106bc565b6040516370a0823160e01b81523060048201526000906001600160a01b038716906370a0823190602401602060405180830381865afa158015612874573d6000803e3d6000fd5b505050506040513d601f19601f82011682018060405250810190612898919061321f565b90506000805b85811015612928578481815181106128b8576128b86131ba565b60200260200101516000031561292057600b81815481106128db576128db6131ba565b9060005260206000200160009054906101000a90046001600160a01b031691506129208983878481518110612912576129126131ba565b60200260200101518b612a13565b60010161289e565b506040516370a0823160e01b815230600482015282906001600160a01b038916906370a0823190602401602060405180830381865afa15801561296f573d6000803e3d6000fd5b505050506040513d601f19601f82011682018060405250810190612993919061321f565b61299d9190613255565b98975050505050505050565b60006103e8600e54836129bc91906131e6565b6106bc91906131fd565b606061082b83836000612a97565b606060006129e183612b34565b604080516020808252818301909252919250600091906020820181803683375050509182525060208101929092525090565b612a276001600160a01b0384168584611d5d565b604051631099a22f60e21b81526001600160a01b03848116600483015260248201849052828116604483015285169063426688bc90606401600060405180830381600087803b158015612a7957600080fd5b505af1158015612a8d573d6000803e3d6000fd5b5050505050505050565b606081471015612abc5760405163cd78605960e01b8152306004820152602401610de9565b600080856001600160a01b03168486604051612ad89190613403565b60006040518083038185875af1925050503d8060008114612b15576040519150601f19603f3d011682016040523d82523d6000602084013e612b1a565b606091505b5091509150612b2a868383612b5c565b9695505050505050565b600060ff8216601f8111156106bc57604051632cd44ac360e21b815260040160405180910390fd5b606082612b7157612b6c82612bb8565b61082b565b8151158015612b8857506001600160a01b0384163b155b15612bb157604051639996b31560e01b81526001600160a01b0385166004820152602401610de9565b508061082b565b805115612bc85780518082602001fd5b604051630a12f52160e11b815260040160405180910390fd5b6040518060a001604052806005906020820280368337509192915050565b828054828255906000526020600020908101928215612c54579160200282015b82811115612c5457825182546001600160a01b0319166001600160a01b03909116178255602090920191600190910190612c1f565b50612c60929150612c64565b5090565b5b80821115612c605760008155600101612c65565b600060208284031215612c8b57600080fd5b81356001600160e01b03198116811461082b57600080fd5b60005b83811015612cbe578181015183820152602001612ca6565b50506000910152565b60008151808452612cdf816020860160208601612ca3565b601f01601f19169290920160200192915050565b60208152600061082b6020830184612cc7565b6001600160a01b0381168114610ad757600080fd5b60008060408385031215612d2e57600080fd5b8235612d3981612d06565b946020939093013593505050565b600060208284031215612d5957600080fd5b813561082b81612d06565b634e487b7160e01b600052604160045260246000fd5b60405160a0810167ffffffffffffffff81118282101715612d9d57612d9d612d64565b60405290565b604051601f8201601f1916810167ffffffffffffffff81118282101715612dcc57612dcc612d64565b604052919050565b60006020808385031215612de757600080fd5b823567ffffffffffffffff80821115612dff57600080fd5b818501915085601f830112612e1357600080fd5b813581811115612e2557612e25612d64565b8060051b9150612e36848301612da3565b8181529183018401918481019088841115612e5057600080fd5b938501935b8385101561299d5784359250612e6a83612d06565b8282529385019390850190612e55565b600080600060608486031215612e8f57600080fd5b8335612e9a81612d06565b92506020840135612eaa81612d06565b929592945050506040919091013590565b600060208284031215612ecd57600080fd5b5035919050565b600082601f830112612ee557600080fd5b612eed612d7a565b8060a0840185811115612eff57600080fd5b845b81811015612f19578035845260209384019301612f01565b509095945050505050565b60008060c08385031215612f3757600080fd5b612f418484612ed4565b915060a0830135612f5181612d06565b809150509250929050565b60008060408385031215612f6f57600080fd5b823591506020830135612f5181612d06565b60008060408385031215612f9457600080fd5b50508035926020909101359150565b60ff60f81b881681526000602060e06020840152612fc460e084018a612cc7565b8381036040850152612fd6818a612cc7565b606085018990526001600160a01b038816608086015260a0850187905284810360c08601528551808252602080880193509091019060005b8181101561302a5783518352928401929184019160010161300e565b50909c9b505050505050505050505050565b600080600060e0848603121561305157600080fd5b833592506130628560208601612ed4565b915060c084013561307281612d06565b809150509250925092565b600080600080600080600060e0888a03121561309857600080fd5b87356130a381612d06565b965060208801356130b381612d06565b95506040880135945060608801359350608088013560ff811681146130d757600080fd5b9699959850939692959460a0840135945060c09093013592915050565b6000806040838503121561310757600080fd5b823561311281612d06565b91506020830135612f5181612d06565b600181811c9082168061313657607f821691505b60208210810361315657634e487b7160e01b600052602260045260246000fd5b50919050565b600060a0828403121561316e57600080fd5b82601f83011261317d57600080fd5b613185612d7a565b8060a084018581111561319757600080fd5b845b81811015612f195780516131ac81612d06565b845260209384019301613199565b634e487b7160e01b600052603260045260246000fd5b634e487b7160e01b600052601160045260246000fd5b80820281158282048414176106bc576106bc6131d0565b60008261321a57634e487b7160e01b600052601260045260246000fd5b500490565b60006020828403121561323157600080fd5b5051919050565b60006020828403121561324a57600080fd5b815161082b81612d06565b818103818111156106bc576106bc6131d0565b8060005b60058110156109e057815184526020938401939091019060010161326c565b83815260e0810161329f6020830185613268565b6001600160a01b039290921660c0919091015292915050565b6020808252825182820181905260009190848201906040850190845b81811015611f6d5783516001600160a01b0316835292840192918401916001016132d4565b600081548084526020808501945083600052602060002060005b838110156133385781546001600160a01b031687529582019560019182019101613313565b509495945050505050565b60208152600061082b60208301846132f9565b6001600160a01b038316815260406020820181905260009061337a908301846132f9565b949350505050565b808201808211156106bc576106bc6131d0565b6000602082840312156133a757600080fd5b8151801515811461082b57600080fd5b8481526020810184905261010081016133d36040830185613268565b6001600160a01b039290921660e091909101529392505050565b634e487b7160e01b600052602160045260246000fd5b60008251613415818460208701612ca3565b919091019291505056fea2646970667358221220454ae9b25784bb887ccd6d329e54591bdb13d6e122b558b85c0a7f664a68c75464736f6c63430008170033",
  "linkReferences": {},
  "deployedLinkReferences": {}
}