{
  "_format": "hh-sol-artifact-1",
  "contractName": "ZunamiPoolControllerZunUSD",
  "sourceName": "contracts/configs/omnipool/ZunamiPoolControllerZunUSD.sol",
  "abi": [
    {
      "inputs": [
        {
          "internalType": "address",
          "name": "pool",
          "type": "address"
        }
      ],
      "stateMutability": "nonpayable",
      "type": "constructor"
    },
    {
      "inputs": [],
      "name": "AccessControlBadConfirmation",
      "type": "error"
    },
    {
      "inputs": [
        {
          "internalType": "address",
          "name": "account",
          "type": "address"
        },
        {
          "internalType": "bytes32",
          "name": "neededRole",
          "type": "bytes32"
        }
      ],
      "name": "AccessControlUnauthorizedAccount",
      "type": "error"
    },
    {
      "inputs": [
        {
          "internalType": "address",
          "name": "target",
          "type": "address"
        }
      ],
      "name": "AddressEmptyCode",
      "type": "error"
    },
    {
      "inputs": [
        {
          "internalType": "address",
          "name": "account",
          "type": "address"
        }
      ],
      "name": "AddressInsufficientBalance",
      "type": "error"
    },
    {
      "inputs": [],
      "name": "EnforcedPause",
      "type": "error"
    },
    {
      "inputs": [],
      "name": "ExpectedPause",
      "type": "error"
    },
    {
      "inputs": [],
      "name": "FailedInnerCall",
      "type": "error"
    },
    {
      "inputs": [],
      "name": "FeeWronglyHigh",
      "type": "error"
    },
    {
      "inputs": [],
      "name": "OnlyIssuer",
      "type": "error"
    },
    {
      "inputs": [],
      "name": "ReentrancyGuardReentrantCall",
      "type": "error"
    },
    {
      "inputs": [
        {
          "internalType": "address",
          "name": "token",
          "type": "address"
        }
      ],
      "name": "SafeERC20FailedOperation",
      "type": "error"
    },
    {
      "inputs": [
        {
          "internalType": "contract IERC20[]",
          "name": "rewardTokens",
          "type": "address[]"
        }
      ],
      "name": "WrongRewardTokens",
      "type": "error"
    },
    {
      "inputs": [],
      "name": "WrongSid",
      "type": "error"
    },
    {
      "inputs": [],
      "name": "ZeroAddress",
      "type": "error"
    },
    {
      "inputs": [],
      "name": "ZeroRewardManager",
      "type": "error"
    },
    {
      "inputs": [
        {
          "internalType": "uint256",
          "name": "index",
          "type": "uint256"
        }
      ],
      "name": "ZeroTokenAddress",
      "type": "error"
    },
    {
      "anonymous": false,
      "inputs": [
        {
          "indexed": false,
          "internalType": "address",
          "name": "feeDistributor",
          "type": "address"
        }
      ],
      "name": "FeeDistributorChanged",
      "type": "event"
    },
    {
      "anonymous": false,
      "inputs": [
        {
          "indexed": false,
          "internalType": "address",
          "name": "account",
          "type": "address"
        }
      ],
      "name": "Paused",
      "type": "event"
    },
    {
      "anonymous": false,
      "inputs": [
        {
          "indexed": false,
          "internalType": "address",
          "name": "oldRewardCollector",
          "type": "address"
        },
        {
          "indexed": false,
          "internalType": "address",
          "name": "newRewardCollector",
          "type": "address"
        }
      ],
      "name": "RewardCollectorChanged",
      "type": "event"
    },
    {
      "anonymous": false,
      "inputs": [
        {
          "indexed": true,
          "internalType": "bytes32",
          "name": "role",
          "type": "bytes32"
        },
        {
          "indexed": true,
          "internalType": "bytes32",
          "name": "previousAdminRole",
          "type": "bytes32"
        },
        {
          "indexed": true,
          "internalType": "bytes32",
          "name": "newAdminRole",
          "type": "bytes32"
        }
      ],
      "name": "RoleAdminChanged",
      "type": "event"
    },
    {
      "anonymous": false,
      "inputs": [
        {
          "indexed": true,
          "internalType": "bytes32",
          "name": "role",
          "type": "bytes32"
        },
        {
          "indexed": true,
          "internalType": "address",
          "name": "account",
          "type": "address"
        },
        {
          "indexed": true,
          "internalType": "address",
          "name": "sender",
          "type": "address"
        }
      ],
      "name": "RoleGranted",
      "type": "event"
    },
    {
      "anonymous": false,
      "inputs": [
        {
          "indexed": true,
          "internalType": "bytes32",
          "name": "role",
          "type": "bytes32"
        },
        {
          "indexed": true,
          "internalType": "address",
          "name": "account",
          "type": "address"
        },
        {
          "indexed": true,
          "internalType": "address",
          "name": "sender",
          "type": "address"
        }
      ],
      "name": "RoleRevoked",
      "type": "event"
    },
    {
      "anonymous": false,
      "inputs": [
        {
          "indexed": false,
          "internalType": "uint256",
          "name": "sid",
          "type": "uint256"
        }
      ],
      "name": "SetDefaultDepositSid",
      "type": "event"
    },
    {
      "anonymous": false,
      "inputs": [
        {
          "indexed": false,
          "internalType": "uint256",
          "name": "sid",
          "type": "uint256"
        }
      ],
      "name": "SetDefaultWithdrawSid",
      "type": "event"
    },
    {
      "anonymous": false,
      "inputs": [
        {
          "indexed": false,
          "internalType": "bool",
          "name": "onlyIssuerMode",
          "type": "bool"
        }
      ],
      "name": "SetOnlyIssuerMode",
      "type": "event"
    },
    {
      "anonymous": false,
      "inputs": [
        {
          "indexed": false,
          "internalType": "contract IERC20[]",
          "name": "rewardTokens",
          "type": "address[]"
        }
      ],
      "name": "SetRewardTokens",
      "type": "event"
    },
    {
      "anonymous": false,
      "inputs": [
        {
          "indexed": false,
          "internalType": "address",
          "name": "account",
          "type": "address"
        }
      ],
      "name": "Unpaused",
      "type": "event"
    },
    {
      "anonymous": false,
      "inputs": [
        {
          "indexed": false,
          "internalType": "uint256",
          "name": "withdrawFee",
          "type": "uint256"
        }
      ],
      "name": "WithdrawFeeChanged",
      "type": "event"
    },
    {
      "inputs": [],
      "name": "DEFAULT_ADMIN_ROLE",
      "outputs": [
        {
          "internalType": "bytes32",
          "name": "",
          "type": "bytes32"
        }
      ],
      "stateMutability": "view",
      "type": "function"
    },
    {
      "inputs": [],
      "name": "FEE_DENOMINATOR",
      "outputs": [
        {
          "internalType": "uint256",
          "name": "",
          "type": "uint256"
        }
      ],
      "stateMutability": "view",
      "type": "function"
    },
    {
      "inputs": [],
      "name": "ISSUER_ROLE",
      "outputs": [
        {
          "internalType": "bytes32",
          "name": "",
          "type": "bytes32"
        }
      ],
      "stateMutability": "view",
      "type": "function"
    },
    {
      "inputs": [],
      "name": "MAX_FEE",
      "outputs": [
        {
          "internalType": "uint256",
          "name": "",
          "type": "uint256"
        }
      ],
      "stateMutability": "view",
      "type": "function"
    },
    {
      "inputs": [],
      "name": "POOL_ASSETS",
      "outputs": [
        {
          "internalType": "uint8",
          "name": "",
          "type": "uint8"
        }
      ],
      "stateMutability": "view",
      "type": "function"
    },
    {
      "inputs": [
        {
          "internalType": "address",
          "name": "feeDistributor_",
          "type": "address"
        }
      ],
      "name": "changeFeeDistributor",
      "outputs": [],
      "stateMutability": "nonpayable",
      "type": "function"
    },
    {
      "inputs": [
        {
          "internalType": "address",
          "name": "_rewardCollector",
          "type": "address"
        }
      ],
      "name": "changeRewardCollector",
      "outputs": [],
      "stateMutability": "nonpayable",
      "type": "function"
    },
    {
      "inputs": [
        {
          "internalType": "uint256",
          "name": "withdrawFee_",
          "type": "uint256"
        }
      ],
      "name": "changeWithdrawFee",
      "outputs": [],
      "stateMutability": "nonpayable",
      "type": "function"
    },
    {
      "inputs": [],
      "name": "claimRewards",
      "outputs": [],
      "stateMutability": "nonpayable",
      "type": "function"
    },
    {
      "inputs": [],
      "name": "defaultDepositSid",
      "outputs": [
        {
          "internalType": "uint256",
          "name": "",
          "type": "uint256"
        }
      ],
      "stateMutability": "view",
      "type": "function"
    },
    {
      "inputs": [],
      "name": "defaultWithdrawSid",
      "outputs": [
        {
          "internalType": "uint256",
          "name": "",
          "type": "uint256"
        }
      ],
      "stateMutability": "view",
      "type": "function"
    },
    {
      "inputs": [
        {
          "internalType": "uint256[5]",
          "name": "amounts",
          "type": "uint256[5]"
        },
        {
          "internalType": "address",
          "name": "receiver",
          "type": "address"
        }
      ],
      "name": "deposit",
      "outputs": [
        {
          "internalType": "uint256",
          "name": "shares",
          "type": "uint256"
        }
      ],
      "stateMutability": "nonpayable",
      "type": "function"
    },
    {
      "inputs": [],
      "name": "feeDistributor",
      "outputs": [
        {
          "internalType": "address",
          "name": "",
          "type": "address"
        }
      ],
      "stateMutability": "view",
      "type": "function"
    },
    {
      "inputs": [
        {
          "internalType": "bytes32",
          "name": "role",
          "type": "bytes32"
        }
      ],
      "name": "getRoleAdmin",
      "outputs": [
        {
          "internalType": "bytes32",
          "name": "",
          "type": "bytes32"
        }
      ],
      "stateMutability": "view",
      "type": "function"
    },
    {
      "inputs": [
        {
          "internalType": "bytes32",
          "name": "role",
          "type": "bytes32"
        },
        {
          "internalType": "address",
          "name": "account",
          "type": "address"
        }
      ],
      "name": "grantRole",
      "outputs": [],
      "stateMutability": "nonpayable",
      "type": "function"
    },
    {
      "inputs": [
        {
          "internalType": "bytes32",
          "name": "role",
          "type": "bytes32"
        },
        {
          "internalType": "address",
          "name": "account",
          "type": "address"
        }
      ],
      "name": "hasRole",
      "outputs": [
        {
          "internalType": "bool",
          "name": "",
          "type": "bool"
        }
      ],
      "stateMutability": "view",
      "type": "function"
    },
    {
      "inputs": [],
      "name": "onlyIssuerMode",
      "outputs": [
        {
          "internalType": "bool",
          "name": "",
          "type": "bool"
        }
      ],
      "stateMutability": "view",
      "type": "function"
    },
    {
      "inputs": [],
      "name": "pause",
      "outputs": [],
      "stateMutability": "nonpayable",
      "type": "function"
    },
    {
      "inputs": [],
      "name": "paused",
      "outputs": [
        {
          "internalType": "bool",
          "name": "",
          "type": "bool"
        }
      ],
      "stateMutability": "view",
      "type": "function"
    },
    {
      "inputs": [],
      "name": "pool",
      "outputs": [
        {
          "internalType": "contract IPool",
          "name": "",
          "type": "address"
        }
      ],
      "stateMutability": "view",
      "type": "function"
    },
    {
      "inputs": [
        {
          "internalType": "bytes32",
          "name": "role",
          "type": "bytes32"
        },
        {
          "internalType": "address",
          "name": "callerConfirmation",
          "type": "address"
        }
      ],
      "name": "renounceRole",
      "outputs": [],
      "stateMutability": "nonpayable",
      "type": "function"
    },
    {
      "inputs": [
        {
          "internalType": "bytes32",
          "name": "role",
          "type": "bytes32"
        },
        {
          "internalType": "address",
          "name": "account",
          "type": "address"
        }
      ],
      "name": "revokeRole",
      "outputs": [],
      "stateMutability": "nonpayable",
      "type": "function"
    },
    {
      "inputs": [],
      "name": "rewardCollector",
      "outputs": [
        {
          "internalType": "address",
          "name": "",
          "type": "address"
        }
      ],
      "stateMutability": "view",
      "type": "function"
    },
    {
      "inputs": [
        {
          "internalType": "uint256",
          "name": "",
          "type": "uint256"
        }
      ],
      "name": "rewardTokens",
      "outputs": [
        {
          "internalType": "contract IERC20",
          "name": "",
          "type": "address"
        }
      ],
      "stateMutability": "view",
      "type": "function"
    },
    {
      "inputs": [
        {
          "internalType": "uint256",
          "name": "_newPoolId",
          "type": "uint256"
        }
      ],
      "name": "setDefaultDepositSid",
      "outputs": [],
      "stateMutability": "nonpayable",
      "type": "function"
    },
    {
      "inputs": [
        {
          "internalType": "uint256",
          "name": "_newPoolId",
          "type": "uint256"
        }
      ],
      "name": "setDefaultWithdrawSid",
      "outputs": [],
      "stateMutability": "nonpayable",
      "type": "function"
    },
    {
      "inputs": [
        {
          "internalType": "bool",
          "name": "_onlyIssuerMode",
          "type": "bool"
        }
      ],
      "name": "setOnlyIssuerMode",
      "outputs": [],
      "stateMutability": "nonpayable",
      "type": "function"
    },
    {
      "inputs": [
        {
          "internalType": "contract IERC20[]",
          "name": "rewardTokens_",
          "type": "address[]"
        }
      ],
      "name": "setRewardTokens",
      "outputs": [],
      "stateMutability": "nonpayable",
      "type": "function"
    },
    {
      "inputs": [
        {
          "internalType": "bytes4",
          "name": "interfaceId",
          "type": "bytes4"
        }
      ],
      "name": "supportsInterface",
      "outputs": [
        {
          "internalType": "bool",
          "name": "",
          "type": "bool"
        }
      ],
      "stateMutability": "view",
      "type": "function"
    },
    {
      "inputs": [],
      "name": "unpause",
      "outputs": [],
      "stateMutability": "nonpayable",
      "type": "function"
    },
    {
      "inputs": [
        {
          "internalType": "uint256",
          "name": "shares",
          "type": "uint256"
        },
        {
          "internalType": "uint256[5]",
          "name": "minTokenAmounts",
          "type": "uint256[5]"
        },
        {
          "internalType": "address",
          "name": "receiver",
          "type": "address"
        }
      ],
      "name": "withdraw",
      "outputs": [],
      "stateMutability": "nonpayable",
      "type": "function"
    },
    {
      "inputs": [],
      "name": "withdrawFee",
      "outputs": [
        {
          "internalType": "uint256",
          "name": "",
          "type": "uint256"
        }
      ],
      "stateMutability": "view",
      "type": "function"
    }
  ],
  "bytecode": "0x60a06040526006805460ff60a01b191690553480156200001e57600080fd5b5060405162001b6438038062001b6483398101604081905262000041916200014a565b6000805460ff1916905560016002558080806001600160a01b0381166200007b5760405163d92e233d60e01b815260040160405180910390fd5b6001600160a01b03811660805262000095600033620000b3565b5050600680546001600160a01b03191633179055506200017c915050565b60008281526001602090815260408083206001600160a01b038516845290915281205460ff16620001405760008381526001602081815260408084206001600160a01b0387168086529252808420805460ff19169093179092559051339286917f2f8788117e7eff1d82e926ec794901d17c78024a50270940304540a733656f0d9190a450600162000144565b5060005b92915050565b6000602082840312156200015d57600080fd5b81516001600160a01b03811681146200017557600080fd5b9392505050565b60805161198d620001d760003960008181610261015281816104e5015281816105c7015281816106fe015281816107e701528181610e6b01528181610f7401528181610fda015281816110d5015261121e015261198d6000f3fe608060405234801561001057600080fd5b50600436106101f05760003560e01c80637bb7bed11161010f578063a893c9be116100a2578063d547741f11610071578063d547741f14610435578063d73792a914610448578063e941fa7814610452578063f12b59c91461045b57600080fd5b8063a893c9be146103f3578063afffd5b714610406578063bc063e1a14610419578063ca54be3b1461042257600080fd5b806391d14854116100de57806391d14854146103bc57806396d53eb8146103cf57806399ec9246146103e2578063a217fddf146103eb57600080fd5b80637bb7bed1146103675780637ceaf92f1461037a57806382aefa241461038d5780638456cb59146103b457600080fd5b806336568abe1161018757806352d0b7681161015657806352d0b7681461031c5780635c975abb1461032f578063686f6b511461033a57806375451b4f1461034d57600080fd5b806336568abe146102f0578063372500ab146103035780633a8051ac1461030b5780633f4ba83a1461031457600080fd5b8063201e81a8116101c3578063201e81a814610283578063248a9ca3146102985780632d62af2f146102ca5780632f2ff15d146102dd57600080fd5b806301ffc9a7146101f55780630cca87491461021d5780630d43e8ad1461023157806316f0115b1461025c575b600080fd5b610208610203366004611410565b61046e565b60405190151581526020015b60405180910390f35b60065461020890600160a01b900460ff1681565b600854610244906001600160a01b031681565b6040516001600160a01b039091168152602001610214565b6102447f000000000000000000000000000000000000000000000000000000000000000081565b6102966102913660046114bf565b6104a5565b005b6102bc6102a6366004611571565b6000908152600160208190526040909120015490565b604051908152602001610214565b6102bc6102d83660046115da565b6104bd565b6102966102eb366004611612565b610646565b6102966102fe366004611612565b610672565b6102966106aa565b6102bc60055481565b6102966106db565b61029661032a366004611571565b6106f1565b60005460ff16610208565b610296610348366004611571565b6107da565b610355600581565b60405160ff9091168152602001610214565b610244610375366004611571565b6108bb565b610296610388366004611645565b6108e5565b6102bc7f114e74f6ea3bd819998f78687bfcb11b140da08e9b7d222fa9c1f1ba1f2aa12281565b610296610945565b6102086103ca366004611612565b610958565b6102966103dd366004611662565b610983565b6102bc60045481565b6102bc600081565b610296610401366004611571565b610a1f565b600654610244906001600160a01b031681565b6102bc61c35081565b61029661043036600461167f565b610a82565b610296610443366004611612565b610ab9565b6102bc620f424081565b6102bc60075481565b610296610469366004611662565b610adf565b60006001600160e01b03198216637965db0b60e01b148061049f57506301ffc9a760e01b6001600160e01b03198316145b92915050565b60006104b081610b5f565b6104b982610b69565b5050565b60006104c7610c49565b6104cf610c6d565b6001600160a01b0382166104e1573391505b60007f00000000000000000000000000000000000000000000000000000000000000006001600160a01b0316639d63848a6040518163ffffffff1660e01b815260040160a060405180830381865afa158015610541573d6000803e3d6000fd5b505050506040513d601f19601f8201168201806040525081019061056591906116c0565b905060005b600581101561062e5760008282600581106105875761058761171e565b602002015190506001600160a01b038116158015906105bc575060008683600581106105b5576105b561171e565b6020020151115b1561062557610625337f00000000000000000000000000000000000000000000000000000000000000008885600581106105f8576105f861171e565b602002015186866005811061060f5761060f61171e565b60200201516001600160a01b0316929190610c95565b5060010161056a565b506106398484610cfc565b91505061049f6001600255565b6000828152600160208190526040909120015461066281610b5f565b61066c8383610d6e565b50505050565b6001600160a01b038116331461069b5760405163334bd91960e11b815260040160405180910390fd5b6106a58282610de7565b505050565b6106b2610c49565b6106ba610c6d565b6006546106cf906001600160a01b0316610e54565b6106d96001600255565b565b60006106e681610b5f565b6106ee610ed8565b50565b60006106fc81610b5f565b7f00000000000000000000000000000000000000000000000000000000000000006001600160a01b03166322068b446040518163ffffffff1660e01b8152600401602060405180830381865afa15801561075a573d6000803e3d6000fd5b505050506040513d601f19601f8201168201806040525081019061077e9190611734565b821061079d57604051634dd76a3360e01b815260040160405180910390fd5b60058290556040518281527f1263b39fe165b48c204de3a3d752e6c7a129670cbe325757bdf76562664ef8d1906020015b60405180910390a15050565b60006107e581610b5f565b7f00000000000000000000000000000000000000000000000000000000000000006001600160a01b03166322068b446040518163ffffffff1660e01b8152600401602060405180830381865afa158015610843573d6000803e3d6000fd5b505050506040513d601f19601f820116820180604052508101906108679190611734565b821061088657604051634dd76a3360e01b815260040160405180910390fd5b60048290556040518281527fdefccea87e6a6ac5c177a3e0318456cf032572ae03a96d9f44c4664a92999aef906020016107ce565b600381815481106108cb57600080fd5b6000918252602090912001546001600160a01b0316905081565b60006108f081610b5f565b6006805460ff60a01b1916600160a01b8415158102919091179182905560405160ff9190920416151581527fa3a2d1c4db55b0d5a8a9528000a005a3a576034e16abc47815aecff96fa3d903906020016107ce565b600061095081610b5f565b6106ee610f2a565b60009182526001602090815260408084206001600160a01b0393909316845291905290205460ff1690565b600061098e81610b5f565b6001600160a01b0382166109b55760405163d92e233d60e01b815260040160405180910390fd5b600654604080516001600160a01b03928316815291841660208301527f83ebbd31e22910c696bcf3b247e11e635c0204f0c6dc527dae30aa58a076af13910160405180910390a150600680546001600160a01b0319166001600160a01b0392909216919091179055565b6000610a2a81610b5f565b61c350821115610a4d5760405163185da2c160e01b815260040160405180910390fd5b60078290556040518281527fef51b055f1ac1490e0c230364c65b0a9eca534656954023b56053b78461678e4906020016107ce565b610a8a610c49565b610a92610c6d565b6001600160a01b038116610aa35750335b610aaf33848484610f67565b6106a56001600255565b60008281526001602081905260409091200154610ad581610b5f565b61066c8383610de7565b6000610aea81610b5f565b6001600160a01b038216610b115760405163d92e233d60e01b815260040160405180910390fd5b600880546001600160a01b0319166001600160a01b0384169081179091556040519081527fae5a12c29e496b092467a620746b9eaf4e0e231a631a4370c233b1fac38e8e26906020016107ce565b6106ee813361101b565b8051600003610b965780604051630362609760e51b8152600401610b8d919061174d565b60405180910390fd5b60005b8151811015610bf95760006001600160a01b0316828281518110610bbf57610bbf61171e565b60200260200101516001600160a01b031603610bf15760405163af7bbf6960e01b815260048101829052602401610b8d565b600101610b99565b508051610c0d906003906020840190611396565b507f69be44b81d4f8b6cf7825a37f020b264079658f3d72856eeb0a0efed09c7d3926003604051610c3e91906117e4565b60405180910390a150565b60005460ff16156106d95760405163d93c066560e01b815260040160405180910390fd5b6002805403610c8f57604051633ee5aeb560e01b815260040160405180910390fd5b60028055565b6040516001600160a01b03848116602483015283811660448301526064820183905261066c9186918216906323b872dd906084015b604051602081830303815290604052915060e01b6020820180516001600160e01b038381831617835250505050611054565b600654600090600160a01b900460ff168015610d3f5750610d3d7f114e74f6ea3bd819998f78687bfcb11b140da08e9b7d222fa9c1f1ba1f2aa12233610958565b155b15610d5d576040516355b51ef160e01b815260040160405180910390fd5b610d6783836110b7565b9392505050565b6000610d7a8383610958565b610ddf5760008381526001602081815260408084206001600160a01b0387168086529252808420805460ff19169093179092559051339286917f2f8788117e7eff1d82e926ec794901d17c78024a50270940304540a733656f0d9190a450600161049f565b50600061049f565b6000610df38383610958565b15610ddf5760008381526001602090815260408083206001600160a01b0386168085529252808320805460ff1916905551339286917ff6391f5c32d9c69d2a47ea670b442974b53935d1edc7fd64eb21e047a839171b9190a450600161049f565b604051632026ffa360e01b81526001600160a01b037f00000000000000000000000000000000000000000000000000000000000000001690632026ffa390610ea39084906003906004016117f7565b600060405180830381600087803b158015610ebd57600080fd5b505af1158015610ed1573d6000803e3d6000fd5b5050505050565b610ee061114d565b6000805460ff191690557f5db9ee0a495bf2e6ff9c91a7834c1ba4fdd244a5e8aa4e537bd38aeae4b073aa335b6040516001600160a01b03909116815260200160405180910390a1565b610f32610c49565b6000805460ff191660011790557f62e78cea01bee320cd4e420270b5ea74000d11b0c9f74754ebdbfc544b05a258610f0d3390565b610f9c6001600160a01b037f000000000000000000000000000000000000000000000000000000000000000016853086610c95565b6000610fa83385611170565b9050600081118015610fc457506008546001600160a01b031615155b1561101057600854611003906001600160a01b037f000000000000000000000000000000000000000000000000000000000000000081169116836111d3565b61100d8185611839565b93505b610ed1848484611204565b6110258282610958565b6104b95760405163e2517d3f60e01b81526001600160a01b038216600482015260248101839052604401610b8d565b60006110696001600160a01b0384168361128f565b9050805160001415801561108e57508080602001905181019061108c919061184c565b155b156106a557604051635274afe760e01b81526001600160a01b0384166004820152602401610b8d565b60048054604051636766ea0f60e01b81526000926001600160a01b037f00000000000000000000000000000000000000000000000000000000000000001692636766ea0f9261110a92889188910161188c565b6020604051808303816000875af1158015611129573d6000803e3d6000fd5b505050506040513d601f19601f82011682018060405250810190610d679190611734565b60005460ff166106d957604051638dfc202b60e01b815260040160405180910390fd5b60075460009080158015906111ac57506111aa7f114e74f6ea3bd819998f78687bfcb11b140da08e9b7d222fa9c1f1ba1f2aa12285610958565b155b156111cc57620f42406111bf82856118b9565b6111c991906118d0565b91505b5092915050565b6040516001600160a01b038381166024830152604482018390526106a591859182169063a9059cbb90606401610cca565b600554604051632d526f8f60e21b81526001600160a01b037f0000000000000000000000000000000000000000000000000000000000000000169163b549be3c9161125891908790879087906004016118f2565b600060405180830381600087803b15801561127257600080fd5b505af1158015611286573d6000803e3d6000fd5b50505050505050565b6060610d678383600084600080856001600160a01b031684866040516112b59190611928565b60006040518083038185875af1925050503d80600081146112f2576040519150601f19603f3d011682016040523d82523d6000602084013e6112f7565b606091505b5091509150611307868383611311565b9695505050505050565b606082611326576113218261136d565b610d67565b815115801561133d57506001600160a01b0384163b155b1561136657604051639996b31560e01b81526001600160a01b0385166004820152602401610b8d565b5080610d67565b80511561137d5780518082602001fd5b604051630a12f52160e11b815260040160405180910390fd5b8280548282559060005260206000209081019282156113eb579160200282015b828111156113eb57825182546001600160a01b0319166001600160a01b039091161782556020909201916001909101906113b6565b506113f79291506113fb565b5090565b5b808211156113f757600081556001016113fc565b60006020828403121561142257600080fd5b81356001600160e01b031981168114610d6757600080fd5b634e487b7160e01b600052604160045260246000fd5b60405160a0810167ffffffffffffffff811182821017156114735761147361143a565b60405290565b604051601f8201601f1916810167ffffffffffffffff811182821017156114a2576114a261143a565b604052919050565b6001600160a01b03811681146106ee57600080fd5b600060208083850312156114d257600080fd5b823567ffffffffffffffff808211156114ea57600080fd5b818501915085601f8301126114fe57600080fd5b8135818111156115105761151061143a565b8060051b9150611521848301611479565b818152918301840191848101908884111561153b57600080fd5b938501935b838510156115655784359250611555836114aa565b8282529385019390850190611540565b98975050505050505050565b60006020828403121561158357600080fd5b5035919050565b600082601f83011261159b57600080fd5b6115a3611450565b8060a08401858111156115b557600080fd5b845b818110156115cf5780358452602093840193016115b7565b509095945050505050565b60008060c083850312156115ed57600080fd5b6115f7848461158a565b915060a0830135611607816114aa565b809150509250929050565b6000806040838503121561162557600080fd5b823591506020830135611607816114aa565b80151581146106ee57600080fd5b60006020828403121561165757600080fd5b8135610d6781611637565b60006020828403121561167457600080fd5b8135610d67816114aa565b600080600060e0848603121561169457600080fd5b833592506116a5856020860161158a565b915060c08401356116b5816114aa565b809150509250925092565b600060a082840312156116d257600080fd5b82601f8301126116e157600080fd5b6116e9611450565b8060a08401858111156116fb57600080fd5b845b818110156115cf578051611710816114aa565b8452602093840193016116fd565b634e487b7160e01b600052603260045260246000fd5b60006020828403121561174657600080fd5b5051919050565b6020808252825182820181905260009190848201906040850190845b8181101561178e5783516001600160a01b031683529284019291840191600101611769565b50909695505050505050565b600081548084526020808501945083600052602060002060005b838110156117d95781546001600160a01b0316875295820195600191820191016117b4565b509495945050505050565b602081526000610d67602083018461179a565b6001600160a01b038316815260406020820181905260009061181b9083018461179a565b949350505050565b634e487b7160e01b600052601160045260246000fd5b8181038181111561049f5761049f611823565b60006020828403121561185e57600080fd5b8151610d6781611637565b8060005b600581101561066c57815184526020938401939091019060010161186d565b83815260e081016118a06020830185611869565b6001600160a01b039290921660c0919091015292915050565b808202811582820484141761049f5761049f611823565b6000826118ed57634e487b7160e01b600052601260045260246000fd5b500490565b84815260208101849052610100810161190e6040830185611869565b6001600160a01b039290921660e091909101529392505050565b6000825160005b81811015611949576020818601810151858301520161192f565b50600092019182525091905056fea2646970667358221220fcc070161dc0cd7947dedced3db01ca730304e9196c191856586eb9700c6404064736f6c63430008170033",
  "linkReferences": {},
  "deployedLinkReferences": {}
}