{
  "_format": "hh-sol-artifact-1",
  "contractName": "ZunamiDepositEthZap2",
  "sourceName": "contracts/utils/ZunamiDepositEthZap2.sol",
  "abi": [
    {
      "inputs": [
        {
          "internalType": "address",
          "name": "zunamiPoolAddr",
          "type": "address"
        },
        {
          "internalType": "address",
          "name": "apsControllerAddr",
          "type": "address"
        },
        {
          "internalType": "address",
          "name": "tokenConverterAddr",
          "type": "address"
        }
      ],
      "stateMutability": "nonpayable",
      "type": "constructor"
    },
    {
      "inputs": [
        {
          "internalType": "address",
          "name": "target",
          "type": "address"
        }
      ],
      "name": "AddressEmptyCode",
      "type": "error"
    },
    {
      "inputs": [
        {
          "internalType": "address",
          "name": "account",
          "type": "address"
        }
      ],
      "name": "AddressInsufficientBalance",
      "type": "error"
    },
    {
      "inputs": [],
      "name": "FailedInnerCall",
      "type": "error"
    },
    {
      "inputs": [],
      "name": "ReentrancyGuardReentrantCall",
      "type": "error"
    },
    {
      "inputs": [
        {
          "internalType": "address",
          "name": "token",
          "type": "address"
        }
      ],
      "name": "SafeERC20FailedOperation",
      "type": "error"
    },
    {
      "inputs": [],
      "name": "SameAddress",
      "type": "error"
    },
    {
      "inputs": [],
      "name": "ZeroAddress",
      "type": "error"
    },
    {
      "inputs": [],
      "name": "MIN_AMOUNT",
      "outputs": [
        {
          "internalType": "uint256",
          "name": "",
          "type": "uint256"
        }
      ],
      "stateMutability": "view",
      "type": "function"
    },
    {
      "inputs": [],
      "name": "MIN_AMOUNT_DENOMINATOR",
      "outputs": [
        {
          "internalType": "uint256",
          "name": "",
          "type": "uint256"
        }
      ],
      "stateMutability": "view",
      "type": "function"
    },
    {
      "inputs": [],
      "name": "POOL_ASSETS",
      "outputs": [
        {
          "internalType": "uint8",
          "name": "",
          "type": "uint8"
        }
      ],
      "stateMutability": "view",
      "type": "function"
    },
    {
      "inputs": [],
      "name": "apsController",
      "outputs": [
        {
          "internalType": "contract IPoolController",
          "name": "",
          "type": "address"
        }
      ],
      "stateMutability": "view",
      "type": "function"
    },
    {
      "inputs": [],
      "name": "converter",
      "outputs": [
        {
          "internalType": "contract ITokenConverter",
          "name": "",
          "type": "address"
        }
      ],
      "stateMutability": "view",
      "type": "function"
    },
    {
      "inputs": [
        {
          "internalType": "uint256[5]",
          "name": "amounts",
          "type": "uint256[5]"
        },
        {
          "internalType": "address",
          "name": "receiver",
          "type": "address"
        }
      ],
      "name": "deposit",
      "outputs": [
        {
          "internalType": "uint256",
          "name": "shares",
          "type": "uint256"
        }
      ],
      "stateMutability": "payable",
      "type": "function"
    },
    {
      "inputs": [],
      "name": "weth",
      "outputs": [
        {
          "internalType": "contract IWETH",
          "name": "",
          "type": "address"
        }
      ],
      "stateMutability": "view",
      "type": "function"
    },
    {
      "inputs": [],
      "name": "zunamiPool",
      "outputs": [
        {
          "internalType": "contract IPool",
          "name": "",
          "type": "address"
        }
      ],
      "stateMutability": "view",
      "type": "function"
    }
  ],
  "bytecode": "0x60e060405234801561001057600080fd5b50604051610fa8380380610fa883398101604081905261002f916100ba565b60016000556001600160a01b038316158061005157506001600160a01b038216155b8061006357506001600160a01b038116155b156100815760405163d92e233d60e01b815260040160405180910390fd5b6001600160a01b0392831660805290821660a0521660c0526100fd565b80516001600160a01b03811681146100b557600080fd5b919050565b6000806000606084860312156100cf57600080fd5b6100d88461009e565b92506100e66020850161009e565b91506100f46040850161009e565b90509250925092565b60805160a05160c051610e3e61016a6000396000818161019d0152818161044b015261047a0152600081816101690152818161062e01526106550152600081816092015281816101f50152818161027b015281816104a20152818161058a015261060c0152610e3e6000f3fe60806040526004361061007b5760003560e01c806375451b4f1161004e57806375451b4f146101305780638b03244614610157578063bd38837b1461018b578063ddbcb5fa146101bf57600080fd5b8063213c79d8146100805780632d62af2f146100d15780633fc8cef3146100f25780635528ad4f1461011a575b600080fd5b34801561008c57600080fd5b506100b47f000000000000000000000000000000000000000000000000000000000000000081565b6040516001600160a01b0390911681526020015b60405180910390f35b6100e46100df366004610ba1565b6101d5565b6040519081526020016100c8565b3480156100fe57600080fd5b506100b473c02aaa39b223fe8d0a0e5c4f27ead9083c756cc281565b34801561012657600080fd5b506100e461271081565b34801561013c57600080fd5b50610145600581565b60405160ff90911681526020016100c8565b34801561016357600080fd5b506100b47f000000000000000000000000000000000000000000000000000000000000000081565b34801561019757600080fd5b506100b47f000000000000000000000000000000000000000000000000000000000000000081565b3480156101cb57600080fd5b506100e46126de81565b60006101df610724565b6001600160a01b0382166101f1573391505b60007f00000000000000000000000000000000000000000000000000000000000000006001600160a01b0316639d63848a6040518163ffffffff1660e01b815260040160a060405180830381865afa158015610251573d6000803e3d6000fd5b505050506040513d601f19601f820116820180604052508101906102759190610c12565b905060007f00000000000000000000000000000000000000000000000000000000000000006001600160a01b031663f46a30206040518163ffffffff1660e01b815260040160a060405180830381865afa1580156102d7573d6000803e3d6000fd5b505050506040513d601f19601f820116820180604052508101906102fb9190610c7b565b90503480156103955773c02aaa39b223fe8d0a0e5c4f27ead9083c756cc26001600160a01b031663d0e30db0826040518263ffffffff1660e01b81526004016000604051808303818588803b15801561035357600080fd5b505af1158015610367573d6000803e3d6000fd5b5050505050808660006005811061038057610380610cd0565b602002018181516103919190610cfc565b9052505b60005b60058110156105715760008782600581106103b5576103b5610cd0565b60200201519050806000036103ca5750610569565b60008583600581106103de576103de610cd0565b6020020151905060008584600581106103f9576103f9610cd0565b602002015190506001600160a01b038216156105655761043c33308615610420578561042a565b61042a8887610d0f565b6001600160a01b03861692919061074e565b6104706001600160a01b0383167f0000000000000000000000000000000000000000000000000000000000000000856107bb565b6001600160a01b037f000000000000000000000000000000000000000000000000000000000000000016631a378db7837f0000000000000000000000000000000000000000000000000000000000000000866127106126de6104d28884610d22565b6104dc9190610d22565b6104e69190610d39565b6040516001600160e01b031960e087901b1681526001600160a01b039485166004820152939092166024840152604483015260648201526084016020604051808303816000875af115801561053f573d6000803e3d6000fd5b505050506040513d601f19601f820116820180604052508101906105639190610d5b565b505b5050505b600101610398565b506040516370a0823160e01b81523060048201526000907f00000000000000000000000000000000000000000000000000000000000000006001600160a01b0316906370a0823190602401602060405180830381865afa1580156105d9573d6000803e3d6000fd5b505050506040513d601f19601f820116820180604052508101906105fd9190610d5b565b90506106536001600160a01b037f0000000000000000000000000000000000000000000000000000000000000000167f0000000000000000000000000000000000000000000000000000000000000000836107f1565b7f00000000000000000000000000000000000000000000000000000000000000006001600160a01b0316632d62af2f6040518060a001604052808481526020016000815260200160008152602001600081526020016000815250886040518363ffffffff1660e01b81526004016106cb929190610d74565b6020604051808303816000875af11580156106ea573d6000803e3d6000fd5b505050506040513d601f19601f8201168201806040525081019061070e9190610d5b565b94505050505061071e6001600055565b92915050565b60026000540361074757604051633ee5aeb560e01b815260040160405180910390fd5b6002600055565b6040516001600160a01b0384811660248301528381166044830152606482018390526107b59186918216906323b872dd906084015b604051602081830303815290604052915060e01b6020820180516001600160e01b03838183161783525050505061087b565b50505050565b6040516001600160a01b038381166024830152604482018390526107ec91859182169063a9059cbb90606401610783565b505050565b604051636eb1769f60e11b81523060048201526001600160a01b0383811660248301526000919085169063dd62ed3e90604401602060405180830381865afa158015610841573d6000803e3d6000fd5b505050506040513d601f19601f820116820180604052508101906108659190610d5b565b90506107b584846108768585610cfc565b6108e3565b60006108906001600160a01b03841683610973565b905080516000141580156108b55750808060200190518101906108b39190610db7565b155b156107ec57604051635274afe760e01b81526001600160a01b03841660048201526024015b60405180910390fd5b604080516001600160a01b038416602482015260448082018490528251808303909101815260649091019091526020810180516001600160e01b031663095ea7b360e01b1790526109348482610988565b6107b5576040516001600160a01b0384811660248301526000604483015261096991869182169063095ea7b390606401610783565b6107b5848261087b565b606061098183836000610a30565b9392505050565b6000806000846001600160a01b0316846040516109a59190610dd9565b6000604051808303816000865af19150503d80600081146109e2576040519150601f19603f3d011682016040523d82523d6000602084013e6109e7565b606091505b5091509150818015610a11575080511580610a11575080806020019051810190610a119190610db7565b8015610a2757506000856001600160a01b03163b115b95945050505050565b606081471015610a555760405163cd78605960e01b81523060048201526024016108da565b600080856001600160a01b03168486604051610a719190610dd9565b60006040518083038185875af1925050503d8060008114610aae576040519150601f19603f3d011682016040523d82523d6000602084013e610ab3565b606091505b5091509150610ac3868383610acd565b9695505050505050565b606082610ae257610add82610b29565b610981565b8151158015610af957506001600160a01b0384163b155b15610b2257604051639996b31560e01b81526001600160a01b03851660048201526024016108da565b5080610981565b805115610b395780518082602001fd5b604051630a12f52160e11b815260040160405180910390fd5b50565b60405160a0810167ffffffffffffffff81118282101715610b8657634e487b7160e01b600052604160045260246000fd5b60405290565b6001600160a01b0381168114610b5257600080fd5b60008060c08385031215610bb457600080fd5b83601f840112610bc357600080fd5b610bcb610b55565b8060a0850186811115610bdd57600080fd5b855b81811015610bf7578035845260209384019301610bdf565b50909350359050610c0781610b8c565b809150509250929050565b600060a08284031215610c2457600080fd5b82601f830112610c3357600080fd5b610c3b610b55565b8060a0840185811115610c4d57600080fd5b845b81811015610c70578051610c6281610b8c565b845260209384019301610c4f565b509095945050505050565b600060a08284031215610c8d57600080fd5b82601f830112610c9c57600080fd5b610ca4610b55565b8060a0840185811115610cb657600080fd5b845b81811015610c70578051845260209384019301610cb8565b634e487b7160e01b600052603260045260246000fd5b634e487b7160e01b600052601160045260246000fd5b8082018082111561071e5761071e610ce6565b8181038181111561071e5761071e610ce6565b808202811582820484141761071e5761071e610ce6565b600082610d5657634e487b7160e01b600052601260045260246000fd5b500490565b600060208284031215610d6d57600080fd5b5051919050565b60c08101818460005b6005811015610d9c578151835260209283019290910190600101610d7d565b5050506001600160a01b039290921660a09190910152919050565b600060208284031215610dc957600080fd5b8151801515811461098157600080fd5b6000825160005b81811015610dfa5760208186018101518583015201610de0565b50600092019182525091905056fea2646970667358221220d50fac5e5d97bec0318d96f33673df788c32956d6660d4cf28931e12d4b10daa64736f6c63430008170033",
  "linkReferences": {},
  "deployedLinkReferences": {}
}