{
  "_format": "hh-sol-artifact-1",
  "contractName": "ZunamiStableZap",
  "sourceName": "contracts/utils/ZunamiStableZap.sol",
  "abi": [
    {
      "inputs": [
        {
          "internalType": "address",
          "name": "_zunStableController",
          "type": "address"
        },
        {
          "internalType": "uint256",
          "name": "_dailyMintDuration",
          "type": "uint256"
        },
        {
          "internalType": "uint256",
          "name": "_dailyMintLimit",
          "type": "uint256"
        },
        {
          "internalType": "uint256",
          "name": "_dailyRedeemDuration",
          "type": "uint256"
        },
        {
          "internalType": "uint256",
          "name": "_dailyRedeemLimit",
          "type": "uint256"
        }
      ],
      "stateMutability": "nonpayable",
      "type": "constructor"
    },
    {
      "inputs": [
        {
          "internalType": "address",
          "name": "target",
          "type": "address"
        }
      ],
      "name": "AddressEmptyCode",
      "type": "error"
    },
    {
      "inputs": [
        {
          "internalType": "address",
          "name": "account",
          "type": "address"
        }
      ],
      "name": "AddressInsufficientBalance",
      "type": "error"
    },
    {
      "inputs": [],
      "name": "DailyMintLimitOverflow",
      "type": "error"
    },
    {
      "inputs": [],
      "name": "DailyRedeemLimitOverflow",
      "type": "error"
    },
    {
      "inputs": [],
      "name": "FailedInnerCall",
      "type": "error"
    },
    {
      "inputs": [
        {
          "internalType": "address",
          "name": "token",
          "type": "address"
        }
      ],
      "name": "SafeERC20FailedOperation",
      "type": "error"
    },
    {
      "inputs": [],
      "name": "SameAddress",
      "type": "error"
    },
    {
      "inputs": [],
      "name": "ZeroAddress",
      "type": "error"
    },
    {
      "inputs": [],
      "name": "POOL_ASSETS",
      "outputs": [
        {
          "internalType": "uint8",
          "name": "",
          "type": "uint8"
        }
      ],
      "stateMutability": "view",
      "type": "function"
    },
    {
      "inputs": [],
      "name": "dailyMintCountingTimestamp",
      "outputs": [
        {
          "internalType": "uint256",
          "name": "",
          "type": "uint256"
        }
      ],
      "stateMutability": "view",
      "type": "function"
    },
    {
      "inputs": [],
      "name": "dailyMintDuration",
      "outputs": [
        {
          "internalType": "uint256",
          "name": "",
          "type": "uint256"
        }
      ],
      "stateMutability": "view",
      "type": "function"
    },
    {
      "inputs": [],
      "name": "dailyMintLimit",
      "outputs": [
        {
          "internalType": "uint256",
          "name": "",
          "type": "uint256"
        }
      ],
      "stateMutability": "view",
      "type": "function"
    },
    {
      "inputs": [],
      "name": "dailyMintTotal",
      "outputs": [
        {
          "internalType": "uint256",
          "name": "",
          "type": "uint256"
        }
      ],
      "stateMutability": "view",
      "type": "function"
    },
    {
      "inputs": [],
      "name": "dailyRedeemCountingTimestamp",
      "outputs": [
        {
          "internalType": "uint256",
          "name": "",
          "type": "uint256"
        }
      ],
      "stateMutability": "view",
      "type": "function"
    },
    {
      "inputs": [],
      "name": "dailyRedeemDuration",
      "outputs": [
        {
          "internalType": "uint256",
          "name": "",
          "type": "uint256"
        }
      ],
      "stateMutability": "view",
      "type": "function"
    },
    {
      "inputs": [],
      "name": "dailyRedeemLimit",
      "outputs": [
        {
          "internalType": "uint256",
          "name": "",
          "type": "uint256"
        }
      ],
      "stateMutability": "view",
      "type": "function"
    },
    {
      "inputs": [],
      "name": "dailyRedeemTotal",
      "outputs": [
        {
          "internalType": "uint256",
          "name": "",
          "type": "uint256"
        }
      ],
      "stateMutability": "view",
      "type": "function"
    },
    {
      "inputs": [
        {
          "internalType": "uint256[5]",
          "name": "amounts",
          "type": "uint256[5]"
        },
        {
          "internalType": "address",
          "name": "receiver",
          "type": "address"
        }
      ],
      "name": "mint",
      "outputs": [
        {
          "internalType": "uint256",
          "name": "",
          "type": "uint256"
        }
      ],
      "stateMutability": "nonpayable",
      "type": "function"
    },
    {
      "inputs": [
        {
          "internalType": "uint256",
          "name": "zunStableAmount",
          "type": "uint256"
        },
        {
          "internalType": "address",
          "name": "receiver",
          "type": "address"
        },
        {
          "internalType": "uint256[5]",
          "name": "minAmounts",
          "type": "uint256[5]"
        }
      ],
      "name": "redeem",
      "outputs": [],
      "stateMutability": "nonpayable",
      "type": "function"
    },
    {
      "inputs": [],
      "name": "zunStableController",
      "outputs": [
        {
          "internalType": "contract IPoolController",
          "name": "",
          "type": "address"
        }
      ],
      "stateMutability": "view",
      "type": "function"
    }
  ],
  "bytecode": "0x61012060405234801561001157600080fd5b50604051611052380380611052833981016040819052610030916100a6565b6001600160a01b0385166100575760405163d92e233d60e01b815260040160405180910390fd5b6001600160a01b03851660805260a084905260c08390528361007a57600061007c565b425b60015560e082905261010081905281610096576000610098565b425b600355506100fb9350505050565b600080600080600060a086880312156100be57600080fd5b85516001600160a01b03811681146100d557600080fd5b602087015160408801516060890151608090990151929a91995097965090945092505050565b60805160a05160c05160e05161010051610ece61018460003960008181610131015261085f01526000818160be01526107fd01526000818161016101526107b601526000818161010a01526107550152600081816101be01528181610226015281816103f70152818161047501528181610509015281816105af01526105eb0152610ece6000f3fe608060405234801561001057600080fd5b50600436106100b45760003560e01c806362680e4b1161007157806362680e4b1461015c57806366a97dc61461018357806375451b4f14610196578063805fcc90146101b0578063935c96fa146101b9578063d35cb540146101f857600080fd5b80631c19cddd146100b957806337d77c4b146100f35780633eeeafe6146100fc57806340e34f4e146101055780635036c3c41461012c5780635e87140f14610153575b600080fd5b6100e07f000000000000000000000000000000000000000000000000000000000000000081565b6040519081526020015b60405180910390f35b6100e060005481565b6100e060035481565b6100e07f000000000000000000000000000000000000000000000000000000000000000081565b6100e07f000000000000000000000000000000000000000000000000000000000000000081565b6100e060015481565b6100e07f000000000000000000000000000000000000000000000000000000000000000081565b6100e0610191366004610c1b565b61020d565b61019e600581565b60405160ff90911681526020016100ea565b6100e060025481565b6101e07f000000000000000000000000000000000000000000000000000000000000000081565b6040516001600160a01b0390911681526020016100ea565b61020b610206366004610c53565b6104fc565b005b60006001600160a01b038216610221573391505b6000807f00000000000000000000000000000000000000000000000000000000000000006001600160a01b03166316f0115b6040518163ffffffff1660e01b8152600401602060405180830381865afa158015610282573d6000803e3d6000fd5b505050506040513d601f19601f820116820180604052508101906102a69190610c92565b90506000816001600160a01b0316639d63848a6040518163ffffffff1660e01b815260040160a060405180830381865afa1580156102e8573d6000803e3d6000fd5b505050506040513d601f19601f8201168201806040525081019061030c9190610caf565b90506000826001600160a01b031663f46a30206040518163ffffffff1660e01b815260040160a060405180830381865afa15801561034e573d6000803e3d6000fd5b505050506040513d601f19601f820116820180604052508101906103729190610d0d565b905060005b600581101561045457600083826005811061039457610394610d62565b6020020151905060008983600581106103af576103af610d62565b602002015190506001600160a01b038216158015906103ce5750600081115b1561044a576103e86001600160a01b03831633308461065c565b61041c6001600160a01b0383167f0000000000000000000000000000000000000000000000000000000000000000836106c9565b83836005811061042e5761042e610d62565b602002015161043d9082610d8e565b6104479088610da5565b96505b5050600101610377565b5061045e84610753565b604051632d62af2f60e01b81526001600160a01b037f00000000000000000000000000000000000000000000000000000000000000001690632d62af2f906104ac908a908a90600401610ddb565b6020604051808303816000875af11580156104cb573d6000803e3d6000fd5b505050506040513d601f19601f820116820180604052508101906104ef9190610e01565b9450505050505b92915050565b610505836107fb565b60007f00000000000000000000000000000000000000000000000000000000000000006001600160a01b03166316f0115b6040518163ffffffff1660e01b8152600401602060405180830381865afa158015610565573d6000803e3d6000fd5b505050506040513d601f19601f820116820180604052508101906105899190610c92565b90506105a06001600160a01b03821633308761065c565b6105d46001600160a01b0382167f0000000000000000000000000000000000000000000000000000000000000000866106c9565b60405163ca54be3b60e01b81526001600160a01b037f0000000000000000000000000000000000000000000000000000000000000000169063ca54be3b9061062490879086908890600401610e1a565b600060405180830381600087803b15801561063e57600080fd5b505af1158015610652573d6000803e3d6000fd5b5050505050505050565b6040516001600160a01b0384811660248301528381166044830152606482018390526106c39186918216906323b872dd906084015b604051602081830303815290604052915060e01b6020820180516001600160e01b0383818316178352505050506108a0565b50505050565b604051636eb1769f60e11b81523060048201526001600160a01b0383811660248301526000919085169063dd62ed3e90604401602060405180830381865afa158015610719573d6000803e3d6000fd5b505050506040513d601f19601f8201168201806040525081019061073d9190610e01565b90506106c3848461074e8585610da5565b61090d565b7f000000000000000000000000000000000000000000000000000000000000000080156107f757806001546107889190610da5565b42111561079d576000829055426001556107b4565b816000808282546107ae9190610da5565b90915550505b7f000000000000000000000000000000000000000000000000000000000000000060005411156107f75760405163790e7b2760e11b815260040160405180910390fd5b5050565b7f000000000000000000000000000000000000000000000000000000000000000080156107f757806003546108309190610da5565b4211156108455760028290554260035561085d565b81600260008282546108579190610da5565b90915550505b7f000000000000000000000000000000000000000000000000000000000000000060025411156107f75760405163051d4f4760e11b815260040160405180910390fd5b60006108b56001600160a01b0384168361099d565b905080516000141580156108da5750808060200190518101906108d89190610e47565b155b1561090857604051635274afe760e01b81526001600160a01b03841660048201526024015b60405180910390fd5b505050565b604080516001600160a01b038416602482015260448082018490528251808303909101815260649091019091526020810180516001600160e01b031663095ea7b360e01b17905261095e84826109b2565b6106c3576040516001600160a01b0384811660248301526000604483015261099391869182169063095ea7b390606401610691565b6106c384826108a0565b60606109ab83836000610a5a565b9392505050565b6000806000846001600160a01b0316846040516109cf9190610e69565b6000604051808303816000865af19150503d8060008114610a0c576040519150601f19603f3d011682016040523d82523d6000602084013e610a11565b606091505b5091509150818015610a3b575080511580610a3b575080806020019051810190610a3b9190610e47565b8015610a5157506000856001600160a01b03163b115b95945050505050565b606081471015610a7f5760405163cd78605960e01b81523060048201526024016108ff565b600080856001600160a01b03168486604051610a9b9190610e69565b60006040518083038185875af1925050503d8060008114610ad8576040519150601f19603f3d011682016040523d82523d6000602084013e610add565b606091505b5091509150610aed868383610af7565b9695505050505050565b606082610b0c57610b0782610b53565b6109ab565b8151158015610b2357506001600160a01b0384163b155b15610b4c57604051639996b31560e01b81526001600160a01b03851660048201526024016108ff565b50806109ab565b805115610b635780518082602001fd5b604051630a12f52160e11b815260040160405180910390fd5b50565b60405160a0810167ffffffffffffffff81118282101715610bb057634e487b7160e01b600052604160045260246000fd5b60405290565b600082601f830112610bc757600080fd5b610bcf610b7f565b8060a0840185811115610be157600080fd5b845b81811015610bfb578035845260209384019301610be3565b509095945050505050565b6001600160a01b0381168114610b7c57600080fd5b60008060c08385031215610c2e57600080fd5b610c388484610bb6565b915060a0830135610c4881610c06565b809150509250929050565b600080600060e08486031215610c6857600080fd5b833592506020840135610c7a81610c06565b9150610c898560408601610bb6565b90509250925092565b600060208284031215610ca457600080fd5b81516109ab81610c06565b600060a08284031215610cc157600080fd5b82601f830112610cd057600080fd5b610cd8610b7f565b8060a0840185811115610cea57600080fd5b845b81811015610bfb578051610cff81610c06565b845260209384019301610cec565b600060a08284031215610d1f57600080fd5b82601f830112610d2e57600080fd5b610d36610b7f565b8060a0840185811115610d4857600080fd5b845b81811015610bfb578051845260209384019301610d4a565b634e487b7160e01b600052603260045260246000fd5b634e487b7160e01b600052601160045260246000fd5b80820281158282048414176104f6576104f6610d78565b808201808211156104f6576104f6610d78565b8060005b60058110156106c3578151845260209384019390910190600101610dbc565b60c08101610de98285610db8565b6001600160a01b039290921660a09190910152919050565b600060208284031215610e1357600080fd5b5051919050565b83815260e08101610e2e6020830185610db8565b6001600160a01b039290921660c0919091015292915050565b600060208284031215610e5957600080fd5b815180151581146109ab57600080fd5b6000825160005b81811015610e8a5760208186018101518583015201610e70565b50600092019182525091905056fea2646970667358221220675e56ee91f74240fea67459b0f7dee41a40836404b577f04590c64e6dcf479864736f6c63430008170033",
  "linkReferences": {},
  "deployedLinkReferences": {}
}