{
  "_format": "hh-sol-artifact-1",
  "contractName": "ZunamiStableZap2",
  "sourceName": "contracts/utils/ZunamiStableZap2.sol",
  "abi": [
    {
      "inputs": [
        {
          "internalType": "address",
          "name": "_zunStableController",
          "type": "address"
        },
        {
          "internalType": "address",
          "name": "_oracle",
          "type": "address"
        },
        {
          "internalType": "uint256",
          "name": "_dailyMintDuration",
          "type": "uint256"
        },
        {
          "internalType": "uint256",
          "name": "_dailyMintLimit",
          "type": "uint256"
        },
        {
          "internalType": "uint256",
          "name": "_dailyRedeemDuration",
          "type": "uint256"
        },
        {
          "internalType": "uint256",
          "name": "_dailyRedeemLimit",
          "type": "uint256"
        },
        {
          "internalType": "address",
          "name": "_basedToken",
          "type": "address"
        }
      ],
      "stateMutability": "nonpayable",
      "type": "constructor"
    },
    {
      "inputs": [
        {
          "internalType": "address",
          "name": "target",
          "type": "address"
        }
      ],
      "name": "AddressEmptyCode",
      "type": "error"
    },
    {
      "inputs": [
        {
          "internalType": "address",
          "name": "account",
          "type": "address"
        }
      ],
      "name": "AddressInsufficientBalance",
      "type": "error"
    },
    {
      "inputs": [],
      "name": "BrokenMinimumAmount",
      "type": "error"
    },
    {
      "inputs": [],
      "name": "DailyMintLimitOverflow",
      "type": "error"
    },
    {
      "inputs": [],
      "name": "DailyRedeemLimitOverflow",
      "type": "error"
    },
    {
      "inputs": [],
      "name": "FailedInnerCall",
      "type": "error"
    },
    {
      "inputs": [
        {
          "internalType": "address",
          "name": "token",
          "type": "address"
        }
      ],
      "name": "SafeERC20FailedOperation",
      "type": "error"
    },
    {
      "inputs": [],
      "name": "SameAddress",
      "type": "error"
    },
    {
      "inputs": [],
      "name": "ZeroAddress",
      "type": "error"
    },
    {
      "inputs": [],
      "name": "POOL_ASSETS",
      "outputs": [
        {
          "internalType": "uint8",
          "name": "",
          "type": "uint8"
        }
      ],
      "stateMutability": "view",
      "type": "function"
    },
    {
      "inputs": [],
      "name": "basedToken",
      "outputs": [
        {
          "internalType": "address",
          "name": "",
          "type": "address"
        }
      ],
      "stateMutability": "view",
      "type": "function"
    },
    {
      "inputs": [],
      "name": "dailyMintCountingTimestamp",
      "outputs": [
        {
          "internalType": "uint256",
          "name": "",
          "type": "uint256"
        }
      ],
      "stateMutability": "view",
      "type": "function"
    },
    {
      "inputs": [],
      "name": "dailyMintDuration",
      "outputs": [
        {
          "internalType": "uint256",
          "name": "",
          "type": "uint256"
        }
      ],
      "stateMutability": "view",
      "type": "function"
    },
    {
      "inputs": [],
      "name": "dailyMintLimit",
      "outputs": [
        {
          "internalType": "uint256",
          "name": "",
          "type": "uint256"
        }
      ],
      "stateMutability": "view",
      "type": "function"
    },
    {
      "inputs": [],
      "name": "dailyMintTotal",
      "outputs": [
        {
          "internalType": "uint256",
          "name": "",
          "type": "uint256"
        }
      ],
      "stateMutability": "view",
      "type": "function"
    },
    {
      "inputs": [],
      "name": "dailyRedeemCountingTimestamp",
      "outputs": [
        {
          "internalType": "uint256",
          "name": "",
          "type": "uint256"
        }
      ],
      "stateMutability": "view",
      "type": "function"
    },
    {
      "inputs": [],
      "name": "dailyRedeemDuration",
      "outputs": [
        {
          "internalType": "uint256",
          "name": "",
          "type": "uint256"
        }
      ],
      "stateMutability": "view",
      "type": "function"
    },
    {
      "inputs": [],
      "name": "dailyRedeemLimit",
      "outputs": [
        {
          "internalType": "uint256",
          "name": "",
          "type": "uint256"
        }
      ],
      "stateMutability": "view",
      "type": "function"
    },
    {
      "inputs": [],
      "name": "dailyRedeemTotal",
      "outputs": [
        {
          "internalType": "uint256",
          "name": "",
          "type": "uint256"
        }
      ],
      "stateMutability": "view",
      "type": "function"
    },
    {
      "inputs": [
        {
          "internalType": "uint256[5]",
          "name": "amounts",
          "type": "uint256[5]"
        }
      ],
      "name": "estimateMint",
      "outputs": [
        {
          "internalType": "uint256",
          "name": "",
          "type": "uint256"
        }
      ],
      "stateMutability": "view",
      "type": "function"
    },
    {
      "inputs": [
        {
          "internalType": "uint256[5]",
          "name": "amounts",
          "type": "uint256[5]"
        },
        {
          "internalType": "address",
          "name": "receiver",
          "type": "address"
        },
        {
          "internalType": "uint256",
          "name": "minAmountStable",
          "type": "uint256"
        }
      ],
      "name": "mint",
      "outputs": [
        {
          "internalType": "uint256",
          "name": "",
          "type": "uint256"
        }
      ],
      "stateMutability": "nonpayable",
      "type": "function"
    },
    {
      "inputs": [],
      "name": "oracle",
      "outputs": [
        {
          "internalType": "contract IOracle",
          "name": "",
          "type": "address"
        }
      ],
      "stateMutability": "view",
      "type": "function"
    },
    {
      "inputs": [
        {
          "internalType": "uint256",
          "name": "zunStableAmount",
          "type": "uint256"
        },
        {
          "internalType": "address",
          "name": "receiver",
          "type": "address"
        },
        {
          "internalType": "uint256",
          "name": "minAmountBased",
          "type": "uint256"
        }
      ],
      "name": "redeem",
      "outputs": [],
      "stateMutability": "nonpayable",
      "type": "function"
    },
    {
      "inputs": [],
      "name": "zunStableController",
      "outputs": [
        {
          "internalType": "contract IPoolController",
          "name": "",
          "type": "address"
        }
      ],
      "stateMutability": "view",
      "type": "function"
    }
  ],
  "bytecode": "0x6101606040523480156200001257600080fd5b50604051620019273803806200192783398101604081905262000035916200010b565b6001600160a01b0387166200005d5760405163d92e233d60e01b815260040160405180910390fd5b6001600160a01b0380881660805286166200008b5760405163d92e233d60e01b815260040160405180910390fd5b6001600160a01b03861660a05260e085905261010084905284620000b1576000620000b3565b425b60015561012083905261014082905282620000d0576000620000d2565b425b6003556001600160a01b031660c052506200017c945050505050565b80516001600160a01b03811681146200010657600080fd5b919050565b600080600080600080600060e0888a0312156200012757600080fd5b6200013288620000ee565b96506200014260208901620000ee565b955060408801519450606088015193506080880151925060a088015191506200016e60c08901620000ee565b905092959891949750929550565b60805160a05160c05160e0516101005161012051610140516116da6200024d600039600081816101c40152610f5801526000818160ff0152610ef60152600081816101f40152610eaf01526000818161018a0152610e4e01526000818161013901528181610a3c0152610a80015260008181610235015281816109950152610aa8015260008181610265015281816102c8015281816104990152818161051a015281816105d201528181610678015281816106db0152818161074901528181610b630152610be901526116da6000f3fe608060405234801561001057600080fd5b50600436106100f55760003560e01c80635e87140f11610097578063805fcc9011610066578063805fcc9014610257578063935c96fa14610260578063d878016114610287578063e58ff0ec1461029c57600080fd5b80635e87140f146101e657806362680e4b146101ef57806375451b4f146102165780637dc0d1d01461023057600080fd5b80633eeeafe6116100d35780633eeeafe61461017c57806340e34f4e146101855780634ec7d3cf146101ac5780635036c3c4146101bf57600080fd5b80631c19cddd146100fa5780632ab370a41461013457806337d77c4b14610173575b600080fd5b6101217f000000000000000000000000000000000000000000000000000000000000000081565b6040519081526020015b60405180910390f35b61015b7f000000000000000000000000000000000000000000000000000000000000000081565b6040516001600160a01b03909116815260200161012b565b61012160005481565b61012160035481565b6101217f000000000000000000000000000000000000000000000000000000000000000081565b6101216101ba36600461134a565b6102af565b6101217f000000000000000000000000000000000000000000000000000000000000000081565b61012160015481565b6101217f000000000000000000000000000000000000000000000000000000000000000081565b61021e600581565b60405160ff909116815260200161012b565b61015b7f000000000000000000000000000000000000000000000000000000000000000081565b61012160025481565b61015b7f000000000000000000000000000000000000000000000000000000000000000081565b61029a61029536600461138a565b6105c5565b005b6101216102aa3660046113c2565b610b5e565b60006001600160a01b0383166102c3573392505b6000807f00000000000000000000000000000000000000000000000000000000000000006001600160a01b03166316f0115b6040518163ffffffff1660e01b8152600401602060405180830381865afa158015610324573d6000803e3d6000fd5b505050506040513d601f19601f8201168201806040525081019061034891906113de565b90506000816001600160a01b0316639d63848a6040518163ffffffff1660e01b815260040160a060405180830381865afa15801561038a573d6000803e3d6000fd5b505050506040513d601f19601f820116820180604052508101906103ae91906113fb565b90506000826001600160a01b031663f46a30206040518163ffffffff1660e01b815260040160a060405180830381865afa1580156103f0573d6000803e3d6000fd5b505050506040513d601f19601f820116820180604052508101906104149190611459565b905060005b60058110156104f6576000838260058110610436576104366114ae565b6020020151905060008a8360058110610451576104516114ae565b602002015190506001600160a01b038216158015906104705750600081115b156104ec5761048a6001600160a01b038316333084610d55565b6104be6001600160a01b0383167f000000000000000000000000000000000000000000000000000000000000000083610dc2565b8383600581106104d0576104d06114ae565b60200201516104df90826114da565b6104e990886114f1565b96505b5050600101610419565b5061050084610e4c565b604051632d62af2f60e01b81526000906001600160a01b037f00000000000000000000000000000000000000000000000000000000000000001690632d62af2f90610551908c908c90600401611527565b6020604051808303816000875af1158015610570573d6000803e3d6000fd5b505050506040513d601f19601f82011682018060405250810190610594919061154d565b9050868110156105b757604051630d143f8360e01b815260040160405180910390fd5b9450505050505b9392505050565b6105ce83610ef4565b60007f00000000000000000000000000000000000000000000000000000000000000006001600160a01b03166316f0115b6040518163ffffffff1660e01b8152600401602060405180830381865afa15801561062e573d6000803e3d6000fd5b505050506040513d601f19601f8201168201806040525081019061065291906113de565b90506106696001600160a01b038216333087610d55565b61069d6001600160a01b0382167f000000000000000000000000000000000000000000000000000000000000000086610dc2565b6040805160a081018252600080825260208201819052818301819052606082018190526080820152905163ca54be3b60e01b81526001600160a01b037f0000000000000000000000000000000000000000000000000000000000000000169163ca54be3b916107129188913090600401611566565b600060405180830381600087803b15801561072c57600080fd5b505af1158015610740573d6000803e3d6000fd5b505050506000807f00000000000000000000000000000000000000000000000000000000000000006001600160a01b03166316f0115b6040518163ffffffff1660e01b8152600401602060405180830381865afa1580156107a5573d6000803e3d6000fd5b505050506040513d601f19601f820116820180604052508101906107c991906113de565b90506000816001600160a01b0316639d63848a6040518163ffffffff1660e01b815260040160a060405180830381865afa15801561080b573d6000803e3d6000fd5b505050506040513d601f19601f8201168201806040525081019061082f91906113fb565b90506000826001600160a01b031663f46a30206040518163ffffffff1660e01b815260040160a060405180830381865afa158015610871573d6000803e3d6000fd5b505050506040513d601f19601f820116820180604052508101906108959190611459565b905060005b6005811015610a385760008382600581106108b7576108b76114ae565b602002015190506001600160a01b03811615610a2f576040516370a0823160e01b81523060048201526000906001600160a01b038316906370a0823190602401602060405180830381865afa158015610914573d6000803e3d6000fd5b505050506040513d601f19601f82011682018060405250810190610938919061154d565b90508015610a2d576109546001600160a01b0383168b83610f99565b670de0b6b3a764000084846005811061096f5761096f6114ae565b6020020151604051638b2f0f4f60e01b81526001600160a01b03858116600483015284917f000000000000000000000000000000000000000000000000000000000000000090911690638b2f0f4f90602401602060405180830381865afa1580156109de573d6000803e3d6000fd5b505050506040513d601f19601f82011682018060405250810190610a02919061154d565b610a0c91906114da565b610a1691906114da565b610a209190611593565b610a2a90886114f1565b96505b505b5060010161089a565b50837f00000000000000000000000000000000000000000000000000000000000000006001600160a01b031615610b3257604051638b2f0f4f60e01b81526001600160a01b037f0000000000000000000000000000000000000000000000000000000000000000811660048301527f00000000000000000000000000000000000000000000000000000000000000001690638b2f0f4f90602401602060405180830381865afa158015610aef573d6000803e3d6000fd5b505050506040513d601f19601f82011682018060405250810190610b13919061154d565b610b2586670de0b6b3a76400006114da565b610b2f9190611593565b90505b86811015610b5357604051630d143f8360e01b815260040160405180910390fd5b505050505050505050565b6000807f00000000000000000000000000000000000000000000000000000000000000006001600160a01b03166399ec92466040518163ffffffff1660e01b8152600401602060405180830381865afa158015610bbf573d6000803e3d6000fd5b505050506040513d601f19601f82011682018060405250810190610be3919061154d565b905060007f00000000000000000000000000000000000000000000000000000000000000006001600160a01b03166316f0115b6040518163ffffffff1660e01b8152600401602060405180830381865afa158015610c45573d6000803e3d6000fd5b505050506040513d601f19601f82011682018060405250810190610c6991906113de565b60405163bb91c33960e01b8152600481018490529091506000906001600160a01b0383169063bb91c33990602401608060405180830381865afa158015610cb4573d6000803e3d6000fd5b505050506040513d601f19601f82011682018060405250810190610cd891906115ca565b51604051634eabdcd360e11b81529091506001600160a01b03821690639d57b9a690610d0b90889060019060040161163d565b602060405180830381865afa158015610d28573d6000803e3d6000fd5b505050506040513d601f19601f82011682018060405250810190610d4c919061154d565b95945050505050565b6040516001600160a01b038481166024830152838116604483015260648201839052610dbc9186918216906323b872dd906084015b604051602081830303815290604052915060e01b6020820180516001600160e01b038381831617835250505050610fcf565b50505050565b604051636eb1769f60e11b81523060048201526001600160a01b0383811660248301526000919085169063dd62ed3e90604401602060405180830381865afa158015610e12573d6000803e3d6000fd5b505050506040513d601f19601f82011682018060405250810190610e36919061154d565b9050610dbc8484610e4785856114f1565b611037565b7f00000000000000000000000000000000000000000000000000000000000000008015610ef05780600154610e8191906114f1565b421115610e9657600082905542600155610ead565b81600080828254610ea791906114f1565b90915550505b7f00000000000000000000000000000000000000000000000000000000000000006000541115610ef05760405163790e7b2760e11b815260040160405180910390fd5b5050565b7f00000000000000000000000000000000000000000000000000000000000000008015610ef05780600354610f2991906114f1565b421115610f3e57600282905542600355610f56565b8160026000828254610f5091906114f1565b90915550505b7f00000000000000000000000000000000000000000000000000000000000000006002541115610ef05760405163051d4f4760e11b815260040160405180910390fd5b6040516001600160a01b03838116602483015260448201839052610fca91859182169063a9059cbb90606401610d8a565b505050565b6000610fe46001600160a01b038416836110c7565b90508051600014158015611009575080806020019051810190611007919061165a565b155b15610fca57604051635274afe760e01b81526001600160a01b03841660048201526024015b60405180910390fd5b604080516001600160a01b038416602482015260448082018490528251808303909101815260649091019091526020810180516001600160e01b031663095ea7b360e01b17905261108884826110de565b610dbc576040516001600160a01b038481166024830152600060448301526110bd91869182169063095ea7b390606401610d8a565b610dbc8482610fcf565b60606110d583836000611181565b90505b92915050565b6000806000846001600160a01b0316846040516110fb9190611675565b6000604051808303816000865af19150503d8060008114611138576040519150601f19603f3d011682016040523d82523d6000602084013e61113d565b606091505b5091509150818015611167575080511580611167575080806020019051810190611167919061165a565b8015610d4c5750505050506001600160a01b03163b151590565b6060814710156111a65760405163cd78605960e01b815230600482015260240161102e565b600080856001600160a01b031684866040516111c29190611675565b60006040518083038185875af1925050503d80600081146111ff576040519150601f19603f3d011682016040523d82523d6000602084013e611204565b606091505b509150915061121486838361121e565b9695505050505050565b6060826112335761122e8261127a565b6105be565b815115801561124a57506001600160a01b0384163b155b1561127357604051639996b31560e01b81526001600160a01b038516600482015260240161102e565b50806105be565b80511561128a5780518082602001fd5b604051630a12f52160e11b815260040160405180910390fd5b50565b634e487b7160e01b600052604160045260246000fd5b60405160a0810167ffffffffffffffff811182821017156112df576112df6112a6565b60405290565b600082601f8301126112f657600080fd5b6112fe6112bc565b8060a084018581111561131057600080fd5b845b8181101561132a578035845260209384019301611312565b509095945050505050565b6001600160a01b03811681146112a357600080fd5b600080600060e0848603121561135f57600080fd5b61136985856112e5565b925060a084013561137981611335565b9295929450505060c0919091013590565b60008060006060848603121561139f57600080fd5b8335925060208401356113b181611335565b929592945050506040919091013590565b600060a082840312156113d457600080fd5b6110d583836112e5565b6000602082840312156113f057600080fd5b81516105be81611335565b600060a0828403121561140d57600080fd5b82601f83011261141c57600080fd5b6114246112bc565b8060a084018581111561143657600080fd5b845b8181101561132a57805161144b81611335565b845260209384019301611438565b600060a0828403121561146b57600080fd5b82601f83011261147a57600080fd5b6114826112bc565b8060a084018581111561149457600080fd5b845b8181101561132a578051845260209384019301611496565b634e487b7160e01b600052603260045260246000fd5b634e487b7160e01b600052601160045260246000fd5b80820281158282048414176110d8576110d86114c4565b808201808211156110d8576110d86114c4565b8060005b6005811015610dbc578151845260209384019390910190600101611508565b60c081016115358285611504565b6001600160a01b039290921660a09190910152919050565b60006020828403121561155f57600080fd5b5051919050565b83815260e0810161157a6020830185611504565b6001600160a01b039290921660c0919091015292915050565b6000826115b057634e487b7160e01b600052601260045260246000fd5b500490565b805180151581146115c557600080fd5b919050565b6000608082840312156115dc57600080fd5b6040516080810181811067ffffffffffffffff821117156115ff576115ff6112a6565b604052825161160d81611335565b808252506020830151602082015260408301516040820152611631606084016115b5565b60608201529392505050565b60c0810161164b8285611504565b82151560a08301529392505050565b60006020828403121561166c57600080fd5b6110d5826115b5565b6000825160005b81811015611696576020818601810151858301520161167c565b50600092019182525091905056fea2646970667358221220a5cfbf96981fb68d7cff10a7d2e9573c555c9e14a149df54faa64b86545a374264736f6c63430008170033",
  "linkReferences": {},
  "deployedLinkReferences": {}
}