{
  "_format": "hh-sol-artifact-1",
  "contractName": "ZunamiDepositZap2",
  "sourceName": "contracts/utils/ZunamiDepositZap2.sol",
  "abi": [
    {
      "inputs": [
        {
          "internalType": "address",
          "name": "zunamiPoolAddr",
          "type": "address"
        },
        {
          "internalType": "address",
          "name": "apsControllerAddr",
          "type": "address"
        },
        {
          "internalType": "address",
          "name": "tokenConverterAddr",
          "type": "address"
        }
      ],
      "stateMutability": "nonpayable",
      "type": "constructor"
    },
    {
      "inputs": [
        {
          "internalType": "address",
          "name": "target",
          "type": "address"
        }
      ],
      "name": "AddressEmptyCode",
      "type": "error"
    },
    {
      "inputs": [
        {
          "internalType": "address",
          "name": "account",
          "type": "address"
        }
      ],
      "name": "AddressInsufficientBalance",
      "type": "error"
    },
    {
      "inputs": [],
      "name": "FailedInnerCall",
      "type": "error"
    },
    {
      "inputs": [
        {
          "internalType": "address",
          "name": "token",
          "type": "address"
        }
      ],
      "name": "SafeERC20FailedOperation",
      "type": "error"
    },
    {
      "inputs": [],
      "name": "SameAddress",
      "type": "error"
    },
    {
      "inputs": [],
      "name": "ZeroAddress",
      "type": "error"
    },
    {
      "inputs": [],
      "name": "MIN_AMOUNT",
      "outputs": [
        {
          "internalType": "uint256",
          "name": "",
          "type": "uint256"
        }
      ],
      "stateMutability": "view",
      "type": "function"
    },
    {
      "inputs": [],
      "name": "MIN_AMOUNT_DENOMINATOR",
      "outputs": [
        {
          "internalType": "uint256",
          "name": "",
          "type": "uint256"
        }
      ],
      "stateMutability": "view",
      "type": "function"
    },
    {
      "inputs": [],
      "name": "POOL_ASSETS",
      "outputs": [
        {
          "internalType": "uint8",
          "name": "",
          "type": "uint8"
        }
      ],
      "stateMutability": "view",
      "type": "function"
    },
    {
      "inputs": [],
      "name": "apsController",
      "outputs": [
        {
          "internalType": "contract IPoolController",
          "name": "",
          "type": "address"
        }
      ],
      "stateMutability": "view",
      "type": "function"
    },
    {
      "inputs": [],
      "name": "converter",
      "outputs": [
        {
          "internalType": "contract ITokenConverter",
          "name": "",
          "type": "address"
        }
      ],
      "stateMutability": "view",
      "type": "function"
    },
    {
      "inputs": [
        {
          "internalType": "uint256[5]",
          "name": "amounts",
          "type": "uint256[5]"
        },
        {
          "internalType": "address",
          "name": "receiver",
          "type": "address"
        }
      ],
      "name": "deposit",
      "outputs": [
        {
          "internalType": "uint256",
          "name": "shares",
          "type": "uint256"
        }
      ],
      "stateMutability": "nonpayable",
      "type": "function"
    },
    {
      "inputs": [],
      "name": "zunamiPool",
      "outputs": [
        {
          "internalType": "contract IPool",
          "name": "",
          "type": "address"
        }
      ],
      "stateMutability": "view",
      "type": "function"
    }
  ],
  "bytecode": "0x60e060405234801561001057600080fd5b50604051610e52380380610e5283398101604081905261002f916100b5565b6001600160a01b038316158061004c57506001600160a01b038216155b8061005e57506001600160a01b038116155b1561007c5760405163d92e233d60e01b815260040160405180910390fd5b6001600160a01b0392831660805290821660a0521660c0526100f8565b80516001600160a01b03811681146100b057600080fd5b919050565b6000806000606084860312156100ca57600080fd5b6100d384610099565b92506100e160208501610099565b91506100ef60408501610099565b90509250925092565b60805160a05160c051610ced6101656000396000818161013601528181610342015261037101526000818161010f01528181610524015261054b015260008181608701528181610179015281816101ff015281816103990152818161048001526105020152610ced6000f3fe608060405234801561001057600080fd5b506004361061007d5760003560e01c806375451b4f1161005b57806375451b4f146100f05780638b0324461461010a578063bd38837b14610131578063ddbcb5fa1461015857600080fd5b8063213c79d8146100825780632d62af2f146100c65780635528ad4f146100e7575b600080fd5b6100a97f000000000000000000000000000000000000000000000000000000000000000081565b6040516001600160a01b0390911681526020015b60405180910390f35b6100d96100d4366004610a63565b610161565b6040519081526020016100bd565b6100d961271081565b6100f8600581565b60405160ff90911681526020016100bd565b6100a97f000000000000000000000000000000000000000000000000000000000000000081565b6100a97f000000000000000000000000000000000000000000000000000000000000000081565b6100d96126de81565b60006001600160a01b038216610175573391505b60007f00000000000000000000000000000000000000000000000000000000000000006001600160a01b0316639d63848a6040518163ffffffff1660e01b815260040160a060405180830381865afa1580156101d5573d6000803e3d6000fd5b505050506040513d601f19601f820116820180604052508101906101f99190610ad4565b905060007f00000000000000000000000000000000000000000000000000000000000000006001600160a01b031663f46a30206040518163ffffffff1660e01b815260040160a060405180830381865afa15801561025b573d6000803e3d6000fd5b505050506040513d601f19601f8201168201806040525081019061027f9190610b3d565b905060005b60058110156104675760008682600581106102a1576102a1610b92565b6020020151905060008483600581106102bc576102bc610b92565b6020020151905060008484600581106102d7576102d7610b92565b6020020151905060038403610301575073f939e0a03fb07f59a73314e73794be0e57ac1b4e905060015b6001600160a01b038216158015906103195750600083115b1561045c576103336001600160a01b038316333086610610565b6103676001600160a01b0383167f00000000000000000000000000000000000000000000000000000000000000008561067d565b6001600160a01b037f000000000000000000000000000000000000000000000000000000000000000016631a378db7837f0000000000000000000000000000000000000000000000000000000000000000866127106126de6103c98884610bbe565b6103d39190610bbe565b6103dd9190610bd5565b6040516001600160e01b031960e087901b1681526001600160a01b039485166004820152939092166024840152604483015260648201526084016020604051808303816000875af1158015610436573d6000803e3d6000fd5b505050506040513d601f19601f8201168201806040525081019061045a9190610bf7565b505b505050600101610284565b506040516370a0823160e01b81523060048201526000907f00000000000000000000000000000000000000000000000000000000000000006001600160a01b0316906370a0823190602401602060405180830381865afa1580156104cf573d6000803e3d6000fd5b505050506040513d601f19601f820116820180604052508101906104f39190610bf7565b90506105496001600160a01b037f0000000000000000000000000000000000000000000000000000000000000000167f0000000000000000000000000000000000000000000000000000000000000000836106b3565b7f00000000000000000000000000000000000000000000000000000000000000006001600160a01b0316632d62af2f6040518060a001604052808481526020016000815260200160008152602001600081526020016000815250876040518363ffffffff1660e01b81526004016105c1929190610c10565b6020604051808303816000875af11580156105e0573d6000803e3d6000fd5b505050506040513d601f19601f820116820180604052508101906106049190610bf7565b93505050505b92915050565b6040516001600160a01b0384811660248301528381166044830152606482018390526106779186918216906323b872dd906084015b604051602081830303815290604052915060e01b6020820180516001600160e01b03838183161783525050505061073d565b50505050565b6040516001600160a01b038381166024830152604482018390526106ae91859182169063a9059cbb90606401610645565b505050565b604051636eb1769f60e11b81523060048201526001600160a01b0383811660248301526000919085169063dd62ed3e90604401602060405180830381865afa158015610703573d6000803e3d6000fd5b505050506040513d601f19601f820116820180604052508101906107279190610bf7565b905061067784846107388585610c53565b6107a5565b60006107526001600160a01b03841683610835565b905080516000141580156107775750808060200190518101906107759190610c66565b155b156106ae57604051635274afe760e01b81526001600160a01b03841660048201526024015b60405180910390fd5b604080516001600160a01b038416602482015260448082018490528251808303909101815260649091019091526020810180516001600160e01b031663095ea7b360e01b1790526107f6848261084a565b610677576040516001600160a01b0384811660248301526000604483015261082b91869182169063095ea7b390606401610645565b610677848261073d565b6060610843838360006108f2565b9392505050565b6000806000846001600160a01b0316846040516108679190610c88565b6000604051808303816000865af19150503d80600081146108a4576040519150601f19603f3d011682016040523d82523d6000602084013e6108a9565b606091505b50915091508180156108d35750805115806108d35750808060200190518101906108d39190610c66565b80156108e957506000856001600160a01b03163b115b95945050505050565b6060814710156109175760405163cd78605960e01b815230600482015260240161079c565b600080856001600160a01b031684866040516109339190610c88565b60006040518083038185875af1925050503d8060008114610970576040519150601f19603f3d011682016040523d82523d6000602084013e610975565b606091505b509150915061098586838361098f565b9695505050505050565b6060826109a45761099f826109eb565b610843565b81511580156109bb57506001600160a01b0384163b155b156109e457604051639996b31560e01b81526001600160a01b038516600482015260240161079c565b5080610843565b8051156109fb5780518082602001fd5b604051630a12f52160e11b815260040160405180910390fd5b50565b60405160a0810167ffffffffffffffff81118282101715610a4857634e487b7160e01b600052604160045260246000fd5b60405290565b6001600160a01b0381168114610a1457600080fd5b60008060c08385031215610a7657600080fd5b83601f840112610a8557600080fd5b610a8d610a17565b8060a0850186811115610a9f57600080fd5b855b81811015610ab9578035845260209384019301610aa1565b50909350359050610ac981610a4e565b809150509250929050565b600060a08284031215610ae657600080fd5b82601f830112610af557600080fd5b610afd610a17565b8060a0840185811115610b0f57600080fd5b845b81811015610b32578051610b2481610a4e565b845260209384019301610b11565b509095945050505050565b600060a08284031215610b4f57600080fd5b82601f830112610b5e57600080fd5b610b66610a17565b8060a0840185811115610b7857600080fd5b845b81811015610b32578051845260209384019301610b7a565b634e487b7160e01b600052603260045260246000fd5b634e487b7160e01b600052601160045260246000fd5b808202811582820484141761060a5761060a610ba8565b600082610bf257634e487b7160e01b600052601260045260246000fd5b500490565b600060208284031215610c0957600080fd5b5051919050565b60c08101818460005b6005811015610c38578151835260209283019290910190600101610c19565b5050506001600160a01b039290921660a09190910152919050565b8082018082111561060a5761060a610ba8565b600060208284031215610c7857600080fd5b8151801515811461084357600080fd5b6000825160005b81811015610ca95760208186018101518583015201610c8f565b50600092019182525091905056fea2646970667358221220aed1feed5e07e03156322b43e7b16e2dcc6ba538c27d4e12a0562c51abc3abb464736f6c63430008170033",
  "linkReferences": {},
  "deployedLinkReferences": {}
}