{
  "_format": "hh-sol-artifact-1",
  "contractName": "ZunamiPool",
  "sourceName": "contracts/ZunamiPool.sol",
  "abi": [
    {
      "inputs": [
        {
          "internalType": "string",
          "name": "name_",
          "type": "string"
        },
        {
          "internalType": "string",
          "name": "symbol_",
          "type": "string"
        }
      ],
      "stateMutability": "nonpayable",
      "type": "constructor"
    },
    {
      "inputs": [
        {
          "internalType": "uint256",
          "name": "sid",
          "type": "uint256"
        }
      ],
      "name": "AbsentStrategy",
      "type": "error"
    },
    {
      "inputs": [],
      "name": "AccessControlBadConfirmation",
      "type": "error"
    },
    {
      "inputs": [
        {
          "internalType": "address",
          "name": "account",
          "type": "address"
        },
        {
          "internalType": "bytes32",
          "name": "neededRole",
          "type": "bytes32"
        }
      ],
      "name": "AccessControlUnauthorizedAccount",
      "type": "error"
    },
    {
      "inputs": [
        {
          "internalType": "address",
          "name": "target",
          "type": "address"
        }
      ],
      "name": "AddressEmptyCode",
      "type": "error"
    },
    {
      "inputs": [
        {
          "internalType": "address",
          "name": "account",
          "type": "address"
        }
      ],
      "name": "AddressInsufficientBalance",
      "type": "error"
    },
    {
      "inputs": [
        {
          "internalType": "uint256",
          "name": "sid",
          "type": "uint256"
        }
      ],
      "name": "DisabledStrategy",
      "type": "error"
    },
    {
      "inputs": [],
      "name": "DuplicatedStrategy",
      "type": "error"
    },
    {
      "inputs": [
        {
          "internalType": "address",
          "name": "spender",
          "type": "address"
        },
        {
          "internalType": "uint256",
          "name": "allowance",
          "type": "uint256"
        },
        {
          "internalType": "uint256",
          "name": "needed",
          "type": "uint256"
        }
      ],
      "name": "ERC20InsufficientAllowance",
      "type": "error"
    },
    {
      "inputs": [
        {
          "internalType": "address",
          "name": "sender",
          "type": "address"
        },
        {
          "internalType": "uint256",
          "name": "balance",
          "type": "uint256"
        },
        {
          "internalType": "uint256",
          "name": "needed",
          "type": "uint256"
        }
      ],
      "name": "ERC20InsufficientBalance",
      "type": "error"
    },
    {
      "inputs": [
        {
          "internalType": "address",
          "name": "approver",
          "type": "address"
        }
      ],
      "name": "ERC20InvalidApprover",
      "type": "error"
    },
    {
      "inputs": [
        {
          "internalType": "address",
          "name": "receiver",
          "type": "address"
        }
      ],
      "name": "ERC20InvalidReceiver",
      "type": "error"
    },
    {
      "inputs": [
        {
          "internalType": "address",
          "name": "sender",
          "type": "address"
        }
      ],
      "name": "ERC20InvalidSender",
      "type": "error"
    },
    {
      "inputs": [
        {
          "internalType": "address",
          "name": "spender",
          "type": "address"
        }
      ],
      "name": "ERC20InvalidSpender",
      "type": "error"
    },
    {
      "inputs": [],
      "name": "EnforcedPause",
      "type": "error"
    },
    {
      "inputs": [],
      "name": "ExpectedPause",
      "type": "error"
    },
    {
      "inputs": [],
      "name": "FailedInnerCall",
      "type": "error"
    },
    {
      "inputs": [],
      "name": "IncorrectArguments",
      "type": "error"
    },
    {
      "inputs": [],
      "name": "IncorrectSid",
      "type": "error"
    },
    {
      "inputs": [
        {
          "internalType": "uint256",
          "name": "sid",
          "type": "uint256"
        }
      ],
      "name": "NotStartedStrategy",
      "type": "error"
    },
    {
      "inputs": [
        {
          "internalType": "address",
          "name": "token",
          "type": "address"
        }
      ],
      "name": "SafeERC20FailedOperation",
      "type": "error"
    },
    {
      "inputs": [],
      "name": "WrongAmount",
      "type": "error"
    },
    {
      "inputs": [],
      "name": "WrongDecimalMultipliers",
      "type": "error"
    },
    {
      "inputs": [
        {
          "internalType": "uint256",
          "name": "sid",
          "type": "uint256"
        },
        {
          "internalType": "uint256[5]",
          "name": "amounts",
          "type": "uint256[5]"
        }
      ],
      "name": "WrongDeposit",
      "type": "error"
    },
    {
      "inputs": [],
      "name": "WrongRatio",
      "type": "error"
    },
    {
      "inputs": [],
      "name": "WrongReceiver",
      "type": "error"
    },
    {
      "inputs": [],
      "name": "WrongTokens",
      "type": "error"
    },
    {
      "inputs": [
        {
          "internalType": "uint256",
          "name": "sid",
          "type": "uint256"
        }
      ],
      "name": "WrongWithdrawParams",
      "type": "error"
    },
    {
      "inputs": [],
      "name": "WrongWithdrawPercent",
      "type": "error"
    },
    {
      "inputs": [],
      "name": "ZeroAddress",
      "type": "error"
    },
    {
      "anonymous": false,
      "inputs": [
        {
          "indexed": true,
          "internalType": "uint256",
          "name": "sid",
          "type": "uint256"
        },
        {
          "indexed": true,
          "internalType": "address",
          "name": "strategyAddr",
          "type": "address"
        },
        {
          "indexed": false,
          "internalType": "uint256",
          "name": "startTime",
          "type": "uint256"
        }
      ],
      "name": "AddedStrategy",
      "type": "event"
    },
    {
      "anonymous": false,
      "inputs": [
        {
          "indexed": true,
          "internalType": "address",
          "name": "owner",
          "type": "address"
        },
        {
          "indexed": true,
          "internalType": "address",
          "name": "spender",
          "type": "address"
        },
        {
          "indexed": false,
          "internalType": "uint256",
          "name": "value",
          "type": "uint256"
        }
      ],
      "name": "Approval",
      "type": "event"
    },
    {
      "anonymous": false,
      "inputs": [
        {
          "indexed": true,
          "internalType": "address",
          "name": "receiver",
          "type": "address"
        },
        {
          "indexed": false,
          "internalType": "uint256",
          "name": "amount",
          "type": "uint256"
        }
      ],
      "name": "ClaimedExtraGains",
      "type": "event"
    },
    {
      "anonymous": false,
      "inputs": [
        {
          "indexed": true,
          "internalType": "address",
          "name": "receiver",
          "type": "address"
        },
        {
          "indexed": false,
          "internalType": "contract IERC20[]",
          "name": "rewardTokens",
          "type": "address[]"
        }
      ],
      "name": "ClaimedRewards",
      "type": "event"
    },
    {
      "anonymous": false,
      "inputs": [
        {
          "indexed": true,
          "internalType": "address",
          "name": "depositor",
          "type": "address"
        },
        {
          "indexed": false,
          "internalType": "uint256",
          "name": "deposited",
          "type": "uint256"
        },
        {
          "indexed": false,
          "internalType": "uint256[5]",
          "name": "amounts",
          "type": "uint256[5]"
        },
        {
          "indexed": true,
          "internalType": "uint256",
          "name": "sid",
          "type": "uint256"
        }
      ],
      "name": "Deposited",
      "type": "event"
    },
    {
      "anonymous": false,
      "inputs": [
        {
          "indexed": true,
          "internalType": "address",
          "name": "pool",
          "type": "address"
        }
      ],
      "name": "DisableStrategy",
      "type": "event"
    },
    {
      "anonymous": false,
      "inputs": [
        {
          "indexed": true,
          "internalType": "address",
          "name": "pool",
          "type": "address"
        }
      ],
      "name": "EnabledStrategy",
      "type": "event"
    },
    {
      "anonymous": false,
      "inputs": [
        {
          "indexed": true,
          "internalType": "address",
          "name": "withdrawer",
          "type": "address"
        },
        {
          "indexed": false,
          "internalType": "uint256[5]",
          "name": "amounts",
          "type": "uint256[5]"
        },
        {
          "indexed": false,
          "internalType": "uint256",
          "name": "withdrawn",
          "type": "uint256"
        }
      ],
      "name": "FailedWithdrawal",
      "type": "event"
    },
    {
      "anonymous": false,
      "inputs": [
        {
          "indexed": false,
          "internalType": "address",
          "name": "account",
          "type": "address"
        }
      ],
      "name": "Paused",
      "type": "event"
    },
    {
      "anonymous": false,
      "inputs": [
        {
          "indexed": true,
          "internalType": "bytes32",
          "name": "role",
          "type": "bytes32"
        },
        {
          "indexed": true,
          "internalType": "bytes32",
          "name": "previousAdminRole",
          "type": "bytes32"
        },
        {
          "indexed": true,
          "internalType": "bytes32",
          "name": "newAdminRole",
          "type": "bytes32"
        }
      ],
      "name": "RoleAdminChanged",
      "type": "event"
    },
    {
      "anonymous": false,
      "inputs": [
        {
          "indexed": true,
          "internalType": "bytes32",
          "name": "role",
          "type": "bytes32"
        },
        {
          "indexed": true,
          "internalType": "address",
          "name": "account",
          "type": "address"
        },
        {
          "indexed": true,
          "internalType": "address",
          "name": "sender",
          "type": "address"
        }
      ],
      "name": "RoleGranted",
      "type": "event"
    },
    {
      "anonymous": false,
      "inputs": [
        {
          "indexed": true,
          "internalType": "bytes32",
          "name": "role",
          "type": "bytes32"
        },
        {
          "indexed": true,
          "internalType": "address",
          "name": "account",
          "type": "address"
        },
        {
          "indexed": true,
          "internalType": "address",
          "name": "sender",
          "type": "address"
        }
      ],
      "name": "RoleRevoked",
      "type": "event"
    },
    {
      "anonymous": false,
      "inputs": [
        {
          "indexed": true,
          "internalType": "address",
          "name": "from",
          "type": "address"
        },
        {
          "indexed": true,
          "internalType": "address",
          "name": "to",
          "type": "address"
        },
        {
          "indexed": false,
          "internalType": "uint256",
          "name": "value",
          "type": "uint256"
        }
      ],
      "name": "Transfer",
      "type": "event"
    },
    {
      "anonymous": false,
      "inputs": [
        {
          "indexed": false,
          "internalType": "address",
          "name": "account",
          "type": "address"
        }
      ],
      "name": "Unpaused",
      "type": "event"
    },
    {
      "anonymous": false,
      "inputs": [
        {
          "indexed": true,
          "internalType": "uint256",
          "name": "tid",
          "type": "uint256"
        },
        {
          "indexed": true,
          "internalType": "address",
          "name": "token",
          "type": "address"
        },
        {
          "indexed": false,
          "internalType": "uint256",
          "name": "tokenDecimalMultiplier",
          "type": "uint256"
        },
        {
          "indexed": false,
          "internalType": "address",
          "name": "tokenOld",
          "type": "address"
        }
      ],
      "name": "UpdatedToken",
      "type": "event"
    },
    {
      "anonymous": false,
      "inputs": [
        {
          "indexed": true,
          "internalType": "address",
          "name": "withdrawer",
          "type": "address"
        },
        {
          "indexed": false,
          "internalType": "uint256",
          "name": "withdrawn",
          "type": "uint256"
        },
        {
          "indexed": true,
          "internalType": "uint256",
          "name": "sid",
          "type": "uint256"
        }
      ],
      "name": "Withdrawn",
      "type": "event"
    },
    {
      "inputs": [],
      "name": "CONTROLLER_ROLE",
      "outputs": [
        {
          "internalType": "bytes32",
          "name": "",
          "type": "bytes32"
        }
      ],
      "stateMutability": "view",
      "type": "function"
    },
    {
      "inputs": [],
      "name": "DEFAULT_ADMIN_ROLE",
      "outputs": [
        {
          "internalType": "bytes32",
          "name": "",
          "type": "bytes32"
        }
      ],
      "stateMutability": "view",
      "type": "function"
    },
    {
      "inputs": [],
      "name": "EMERGENCY_ADMIN_ROLE",
      "outputs": [
        {
          "internalType": "bytes32",
          "name": "",
          "type": "bytes32"
        }
      ],
      "stateMutability": "view",
      "type": "function"
    },
    {
      "inputs": [],
      "name": "FUNDS_DENOMINATOR",
      "outputs": [
        {
          "internalType": "uint256",
          "name": "",
          "type": "uint256"
        }
      ],
      "stateMutability": "view",
      "type": "function"
    },
    {
      "inputs": [],
      "name": "MINIMUM_LIQUIDITY",
      "outputs": [
        {
          "internalType": "uint256",
          "name": "",
          "type": "uint256"
        }
      ],
      "stateMutability": "view",
      "type": "function"
    },
    {
      "inputs": [],
      "name": "MINIMUM_LIQUIDITY_LOCKER",
      "outputs": [
        {
          "internalType": "address",
          "name": "",
          "type": "address"
        }
      ],
      "stateMutability": "view",
      "type": "function"
    },
    {
      "inputs": [],
      "name": "MIN_LOCK_TIME",
      "outputs": [
        {
          "internalType": "uint256",
          "name": "",
          "type": "uint256"
        }
      ],
      "stateMutability": "view",
      "type": "function"
    },
    {
      "inputs": [],
      "name": "POOL_ASSETS",
      "outputs": [
        {
          "internalType": "uint8",
          "name": "",
          "type": "uint8"
        }
      ],
      "stateMutability": "view",
      "type": "function"
    },
    {
      "inputs": [],
      "name": "RATIO_MULTIPLIER",
      "outputs": [
        {
          "internalType": "uint256",
          "name": "",
          "type": "uint256"
        }
      ],
      "stateMutability": "view",
      "type": "function"
    },
    {
      "inputs": [
        {
          "internalType": "address",
          "name": "_strategyAddr",
          "type": "address"
        }
      ],
      "name": "addStrategy",
      "outputs": [],
      "stateMutability": "nonpayable",
      "type": "function"
    },
    {
      "inputs": [
        {
          "internalType": "address",
          "name": "owner",
          "type": "address"
        },
        {
          "internalType": "address",
          "name": "spender",
          "type": "address"
        }
      ],
      "name": "allowance",
      "outputs": [
        {
          "internalType": "uint256",
          "name": "",
          "type": "uint256"
        }
      ],
      "stateMutability": "view",
      "type": "function"
    },
    {
      "inputs": [
        {
          "internalType": "address",
          "name": "spender",
          "type": "address"
        },
        {
          "internalType": "uint256",
          "name": "value",
          "type": "uint256"
        }
      ],
      "name": "approve",
      "outputs": [
        {
          "internalType": "bool",
          "name": "",
          "type": "bool"
        }
      ],
      "stateMutability": "nonpayable",
      "type": "function"
    },
    {
      "inputs": [
        {
          "internalType": "address",
          "name": "account",
          "type": "address"
        }
      ],
      "name": "balanceOf",
      "outputs": [
        {
          "internalType": "uint256",
          "name": "",
          "type": "uint256"
        }
      ],
      "stateMutability": "view",
      "type": "function"
    },
    {
      "inputs": [
        {
          "internalType": "address",
          "name": "receiver",
          "type": "address"
        },
        {
          "internalType": "contract IERC20[]",
          "name": "rewardTokens",
          "type": "address[]"
        }
      ],
      "name": "claimRewards",
      "outputs": [],
      "stateMutability": "nonpayable",
      "type": "function"
    },
    {
      "inputs": [],
      "name": "decimals",
      "outputs": [
        {
          "internalType": "uint8",
          "name": "",
          "type": "uint8"
        }
      ],
      "stateMutability": "view",
      "type": "function"
    },
    {
      "inputs": [
        {
          "internalType": "uint256",
          "name": "sid",
          "type": "uint256"
        },
        {
          "internalType": "uint256[5]",
          "name": "amounts",
          "type": "uint256[5]"
        },
        {
          "internalType": "address",
          "name": "receiver",
          "type": "address"
        }
      ],
      "name": "deposit",
      "outputs": [
        {
          "internalType": "uint256",
          "name": "",
          "type": "uint256"
        }
      ],
      "stateMutability": "nonpayable",
      "type": "function"
    },
    {
      "inputs": [
        {
          "internalType": "uint256",
          "name": "sid",
          "type": "uint256"
        },
        {
          "internalType": "uint256[5]",
          "name": "amounts",
          "type": "uint256[5]"
        }
      ],
      "name": "depositStrategy",
      "outputs": [
        {
          "internalType": "uint256",
          "name": "",
          "type": "uint256"
        }
      ],
      "stateMutability": "nonpayable",
      "type": "function"
    },
    {
      "inputs": [
        {
          "internalType": "uint256",
          "name": "_sid",
          "type": "uint256"
        }
      ],
      "name": "disableStrategy",
      "outputs": [],
      "stateMutability": "nonpayable",
      "type": "function"
    },
    {
      "inputs": [
        {
          "internalType": "uint256",
          "name": "_sid",
          "type": "uint256"
        }
      ],
      "name": "enableStrategy",
      "outputs": [],
      "stateMutability": "nonpayable",
      "type": "function"
    },
    {
      "inputs": [],
      "name": "extraGains",
      "outputs": [
        {
          "internalType": "uint256",
          "name": "",
          "type": "uint256"
        }
      ],
      "stateMutability": "view",
      "type": "function"
    },
    {
      "inputs": [],
      "name": "extraGainsMintedBlock",
      "outputs": [
        {
          "internalType": "uint256",
          "name": "",
          "type": "uint256"
        }
      ],
      "stateMutability": "view",
      "type": "function"
    },
    {
      "inputs": [
        {
          "internalType": "bytes32",
          "name": "role",
          "type": "bytes32"
        }
      ],
      "name": "getRoleAdmin",
      "outputs": [
        {
          "internalType": "bytes32",
          "name": "",
          "type": "bytes32"
        }
      ],
      "stateMutability": "view",
      "type": "function"
    },
    {
      "inputs": [
        {
          "internalType": "bytes32",
          "name": "role",
          "type": "bytes32"
        },
        {
          "internalType": "address",
          "name": "account",
          "type": "address"
        }
      ],
      "name": "grantRole",
      "outputs": [],
      "stateMutability": "nonpayable",
      "type": "function"
    },
    {
      "inputs": [
        {
          "internalType": "bytes32",
          "name": "role",
          "type": "bytes32"
        },
        {
          "internalType": "address",
          "name": "account",
          "type": "address"
        }
      ],
      "name": "hasRole",
      "outputs": [
        {
          "internalType": "bool",
          "name": "",
          "type": "bool"
        }
      ],
      "stateMutability": "view",
      "type": "function"
    },
    {
      "inputs": [],
      "name": "launch",
      "outputs": [],
      "stateMutability": "nonpayable",
      "type": "function"
    },
    {
      "inputs": [],
      "name": "launched",
      "outputs": [
        {
          "internalType": "bool",
          "name": "",
          "type": "bool"
        }
      ],
      "stateMutability": "view",
      "type": "function"
    },
    {
      "inputs": [
        {
          "internalType": "address",
          "name": "receiver",
          "type": "address"
        }
      ],
      "name": "mintAndClaimExtraGains",
      "outputs": [],
      "stateMutability": "nonpayable",
      "type": "function"
    },
    {
      "inputs": [
        {
          "internalType": "uint256[]",
          "name": "_strategies",
          "type": "uint256[]"
        },
        {
          "internalType": "uint256[]",
          "name": "_withdrawalsPercents",
          "type": "uint256[]"
        },
        {
          "internalType": "uint256",
          "name": "_receiverStrategy",
          "type": "uint256"
        },
        {
          "internalType": "uint256[5][]",
          "name": "_minAmounts",
          "type": "uint256[5][]"
        }
      ],
      "name": "moveFundsBatch",
      "outputs": [],
      "stateMutability": "nonpayable",
      "type": "function"
    },
    {
      "inputs": [],
      "name": "name",
      "outputs": [
        {
          "internalType": "string",
          "name": "",
          "type": "string"
        }
      ],
      "stateMutability": "view",
      "type": "function"
    },
    {
      "inputs": [],
      "name": "pause",
      "outputs": [],
      "stateMutability": "nonpayable",
      "type": "function"
    },
    {
      "inputs": [],
      "name": "paused",
      "outputs": [
        {
          "internalType": "bool",
          "name": "",
          "type": "bool"
        }
      ],
      "stateMutability": "view",
      "type": "function"
    },
    {
      "inputs": [
        {
          "internalType": "bytes32",
          "name": "role",
          "type": "bytes32"
        },
        {
          "internalType": "address",
          "name": "callerConfirmation",
          "type": "address"
        }
      ],
      "name": "renounceRole",
      "outputs": [],
      "stateMutability": "nonpayable",
      "type": "function"
    },
    {
      "inputs": [
        {
          "internalType": "bytes32",
          "name": "role",
          "type": "bytes32"
        },
        {
          "internalType": "address",
          "name": "account",
          "type": "address"
        }
      ],
      "name": "revokeRole",
      "outputs": [],
      "stateMutability": "nonpayable",
      "type": "function"
    },
    {
      "inputs": [
        {
          "internalType": "address[5]",
          "name": "tokens_",
          "type": "address[5]"
        },
        {
          "internalType": "uint256[5]",
          "name": "tokenDecimalMultipliers_",
          "type": "uint256[5]"
        }
      ],
      "name": "setTokens",
      "outputs": [],
      "stateMutability": "nonpayable",
      "type": "function"
    },
    {
      "inputs": [],
      "name": "strategyCount",
      "outputs": [
        {
          "internalType": "uint256",
          "name": "",
          "type": "uint256"
        }
      ],
      "stateMutability": "view",
      "type": "function"
    },
    {
      "inputs": [
        {
          "internalType": "uint256",
          "name": "sid",
          "type": "uint256"
        }
      ],
      "name": "strategyInfo",
      "outputs": [
        {
          "components": [
            {
              "internalType": "contract IStrategy",
              "name": "strategy",
              "type": "address"
            },
            {
              "internalType": "uint256",
              "name": "startTime",
              "type": "uint256"
            },
            {
              "internalType": "uint256",
              "name": "minted",
              "type": "uint256"
            },
            {
              "internalType": "bool",
              "name": "enabled",
              "type": "bool"
            }
          ],
          "internalType": "struct IPool.StrategyInfo",
          "name": "",
          "type": "tuple"
        }
      ],
      "stateMutability": "view",
      "type": "function"
    },
    {
      "inputs": [
        {
          "internalType": "bytes4",
          "name": "interfaceId",
          "type": "bytes4"
        }
      ],
      "name": "supportsInterface",
      "outputs": [
        {
          "internalType": "bool",
          "name": "",
          "type": "bool"
        }
      ],
      "stateMutability": "view",
      "type": "function"
    },
    {
      "inputs": [],
      "name": "symbol",
      "outputs": [
        {
          "internalType": "string",
          "name": "",
          "type": "string"
        }
      ],
      "stateMutability": "view",
      "type": "function"
    },
    {
      "inputs": [
        {
          "internalType": "uint256",
          "name": "tid",
          "type": "uint256"
        }
      ],
      "name": "token",
      "outputs": [
        {
          "internalType": "contract IERC20",
          "name": "",
          "type": "address"
        }
      ],
      "stateMutability": "view",
      "type": "function"
    },
    {
      "inputs": [],
      "name": "tokenDecimalsMultipliers",
      "outputs": [
        {
          "internalType": "uint256[5]",
          "name": "",
          "type": "uint256[5]"
        }
      ],
      "stateMutability": "view",
      "type": "function"
    },
    {
      "inputs": [],
      "name": "tokens",
      "outputs": [
        {
          "internalType": "contract IERC20[5]",
          "name": "",
          "type": "address[5]"
        }
      ],
      "stateMutability": "view",
      "type": "function"
    },
    {
      "inputs": [],
      "name": "totalHoldings",
      "outputs": [
        {
          "internalType": "uint256",
          "name": "",
          "type": "uint256"
        }
      ],
      "stateMutability": "view",
      "type": "function"
    },
    {
      "inputs": [],
      "name": "totalSupply",
      "outputs": [
        {
          "internalType": "uint256",
          "name": "",
          "type": "uint256"
        }
      ],
      "stateMutability": "view",
      "type": "function"
    },
    {
      "inputs": [
        {
          "internalType": "address",
          "name": "to",
          "type": "address"
        },
        {
          "internalType": "uint256",
          "name": "value",
          "type": "uint256"
        }
      ],
      "name": "transfer",
      "outputs": [
        {
          "internalType": "bool",
          "name": "",
          "type": "bool"
        }
      ],
      "stateMutability": "nonpayable",
      "type": "function"
    },
    {
      "inputs": [
        {
          "internalType": "address",
          "name": "from",
          "type": "address"
        },
        {
          "internalType": "address",
          "name": "to",
          "type": "address"
        },
        {
          "internalType": "uint256",
          "name": "value",
          "type": "uint256"
        }
      ],
      "name": "transferFrom",
      "outputs": [
        {
          "internalType": "bool",
          "name": "",
          "type": "bool"
        }
      ],
      "stateMutability": "nonpayable",
      "type": "function"
    },
    {
      "inputs": [],
      "name": "unpause",
      "outputs": [],
      "stateMutability": "nonpayable",
      "type": "function"
    },
    {
      "inputs": [
        {
          "internalType": "uint256",
          "name": "sid",
          "type": "uint256"
        },
        {
          "internalType": "uint256",
          "name": "stableAmount",
          "type": "uint256"
        },
        {
          "internalType": "uint256[5]",
          "name": "tokenAmounts",
          "type": "uint256[5]"
        },
        {
          "internalType": "address",
          "name": "receiver",
          "type": "address"
        }
      ],
      "name": "withdraw",
      "outputs": [],
      "stateMutability": "nonpayable",
      "type": "function"
    }
  ],
  "bytecode": "0x60806040523480156200001157600080fd5b50604051620033473803806200334783398101604081905262000034916200021e565b8181600362000044838262000319565b50600462000053828262000319565b50506005805460ff19169055506200006d600033620000a3565b506200009a7f5358bcfd81d1ef3da152b1755e1c3c6739686fa7e83dbcad0071568cc4b73a6333620000a3565b505050620003e5565b60008281526006602090815260408083206001600160a01b038516845290915281205460ff166200014c5760008381526006602090815260408083206001600160a01b03861684529091529020805460ff19166001179055620001033390565b6001600160a01b0316826001600160a01b0316847f2f8788117e7eff1d82e926ec794901d17c78024a50270940304540a733656f0d60405160405180910390a450600162000150565b5060005b92915050565b634e487b7160e01b600052604160045260246000fd5b600082601f8301126200017e57600080fd5b81516001600160401b03808211156200019b576200019b62000156565b604051601f8301601f19908116603f01168101908282118183101715620001c657620001c662000156565b8160405283815260209250866020858801011115620001e457600080fd5b600091505b83821015620002085785820183015181830184015290820190620001e9565b6000602085830101528094505050505092915050565b600080604083850312156200023257600080fd5b82516001600160401b03808211156200024a57600080fd5b62000258868387016200016c565b935060208501519150808211156200026f57600080fd5b506200027e858286016200016c565b9150509250929050565b600181811c908216806200029d57607f821691505b602082108103620002be57634e487b7160e01b600052602260045260246000fd5b50919050565b601f82111562000314576000816000526020600020601f850160051c81016020861015620002ef5750805b601f850160051c820191505b818110156200031057828155600101620002fb565b5050505b505050565b81516001600160401b0381111562000335576200033562000156565b6200034d8162000346845462000288565b84620002c4565b602080601f8311600181146200038557600084156200036c5750858301515b600019600386901b1c1916600185901b17855562000310565b600085815260208120601f198616915b82811015620003b65788860151825594840194600190910190840162000395565b5085821015620003d55787850151600019600388901b60f8161c191681555b5050505050600190811b01905550565b612f5280620003f56000396000f3fe608060405234801561001057600080fd5b50600436106102955760003560e01c80636e76fc8f11610167578063a9059cbb116100ce578063bec5b69811610087578063bec5b698146105bf578063d547741f146105c8578063d5f651a41461053a578063dd62ed3e146105db578063e9ec2e9914610614578063f46a30201461061c57600080fd5b8063a9059cbb14610527578063ad5e34721461053a578063b549be3c14610549578063b6e432a91461055c578063ba9a7a5614610565578063bb91c3391461056e57600080fd5b806391d148541161012057806391d14854146104c957806395d89b41146104dc5780639d63848a146104e45780639d9a779c146104f9578063a217fddf1461050c578063a5e9dee41461051457600080fd5b80636e76fc8f1461045b57806370a082311461047057806375451b4f146104995780637aedb990146104a15780638091f3bf146104b45780638456cb59146104c157600080fd5b8063223e54791161020b578063391f8b96116101c4578063391f8b961461040f5780633f4ba83a146104225780633ff032071461042a5780635920192a146104345780635c975abb1461043d5780636766ea0f1461044857600080fd5b8063223e54791461038b57806323b872dd1461039e578063248a9ca3146103b15780632f2ff15d146103d4578063313ce567146103e757806336568abe146103fc57600080fd5b8063095ea7b31161025d578063095ea7b31461032f5780630ab5f869146103425780630d4b88071461035557806318160ddd146103685780632026ffa31461037057806322068b441461038357600080fd5b806301339c211461029a57806301ffc9a7146102a4578063044215c6146102cc57806306fdde03146102f7578063092c5b3b1461030c575b600080fd5b6102a2610631565b005b6102b76102b23660046126df565b61064c565b60405190151581526020015b60405180910390f35b6102df6102da366004612709565b610683565b6040516001600160a01b0390911681526020016102c3565b6102ff6106a9565b6040516102c39190612746565b610321600080516020612edd83398151915281565b6040519081526020016102c3565b6102b761033d36600461278e565b61073b565b61032161035036600461287a565b610753565b6102a261036336600461293a565b61079b565b600254610321565b6102a261037e366004612a31565b610aca565b600754610321565b6102a2610399366004612ae0565b610c30565b6102b76103ac366004612afd565b610e32565b6103216103bf366004612709565b60009081526006602052604090206001015490565b6102a26103e2366004612b3e565b610e58565b60125b60405160ff90911681526020016102c3565b6102a261040a366004612b3e565b610e83565b6102a261041d366004612b6e565b610ebb565b6102a2610ed0565b6103216201518081565b6102df61dead81565b60055460ff166102b7565b610321610456366004612be8565b610ee6565b610321600080516020612efd83398151915281565b61032161047e366004612ae0565b6001600160a01b031660009081526020819052604090205490565b6103ea600581565b6102a26104af366004612709565b610f61565b6014546102b79060ff1681565b6102a2611031565b6102b76104d7366004612b3e565b611051565b6102ff61107c565b6104ec61108b565b6040516102c39190612c29565b6102a2610507366004612709565b6110d0565b610321600081565b6102a2610522366004612ae0565b611193565b6102b761053536600461278e565b6111c0565b610321670de0b6b3a764000081565b6102a2610557366004612c63565b6111ce565b61032160135481565b6103216103e881565b61058161057c366004612709565b61136e565b6040516102c3919081516001600160a01b03168152602080830151908201526040808301519082015260609182015115159181019190915260800190565b61032160125481565b6102a26105d6366004612b3e565b6113fa565b6103216105e9366004612cad565b6001600160a01b03918216600090815260016020908152604080832093909416825291909152205490565b61032161141f565b610624611528565b6040516102c39190612cfe565b600061063c81611563565b506014805460ff19166001179055565b60006001600160e01b03198216637965db0b60e01b148061067d57506301ffc9a760e01b6001600160e01b03198316145b92915050565b60006008826005811061069857610698612d0c565b01546001600160a01b031692915050565b6060600380546106b890612d22565b80601f01602080910402602001604051908101604052809291908181526020018280546106e490612d22565b80156107315780601f1061070657610100808354040283529160200191610731565b820191906000526020600020905b81548152906001019060200180831161071457829003601f168201915b5050505050905090565b60003361074981858561156d565b5060019392505050565b600061075d61157a565b600080516020612edd83398151915261077581611563565b61077e846115a0565b610787846115c5565b610791848461160d565b91505b5092915050565b600080516020612efd8339815191526107b381611563565b83518551146107d55760405163f9e0bc9b60e01b815260040160405180910390fd5b60075483106107f757604051631964c57360e11b815260040160405180910390fd5b610800836115a0565b6108098361174e565b60008060005b87518110156108855787818151811061082a5761082a612d0c565b602002602001015192506108718388838151811061084a5761084a612d0c565b602002602001015187848151811061086457610864612d0c565b6020026020010151611798565b61087b9083612d72565b915060010161080f565b50806007868154811061089a5761089a612d0c565b906000526020600020906004020160020160008282546108ba9190612d72565b909155506108c890506126c1565b60005b6005811015610a00576000600882600581106108e9576108e9612d0c565b01546001600160a01b03169050806109015750610a00565b6040516370a0823160e01b81523060048201526001600160a01b038216906370a0823190602401602060405180830381865afa158015610945573d6000803e3d6000fd5b505050506040513d601f19601f820116820180604052508101906109699190612d85565b83836005811061097b5761097b612d0c565b6020020152600083836005811061099457610994612d0c565b602002015111156109f7576109f7600789815481106109b5576109b5612d0c565b60009182526020909120600490910201546001600160a01b03168484600581106109e1576109e1612d0c565b60200201516001600160a01b03841691906119e7565b506001016108cb565b5060078681548110610a1457610a14612d0c565b600091825260209091206004918202015460405163b67d611d60e01b81526001600160a01b039091169163b67d611d91610a5091859101612cfe565b6020604051808303816000875af1158015610a6f573d6000803e3d6000fd5b505050506040513d601f19601f82011682018060405250810190610a939190612d85565b600003610ac05785816040516331ea9deb60e11b8152600401610ab7929190612d9e565b60405180910390fd5b5050505050505050565b600080516020612edd833981519152610ae281611563565b610aea611a39565b610af383611b6d565b60005b600754811015610be957600060078281548110610b1557610b15612d0c565b600091825260209182902060408051608081018252600490930290910180546001600160a01b03168352600181015493830193909352600283015490820181905260039092015460ff1615156060820152915015801590610b77575080606001515b15610be0578051604051632026ffa360e01b81526001600160a01b0390911690632026ffa390610bad9088908890600401612df7565b600060405180830381600087803b158015610bc757600080fd5b505af1158015610bdb573d6000803e3d6000fd5b505050505b50600101610af6565b50826001600160a01b03167fc40901f1d03c33b46234c92521befa858a2264a718b553a3d1d2fd284ad4424083604051610c239190612e1b565b60405180910390a2505050565b6000610c3b81611563565b6001600160a01b038216610c625760405163d92e233d60e01b815260040160405180910390fd5b60005b600754811015610cc75760078181548110610c8257610c82612d0c565b60009182526020909120600490910201546001600160a01b0390811690841603610cbf576040516303ee72d760e51b815260040160405180910390fd5b600101610c65565b5060145460009060ff16610cdc576000610ce1565b620151805b610ceb9042612d72565b604080516080810182526001600160a01b038681168083526020830185815260009484018581526001606086018181526007805480840182559881905296517fa66cc928b5edb82af9bd49922954155ab7b0942694bea4ce44661d9a8736c688600490990298890180546001600160a01b031916919097161790955591517fa66cc928b5edb82af9bd49922954155ab7b0942694bea4ce44661d9a8736c689870155517fa66cc928b5edb82af9bd49922954155ab7b0942694bea4ce44661d9a8736c68a86015591517fa66cc928b5edb82af9bd49922954155ab7b0942694bea4ce44661d9a8736c68b909401805460ff19169415159490941790935590549293509091610df99190612e2e565b6040518381527f3a64755f61c73ed1f60bd0a9660e9cb66aa01817ea10d5b44d216a3ff95cca0e906020015b60405180910390a3505050565b600033610e40858285611c3c565b610e4b858585611cb4565b60019150505b9392505050565b600082815260066020526040902060010154610e7381611563565b610e7d8383611d13565b50505050565b6001600160a01b0381163314610eac5760405163334bd91960e11b815260040160405180910390fd5b610eb68282611da7565b505050565b6000610ec681611563565b610eb68383611e14565b6000610edb81611563565b610ee3612066565b50565b6000610ef061157a565b600080516020612edd833981519152610f0881611563565b610f11856115a0565b610f1a856115c5565b610f238561174e565b6001600160a01b038316610f35573392505b610f3d611a39565b6000610f49868661160d565b9050610f57848287896120b8565b9695505050505050565b600080516020612efd833981519152610f7981611563565b6007548210610f9b5760405163a458994160e01b815260040160405180910390fd5b600060078381548110610fb057610fb0612d0c565b906000526020600020906004020160030160006101000a81548160ff02191690831515021790555060078281548110610feb57610feb612d0c565b600091825260208220600490910201546040516001600160a01b03909116917f8b35b417b16faa66c73c967944e5e1e2a14e1b75b0c047b18ac49c8e5f84799a91a25050565b600080516020612efd83398151915261104981611563565b610ee36121a0565b60009182526006602090815260408084206001600160a01b0393909316845291905290205460ff1690565b6060600480546106b890612d22565b6110936126c1565b6040805160a08101918290529060089060059082845b81546001600160a01b031681526001909101906020018083116110a9575050505050905090565b60006110db81611563565b60075482106110fd5760405163a458994160e01b815260040160405180910390fd5b60016007838154811061111257611112612d0c565b906000526020600020906004020160030160006101000a81548160ff0219169083151502179055506007828154811061114d5761114d612d0c565b600091825260208220600490910201546040516001600160a01b03909116917f532492ef4d4edd78444556c1b5038901e11c232361675fe6d5e6bea2f0864e1991a25050565b600080516020612edd8339815191526111ab81611563565b6111b3611a39565b6111bc82611b6d565b5050565b600033610749818585611cb4565b6111d661157a565b600080516020612edd8339815191526111ee81611563565b6111f7856115a0565b611200856115c5565b6112098561174e565b60006007868154811061121e5761121e612d0c565b600091825260208220600490910201546001600160a01b031691506112403390565b905085611262826001600160a01b031660009081526020819052604090205490565b1015611281576040516349986e7360e01b815260040160405180910390fd5b611289611a39565b6001600160a01b0380831690636d9164c6908616156112a857856112aa565b825b6112d88960078c815481106112c1576112c1612d0c565b9060005260206000209060040201600201546121dd565b886040518463ffffffff1660e01b81526004016112f793929190612e41565b6020604051808303816000875af1158015611316573d6000803e3d6000fd5b505050506040513d601f19601f8201168201806040525081019061133a9190612e65565b61135a5760405163ee9684e760e01b815260048101889052602401610ab7565b611365818789612230565b50505050505050565b604080516080810182526000808252602082018190529181018290526060810191909152600782815481106113a5576113a5612d0c565b600091825260209182902060408051608081018252600490930290910180546001600160a01b0316835260018101549383019390935260028301549082015260039091015460ff161515606082015292915050565b60008281526006602052604090206001015461141581611563565b610e7d8383611da7565b60075460009081805b828110156107945760006007828154811061144557611445612d0c565b600091825260209182902060408051608081018252600490930290910180546001600160a01b03168352600181015493830193909352600283015490820181905260039092015460ff16151560608201529150158015906114a7575080606001515b1561151f5780600001516001600160a01b031663e9ec2e996040518163ffffffff1660e01b8152600401602060405180830381865afa1580156114ee573d6000803e3d6000fd5b505050506040513d601f19601f820116820180604052508101906115129190612d85565b61151c9084612d72565b92505b50600101611428565b6115306126c1565b6040805160a081019182905290600d9060059082845b815481526020019060010190808311611546575050505050905090565b610ee381336122b0565b610eb683838360016122e9565b60055460ff161561159e5760405163d93c066560e01b815260040160405180910390fd5b565b6007548110610ee3576040516306796a2560e21b815260048101829052602401610ab7565b600781815481106115d8576115d8612d0c565b906000526020600020906004020160010154421015610ee357604051631744fd1760e21b815260048101829052602401610ab7565b6000806007848154811061162357611623612d0c565b600091825260208220600490910201546001600160a01b031691505b60058110156116af57600084826005811061165c5761165c612d0c565b602002015111156116a7576116a78285836005811061167d5761167d612d0c565b60200201516008846005811061169557611695612d0c565b01546001600160a01b031691906119e7565b60010161163f565b506116b8611a39565b60405163b67d611d60e01b81526001600160a01b0382169063b67d611d906116e4908690600401612cfe565b6020604051808303816000875af1158015611703573d6000803e3d6000fd5b505050506040513d601f19601f820116820180604052508101906117279190612d85565b9150816000036107945783836040516331ea9deb60e11b8152600401610ab7929190612d9e565b6007818154811061176157611761612d0c565b600091825260209091206003600490920201015460ff16610ee35760405163277d558560e21b815260048101829052602401610ab7565b60008215806117ae5750670de0b6b3a764000083115b156117cc576040516397a41b9760e01b815260040160405180910390fd5b670de0b6b3a764000083036118b257600784815481106117ee576117ee612d0c565b906000526020600020906004020160020154905060006007858154811061181757611817612d0c565b9060005260206000209060040201600201819055506007848154811061183f5761183f612d0c565b6000918252602090912060049182020154604051632069ee2560e21b81526001600160a01b03909116916381a7b8949161187b91869101612cfe565b600060405180830381600087803b15801561189557600080fd5b505af11580156118a9573d6000803e3d6000fd5b50505050610e51565b670de0b6b3a764000083600786815481106118cf576118cf612d0c565b9060005260206000209060040201600201546118eb9190612e87565b6118f59190612e9e565b9050806007858154811061190b5761190b612d0c565b9060005260206000209060040201600201600082825461192b9190612e2e565b9091555050600780548590811061194457611944612d0c565b60009182526020909120600491820201546040516336c8b26360e11b81526001600160a01b0390911691636d9164c6916119849130918891889101612e41565b6020604051808303816000875af11580156119a3573d6000803e3d6000fd5b505050506040513d601f19601f820116820180604052508101906119c79190612e65565b610e515760405163ee9684e760e01b815260048101859052602401610ab7565b604080516001600160a01b038416602482015260448082018490528251808303909101815260649091019091526020810180516001600160e01b031663a9059cbb60e01b179052610eb69084906123be565b4360135403611a4457565b60008060005b600754811015611b3b57600060078281548110611a6957611a69612d0c565b9060005260206000209060040201905060008160020154118015611a915750600381015460ff165b15611b315780546040805163e9ec2e9960e01b815290516000926001600160a01b03169163e9ec2e999160048083019260209291908290030181865afa158015611adf573d6000803e3d6000fd5b505050506040513d601f19601f82011682018060405250810190611b039190612d85565b6002830154909150808211611b1a57505050611b33565b600283018054919092039081019091559384019392505b505b600101611a4a565b5081600003611b48575050565b8160126000828254611b5a9190612d72565b9091555050436013556111bc3083612421565b601254600003611b7a5750565b60128054600090915560405163a9059cbb60e01b81526001600160a01b038316600482015260248101829052309063a9059cbb906044016020604051808303816000875af1158015611bd0573d6000803e3d6000fd5b505050506040513d601f19601f82011682018060405250810190611bf49190612e65565b50816001600160a01b03167f679522ada03e2aff72b5376caa48a92d6cf1520bc5816e47488103cf974a3e2e82604051611c3091815260200190565b60405180910390a25050565b6001600160a01b038381166000908152600160209081526040808320938616835292905220546000198114610e7d5781811015611ca557604051637dc7a0d960e11b81526001600160a01b03841660048201526024810182905260448101839052606401610ab7565b610e7d848484840360006122e9565b6001600160a01b038316611cde57604051634b637e8f60e11b815260006004820152602401610ab7565b6001600160a01b038216611d085760405163ec442f0560e01b815260006004820152602401610ab7565b610eb6838383612453565b6000611d1f8383611051565b611d9f5760008381526006602090815260408083206001600160a01b03861684529091529020805460ff19166001179055611d573390565b6001600160a01b0316826001600160a01b0316847f2f8788117e7eff1d82e926ec794901d17c78024a50270940304540a733656f0d60405160405180910390a450600161067d565b50600061067d565b6000611db38383611051565b15611d9f5760008381526006602090815260408083206001600160a01b0386168085529252808320805460ff1916905551339286917ff6391f5c32d9c69d2a47ea670b442974b53935d1edc7fd64eb21e047a839171b9190a450600161067d565b6000805b6005811015610e7d57818015611e4e57506000848260058110611e3d57611e3d612d0c565b60200201516001600160a01b031614155b15611e6c57604051631d37a6fd60e11b815260040160405180910390fd5b6000848260058110611e8057611e80612d0c565b60200201516001600160a01b031603611e9857600191505b6000848260058110611eac57611eac612d0c565b60200201516001600160a01b031614158015611edc5750828160058110611ed557611ed5612d0c565b6020020151155b80611f2657506000848260058110611ef657611ef6612d0c565b60200201516001600160a01b0316148015611f265750828160058110611f1e57611f1e612d0c565b602002015115155b15611f445760405163bfa45dc560e01b815260040160405180910390fd5b600060088260058110611f5957611f59612d0c565b01546001600160a01b03169050848260058110611f7857611f78612d0c565b602002015160088360058110611f9057611f90612d0c565b0180546001600160a01b0319166001600160a01b0392909216919091179055838260058110611fc157611fc1612d0c565b6020020151600d8360058110611fd957611fd9612d0c565b0155848260058110611fed57611fed612d0c565b60200201516001600160a01b0316827ff747b83f770806e3d1cf3aa94c1cbd9bebc565cd5a9fc5ec4668d7304321a86e86856005811061202f5761202f612d0c565b6020020151846040516120559291909182526001600160a01b0316602082015260400190565b60405180910390a350600101611e18565b61206e612570565b6005805460ff191690557f5db9ee0a495bf2e6ff9c91a7834c1ba4fdd244a5e8aa4e537bd38aeae4b073aa335b6040516001600160a01b03909116815260200160405180910390a1565b6000806120c460025490565b6000036120fd576103e885116120ed576040516349986e7360e01b815260040160405180910390fd5b506103e86120fd61dead82612421565b60006121098287612e2e565b90506121158782612421565b856007858154811061212957612129612d0c565b906000526020600020906004020160020160008282546121499190612d72565b9250508190555083876001600160a01b03167fa17ff9bbea81293417e3fe6571f199f77815934a9ca09121a83a4603cd83f3b7888860405161218c929190612d9e565b60405180910390a39150505b949350505050565b6121a861157a565b6005805460ff191660011790557f62e78cea01bee320cd4e420270b5ea74000d11b0c9f74754ebdbfc544b05a25861209b3390565b6000816121f2670de0b6b3a764000085612e87565b6121fc9190612e9e565b90508015806122125750670de0b6b3a764000081115b1561067d57604051634aa3778b60e01b815260040160405180910390fd5b61223a8383612593565b816007828154811061224e5761224e612d0c565b9060005260206000209060040201600201600082825461226e9190612e2e565b909155505060405182815281906001600160a01b038516907f92ccf450a286a957af52509bc1c9939d1a6a481783e142e41e2499f0bb66ebc690602001610e25565b6122ba8282611051565b6111bc5760405163e2517d3f60e01b81526001600160a01b038216600482015260248101839052604401610ab7565b6001600160a01b0384166123135760405163e602df0560e01b815260006004820152602401610ab7565b6001600160a01b03831661233d57604051634a1406b160e11b815260006004820152602401610ab7565b6001600160a01b0380851660009081526001602090815260408083209387168352929052208290558015610e7d57826001600160a01b0316846001600160a01b03167f8c5be1e5ebec7d5bd14f71427d1e84f3dd0314c0f7b2291e5b200ac8c7c3b925846040516123b091815260200190565b60405180910390a350505050565b60006123d36001600160a01b038416836125c9565b905080516000141580156123f85750808060200190518101906123f69190612e65565b155b15610eb657604051635274afe760e01b81526001600160a01b0384166004820152602401610ab7565b6001600160a01b03821661244b5760405163ec442f0560e01b815260006004820152602401610ab7565b6111bc600083835b6001600160a01b03831661247e5780600260008282546124739190612d72565b909155506124f09050565b6001600160a01b038316600090815260208190526040902054818110156124d15760405163391434e360e21b81526001600160a01b03851660048201526024810182905260448101839052606401610ab7565b6001600160a01b03841660009081526020819052604090209082900390555b6001600160a01b03821661250c5760028054829003905561252b565b6001600160a01b03821660009081526020819052604090208054820190555b816001600160a01b0316836001600160a01b03167fddf252ad1be2c89b69c2b068fc378daa952ba7f163c4a11628f55a4df523b3ef83604051610e2591815260200190565b60055460ff1661159e57604051638dfc202b60e01b815260040160405180910390fd5b6001600160a01b0382166125bd57604051634b637e8f60e11b815260006004820152602401610ab7565b6111bc82600083612453565b6060610e518383600084600080856001600160a01b031684866040516125ef9190612ec0565b60006040518083038185875af1925050503d806000811461262c576040519150601f19603f3d011682016040523d82523d6000602084013e612631565b606091505b5091509150610f578683836060826126515761264c82612698565b610e51565b815115801561266857506001600160a01b0384163b155b1561269157604051639996b31560e01b81526001600160a01b0385166004820152602401610ab7565b5080610e51565b8051156126a85780518082602001fd5b604051630a12f52160e11b815260040160405180910390fd5b6040518060a001604052806005906020820280368337509192915050565b6000602082840312156126f157600080fd5b81356001600160e01b031981168114610e5157600080fd5b60006020828403121561271b57600080fd5b5035919050565b60005b8381101561273d578181015183820152602001612725565b50506000910152565b6020815260008251806020840152612765816040850160208701612722565b601f01601f19169190910160400192915050565b6001600160a01b0381168114610ee357600080fd5b600080604083850312156127a157600080fd5b82356127ac81612779565b946020939093013593505050565b634e487b7160e01b600052604160045260246000fd5b60405160a0810167ffffffffffffffff811182821017156127f3576127f36127ba565b60405290565b604051601f8201601f1916810167ffffffffffffffff81118282101715612822576128226127ba565b604052919050565b600082601f83011261283b57600080fd5b6128436127d0565b8060a084018581111561285557600080fd5b845b8181101561286f578035845260209384019301612857565b509095945050505050565b60008060c0838503121561288d57600080fd5b8235915061289e846020850161282a565b90509250929050565b600067ffffffffffffffff8211156128c1576128c16127ba565b5060051b60200190565b600082601f8301126128dc57600080fd5b813560206128f16128ec836128a7565b6127f9565b8083825260208201915060208460051b87010193508684111561291357600080fd5b602086015b8481101561292f5780358352918301918301612918565b509695505050505050565b6000806000806080858703121561295057600080fd5b843567ffffffffffffffff8082111561296857600080fd5b612974888389016128cb565b95506020915060208701358181111561298c57600080fd5b61299889828a016128cb565b955050604087013593506060870135818111156129b457600080fd5b87019050601f810188136129c757600080fd5b80356129d56128ec826128a7565b8082825260208201915060a0602060a0850286010193508b8411156129f957600080fd5b6020850194505b83851015612a2157612a128c8661282a565b83529384019391850191612a00565b50979a9699509497505050505050565b60008060408385031215612a4457600080fd5b8235612a4f81612779565b915060208381013567ffffffffffffffff811115612a6c57600080fd5b8401601f81018613612a7d57600080fd5b8035612a8b6128ec826128a7565b81815260059190911b82018301908381019088831115612aaa57600080fd5b928401925b82841015612ad1578335612ac281612779565b82529284019290840190612aaf565b80955050505050509250929050565b600060208284031215612af257600080fd5b8135610e5181612779565b600080600060608486031215612b1257600080fd5b8335612b1d81612779565b92506020840135612b2d81612779565b929592945050506040919091013590565b60008060408385031215612b5157600080fd5b823591506020830135612b6381612779565b809150509250929050565b6000806101408385031215612b8257600080fd5b83601f840112612b9157600080fd5b612b996127d0565b8060a0850186811115612bab57600080fd5b855b81811015612bce578035612bc081612779565b845260209384019301612bad565b50819450612bdc878261282a565b93505050509250929050565b600080600060e08486031215612bfd57600080fd5b83359250612c0e856020860161282a565b915060c0840135612c1e81612779565b809150509250925092565b60a08101818360005b6005811015612c5a5781516001600160a01b0316835260209283019290910190600101612c32565b50505092915050565b6000806000806101008587031215612c7a57600080fd5b8435935060208501359250612c92866040870161282a565b915060e0850135612ca281612779565b939692955090935050565b60008060408385031215612cc057600080fd5b8235612ccb81612779565b91506020830135612b6381612779565b8060005b6005811015610e7d578151845260209384019390910190600101612cdf565b60a0810161067d8284612cdb565b634e487b7160e01b600052603260045260246000fd5b600181811c90821680612d3657607f821691505b602082108103612d5657634e487b7160e01b600052602260045260246000fd5b50919050565b634e487b7160e01b600052601160045260246000fd5b8082018082111561067d5761067d612d5c565b600060208284031215612d9757600080fd5b5051919050565b82815260c08101610e516020830184612cdb565b60008151808452602080850194506020840160005b83811015612dec5781516001600160a01b031687529582019590820190600101612dc7565b509495945050505050565b6001600160a01b038316815260406020820181905260009061219890830184612db2565b602081526000610e516020830184612db2565b8181038181111561067d5761067d612d5c565b6001600160a01b03841681526020810183905260e081016121986040830184612cdb565b600060208284031215612e7757600080fd5b81518015158114610e5157600080fd5b808202811582820484141761067d5761067d612d5c565b600082612ebb57634e487b7160e01b600052601260045260246000fd5b500490565b60008251612ed2818460208701612722565b919091019291505056fe7b765e0e932d348852a6f810bfa1ab891e259123f02db8cdcde614c5702233575358bcfd81d1ef3da152b1755e1c3c6739686fa7e83dbcad0071568cc4b73a63a26469706673582212201bd5f32171f58f5a26a8c0223393bb966d57a8e5587ead9bec978c79fb1a84d164736f6c63430008170033",
  "linkReferences": {},
  "deployedLinkReferences": {}
}