{
  "_format": "hh-sol-artifact-1",
  "contractName": "ZunamiPoolZunUSD",
  "sourceName": "contracts/configs/omnipool/ZunamiPoolZunUSD.sol",
  "abi": [
    {
      "inputs": [],
      "stateMutability": "nonpayable",
      "type": "constructor"
    },
    {
      "inputs": [
        {
          "internalType": "uint256",
          "name": "sid",
          "type": "uint256"
        }
      ],
      "name": "AbsentStrategy",
      "type": "error"
    },
    {
      "inputs": [],
      "name": "AccessControlBadConfirmation",
      "type": "error"
    },
    {
      "inputs": [
        {
          "internalType": "address",
          "name": "account",
          "type": "address"
        },
        {
          "internalType": "bytes32",
          "name": "neededRole",
          "type": "bytes32"
        }
      ],
      "name": "AccessControlUnauthorizedAccount",
      "type": "error"
    },
    {
      "inputs": [
        {
          "internalType": "address",
          "name": "target",
          "type": "address"
        }
      ],
      "name": "AddressEmptyCode",
      "type": "error"
    },
    {
      "inputs": [
        {
          "internalType": "address",
          "name": "account",
          "type": "address"
        }
      ],
      "name": "AddressInsufficientBalance",
      "type": "error"
    },
    {
      "inputs": [
        {
          "internalType": "uint256",
          "name": "sid",
          "type": "uint256"
        }
      ],
      "name": "DisabledStrategy",
      "type": "error"
    },
    {
      "inputs": [],
      "name": "DuplicatedStrategy",
      "type": "error"
    },
    {
      "inputs": [
        {
          "internalType": "address",
          "name": "spender",
          "type": "address"
        },
        {
          "internalType": "uint256",
          "name": "allowance",
          "type": "uint256"
        },
        {
          "internalType": "uint256",
          "name": "needed",
          "type": "uint256"
        }
      ],
      "name": "ERC20InsufficientAllowance",
      "type": "error"
    },
    {
      "inputs": [
        {
          "internalType": "address",
          "name": "sender",
          "type": "address"
        },
        {
          "internalType": "uint256",
          "name": "balance",
          "type": "uint256"
        },
        {
          "internalType": "uint256",
          "name": "needed",
          "type": "uint256"
        }
      ],
      "name": "ERC20InsufficientBalance",
      "type": "error"
    },
    {
      "inputs": [
        {
          "internalType": "address",
          "name": "approver",
          "type": "address"
        }
      ],
      "name": "ERC20InvalidApprover",
      "type": "error"
    },
    {
      "inputs": [
        {
          "internalType": "address",
          "name": "receiver",
          "type": "address"
        }
      ],
      "name": "ERC20InvalidReceiver",
      "type": "error"
    },
    {
      "inputs": [
        {
          "internalType": "address",
          "name": "sender",
          "type": "address"
        }
      ],
      "name": "ERC20InvalidSender",
      "type": "error"
    },
    {
      "inputs": [
        {
          "internalType": "address",
          "name": "spender",
          "type": "address"
        }
      ],
      "name": "ERC20InvalidSpender",
      "type": "error"
    },
    {
      "inputs": [],
      "name": "EnforcedPause",
      "type": "error"
    },
    {
      "inputs": [],
      "name": "ExpectedPause",
      "type": "error"
    },
    {
      "inputs": [],
      "name": "FailedInnerCall",
      "type": "error"
    },
    {
      "inputs": [],
      "name": "IncorrectArguments",
      "type": "error"
    },
    {
      "inputs": [],
      "name": "IncorrectSid",
      "type": "error"
    },
    {
      "inputs": [
        {
          "internalType": "uint256",
          "name": "sid",
          "type": "uint256"
        }
      ],
      "name": "NotStartedStrategy",
      "type": "error"
    },
    {
      "inputs": [
        {
          "internalType": "address",
          "name": "token",
          "type": "address"
        }
      ],
      "name": "SafeERC20FailedOperation",
      "type": "error"
    },
    {
      "inputs": [],
      "name": "WrongAmount",
      "type": "error"
    },
    {
      "inputs": [],
      "name": "WrongDecimalMultipliers",
      "type": "error"
    },
    {
      "inputs": [
        {
          "internalType": "uint256",
          "name": "sid",
          "type": "uint256"
        },
        {
          "internalType": "uint256[5]",
          "name": "amounts",
          "type": "uint256[5]"
        }
      ],
      "name": "WrongDeposit",
      "type": "error"
    },
    {
      "inputs": [],
      "name": "WrongRatio",
      "type": "error"
    },
    {
      "inputs": [],
      "name": "WrongReceiver",
      "type": "error"
    },
    {
      "inputs": [],
      "name": "WrongTokens",
      "type": "error"
    },
    {
      "inputs": [
        {
          "internalType": "uint256",
          "name": "sid",
          "type": "uint256"
        }
      ],
      "name": "WrongWithdrawParams",
      "type": "error"
    },
    {
      "inputs": [],
      "name": "WrongWithdrawPercent",
      "type": "error"
    },
    {
      "inputs": [],
      "name": "ZeroAddress",
      "type": "error"
    },
    {
      "anonymous": false,
      "inputs": [
        {
          "indexed": true,
          "internalType": "uint256",
          "name": "sid",
          "type": "uint256"
        },
        {
          "indexed": true,
          "internalType": "address",
          "name": "strategyAddr",
          "type": "address"
        },
        {
          "indexed": false,
          "internalType": "uint256",
          "name": "startTime",
          "type": "uint256"
        }
      ],
      "name": "AddedStrategy",
      "type": "event"
    },
    {
      "anonymous": false,
      "inputs": [
        {
          "indexed": true,
          "internalType": "address",
          "name": "owner",
          "type": "address"
        },
        {
          "indexed": true,
          "internalType": "address",
          "name": "spender",
          "type": "address"
        },
        {
          "indexed": false,
          "internalType": "uint256",
          "name": "value",
          "type": "uint256"
        }
      ],
      "name": "Approval",
      "type": "event"
    },
    {
      "anonymous": false,
      "inputs": [
        {
          "indexed": true,
          "internalType": "address",
          "name": "receiver",
          "type": "address"
        },
        {
          "indexed": false,
          "internalType": "uint256",
          "name": "amount",
          "type": "uint256"
        }
      ],
      "name": "ClaimedExtraGains",
      "type": "event"
    },
    {
      "anonymous": false,
      "inputs": [
        {
          "indexed": true,
          "internalType": "address",
          "name": "receiver",
          "type": "address"
        },
        {
          "indexed": false,
          "internalType": "contract IERC20[]",
          "name": "rewardTokens",
          "type": "address[]"
        }
      ],
      "name": "ClaimedRewards",
      "type": "event"
    },
    {
      "anonymous": false,
      "inputs": [
        {
          "indexed": true,
          "internalType": "address",
          "name": "depositor",
          "type": "address"
        },
        {
          "indexed": false,
          "internalType": "uint256",
          "name": "deposited",
          "type": "uint256"
        },
        {
          "indexed": false,
          "internalType": "uint256[5]",
          "name": "amounts",
          "type": "uint256[5]"
        },
        {
          "indexed": true,
          "internalType": "uint256",
          "name": "sid",
          "type": "uint256"
        }
      ],
      "name": "Deposited",
      "type": "event"
    },
    {
      "anonymous": false,
      "inputs": [
        {
          "indexed": true,
          "internalType": "address",
          "name": "pool",
          "type": "address"
        }
      ],
      "name": "DisableStrategy",
      "type": "event"
    },
    {
      "anonymous": false,
      "inputs": [
        {
          "indexed": true,
          "internalType": "address",
          "name": "pool",
          "type": "address"
        }
      ],
      "name": "EnabledStrategy",
      "type": "event"
    },
    {
      "anonymous": false,
      "inputs": [
        {
          "indexed": true,
          "internalType": "address",
          "name": "withdrawer",
          "type": "address"
        },
        {
          "indexed": false,
          "internalType": "uint256[5]",
          "name": "amounts",
          "type": "uint256[5]"
        },
        {
          "indexed": false,
          "internalType": "uint256",
          "name": "withdrawn",
          "type": "uint256"
        }
      ],
      "name": "FailedWithdrawal",
      "type": "event"
    },
    {
      "anonymous": false,
      "inputs": [
        {
          "indexed": false,
          "internalType": "address",
          "name": "account",
          "type": "address"
        }
      ],
      "name": "Paused",
      "type": "event"
    },
    {
      "anonymous": false,
      "inputs": [
        {
          "indexed": true,
          "internalType": "bytes32",
          "name": "role",
          "type": "bytes32"
        },
        {
          "indexed": true,
          "internalType": "bytes32",
          "name": "previousAdminRole",
          "type": "bytes32"
        },
        {
          "indexed": true,
          "internalType": "bytes32",
          "name": "newAdminRole",
          "type": "bytes32"
        }
      ],
      "name": "RoleAdminChanged",
      "type": "event"
    },
    {
      "anonymous": false,
      "inputs": [
        {
          "indexed": true,
          "internalType": "bytes32",
          "name": "role",
          "type": "bytes32"
        },
        {
          "indexed": true,
          "internalType": "address",
          "name": "account",
          "type": "address"
        },
        {
          "indexed": true,
          "internalType": "address",
          "name": "sender",
          "type": "address"
        }
      ],
      "name": "RoleGranted",
      "type": "event"
    },
    {
      "anonymous": false,
      "inputs": [
        {
          "indexed": true,
          "internalType": "bytes32",
          "name": "role",
          "type": "bytes32"
        },
        {
          "indexed": true,
          "internalType": "address",
          "name": "account",
          "type": "address"
        },
        {
          "indexed": true,
          "internalType": "address",
          "name": "sender",
          "type": "address"
        }
      ],
      "name": "RoleRevoked",
      "type": "event"
    },
    {
      "anonymous": false,
      "inputs": [
        {
          "indexed": true,
          "internalType": "address",
          "name": "from",
          "type": "address"
        },
        {
          "indexed": true,
          "internalType": "address",
          "name": "to",
          "type": "address"
        },
        {
          "indexed": false,
          "internalType": "uint256",
          "name": "value",
          "type": "uint256"
        }
      ],
      "name": "Transfer",
      "type": "event"
    },
    {
      "anonymous": false,
      "inputs": [
        {
          "indexed": false,
          "internalType": "address",
          "name": "account",
          "type": "address"
        }
      ],
      "name": "Unpaused",
      "type": "event"
    },
    {
      "anonymous": false,
      "inputs": [
        {
          "indexed": true,
          "internalType": "uint256",
          "name": "tid",
          "type": "uint256"
        },
        {
          "indexed": true,
          "internalType": "address",
          "name": "token",
          "type": "address"
        },
        {
          "indexed": false,
          "internalType": "uint256",
          "name": "tokenDecimalMultiplier",
          "type": "uint256"
        },
        {
          "indexed": false,
          "internalType": "address",
          "name": "tokenOld",
          "type": "address"
        }
      ],
      "name": "UpdatedToken",
      "type": "event"
    },
    {
      "anonymous": false,
      "inputs": [
        {
          "indexed": true,
          "internalType": "address",
          "name": "withdrawer",
          "type": "address"
        },
        {
          "indexed": false,
          "internalType": "uint256",
          "name": "withdrawn",
          "type": "uint256"
        },
        {
          "indexed": true,
          "internalType": "uint256",
          "name": "sid",
          "type": "uint256"
        }
      ],
      "name": "Withdrawn",
      "type": "event"
    },
    {
      "inputs": [],
      "name": "CONTROLLER_ROLE",
      "outputs": [
        {
          "internalType": "bytes32",
          "name": "",
          "type": "bytes32"
        }
      ],
      "stateMutability": "view",
      "type": "function"
    },
    {
      "inputs": [],
      "name": "DEFAULT_ADMIN_ROLE",
      "outputs": [
        {
          "internalType": "bytes32",
          "name": "",
          "type": "bytes32"
        }
      ],
      "stateMutability": "view",
      "type": "function"
    },
    {
      "inputs": [],
      "name": "EMERGENCY_ADMIN_ROLE",
      "outputs": [
        {
          "internalType": "bytes32",
          "name": "",
          "type": "bytes32"
        }
      ],
      "stateMutability": "view",
      "type": "function"
    },
    {
      "inputs": [],
      "name": "FUNDS_DENOMINATOR",
      "outputs": [
        {
          "internalType": "uint256",
          "name": "",
          "type": "uint256"
        }
      ],
      "stateMutability": "view",
      "type": "function"
    },
    {
      "inputs": [],
      "name": "MINIMUM_LIQUIDITY",
      "outputs": [
        {
          "internalType": "uint256",
          "name": "",
          "type": "uint256"
        }
      ],
      "stateMutability": "view",
      "type": "function"
    },
    {
      "inputs": [],
      "name": "MINIMUM_LIQUIDITY_LOCKER",
      "outputs": [
        {
          "internalType": "address",
          "name": "",
          "type": "address"
        }
      ],
      "stateMutability": "view",
      "type": "function"
    },
    {
      "inputs": [],
      "name": "MIN_LOCK_TIME",
      "outputs": [
        {
          "internalType": "uint256",
          "name": "",
          "type": "uint256"
        }
      ],
      "stateMutability": "view",
      "type": "function"
    },
    {
      "inputs": [],
      "name": "POOL_ASSETS",
      "outputs": [
        {
          "internalType": "uint8",
          "name": "",
          "type": "uint8"
        }
      ],
      "stateMutability": "view",
      "type": "function"
    },
    {
      "inputs": [],
      "name": "RATIO_MULTIPLIER",
      "outputs": [
        {
          "internalType": "uint256",
          "name": "",
          "type": "uint256"
        }
      ],
      "stateMutability": "view",
      "type": "function"
    },
    {
      "inputs": [],
      "name": "ZUNAMI_DAI_TOKEN_ID",
      "outputs": [
        {
          "internalType": "uint256",
          "name": "",
          "type": "uint256"
        }
      ],
      "stateMutability": "view",
      "type": "function"
    },
    {
      "inputs": [],
      "name": "ZUNAMI_USDC_TOKEN_ID",
      "outputs": [
        {
          "internalType": "uint256",
          "name": "",
          "type": "uint256"
        }
      ],
      "stateMutability": "view",
      "type": "function"
    },
    {
      "inputs": [],
      "name": "ZUNAMI_USDT_TOKEN_ID",
      "outputs": [
        {
          "internalType": "uint256",
          "name": "",
          "type": "uint256"
        }
      ],
      "stateMutability": "view",
      "type": "function"
    },
    {
      "inputs": [
        {
          "internalType": "address",
          "name": "_strategyAddr",
          "type": "address"
        }
      ],
      "name": "addStrategy",
      "outputs": [],
      "stateMutability": "nonpayable",
      "type": "function"
    },
    {
      "inputs": [
        {
          "internalType": "address",
          "name": "owner",
          "type": "address"
        },
        {
          "internalType": "address",
          "name": "spender",
          "type": "address"
        }
      ],
      "name": "allowance",
      "outputs": [
        {
          "internalType": "uint256",
          "name": "",
          "type": "uint256"
        }
      ],
      "stateMutability": "view",
      "type": "function"
    },
    {
      "inputs": [
        {
          "internalType": "address",
          "name": "spender",
          "type": "address"
        },
        {
          "internalType": "uint256",
          "name": "value",
          "type": "uint256"
        }
      ],
      "name": "approve",
      "outputs": [
        {
          "internalType": "bool",
          "name": "",
          "type": "bool"
        }
      ],
      "stateMutability": "nonpayable",
      "type": "function"
    },
    {
      "inputs": [
        {
          "internalType": "address",
          "name": "account",
          "type": "address"
        }
      ],
      "name": "balanceOf",
      "outputs": [
        {
          "internalType": "uint256",
          "name": "",
          "type": "uint256"
        }
      ],
      "stateMutability": "view",
      "type": "function"
    },
    {
      "inputs": [
        {
          "internalType": "address",
          "name": "receiver",
          "type": "address"
        },
        {
          "internalType": "contract IERC20[]",
          "name": "rewardTokens",
          "type": "address[]"
        }
      ],
      "name": "claimRewards",
      "outputs": [],
      "stateMutability": "nonpayable",
      "type": "function"
    },
    {
      "inputs": [],
      "name": "decimals",
      "outputs": [
        {
          "internalType": "uint8",
          "name": "",
          "type": "uint8"
        }
      ],
      "stateMutability": "view",
      "type": "function"
    },
    {
      "inputs": [
        {
          "internalType": "uint256",
          "name": "sid",
          "type": "uint256"
        },
        {
          "internalType": "uint256[5]",
          "name": "amounts",
          "type": "uint256[5]"
        },
        {
          "internalType": "address",
          "name": "receiver",
          "type": "address"
        }
      ],
      "name": "deposit",
      "outputs": [
        {
          "internalType": "uint256",
          "name": "",
          "type": "uint256"
        }
      ],
      "stateMutability": "nonpayable",
      "type": "function"
    },
    {
      "inputs": [
        {
          "internalType": "uint256",
          "name": "sid",
          "type": "uint256"
        },
        {
          "internalType": "uint256[5]",
          "name": "amounts",
          "type": "uint256[5]"
        }
      ],
      "name": "depositStrategy",
      "outputs": [
        {
          "internalType": "uint256",
          "name": "",
          "type": "uint256"
        }
      ],
      "stateMutability": "nonpayable",
      "type": "function"
    },
    {
      "inputs": [
        {
          "internalType": "uint256",
          "name": "_sid",
          "type": "uint256"
        }
      ],
      "name": "disableStrategy",
      "outputs": [],
      "stateMutability": "nonpayable",
      "type": "function"
    },
    {
      "inputs": [
        {
          "internalType": "uint256",
          "name": "_sid",
          "type": "uint256"
        }
      ],
      "name": "enableStrategy",
      "outputs": [],
      "stateMutability": "nonpayable",
      "type": "function"
    },
    {
      "inputs": [],
      "name": "extraGains",
      "outputs": [
        {
          "internalType": "uint256",
          "name": "",
          "type": "uint256"
        }
      ],
      "stateMutability": "view",
      "type": "function"
    },
    {
      "inputs": [],
      "name": "extraGainsMintedBlock",
      "outputs": [
        {
          "internalType": "uint256",
          "name": "",
          "type": "uint256"
        }
      ],
      "stateMutability": "view",
      "type": "function"
    },
    {
      "inputs": [
        {
          "internalType": "bytes32",
          "name": "role",
          "type": "bytes32"
        }
      ],
      "name": "getRoleAdmin",
      "outputs": [
        {
          "internalType": "bytes32",
          "name": "",
          "type": "bytes32"
        }
      ],
      "stateMutability": "view",
      "type": "function"
    },
    {
      "inputs": [
        {
          "internalType": "bytes32",
          "name": "role",
          "type": "bytes32"
        },
        {
          "internalType": "address",
          "name": "account",
          "type": "address"
        }
      ],
      "name": "grantRole",
      "outputs": [],
      "stateMutability": "nonpayable",
      "type": "function"
    },
    {
      "inputs": [
        {
          "internalType": "bytes32",
          "name": "role",
          "type": "bytes32"
        },
        {
          "internalType": "address",
          "name": "account",
          "type": "address"
        }
      ],
      "name": "hasRole",
      "outputs": [
        {
          "internalType": "bool",
          "name": "",
          "type": "bool"
        }
      ],
      "stateMutability": "view",
      "type": "function"
    },
    {
      "inputs": [],
      "name": "launch",
      "outputs": [],
      "stateMutability": "nonpayable",
      "type": "function"
    },
    {
      "inputs": [],
      "name": "launched",
      "outputs": [
        {
          "internalType": "bool",
          "name": "",
          "type": "bool"
        }
      ],
      "stateMutability": "view",
      "type": "function"
    },
    {
      "inputs": [
        {
          "internalType": "address",
          "name": "receiver",
          "type": "address"
        }
      ],
      "name": "mintAndClaimExtraGains",
      "outputs": [],
      "stateMutability": "nonpayable",
      "type": "function"
    },
    {
      "inputs": [
        {
          "internalType": "uint256[]",
          "name": "_strategies",
          "type": "uint256[]"
        },
        {
          "internalType": "uint256[]",
          "name": "_withdrawalsPercents",
          "type": "uint256[]"
        },
        {
          "internalType": "uint256",
          "name": "_receiverStrategy",
          "type": "uint256"
        },
        {
          "internalType": "uint256[5][]",
          "name": "_minAmounts",
          "type": "uint256[5][]"
        }
      ],
      "name": "moveFundsBatch",
      "outputs": [],
      "stateMutability": "nonpayable",
      "type": "function"
    },
    {
      "inputs": [],
      "name": "name",
      "outputs": [
        {
          "internalType": "string",
          "name": "",
          "type": "string"
        }
      ],
      "stateMutability": "view",
      "type": "function"
    },
    {
      "inputs": [],
      "name": "pause",
      "outputs": [],
      "stateMutability": "nonpayable",
      "type": "function"
    },
    {
      "inputs": [],
      "name": "paused",
      "outputs": [
        {
          "internalType": "bool",
          "name": "",
          "type": "bool"
        }
      ],
      "stateMutability": "view",
      "type": "function"
    },
    {
      "inputs": [
        {
          "internalType": "bytes32",
          "name": "role",
          "type": "bytes32"
        },
        {
          "internalType": "address",
          "name": "callerConfirmation",
          "type": "address"
        }
      ],
      "name": "renounceRole",
      "outputs": [],
      "stateMutability": "nonpayable",
      "type": "function"
    },
    {
      "inputs": [
        {
          "internalType": "bytes32",
          "name": "role",
          "type": "bytes32"
        },
        {
          "internalType": "address",
          "name": "account",
          "type": "address"
        }
      ],
      "name": "revokeRole",
      "outputs": [],
      "stateMutability": "nonpayable",
      "type": "function"
    },
    {
      "inputs": [
        {
          "internalType": "address[5]",
          "name": "tokens_",
          "type": "address[5]"
        },
        {
          "internalType": "uint256[5]",
          "name": "tokenDecimalMultipliers_",
          "type": "uint256[5]"
        }
      ],
      "name": "setTokens",
      "outputs": [],
      "stateMutability": "nonpayable",
      "type": "function"
    },
    {
      "inputs": [],
      "name": "strategyCount",
      "outputs": [
        {
          "internalType": "uint256",
          "name": "",
          "type": "uint256"
        }
      ],
      "stateMutability": "view",
      "type": "function"
    },
    {
      "inputs": [
        {
          "internalType": "uint256",
          "name": "sid",
          "type": "uint256"
        }
      ],
      "name": "strategyInfo",
      "outputs": [
        {
          "components": [
            {
              "internalType": "contract IStrategy",
              "name": "strategy",
              "type": "address"
            },
            {
              "internalType": "uint256",
              "name": "startTime",
              "type": "uint256"
            },
            {
              "internalType": "uint256",
              "name": "minted",
              "type": "uint256"
            },
            {
              "internalType": "bool",
              "name": "enabled",
              "type": "bool"
            }
          ],
          "internalType": "struct IPool.StrategyInfo",
          "name": "",
          "type": "tuple"
        }
      ],
      "stateMutability": "view",
      "type": "function"
    },
    {
      "inputs": [
        {
          "internalType": "bytes4",
          "name": "interfaceId",
          "type": "bytes4"
        }
      ],
      "name": "supportsInterface",
      "outputs": [
        {
          "internalType": "bool",
          "name": "",
          "type": "bool"
        }
      ],
      "stateMutability": "view",
      "type": "function"
    },
    {
      "inputs": [],
      "name": "symbol",
      "outputs": [
        {
          "internalType": "string",
          "name": "",
          "type": "string"
        }
      ],
      "stateMutability": "view",
      "type": "function"
    },
    {
      "inputs": [
        {
          "internalType": "uint256",
          "name": "tid",
          "type": "uint256"
        }
      ],
      "name": "token",
      "outputs": [
        {
          "internalType": "contract IERC20",
          "name": "",
          "type": "address"
        }
      ],
      "stateMutability": "view",
      "type": "function"
    },
    {
      "inputs": [],
      "name": "tokenDecimalsMultipliers",
      "outputs": [
        {
          "internalType": "uint256[5]",
          "name": "",
          "type": "uint256[5]"
        }
      ],
      "stateMutability": "view",
      "type": "function"
    },
    {
      "inputs": [],
      "name": "tokens",
      "outputs": [
        {
          "internalType": "contract IERC20[5]",
          "name": "",
          "type": "address[5]"
        }
      ],
      "stateMutability": "view",
      "type": "function"
    },
    {
      "inputs": [],
      "name": "totalHoldings",
      "outputs": [
        {
          "internalType": "uint256",
          "name": "",
          "type": "uint256"
        }
      ],
      "stateMutability": "view",
      "type": "function"
    },
    {
      "inputs": [],
      "name": "totalSupply",
      "outputs": [
        {
          "internalType": "uint256",
          "name": "",
          "type": "uint256"
        }
      ],
      "stateMutability": "view",
      "type": "function"
    },
    {
      "inputs": [
        {
          "internalType": "address",
          "name": "to",
          "type": "address"
        },
        {
          "internalType": "uint256",
          "name": "value",
          "type": "uint256"
        }
      ],
      "name": "transfer",
      "outputs": [
        {
          "internalType": "bool",
          "name": "",
          "type": "bool"
        }
      ],
      "stateMutability": "nonpayable",
      "type": "function"
    },
    {
      "inputs": [
        {
          "internalType": "address",
          "name": "from",
          "type": "address"
        },
        {
          "internalType": "address",
          "name": "to",
          "type": "address"
        },
        {
          "internalType": "uint256",
          "name": "value",
          "type": "uint256"
        }
      ],
      "name": "transferFrom",
      "outputs": [
        {
          "internalType": "bool",
          "name": "",
          "type": "bool"
        }
      ],
      "stateMutability": "nonpayable",
      "type": "function"
    },
    {
      "inputs": [],
      "name": "unpause",
      "outputs": [],
      "stateMutability": "nonpayable",
      "type": "function"
    },
    {
      "inputs": [
        {
          "internalType": "uint256",
          "name": "sid",
          "type": "uint256"
        },
        {
          "internalType": "uint256",
          "name": "stableAmount",
          "type": "uint256"
        },
        {
          "internalType": "uint256[5]",
          "name": "tokenAmounts",
          "type": "uint256[5]"
        },
        {
          "internalType": "address",
          "name": "receiver",
          "type": "address"
        }
      ],
      "name": "withdraw",
      "outputs": [],
      "stateMutability": "nonpayable",
      "type": "function"
    }
  ],
  "bytecode": "0x60806040523480156200001157600080fd5b506040518060400160405280600a815260200169169d5b985b5a481554d160b21b815250604051806040016040528060068152602001651e9d5b9554d160d21b815250818181600390816200006791906200054a565b5060046200007682826200054a565b50506005805460ff19169055506200009060003362000149565b50620000bd7f5358bcfd81d1ef3da152b1755e1c3c6739686fa7e83dbcad0071568cc4b73a633362000149565b505050620000ca62000485565b736b175474e89094c44da98b954eedeac495271d0f815273a0b86991c6218b36c1d19d4a2e9eb0ce3606eb48602082015273dac17f958d2ee523a2206206994597c13d831ec760408201526200011f62000485565b6001815264e8d4a51000602082018190526040820152620001418282620001fc565b50506200062c565b60008281526006602090815260408083206001600160a01b038516845290915281205460ff16620001f25760008381526006602090815260408083206001600160a01b03861684529091529020805460ff19166001179055620001a93390565b6001600160a01b0316826001600160a01b0316847f2f8788117e7eff1d82e926ec794901d17c78024a50270940304540a733656f0d60405160405180910390a4506001620001f6565b5060005b92915050565b6000805b60058110156200047f578180156200023b575060008482600581106200022a576200022a62000616565b60200201516001600160a01b031614155b156200025a57604051631d37a6fd60e11b815260040160405180910390fd5b600084826005811062000271576200027162000616565b60200201516001600160a01b0316036200028a57600191505b6000848260058110620002a157620002a162000616565b60200201516001600160a01b031614158015620002d55750828160058110620002ce57620002ce62000616565b6020020151155b806200032757506000848260058110620002f357620002f362000616565b60200201516001600160a01b03161480156200032757508281600581106200031f576200031f62000616565b602002015115155b15620003465760405163bfa45dc560e01b815260040160405180910390fd5b6000600882600581106200035e576200035e62000616565b01546001600160a01b0316905084826005811062000380576200038062000616565b6020020151600883600581106200039b576200039b62000616565b0180546001600160a01b0319166001600160a01b0392909216919091179055838260058110620003cf57620003cf62000616565b6020020151600d8360058110620003ea57620003ea62000616565b015584826005811062000401576200040162000616565b60200201516001600160a01b0316827ff747b83f770806e3d1cf3aa94c1cbd9bebc565cd5a9fc5ec4668d7304321a86e86856005811062000446576200044662000616565b6020020151846040516200046d9291909182526001600160a01b0316602082015260400190565b60405180910390a35060010162000200565b50505050565b6040518060a001604052806005906020820280368337509192915050565b634e487b7160e01b600052604160045260246000fd5b600181811c90821680620004ce57607f821691505b602082108103620004ef57634e487b7160e01b600052602260045260246000fd5b50919050565b601f82111562000545576000816000526020600020601f850160051c81016020861015620005205750805b601f850160051c820191505b8181101562000541578281556001016200052c565b5050505b505050565b81516001600160401b03811115620005665762000566620004a3565b6200057e81620005778454620004b9565b84620004f5565b602080601f831160018114620005b657600084156200059d5750858301515b600019600386901b1c1916600185901b17855562000541565b600085815260208120601f198616915b82811015620005e757888601518255948401946001909101908401620005c6565b5085821015620006065787850151600019600388901b60f8161c191681555b5050505050600190811b01905550565b634e487b7160e01b600052603260045260246000fd5b612fa3806200063c6000396000f3fe608060405234801561001057600080fd5b50600436106102d65760003560e01c806375451b4f11610182578063a9059cbb116100e9578063bec5b698116100a2578063d5f651a41161007c578063d5f651a414610583578063dd62ed3e1461062c578063e9ec2e9914610665578063f46a30201461066d57600080fd5b8063bec5b69814610608578063cefbb92214610611578063d547741f1461061957600080fd5b8063a9059cbb14610570578063ad5e347214610583578063b549be3c14610592578063b6e432a9146105a5578063ba9a7a56146105ae578063bb91c339146105b757600080fd5b806395d89b411161013b57806395d89b41146105255780639d63848a1461052d5780639d9a779c14610542578063a217fddf14610555578063a5e9dee41461055d578063a65e71621461055557600080fd5b806375451b4f146104da5780637aedb990146104e25780638091f3bf146104f55780638456cb59146105025780638c8f292f1461050a57806391d148541461051257600080fd5b806323b872dd116102415780633f4ba83a116101fa5780635c975abb116101d45780635c975abb1461047e5780636766ea0f146104895780636e76fc8f1461049c57806370a08231146104b157600080fd5b80633f4ba83a146104635780633ff032071461046b5780635920192a1461047557600080fd5b806323b872dd146103df578063248a9ca3146103f25780632f2ff15d14610415578063313ce5671461042857806336568abe1461043d578063391f8b961461045057600080fd5b80630ab5f869116102935780630ab5f869146103835780630d4b88071461039657806318160ddd146103a95780632026ffa3146103b157806322068b44146103c4578063223e5479146103cc57600080fd5b806301339c21146102db57806301ffc9a7146102e5578063044215c61461030d57806306fdde0314610338578063092c5b3b1461034d578063095ea7b314610370575b600080fd5b6102e3610682565b005b6102f86102f3366004612730565b61069d565b60405190151581526020015b60405180910390f35b61032061031b36600461275a565b6106d4565b6040516001600160a01b039091168152602001610304565b6103406106fa565b6040516103049190612797565b610362600080516020612f2e83398151915281565b604051908152602001610304565b6102f861037e3660046127df565b61078c565b6103626103913660046128cb565b6107a4565b6102e36103a436600461298b565b6107ec565b600254610362565b6102e36103bf366004612a82565b610b1b565b600754610362565b6102e36103da366004612b31565b610c81565b6102f86103ed366004612b4e565b610e83565b61036261040036600461275a565b60009081526006602052604090206001015490565b6102e3610423366004612b8f565b610ea9565b60125b60405160ff9091168152602001610304565b6102e361044b366004612b8f565b610ed4565b6102e361045e366004612bbf565b610f0c565b6102e3610f21565b6103626201518081565b61032061dead81565b60055460ff166102f8565b610362610497366004612c39565b610f37565b610362600080516020612f4e83398151915281565b6103626104bf366004612b31565b6001600160a01b031660009081526020819052604090205490565b61042b600581565b6102e36104f036600461275a565b610fb2565b6014546102f89060ff1681565b6102e3611082565b610362600281565b6102f8610520366004612b8f565b6110a2565b6103406110cd565b6105356110dc565b6040516103049190612c7a565b6102e361055036600461275a565b611121565b610362600081565b6102e361056b366004612b31565b6111e4565b6102f861057e3660046127df565b611211565b610362670de0b6b3a764000081565b6102e36105a0366004612cb4565b61121f565b61036260135481565b6103626103e881565b6105ca6105c536600461275a565b6113bf565b604051610304919081516001600160a01b03168152602080830151908201526040808301519082015260609182015115159181019190915260800190565b61036260125481565b610362600181565b6102e3610627366004612b8f565b61144b565b61036261063a366004612cfe565b6001600160a01b03918216600090815260016020908152604080832093909416825291909152205490565b610362611470565b610675611579565b6040516103049190612d4f565b600061068d816115b4565b506014805460ff19166001179055565b60006001600160e01b03198216637965db0b60e01b14806106ce57506301ffc9a760e01b6001600160e01b03198316145b92915050565b6000600882600581106106e9576106e9612d5d565b01546001600160a01b031692915050565b60606003805461070990612d73565b80601f016020809104026020016040519081016040528092919081815260200182805461073590612d73565b80156107825780601f1061075757610100808354040283529160200191610782565b820191906000526020600020905b81548152906001019060200180831161076557829003601f168201915b5050505050905090565b60003361079a8185856115be565b5060019392505050565b60006107ae6115cb565b600080516020612f2e8339815191526107c6816115b4565b6107cf846115f1565b6107d884611616565b6107e2848461165e565b91505b5092915050565b600080516020612f4e833981519152610804816115b4565b83518551146108265760405163f9e0bc9b60e01b815260040160405180910390fd5b600754831061084857604051631964c57360e11b815260040160405180910390fd5b610851836115f1565b61085a8361179f565b60008060005b87518110156108d65787818151811061087b5761087b612d5d565b602002602001015192506108c28388838151811061089b5761089b612d5d565b60200260200101518784815181106108b5576108b5612d5d565b60200260200101516117e9565b6108cc9083612dc3565b9150600101610860565b5080600786815481106108eb576108eb612d5d565b9060005260206000209060040201600201600082825461090b9190612dc3565b909155506109199050612712565b60005b6005811015610a515760006008826005811061093a5761093a612d5d565b01546001600160a01b03169050806109525750610a51565b6040516370a0823160e01b81523060048201526001600160a01b038216906370a0823190602401602060405180830381865afa158015610996573d6000803e3d6000fd5b505050506040513d601f19601f820116820180604052508101906109ba9190612dd6565b8383600581106109cc576109cc612d5d565b602002015260008383600581106109e5576109e5612d5d565b60200201511115610a4857610a4860078981548110610a0657610a06612d5d565b60009182526020909120600490910201546001600160a01b0316848460058110610a3257610a32612d5d565b60200201516001600160a01b0384169190611a38565b5060010161091c565b5060078681548110610a6557610a65612d5d565b600091825260209091206004918202015460405163b67d611d60e01b81526001600160a01b039091169163b67d611d91610aa191859101612d4f565b6020604051808303816000875af1158015610ac0573d6000803e3d6000fd5b505050506040513d601f19601f82011682018060405250810190610ae49190612dd6565b600003610b115785816040516331ea9deb60e11b8152600401610b08929190612def565b60405180910390fd5b5050505050505050565b600080516020612f2e833981519152610b33816115b4565b610b3b611a8a565b610b4483611bbe565b60005b600754811015610c3a57600060078281548110610b6657610b66612d5d565b600091825260209182902060408051608081018252600490930290910180546001600160a01b03168352600181015493830193909352600283015490820181905260039092015460ff1615156060820152915015801590610bc8575080606001515b15610c31578051604051632026ffa360e01b81526001600160a01b0390911690632026ffa390610bfe9088908890600401612e48565b600060405180830381600087803b158015610c1857600080fd5b505af1158015610c2c573d6000803e3d6000fd5b505050505b50600101610b47565b50826001600160a01b03167fc40901f1d03c33b46234c92521befa858a2264a718b553a3d1d2fd284ad4424083604051610c749190612e6c565b60405180910390a2505050565b6000610c8c816115b4565b6001600160a01b038216610cb35760405163d92e233d60e01b815260040160405180910390fd5b60005b600754811015610d185760078181548110610cd357610cd3612d5d565b60009182526020909120600490910201546001600160a01b0390811690841603610d10576040516303ee72d760e51b815260040160405180910390fd5b600101610cb6565b5060145460009060ff16610d2d576000610d32565b620151805b610d3c9042612dc3565b604080516080810182526001600160a01b038681168083526020830185815260009484018581526001606086018181526007805480840182559881905296517fa66cc928b5edb82af9bd49922954155ab7b0942694bea4ce44661d9a8736c688600490990298890180546001600160a01b031916919097161790955591517fa66cc928b5edb82af9bd49922954155ab7b0942694bea4ce44661d9a8736c689870155517fa66cc928b5edb82af9bd49922954155ab7b0942694bea4ce44661d9a8736c68a86015591517fa66cc928b5edb82af9bd49922954155ab7b0942694bea4ce44661d9a8736c68b909401805460ff19169415159490941790935590549293509091610e4a9190612e7f565b6040518381527f3a64755f61c73ed1f60bd0a9660e9cb66aa01817ea10d5b44d216a3ff95cca0e906020015b60405180910390a3505050565b600033610e91858285611c8d565b610e9c858585611d05565b60019150505b9392505050565b600082815260066020526040902060010154610ec4816115b4565b610ece8383611d64565b50505050565b6001600160a01b0381163314610efd5760405163334bd91960e11b815260040160405180910390fd5b610f078282611df8565b505050565b6000610f17816115b4565b610f078383611e65565b6000610f2c816115b4565b610f346120b7565b50565b6000610f416115cb565b600080516020612f2e833981519152610f59816115b4565b610f62856115f1565b610f6b85611616565b610f748561179f565b6001600160a01b038316610f86573392505b610f8e611a8a565b6000610f9a868661165e565b9050610fa884828789612109565b9695505050505050565b600080516020612f4e833981519152610fca816115b4565b6007548210610fec5760405163a458994160e01b815260040160405180910390fd5b60006007838154811061100157611001612d5d565b906000526020600020906004020160030160006101000a81548160ff0219169083151502179055506007828154811061103c5761103c612d5d565b600091825260208220600490910201546040516001600160a01b03909116917f8b35b417b16faa66c73c967944e5e1e2a14e1b75b0c047b18ac49c8e5f84799a91a25050565b600080516020612f4e83398151915261109a816115b4565b610f346121f1565b60009182526006602090815260408084206001600160a01b0393909316845291905290205460ff1690565b60606004805461070990612d73565b6110e4612712565b6040805160a08101918290529060089060059082845b81546001600160a01b031681526001909101906020018083116110fa575050505050905090565b600061112c816115b4565b600754821061114e5760405163a458994160e01b815260040160405180910390fd5b60016007838154811061116357611163612d5d565b906000526020600020906004020160030160006101000a81548160ff0219169083151502179055506007828154811061119e5761119e612d5d565b600091825260208220600490910201546040516001600160a01b03909116917f532492ef4d4edd78444556c1b5038901e11c232361675fe6d5e6bea2f0864e1991a25050565b600080516020612f2e8339815191526111fc816115b4565b611204611a8a565b61120d82611bbe565b5050565b60003361079a818585611d05565b6112276115cb565b600080516020612f2e83398151915261123f816115b4565b611248856115f1565b61125185611616565b61125a8561179f565b60006007868154811061126f5761126f612d5d565b600091825260208220600490910201546001600160a01b031691506112913390565b9050856112b3826001600160a01b031660009081526020819052604090205490565b10156112d2576040516349986e7360e01b815260040160405180910390fd5b6112da611a8a565b6001600160a01b0380831690636d9164c6908616156112f957856112fb565b825b6113298960078c8154811061131257611312612d5d565b90600052602060002090600402016002015461222e565b886040518463ffffffff1660e01b815260040161134893929190612e92565b6020604051808303816000875af1158015611367573d6000803e3d6000fd5b505050506040513d601f19601f8201168201806040525081019061138b9190612eb6565b6113ab5760405163ee9684e760e01b815260048101889052602401610b08565b6113b6818789612281565b50505050505050565b604080516080810182526000808252602082018190529181018290526060810191909152600782815481106113f6576113f6612d5d565b600091825260209182902060408051608081018252600490930290910180546001600160a01b0316835260018101549383019390935260028301549082015260039091015460ff161515606082015292915050565b600082815260066020526040902060010154611466816115b4565b610ece8383611df8565b60075460009081805b828110156107e55760006007828154811061149657611496612d5d565b600091825260209182902060408051608081018252600490930290910180546001600160a01b03168352600181015493830193909352600283015490820181905260039092015460ff16151560608201529150158015906114f8575080606001515b156115705780600001516001600160a01b031663e9ec2e996040518163ffffffff1660e01b8152600401602060405180830381865afa15801561153f573d6000803e3d6000fd5b505050506040513d601f19601f820116820180604052508101906115639190612dd6565b61156d9084612dc3565b92505b50600101611479565b611581612712565b6040805160a081019182905290600d9060059082845b815481526020019060010190808311611597575050505050905090565b610f348133612301565b610f07838383600161233a565b60055460ff16156115ef5760405163d93c066560e01b815260040160405180910390fd5b565b6007548110610f34576040516306796a2560e21b815260048101829052602401610b08565b6007818154811061162957611629612d5d565b906000526020600020906004020160010154421015610f3457604051631744fd1760e21b815260048101829052602401610b08565b6000806007848154811061167457611674612d5d565b600091825260208220600490910201546001600160a01b031691505b60058110156117005760008482600581106116ad576116ad612d5d565b602002015111156116f8576116f8828583600581106116ce576116ce612d5d565b6020020151600884600581106116e6576116e6612d5d565b01546001600160a01b03169190611a38565b600101611690565b50611709611a8a565b60405163b67d611d60e01b81526001600160a01b0382169063b67d611d90611735908690600401612d4f565b6020604051808303816000875af1158015611754573d6000803e3d6000fd5b505050506040513d601f19601f820116820180604052508101906117789190612dd6565b9150816000036107e55783836040516331ea9deb60e11b8152600401610b08929190612def565b600781815481106117b2576117b2612d5d565b600091825260209091206003600490920201015460ff16610f345760405163277d558560e21b815260048101829052602401610b08565b60008215806117ff5750670de0b6b3a764000083115b1561181d576040516397a41b9760e01b815260040160405180910390fd5b670de0b6b3a76400008303611903576007848154811061183f5761183f612d5d565b906000526020600020906004020160020154905060006007858154811061186857611868612d5d565b9060005260206000209060040201600201819055506007848154811061189057611890612d5d565b6000918252602090912060049182020154604051632069ee2560e21b81526001600160a01b03909116916381a7b894916118cc91869101612d4f565b600060405180830381600087803b1580156118e657600080fd5b505af11580156118fa573d6000803e3d6000fd5b50505050610ea2565b670de0b6b3a7640000836007868154811061192057611920612d5d565b90600052602060002090600402016002015461193c9190612ed8565b6119469190612eef565b9050806007858154811061195c5761195c612d5d565b9060005260206000209060040201600201600082825461197c9190612e7f565b9091555050600780548590811061199557611995612d5d565b60009182526020909120600491820201546040516336c8b26360e11b81526001600160a01b0390911691636d9164c6916119d59130918891889101612e92565b6020604051808303816000875af11580156119f4573d6000803e3d6000fd5b505050506040513d601f19601f82011682018060405250810190611a189190612eb6565b610ea25760405163ee9684e760e01b815260048101859052602401610b08565b604080516001600160a01b038416602482015260448082018490528251808303909101815260649091019091526020810180516001600160e01b031663a9059cbb60e01b179052610f0790849061240f565b4360135403611a9557565b60008060005b600754811015611b8c57600060078281548110611aba57611aba612d5d565b9060005260206000209060040201905060008160020154118015611ae25750600381015460ff165b15611b825780546040805163e9ec2e9960e01b815290516000926001600160a01b03169163e9ec2e999160048083019260209291908290030181865afa158015611b30573d6000803e3d6000fd5b505050506040513d601f19601f82011682018060405250810190611b549190612dd6565b6002830154909150808211611b6b57505050611b84565b600283018054919092039081019091559384019392505b505b600101611a9b565b5081600003611b99575050565b8160126000828254611bab9190612dc3565b90915550504360135561120d3083612472565b601254600003611bcb5750565b60128054600090915560405163a9059cbb60e01b81526001600160a01b038316600482015260248101829052309063a9059cbb906044016020604051808303816000875af1158015611c21573d6000803e3d6000fd5b505050506040513d601f19601f82011682018060405250810190611c459190612eb6565b50816001600160a01b03167f679522ada03e2aff72b5376caa48a92d6cf1520bc5816e47488103cf974a3e2e82604051611c8191815260200190565b60405180910390a25050565b6001600160a01b038381166000908152600160209081526040808320938616835292905220546000198114610ece5781811015611cf657604051637dc7a0d960e11b81526001600160a01b03841660048201526024810182905260448101839052606401610b08565b610ece8484848403600061233a565b6001600160a01b038316611d2f57604051634b637e8f60e11b815260006004820152602401610b08565b6001600160a01b038216611d595760405163ec442f0560e01b815260006004820152602401610b08565b610f078383836124a4565b6000611d7083836110a2565b611df05760008381526006602090815260408083206001600160a01b03861684529091529020805460ff19166001179055611da83390565b6001600160a01b0316826001600160a01b0316847f2f8788117e7eff1d82e926ec794901d17c78024a50270940304540a733656f0d60405160405180910390a45060016106ce565b5060006106ce565b6000611e0483836110a2565b15611df05760008381526006602090815260408083206001600160a01b0386168085529252808320805460ff1916905551339286917ff6391f5c32d9c69d2a47ea670b442974b53935d1edc7fd64eb21e047a839171b9190a45060016106ce565b6000805b6005811015610ece57818015611e9f57506000848260058110611e8e57611e8e612d5d565b60200201516001600160a01b031614155b15611ebd57604051631d37a6fd60e11b815260040160405180910390fd5b6000848260058110611ed157611ed1612d5d565b60200201516001600160a01b031603611ee957600191505b6000848260058110611efd57611efd612d5d565b60200201516001600160a01b031614158015611f2d5750828160058110611f2657611f26612d5d565b6020020151155b80611f7757506000848260058110611f4757611f47612d5d565b60200201516001600160a01b0316148015611f775750828160058110611f6f57611f6f612d5d565b602002015115155b15611f955760405163bfa45dc560e01b815260040160405180910390fd5b600060088260058110611faa57611faa612d5d565b01546001600160a01b03169050848260058110611fc957611fc9612d5d565b602002015160088360058110611fe157611fe1612d5d565b0180546001600160a01b0319166001600160a01b039290921691909117905583826005811061201257612012612d5d565b6020020151600d836005811061202a5761202a612d5d565b015584826005811061203e5761203e612d5d565b60200201516001600160a01b0316827ff747b83f770806e3d1cf3aa94c1cbd9bebc565cd5a9fc5ec4668d7304321a86e86856005811061208057612080612d5d565b6020020151846040516120a69291909182526001600160a01b0316602082015260400190565b60405180910390a350600101611e69565b6120bf6125c1565b6005805460ff191690557f5db9ee0a495bf2e6ff9c91a7834c1ba4fdd244a5e8aa4e537bd38aeae4b073aa335b6040516001600160a01b03909116815260200160405180910390a1565b60008061211560025490565b60000361214e576103e8851161213e576040516349986e7360e01b815260040160405180910390fd5b506103e861214e61dead82612472565b600061215a8287612e7f565b90506121668782612472565b856007858154811061217a5761217a612d5d565b9060005260206000209060040201600201600082825461219a9190612dc3565b9250508190555083876001600160a01b03167fa17ff9bbea81293417e3fe6571f199f77815934a9ca09121a83a4603cd83f3b788886040516121dd929190612def565b60405180910390a39150505b949350505050565b6121f96115cb565b6005805460ff191660011790557f62e78cea01bee320cd4e420270b5ea74000d11b0c9f74754ebdbfc544b05a2586120ec3390565b600081612243670de0b6b3a764000085612ed8565b61224d9190612eef565b90508015806122635750670de0b6b3a764000081115b156106ce57604051634aa3778b60e01b815260040160405180910390fd5b61228b83836125e4565b816007828154811061229f5761229f612d5d565b906000526020600020906004020160020160008282546122bf9190612e7f565b909155505060405182815281906001600160a01b038516907f92ccf450a286a957af52509bc1c9939d1a6a481783e142e41e2499f0bb66ebc690602001610e76565b61230b82826110a2565b61120d5760405163e2517d3f60e01b81526001600160a01b038216600482015260248101839052604401610b08565b6001600160a01b0384166123645760405163e602df0560e01b815260006004820152602401610b08565b6001600160a01b03831661238e57604051634a1406b160e11b815260006004820152602401610b08565b6001600160a01b0380851660009081526001602090815260408083209387168352929052208290558015610ece57826001600160a01b0316846001600160a01b03167f8c5be1e5ebec7d5bd14f71427d1e84f3dd0314c0f7b2291e5b200ac8c7c3b9258460405161240191815260200190565b60405180910390a350505050565b60006124246001600160a01b0384168361261a565b905080516000141580156124495750808060200190518101906124479190612eb6565b155b15610f0757604051635274afe760e01b81526001600160a01b0384166004820152602401610b08565b6001600160a01b03821661249c5760405163ec442f0560e01b815260006004820152602401610b08565b61120d600083835b6001600160a01b0383166124cf5780600260008282546124c49190612dc3565b909155506125419050565b6001600160a01b038316600090815260208190526040902054818110156125225760405163391434e360e21b81526001600160a01b03851660048201526024810182905260448101839052606401610b08565b6001600160a01b03841660009081526020819052604090209082900390555b6001600160a01b03821661255d5760028054829003905561257c565b6001600160a01b03821660009081526020819052604090208054820190555b816001600160a01b0316836001600160a01b03167fddf252ad1be2c89b69c2b068fc378daa952ba7f163c4a11628f55a4df523b3ef83604051610e7691815260200190565b60055460ff166115ef57604051638dfc202b60e01b815260040160405180910390fd5b6001600160a01b03821661260e57604051634b637e8f60e11b815260006004820152602401610b08565b61120d826000836124a4565b6060610ea28383600084600080856001600160a01b031684866040516126409190612f11565b60006040518083038185875af1925050503d806000811461267d576040519150601f19603f3d011682016040523d82523d6000602084013e612682565b606091505b5091509150610fa88683836060826126a25761269d826126e9565b610ea2565b81511580156126b957506001600160a01b0384163b155b156126e257604051639996b31560e01b81526001600160a01b0385166004820152602401610b08565b5080610ea2565b8051156126f95780518082602001fd5b604051630a12f52160e11b815260040160405180910390fd5b6040518060a001604052806005906020820280368337509192915050565b60006020828403121561274257600080fd5b81356001600160e01b031981168114610ea257600080fd5b60006020828403121561276c57600080fd5b5035919050565b60005b8381101561278e578181015183820152602001612776565b50506000910152565b60208152600082518060208401526127b6816040850160208701612773565b601f01601f19169190910160400192915050565b6001600160a01b0381168114610f3457600080fd5b600080604083850312156127f257600080fd5b82356127fd816127ca565b946020939093013593505050565b634e487b7160e01b600052604160045260246000fd5b60405160a0810167ffffffffffffffff811182821017156128445761284461280b565b60405290565b604051601f8201601f1916810167ffffffffffffffff811182821017156128735761287361280b565b604052919050565b600082601f83011261288c57600080fd5b612894612821565b8060a08401858111156128a657600080fd5b845b818110156128c05780358452602093840193016128a8565b509095945050505050565b60008060c083850312156128de57600080fd5b823591506128ef846020850161287b565b90509250929050565b600067ffffffffffffffff8211156129125761291261280b565b5060051b60200190565b600082601f83011261292d57600080fd5b8135602061294261293d836128f8565b61284a565b8083825260208201915060208460051b87010193508684111561296457600080fd5b602086015b848110156129805780358352918301918301612969565b509695505050505050565b600080600080608085870312156129a157600080fd5b843567ffffffffffffffff808211156129b957600080fd5b6129c58883890161291c565b9550602091506020870135818111156129dd57600080fd5b6129e989828a0161291c565b95505060408701359350606087013581811115612a0557600080fd5b87019050601f81018813612a1857600080fd5b8035612a2661293d826128f8565b8082825260208201915060a0602060a0850286010193508b841115612a4a57600080fd5b6020850194505b83851015612a7257612a638c8661287b565b83529384019391850191612a51565b50979a9699509497505050505050565b60008060408385031215612a9557600080fd5b8235612aa0816127ca565b915060208381013567ffffffffffffffff811115612abd57600080fd5b8401601f81018613612ace57600080fd5b8035612adc61293d826128f8565b81815260059190911b82018301908381019088831115612afb57600080fd5b928401925b82841015612b22578335612b13816127ca565b82529284019290840190612b00565b80955050505050509250929050565b600060208284031215612b4357600080fd5b8135610ea2816127ca565b600080600060608486031215612b6357600080fd5b8335612b6e816127ca565b92506020840135612b7e816127ca565b929592945050506040919091013590565b60008060408385031215612ba257600080fd5b823591506020830135612bb4816127ca565b809150509250929050565b6000806101408385031215612bd357600080fd5b83601f840112612be257600080fd5b612bea612821565b8060a0850186811115612bfc57600080fd5b855b81811015612c1f578035612c11816127ca565b845260209384019301612bfe565b50819450612c2d878261287b565b93505050509250929050565b600080600060e08486031215612c4e57600080fd5b83359250612c5f856020860161287b565b915060c0840135612c6f816127ca565b809150509250925092565b60a08101818360005b6005811015612cab5781516001600160a01b0316835260209283019290910190600101612c83565b50505092915050565b6000806000806101008587031215612ccb57600080fd5b8435935060208501359250612ce3866040870161287b565b915060e0850135612cf3816127ca565b939692955090935050565b60008060408385031215612d1157600080fd5b8235612d1c816127ca565b91506020830135612bb4816127ca565b8060005b6005811015610ece578151845260209384019390910190600101612d30565b60a081016106ce8284612d2c565b634e487b7160e01b600052603260045260246000fd5b600181811c90821680612d8757607f821691505b602082108103612da757634e487b7160e01b600052602260045260246000fd5b50919050565b634e487b7160e01b600052601160045260246000fd5b808201808211156106ce576106ce612dad565b600060208284031215612de857600080fd5b5051919050565b82815260c08101610ea26020830184612d2c565b60008151808452602080850194506020840160005b83811015612e3d5781516001600160a01b031687529582019590820190600101612e18565b509495945050505050565b6001600160a01b03831681526040602082018190526000906121e990830184612e03565b602081526000610ea26020830184612e03565b818103818111156106ce576106ce612dad565b6001600160a01b03841681526020810183905260e081016121e96040830184612d2c565b600060208284031215612ec857600080fd5b81518015158114610ea257600080fd5b80820281158282048414176106ce576106ce612dad565b600082612f0c57634e487b7160e01b600052601260045260246000fd5b500490565b60008251612f23818460208701612773565b919091019291505056fe7b765e0e932d348852a6f810bfa1ab891e259123f02db8cdcde614c5702233575358bcfd81d1ef3da152b1755e1c3c6739686fa7e83dbcad0071568cc4b73a63a2646970667358221220724591b6a90b4327dd009378559e956173238115bf0ac474e72527dc5f7f56a564736f6c63430008170033",
  "linkReferences": {},
  "deployedLinkReferences": {}
}