{
  "_format": "hh-sol-artifact-1",
  "contractName": "ZunDistributor",
  "sourceName": "contracts/tokenomics/distributor/ZunDistributor.sol",
  "abi": [
    {
      "inputs": [
        {
          "internalType": "address",
          "name": "_token",
          "type": "address"
        },
        {
          "internalType": "address",
          "name": "_voteToken",
          "type": "address"
        },
        {
          "internalType": "address",
          "name": "_owner",
          "type": "address"
        },
        {
          "internalType": "uint256",
          "name": "_startBlock",
          "type": "uint256"
        },
        {
          "internalType": "uint256",
          "name": "_votingPeriod",
          "type": "uint256"
        },
        {
          "internalType": "address[]",
          "name": "_gaugeAddrs",
          "type": "address[]"
        },
        {
          "internalType": "uint256[]",
          "name": "_gaugeVotes",
          "type": "uint256[]"
        }
      ],
      "stateMutability": "nonpayable",
      "type": "constructor"
    },
    {
      "inputs": [
        {
          "internalType": "address",
          "name": "target",
          "type": "address"
        }
      ],
      "name": "AddressEmptyCode",
      "type": "error"
    },
    {
      "inputs": [
        {
          "internalType": "address",
          "name": "account",
          "type": "address"
        }
      ],
      "name": "AddressInsufficientBalance",
      "type": "error"
    },
    {
      "inputs": [],
      "name": "DistributionAlreadyHappened",
      "type": "error"
    },
    {
      "inputs": [],
      "name": "EnforcedPause",
      "type": "error"
    },
    {
      "inputs": [],
      "name": "ExpectedPause",
      "type": "error"
    },
    {
      "inputs": [],
      "name": "ExpiredSignature",
      "type": "error"
    },
    {
      "inputs": [],
      "name": "FailedInnerCall",
      "type": "error"
    },
    {
      "inputs": [
        {
          "internalType": "address",
          "name": "gauge",
          "type": "address"
        }
      ],
      "name": "GaugeAlreadyExists",
      "type": "error"
    },
    {
      "inputs": [],
      "name": "InsufficientVotePower",
      "type": "error"
    },
    {
      "inputs": [
        {
          "internalType": "address",
          "name": "account",
          "type": "address"
        },
        {
          "internalType": "uint256",
          "name": "currentNonce",
          "type": "uint256"
        }
      ],
      "name": "InvalidAccountNonce",
      "type": "error"
    },
    {
      "inputs": [
        {
          "internalType": "address",
          "name": "gauge",
          "type": "address"
        }
      ],
      "name": "InvalidGaugeImplementation",
      "type": "error"
    },
    {
      "inputs": [],
      "name": "InvalidShortString",
      "type": "error"
    },
    {
      "inputs": [],
      "name": "InvalidSignature",
      "type": "error"
    },
    {
      "inputs": [
        {
          "internalType": "address",
          "name": "owner",
          "type": "address"
        }
      ],
      "name": "OwnableInvalidOwner",
      "type": "error"
    },
    {
      "inputs": [
        {
          "internalType": "address",
          "name": "account",
          "type": "address"
        }
      ],
      "name": "OwnableUnauthorizedAccount",
      "type": "error"
    },
    {
      "inputs": [],
      "name": "ReentrancyGuardReentrantCall",
      "type": "error"
    },
    {
      "inputs": [
        {
          "internalType": "address",
          "name": "token",
          "type": "address"
        }
      ],
      "name": "SafeERC20FailedOperation",
      "type": "error"
    },
    {
      "inputs": [],
      "name": "StartBlockInFuture",
      "type": "error"
    },
    {
      "inputs": [
        {
          "internalType": "string",
          "name": "str",
          "type": "string"
        }
      ],
      "name": "StringTooLong",
      "type": "error"
    },
    {
      "inputs": [],
      "name": "WrongGaugeId",
      "type": "error"
    },
    {
      "inputs": [],
      "name": "WrongLength",
      "type": "error"
    },
    {
      "inputs": [],
      "name": "WrongVotingThreshold",
      "type": "error"
    },
    {
      "inputs": [],
      "name": "ZeroAddress",
      "type": "error"
    },
    {
      "anonymous": false,
      "inputs": [
        {
          "indexed": false,
          "internalType": "uint256",
          "name": "totalDistributed",
          "type": "uint256"
        }
      ],
      "name": "Distributed",
      "type": "event"
    },
    {
      "anonymous": false,
      "inputs": [
        {
          "indexed": false,
          "internalType": "uint256",
          "name": "remainingValue",
          "type": "uint256"
        }
      ],
      "name": "DistributionStopped",
      "type": "event"
    },
    {
      "anonymous": false,
      "inputs": [],
      "name": "EIP712DomainChanged",
      "type": "event"
    },
    {
      "anonymous": false,
      "inputs": [
        {
          "indexed": false,
          "internalType": "address",
          "name": "gauge",
          "type": "address"
        }
      ],
      "name": "GaugeAdded",
      "type": "event"
    },
    {
      "anonymous": false,
      "inputs": [
        {
          "indexed": false,
          "internalType": "uint256",
          "name": "gaugeId",
          "type": "uint256"
        }
      ],
      "name": "GaugeDeleted",
      "type": "event"
    },
    {
      "anonymous": false,
      "inputs": [
        {
          "indexed": true,
          "internalType": "address",
          "name": "previousOwner",
          "type": "address"
        },
        {
          "indexed": true,
          "internalType": "address",
          "name": "newOwner",
          "type": "address"
        }
      ],
      "name": "OwnershipTransferStarted",
      "type": "event"
    },
    {
      "anonymous": false,
      "inputs": [
        {
          "indexed": true,
          "internalType": "address",
          "name": "previousOwner",
          "type": "address"
        },
        {
          "indexed": true,
          "internalType": "address",
          "name": "newOwner",
          "type": "address"
        }
      ],
      "name": "OwnershipTransferred",
      "type": "event"
    },
    {
      "anonymous": false,
      "inputs": [
        {
          "indexed": false,
          "internalType": "address",
          "name": "account",
          "type": "address"
        }
      ],
      "name": "Paused",
      "type": "event"
    },
    {
      "anonymous": false,
      "inputs": [
        {
          "indexed": false,
          "internalType": "address",
          "name": "account",
          "type": "address"
        }
      ],
      "name": "Unpaused",
      "type": "event"
    },
    {
      "anonymous": false,
      "inputs": [
        {
          "indexed": false,
          "internalType": "address",
          "name": "voter",
          "type": "address"
        },
        {
          "indexed": false,
          "internalType": "uint256",
          "name": "totalVotes",
          "type": "uint256"
        }
      ],
      "name": "VoteCast",
      "type": "event"
    },
    {
      "anonymous": false,
      "inputs": [
        {
          "indexed": false,
          "internalType": "bool",
          "name": "isQuorumReached",
          "type": "bool"
        }
      ],
      "name": "VotingFinalized",
      "type": "event"
    },
    {
      "anonymous": false,
      "inputs": [
        {
          "indexed": false,
          "internalType": "uint256",
          "name": "newThreshold",
          "type": "uint256"
        }
      ],
      "name": "VotingThresholdChanged",
      "type": "event"
    },
    {
      "inputs": [],
      "name": "ANNUAL_DECREASE_PERCENT",
      "outputs": [
        {
          "internalType": "uint256",
          "name": "",
          "type": "uint256"
        }
      ],
      "stateMutability": "view",
      "type": "function"
    },
    {
      "inputs": [],
      "name": "BALLOT_TYPEHASH",
      "outputs": [
        {
          "internalType": "bytes32",
          "name": "",
          "type": "bytes32"
        }
      ],
      "stateMutability": "view",
      "type": "function"
    },
    {
      "inputs": [],
      "name": "BLOCKS_IN_YEAR",
      "outputs": [
        {
          "internalType": "uint256",
          "name": "",
          "type": "uint256"
        }
      ],
      "stateMutability": "view",
      "type": "function"
    },
    {
      "inputs": [],
      "name": "DENOMINATOR",
      "outputs": [
        {
          "internalType": "uint256",
          "name": "",
          "type": "uint256"
        }
      ],
      "stateMutability": "view",
      "type": "function"
    },
    {
      "inputs": [],
      "name": "FIRST_YEAR_DISTRIBUTION_VALUE",
      "outputs": [
        {
          "internalType": "uint256",
          "name": "",
          "type": "uint256"
        }
      ],
      "stateMutability": "view",
      "type": "function"
    },
    {
      "inputs": [],
      "name": "START_BLOCK",
      "outputs": [
        {
          "internalType": "uint256",
          "name": "",
          "type": "uint256"
        }
      ],
      "stateMutability": "view",
      "type": "function"
    },
    {
      "inputs": [],
      "name": "VOTING_PERIOD",
      "outputs": [
        {
          "internalType": "uint256",
          "name": "",
          "type": "uint256"
        }
      ],
      "stateMutability": "view",
      "type": "function"
    },
    {
      "inputs": [],
      "name": "acceptOwnership",
      "outputs": [],
      "stateMutability": "nonpayable",
      "type": "function"
    },
    {
      "inputs": [
        {
          "internalType": "address",
          "name": "newGauge",
          "type": "address"
        }
      ],
      "name": "addGauge",
      "outputs": [],
      "stateMutability": "nonpayable",
      "type": "function"
    },
    {
      "inputs": [
        {
          "internalType": "uint256[]",
          "name": "gaugeIds",
          "type": "uint256[]"
        },
        {
          "internalType": "uint256[]",
          "name": "amounts",
          "type": "uint256[]"
        }
      ],
      "name": "castVote",
      "outputs": [
        {
          "internalType": "uint256",
          "name": "",
          "type": "uint256"
        }
      ],
      "stateMutability": "nonpayable",
      "type": "function"
    },
    {
      "inputs": [
        {
          "internalType": "uint256[]",
          "name": "gaugeIds",
          "type": "uint256[]"
        },
        {
          "internalType": "uint256[]",
          "name": "amounts",
          "type": "uint256[]"
        },
        {
          "internalType": "address",
          "name": "voter",
          "type": "address"
        },
        {
          "internalType": "uint256",
          "name": "deadline",
          "type": "uint256"
        },
        {
          "internalType": "bytes",
          "name": "signature",
          "type": "bytes"
        }
      ],
      "name": "castVoteBySig",
      "outputs": [
        {
          "internalType": "uint256",
          "name": "",
          "type": "uint256"
        }
      ],
      "stateMutability": "nonpayable",
      "type": "function"
    },
    {
      "inputs": [
        {
          "internalType": "uint256",
          "name": "gaugeId",
          "type": "uint256"
        }
      ],
      "name": "deleteGauge",
      "outputs": [],
      "stateMutability": "nonpayable",
      "type": "function"
    },
    {
      "inputs": [],
      "name": "distribute",
      "outputs": [
        {
          "internalType": "uint256",
          "name": "totalDistributed",
          "type": "uint256"
        }
      ],
      "stateMutability": "nonpayable",
      "type": "function"
    },
    {
      "inputs": [],
      "name": "eip712Domain",
      "outputs": [
        {
          "internalType": "bytes1",
          "name": "fields",
          "type": "bytes1"
        },
        {
          "internalType": "string",
          "name": "name",
          "type": "string"
        },
        {
          "internalType": "string",
          "name": "version",
          "type": "string"
        },
        {
          "internalType": "uint256",
          "name": "chainId",
          "type": "uint256"
        },
        {
          "internalType": "address",
          "name": "verifyingContract",
          "type": "address"
        },
        {
          "internalType": "bytes32",
          "name": "salt",
          "type": "bytes32"
        },
        {
          "internalType": "uint256[]",
          "name": "extensions",
          "type": "uint256[]"
        }
      ],
      "stateMutability": "view",
      "type": "function"
    },
    {
      "inputs": [
        {
          "internalType": "uint256",
          "name": "",
          "type": "uint256"
        }
      ],
      "name": "gauges",
      "outputs": [
        {
          "internalType": "address",
          "name": "addr",
          "type": "address"
        },
        {
          "internalType": "uint256",
          "name": "finalizedVotes",
          "type": "uint256"
        },
        {
          "internalType": "uint256",
          "name": "currentVotes",
          "type": "uint256"
        }
      ],
      "stateMutability": "view",
      "type": "function"
    },
    {
      "inputs": [],
      "name": "gaugesLength",
      "outputs": [
        {
          "internalType": "uint256",
          "name": "",
          "type": "uint256"
        }
      ],
      "stateMutability": "view",
      "type": "function"
    },
    {
      "inputs": [],
      "name": "lastDistributionBlock",
      "outputs": [
        {
          "internalType": "uint256",
          "name": "",
          "type": "uint256"
        }
      ],
      "stateMutability": "view",
      "type": "function"
    },
    {
      "inputs": [],
      "name": "lastFinalizeBlock",
      "outputs": [
        {
          "internalType": "uint256",
          "name": "",
          "type": "uint256"
        }
      ],
      "stateMutability": "view",
      "type": "function"
    },
    {
      "inputs": [
        {
          "internalType": "address",
          "name": "owner",
          "type": "address"
        }
      ],
      "name": "nonces",
      "outputs": [
        {
          "internalType": "uint256",
          "name": "",
          "type": "uint256"
        }
      ],
      "stateMutability": "view",
      "type": "function"
    },
    {
      "inputs": [],
      "name": "owner",
      "outputs": [
        {
          "internalType": "address",
          "name": "",
          "type": "address"
        }
      ],
      "stateMutability": "view",
      "type": "function"
    },
    {
      "inputs": [],
      "name": "paused",
      "outputs": [
        {
          "internalType": "bool",
          "name": "",
          "type": "bool"
        }
      ],
      "stateMutability": "view",
      "type": "function"
    },
    {
      "inputs": [],
      "name": "pendingOwner",
      "outputs": [
        {
          "internalType": "address",
          "name": "",
          "type": "address"
        }
      ],
      "stateMutability": "view",
      "type": "function"
    },
    {
      "inputs": [],
      "name": "renounceOwnership",
      "outputs": [],
      "stateMutability": "nonpayable",
      "type": "function"
    },
    {
      "inputs": [
        {
          "internalType": "uint256",
          "name": "_threshold",
          "type": "uint256"
        }
      ],
      "name": "setVotingThreshold",
      "outputs": [],
      "stateMutability": "nonpayable",
      "type": "function"
    },
    {
      "inputs": [],
      "name": "stopDistribution",
      "outputs": [
        {
          "internalType": "uint256",
          "name": "value",
          "type": "uint256"
        }
      ],
      "stateMutability": "nonpayable",
      "type": "function"
    },
    {
      "inputs": [],
      "name": "token",
      "outputs": [
        {
          "internalType": "contract IERC20",
          "name": "",
          "type": "address"
        }
      ],
      "stateMutability": "view",
      "type": "function"
    },
    {
      "inputs": [
        {
          "internalType": "address",
          "name": "newOwner",
          "type": "address"
        }
      ],
      "name": "transferOwnership",
      "outputs": [],
      "stateMutability": "nonpayable",
      "type": "function"
    },
    {
      "inputs": [
        {
          "internalType": "uint256",
          "name": "",
          "type": "uint256"
        },
        {
          "internalType": "address",
          "name": "",
          "type": "address"
        }
      ],
      "name": "usedVotes",
      "outputs": [
        {
          "internalType": "uint256",
          "name": "",
          "type": "uint256"
        }
      ],
      "stateMutability": "view",
      "type": "function"
    },
    {
      "inputs": [],
      "name": "voteToken",
      "outputs": [
        {
          "internalType": "contract IVotes",
          "name": "",
          "type": "address"
        }
      ],
      "stateMutability": "view",
      "type": "function"
    },
    {
      "inputs": [],
      "name": "votingThreshold",
      "outputs": [
        {
          "internalType": "uint256",
          "name": "",
          "type": "uint256"
        }
      ],
      "stateMutability": "view",
      "type": "function"
    },
    {
      "inputs": [
        {
          "internalType": "contract IERC20",
          "name": "_token",
          "type": "address"
        }
      ],
      "name": "withdrawEmergency",
      "outputs": [],
      "stateMutability": "nonpayable",
      "type": "function"
    }
  ],
  "bytecode": "0x6101e06040523480156200001257600080fd5b5060405162002d5738038062002d5783398101604081905262000035916200052e565b60408051808201825260118152702d3ab730b6b4a234b9ba3934b13aba37b960791b602080830191909152825180840190935260018352603160f81b9083015290866001600160a01b038116620000a757604051631e4fbdf760e01b8152600060048201526024015b60405180910390fd5b620000b28162000341565b506001805460ff60a01b19169055620000cd8260026200035f565b61012052620000de8160036200035f565b61014052815160208084019190912060e052815190820120610100524660a0526200016c60e05161010051604080517f8b73c3c69bb8fe3d512ecc4cf759cc79239f7b179b0ffacaa9a75d522b39400f60208201529081019290925260608201524660808201523060a082015260009060c00160405160208183030381529060405280519060200120905090565b60805250503060c05260016005556001600160a01b038716620001a25760405163d92e233d60e01b815260040160405180910390fd5b6001600160a01b038088166101c0528616620001d15760405163d92e233d60e01b815260040160405180910390fd5b6001600160a01b0386166101a05243841015620001ec574393505b6101608490526000839003620002025761c4e092505b6101808390526009849055600a84905581518151811462000236576040516349552d5960e11b815260040160405180910390fd5b60005b81811015620003325760008482815181106200025957620002596200064b565b6020026020010151905060006001600160a01b0316816001600160a01b031603620002975760405163d92e233d60e01b815260040160405180910390fd5b60066040518060600160405280836001600160a01b03168152602001868581518110620002c857620002c86200064b565b6020908102919091018101518252600091810182905283546001808201865594835291819020835160039093020180546001600160a01b0319166001600160a01b039093169290921782558201518184015560409091015160029091015591909101905062000239565b50505050505050505062000834565b600180546001600160a01b03191690556200035c8162000398565b50565b60006020835110156200037f576200037783620003e8565b905062000392565b816200038c8482620006f2565b5060ff90505b92915050565b600080546001600160a01b038381166001600160a01b0319831681178455604051919092169283917f8be0079c531659141344cd1fd0a4f28419497f9722a3daafe3b4186f6b6457e09190a35050565b600080829050601f8151111562000416578260405163305a27a960e01b81526004016200009e9190620007be565b805162000423826200080f565b179392505050565b80516001600160a01b03811681146200044357600080fd5b919050565b634e487b7160e01b600052604160045260246000fd5b604051601f8201601f191681016001600160401b038111828210171562000489576200048962000448565b604052919050565b60006001600160401b03821115620004ad57620004ad62000448565b5060051b60200190565b600082601f830112620004c957600080fd5b81516020620004e2620004dc8362000491565b6200045e565b8083825260208201915060208460051b8701019350868411156200050557600080fd5b602086015b848110156200052357805183529183019183016200050a565b509695505050505050565b600080600080600080600060e0888a0312156200054a57600080fd5b62000555886200042b565b9650602062000566818a016200042b565b96506200057660408a016200042b565b60608a015160808b015160a08c015192985090965094506001600160401b0380821115620005a357600080fd5b818b0191508b601f830112620005b857600080fd5b8151620005c9620004dc8262000491565b81815260059190911b8301840190848101908e831115620005e957600080fd5b938501935b82851015620006125762000602856200042b565b82529385019390850190620005ee565b60c08e015190975094505050808311156200062c57600080fd5b50506200063c8a828b01620004b7565b91505092959891949750929550565b634e487b7160e01b600052603260045260246000fd5b600181811c908216806200067657607f821691505b6020821081036200069757634e487b7160e01b600052602260045260246000fd5b50919050565b601f821115620006ed576000816000526020600020601f850160051c81016020861015620006c85750805b601f850160051c820191505b81811015620006e957828155600101620006d4565b5050505b505050565b81516001600160401b038111156200070e576200070e62000448565b62000726816200071f845462000661565b846200069d565b602080601f8311600181146200075e5760008415620007455750858301515b600019600386901b1c1916600185901b178555620006e9565b600085815260208120601f198616915b828110156200078f578886015182559484019460019091019084016200076e565b5085821015620007ae5787850151600019600388901b60f8161c191681555b5050505050600190811b01905550565b60006020808352835180602085015260005b81811015620007ee57858101830151858201604001528201620007d0565b506000604082860101526040601f19601f8301168501019250505092915050565b80516020808301519190811015620006975760001960209190910360031b1b16919050565b60805160a05160c05160e05161010051610120516101405161016051610180516101a0516101c051612425620009326000396000818161048d01528181610c9401528181610d160152610efa01526000818161021a015281816108a801526112c70152600081816103de0152818161123701528181611564015281816115b90152818161174d0152611b6701526000818161025901528181610605015281816107dd01528181610d7f0152818161125801528181611588015281816115dd0152611b430152600061145901526000611427015260006118620152600061183a01526000611795015260006117bf015260006117e901526124256000f3fe608060405234801561001057600080fd5b50600436106101e45760003560e01c80638da5cb5b1161010f578063deaaa7cc116100a2578063f2bc79a311610071578063f2bc79a31461045a578063f2fde38b14610463578063f91ccf5d14610476578063fc0c546a1461048857600080fd5b8063deaaa7cc14610412578063dffbbef514610439578063e30c397814610441578063e4fc6b6d1461045257600080fd5b8063b0539187116100de578063b0539187146103a1578063b1610d7e146103d9578063bb542a4f14610400578063dd421cd51461040857600080fd5b80638da5cb5b14610362578063918f8674146103735780639da882ac1461037b578063a1c04f0e1461038e57600080fd5b806362827733116101875780637ecebe00116101565780637ecebe0014610302578063836761e01461032b57806384b0196e1461033e5780638acaee681461035957600080fd5b806362827733146102d65780636d588489146102df578063715018a6146102f257806379ba5097146102fa57600080fd5b806339b3e826116101c357806339b3e82614610254578063431657051461027b5780635c975abb1461028e5780636136cadf146102ab57600080fd5b80623fb4e5146101e957806301678d8c14610200578063160d66ae14610215575b600080fd5b6006545b6040519081526020015b60405180910390f35b61021361020e366004611e40565b6104af565b005b61023c7f000000000000000000000000000000000000000000000000000000000000000081565b6040516001600160a01b0390911681526020016101f7565b6101ed7f000000000000000000000000000000000000000000000000000000000000000081565b6101ed610289366004611eba565b610601565b600154600160a01b900460ff1660405190151581526020016101f7565b6101ed6102b9366004611f9f565b600860209081526000928352604080842090915290825290205481565b6101ed60075481565b6101ed6102ed366004611fcf565b6107d9565b610213610839565b61021361084d565b6101ed61031036600461203b565b6001600160a01b031660009081526004602052604090205490565b610213610339366004611e40565b610896565b610346610983565b6040516101f797969594939291906120a8565b6101ed600a5481565b6000546001600160a01b031661023c565b6101ed606481565b61021361038936600461203b565b6109c9565b61021361039c36600461203b565b610b9d565b6103b46103af366004611e40565b610c30565b604080516001600160a01b0390941684526020840192909252908201526060016101f7565b6101ed7f000000000000000000000000000000000000000000000000000000000000000081565b6101ed602381565b6101ed6227fd8081565b6101ed7fe1ac1e62a911163c271015770a4921bcbf08333deb55b879cfd44b38c361d77f81565b6101ed610c6d565b6001546001600160a01b031661023c565b6101ed610d7b565b6101ed60095481565b61021361047136600461203b565b610fda565b6101ed6a0943b1377290cbd800000081565b61023c7f000000000000000000000000000000000000000000000000000000000000000081565b6104b761104b565b6104bf611078565b6006548082106104e25760405163b7bfc98f60e01b815260040160405180910390fd5b815b6104ef600183612157565b81101561058157600661050382600161216a565b815481106105135761051361217d565b9060005260206000209060030201600682815481106105345761053461217d565b60009182526020909120825460039092020180546001600160a01b0319166001600160a01b03909216919091178155600180830154818301556002928301549290910191909155016104e4565b50600680548061059357610593612193565b60008281526020812060036000199093019283020180546001600160a01b0319168155600181018290556002015590556040517fa199bcf28bd5bdd89cdf1617fd17d9e638c9b9e0629c81c12ebfce08316b12cd906105f59084815260200190565b60405180910390a15050565b60007f00000000000000000000000000000000000000000000000000000000000000004311610643576040516305db095d60e21b815260040160405180910390fd5b61064b611078565b4284101561066c5760405163df4cc36d60e01b815260040160405180910390fd5b600061079e866107627fe1ac1e62a911163c271015770a4921bcbf08333deb55b879cfd44b38c361d77f8d8d6040516020016106a99291906121a9565b604051602081830303815290604052805190602001208c8c6040516020016106d29291906121a9565b604051602081830303815290604052805190602001208b6107108d6001600160a01b0316600090815260046020526040902080546001810190915590565b60408051602081019690965285019390935260608401919091526001600160a01b0316608083015260a082015260c0810189905260e001604051602081830303815290604052805190602001206110a3565b86868080601f0160208091040260200160405190810160405280939291908181526020018383808284376000920191909152506110d692505050565b9050806107be57604051638baa579f60e01b815260040160405180910390fd5b6107cb868b8b8b8b61113a565b9a9950505050505050505050565b60007f0000000000000000000000000000000000000000000000000000000000000000431161081b576040516305db095d60e21b815260040160405180910390fd5b610823611078565b610830338686868661113a565b95945050505050565b61084161104b565b61084b6000611407565b565b60015433906001600160a01b0316811461088a5760405163118cdaa760e01b81526001600160a01b03821660048201526024015b60405180910390fd5b61089381611407565b50565b61089e61104b565b6108a6611078565b7f00000000000000000000000000000000000000000000000000000000000000006001600160a01b03166318160ddd6040518163ffffffff1660e01b8152600401602060405180830381865afa158015610904573d6000803e3d6000fd5b505050506040513d601f19601f8201168201806040525081019061092891906121e2565b81111561094857604051636d1a093b60e01b815260040160405180910390fd5b60078190556040518181527fd671b39dee5ac0a04a81006b9aa388792cf8a4daeadcead04b1a9467dc0f56189060200160405180910390a150565b600060608060008060006060610997611420565b61099f611452565b60408051600080825260208201909252600f60f81b9b939a50919850469750309650945092509050565b6109d161104b565b6109d9611078565b6001600160a01b038116610a005760405163d92e233d60e01b815260040160405180910390fd5b806001600160a01b03163b600003610a36576040516311e0d64760e01b81526001600160a01b0382166004820152602401610881565b60065460005b81811015610aac57826001600160a01b031660068281548110610a6157610a6161217d565b60009182526020909120600390910201546001600160a01b031603610aa457604051631b3ae72b60e21b81526001600160a01b0384166004820152602401610881565b600101610a3c565b50604080516060810182526001600160a01b038481168083526000602080850182815285870183815260068054600181018255945295517ff652222313e28459528d920b65115c16c04f3efc82aaedc97be59f3f377c0d3f600390940293840180546001600160a01b031916919096161790945592517ff652222313e28459528d920b65115c16c04f3efc82aaedc97be59f3f377c0d4082015592517ff652222313e28459528d920b65115c16c04f3efc82aaedc97be59f3f377c0d419093019290925591519081527f9808313031a8f4caa534c417adad16800af7317516eff29a2d37cec0ffb244db91016105f5565b610ba561104b565b6040516370a0823160e01b81523060048201526000906001600160a01b038316906370a0823190602401602060405180830381865afa158015610bec573d6000803e3d6000fd5b505050506040513d601f19601f82011682018060405250810190610c1091906121e2565b90508015610c2c57610c2c6001600160a01b038316338361147f565b5050565b60068181548110610c4057600080fd5b60009182526020909120600390910201805460018201546002909201546001600160a01b03909116925083565b6000610c7761104b565b610c7f611078565b6040516370a0823160e01b81523060048201527f00000000000000000000000000000000000000000000000000000000000000006001600160a01b0316906370a0823190602401602060405180830381865afa158015610ce3573d6000803e3d6000fd5b505050506040513d601f19601f82011682018060405250810190610d0791906121e2565b9050610d3d6001600160a01b037f000000000000000000000000000000000000000000000000000000000000000016338361147f565b610d456114d6565b6040518181527fb5122bca1b6cb7c1775293b74a83a5c943f7d1006d857a4835256f98eac679449060200160405180910390a190565b60007f00000000000000000000000000000000000000000000000000000000000000004311610dbd576040516305db095d60e21b815260040160405180910390fd5b610dc5611078565b610dcd611536565b610dd8600954611560565b610df55760405163cd9544cd60e01b815260040160405180910390fd5b43600955600a54610e0590611560565b15610e1257610e12611613565b6006546000805b82811015610e5b5760068181548110610e3457610e3461217d565b90600052602060002090600302016001015482610e51919061216a565b9150600101610e19565b506000805b83811015610f9657600060068281548110610e7d57610e7d61217d565b600091825260209182902060408051606081018252600390930290910180546001600160a01b031683526001810154938301849052600201549082015291508490610ec6611745565b610ed091906121fb565b610eda9190612228565b925082600003610eea5750610f8e565b8051610f21906001600160a01b037f000000000000000000000000000000000000000000000000000000000000000016908561147f565b80516040516391c05b0b60e01b8152600481018590526001600160a01b03909116906391c05b0b90602401600060405180830381600087803b158015610f6657600080fd5b505af1158015610f7a573d6000803e3d6000fd5b505050508286610f8a919061216a565b9550505b600101610e60565b506040518481527fddc9c30275a04c48091f24199f9c405765de34d979d6847f5b9798a57232d2e59060200160405180910390a1505050610fd76001600555565b90565b610fe261104b565b600180546001600160a01b0383166001600160a01b031990911681179091556110136000546001600160a01b031690565b6001600160a01b03167f38d16b8cac22d99fc7c124b9cd0de2d3fa1faef420bfe791d8c362d765e2270060405160405180910390a350565b6000546001600160a01b0316331461084b5760405163118cdaa760e01b8152336004820152602401610881565b600154600160a01b900460ff161561084b5760405163d93c066560e01b815260040160405180910390fd5b60006110d06110b0611788565b8360405161190160f01b8152600281019290925260228201526042902090565b92915050565b60008060006110e585856118b3565b50909250905060008160038111156110ff576110ff61223c565b14801561111d5750856001600160a01b0316826001600160a01b0316145b8061112e575061112e868686611900565b925050505b9392505050565b60008382811461115d576040516349552d5960e11b815260040160405180910390fd5b611168600a54611560565b1561117557611175611613565b60005b818110156112325760008787838181106111945761119461217d565b90506020020135905060008686848181106111b1576111b161217d565b90506020020135905060068054905082106111df5760405163b7bfc98f60e01b815260040160405180910390fd5b80600683815481106111f3576111f361217d565b90600052602060002090600302016002016000828254611213919061216a565b909155506112239050818661216a565b94505050806001019050611178565b5060007f00000000000000000000000000000000000000000000000000000000000000007f0000000000000000000000000000000000000000000000000000000000000000600a546112849190612157565b61128e9190612252565b600a5461129b9190612157565b604051630748d63560e31b81526001600160a01b038a81166004830152602482018390529192506000917f00000000000000000000000000000000000000000000000000000000000000001690633a46b1a890604401602060405180830381865afa15801561130e573d6000803e3d6000fd5b505050506040513d601f19601f8201168201806040525081019061133291906121e2565b60008381526008602090815260408083206001600160a01b038e16845290915290205490915084906113649083612157565b10156113825760405162cdcafb60e71b815260040160405180910390fd5b60008281526008602090815260408083206001600160a01b038d168452909152812080548692906113b490849061216a565b9091555050604080516001600160a01b038b168152602081018690527fa36cc2bebb74db33e9f88110a07ef56e1b31b24b4c4f51b54b1664266e29f45b910160405180910390a150505095945050505050565b600180546001600160a01b0319169055610893816119db565b606061144d7f00000000000000000000000000000000000000000000000000000000000000006002611a2b565b905090565b606061144d7f00000000000000000000000000000000000000000000000000000000000000006003611a2b565b604080516001600160a01b038416602482015260448082018490528251808303909101815260649091019091526020810180516001600160e01b031663a9059cbb60e01b1790526114d1908490611ad7565b505050565b6114de611078565b6001805460ff60a01b1916600160a01b1790557f62e78cea01bee320cd4e420270b5ea74000d11b0c9f74754ebdbfc544b05a2586115193390565b6040516001600160a01b03909116815260200160405180910390a1565b60026005540361155957604051633ee5aeb560e01b815260040160405180910390fd5b6002600555565b60007f00000000000000000000000000000000000000000000000000000000000000006115ad7f000000000000000000000000000000000000000000000000000000000000000084612157565b6115b79190612228565b7f00000000000000000000000000000000000000000000000000000000000000006116027f000000000000000000000000000000000000000000000000000000000000000043612157565b61160c9190612228565b1192915050565b6006546000805b8281101561165c57600681815481106116355761163561217d565b90600052602060002090600302016002015482611652919061216a565b915060010161161a565b506000808211801561167057506007548210155b905080156116c95760005b838110156116c3576000600682815481106116985761169861217d565b600091825260208220600260039092020190810180546001928301559190915591909101905061167b565b50611707565b60005b83811015611705576000600682815481106116e9576116e961217d565b60009182526020909120600260039092020101556001016116cc565b505b43600a5560405181151581527f4ff855a05eac7fbe15b217be257ec22e95d31849bf909841eab9aee87e0da2029060200160405180910390a1505050565b60006227fd807f0000000000000000000000000000000000000000000000000000000000000000611774611b3a565b61177e91906121fb565b61144d9190612228565b6000306001600160a01b037f0000000000000000000000000000000000000000000000000000000000000000161480156117e157507f000000000000000000000000000000000000000000000000000000000000000046145b1561180b57507f000000000000000000000000000000000000000000000000000000000000000090565b61144d604080517f8b73c3c69bb8fe3d512ecc4cf759cc79239f7b179b0ffacaa9a75d522b39400f60208201527f0000000000000000000000000000000000000000000000000000000000000000918101919091527f000000000000000000000000000000000000000000000000000000000000000060608201524660808201523060a082015260009060c00160405160208183030381529060405280519060200120905090565b600080600083516041036118ed5760208401516040850151606086015160001a6118df88828585611be9565b9550955095505050506118f9565b50508151600091506002905b9250925092565b6000806000856001600160a01b03168585604051602401611922929190612266565b60408051601f198184030181529181526020820180516001600160e01b0316630b135d3f60e11b179052516119579190612287565b600060405180830381855afa9150503d8060008114611992576040519150601f19603f3d011682016040523d82523d6000602084013e611997565b606091505b50915091508180156119ab57506020815110155b801561112e57508051630b135d3f60e11b906119d090830160209081019084016121e2565b149695505050505050565b600080546001600160a01b038381166001600160a01b0319831681178455604051919092169283917f8be0079c531659141344cd1fd0a4f28419497f9722a3daafe3b4186f6b6457e09190a35050565b606060ff8314611a4557611a3e83611cb8565b90506110d0565b818054611a51906122a3565b80601f0160208091040260200160405190810160405280929190818152602001828054611a7d906122a3565b8015611aca5780601f10611a9f57610100808354040283529160200191611aca565b820191906000526020600020905b815481529060010190602001808311611aad57829003601f168201915b5050505050905092915050565b6000611aec6001600160a01b03841683611cf7565b90508051600014158015611b11575080806020019051810190611b0f91906122dd565b155b156114d157604051635274afe760e01b81526001600160a01b0384166004820152602401610881565b6000806227fd807f0000000000000000000000000000000000000000000000000000000000000000611b8c7f000000000000000000000000000000000000000000000000000000000000000043612157565b611b969190612157565b611ba09190612228565b9050611bad8160646123e3565b81611bba60236064612157565b611bc491906123e3565b611bd9906a0943b1377290cbd80000006121fb565b611be39190612228565b91505090565b600080807f7fffffffffffffffffffffffffffffff5d576e7357a4501ddfe92f46681b20a0841115611c245750600091506003905082611cae565b604080516000808252602082018084528a905260ff891692820192909252606081018790526080810186905260019060a0016020604051602081039080840390855afa158015611c78573d6000803e3d6000fd5b5050604051601f1901519150506001600160a01b038116611ca457506000925060019150829050611cae565b9250600091508190505b9450945094915050565b60606000611cc583611d05565b604080516020808252818301909252919250600091906020820181803683375050509182525060208101929092525090565b606061113383836000611d2d565b600060ff8216601f8111156110d057604051632cd44ac360e21b815260040160405180910390fd5b606081471015611d525760405163cd78605960e01b8152306004820152602401610881565b600080856001600160a01b03168486604051611d6e9190612287565b60006040518083038185875af1925050503d8060008114611dab576040519150601f19603f3d011682016040523d82523d6000602084013e611db0565b606091505b509150915061112e868383606082611dd057611dcb82611e17565b611133565b8151158015611de757506001600160a01b0384163b155b15611e1057604051639996b31560e01b81526001600160a01b0385166004820152602401610881565b5080611133565b805115611e275780518082602001fd5b604051630a12f52160e11b815260040160405180910390fd5b600060208284031215611e5257600080fd5b5035919050565b60008083601f840112611e6b57600080fd5b50813567ffffffffffffffff811115611e8357600080fd5b6020830191508360208260051b8501011115611e9e57600080fd5b9250929050565b6001600160a01b038116811461089357600080fd5b60008060008060008060008060a0898b031215611ed657600080fd5b883567ffffffffffffffff80821115611eee57600080fd5b611efa8c838d01611e59565b909a50985060208b0135915080821115611f1357600080fd5b611f1f8c838d01611e59565b909850965060408b01359150611f3482611ea5565b90945060608a0135935060808a01359080821115611f5157600080fd5b818b0191508b601f830112611f6557600080fd5b813581811115611f7457600080fd5b8c6020828501011115611f8657600080fd5b6020830194508093505050509295985092959890939650565b60008060408385031215611fb257600080fd5b823591506020830135611fc481611ea5565b809150509250929050565b60008060008060408587031215611fe557600080fd5b843567ffffffffffffffff80821115611ffd57600080fd5b61200988838901611e59565b9096509450602087013591508082111561202257600080fd5b5061202f87828801611e59565b95989497509550505050565b60006020828403121561204d57600080fd5b813561113381611ea5565b60005b8381101561207357818101518382015260200161205b565b50506000910152565b60008151808452612094816020860160208601612058565b601f01601f19169290920160200192915050565b60ff60f81b881681526000602060e060208401526120c960e084018a61207c565b83810360408501526120db818a61207c565b606085018990526001600160a01b038816608086015260a0850187905284810360c08601528551808252602080880193509091019060005b8181101561212f57835183529284019291840191600101612113565b50909c9b505050505050505050505050565b634e487b7160e01b600052601160045260246000fd5b818103818111156110d0576110d0612141565b808201808211156110d0576110d0612141565b634e487b7160e01b600052603260045260246000fd5b634e487b7160e01b600052603160045260246000fd5b6020808252810182905260006001600160fb1b038311156121c957600080fd5b8260051b80856040850137919091016040019392505050565b6000602082840312156121f457600080fd5b5051919050565b80820281158282048414176110d0576110d0612141565b634e487b7160e01b600052601260045260246000fd5b60008261223757612237612212565b500490565b634e487b7160e01b600052602160045260246000fd5b60008261226157612261612212565b500690565b82815260406020820152600061227f604083018461207c565b949350505050565b60008251612299818460208701612058565b9190910192915050565b600181811c908216806122b757607f821691505b6020821081036122d757634e487b7160e01b600052602260045260246000fd5b50919050565b6000602082840312156122ef57600080fd5b8151801515811461113357600080fd5b600181815b8085111561233a57816000190482111561232057612320612141565b8085161561232d57918102915b93841c9390800290612304565b509250929050565b600082612351575060016110d0565b8161235e575060006110d0565b8160018114612374576002811461237e5761239a565b60019150506110d0565b60ff84111561238f5761238f612141565b50506001821b6110d0565b5060208310610133831016604e8410600b84101617156123bd575081810a6110d0565b6123c783836122ff565b80600019048211156123db576123db612141565b029392505050565b6000611133838361234256fea2646970667358221220741ed7cb162a6b839228b10f4111873c236690a68da5082f73fdfcd2801c839d64736f6c63430008170033",
  "linkReferences": {},
  "deployedLinkReferences": {}
}