{
  "_format": "hh-sol-artifact-1",
  "contractName": "ZunEthFrxEthApsStakingConvexCurveStrat",
  "sourceName": "contracts/strategies/curve/convex/aps/stakingFrxETH/ZunEthFrxEthApsStakingConvexCurveStrat.sol",
  "abi": [
    {
      "inputs": [],
      "stateMutability": "nonpayable",
      "type": "constructor"
    },
    {
      "inputs": [],
      "name": "AccessControlBadConfirmation",
      "type": "error"
    },
    {
      "inputs": [
        {
          "internalType": "address",
          "name": "account",
          "type": "address"
        },
        {
          "internalType": "bytes32",
          "name": "neededRole",
          "type": "bytes32"
        }
      ],
      "name": "AccessControlUnauthorizedAccount",
      "type": "error"
    },
    {
      "inputs": [
        {
          "internalType": "address",
          "name": "target",
          "type": "address"
        }
      ],
      "name": "AddressEmptyCode",
      "type": "error"
    },
    {
      "inputs": [
        {
          "internalType": "address",
          "name": "account",
          "type": "address"
        }
      ],
      "name": "AddressInsufficientBalance",
      "type": "error"
    },
    {
      "inputs": [],
      "name": "DepositLiquidityValueTooLow",
      "type": "error"
    },
    {
      "inputs": [],
      "name": "FailedInnerCall",
      "type": "error"
    },
    {
      "inputs": [],
      "name": "InsufficientAmount",
      "type": "error"
    },
    {
      "inputs": [],
      "name": "MustBeCalledByZunamiPool",
      "type": "error"
    },
    {
      "inputs": [],
      "name": "MustHaveOwner",
      "type": "error"
    },
    {
      "inputs": [
        {
          "internalType": "address",
          "name": "token",
          "type": "address"
        }
      ],
      "name": "SafeERC20FailedOperation",
      "type": "error"
    },
    {
      "inputs": [],
      "name": "WrongBoosterDepositAll",
      "type": "error"
    },
    {
      "inputs": [],
      "name": "WrongDecimalMultipliers",
      "type": "error"
    },
    {
      "inputs": [],
      "name": "WrongRatio",
      "type": "error"
    },
    {
      "inputs": [],
      "name": "WrongSlippage",
      "type": "error"
    },
    {
      "inputs": [],
      "name": "WrongTokens",
      "type": "error"
    },
    {
      "inputs": [],
      "name": "ZeroAddress",
      "type": "error"
    },
    {
      "inputs": [],
      "name": "ZeroValue",
      "type": "error"
    },
    {
      "anonymous": false,
      "inputs": [
        {
          "indexed": false,
          "internalType": "uint256",
          "name": "newLockTimestamp",
          "type": "uint256"
        }
      ],
      "name": "LockedLonger",
      "type": "event"
    },
    {
      "anonymous": false,
      "inputs": [
        {
          "indexed": false,
          "internalType": "address",
          "name": "oracleAddr",
          "type": "address"
        }
      ],
      "name": "PriceOracleSet",
      "type": "event"
    },
    {
      "anonymous": false,
      "inputs": [
        {
          "indexed": true,
          "internalType": "bytes32",
          "name": "role",
          "type": "bytes32"
        },
        {
          "indexed": true,
          "internalType": "bytes32",
          "name": "previousAdminRole",
          "type": "bytes32"
        },
        {
          "indexed": true,
          "internalType": "bytes32",
          "name": "newAdminRole",
          "type": "bytes32"
        }
      ],
      "name": "RoleAdminChanged",
      "type": "event"
    },
    {
      "anonymous": false,
      "inputs": [
        {
          "indexed": true,
          "internalType": "bytes32",
          "name": "role",
          "type": "bytes32"
        },
        {
          "indexed": true,
          "internalType": "address",
          "name": "account",
          "type": "address"
        },
        {
          "indexed": true,
          "internalType": "address",
          "name": "sender",
          "type": "address"
        }
      ],
      "name": "RoleGranted",
      "type": "event"
    },
    {
      "anonymous": false,
      "inputs": [
        {
          "indexed": true,
          "internalType": "bytes32",
          "name": "role",
          "type": "bytes32"
        },
        {
          "indexed": true,
          "internalType": "address",
          "name": "account",
          "type": "address"
        },
        {
          "indexed": true,
          "internalType": "address",
          "name": "sender",
          "type": "address"
        }
      ],
      "name": "RoleRevoked",
      "type": "event"
    },
    {
      "anonymous": false,
      "inputs": [
        {
          "indexed": false,
          "internalType": "uint256",
          "name": "lockingIntervalSec",
          "type": "uint256"
        }
      ],
      "name": "SetLockingIntervalSec",
      "type": "event"
    },
    {
      "anonymous": false,
      "inputs": [
        {
          "indexed": false,
          "internalType": "address",
          "name": "tokenConverter",
          "type": "address"
        }
      ],
      "name": "SetTokenConverter",
      "type": "event"
    },
    {
      "anonymous": false,
      "inputs": [
        {
          "indexed": false,
          "internalType": "uint256",
          "name": "oldSlippage",
          "type": "uint256"
        },
        {
          "indexed": false,
          "internalType": "uint256",
          "name": "newSlippage",
          "type": "uint256"
        }
      ],
      "name": "SlippageSet",
      "type": "event"
    },
    {
      "anonymous": false,
      "inputs": [
        {
          "indexed": false,
          "internalType": "address",
          "name": "zunamiPoolAddr",
          "type": "address"
        }
      ],
      "name": "ZunamiPoolSet",
      "type": "event"
    },
    {
      "inputs": [],
      "name": "CURVENG_MAX_COINS",
      "outputs": [
        {
          "internalType": "uint256",
          "name": "",
          "type": "uint256"
        }
      ],
      "stateMutability": "view",
      "type": "function"
    },
    {
      "inputs": [],
      "name": "DEFAULT_ADMIN_ROLE",
      "outputs": [
        {
          "internalType": "bytes32",
          "name": "",
          "type": "bytes32"
        }
      ],
      "stateMutability": "view",
      "type": "function"
    },
    {
      "inputs": [],
      "name": "EMERGENCY_ADMIN_ROLE",
      "outputs": [
        {
          "internalType": "bytes32",
          "name": "",
          "type": "bytes32"
        }
      ],
      "stateMutability": "view",
      "type": "function"
    },
    {
      "inputs": [],
      "name": "FRXETH_TOKEN_POOL_FRXETH_ID",
      "outputs": [
        {
          "internalType": "uint128",
          "name": "",
          "type": "uint128"
        }
      ],
      "stateMutability": "view",
      "type": "function"
    },
    {
      "inputs": [],
      "name": "FRXETH_TOKEN_POOL_FRXETH_ID_INT",
      "outputs": [
        {
          "internalType": "int128",
          "name": "",
          "type": "int128"
        }
      ],
      "stateMutability": "view",
      "type": "function"
    },
    {
      "inputs": [],
      "name": "FRXETH_TOKEN_POOL_TOKEN_ID",
      "outputs": [
        {
          "internalType": "uint128",
          "name": "",
          "type": "uint128"
        }
      ],
      "stateMutability": "view",
      "type": "function"
    },
    {
      "inputs": [],
      "name": "FRXETH_TOKEN_POOL_TOKEN_ID_INT",
      "outputs": [
        {
          "internalType": "int128",
          "name": "",
          "type": "int128"
        }
      ],
      "stateMutability": "view",
      "type": "function"
    },
    {
      "inputs": [],
      "name": "POOL_ASSETS",
      "outputs": [
        {
          "internalType": "uint8",
          "name": "",
          "type": "uint8"
        }
      ],
      "stateMutability": "view",
      "type": "function"
    },
    {
      "inputs": [],
      "name": "PRICE_DENOMINATOR",
      "outputs": [
        {
          "internalType": "uint256",
          "name": "",
          "type": "uint256"
        }
      ],
      "stateMutability": "view",
      "type": "function"
    },
    {
      "inputs": [],
      "name": "RATIO_MULTIPLIER",
      "outputs": [
        {
          "internalType": "uint256",
          "name": "",
          "type": "uint256"
        }
      ],
      "stateMutability": "view",
      "type": "function"
    },
    {
      "inputs": [],
      "name": "SLIPPAGE_DENOMINATOR",
      "outputs": [
        {
          "internalType": "uint256",
          "name": "",
          "type": "uint256"
        }
      ],
      "stateMutability": "view",
      "type": "function"
    },
    {
      "inputs": [
        {
          "internalType": "uint256[5]",
          "name": "tokenAmounts",
          "type": "uint256[5]"
        },
        {
          "internalType": "bool",
          "name": "isDeposit",
          "type": "bool"
        }
      ],
      "name": "calcTokenAmount",
      "outputs": [
        {
          "internalType": "uint256",
          "name": "sharesAmount",
          "type": "uint256"
        }
      ],
      "stateMutability": "view",
      "type": "function"
    },
    {
      "inputs": [
        {
          "internalType": "address",
          "name": "receiver",
          "type": "address"
        },
        {
          "internalType": "contract IERC20[]",
          "name": "rewardTokens",
          "type": "address[]"
        }
      ],
      "name": "claimRewards",
      "outputs": [],
      "stateMutability": "nonpayable",
      "type": "function"
    },
    {
      "inputs": [],
      "name": "converter",
      "outputs": [
        {
          "internalType": "contract ITokenConverter",
          "name": "",
          "type": "address"
        }
      ],
      "stateMutability": "view",
      "type": "function"
    },
    {
      "inputs": [],
      "name": "cvxBooster",
      "outputs": [
        {
          "internalType": "contract IConvexStakingBooster",
          "name": "",
          "type": "address"
        }
      ],
      "stateMutability": "view",
      "type": "function"
    },
    {
      "inputs": [],
      "name": "cvxPID",
      "outputs": [
        {
          "internalType": "uint256",
          "name": "",
          "type": "uint256"
        }
      ],
      "stateMutability": "view",
      "type": "function"
    },
    {
      "inputs": [],
      "name": "cvxRewards",
      "outputs": [
        {
          "internalType": "contract IConvexRewards",
          "name": "",
          "type": "address"
        }
      ],
      "stateMutability": "view",
      "type": "function"
    },
    {
      "inputs": [
        {
          "internalType": "uint256",
          "name": "ratioOfCrvLps",
          "type": "uint256"
        },
        {
          "internalType": "uint256",
          "name": "minDeflateAmount",
          "type": "uint256"
        }
      ],
      "name": "deflate",
      "outputs": [],
      "stateMutability": "nonpayable",
      "type": "function"
    },
    {
      "inputs": [
        {
          "internalType": "uint256[5]",
          "name": "amounts",
          "type": "uint256[5]"
        }
      ],
      "name": "deposit",
      "outputs": [
        {
          "internalType": "uint256",
          "name": "liquidityValue",
          "type": "uint256"
        }
      ],
      "stateMutability": "nonpayable",
      "type": "function"
    },
    {
      "inputs": [],
      "name": "depositedLiquidity",
      "outputs": [
        {
          "internalType": "uint256",
          "name": "",
          "type": "uint256"
        }
      ],
      "stateMutability": "view",
      "type": "function"
    },
    {
      "inputs": [
        {
          "internalType": "bytes32",
          "name": "role",
          "type": "bytes32"
        }
      ],
      "name": "getRoleAdmin",
      "outputs": [
        {
          "internalType": "bytes32",
          "name": "",
          "type": "bytes32"
        }
      ],
      "stateMutability": "view",
      "type": "function"
    },
    {
      "inputs": [
        {
          "internalType": "bytes32",
          "name": "role",
          "type": "bytes32"
        },
        {
          "internalType": "address",
          "name": "account",
          "type": "address"
        }
      ],
      "name": "grantRole",
      "outputs": [],
      "stateMutability": "nonpayable",
      "type": "function"
    },
    {
      "inputs": [
        {
          "internalType": "bytes32",
          "name": "role",
          "type": "bytes32"
        },
        {
          "internalType": "address",
          "name": "account",
          "type": "address"
        }
      ],
      "name": "hasRole",
      "outputs": [
        {
          "internalType": "bool",
          "name": "",
          "type": "bool"
        }
      ],
      "stateMutability": "view",
      "type": "function"
    },
    {
      "inputs": [
        {
          "internalType": "uint256",
          "name": "ratioOfCrvLps",
          "type": "uint256"
        },
        {
          "internalType": "uint256",
          "name": "minInflatedAmount",
          "type": "uint256"
        }
      ],
      "name": "inflate",
      "outputs": [],
      "stateMutability": "nonpayable",
      "type": "function"
    },
    {
      "inputs": [],
      "name": "kekId",
      "outputs": [
        {
          "internalType": "bytes32",
          "name": "",
          "type": "bytes32"
        }
      ],
      "stateMutability": "view",
      "type": "function"
    },
    {
      "inputs": [],
      "name": "lockingIntervalSec",
      "outputs": [
        {
          "internalType": "uint256",
          "name": "",
          "type": "uint256"
        }
      ],
      "stateMutability": "view",
      "type": "function"
    },
    {
      "inputs": [],
      "name": "oracle",
      "outputs": [
        {
          "internalType": "contract IOracle",
          "name": "",
          "type": "address"
        }
      ],
      "stateMutability": "view",
      "type": "function"
    },
    {
      "inputs": [],
      "name": "pool",
      "outputs": [
        {
          "internalType": "contract ICurvePoolN",
          "name": "",
          "type": "address"
        }
      ],
      "stateMutability": "view",
      "type": "function"
    },
    {
      "inputs": [],
      "name": "poolToken",
      "outputs": [
        {
          "internalType": "contract IERC20",
          "name": "",
          "type": "address"
        }
      ],
      "stateMutability": "view",
      "type": "function"
    },
    {
      "inputs": [
        {
          "internalType": "bytes32",
          "name": "role",
          "type": "bytes32"
        },
        {
          "internalType": "address",
          "name": "callerConfirmation",
          "type": "address"
        }
      ],
      "name": "renounceRole",
      "outputs": [],
      "stateMutability": "nonpayable",
      "type": "function"
    },
    {
      "inputs": [
        {
          "internalType": "bytes32",
          "name": "role",
          "type": "bytes32"
        },
        {
          "internalType": "address",
          "name": "account",
          "type": "address"
        }
      ],
      "name": "revokeRole",
      "outputs": [],
      "stateMutability": "nonpayable",
      "type": "function"
    },
    {
      "inputs": [
        {
          "internalType": "uint256",
          "name": "_lockingIntervalSec",
          "type": "uint256"
        }
      ],
      "name": "setLockingIntervalSec",
      "outputs": [],
      "stateMutability": "nonpayable",
      "type": "function"
    },
    {
      "inputs": [
        {
          "internalType": "address",
          "name": "oracleAddr",
          "type": "address"
        }
      ],
      "name": "setPriceOracle",
      "outputs": [],
      "stateMutability": "nonpayable",
      "type": "function"
    },
    {
      "inputs": [
        {
          "internalType": "uint256",
          "name": "_slippage",
          "type": "uint256"
        }
      ],
      "name": "setSlippage",
      "outputs": [],
      "stateMutability": "nonpayable",
      "type": "function"
    },
    {
      "inputs": [
        {
          "internalType": "address",
          "name": "converterAddr",
          "type": "address"
        }
      ],
      "name": "setTokenConverter",
      "outputs": [],
      "stateMutability": "nonpayable",
      "type": "function"
    },
    {
      "inputs": [
        {
          "internalType": "address",
          "name": "zunamiAddr",
          "type": "address"
        }
      ],
      "name": "setZunamiPool",
      "outputs": [],
      "stateMutability": "nonpayable",
      "type": "function"
    },
    {
      "inputs": [],
      "name": "slippage",
      "outputs": [
        {
          "internalType": "uint256",
          "name": "",
          "type": "uint256"
        }
      ],
      "stateMutability": "view",
      "type": "function"
    },
    {
      "inputs": [],
      "name": "stakeLonger",
      "outputs": [],
      "stateMutability": "nonpayable",
      "type": "function"
    },
    {
      "inputs": [],
      "name": "stakingVault",
      "outputs": [
        {
          "internalType": "contract IStakingProxyConvex",
          "name": "",
          "type": "address"
        }
      ],
      "stateMutability": "view",
      "type": "function"
    },
    {
      "inputs": [
        {
          "internalType": "bytes4",
          "name": "interfaceId",
          "type": "bytes4"
        }
      ],
      "name": "supportsInterface",
      "outputs": [
        {
          "internalType": "bool",
          "name": "",
          "type": "bool"
        }
      ],
      "stateMutability": "view",
      "type": "function"
    },
    {
      "inputs": [
        {
          "internalType": "uint256",
          "name": "",
          "type": "uint256"
        }
      ],
      "name": "tokenDecimalsMultipliers",
      "outputs": [
        {
          "internalType": "uint256",
          "name": "",
          "type": "uint256"
        }
      ],
      "stateMutability": "view",
      "type": "function"
    },
    {
      "inputs": [
        {
          "internalType": "uint256",
          "name": "",
          "type": "uint256"
        }
      ],
      "name": "tokens",
      "outputs": [
        {
          "internalType": "contract IERC20",
          "name": "",
          "type": "address"
        }
      ],
      "stateMutability": "view",
      "type": "function"
    },
    {
      "inputs": [],
      "name": "totalHoldings",
      "outputs": [
        {
          "internalType": "uint256",
          "name": "",
          "type": "uint256"
        }
      ],
      "stateMutability": "view",
      "type": "function"
    },
    {
      "inputs": [
        {
          "internalType": "address",
          "name": "receiver",
          "type": "address"
        },
        {
          "internalType": "uint256",
          "name": "poolTokenRatio",
          "type": "uint256"
        },
        {
          "internalType": "uint256[5]",
          "name": "tokenAmounts",
          "type": "uint256[5]"
        }
      ],
      "name": "withdraw",
      "outputs": [
        {
          "internalType": "bool",
          "name": "",
          "type": "bool"
        }
      ],
      "stateMutability": "nonpayable",
      "type": "function"
    },
    {
      "inputs": [
        {
          "internalType": "uint256[5]",
          "name": "minTokenAmounts",
          "type": "uint256[5]"
        }
      ],
      "name": "withdrawAll",
      "outputs": [],
      "stateMutability": "nonpayable",
      "type": "function"
    },
    {
      "inputs": [
        {
          "internalType": "contract IERC20",
          "name": "_token",
          "type": "address"
        }
      ],
      "name": "withdrawEmergency",
      "outputs": [],
      "stateMutability": "nonpayable",
      "type": "function"
    },
    {
      "inputs": [],
      "name": "zunamiController",
      "outputs": [
        {
          "internalType": "contract IController",
          "name": "",
          "type": "address"
        }
      ],
      "stateMutability": "view",
      "type": "function"
    },
    {
      "inputs": [],
      "name": "zunamiPool",
      "outputs": [
        {
          "internalType": "contract IPool",
          "name": "",
          "type": "address"
        }
      ],
      "stateMutability": "view",
      "type": "function"
    },
    {
      "inputs": [],
      "name": "zunamiStable",
      "outputs": [
        {
          "internalType": "contract IERC20",
          "name": "",
          "type": "address"
        }
      ],
      "stateMutability": "view",
      "type": "function"
    }
  ],
  "bytecode": "0x6101606040526032600255601280546001600160a01b031990811673c02aaa39b223fe8d0a0e5c4f27ead9083c756cc21790915560138054909116735e8422345238f34275888049021821e8e08caa1f1790553480156200005f57600080fd5b506040518060a0016040528073c2e660c62f72c2ad35ace6db78a616215e2f22226001600160a01b03166001600160a01b0316815260200160006001600160a01b03166001600160a01b0316815260200160006001600160a01b03166001600160a01b0316815260200160006001600160a01b03166001600160a01b0316815260200160006001600160a01b03166001600160a01b03168152506040518060a00160405280600181526020016000815260200160008152602001600081526020016000815250733a65cbaebbfecbea5d0cb523ab56fdbda7ff9aaa8073d8bd5cdd145ed2197cb16ddb172df954e3f28659604b7354a00da65c79ddce24e7fe4691737fd70f7797df73c2e660c62f72c2ad35ace6db78a616215e2f2222878787878787858585858585858585858383620001a36000801b336200049b60201b60201c565b506000805b6005811015620002f757818015620001e357506000848260058110620001d257620001d26200062a565b60200201516001600160a01b031614155b156200020257604051631d37a6fd60e11b815260040160405180910390fd5b60008482600581106200021957620002196200062a565b60200201516001600160a01b0316036200023257600191505b60008482600581106200024957620002496200062a565b60200201516001600160a01b0316141580156200027d57508281600581106200027657620002766200062a565b6020020151155b80620002cf575060008482600581106200029b576200029b6200062a565b60200201516001600160a01b0316148015620002cf5750828160058110620002c757620002c76200062a565b602002015115155b15620002ee5760405163bfa45dc560e01b815260040160405180910390fd5b600101620001a8565b5062000307600384600562000585565b50620003176008836005620005e2565b5050506001600160a01b0383169050620003445760405163d92e233d60e01b815260040160405180910390fd5b6001600160a01b038083166080528116620003725760405163d92e233d60e01b815260040160405180910390fd5b6001600160a01b0390811660a05285169250620003a59150505760405163d92e233d60e01b815260040160405180910390fd5b6001600160a01b03821660e0526000819003620003d557604051637c946ed760e01b815260040160405180910390fd5b60c0819052620003e862093a806200054a565b505050505050620004207f5358bcfd81d1ef3da152b1755e1c3c6739686fa7e83dbcad0071568cc4b73a63336200049b60201b60201c565b5050506001600160a01b038616935062000451925050505760405163d92e233d60e01b815260040160405180910390fd5b6001600160a01b03808316610120528116620004805760405163d92e233d60e01b815260040160405180910390fd5b6001600160a01b031661014052506200064095505050505050565b6000828152602081815260408083206001600160a01b038516845290915281205460ff1662000540576000838152602081815260408083206001600160a01b03861684529091529020805460ff19166001179055620004f73390565b6001600160a01b0316826001600160a01b0316847f2f8788117e7eff1d82e926ec794901d17c78024a50270940304540a733656f0d60405160405180910390a450600162000544565b5060005b92915050565b60118190556040518181527f57753a889d1830ec176a512e55838bca3500c644653db868d60d1328b02a7ae89060200160405180910390a150565b8260058101928215620005d0579160200282015b82811115620005d057825182546001600160a01b0319166001600160a01b0390911617825560209092019160019091019062000599565b50620005de92915062000613565b5090565b8260058101928215620005d0579160200282015b82811115620005d0578251825591602001919060010190620005f6565b5b80821115620005de576000815560010162000614565b634e487b7160e01b600052603260045260246000fd5b60805160a05160c05160e051610100516101205161014051612d6c62000735600039600081816104c90152818161137b0152818161198f015261256e0152600081816106ad0152818161139d01528181611400015281816118300152611859015260006105d60152600081816102ed0152611fc301526000818161032c0152611f9d015260008181610647015281816112550152818161175001528181611c330152818161206a01526125ac01526000818161037401528181610ca8015281816112f701528181611694015281816117a6015281816119b101528181611e6a0152818161223201526122b10152612d6c6000f3fe608060405234801561001057600080fd5b50600436106102bb5760003560e01c80636524ee9011610182578063ac905114116100e9578063d547741f116100a2578063e9ec2e991161007c578063e9ec2e9914610685578063ec4d23e21461068d578063f0fa55a914610695578063f459fff4146106a857600080fd5b8063d547741f14610669578063d58f042b1461067c578063d5f651a41461051957600080fd5b8063ac905114146105f8578063b532617014610601578063b67d611d14610609578063bd38837b1461061c578063c56aa1661461062f578063cbdf382c1461064257600080fd5b806381a7b8941161013b57806381a7b8941461057d57806391d14854146105905780639d57b9a6146105a3578063a1c04f0e146105b6578063a217fddf146105c9578063aa5ccb90146105d157600080fd5b80636524ee90146105115780636c1516e1146105195780636d9164c6146105285780636e76fc8f1461053b57806375451b4f146105505780637dc0d1d01461056a57600080fd5b80632a9383421161022657806345bffdf6116101df57806345bffdf6146104955780634f64b2be1461049e578063530e784f146104b1578063550f5c98146104c457806356edb316146104eb57806359615983146104fe57600080fd5b80632a938342146104255780632e7f237f146104385780632f2ff15d1461045357806336489ed11461046657806336568abe146104795780633e032a3b1461048c57600080fd5b80632026ffa3116102785780632026ffa314610396578063213c79d8146103a9578063248a9ca3146103bc57806324e7964a146103df57806325122264146103f2578063258a5f291461040557600080fd5b806301ffc9a7146102c05780630229c64c146102e857806308051e97146103275780630cf391301461035c57806310c231c71461036657806316f0115b1461036f575b600080fd5b6102d36102ce366004612838565b6106cf565b60405190151581526020015b60405180910390f35b61030f7f000000000000000000000000000000000000000000000000000000000000000081565b6040516001600160a01b0390911681526020016102df565b61034e7f000000000000000000000000000000000000000000000000000000000000000081565b6040519081526020016102df565b610364610706565b005b61034e600e5481565b61030f7f000000000000000000000000000000000000000000000000000000000000000081565b6103646103a43660046128be565b6107d5565b60015461030f906001600160a01b031681565b61034e6103ca366004612985565b60009081526020819052604090206001015490565b600f5461030f906001600160a01b031681565b61036461040036600461299e565b610822565b61040d600081565b6040516001600160801b0390911681526020016102df565b61036461043336600461299e565b610849565b610440600081565b604051600f9190910b81526020016102df565b6103646104613660046129c0565b61086b565b610364610474366004612985565b610896565b6103646104873660046129c0565b6108b7565b61034e60025481565b61034e60105481565b61030f6104ac366004612985565b6108ea565b6103646104bf3660046129f0565b61090a565b61030f7f000000000000000000000000000000000000000000000000000000000000000081565b61034e6104f9366004612985565b61098a565b61036461050c3660046129f0565b6109a1565b61040d600181565b61034e670de0b6b3a764000081565b6102d3610536366004612a7b565b610a21565b61034e600080516020612d1783398151915281565b610558600581565b60405160ff90911681526020016102df565b600d5461030f906001600160a01b031681565b61036461058b366004612aba565b610bee565b6102d361059e3660046129c0565b610c7b565b61034e6105b1366004612ae4565b610ca4565b6103646105c43660046129f0565b610d3d565b61034e600081565b61030f7f000000000000000000000000000000000000000000000000000000000000000081565b61034e61271081565b610440600181565b61034e610617366004612aba565b610dcf565b60145461030f906001600160a01b031681565b61036461063d3660046129f0565b610e6a565b61030f7f000000000000000000000000000000000000000000000000000000000000000081565b6103646106773660046129c0565b610eea565b61034e60115481565b61034e610f0f565b61034e600881565b6103646106a3366004612985565b610f27565b61030f7f000000000000000000000000000000000000000000000000000000000000000081565b60006001600160e01b03198216637965db0b60e01b148061070057506301ffc9a760e01b6001600160e01b03198316145b92915050565b600080516020612d1783398151915261071e81610fa3565b60006011544261072e9190612b27565b600f5460105460405163d2fbdc0d60e01b81526004810191909152602481018390529192506001600160a01b03169063d2fbdc0d90604401600060405180830381600087803b15801561078057600080fd5b505af1158015610794573d6000803e3d6000fd5b505050507f63a64e7a40c0e2a36c53dc32093800983ae4f85819b9f357a5014138e10c5c3b816040516107c991815260200190565b60405180910390a15050565b6001546001600160a01b03163314610800576040516304d6e46b60e31b815260040160405180910390fd5b610808610fad565b61081e818361081960008551611076565b6110f5565b5050565b600080516020612d1783398151915261083a81610fa3565b61084483836111f6565b505050565b600080516020612d1783398151915261086181610fa3565b61084483836116f1565b60008281526020819052604090206001015461088681610fa3565b6108908383611a0d565b50505050565b600080516020612d178339815191526108ae81610fa3565b61081e82611a9f565b6001600160a01b03811633146108e05760405163334bd91960e11b815260040160405180910390fd5b6108448282611ada565b600381600581106108fa57600080fd5b01546001600160a01b0316905081565b600061091581610fa3565b6001600160a01b03821661093c5760405163d92e233d60e01b815260040160405180910390fd5b600d80546001600160a01b0319166001600160a01b0384169081179091556040519081527f6536690106168bdf4ba72c128a053d817999b1db90cae23f139b293bf862cb75906020016107c9565b6008816005811061099a57600080fd5b0154905081565b60006109ac81610fa3565b6001600160a01b0382166109d35760405163d92e233d60e01b815260040160405180910390fd5b600180546001600160a01b0319166001600160a01b0384169081179091556040519081527ffa639b2012458fd129b4bf30b2a98c9b56cc3a9ba0606013b8d1f9232cb4498a906020016107c9565b6001546000906001600160a01b03163314610a4f576040516304d6e46b60e31b815260040160405180910390fd5b6000610a5a84611b45565b9050610a67836000610ca4565b811015610a78576000915050610be7565b60408051600580825260c082019092526000916020820160a08036833701905050905060005b6005811015610b6f57600060038260058110610abc57610abc612b3a565b01546001600160a01b031614610b6f5760038160058110610adf57610adf612b3a565b01546040516370a0823160e01b81523060048201526001600160a01b03909116906370a0823190602401602060405180830381865afa158015610b26573d6000803e3d6000fd5b505050506040513d601f19601f82011682018060405250810190610b4a9190612b50565b828281518110610b5c57610b5c612b3a565b6020908102919091010152600101610a9e565b5081600e6000828254610b829190612b69565b90915550610b94905082856000611c03565b6040805160a0810191829052610be091610bd9919060039060059082845b81546001600160a01b03168152600190910190602001808311610bb2575050505050611c6d565b87836110f5565b6001925050505b9392505050565b6001546001600160a01b03163314610c19576040516304d6e46b60e31b815260040160405180910390fd5b610c27600e54826001611c03565b6000600e556040805160a0810191829052600380546001600160a01b03168252610c7892610c6b929190600590600460208501808311610bb2575050505050611c6d565b3361081960006005611076565b50565b6000918252602082815260408084206001600160a01b0393909316845291905290205460ff1690565b60007f00000000000000000000000000000000000000000000000000000000000000006001600160a01b0316633db06dd8610cde85611ceb565b846040518363ffffffff1660e01b8152600401610cfc929190612bb8565b602060405180830381865afa158015610d19573d6000803e3d6000fd5b505050506040513d601f19601f82011682018060405250810190610be79190612b50565b6000610d4881610fa3565b6040516370a0823160e01b81523060048201526000906001600160a01b038416906370a0823190602401602060405180830381865afa158015610d8f573d6000803e3d6000fd5b505050506040513d601f19601f82011682018060405250810190610db39190612b50565b90508015610844576108446001600160a01b0384163383611d3b565b6001546000906001600160a01b03163314610dfd576040516304d6e46b60e31b815260040160405180910390fd5b6000610e0883611d9a565b90506000610e1584611e62565b905080600e6000828254610e299190612b27565b90915550610e38905081611ea5565b9250610e4382611ec2565b831015610e6357604051630224f5df60e11b815260040160405180910390fd5b5050919050565b6000610e7581610fa3565b6001600160a01b038216610e9c5760405163d92e233d60e01b815260040160405180910390fd5b601480546001600160a01b0319166001600160a01b0384169081179091556040519081527f18f0ece2d6ea55163aef7a7c841762e706a96c532ed665e8abefaa00d1767fb8906020016107c9565b600082815260208190526040902060010154610f0581610fa3565b6108908383611ada565b6000610f22610f1d600e5490565b611ea5565b905090565b6000610f3281610fa3565b600082118015610f4457506127108211155b610f6157604051633f6fccb560e01b815260040160405180910390fd5b60025460408051918252602082018490527f785f467195f308c252d89e7e85c95a6b7646506ba4774a1dc54e0eedc08e3d43910160405180910390a150600255565b610c788133611ed7565b600f546001600160a01b0316610fbf57565b600f5460405163a4698feb60e01b8152600160048201526001600160a01b039091169063a4698feb90602401600060405180830381600087803b15801561100557600080fd5b505af1925050508015611016575060015b61107457600f5460405163a4698feb60e01b8152600060048201526001600160a01b039091169063a4698feb90602401600060405180830381600087803b15801561106057600080fd5b505af1158015610890573d6000803e3d6000fd5b565b60608167ffffffffffffffff81111561109157611091612877565b6040519080825280602002602001820160405280156110ba578160200160208202803683370190505b50905060005b828110156110ee57838282815181106110db576110db612b3a565b60209081029190910101526001016110c0565b5092915050565b60008060005b85518110156111ee5785818151811061111657611116612b3a565b6020026020010151915060006001600160a01b0316826001600160a01b031603156111ee5783818151811061114d5761114d612b3a565b60209081029190910101516040516370a0823160e01b81523060048201526001600160a01b038416906370a0823190602401602060405180830381865afa15801561119c573d6000803e3d6000fd5b505050506040513d601f19601f820116820180604052508101906111c09190612b50565b6111ca9190612b69565b925082156111e6576111e66001600160a01b0383168685611d3b565b6001016110fb565b505050505050565b600061120183611b45565b905080600e60008282546112159190612b69565b909155506112239050611f10565b670de0b6b3a764000083146112d0576040516370a0823160e01b81523060048201526112d09082906001600160a01b037f000000000000000000000000000000000000000000000000000000000000000016906370a08231906024015b602060405180830381865afa15801561129d573d6000803e3d6000fd5b505050506040513d601f19601f820116820180604052508101906112c19190612b50565b6112cb9190612b69565b611f7e565b604051630d2680e960e11b81526004810182905260006024820181905260448201819052907f00000000000000000000000000000000000000000000000000000000000000006001600160a01b031690631a4d01d2906064016020604051808303816000875af1158015611348573d6000803e3d6000fd5b505050506040513d601f19601f8201168201806040525081019061136c9190612b50565b90506113c26001600160a01b037f0000000000000000000000000000000000000000000000000000000000000000167f00000000000000000000000000000000000000000000000000000000000000008361218e565b6040805160a081018252600080825260208201819052818301819052606082018190526080820152905163ca54be3b60e01b81526001600160a01b037f0000000000000000000000000000000000000000000000000000000000000000169163ca54be3b916114379185913090600401612bff565b600060405180830381600087803b15801561145157600080fd5b505af1158015611465573d6000803e3d6000fd5b50506012546040516370a0823160e01b8152306004820152600093506001600160a01b0390911691506370a0823190602401602060405180830381865afa1580156114b4573d6000803e3d6000fd5b505050506040513d601f19601f820116820180604052508101906114d89190612b50565b905080156115a5576014546012546114fd916001600160a01b03918216911683611d3b565b6014546012546013546001600160a01b0392831692631a378db792811691168461152681611ec2565b6040516001600160e01b031960e087901b1681526001600160a01b039485166004820152939092166024840152604483015260648201526084016020604051808303816000875af115801561157f573d6000803e3d6000fd5b505050506040513d601f19601f820116820180604052508101906115a39190612b50565b505b6013546040516370a0823160e01b81523060048201526000916001600160a01b0316906370a0823190602401602060405180830381865afa1580156115ee573d6000803e3d6000fd5b505050506040513d601f19601f820116820180604052508101906116129190612b50565b90508481101561163557604051632ca2f52b60e11b815260040160405180910390fd5b60408051600880825261012082019092526000916020820161010080368337019050509050818160016001600160801b03168151811061167757611677612b3a565b60209081029190910101526013546116b9906001600160a01b03167f00000000000000000000000000000000000000000000000000000000000000008461218e565b60006116c482612218565b905080600e60008282546116d89190612b27565b909155506116e7905081611f7e565b5050505050505050565b60006116fc83611b45565b905080600e60008282546117109190612b69565b9091555061171e9050611f10565b670de0b6b3a7640000831461177f576040516370a0823160e01b815230600482015261177f9082906001600160a01b037f000000000000000000000000000000000000000000000000000000000000000016906370a0823190602401611280565b604051630d2680e960e11b81526004810182905260016024820152600060448201819052907f00000000000000000000000000000000000000000000000000000000000000006001600160a01b031690631a4d01d2906064016020604051808303816000875af11580156117f7573d6000803e3d6000fd5b505050506040513d601f19601f8201168201806040525081019061181b9190612b50565b601354909150611855906001600160a01b03167f00000000000000000000000000000000000000000000000000000000000000008361218e565b60007f00000000000000000000000000000000000000000000000000000000000000006001600160a01b0316632d62af2f6040518060a001604052806000815260200185815260200160008152602001600081526020016000815250306040518363ffffffff1660e01b81526004016118cf929190612c2c565b6020604051808303816000875af11580156118ee573d6000803e3d6000fd5b505050506040513d601f19601f820116820180604052508101906119129190612b50565b90508381101561193557604051632ca2f52b60e11b815260040160405180910390fd5b60408051600880825261012082019092526000916020820161010080368337019050509050818160006001600160801b03168151811061197757611977612b3a565b60209081029190910101526119d66001600160a01b037f0000000000000000000000000000000000000000000000000000000000000000167f00000000000000000000000000000000000000000000000000000000000000008461218e565b60006119e182612218565b905080600e60008282546119f59190612b27565b90915550611a04905081611f7e565b50505050505050565b6000611a198383610c7b565b611a97576000838152602081815260408083206001600160a01b03861684529091529020805460ff19166001179055611a4f3390565b6001600160a01b0316826001600160a01b0316847f2f8788117e7eff1d82e926ec794901d17c78024a50270940304540a733656f0d60405160405180910390a4506001610700565b506000610700565b60118190556040518181527f57753a889d1830ec176a512e55838bca3500c644653db868d60d1328b02a7ae89060200160405180910390a150565b6000611ae68383610c7b565b15611a97576000838152602081815260408083206001600160a01b0386168085529252808320805460ff1916905551339286917ff6391f5c32d9c69d2a47ea670b442974b53935d1edc7fd64eb21e047a839171b9190a4506001610700565b60008082118015611b5e5750670de0b6b3a76400008211155b611ba75760405162461bcd60e51b815260206004820152601560248201527457726f6e6720506f6f6c546f6b656e20526174696f60581b60448201526064015b60405180910390fd5b600082118015611bbf5750670de0b6b3a76400008211155b611bdc57604051634aa3778b60e01b815260040160405180910390fd5b670de0b6b3a764000082611bef600e5490565b611bf99190612c52565b6107009190612c69565b611c0b611f10565b80611c62576040516370a0823160e01b8152306004820152611c629084906001600160a01b037f000000000000000000000000000000000000000000000000000000000000000016906370a0823190602401611280565b6108448383836122ac565b60408051600580825260c082019092526060916020820160a08036833701905050905060005b6005811015611ce557828160058110611cae57611cae612b3a565b6020020151828281518110611cc557611cc5612b3a565b6001600160a01b0390921660209283029190910190910152600101611c93565b50919050565b604080516008808252610120820190925260609160009190602082016101008036833750508451825192935091839150600090611d2a57611d2a612b3a565b602090810291909101015292915050565b6040516001600160a01b0383811660248301526044820183905261084491859182169063a9059cbb906064015b604051602081830303815290604052915060e01b6020820180516001600160e01b038381831617835250505050612360565b6000805b6005811015611ce557600060038260058110611dbc57611dbc612b3a565b01546001600160a01b0316905080611dd45750611ce5565b670de0b6b3a764000060088360058110611df057611df0612b3a565b0154858460058110611e0457611e04612b3a565b6020020151611e2f60038660058110611e1f57611e1f612b3a565b01546001600160a01b03166123c3565b611e399190612c52565b611e439190612c52565b611e4d9190612c69565b611e579084612b27565b925050600101611d9e565b600080611e8f7f0000000000000000000000000000000000000000000000000000000000000000846124f9565b9050611e9a81612218565b9150611ce582611f7e565b6000670de0b6b3a7640000611eb86125a5565b611bf99084612c52565b6000612710600254612710611eb89190612b69565b611ee18282610c7b565b61081e5760405163e2517d3f60e01b81526001600160a01b038216600482015260248101839052604401611b9e565b600f54601054604051634ab794a360e01b81526001600160a01b0390921691634ab794a391611f459160040190815260200190565b600060405180830381600087803b158015611f5f57600080fd5b505af1158015611f73573d6000803e3d6000fd5b505060006010555050565b600f546001600160a01b031661205957604051639abbdf4b60e01b81527f000000000000000000000000000000000000000000000000000000000000000060048201527f00000000000000000000000000000000000000000000000000000000000000006001600160a01b031690639abbdf4b906024016020604051808303816000875af1158015612014573d6000803e3d6000fd5b505050506040513d601f19601f820116820180604052508101906120389190612c8b565b600f80546001600160a01b0319166001600160a01b03929092169190911790555b600f54612093906001600160a01b037f0000000000000000000000000000000000000000000000000000000000000000811691168361218e565b60105460000361211d57600f5460115460405163a41ce7e960e01b81526004810184905260248101919091526001600160a01b039091169063a41ce7e9906044016020604051808303816000875af11580156120f3573d6000803e3d6000fd5b505050506040513d601f19601f820116820180604052508101906121179190612b50565b60105550565b600f54601054604051630687c4bd60e01b81526001600160a01b0390921691630687c4bd91612159918590600401918252602082015260400190565b600060405180830381600087803b15801561217357600080fd5b505af1158015612187573d6000803e3d6000fd5b5050505050565b604051636eb1769f60e11b81523060048201526001600160a01b0383811660248301526000919085169063dd62ed3e90604401602060405180830381865afa1580156121de573d6000803e3d6000fd5b505050506040513d601f19601f820116820180604052508101906122029190612b50565b905061089084846122138585612b27565b6125d0565b604051635b96faef60e11b81526000906001600160a01b037f0000000000000000000000000000000000000000000000000000000000000000169063b72df5de906122699085908590600401612ca8565b6020604051808303816000875af1158015612288573d6000803e3d6000fd5b505050506040513d601f19601f820116820180604052508101906107009190612b50565b6000807f00000000000000000000000000000000000000000000000000000000000000006001600160a01b0316631a4d01d28683878160200201516040516001600160e01b031960e086901b1681526004810193909352600f9190910b602483015260448201526064016020604051808303816000875af1158015612335573d6000803e3d6000fd5b505050506040513d601f19601f820116820180604052508101906123599190612b50565b9050612187565b60006123756001600160a01b03841683612660565b9050805160001415801561239a5750808060200190518101906123989190612cca565b155b1561084457604051635274afe760e01b81526001600160a01b0384166004820152602401611b9e565b600073c02aaa39b223fe8d0a0e5c4f27ead9083c756cc1196001600160a01b038316016123f95750670de0b6b3a7640000919050565b600d54604051638b2f0f4f60e01b815273eeeeeeeeeeeeeeeeeeeeeeeeeeeeeeeeeeeeeeee60048201526001600160a01b0390911690638b2f0f4f90602401602060405180830381865afa158015612455573d6000803e3d6000fd5b505050506040513d601f19601f820116820180604052508101906124799190612b50565b600d54604051638b2f0f4f60e01b81526001600160a01b03858116600483015290911690638b2f0f4f90602401602060405180830381865afa1580156124c3573d6000803e3d6000fd5b505050506040513d601f19601f820116820180604052508101906124e79190612b50565b611bf990670de0b6b3a7640000612c52565b60408051600880825261012082019092526060916000919060208201610100803683375050845182519293509183915060009061253857612538612b3a565b602002602001018181525050610be7848260006001600160801b03168151811061256457612564612b3a565b60200260200101517f00000000000000000000000000000000000000000000000000000000000000006001600160a01b031661218e9092919063ffffffff16565b6000610f227f00000000000000000000000000000000000000000000000000000000000000006123c3565b604080516001600160a01b038416602482015260448082018490528251808303909101815260649091019091526020810180516001600160e01b031663095ea7b360e01b179052612621848261266e565b610890576040516001600160a01b0384811660248301526000604483015261265691869182169063095ea7b390606401611d68565b6108908482612360565b6060610be783836000612716565b6000806000846001600160a01b03168460405161268b9190612ce7565b6000604051808303816000865af19150503d80600081146126c8576040519150601f19603f3d011682016040523d82523d6000602084013e6126cd565b606091505b50915091508180156126f75750805115806126f75750808060200190518101906126f79190612cca565b801561270d57506000856001600160a01b03163b115b95945050505050565b60608147101561273b5760405163cd78605960e01b8152306004820152602401611b9e565b600080856001600160a01b031684866040516127579190612ce7565b60006040518083038185875af1925050503d8060008114612794576040519150601f19603f3d011682016040523d82523d6000602084013e612799565b606091505b50915091506127a98683836127b3565b9695505050505050565b6060826127c8576127c38261280f565b610be7565b81511580156127df57506001600160a01b0384163b155b1561280857604051639996b31560e01b81526001600160a01b0385166004820152602401611b9e565b5080610be7565b80511561281f5780518082602001fd5b604051630a12f52160e11b815260040160405180910390fd5b60006020828403121561284a57600080fd5b81356001600160e01b031981168114610be757600080fd5b6001600160a01b0381168114610c7857600080fd5b634e487b7160e01b600052604160045260246000fd5b604051601f8201601f1916810167ffffffffffffffff811182821017156128b6576128b6612877565b604052919050565b600080604083850312156128d157600080fd5b82356128dc81612862565b915060208381013567ffffffffffffffff808211156128fa57600080fd5b818601915086601f83011261290e57600080fd5b81358181111561292057612920612877565b8060051b915061293184830161288d565b818152918301840191848101908984111561294b57600080fd5b938501935b83851015612975578435925061296583612862565b8282529385019390850190612950565b8096505050505050509250929050565b60006020828403121561299757600080fd5b5035919050565b600080604083850312156129b157600080fd5b50508035926020909101359150565b600080604083850312156129d357600080fd5b8235915060208301356129e581612862565b809150509250929050565b600060208284031215612a0257600080fd5b8135610be781612862565b600082601f830112612a1e57600080fd5b60405160a0810181811067ffffffffffffffff82111715612a4157612a41612877565b6040528060a0840185811115612a5657600080fd5b845b81811015612a70578035835260209283019201612a58565b509195945050505050565b600080600060e08486031215612a9057600080fd5b8335612a9b81612862565b925060208401359150612ab18560408601612a0d565b90509250925092565b600060a08284031215612acc57600080fd5b610be78383612a0d565b8015158114610c7857600080fd5b60008060c08385031215612af757600080fd5b612b018484612a0d565b915060a08301356129e581612ad6565b634e487b7160e01b600052601160045260246000fd5b8082018082111561070057610700612b11565b634e487b7160e01b600052603260045260246000fd5b600060208284031215612b6257600080fd5b5051919050565b8181038181111561070057610700612b11565b60008151808452602080850194506020840160005b83811015612bad57815187529582019590820190600101612b91565b509495945050505050565b604081526000612bcb6040830185612b7c565b905082151560208301529392505050565b8060005b6005811015610890578151845260209384019390910190600101612be0565b83815260e08101612c136020830185612bdc565b6001600160a01b039290921660c0919091015292915050565b60c08101612c3a8285612bdc565b6001600160a01b039290921660a09190910152919050565b808202811582820484141761070057610700612b11565b600082612c8657634e487b7160e01b600052601260045260246000fd5b500490565b600060208284031215612c9d57600080fd5b8151610be781612862565b604081526000612cbb6040830185612b7c565b90508260208301529392505050565b600060208284031215612cdc57600080fd5b8151610be781612ad6565b6000825160005b81811015612d085760208186018101518583015201612cee565b50600092019182525091905056fe5358bcfd81d1ef3da152b1755e1c3c6739686fa7e83dbcad0071568cc4b73a63a26469706673582212206dc4ca97df0f43f6d3884360041c5d0dfeb592ad31cfb784b6f1077469d7bb4264736f6c63430008170033",
  "linkReferences": {},
  "deployedLinkReferences": {}
}