{
  "_format": "hh-sol-artifact-1",
  "contractName": "ZunETHVaultStrat",
  "sourceName": "contracts/configs/omnipool/ZunETHVaultStrat.sol",
  "abi": [
    {
      "inputs": [],
      "stateMutability": "nonpayable",
      "type": "constructor"
    },
    {
      "inputs": [],
      "name": "AccessControlBadConfirmation",
      "type": "error"
    },
    {
      "inputs": [
        {
          "internalType": "address",
          "name": "account",
          "type": "address"
        },
        {
          "internalType": "bytes32",
          "name": "neededRole",
          "type": "bytes32"
        }
      ],
      "name": "AccessControlUnauthorizedAccount",
      "type": "error"
    },
    {
      "inputs": [
        {
          "internalType": "address",
          "name": "target",
          "type": "address"
        }
      ],
      "name": "AddressEmptyCode",
      "type": "error"
    },
    {
      "inputs": [
        {
          "internalType": "address",
          "name": "account",
          "type": "address"
        }
      ],
      "name": "AddressInsufficientBalance",
      "type": "error"
    },
    {
      "inputs": [],
      "name": "FailedInnerCall",
      "type": "error"
    },
    {
      "inputs": [],
      "name": "MustBeCalledByZunamiPool",
      "type": "error"
    },
    {
      "inputs": [],
      "name": "MustHaveOwner",
      "type": "error"
    },
    {
      "inputs": [
        {
          "internalType": "address",
          "name": "token",
          "type": "address"
        }
      ],
      "name": "SafeERC20FailedOperation",
      "type": "error"
    },
    {
      "inputs": [
        {
          "internalType": "uint256",
          "name": "userDepositRatio",
          "type": "uint256"
        }
      ],
      "name": "WrongRatio",
      "type": "error"
    },
    {
      "inputs": [],
      "name": "ZeroAddress",
      "type": "error"
    },
    {
      "inputs": [],
      "name": "ZeroValue",
      "type": "error"
    },
    {
      "anonymous": false,
      "inputs": [
        {
          "indexed": true,
          "internalType": "bytes32",
          "name": "role",
          "type": "bytes32"
        },
        {
          "indexed": true,
          "internalType": "bytes32",
          "name": "previousAdminRole",
          "type": "bytes32"
        },
        {
          "indexed": true,
          "internalType": "bytes32",
          "name": "newAdminRole",
          "type": "bytes32"
        }
      ],
      "name": "RoleAdminChanged",
      "type": "event"
    },
    {
      "anonymous": false,
      "inputs": [
        {
          "indexed": true,
          "internalType": "bytes32",
          "name": "role",
          "type": "bytes32"
        },
        {
          "indexed": true,
          "internalType": "address",
          "name": "account",
          "type": "address"
        },
        {
          "indexed": true,
          "internalType": "address",
          "name": "sender",
          "type": "address"
        }
      ],
      "name": "RoleGranted",
      "type": "event"
    },
    {
      "anonymous": false,
      "inputs": [
        {
          "indexed": true,
          "internalType": "bytes32",
          "name": "role",
          "type": "bytes32"
        },
        {
          "indexed": true,
          "internalType": "address",
          "name": "account",
          "type": "address"
        },
        {
          "indexed": true,
          "internalType": "address",
          "name": "sender",
          "type": "address"
        }
      ],
      "name": "RoleRevoked",
      "type": "event"
    },
    {
      "anonymous": false,
      "inputs": [
        {
          "indexed": false,
          "internalType": "address",
          "name": "zunamiPoolAddr",
          "type": "address"
        }
      ],
      "name": "ZunamiPoolSet",
      "type": "event"
    },
    {
      "inputs": [],
      "name": "DEFAULT_ADMIN_ROLE",
      "outputs": [
        {
          "internalType": "bytes32",
          "name": "",
          "type": "bytes32"
        }
      ],
      "stateMutability": "view",
      "type": "function"
    },
    {
      "inputs": [],
      "name": "POOL_ASSETS",
      "outputs": [
        {
          "internalType": "uint8",
          "name": "",
          "type": "uint8"
        }
      ],
      "stateMutability": "view",
      "type": "function"
    },
    {
      "inputs": [],
      "name": "RATIO_MULTIPLIER",
      "outputs": [
        {
          "internalType": "uint256",
          "name": "",
          "type": "uint256"
        }
      ],
      "stateMutability": "view",
      "type": "function"
    },
    {
      "inputs": [
        {
          "internalType": "uint256[5]",
          "name": "tokenAmounts",
          "type": "uint256[5]"
        },
        {
          "internalType": "bool",
          "name": "",
          "type": "bool"
        }
      ],
      "name": "calcTokenAmount",
      "outputs": [
        {
          "internalType": "uint256",
          "name": "",
          "type": "uint256"
        }
      ],
      "stateMutability": "view",
      "type": "function"
    },
    {
      "inputs": [
        {
          "internalType": "address",
          "name": "receiver",
          "type": "address"
        },
        {
          "internalType": "contract IERC20[]",
          "name": "rewardTokens",
          "type": "address[]"
        }
      ],
      "name": "claimRewards",
      "outputs": [],
      "stateMutability": "nonpayable",
      "type": "function"
    },
    {
      "inputs": [
        {
          "internalType": "uint256[5]",
          "name": "amounts",
          "type": "uint256[5]"
        }
      ],
      "name": "deposit",
      "outputs": [
        {
          "internalType": "uint256",
          "name": "",
          "type": "uint256"
        }
      ],
      "stateMutability": "nonpayable",
      "type": "function"
    },
    {
      "inputs": [
        {
          "internalType": "uint256",
          "name": "",
          "type": "uint256"
        }
      ],
      "name": "depositedTokens",
      "outputs": [
        {
          "internalType": "uint256",
          "name": "",
          "type": "uint256"
        }
      ],
      "stateMutability": "view",
      "type": "function"
    },
    {
      "inputs": [
        {
          "internalType": "bytes32",
          "name": "role",
          "type": "bytes32"
        }
      ],
      "name": "getRoleAdmin",
      "outputs": [
        {
          "internalType": "bytes32",
          "name": "",
          "type": "bytes32"
        }
      ],
      "stateMutability": "view",
      "type": "function"
    },
    {
      "inputs": [
        {
          "internalType": "bytes32",
          "name": "role",
          "type": "bytes32"
        },
        {
          "internalType": "address",
          "name": "account",
          "type": "address"
        }
      ],
      "name": "grantRole",
      "outputs": [],
      "stateMutability": "nonpayable",
      "type": "function"
    },
    {
      "inputs": [
        {
          "internalType": "bytes32",
          "name": "role",
          "type": "bytes32"
        },
        {
          "internalType": "address",
          "name": "account",
          "type": "address"
        }
      ],
      "name": "hasRole",
      "outputs": [
        {
          "internalType": "bool",
          "name": "",
          "type": "bool"
        }
      ],
      "stateMutability": "view",
      "type": "function"
    },
    {
      "inputs": [
        {
          "internalType": "bytes32",
          "name": "role",
          "type": "bytes32"
        },
        {
          "internalType": "address",
          "name": "callerConfirmation",
          "type": "address"
        }
      ],
      "name": "renounceRole",
      "outputs": [],
      "stateMutability": "nonpayable",
      "type": "function"
    },
    {
      "inputs": [
        {
          "internalType": "bytes32",
          "name": "role",
          "type": "bytes32"
        },
        {
          "internalType": "address",
          "name": "account",
          "type": "address"
        }
      ],
      "name": "revokeRole",
      "outputs": [],
      "stateMutability": "nonpayable",
      "type": "function"
    },
    {
      "inputs": [
        {
          "internalType": "address",
          "name": "zunamiAddr",
          "type": "address"
        }
      ],
      "name": "setZunamiPool",
      "outputs": [],
      "stateMutability": "nonpayable",
      "type": "function"
    },
    {
      "inputs": [
        {
          "internalType": "bytes4",
          "name": "interfaceId",
          "type": "bytes4"
        }
      ],
      "name": "supportsInterface",
      "outputs": [
        {
          "internalType": "bool",
          "name": "",
          "type": "bool"
        }
      ],
      "stateMutability": "view",
      "type": "function"
    },
    {
      "inputs": [
        {
          "internalType": "uint256",
          "name": "",
          "type": "uint256"
        }
      ],
      "name": "tokenDecimalsMultipliers",
      "outputs": [
        {
          "internalType": "uint256",
          "name": "",
          "type": "uint256"
        }
      ],
      "stateMutability": "view",
      "type": "function"
    },
    {
      "inputs": [
        {
          "internalType": "uint256",
          "name": "",
          "type": "uint256"
        }
      ],
      "name": "tokens",
      "outputs": [
        {
          "internalType": "contract IERC20",
          "name": "",
          "type": "address"
        }
      ],
      "stateMutability": "view",
      "type": "function"
    },
    {
      "inputs": [],
      "name": "totalHoldings",
      "outputs": [
        {
          "internalType": "uint256",
          "name": "",
          "type": "uint256"
        }
      ],
      "stateMutability": "view",
      "type": "function"
    },
    {
      "inputs": [
        {
          "internalType": "address",
          "name": "receiver",
          "type": "address"
        },
        {
          "internalType": "uint256",
          "name": "userDepositRatio",
          "type": "uint256"
        },
        {
          "internalType": "uint256[5]",
          "name": "",
          "type": "uint256[5]"
        }
      ],
      "name": "withdraw",
      "outputs": [
        {
          "internalType": "bool",
          "name": "",
          "type": "bool"
        }
      ],
      "stateMutability": "nonpayable",
      "type": "function"
    },
    {
      "inputs": [
        {
          "internalType": "uint256[5]",
          "name": "",
          "type": "uint256[5]"
        }
      ],
      "name": "withdrawAll",
      "outputs": [],
      "stateMutability": "nonpayable",
      "type": "function"
    },
    {
      "inputs": [],
      "name": "zunamiPool",
      "outputs": [
        {
          "internalType": "contract IPool",
          "name": "",
          "type": "address"
        }
      ],
      "stateMutability": "view",
      "type": "function"
    }
  ],
  "bytecode": "0x60806040523480156200001157600080fd5b506040805160a0808201835273c02aaa39b223fe8d0a0e5c4f27ead9083c756cc28252735e8422345238f34275888049021821e8e08caa1f60208084019190915260008385018190526060808501829052608080860183905286519485018752600180865293850193909352948301819052938201849052810183905290916200009c9033620000c5565b50620000ac600283600562000174565b50620000bc6007826005620001d1565b50505062000219565b6000828152602081815260408083206001600160a01b038516845290915281205460ff166200016a576000838152602081815260408083206001600160a01b03861684529091529020805460ff19166001179055620001213390565b6001600160a01b0316826001600160a01b0316847f2f8788117e7eff1d82e926ec794901d17c78024a50270940304540a733656f0d60405160405180910390a45060016200016e565b5060005b92915050565b8260058101928215620001bf579160200282015b82811115620001bf57825182546001600160a01b0319166001600160a01b0390911617825560209092019160019091019062000188565b50620001cd92915062000202565b5090565b8260058101928215620001bf579160200282015b82811115620001bf578251825591602001919060010190620001e5565b5b80821115620001cd576000815560010162000203565b610f6b80620002296000396000f3fe608060405234801561001057600080fd5b506004361061012c5760003560e01c806375451b4f116100ad578063a217fddf11610071578063a217fddf146102a2578063b67d611d146102aa578063d547741f146102bd578063d5f651a4146102d0578063e9ec2e99146102df57600080fd5b806375451b4f1461023c57806381a7b8941461025657806391d148541461026957806397648cee1461027c5780639d57b9a61461028f57600080fd5b806336568abe116100f457806336568abe146101dd5780634f64b2be146101f057806356edb3161461020357806359615983146102165780636d9164c61461022957600080fd5b806301ffc9a7146101315780632026ffa314610159578063213c79d81461016e578063248a9ca3146101995780632f2ff15d146101ca575b600080fd5b61014461013f366004610b85565b6102e7565b60405190151581526020015b60405180910390f35b61016c610167366004610c0b565b61031e565b005b600154610181906001600160a01b031681565b6040516001600160a01b039091168152602001610150565b6101bc6101a7366004610cd2565b60009081526020819052604090206001015490565b604051908152602001610150565b61016c6101d8366004610ceb565b610356565b61016c6101eb366004610ceb565b610381565b6101816101fe366004610cd2565b6103b9565b6101bc610211366004610cd2565b6103d9565b61016c610224366004610d1b565b6103f0565b610144610237366004610da6565b610477565b610244600581565b60405160ff9091168152602001610150565b61016c610264366004610de5565b6104fd565b610144610277366004610ceb565b610552565b6101bc61028a366004610cd2565b61057b565b6101bc61029d366004610e0f565b61058b565b6101bc600081565b6101bc6102b8366004610e3c565b610608565b61016c6102cb366004610ceb565b6106fc565b6101bc670de0b6b3a764000081565b6101bc610721565b60006001600160e01b03198216637965db0b60e01b148061031857506301ffc9a760e01b6001600160e01b03198316145b92915050565b6001546001600160a01b0316336001600160a01b031614610352576040516304d6e46b60e31b815260040160405180910390fd5b5050565b600082815260208190526040902060010154610371816107ab565b61037b83836107b5565b50505050565b6001600160a01b03811633146103aa5760405163334bd91960e11b815260040160405180910390fd5b6103b48282610847565b505050565b600281600581106103c957600080fd5b01546001600160a01b0316905081565b600781600581106103e957600080fd5b0154905081565b60006103fb816107ab565b6001600160a01b0382166104225760405163d92e233d60e01b815260040160405180910390fd5b600180546001600160a01b0319166001600160a01b0384169081179091556040519081527ffa639b2012458fd129b4bf30b2a98c9b56cc3a9ba0606013b8d1f9232cb4498a9060200160405180910390a15050565b6001546000906001600160a01b0316336001600160a01b0316146104ae576040516304d6e46b60e31b815260040160405180910390fd5b8215806104c25750670de0b6b3a764000083115b156104e85760405163047600fd60e51b8152600481018490526024015b60405180910390fd5b6104f284846108b2565b5060015b9392505050565b6001546001600160a01b0316336001600160a01b031614610531576040516304d6e46b60e31b815260040160405180910390fd5b60015461054f906001600160a01b0316670de0b6b3a76400006108b2565b50565b6000918252602082815260408084206001600160a01b0393909316845291905290205460ff1690565b600c81600581106103e957600080fd5b600080805b6005811015610600578481600581106105ab576105ab610e5e565b6020020151156105f857600781600581106105c8576105c8610e5e565b01548582600581106105dc576105dc610e5e565b60200201516105eb9190610e8a565b6105f59083610ea1565b91505b600101610590565b509392505050565b6001546000906001600160a01b0316336001600160a01b03161461063f576040516304d6e46b60e31b815260040160405180910390fd5b6000805b60058110156106f557600084826005811061066057610660610e5e565b602002013511156106ed576007816005811061067e5761067e610e5e565b015484826005811061069257610692610e5e565b60200201356106a19190610e8a565b6106ab9083610ea1565b91508381600581106106bf576106bf610e5e565b6020020135600c82600581106106d7576106d7610e5e565b0160008282546106e79190610ea1565b90915550505b600101610643565b5092915050565b600082815260208190526040902060010154610717816107ab565b61037b8383610847565b600080805b60058110156107a55760006002826005811061074457610744610e5e565b01546001600160a01b031690508061075c57506107a5565b6007826005811061076f5761076f610e5e565b0154600c836005811061078457610784610e5e565b01546107909190610e8a565b61079a9084610ea1565b925050600101610726565b50919050565b61054f8133610999565b60006107c18383610552565b61083f576000838152602081815260408083206001600160a01b03861684529091529020805460ff191660011790556107f73390565b6001600160a01b0316826001600160a01b0316847f2f8788117e7eff1d82e926ec794901d17c78024a50270940304540a733656f0d60405160405180910390a4506001610318565b506000610318565b60006108538383610552565b1561083f576000838152602081815260408083206001600160a01b0386168085529252808320805460ff1916905551339286917ff6391f5c32d9c69d2a47ea670b442974b53935d1edc7fd64eb21e047a839171b9190a4506001610318565b60008060005b600581101561099257600281600581106108d4576108d4610e5e565b01546001600160a01b03169150811561099257670de0b6b3a7640000841461092e57670de0b6b3a764000084600c836005811061091357610913610e5e565b015461091f9190610e8a565b6109299190610eb4565b610944565b600c816005811061094157610941610e5e565b01545b9250821561098a5782600c826005811061096057610960610e5e565b0160008282546109709190610ed6565b9091555061098a90506001600160a01b03831686856109d2565b6001016108b8565b5050505050565b6109a38282610552565b6103525760405163e2517d3f60e01b81526001600160a01b0382166004820152602481018390526044016104df565b604080516001600160a01b03848116602483015260448083018590528351808403909101815260649092019092526020810180516001600160e01b031663a9059cbb60e01b1790526103b491859190600090610a3090841683610a7e565b90508051600014158015610a55575080806020019051810190610a539190610ee9565b155b156103b457604051635274afe760e01b81526001600160a01b03841660048201526024016104df565b60606104f68383600084600080856001600160a01b03168486604051610aa49190610f06565b60006040518083038185875af1925050503d8060008114610ae1576040519150601f19603f3d011682016040523d82523d6000602084013e610ae6565b606091505b5091509150610af6868383610b00565b9695505050505050565b606082610b1557610b1082610b5c565b6104f6565b8151158015610b2c57506001600160a01b0384163b155b15610b5557604051639996b31560e01b81526001600160a01b03851660048201526024016104df565b50806104f6565b805115610b6c5780518082602001fd5b604051630a12f52160e11b815260040160405180910390fd5b600060208284031215610b9757600080fd5b81356001600160e01b0319811681146104f657600080fd5b6001600160a01b038116811461054f57600080fd5b634e487b7160e01b600052604160045260246000fd5b604051601f8201601f1916810167ffffffffffffffff81118282101715610c0357610c03610bc4565b604052919050565b60008060408385031215610c1e57600080fd5b8235610c2981610baf565b915060208381013567ffffffffffffffff80821115610c4757600080fd5b818601915086601f830112610c5b57600080fd5b813581811115610c6d57610c6d610bc4565b8060051b9150610c7e848301610bda565b8181529183018401918481019089841115610c9857600080fd5b938501935b83851015610cc25784359250610cb283610baf565b8282529385019390850190610c9d565b8096505050505050509250929050565b600060208284031215610ce457600080fd5b5035919050565b60008060408385031215610cfe57600080fd5b823591506020830135610d1081610baf565b809150509250929050565b600060208284031215610d2d57600080fd5b81356104f681610baf565b600082601f830112610d4957600080fd5b60405160a0810181811067ffffffffffffffff82111715610d6c57610d6c610bc4565b6040528060a0840185811115610d8157600080fd5b845b81811015610d9b578035835260209283019201610d83565b509195945050505050565b600080600060e08486031215610dbb57600080fd5b8335610dc681610baf565b925060208401359150610ddc8560408601610d38565b90509250925092565b600060a08284031215610df757600080fd5b6104f68383610d38565b801515811461054f57600080fd5b60008060c08385031215610e2257600080fd5b610e2c8484610d38565b915060a0830135610d1081610e01565b600060a08284031215610e4e57600080fd5b8260a0830111156107a557600080fd5b634e487b7160e01b600052603260045260246000fd5b634e487b7160e01b600052601160045260246000fd5b808202811582820484141761031857610318610e74565b8082018082111561031857610318610e74565b600082610ed157634e487b7160e01b600052601260045260246000fd5b500490565b8181038181111561031857610318610e74565b600060208284031215610efb57600080fd5b81516104f681610e01565b6000825160005b81811015610f275760208186018101518583015201610f0d565b50600092019182525091905056fea2646970667358221220e3374418703c3df0ae96405f36e237e5de0ea12a5d92c183de5fef4e4e8268ca64736f6c63430008170033",
  "linkReferences": {},
  "deployedLinkReferences": {}
}