{
  "_format": "hh-sol-artifact-1",
  "contractName": "ZUNStakingRewardDistributor",
  "sourceName": "contracts/tokenomics/staking/ZUNStakingRewardDistributor.sol",
  "abi": [
    {
      "inputs": [],
      "name": "AbsentRewardToken",
      "type": "error"
    },
    {
      "inputs": [],
      "name": "AccessControlBadConfirmation",
      "type": "error"
    },
    {
      "inputs": [
        {
          "internalType": "address",
          "name": "account",
          "type": "address"
        },
        {
          "internalType": "bytes32",
          "name": "neededRole",
          "type": "bytes32"
        }
      ],
      "name": "AccessControlUnauthorizedAccount",
      "type": "error"
    },
    {
      "inputs": [
        {
          "internalType": "address",
          "name": "target",
          "type": "address"
        }
      ],
      "name": "AddressEmptyCode",
      "type": "error"
    },
    {
      "inputs": [
        {
          "internalType": "address",
          "name": "account",
          "type": "address"
        }
      ],
      "name": "AddressInsufficientBalance",
      "type": "error"
    },
    {
      "inputs": [],
      "name": "CheckpointUnorderedInsertion",
      "type": "error"
    },
    {
      "inputs": [],
      "name": "ECDSAInvalidSignature",
      "type": "error"
    },
    {
      "inputs": [
        {
          "internalType": "uint256",
          "name": "length",
          "type": "uint256"
        }
      ],
      "name": "ECDSAInvalidSignatureLength",
      "type": "error"
    },
    {
      "inputs": [
        {
          "internalType": "bytes32",
          "name": "s",
          "type": "bytes32"
        }
      ],
      "name": "ECDSAInvalidSignatureS",
      "type": "error"
    },
    {
      "inputs": [
        {
          "internalType": "address",
          "name": "implementation",
          "type": "address"
        }
      ],
      "name": "ERC1967InvalidImplementation",
      "type": "error"
    },
    {
      "inputs": [],
      "name": "ERC1967NonPayable",
      "type": "error"
    },
    {
      "inputs": [
        {
          "internalType": "uint256",
          "name": "increasedSupply",
          "type": "uint256"
        },
        {
          "internalType": "uint256",
          "name": "cap",
          "type": "uint256"
        }
      ],
      "name": "ERC20ExceededSafeSupply",
      "type": "error"
    },
    {
      "inputs": [
        {
          "internalType": "address",
          "name": "spender",
          "type": "address"
        },
        {
          "internalType": "uint256",
          "name": "allowance",
          "type": "uint256"
        },
        {
          "internalType": "uint256",
          "name": "needed",
          "type": "uint256"
        }
      ],
      "name": "ERC20InsufficientAllowance",
      "type": "error"
    },
    {
      "inputs": [
        {
          "internalType": "address",
          "name": "sender",
          "type": "address"
        },
        {
          "internalType": "uint256",
          "name": "balance",
          "type": "uint256"
        },
        {
          "internalType": "uint256",
          "name": "needed",
          "type": "uint256"
        }
      ],
      "name": "ERC20InsufficientBalance",
      "type": "error"
    },
    {
      "inputs": [
        {
          "internalType": "address",
          "name": "approver",
          "type": "address"
        }
      ],
      "name": "ERC20InvalidApprover",
      "type": "error"
    },
    {
      "inputs": [
        {
          "internalType": "address",
          "name": "receiver",
          "type": "address"
        }
      ],
      "name": "ERC20InvalidReceiver",
      "type": "error"
    },
    {
      "inputs": [
        {
          "internalType": "address",
          "name": "sender",
          "type": "address"
        }
      ],
      "name": "ERC20InvalidSender",
      "type": "error"
    },
    {
      "inputs": [
        {
          "internalType": "address",
          "name": "spender",
          "type": "address"
        }
      ],
      "name": "ERC20InvalidSpender",
      "type": "error"
    },
    {
      "inputs": [
        {
          "internalType": "uint256",
          "name": "deadline",
          "type": "uint256"
        }
      ],
      "name": "ERC2612ExpiredSignature",
      "type": "error"
    },
    {
      "inputs": [
        {
          "internalType": "address",
          "name": "signer",
          "type": "address"
        },
        {
          "internalType": "address",
          "name": "owner",
          "type": "address"
        }
      ],
      "name": "ERC2612InvalidSigner",
      "type": "error"
    },
    {
      "inputs": [
        {
          "internalType": "uint256",
          "name": "timepoint",
          "type": "uint256"
        },
        {
          "internalType": "uint48",
          "name": "clock",
          "type": "uint48"
        }
      ],
      "name": "ERC5805FutureLookup",
      "type": "error"
    },
    {
      "inputs": [],
      "name": "ERC6372InconsistentClock",
      "type": "error"
    },
    {
      "inputs": [],
      "name": "FailedInnerCall",
      "type": "error"
    },
    {
      "inputs": [
        {
          "internalType": "address",
          "name": "account",
          "type": "address"
        },
        {
          "internalType": "uint256",
          "name": "currentNonce",
          "type": "uint256"
        }
      ],
      "name": "InvalidAccountNonce",
      "type": "error"
    },
    {
      "inputs": [],
      "name": "InvalidInitialization",
      "type": "error"
    },
    {
      "inputs": [],
      "name": "LockDoesNotExist",
      "type": "error"
    },
    {
      "inputs": [],
      "name": "NotInitializing",
      "type": "error"
    },
    {
      "inputs": [],
      "name": "NotTransferable",
      "type": "error"
    },
    {
      "inputs": [],
      "name": "ReentrancyGuardReentrantCall",
      "type": "error"
    },
    {
      "inputs": [
        {
          "internalType": "uint8",
          "name": "bits",
          "type": "uint8"
        },
        {
          "internalType": "uint256",
          "name": "value",
          "type": "uint256"
        }
      ],
      "name": "SafeCastOverflowedUintDowncast",
      "type": "error"
    },
    {
      "inputs": [
        {
          "internalType": "address",
          "name": "token",
          "type": "address"
        }
      ],
      "name": "SafeERC20FailedOperation",
      "type": "error"
    },
    {
      "inputs": [],
      "name": "TokenAlreadyAdded",
      "type": "error"
    },
    {
      "inputs": [],
      "name": "UUPSUnauthorizedCallContext",
      "type": "error"
    },
    {
      "inputs": [
        {
          "internalType": "bytes32",
          "name": "slot",
          "type": "bytes32"
        }
      ],
      "name": "UUPSUnsupportedProxiableUUID",
      "type": "error"
    },
    {
      "inputs": [],
      "name": "Unlocked",
      "type": "error"
    },
    {
      "inputs": [
        {
          "internalType": "uint256",
          "name": "expiry",
          "type": "uint256"
        }
      ],
      "name": "VotesExpiredSignature",
      "type": "error"
    },
    {
      "inputs": [],
      "name": "WrongAmount",
      "type": "error"
    },
    {
      "inputs": [],
      "name": "ZeroAddress",
      "type": "error"
    },
    {
      "inputs": [],
      "name": "ZeroAmount",
      "type": "error"
    },
    {
      "inputs": [],
      "name": "ZeroSupply",
      "type": "error"
    },
    {
      "anonymous": false,
      "inputs": [
        {
          "indexed": true,
          "internalType": "address",
          "name": "owner",
          "type": "address"
        },
        {
          "indexed": true,
          "internalType": "address",
          "name": "spender",
          "type": "address"
        },
        {
          "indexed": false,
          "internalType": "uint256",
          "name": "value",
          "type": "uint256"
        }
      ],
      "name": "Approval",
      "type": "event"
    },
    {
      "anonymous": false,
      "inputs": [
        {
          "indexed": true,
          "internalType": "address",
          "name": "user",
          "type": "address"
        },
        {
          "indexed": true,
          "internalType": "uint256",
          "name": "tid",
          "type": "uint256"
        },
        {
          "indexed": false,
          "internalType": "uint256",
          "name": "amount",
          "type": "uint256"
        }
      ],
      "name": "Claimed",
      "type": "event"
    },
    {
      "anonymous": false,
      "inputs": [
        {
          "indexed": true,
          "internalType": "address",
          "name": "delegator",
          "type": "address"
        },
        {
          "indexed": true,
          "internalType": "address",
          "name": "fromDelegate",
          "type": "address"
        },
        {
          "indexed": true,
          "internalType": "address",
          "name": "toDelegate",
          "type": "address"
        }
      ],
      "name": "DelegateChanged",
      "type": "event"
    },
    {
      "anonymous": false,
      "inputs": [
        {
          "indexed": true,
          "internalType": "address",
          "name": "delegate",
          "type": "address"
        },
        {
          "indexed": false,
          "internalType": "uint256",
          "name": "previousVotes",
          "type": "uint256"
        },
        {
          "indexed": false,
          "internalType": "uint256",
          "name": "newVotes",
          "type": "uint256"
        }
      ],
      "name": "DelegateVotesChanged",
      "type": "event"
    },
    {
      "anonymous": false,
      "inputs": [
        {
          "indexed": true,
          "internalType": "address",
          "name": "user",
          "type": "address"
        },
        {
          "indexed": false,
          "internalType": "uint256",
          "name": "lockIndex",
          "type": "uint256"
        },
        {
          "indexed": false,
          "internalType": "uint256",
          "name": "amount",
          "type": "uint256"
        },
        {
          "indexed": false,
          "internalType": "uint256",
          "name": "untilBlock",
          "type": "uint256"
        }
      ],
      "name": "Deposited",
      "type": "event"
    },
    {
      "anonymous": false,
      "inputs": [
        {
          "indexed": true,
          "internalType": "uint256",
          "name": "tid",
          "type": "uint256"
        },
        {
          "indexed": false,
          "internalType": "uint256",
          "name": "distribution",
          "type": "uint256"
        }
      ],
      "name": "DistributionUpdated",
      "type": "event"
    },
    {
      "anonymous": false,
      "inputs": [],
      "name": "EIP712DomainChanged",
      "type": "event"
    },
    {
      "anonymous": false,
      "inputs": [
        {
          "indexed": false,
          "internalType": "address",
          "name": "receiver",
          "type": "address"
        }
      ],
      "name": "EarlyExitReceiverChanged",
      "type": "event"
    },
    {
      "anonymous": false,
      "inputs": [
        {
          "indexed": false,
          "internalType": "uint64",
          "name": "version",
          "type": "uint64"
        }
      ],
      "name": "Initialized",
      "type": "event"
    },
    {
      "anonymous": false,
      "inputs": [
        {
          "indexed": false,
          "internalType": "uint256",
          "name": "amount",
          "type": "uint256"
        }
      ],
      "name": "ReturnedToken",
      "type": "event"
    },
    {
      "anonymous": false,
      "inputs": [
        {
          "indexed": true,
          "internalType": "address",
          "name": "token",
          "type": "address"
        },
        {
          "indexed": true,
          "internalType": "uint256",
          "name": "tid",
          "type": "uint256"
        }
      ],
      "name": "RewardTokenAdded",
      "type": "event"
    },
    {
      "anonymous": false,
      "inputs": [
        {
          "indexed": true,
          "internalType": "address",
          "name": "claimant",
          "type": "address"
        },
        {
          "indexed": true,
          "internalType": "address",
          "name": "receiver",
          "type": "address"
        }
      ],
      "name": "RewardsReceiverSet",
      "type": "event"
    },
    {
      "anonymous": false,
      "inputs": [
        {
          "indexed": true,
          "internalType": "bytes32",
          "name": "role",
          "type": "bytes32"
        },
        {
          "indexed": true,
          "internalType": "bytes32",
          "name": "previousAdminRole",
          "type": "bytes32"
        },
        {
          "indexed": true,
          "internalType": "bytes32",
          "name": "newAdminRole",
          "type": "bytes32"
        }
      ],
      "name": "RoleAdminChanged",
      "type": "event"
    },
    {
      "anonymous": false,
      "inputs": [
        {
          "indexed": true,
          "internalType": "bytes32",
          "name": "role",
          "type": "bytes32"
        },
        {
          "indexed": true,
          "internalType": "address",
          "name": "account",
          "type": "address"
        },
        {
          "indexed": true,
          "internalType": "address",
          "name": "sender",
          "type": "address"
        }
      ],
      "name": "RoleGranted",
      "type": "event"
    },
    {
      "anonymous": false,
      "inputs": [
        {
          "indexed": true,
          "internalType": "bytes32",
          "name": "role",
          "type": "bytes32"
        },
        {
          "indexed": true,
          "internalType": "address",
          "name": "account",
          "type": "address"
        },
        {
          "indexed": true,
          "internalType": "address",
          "name": "sender",
          "type": "address"
        }
      ],
      "name": "RoleRevoked",
      "type": "event"
    },
    {
      "anonymous": false,
      "inputs": [
        {
          "indexed": true,
          "internalType": "address",
          "name": "from",
          "type": "address"
        },
        {
          "indexed": true,
          "internalType": "address",
          "name": "to",
          "type": "address"
        },
        {
          "indexed": false,
          "internalType": "uint256",
          "name": "value",
          "type": "uint256"
        }
      ],
      "name": "Transfer",
      "type": "event"
    },
    {
      "anonymous": false,
      "inputs": [
        {
          "indexed": true,
          "internalType": "address",
          "name": "implementation",
          "type": "address"
        }
      ],
      "name": "Upgraded",
      "type": "event"
    },
    {
      "anonymous": false,
      "inputs": [
        {
          "indexed": true,
          "internalType": "uint256",
          "name": "tid",
          "type": "uint256"
        },
        {
          "indexed": true,
          "internalType": "address",
          "name": "user",
          "type": "address"
        },
        {
          "indexed": false,
          "internalType": "uint256",
          "name": "distribution",
          "type": "uint256"
        }
      ],
      "name": "UserDistributionUpdated",
      "type": "event"
    },
    {
      "anonymous": false,
      "inputs": [
        {
          "indexed": true,
          "internalType": "address",
          "name": "user",
          "type": "address"
        },
        {
          "indexed": false,
          "internalType": "uint256",
          "name": "lockIndex",
          "type": "uint256"
        },
        {
          "indexed": false,
          "internalType": "uint256",
          "name": "amount",
          "type": "uint256"
        },
        {
          "indexed": false,
          "internalType": "uint256",
          "name": "amountReduced",
          "type": "uint256"
        },
        {
          "indexed": false,
          "internalType": "uint256",
          "name": "transferedAmount",
          "type": "uint256"
        }
      ],
      "name": "Withdrawn",
      "type": "event"
    },
    {
      "anonymous": false,
      "inputs": [
        {
          "indexed": false,
          "internalType": "uint256",
          "name": "amount",
          "type": "uint256"
        }
      ],
      "name": "WithdrawnToken",
      "type": "event"
    },
    {
      "inputs": [],
      "name": "BLOCKS_IN_4_MONTHS",
      "outputs": [
        {
          "internalType": "uint32",
          "name": "",
          "type": "uint32"
        }
      ],
      "stateMutability": "view",
      "type": "function"
    },
    {
      "inputs": [],
      "name": "CLOCK_MODE",
      "outputs": [
        {
          "internalType": "string",
          "name": "",
          "type": "string"
        }
      ],
      "stateMutability": "view",
      "type": "function"
    },
    {
      "inputs": [],
      "name": "DEFAULT_ADMIN_ROLE",
      "outputs": [
        {
          "internalType": "bytes32",
          "name": "",
          "type": "bytes32"
        }
      ],
      "stateMutability": "view",
      "type": "function"
    },
    {
      "inputs": [],
      "name": "DISTRIBUTION_DENOMINATOR",
      "outputs": [
        {
          "internalType": "uint256",
          "name": "",
          "type": "uint256"
        }
      ],
      "stateMutability": "view",
      "type": "function"
    },
    {
      "inputs": [],
      "name": "DISTRIBUTOR_ROLE",
      "outputs": [
        {
          "internalType": "bytes32",
          "name": "",
          "type": "bytes32"
        }
      ],
      "stateMutability": "view",
      "type": "function"
    },
    {
      "inputs": [],
      "name": "DOMAIN_SEPARATOR",
      "outputs": [
        {
          "internalType": "bytes32",
          "name": "",
          "type": "bytes32"
        }
      ],
      "stateMutability": "view",
      "type": "function"
    },
    {
      "inputs": [],
      "name": "EXIT_PERCENT",
      "outputs": [
        {
          "internalType": "uint16",
          "name": "",
          "type": "uint16"
        }
      ],
      "stateMutability": "view",
      "type": "function"
    },
    {
      "inputs": [],
      "name": "PERCENT_DENOMINATOR",
      "outputs": [
        {
          "internalType": "uint16",
          "name": "",
          "type": "uint16"
        }
      ],
      "stateMutability": "view",
      "type": "function"
    },
    {
      "inputs": [],
      "name": "RATIO_DENOMINATOR",
      "outputs": [
        {
          "internalType": "uint256",
          "name": "",
          "type": "uint256"
        }
      ],
      "stateMutability": "view",
      "type": "function"
    },
    {
      "inputs": [],
      "name": "RECAPITALIZATION_ROLE",
      "outputs": [
        {
          "internalType": "bytes32",
          "name": "",
          "type": "bytes32"
        }
      ],
      "stateMutability": "view",
      "type": "function"
    },
    {
      "inputs": [],
      "name": "UPGRADE_INTERFACE_VERSION",
      "outputs": [
        {
          "internalType": "string",
          "name": "",
          "type": "string"
        }
      ],
      "stateMutability": "view",
      "type": "function"
    },
    {
      "inputs": [
        {
          "internalType": "contract IERC20",
          "name": "_token",
          "type": "address"
        }
      ],
      "name": "addRewardToken",
      "outputs": [],
      "stateMutability": "nonpayable",
      "type": "function"
    },
    {
      "inputs": [
        {
          "internalType": "address",
          "name": "owner",
          "type": "address"
        },
        {
          "internalType": "address",
          "name": "spender",
          "type": "address"
        }
      ],
      "name": "allowance",
      "outputs": [
        {
          "internalType": "uint256",
          "name": "",
          "type": "uint256"
        }
      ],
      "stateMutability": "view",
      "type": "function"
    },
    {
      "inputs": [
        {
          "internalType": "address",
          "name": "spender",
          "type": "address"
        },
        {
          "internalType": "uint256",
          "name": "value",
          "type": "uint256"
        }
      ],
      "name": "approve",
      "outputs": [
        {
          "internalType": "bool",
          "name": "",
          "type": "bool"
        }
      ],
      "stateMutability": "nonpayable",
      "type": "function"
    },
    {
      "inputs": [
        {
          "internalType": "address",
          "name": "account",
          "type": "address"
        }
      ],
      "name": "balanceOf",
      "outputs": [
        {
          "internalType": "uint256",
          "name": "",
          "type": "uint256"
        }
      ],
      "stateMutability": "view",
      "type": "function"
    },
    {
      "inputs": [
        {
          "internalType": "address",
          "name": "account",
          "type": "address"
        },
        {
          "internalType": "uint32",
          "name": "pos",
          "type": "uint32"
        }
      ],
      "name": "checkpoints",
      "outputs": [
        {
          "components": [
            {
              "internalType": "uint48",
              "name": "_key",
              "type": "uint48"
            },
            {
              "internalType": "uint208",
              "name": "_value",
              "type": "uint208"
            }
          ],
          "internalType": "struct Checkpoints.Checkpoint208",
          "name": "",
          "type": "tuple"
        }
      ],
      "stateMutability": "view",
      "type": "function"
    },
    {
      "inputs": [
        {
          "internalType": "address",
          "name": "_receiver",
          "type": "address"
        }
      ],
      "name": "claim",
      "outputs": [],
      "stateMutability": "nonpayable",
      "type": "function"
    },
    {
      "inputs": [
        {
          "internalType": "uint256",
          "name": "",
          "type": "uint256"
        },
        {
          "internalType": "address",
          "name": "",
          "type": "address"
        }
      ],
      "name": "claimableRewards",
      "outputs": [
        {
          "internalType": "uint256",
          "name": "",
          "type": "uint256"
        }
      ],
      "stateMutability": "view",
      "type": "function"
    },
    {
      "inputs": [
        {
          "internalType": "uint256",
          "name": "",
          "type": "uint256"
        },
        {
          "internalType": "address",
          "name": "",
          "type": "address"
        }
      ],
      "name": "claimedRewards",
      "outputs": [
        {
          "internalType": "uint256",
          "name": "",
          "type": "uint256"
        }
      ],
      "stateMutability": "view",
      "type": "function"
    },
    {
      "inputs": [],
      "name": "clock",
      "outputs": [
        {
          "internalType": "uint48",
          "name": "",
          "type": "uint48"
        }
      ],
      "stateMutability": "view",
      "type": "function"
    },
    {
      "inputs": [],
      "name": "decimals",
      "outputs": [
        {
          "internalType": "uint8",
          "name": "",
          "type": "uint8"
        }
      ],
      "stateMutability": "view",
      "type": "function"
    },
    {
      "inputs": [
        {
          "internalType": "address",
          "name": "delegatee",
          "type": "address"
        }
      ],
      "name": "delegate",
      "outputs": [],
      "stateMutability": "nonpayable",
      "type": "function"
    },
    {
      "inputs": [
        {
          "internalType": "address",
          "name": "delegatee",
          "type": "address"
        },
        {
          "internalType": "uint256",
          "name": "nonce",
          "type": "uint256"
        },
        {
          "internalType": "uint256",
          "name": "expiry",
          "type": "uint256"
        },
        {
          "internalType": "uint8",
          "name": "v",
          "type": "uint8"
        },
        {
          "internalType": "bytes32",
          "name": "r",
          "type": "bytes32"
        },
        {
          "internalType": "bytes32",
          "name": "s",
          "type": "bytes32"
        }
      ],
      "name": "delegateBySig",
      "outputs": [],
      "stateMutability": "nonpayable",
      "type": "function"
    },
    {
      "inputs": [
        {
          "internalType": "address",
          "name": "account",
          "type": "address"
        }
      ],
      "name": "delegates",
      "outputs": [
        {
          "internalType": "address",
          "name": "",
          "type": "address"
        }
      ],
      "stateMutability": "view",
      "type": "function"
    },
    {
      "inputs": [
        {
          "internalType": "uint256",
          "name": "_amount",
          "type": "uint256"
        },
        {
          "internalType": "address",
          "name": "_receiver",
          "type": "address"
        }
      ],
      "name": "deposit",
      "outputs": [],
      "stateMutability": "nonpayable",
      "type": "function"
    },
    {
      "inputs": [
        {
          "internalType": "uint256",
          "name": "_amount",
          "type": "uint256"
        },
        {
          "internalType": "address",
          "name": "_receiver",
          "type": "address"
        },
        {
          "internalType": "uint256",
          "name": "_deadline",
          "type": "uint256"
        },
        {
          "internalType": "uint8",
          "name": "_v",
          "type": "uint8"
        },
        {
          "internalType": "bytes32",
          "name": "_r",
          "type": "bytes32"
        },
        {
          "internalType": "bytes32",
          "name": "_s",
          "type": "bytes32"
        }
      ],
      "name": "depositWithPermit",
      "outputs": [],
      "stateMutability": "nonpayable",
      "type": "function"
    },
    {
      "inputs": [
        {
          "internalType": "address",
          "name": "_token",
          "type": "address"
        },
        {
          "internalType": "uint256",
          "name": "_amount",
          "type": "uint256"
        }
      ],
      "name": "distribute",
      "outputs": [],
      "stateMutability": "nonpayable",
      "type": "function"
    },
    {
      "inputs": [],
      "name": "earlyExitReceiver",
      "outputs": [
        {
          "internalType": "address",
          "name": "",
          "type": "address"
        }
      ],
      "stateMutability": "view",
      "type": "function"
    },
    {
      "inputs": [],
      "name": "eip712Domain",
      "outputs": [
        {
          "internalType": "bytes1",
          "name": "fields",
          "type": "bytes1"
        },
        {
          "internalType": "string",
          "name": "name",
          "type": "string"
        },
        {
          "internalType": "string",
          "name": "version",
          "type": "string"
        },
        {
          "internalType": "uint256",
          "name": "chainId",
          "type": "uint256"
        },
        {
          "internalType": "address",
          "name": "verifyingContract",
          "type": "address"
        },
        {
          "internalType": "bytes32",
          "name": "salt",
          "type": "bytes32"
        },
        {
          "internalType": "uint256[]",
          "name": "extensions",
          "type": "uint256[]"
        }
      ],
      "stateMutability": "view",
      "type": "function"
    },
    {
      "inputs": [
        {
          "internalType": "uint256",
          "name": "timepoint",
          "type": "uint256"
        }
      ],
      "name": "getPastTotalSupply",
      "outputs": [
        {
          "internalType": "uint256",
          "name": "",
          "type": "uint256"
        }
      ],
      "stateMutability": "view",
      "type": "function"
    },
    {
      "inputs": [
        {
          "internalType": "address",
          "name": "account",
          "type": "address"
        },
        {
          "internalType": "uint256",
          "name": "timepoint",
          "type": "uint256"
        }
      ],
      "name": "getPastVotes",
      "outputs": [
        {
          "internalType": "uint256",
          "name": "",
          "type": "uint256"
        }
      ],
      "stateMutability": "view",
      "type": "function"
    },
    {
      "inputs": [
        {
          "internalType": "uint256",
          "name": "_tid",
          "type": "uint256"
        },
        {
          "internalType": "address",
          "name": "_user",
          "type": "address"
        }
      ],
      "name": "getPendingReward",
      "outputs": [
        {
          "internalType": "uint256",
          "name": "",
          "type": "uint256"
        }
      ],
      "stateMutability": "view",
      "type": "function"
    },
    {
      "inputs": [],
      "name": "getRecapitalizationRatio",
      "outputs": [
        {
          "internalType": "uint256",
          "name": "",
          "type": "uint256"
        }
      ],
      "stateMutability": "view",
      "type": "function"
    },
    {
      "inputs": [
        {
          "internalType": "bytes32",
          "name": "role",
          "type": "bytes32"
        }
      ],
      "name": "getRoleAdmin",
      "outputs": [
        {
          "internalType": "bytes32",
          "name": "",
          "type": "bytes32"
        }
      ],
      "stateMutability": "view",
      "type": "function"
    },
    {
      "inputs": [
        {
          "internalType": "address",
          "name": "account",
          "type": "address"
        }
      ],
      "name": "getVotes",
      "outputs": [
        {
          "internalType": "uint256",
          "name": "",
          "type": "uint256"
        }
      ],
      "stateMutability": "view",
      "type": "function"
    },
    {
      "inputs": [
        {
          "internalType": "bytes32",
          "name": "role",
          "type": "bytes32"
        },
        {
          "internalType": "address",
          "name": "account",
          "type": "address"
        }
      ],
      "name": "grantRole",
      "outputs": [],
      "stateMutability": "nonpayable",
      "type": "function"
    },
    {
      "inputs": [
        {
          "internalType": "bytes32",
          "name": "role",
          "type": "bytes32"
        },
        {
          "internalType": "address",
          "name": "account",
          "type": "address"
        }
      ],
      "name": "hasRole",
      "outputs": [
        {
          "internalType": "bool",
          "name": "",
          "type": "bool"
        }
      ],
      "stateMutability": "view",
      "type": "function"
    },
    {
      "inputs": [
        {
          "internalType": "address",
          "name": "_token",
          "type": "address"
        },
        {
          "internalType": "string",
          "name": "_name",
          "type": "string"
        },
        {
          "internalType": "string",
          "name": "_symbol",
          "type": "string"
        },
        {
          "internalType": "address",
          "name": "_defaultAdmin",
          "type": "address"
        }
      ],
      "name": "initialize",
      "outputs": [],
      "stateMutability": "nonpayable",
      "type": "function"
    },
    {
      "inputs": [
        {
          "internalType": "address",
          "name": "_token",
          "type": "address"
        }
      ],
      "name": "isRewardTokenAdded",
      "outputs": [
        {
          "internalType": "bool",
          "name": "",
          "type": "bool"
        }
      ],
      "stateMutability": "view",
      "type": "function"
    },
    {
      "inputs": [],
      "name": "name",
      "outputs": [
        {
          "internalType": "string",
          "name": "",
          "type": "string"
        }
      ],
      "stateMutability": "view",
      "type": "function"
    },
    {
      "inputs": [
        {
          "internalType": "address",
          "name": "owner",
          "type": "address"
        }
      ],
      "name": "nonces",
      "outputs": [
        {
          "internalType": "uint256",
          "name": "",
          "type": "uint256"
        }
      ],
      "stateMutability": "view",
      "type": "function"
    },
    {
      "inputs": [
        {
          "internalType": "address",
          "name": "account",
          "type": "address"
        }
      ],
      "name": "numCheckpoints",
      "outputs": [
        {
          "internalType": "uint32",
          "name": "",
          "type": "uint32"
        }
      ],
      "stateMutability": "view",
      "type": "function"
    },
    {
      "inputs": [
        {
          "internalType": "address",
          "name": "owner",
          "type": "address"
        },
        {
          "internalType": "address",
          "name": "spender",
          "type": "address"
        },
        {
          "internalType": "uint256",
          "name": "value",
          "type": "uint256"
        },
        {
          "internalType": "uint256",
          "name": "deadline",
          "type": "uint256"
        },
        {
          "internalType": "uint8",
          "name": "v",
          "type": "uint8"
        },
        {
          "internalType": "bytes32",
          "name": "r",
          "type": "bytes32"
        },
        {
          "internalType": "bytes32",
          "name": "s",
          "type": "bytes32"
        }
      ],
      "name": "permit",
      "outputs": [],
      "stateMutability": "nonpayable",
      "type": "function"
    },
    {
      "inputs": [],
      "name": "proxiableUUID",
      "outputs": [
        {
          "internalType": "bytes32",
          "name": "",
          "type": "bytes32"
        }
      ],
      "stateMutability": "view",
      "type": "function"
    },
    {
      "inputs": [],
      "name": "recapitalizedAmount",
      "outputs": [
        {
          "internalType": "uint256",
          "name": "",
          "type": "uint256"
        }
      ],
      "stateMutability": "view",
      "type": "function"
    },
    {
      "inputs": [
        {
          "internalType": "bytes32",
          "name": "role",
          "type": "bytes32"
        },
        {
          "internalType": "address",
          "name": "callerConfirmation",
          "type": "address"
        }
      ],
      "name": "renounceRole",
      "outputs": [],
      "stateMutability": "nonpayable",
      "type": "function"
    },
    {
      "inputs": [
        {
          "internalType": "uint256",
          "name": "amount",
          "type": "uint256"
        }
      ],
      "name": "returnToken",
      "outputs": [],
      "stateMutability": "nonpayable",
      "type": "function"
    },
    {
      "inputs": [
        {
          "internalType": "bytes32",
          "name": "role",
          "type": "bytes32"
        },
        {
          "internalType": "address",
          "name": "account",
          "type": "address"
        }
      ],
      "name": "revokeRole",
      "outputs": [],
      "stateMutability": "nonpayable",
      "type": "function"
    },
    {
      "inputs": [],
      "name": "rewardTokenCount",
      "outputs": [
        {
          "internalType": "uint256",
          "name": "",
          "type": "uint256"
        }
      ],
      "stateMutability": "view",
      "type": "function"
    },
    {
      "inputs": [
        {
          "internalType": "uint256",
          "name": "",
          "type": "uint256"
        }
      ],
      "name": "rewardTokenInfo",
      "outputs": [
        {
          "internalType": "contract IERC20",
          "name": "token",
          "type": "address"
        },
        {
          "internalType": "uint256",
          "name": "balance",
          "type": "uint256"
        },
        {
          "internalType": "uint256",
          "name": "distribution",
          "type": "uint256"
        }
      ],
      "stateMutability": "view",
      "type": "function"
    },
    {
      "inputs": [
        {
          "internalType": "address",
          "name": "",
          "type": "address"
        }
      ],
      "name": "rewardTokenTidByAddress",
      "outputs": [
        {
          "internalType": "uint256",
          "name": "",
          "type": "uint256"
        }
      ],
      "stateMutability": "view",
      "type": "function"
    },
    {
      "inputs": [
        {
          "internalType": "address",
          "name": "",
          "type": "address"
        }
      ],
      "name": "rewardsReceiver",
      "outputs": [
        {
          "internalType": "address",
          "name": "",
          "type": "address"
        }
      ],
      "stateMutability": "view",
      "type": "function"
    },
    {
      "inputs": [
        {
          "internalType": "address",
          "name": "_receiver",
          "type": "address"
        }
      ],
      "name": "setEarlyExitReceiver",
      "outputs": [],
      "stateMutability": "nonpayable",
      "type": "function"
    },
    {
      "inputs": [
        {
          "internalType": "address",
          "name": "_receiver",
          "type": "address"
        }
      ],
      "name": "setRewardsReceiver",
      "outputs": [],
      "stateMutability": "nonpayable",
      "type": "function"
    },
    {
      "inputs": [
        {
          "internalType": "bytes4",
          "name": "interfaceId",
          "type": "bytes4"
        }
      ],
      "name": "supportsInterface",
      "outputs": [
        {
          "internalType": "bool",
          "name": "",
          "type": "bool"
        }
      ],
      "stateMutability": "view",
      "type": "function"
    },
    {
      "inputs": [],
      "name": "symbol",
      "outputs": [
        {
          "internalType": "string",
          "name": "",
          "type": "string"
        }
      ],
      "stateMutability": "view",
      "type": "function"
    },
    {
      "inputs": [],
      "name": "token",
      "outputs": [
        {
          "internalType": "contract IERC20",
          "name": "",
          "type": "address"
        }
      ],
      "stateMutability": "view",
      "type": "function"
    },
    {
      "inputs": [],
      "name": "totalAmount",
      "outputs": [
        {
          "internalType": "uint256",
          "name": "",
          "type": "uint256"
        }
      ],
      "stateMutability": "view",
      "type": "function"
    },
    {
      "inputs": [],
      "name": "totalSupply",
      "outputs": [
        {
          "internalType": "uint256",
          "name": "",
          "type": "uint256"
        }
      ],
      "stateMutability": "view",
      "type": "function"
    },
    {
      "inputs": [
        {
          "internalType": "address",
          "name": "recipient",
          "type": "address"
        },
        {
          "internalType": "uint256",
          "name": "amount",
          "type": "uint256"
        }
      ],
      "name": "transfer",
      "outputs": [
        {
          "internalType": "bool",
          "name": "",
          "type": "bool"
        }
      ],
      "stateMutability": "nonpayable",
      "type": "function"
    },
    {
      "inputs": [
        {
          "internalType": "address",
          "name": "sender",
          "type": "address"
        },
        {
          "internalType": "address",
          "name": "recipient",
          "type": "address"
        },
        {
          "internalType": "uint256",
          "name": "amount",
          "type": "uint256"
        }
      ],
      "name": "transferFrom",
      "outputs": [
        {
          "internalType": "bool",
          "name": "",
          "type": "bool"
        }
      ],
      "stateMutability": "nonpayable",
      "type": "function"
    },
    {
      "inputs": [
        {
          "internalType": "address",
          "name": "newImplementation",
          "type": "address"
        },
        {
          "internalType": "bytes",
          "name": "data",
          "type": "bytes"
        }
      ],
      "name": "upgradeToAndCall",
      "outputs": [],
      "stateMutability": "payable",
      "type": "function"
    },
    {
      "inputs": [
        {
          "internalType": "address",
          "name": "",
          "type": "address"
        },
        {
          "internalType": "uint256",
          "name": "",
          "type": "uint256"
        }
      ],
      "name": "userLocks",
      "outputs": [
        {
          "internalType": "uint128",
          "name": "amount",
          "type": "uint128"
        },
        {
          "internalType": "uint128",
          "name": "untilBlock",
          "type": "uint128"
        }
      ],
      "stateMutability": "view",
      "type": "function"
    },
    {
      "inputs": [
        {
          "internalType": "address",
          "name": "",
          "type": "address"
        },
        {
          "internalType": "uint256",
          "name": "",
          "type": "uint256"
        }
      ],
      "name": "userRewardDistribution",
      "outputs": [
        {
          "internalType": "uint256",
          "name": "",
          "type": "uint256"
        }
      ],
      "stateMutability": "view",
      "type": "function"
    },
    {
      "inputs": [],
      "name": "version",
      "outputs": [
        {
          "internalType": "uint256",
          "name": "",
          "type": "uint256"
        }
      ],
      "stateMutability": "pure",
      "type": "function"
    },
    {
      "inputs": [
        {
          "internalType": "uint256",
          "name": "_lockIndex",
          "type": "uint256"
        },
        {
          "internalType": "bool",
          "name": "_claimRewards",
          "type": "bool"
        },
        {
          "internalType": "address",
          "name": "_tokenReceiver",
          "type": "address"
        }
      ],
      "name": "withdraw",
      "outputs": [],
      "stateMutability": "nonpayable",
      "type": "function"
    },
    {
      "inputs": [
        {
          "internalType": "contract IERC20",
          "name": "_token",
          "type": "address"
        }
      ],
      "name": "withdrawEmergency",
      "outputs": [],
      "stateMutability": "nonpayable",
      "type": "function"
    },
    {
      "inputs": [
        {
          "internalType": "uint256",
          "name": "amount",
          "type": "uint256"
        }
      ],
      "name": "withdrawToken",
      "outputs": [],
      "stateMutability": "nonpayable",
      "type": "function"
    }
  ],
  "bytecode": "0x60a0604052306080523480156200001557600080fd5b506200002062000026565b620000da565b7ff0c57e16840df040f15088dc2f81fe391c3923bec73e23a9662efc9c229c6a00805468010000000000000000900460ff1615620000775760405163f92ee8a960e01b815260040160405180910390fd5b80546001600160401b0390811614620000d75780546001600160401b0319166001600160401b0390811782556040519081527fc7f505b2f371ae2175ee4913f4499e1f2633a7b5936321eed1cdaeb6115181d29060200160405180910390a15b50565b608051614c5762000104600039600081816125ce015281816125f701526128dc0152614c576000f3fe6080604052600436106103ef5760003560e01c80637ecebe0011610208578063b33068c411610118578063dd62ed3e116100ab578063f0bd87cc1161007a578063f0bd87cc14610cd4578063f1127ed814610d08578063f19562b61461081a578063fb93210814610d54578063fc0c546a14610d7457600080fd5b8063dd62ed3e14610c24578063e4478bac14610c89578063e568582314610c9e578063ecbcd98c14610cbe57600080fd5b8063c59b1f3c116100e7578063c59b1f3c14610ba4578063cd5d9ae714610bc4578063d505accf14610be4578063d547741f14610c0457600080fd5b8063b33068c414610af4578063b6663e9414610b2c578063bd095c9e14610b4c578063c3cda52014610b8457600080fd5b80639e6c29591161019b578063aa33fedb1161016a578063aa33fedb14610a0d578063abb06b9514610a4d578063ad3cb1cc14610a62578063af8ef87c14610a93578063b1c20abe14610ac757600080fd5b80639e6c2959146109a7578063a1c04f0e146109bd578063a217fddf146109dd578063a9059cbb146109f257600080fd5b806391d14854116101d757806391d148541461092657806391ddadf41461094657806395d89b41146109725780639ab24eb01461098757600080fd5b80637ecebe001461089657806384b0196e146108b65780638e539e8c146108de5780638f44dd55146108fe57600080fd5b80634479fc6711610303578063587cde1e1161029657806368bbad981161026557806368bbad98146107e45780636a6904fb1461081a5780636e553f65146108365780636fcfff451461085657806370a082311461087657600080fd5b8063587cde1e1461074c5780635c19a95c14610784578063613d25bb146107a45780636178efee146107c457600080fd5b806350921b23116102d257806350921b23146106e357806350baa6221461070357806352d1902d1461072357806354fd4d501461073857600080fd5b80634479fc671461064a5780634be2890f1461068f5780634bf5d7e9146106bb5780634f1ef286146106d057600080fd5b806323b872dd11610386578063313ce56711610355578063313ce567146105a15780633644e515146105bd57806336568abe146105d2578063396236cb146105f25780633a46b1a81461062a57600080fd5b806323b872dd14610521578063248a9ca31461054157806326195826146105615780632f2ff15d1461058157600080fd5b806318160ddd116103c257806318160ddd1461048d5780631a39d8ef146104cb5780631c03e6cc146104e15780631e83409a1461050157600080fd5b806301ffc9a7146103f457806306fdde0314610429578063095ea7b31461044b57806310a2656a1461046b575b600080fd5b34801561040057600080fd5b5061041461040f366004614341565b610d94565b60405190151581526020015b60405180910390f35b34801561043557600080fd5b5061043e610dcb565b60405161042091906143bb565b34801561045757600080fd5b506104146104663660046143e3565b610e74565b34801561047757600080fd5b5061048b61048636600461441d565b610e8c565b005b34801561049957600080fd5b507f52c63247e1f47db19d5ce0460030c497f067ca4cebf71ba98eeadabe20bace02545b604051908152602001610420565b3480156104d757600080fd5b506104bd60075481565b3480156104ed57600080fd5b5061048b6104fc36600461445f565b6110db565b34801561050d57600080fd5b5061048b61051c36600461445f565b611236565b34801561052d57600080fd5b5061041461053c36600461447c565b611272565b34801561054d57600080fd5b506104bd61055c3660046144bd565b61128d565b34801561056d57600080fd5b5061048b61057c36600461445f565b6112af565b34801561058d57600080fd5b5061048b61059c3660046144d6565b611306565b3480156105ad57600080fd5b5060405160128152602001610420565b3480156105c957600080fd5b506104bd611328565b3480156105de57600080fd5b5061048b6105ed3660046144d6565b611337565b3480156105fe57600080fd5b506104bd61060d3660046143e3565b600660209081526000928352604080842090915290825290205481565b34801561063657600080fd5b506104bd6106453660046143e3565b61136a565b34801561065657600080fd5b5061066a6106653660046144bd565b611402565b604080516001600160a01b039094168452602084019290925290820152606001610420565b34801561069b57600080fd5b506106a6620d2f0081565b60405163ffffffff9091168152602001610420565b3480156106c757600080fd5b5061043e61143f565b61048b6106de366004614592565b6114b7565b3480156106ef57600080fd5b5061048b6106fe36600461460c565b6114d6565b34801561070f57600080fd5b5061048b61071e3660046144bd565b61158c565b34801561072f57600080fd5b506104bd61166c565b34801561074457600080fd5b5060016104bd565b34801561075857600080fd5b5061076c61076736600461445f565b611689565b6040516001600160a01b039091168152602001610420565b34801561079057600080fd5b5061048b61079f36600461445f565b6116b4565b3480156107b057600080fd5b5061048b6107bf366004614686565b6116bf565b3480156107d057600080fd5b5061048b6107df3660046144bd565b6117dd565b3480156107f057600080fd5b5061076c6107ff36600461445f565b6005602052600090815260409020546001600160a01b031681565b34801561082657600080fd5b506104bd670de0b6b3a764000081565b34801561084257600080fd5b5061048b6108513660046144d6565b6118aa565b34801561086257600080fd5b506106a661087136600461445f565b6118d3565b34801561088257600080fd5b506104bd61089136600461445f565b6118de565b3480156108a257600080fd5b506104bd6108b136600461445f565b611911565b3480156108c257600080fd5b506108cb61191c565b604051610420979695949392919061470f565b3480156108ea57600080fd5b506104bd6108f93660046144bd565b6119c8565b34801561090a57600080fd5b50610913609681565b60405161ffff9091168152602001610420565b34801561093257600080fd5b506104146109413660046144d6565b611a44565b34801561095257600080fd5b5061095b611a7c565b60405165ffffffffffff9091168152602001610420565b34801561097e57600080fd5b5061043e611a86565b34801561099357600080fd5b506104bd6109a236600461445f565b611ac5565b3480156109b357600080fd5b506109136103e881565b3480156109c957600080fd5b5061048b6109d836600461445f565b611b25565b3480156109e957600080fd5b506104bd600081565b3480156109fe57600080fd5b5061041461053c3660046143e3565b348015610a1957600080fd5b50610a2d610a283660046143e3565b611bb7565b604080516001600160801b03938416815292909116602083015201610420565b348015610a5957600080fd5b506001546104bd565b348015610a6e57600080fd5b5061043e604051806040016040528060058152602001640352e302e360dc1b81525081565b348015610a9f57600080fd5b506104bd7f34b5ef4b2be4eab765d268506dd12a649d8311490c68ca505d5c044e1d207b7181565b348015610ad357600080fd5b506104bd610ae236600461445f565b60026020526000908152604090205481565b348015610b0057600080fd5b506104bd610b0f3660046144d6565b600460209081526000928352604080842090915290825290205481565b348015610b3857600080fd5b5061048b610b4736600461445f565b611bfa565b348015610b5857600080fd5b506104bd610b673660046144d6565b600360209081526000928352604080842090915290825290205481565b348015610b9057600080fd5b5061048b610b9f3660046147a8565b611c7a565b348015610bb057600080fd5b506104bd610bbf3660046144d6565b611d37565b348015610bd057600080fd5b50600a5461076c906001600160a01b031681565b348015610bf057600080fd5b5061048b610bff3660046147e8565b611e42565b348015610c1057600080fd5b5061048b610c1f3660046144d6565b611f5e565b348015610c3057600080fd5b506104bd610c3f366004614856565b6001600160a01b0391821660009081527f52c63247e1f47db19d5ce0460030c497f067ca4cebf71ba98eeadabe20bace016020908152604080832093909416825291909152205490565b348015610c9557600080fd5b506104bd611f7a565b348015610caa57600080fd5b50610414610cb936600461445f565b611fc1565b348015610cca57600080fd5b506104bd60095481565b348015610ce057600080fd5b506104bd7ffbd454f36a7e1a388bd6fc3ab10d434aa4578f811acbbcf33afb1c697486313c81565b348015610d1457600080fd5b50610d28610d23366004614884565b61203f565b60408051825165ffffffffffff1681526020928301516001600160d01b03169281019290925201610420565b348015610d6057600080fd5b5061048b610d6f3660046143e3565b612064565b348015610d8057600080fd5b5060005461076c906001600160a01b031681565b60006001600160e01b03198216637965db0b60e01b1480610dc557506301ffc9a760e01b6001600160e01b03198316145b92915050565b60606000600080516020614b828339815191525b9050806003018054610df0906148bb565b80601f0160208091040260200160405190810160405280929190818152602001828054610e1c906148bb565b8015610e695780601f10610e3e57610100808354040283529160200191610e69565b820191906000526020600020905b815481529060010190602001808311610e4c57829003601f168201915b505050505091505090565b600033610e82818585612188565b5060019392505050565b610e94612195565b33600090815260086020526040902080548410610ec457604051630b58543560e11b815260040160405180910390fd5b6000818581548110610ed857610ed86148f5565b600091825260208220018054909250600160801b90046001600160801b031690819003610f18576040516319aad37160e01b815260040160405180910390fd5b81546001600160801b03166000610f2d6121cd565b9050610f3b3382898961225a565b6000610f45611f7a565b9050610f5133846122ed565b8260076000828254610f639190614921565b90915550839050670de0b6b3a7640000821015610fd857670de0b6b3a7640000610f8d8386614934565b610f979190614961565b600954909150610fa78286614921565b1115610fb7576000600955610fd8565b610fc18185614921565b60096000828254610fd29190614921565b90915550505b85546001600160801b031686558043861115611044576103e8610ffc609682614983565b61100a9061ffff1684614934565b6110149190614961565b600a54909150611044906001600160a01b03166110318385614921565b6000546001600160a01b03169190612323565b6001600160a01b038916611056573398505b60005461106d906001600160a01b03168a83612323565b604080518c8152602081018790529081018390526060810182905233907f94ffd6b85c71b847775c89ef6496b93cee961bdc6ff827fd117f174f06f745ae9060800160405180910390a250505050505050506110d66001600080516020614c0283398151915255565b505050565b60006110e681612396565b6001600160a01b03821661110d5760405163d92e233d60e01b815260040160405180910390fd5b61111682611fc1565b156111345760405163630b374b60e01b815260040160405180910390fd5b60018054604080516060810182526001600160a01b0386811680835260006020808501828152858701838152888a018a5598835294517fb10e2d527612073b26eecdfd717e6a320cf44b4afac2b0732d9fcbe2b7fa0cf66003890290810180546001600160a01b031916929096169190911790945593517fb10e2d527612073b26eecdfd717e6a320cf44b4afac2b0732d9fcbe2b7fa0cf784015595517fb10e2d527612073b26eecdfd717e6a320cf44b4afac2b0732d9fcbe2b7fa0cf89092019190915580855260029091528184208390559051919283927f68e3e9397770d9dfa88c0953a34e1a70a05416b3895957f5b689787a920791c49190a3505050565b61123e612195565b60006112486121cd565b9050611257338260018561225a565b5061126f6001600080516020614c0283398151915255565b50565b600060405163dc8d8db760e01b815260040160405180910390fd5b6000908152600080516020614be2833981519152602052604090206001015490565b3360008181526005602052604080822080546001600160a01b0319166001600160a01b03861690811790915590519092917f8eb3f1a8f49a22a9fcda79d30a2cf0bde5f65585f6530392b5a8deb6df47223991a350565b61130f8261128d565b61131881612396565b61132283836123a0565b50505050565b6000611332612445565b905090565b6001600160a01b03811633146113605760405163334bd91960e11b815260040160405180910390fd5b6110d6828261244f565b6000600080516020614b6283398151915281611384611a7c565b90508065ffffffffffff1684106113c457604051637669fc0f60e11b81526004810185905265ffffffffffff821660248201526044015b60405180910390fd5b6113f06113d0856124cb565b6001600160a01b0387166000908152600185016020526040902090612502565b6001600160d01b031695945050505050565b6001818154811061141257600080fd5b60009182526020909120600390910201805460018201546002909201546001600160a01b03909116925083565b60606114496125b8565b65ffffffffffff16611459611a7c565b65ffffffffffff161461147f576040516301bfc1c560e61b815260040160405180910390fd5b5060408051808201909152601d81527f6d6f64653d626c6f636b6e756d6265722666726f6d3d64656661756c74000000602082015290565b6114bf6125c3565b6114c88261266a565b6114d28282612675565b5050565b6114de612195565b60005460405163d505accf60e01b8152336004820152306024820152604481018890526064810186905260ff8516608482015260a4810184905260c481018390526001600160a01b0390911690819063d505accf9060e401600060405180830381600087803b15801561155057600080fd5b505af1925050508015611561575060015b5061156c8787612732565b506115846001600080516020614c0283398151915255565b505050505050565b7f34b5ef4b2be4eab765d268506dd12a649d8311490c68ca505d5c044e1d207b716115b681612396565b816000036115d757604051631f2a200560e01b815260040160405180910390fd5b6009546007546115e79190614921565b8210611606576040516349986e7360e01b815260040160405180910390fd5b8160096000828254611618919061499e565b9091555050600054611634906001600160a01b03163384612323565b6040518281527f533f229d4ea7857448d30b889b9e63621ba91cd093764bfe0b0a73d7a3cb5e94906020015b60405180910390a15050565b60006116766128d1565b50600080516020614bc283398151915290565b6001600160a01b039081166000908152600080516020614b6283398151915260205260409020541690565b336114d2818361291a565b7ff0c57e16840df040f15088dc2f81fe391c3923bec73e23a9662efc9c229c6a008054600160401b810460ff16159067ffffffffffffffff166000811580156117055750825b905060008267ffffffffffffffff1660011480156117225750303b155b905081158015611730575080155b1561174e5760405163f92ee8a960e01b815260040160405180910390fd5b845467ffffffffffffffff19166001178555831561177857845460ff60401b1916600160401b1785555b611784898989896129a4565b61178c612b05565b83156117d257845460ff60401b19168555604051600181527fc7f505b2f371ae2175ee4913f4499e1f2633a7b5936321eed1cdaeb6115181d29060200160405180910390a15b505050505050505050565b7f34b5ef4b2be4eab765d268506dd12a649d8311490c68ca505d5c044e1d207b7161180781612396565b8160000361182857604051631f2a200560e01b815260040160405180910390fd5b60095482111561184b576040516349986e7360e01b815260040160405180910390fd5b816009600082825461185d9190614921565b909155505060005461187a906001600160a01b0316333085612b0d565b6040518281527feb8e25ff7236139e7020edf59919f28329a1d59ef94abca5c34907c0b7034b0b90602001611660565b6118b2612195565b6118bc8282612732565b6114d26001600080516020614c0283398151915255565b6000610dc582612b46565b600080600080516020614b828339815191525b6001600160a01b0390931660009081526020939093525050604090205490565b6000610dc582612b97565b60006060808280808381600080516020614ba2833981519152805490915015801561194957506001810154155b61198d5760405162461bcd60e51b81526020600482015260156024820152741152540dcc4c8e88155b9a5b9a5d1a585b1a5e9959605a1b60448201526064016113bb565b611995612ba2565b61199d612be1565b60408051600080825260208201909252600f60f81b9c939b5091995046985030975095509350915050565b6000600080516020614b62833981519152816119e2611a7c565b90508065ffffffffffff168410611a1d57604051637669fc0f60e11b81526004810185905265ffffffffffff821660248201526044016113bb565b611a33611a29856124cb565b6002840190612502565b6001600160d01b0316949350505050565b6000918252600080516020614be2833981519152602090815260408084206001600160a01b0393909316845291905290205460ff1690565b60006113326125b8565b7f52c63247e1f47db19d5ce0460030c497f067ca4cebf71ba98eeadabe20bace048054606091600080516020614b8283398151915291610df0906148bb565b6001600160a01b03811660009081527fe8b26c30fad74198956032a3533d903385d56dd795af560196f9c78d4af40d0160205260408120600080516020614b6283398151915290611b1590612bf9565b6001600160d01b03169392505050565b6000611b3081612396565b6040516370a0823160e01b81523060048201526000906001600160a01b038416906370a0823190602401602060405180830381865afa158015611b77573d6000803e3d6000fd5b505050506040513d601f19601f82011682018060405250810190611b9b91906149b1565b905080156110d6576110d66001600160a01b0384163383612323565b60086020528160005260406000208181548110611bd357600080fd5b6000918252602090912001546001600160801b038082169350600160801b90910416905082565b6000611c0581612396565b6001600160a01b038216611c2c5760405163d92e233d60e01b815260040160405180910390fd5b600a80546001600160a01b0319166001600160a01b0384169081179091556040519081527f4b0bdc6e20f54f9a25e1b84703541849c422b4f5ba66ef3b854ae01b776ef37c90602001611660565b83421115611c9e57604051632341d78760e11b8152600481018590526024016113bb565b604080517fe48329057bfd03d55e49b547132e39cffd9c1820ad7b9d4c5307691425d15adf60208201526001600160a01b038816918101919091526060810186905260808101859052600090611d1890611d109060a00160405160208183030381529060405280519060200120612c29565b858585612c56565b9050611d248187612c84565b611d2e818861291a565b50505050505050565b6000806000905060018481548110611d5157611d516148f5565b60009182526020808320600260039093020191909101546001600160a01b03861683526006825260408084208885529092529120541015611e0c576001600160a01b038316600090815260066020908152604080832087845290915290205460018054670de0b6b3a764000092919087908110611dd057611dd06148f5565b906000526020600020906003020160020154611dec9190614921565b611df5856118de565b611dff9190614934565b611e099190614961565b90505b60008481526003602090815260408083206001600160a01b0387168452909152902054611e3a90829061499e565b949350505050565b83421115611e665760405163313c898160e11b8152600481018590526024016113bb565b60007f6e71edae12b1b97f4d1f60370fef10105fa2faae0126114a169c64845d6126c9888888611e958c612cc3565b6040805160208101969096526001600160a01b0394851690860152929091166060840152608083015260a082015260c0810186905260e0016040516020818303038152906040528051906020012090506000611ef082612c29565b90506000611f0082878787612c56565b9050896001600160a01b0316816001600160a01b031614611f47576040516325c0072360e11b81526001600160a01b0380831660048301528b1660248201526044016113bb565b611f528a8a8a612188565b50505050505050505050565b611f678261128d565b611f7081612396565b611322838361244f565b6000600954600003611f935750670de0b6b3a764000090565b600754600954670de0b6b3a764000090611fad9083614921565b611fb79190614934565b6113329190614961565b6001600160a01b038116600090815260026020526040812054801515806120285750600154158015906120285750826001600160a01b03166001828154811061200c5761200c6148f5565b60009182526020909120600390910201546001600160a01b0316145b156120365750600192915050565b50600092915050565b604080518082019091526000808252602082015261205d8383612d05565b9392505050565b7ffbd454f36a7e1a388bd6fc3ab10d434aa4578f811acbbcf33afb1c697486313c61208e81612396565b6007546000036120b15760405163c16f3a9360e01b815260040160405180910390fd5b816000036120d257604051631f2a200560e01b815260040160405180910390fd5b6001600160a01b0383166120f95760405163d92e233d60e01b815260040160405180910390fd5b61210283611fc1565b61211f5760405163363b89e360e01b815260040160405180910390fd5b6001600160a01b038316600090815260026020526040902054600180546121789133913091879186908110612156576121566148f5565b60009182526020909120600390910201546001600160a01b0316929190612b0d565b61218181612d68565b5050505050565b6110d68383836001612efd565b600080516020614c028339815191528054600119016121c757604051633ee5aeb560e01b815260040160405180910390fd5b60029055565b60015460609060008167ffffffffffffffff8111156121ee576121ee614506565b604051908082528060200260200182016040528015612217578160200160208202803683370190505b50905060005b828110156122535761222e81612d68565b828281518110612240576122406148f5565b602090810291909101015260010161221d565b5092915050565b8082801561226f57506001600160a01b038116155b1561229857506001600160a01b0380851660009081526005602052604090205416806122985750835b60006122a3866118de565b60015490915060005b818110156122e3576122db818986868b86815181106122cd576122cd6148f5565b60200260200101518b612fe4565b6001016122ac565b5050505050505050565b6001600160a01b03821661231757604051634b637e8f60e11b8152600060048201526024016113bb565b6114d28260008361325d565b6040516001600160a01b038381166024830152604482018390526110d691859182169063a9059cbb906064015b604051602081830303815290604052915060e01b6020820180516001600160e01b038381831617835250505050613268565b6001600080516020614c0283398151915255565b61126f81336132cb565b6000600080516020614be28339815191526123bb8484611a44565b61243b576000848152602082815260408083206001600160a01b03871684529091529020805460ff191660011790556123f13390565b6001600160a01b0316836001600160a01b0316857f2f8788117e7eff1d82e926ec794901d17c78024a50270940304540a733656f0d60405160405180910390a46001915050610dc5565b6000915050610dc5565b6000611332613304565b6000600080516020614be283398151915261246a8484611a44565b1561243b576000848152602082815260408083206001600160a01b0387168085529252808320805460ff1916905551339287917ff6391f5c32d9c69d2a47ea670b442974b53935d1edc7fd64eb21e047a839171b9190a46001915050610dc5565b600065ffffffffffff8211156124fe576040516306dfcc6560e41b815260306004820152602481018390526044016113bb565b5090565b81546000908181600581111561256157600061251d84613378565b6125279085614921565b60008881526020902090915081015465ffffffffffff90811690871610156125515780915061255f565b61255c81600161499e565b92505b505b600061256f87878585613460565b905080156125aa5761259487612586600184614921565b600091825260209091200190565b54600160301b90046001600160d01b03166125ad565b60005b979650505050505050565b6000611332436124cb565b306001600160a01b037f000000000000000000000000000000000000000000000000000000000000000016148061264a57507f00000000000000000000000000000000000000000000000000000000000000006001600160a01b031661263e600080516020614bc2833981519152546001600160a01b031690565b6001600160a01b031614155b156126685760405163703e46dd60e11b815260040160405180910390fd5b565b60006114d281612396565b816001600160a01b03166352d1902d6040518163ffffffff1660e01b8152600401602060405180830381865afa9250505080156126cf575060408051601f3d908101601f191682019092526126cc918101906149b1565b60015b6126f757604051634c9c8ce360e01b81526001600160a01b03831660048201526024016113bb565b600080516020614bc2833981519152811461272857604051632a87526960e21b8152600481018290526024016113bb565b6110d683836134c2565b8160000361275357604051631f2a200560e01b815260040160405180910390fd5b6001600160a01b0381166127645750335b600061276e6121cd565b905061277d828260008061225a565b600054612795906001600160a01b0316333086612b0d565b600061279f611f7a565b9050670de0b6b3a76400008110156127f4576000670de0b6b3a76400006127c68387614934565b6127d09190614961565b90506127dc8186614921565b600960008282546127ed919061499e565b9091555050505b8360076000828254612806919061499e565b9091555061281690508385613518565b6000612825620d2f004361499e565b6001600160a01b03851660008181526008602090815260408083208054825180840184526001600160801b038d8116825288811682870181815260018501865594885296869020915193518116600160801b029316929092179181019190915581518181529283018b905290820192909252929350917f91ede45f04a37a7c170f5c1207df3b6bc748dc1e04ad5e917a241d0f52feada3906060015b60405180910390a2505050505050565b306001600160a01b037f000000000000000000000000000000000000000000000000000000000000000016146126685760405163703e46dd60e11b815260040160405180910390fd5b600080516020614b62833981519152600061293484611689565b6001600160a01b0385811660008181526020869052604080822080546001600160a01b031916898616908117909155905194955093928516927f3134e8a2e6d97e929a7e54011ea5485d7d196dd5f0ba4d4ef95803e8e3fc257f9190a4611322818461299f8761354e565b613559565b7ff0c57e16840df040f15088dc2f81fe391c3923bec73e23a9662efc9c229c6a008054600160401b810460ff16159067ffffffffffffffff166000811580156129ea5750825b905060008267ffffffffffffffff166001148015612a075750303b155b905081158015612a15575080155b15612a335760405163f92ee8a960e01b815260040160405180910390fd5b845467ffffffffffffffff191660011785558315612a5d57845460ff60401b1916600160401b1785555b6001600160a01b038916612a845760405163d92e233d60e01b815260040160405180910390fd5b6001600160a01b038616612aab5760405163d92e233d60e01b815260040160405180910390fd5b612ab588886136c3565b612abe886136d5565b612ac6612b05565b612ace612b05565b612ad6613700565b612ae16000876123a0565b50600080546001600160a01b0319166001600160a01b038b1617905561178c613710565b612668613719565b6040516001600160a01b0384811660248301528381166044830152606482018390526113229186918216906323b872dd90608401612350565b6001600160a01b03811660009081527fe8b26c30fad74198956032a3533d903385d56dd795af560196f9c78d4af40d016020526040812054600080516020614b628339815191529061205d90613762565b6000610dc582613793565b7fa16a46d94261c7517cc8ff89f61c0ce93598e3c849801011dee649a6a557d1028054606091600080516020614ba283398151915291610df0906148bb565b60606000600080516020614ba2833981519152610ddf565b8054600090801561203657612c1383612586600184614921565b54600160301b90046001600160d01b031661205d565b6000610dc5612c36612445565b8360405161190160f01b8152600281019290925260228201526042902090565b600080600080612c688888888861379e565b925092509250612c78828261386d565b50909695505050505050565b6000612c8f83612cc3565b90508082146110d6576040516301d4b62360e61b81526001600160a01b0384166004820152602481018290526044016113bb565b6001600160a01b031660009081527f5ab42ced628888259c08ac98db1eb0cf702fc1501344311d8b100cd1bfe4bb006020526040902080546001810190915590565b604080518082018252600080825260208083018290526001600160a01b03861682527fe8b26c30fad74198956032a3533d903385d56dd795af560196f9c78d4af40d01905291909120600080516020614b6283398151915290611e3a9084613926565b60008060018381548110612d7e57612d7e6148f5565b60009182526020822060039091020180549092506001600160a01b03169080612dc57f52c63247e1f47db19d5ce0460030c497f067ca4cebf71ba98eeadabe20bace025490565b90508015612e9f576040516370a0823160e01b81523060048201526000906001600160a01b038516906370a0823190602401602060405180830381865afa158015612e14573d6000803e3d6000fd5b505050506040513d601f19601f82011682018060405250810190612e3891906149b1565b6000549091506001600160a01b0390811690851603612e5d57612e5a81613996565b90505b8460010154811115612e995781856001015482612e7a9190614921565b612e8c90670de0b6b3a7640000614934565b612e969190614961565b92505b60018501555b818460020154612eaf919061499e565b94508115612ef4576002840185905560405185815286907f92115ad895c1825fe8760a760481c930f7c591faee70d76e646401a1158746eb9060200160405180910390a25b50505050919050565b600080516020614b828339815191526001600160a01b038516612f365760405163e602df0560e01b8152600060048201526024016113bb565b6001600160a01b038416612f6057604051634a1406b160e11b8152600060048201526024016113bb565b6001600160a01b0380861660009081526001830160209081526040808320938816835292905220839055811561218157836001600160a01b0316856001600160a01b03167f8c5be1e5ebec7d5bd14f71427d1e84f3dd0314c0f7b2291e5b200ac8c7c3b92585604051612fd591815260200190565b60405180910390a35050505050565b6001600160a01b03851660009081526006602090815260408083208984529091528120549083821015613094576001600160a01b03871660008181526006602090815260408083208c845282529182902087905590518681528a917f8567bd7ba46fc931ec5088db3870d59640e678126a4c443bf7d45e0b16bba318910160405180910390a3670de0b6b3a764000061307d8386614921565b6130879087614934565b6130919190614961565b90505b60008881526003602090815260408083206001600160a01b038b1684529091528120546130c290839061499e565b905080156117d257831561322757600061310960018b815481106130e8576130e86148f5565b60009182526020909120600390910201546001600160a01b031689846139b3565b90508060018b8154811061311f5761311f6148f5565b9060005260206000209060030201600101600082825461313f9190614921565b909155505060008a81526004602090815260408083206001600160a01b038d1684529091528120805483929061317690849061499e565b909155505060008a81526003602090815260408083206001600160a01b038d1684529091529020541515806131aa57508082115b156131dd576131b98183614921565b60008b81526003602090815260408083206001600160a01b038e1684529091529020555b89886001600160a01b03167f987d620f307ff6b94d58743cb7a7509f24071586a77759b77c2d4e29f75a2f9a8460405161321991815260200190565b60405180910390a3506117d2565b81156117d25760008981526003602090815260408083206001600160a01b038c1684529091529020819055505050505050505050565b6110d6838383613a45565b600061327d6001600160a01b03841683613a7e565b905080516000141580156132a25750808060200190518101906132a091906149ca565b155b156110d657604051635274afe760e01b81526001600160a01b03841660048201526024016113bb565b6132d58282611a44565b6114d25760405163e2517d3f60e01b81526001600160a01b0382166004820152602481018390526044016113bb565b60007f8b73c3c69bb8fe3d512ecc4cf759cc79239f7b179b0ffacaa9a75d522b39400f61332f613a8c565b613337613af6565b60408051602081019490945283019190915260608201524660808201523060a082015260c00160405160208183030381529060405280519060200120905090565b60008160000361338a57506000919050565b6000600161339784613b3a565b901c6001901b905060018184816133b0576133b061494b565b048201901c905060018184816133c8576133c861494b565b048201901c905060018184816133e0576133e061494b565b048201901c905060018184816133f8576133f861494b565b048201901c905060018184816134105761341061494b565b048201901c905060018184816134285761342861494b565b048201901c905060018184816134405761344061494b565b048201901c905061205d8182858161345a5761345a61494b565b04613bce565b60005b818310156134ba5760006134778484613be4565b60008781526020902090915065ffffffffffff86169082015465ffffffffffff1611156134a6578092506134b4565b6134b181600161499e565b93505b50613463565b509392505050565b6134cb82613bff565b6040516001600160a01b038316907fbc7cd75a20ee27fd9adebab32041f755214dbc6bffa90cc0225b39da2e5c2d3b90600090a2805115613510576110d68282613c64565b6114d2613cda565b6001600160a01b0382166135425760405163ec442f0560e01b8152600060048201526024016113bb565b6114d26000838361325d565b6000610dc5826118de565b600080516020614b628339815191526001600160a01b03848116908416148015906135845750600082115b15611322576001600160a01b0384161561362e576001600160a01b0384166000908152600182016020526040812081906135c990613cf96135c487613d05565b613d39565b6001600160d01b031691506001600160d01b03169150856001600160a01b03167fdec2bacdd2f05b59de34da9b523dff8be42e5e38e818c82fdb0bae774387a7248383604051613623929190918252602082015260400190565b60405180910390a250505b6001600160a01b03831615611322576001600160a01b03831660009081526001820160205260408120819061366990613d726135c487613d05565b6001600160d01b031691506001600160d01b03169150846001600160a01b03167fdec2bacdd2f05b59de34da9b523dff8be42e5e38e818c82fdb0bae774387a72483836040516128c1929190918252602082015260400190565b6136cb613719565b6114d28282613d7e565b6136dd613719565b61126f81604051806040016040528060018152602001603160f81b815250613dcf565b613708613719565b612668613e30565b61266833611bfa565b7ff0c57e16840df040f15088dc2f81fe391c3923bec73e23a9662efc9c229c6a0054600160401b900460ff1661266857604051631afcd79f60e31b815260040160405180910390fd5b600063ffffffff8211156124fe576040516306dfcc6560e41b815260206004820152602481018390526044016113bb565b6000610dc582613e38565b600080807f7fffffffffffffffffffffffffffffff5d576e7357a4501ddfe92f46681b20a08411156137d95750600091506003905082613863565b604080516000808252602082018084528a905260ff891692820192909252606081018790526080810186905260019060a0016020604051602081039080840390855afa15801561382d573d6000803e3d6000fd5b5050604051601f1901519150506001600160a01b03811661385957506000925060019150829050613863565b9250600091508190505b9450945094915050565b6000826003811115613881576138816149e7565b0361388a575050565b600182600381111561389e5761389e6149e7565b036138bc5760405163f645eedf60e01b815260040160405180910390fd5b60028260038111156138d0576138d06149e7565b036138f15760405163fce698f760e01b8152600481018290526024016113bb565b6003826003811115613905576139056149e7565b036114d2576040516335e2f38360e21b8152600481018290526024016113bb565b6040805180820190915260008082526020820152826000018263ffffffff1681548110613955576139556148f5565b60009182526020918290206040805180820190915291015465ffffffffffff81168252600160301b90046001600160d01b0316918101919091529392505050565b6000600754600954836139a9919061499e565b610dc59190614921565b6040516370a0823160e01b815230600482015260009081906001600160a01b038616906370a0823190602401602060405180830381865afa1580156139fc573d6000803e3d6000fd5b505050506040513d601f19601f82011682018060405250810190613a2091906149b1565b905082915080821115613a31578091505b6134ba6001600160a01b0386168584612323565b8015613a73576000613a556121cd565b9050613a64848260008061225a565b613a71838260008061225a565b505b6110d6838383613e61565b606061205d83836000613ee7565b6000600080516020614ba283398151915281613aa6612ba2565b805190915015613abe57805160209091012092915050565b81548015613acd579392505050565b7fc5d2460186f7233c927e7db2dcc703c0e500b653ca82273b7bfad8045d85a470935050505090565b6000600080516020614ba283398151915281613b10612be1565b805190915015613b2857805160209091012092915050565b60018201548015613acd579392505050565b600080608083901c15613b4f57608092831c92015b604083901c15613b6157604092831c92015b602083901c15613b7357602092831c92015b601083901c15613b8557601092831c92015b600883901c15613b9757600892831c92015b600483901c15613ba957600492831c92015b600283901c15613bbb57600292831c92015b600183901c15610dc55760010192915050565b6000818310613bdd578161205d565b5090919050565b6000613bf36002848418614961565b61205d9084841661499e565b806001600160a01b03163b600003613c3557604051634c9c8ce360e01b81526001600160a01b03821660048201526024016113bb565b600080516020614bc283398151915280546001600160a01b0319166001600160a01b0392909216919091179055565b6060600080846001600160a01b031684604051613c8191906149fd565b600060405180830381855af49150503d8060008114613cbc576040519150601f19603f3d011682016040523d82523d6000602084013e613cc1565b606091505b5091509150613cd1858383613f84565b95945050505050565b34156126685760405163b398979f60e01b815260040160405180910390fd5b600061205d8284614a19565b60006001600160d01b038211156124fe576040516306dfcc6560e41b815260d06004820152602481018390526044016113bb565b600080613d65613d47611a7c565b613d5d613d5388612bf9565b868863ffffffff16565b879190613fe0565b915091505b935093915050565b600061205d8284614a39565b613d86613719565b600080516020614b828339815191527f52c63247e1f47db19d5ce0460030c497f067ca4cebf71ba98eeadabe20bace03613dc08482614aa1565b50600481016113228382614aa1565b613dd7613719565b600080516020614ba28339815191527fa16a46d94261c7517cc8ff89f61c0ce93598e3c849801011dee649a6a557d102613e118482614aa1565b5060038101613e208382614aa1565b5060008082556001909101555050565b612382613719565b6000807f5ab42ced628888259c08ac98db1eb0cf702fc1501344311d8b100cd1bfe4bb006118f1565b613e6c838383613fee565b6001600160a01b038316613edc576000613ea47f52c63247e1f47db19d5ce0460030c497f067ca4cebf71ba98eeadabe20bace025490565b90506001600160d01b0380821115613ed957604051630e58ae9360e11b815260048101839052602481018290526044016113bb565b50505b6110d683838361412c565b606081471015613f0c5760405163cd78605960e01b81523060048201526024016113bb565b600080856001600160a01b03168486604051613f2891906149fd565b60006040518083038185875af1925050503d8060008114613f65576040519150601f19603f3d011682016040523d82523d6000602084013e613f6a565b606091505b5091509150613f7a868383613f84565b9695505050505050565b606082613f9957613f948261419e565b61205d565b8151158015613fb057506001600160a01b0384163b155b15613fd957604051639996b31560e01b81526001600160a01b03851660048201526024016113bb565b508061205d565b600080613d658585856141c7565b600080516020614b828339815191526001600160a01b03841661402a578181600201600082825461401f919061499e565b9091555061409c9050565b6001600160a01b0384166000908152602082905260409020548281101561407d5760405163391434e360e21b81526001600160a01b038616600482015260248101829052604481018490526064016113bb565b6001600160a01b03851660009081526020839052604090209083900390555b6001600160a01b0383166140ba5760028101805483900390556140d9565b6001600160a01b03831660009081526020829052604090208054830190555b826001600160a01b0316846001600160a01b03167fddf252ad1be2c89b69c2b068fc378daa952ba7f163c4a11628f55a4df523b3ef8460405161411e91815260200190565b60405180910390a350505050565b600080516020614b628339815191526001600160a01b03841661415f5761415c81600201613d726135c485613d05565b50505b6001600160a01b0383166141835761418081600201613cf96135c485613d05565b50505b61132261418f85611689565b61419885611689565b84613559565b8051156141ae5780518082602001fd5b604051630a12f52160e11b815260040160405180910390fd5b8254600090819080156142e65760006141e587612586600185614921565b60408051808201909152905465ffffffffffff808216808452600160301b9092046001600160d01b03166020840152919250908716101561423957604051632520601d60e01b815260040160405180910390fd5b805165ffffffffffff808816911603614285578461425c88612586600186614921565b80546001600160d01b0392909216600160301b0265ffffffffffff9092169190911790556142d6565b6040805180820190915265ffffffffffff80881682526001600160d01b0380881660208085019182528b54600181018d5560008d81529190912094519151909216600160301b029216919091179101555b602001519250839150613d6a9050565b50506040805180820190915265ffffffffffff80851682526001600160d01b0380851660208085019182528854600181018a5560008a815291822095519251909316600160301b029190931617920191909155905081613d6a565b60006020828403121561435357600080fd5b81356001600160e01b03198116811461205d57600080fd5b60005b8381101561438657818101518382015260200161436e565b50506000910152565b600081518084526143a781602086016020860161436b565b601f01601f19169290920160200192915050565b60208152600061205d602083018461438f565b6001600160a01b038116811461126f57600080fd5b600080604083850312156143f657600080fd5b8235614401816143ce565b946020939093013593505050565b801515811461126f57600080fd5b60008060006060848603121561443257600080fd5b8335925060208401356144448161440f565b91506040840135614454816143ce565b809150509250925092565b60006020828403121561447157600080fd5b813561205d816143ce565b60008060006060848603121561449157600080fd5b833561449c816143ce565b925060208401356144ac816143ce565b929592945050506040919091013590565b6000602082840312156144cf57600080fd5b5035919050565b600080604083850312156144e957600080fd5b8235915060208301356144fb816143ce565b809150509250929050565b634e487b7160e01b600052604160045260246000fd5b600067ffffffffffffffff8084111561453757614537614506565b604051601f8501601f19908116603f0116810190828211818310171561455f5761455f614506565b8160405280935085815286868601111561457857600080fd5b858560208301376000602087830101525050509392505050565b600080604083850312156145a557600080fd5b82356145b0816143ce565b9150602083013567ffffffffffffffff8111156145cc57600080fd5b8301601f810185136145dd57600080fd5b6145ec8582356020840161451c565b9150509250929050565b803560ff8116811461460757600080fd5b919050565b60008060008060008060c0878903121561462557600080fd5b863595506020870135614637816143ce565b94506040870135935061464c606088016145f6565b92506080870135915060a087013590509295509295509295565b600082601f83011261467757600080fd5b61205d8383356020850161451c565b6000806000806080858703121561469c57600080fd5b84356146a7816143ce565b9350602085013567ffffffffffffffff808211156146c457600080fd5b6146d088838901614666565b945060408701359150808211156146e657600080fd5b506146f387828801614666565b9250506060850135614704816143ce565b939692955090935050565b60ff60f81b881681526000602060e0602084015261473060e084018a61438f565b8381036040850152614742818a61438f565b606085018990526001600160a01b038816608086015260a0850187905284810360c08601528551808252602080880193509091019060005b818110156147965783518352928401929184019160010161477a565b50909c9b505050505050505050505050565b60008060008060008060c087890312156147c157600080fd5b86356147cc816143ce565b9550602087013594506040870135935061464c606088016145f6565b600080600080600080600060e0888a03121561480357600080fd5b873561480e816143ce565b9650602088013561481e816143ce565b9550604088013594506060880135935061483a608089016145f6565b925060a0880135915060c0880135905092959891949750929550565b6000806040838503121561486957600080fd5b8235614874816143ce565b915060208301356144fb816143ce565b6000806040838503121561489757600080fd5b82356148a2816143ce565b9150602083013563ffffffff811681146144fb57600080fd5b600181811c908216806148cf57607f821691505b6020821081036148ef57634e487b7160e01b600052602260045260246000fd5b50919050565b634e487b7160e01b600052603260045260246000fd5b634e487b7160e01b600052601160045260246000fd5b81810381811115610dc557610dc561490b565b8082028115828204841417610dc557610dc561490b565b634e487b7160e01b600052601260045260246000fd5b60008261497e57634e487b7160e01b600052601260045260246000fd5b500490565b61ffff8281168282160390808211156122535761225361490b565b80820180821115610dc557610dc561490b565b6000602082840312156149c357600080fd5b5051919050565b6000602082840312156149dc57600080fd5b815161205d8161440f565b634e487b7160e01b600052602160045260246000fd5b60008251614a0f81846020870161436b565b9190910192915050565b6001600160d01b038281168282160390808211156122535761225361490b565b6001600160d01b038181168382160190808211156122535761225361490b565b601f8211156110d6576000816000526020600020601f850160051c81016020861015614a825750805b601f850160051c820191505b8181101561158457828155600101614a8e565b815167ffffffffffffffff811115614abb57614abb614506565b614acf81614ac984546148bb565b84614a59565b602080601f831160018114614b045760008415614aec5750858301515b600019600386901b1c1916600185901b178555611584565b600085815260208120601f198616915b82811015614b3357888601518255948401946001909101908401614b14565b5085821015614b515787850151600019600388901b60f8161c191681555b5050505050600190811b0190555056fee8b26c30fad74198956032a3533d903385d56dd795af560196f9c78d4af40d0052c63247e1f47db19d5ce0460030c497f067ca4cebf71ba98eeadabe20bace00a16a46d94261c7517cc8ff89f61c0ce93598e3c849801011dee649a6a557d100360894a13ba1a3210667c828492db98dca3e2076cc3735a920a3ca505d382bbc02dd7bc7dec4dceedda775e58dd541e08a116c6c53815c0bd028192f7b6268009b779b17422d0df92223018b32b4d1fa46e071723d6817e2486d003becc55f00a2646970667358221220fa281ceebcd02c783b8df82fb2de8d6c379bf339c8cbfe2a4b8a4dcebaa2d59064736f6c63430008170033",
  "linkReferences": {},
  "deployedLinkReferences": {}
}