{
  "_format": "hh-sol-artifact-1",
  "contractName": "ZUNStakingRewardDistributor",
  "sourceName": "contracts/tokenomics/staking/ZUNStakingRewardDistributor.sol",
  "abi": [
    {
      "inputs": [],
      "name": "AbsentRewardToken",
      "type": "error"
    },
    {
      "inputs": [],
      "name": "AccessControlBadConfirmation",
      "type": "error"
    },
    {
      "inputs": [
        {
          "internalType": "address",
          "name": "account",
          "type": "address"
        },
        {
          "internalType": "bytes32",
          "name": "neededRole",
          "type": "bytes32"
        }
      ],
      "name": "AccessControlUnauthorizedAccount",
      "type": "error"
    },
    {
      "inputs": [
        {
          "internalType": "address",
          "name": "target",
          "type": "address"
        }
      ],
      "name": "AddressEmptyCode",
      "type": "error"
    },
    {
      "inputs": [
        {
          "internalType": "address",
          "name": "account",
          "type": "address"
        }
      ],
      "name": "AddressInsufficientBalance",
      "type": "error"
    },
    {
      "inputs": [],
      "name": "CheckpointUnorderedInsertion",
      "type": "error"
    },
    {
      "inputs": [],
      "name": "ECDSAInvalidSignature",
      "type": "error"
    },
    {
      "inputs": [
        {
          "internalType": "uint256",
          "name": "length",
          "type": "uint256"
        }
      ],
      "name": "ECDSAInvalidSignatureLength",
      "type": "error"
    },
    {
      "inputs": [
        {
          "internalType": "bytes32",
          "name": "s",
          "type": "bytes32"
        }
      ],
      "name": "ECDSAInvalidSignatureS",
      "type": "error"
    },
    {
      "inputs": [
        {
          "internalType": "address",
          "name": "implementation",
          "type": "address"
        }
      ],
      "name": "ERC1967InvalidImplementation",
      "type": "error"
    },
    {
      "inputs": [],
      "name": "ERC1967NonPayable",
      "type": "error"
    },
    {
      "inputs": [
        {
          "internalType": "uint256",
          "name": "increasedSupply",
          "type": "uint256"
        },
        {
          "internalType": "uint256",
          "name": "cap",
          "type": "uint256"
        }
      ],
      "name": "ERC20ExceededSafeSupply",
      "type": "error"
    },
    {
      "inputs": [
        {
          "internalType": "address",
          "name": "spender",
          "type": "address"
        },
        {
          "internalType": "uint256",
          "name": "allowance",
          "type": "uint256"
        },
        {
          "internalType": "uint256",
          "name": "needed",
          "type": "uint256"
        }
      ],
      "name": "ERC20InsufficientAllowance",
      "type": "error"
    },
    {
      "inputs": [
        {
          "internalType": "address",
          "name": "sender",
          "type": "address"
        },
        {
          "internalType": "uint256",
          "name": "balance",
          "type": "uint256"
        },
        {
          "internalType": "uint256",
          "name": "needed",
          "type": "uint256"
        }
      ],
      "name": "ERC20InsufficientBalance",
      "type": "error"
    },
    {
      "inputs": [
        {
          "internalType": "address",
          "name": "approver",
          "type": "address"
        }
      ],
      "name": "ERC20InvalidApprover",
      "type": "error"
    },
    {
      "inputs": [
        {
          "internalType": "address",
          "name": "receiver",
          "type": "address"
        }
      ],
      "name": "ERC20InvalidReceiver",
      "type": "error"
    },
    {
      "inputs": [
        {
          "internalType": "address",
          "name": "sender",
          "type": "address"
        }
      ],
      "name": "ERC20InvalidSender",
      "type": "error"
    },
    {
      "inputs": [
        {
          "internalType": "address",
          "name": "spender",
          "type": "address"
        }
      ],
      "name": "ERC20InvalidSpender",
      "type": "error"
    },
    {
      "inputs": [
        {
          "internalType": "uint256",
          "name": "deadline",
          "type": "uint256"
        }
      ],
      "name": "ERC2612ExpiredSignature",
      "type": "error"
    },
    {
      "inputs": [
        {
          "internalType": "address",
          "name": "signer",
          "type": "address"
        },
        {
          "internalType": "address",
          "name": "owner",
          "type": "address"
        }
      ],
      "name": "ERC2612InvalidSigner",
      "type": "error"
    },
    {
      "inputs": [
        {
          "internalType": "uint256",
          "name": "timepoint",
          "type": "uint256"
        },
        {
          "internalType": "uint48",
          "name": "clock",
          "type": "uint48"
        }
      ],
      "name": "ERC5805FutureLookup",
      "type": "error"
    },
    {
      "inputs": [],
      "name": "ERC6372InconsistentClock",
      "type": "error"
    },
    {
      "inputs": [],
      "name": "FailedInnerCall",
      "type": "error"
    },
    {
      "inputs": [
        {
          "internalType": "address",
          "name": "account",
          "type": "address"
        },
        {
          "internalType": "uint256",
          "name": "currentNonce",
          "type": "uint256"
        }
      ],
      "name": "InvalidAccountNonce",
      "type": "error"
    },
    {
      "inputs": [],
      "name": "InvalidInitialization",
      "type": "error"
    },
    {
      "inputs": [],
      "name": "LockDoesNotExist",
      "type": "error"
    },
    {
      "inputs": [],
      "name": "NotInitializing",
      "type": "error"
    },
    {
      "inputs": [],
      "name": "NotTransferable",
      "type": "error"
    },
    {
      "inputs": [],
      "name": "ReentrancyGuardReentrantCall",
      "type": "error"
    },
    {
      "inputs": [
        {
          "internalType": "uint8",
          "name": "bits",
          "type": "uint8"
        },
        {
          "internalType": "uint256",
          "name": "value",
          "type": "uint256"
        }
      ],
      "name": "SafeCastOverflowedUintDowncast",
      "type": "error"
    },
    {
      "inputs": [
        {
          "internalType": "address",
          "name": "token",
          "type": "address"
        }
      ],
      "name": "SafeERC20FailedOperation",
      "type": "error"
    },
    {
      "inputs": [],
      "name": "TokenAlreadyAdded",
      "type": "error"
    },
    {
      "inputs": [],
      "name": "UUPSUnauthorizedCallContext",
      "type": "error"
    },
    {
      "inputs": [
        {
          "internalType": "bytes32",
          "name": "slot",
          "type": "bytes32"
        }
      ],
      "name": "UUPSUnsupportedProxiableUUID",
      "type": "error"
    },
    {
      "inputs": [],
      "name": "Unlocked",
      "type": "error"
    },
    {
      "inputs": [
        {
          "internalType": "uint256",
          "name": "expiry",
          "type": "uint256"
        }
      ],
      "name": "VotesExpiredSignature",
      "type": "error"
    },
    {
      "inputs": [],
      "name": "WrongAmount",
      "type": "error"
    },
    {
      "inputs": [],
      "name": "ZeroAddress",
      "type": "error"
    },
    {
      "inputs": [],
      "name": "ZeroAmount",
      "type": "error"
    },
    {
      "inputs": [],
      "name": "ZeroSupply",
      "type": "error"
    },
    {
      "anonymous": false,
      "inputs": [
        {
          "indexed": true,
          "internalType": "address",
          "name": "owner",
          "type": "address"
        },
        {
          "indexed": true,
          "internalType": "address",
          "name": "spender",
          "type": "address"
        },
        {
          "indexed": false,
          "internalType": "uint256",
          "name": "value",
          "type": "uint256"
        }
      ],
      "name": "Approval",
      "type": "event"
    },
    {
      "anonymous": false,
      "inputs": [
        {
          "indexed": true,
          "internalType": "address",
          "name": "user",
          "type": "address"
        },
        {
          "indexed": true,
          "internalType": "uint256",
          "name": "tid",
          "type": "uint256"
        },
        {
          "indexed": false,
          "internalType": "uint256",
          "name": "amount",
          "type": "uint256"
        }
      ],
      "name": "Claimed",
      "type": "event"
    },
    {
      "anonymous": false,
      "inputs": [
        {
          "indexed": true,
          "internalType": "address",
          "name": "delegator",
          "type": "address"
        },
        {
          "indexed": true,
          "internalType": "address",
          "name": "fromDelegate",
          "type": "address"
        },
        {
          "indexed": true,
          "internalType": "address",
          "name": "toDelegate",
          "type": "address"
        }
      ],
      "name": "DelegateChanged",
      "type": "event"
    },
    {
      "anonymous": false,
      "inputs": [
        {
          "indexed": true,
          "internalType": "address",
          "name": "delegate",
          "type": "address"
        },
        {
          "indexed": false,
          "internalType": "uint256",
          "name": "previousVotes",
          "type": "uint256"
        },
        {
          "indexed": false,
          "internalType": "uint256",
          "name": "newVotes",
          "type": "uint256"
        }
      ],
      "name": "DelegateVotesChanged",
      "type": "event"
    },
    {
      "anonymous": false,
      "inputs": [
        {
          "indexed": true,
          "internalType": "address",
          "name": "user",
          "type": "address"
        },
        {
          "indexed": false,
          "internalType": "uint256",
          "name": "lockIndex",
          "type": "uint256"
        },
        {
          "indexed": false,
          "internalType": "uint256",
          "name": "amount",
          "type": "uint256"
        },
        {
          "indexed": false,
          "internalType": "uint256",
          "name": "untilTimestamp",
          "type": "uint256"
        }
      ],
      "name": "Deposited",
      "type": "event"
    },
    {
      "anonymous": false,
      "inputs": [
        {
          "indexed": true,
          "internalType": "uint256",
          "name": "tid",
          "type": "uint256"
        },
        {
          "indexed": false,
          "internalType": "uint256",
          "name": "distribution",
          "type": "uint256"
        }
      ],
      "name": "DistributionUpdated",
      "type": "event"
    },
    {
      "anonymous": false,
      "inputs": [],
      "name": "EIP712DomainChanged",
      "type": "event"
    },
    {
      "anonymous": false,
      "inputs": [
        {
          "indexed": false,
          "internalType": "address",
          "name": "receiver",
          "type": "address"
        }
      ],
      "name": "EarlyExitReceiverChanged",
      "type": "event"
    },
    {
      "anonymous": false,
      "inputs": [
        {
          "indexed": false,
          "internalType": "uint64",
          "name": "version",
          "type": "uint64"
        }
      ],
      "name": "Initialized",
      "type": "event"
    },
    {
      "anonymous": false,
      "inputs": [
        {
          "indexed": false,
          "internalType": "uint256",
          "name": "amount",
          "type": "uint256"
        }
      ],
      "name": "ReturnedToken",
      "type": "event"
    },
    {
      "anonymous": false,
      "inputs": [
        {
          "indexed": true,
          "internalType": "address",
          "name": "token",
          "type": "address"
        },
        {
          "indexed": true,
          "internalType": "uint256",
          "name": "tid",
          "type": "uint256"
        }
      ],
      "name": "RewardTokenAdded",
      "type": "event"
    },
    {
      "anonymous": false,
      "inputs": [
        {
          "indexed": true,
          "internalType": "address",
          "name": "token",
          "type": "address"
        },
        {
          "indexed": true,
          "internalType": "uint256",
          "name": "tid",
          "type": "uint256"
        },
        {
          "indexed": false,
          "internalType": "uint256",
          "name": "amount",
          "type": "uint256"
        }
      ],
      "name": "RewardTokenStreamed",
      "type": "event"
    },
    {
      "anonymous": false,
      "inputs": [
        {
          "indexed": true,
          "internalType": "address",
          "name": "claimant",
          "type": "address"
        },
        {
          "indexed": true,
          "internalType": "address",
          "name": "receiver",
          "type": "address"
        }
      ],
      "name": "RewardsReceiverSet",
      "type": "event"
    },
    {
      "anonymous": false,
      "inputs": [
        {
          "indexed": true,
          "internalType": "bytes32",
          "name": "role",
          "type": "bytes32"
        },
        {
          "indexed": true,
          "internalType": "bytes32",
          "name": "previousAdminRole",
          "type": "bytes32"
        },
        {
          "indexed": true,
          "internalType": "bytes32",
          "name": "newAdminRole",
          "type": "bytes32"
        }
      ],
      "name": "RoleAdminChanged",
      "type": "event"
    },
    {
      "anonymous": false,
      "inputs": [
        {
          "indexed": true,
          "internalType": "bytes32",
          "name": "role",
          "type": "bytes32"
        },
        {
          "indexed": true,
          "internalType": "address",
          "name": "account",
          "type": "address"
        },
        {
          "indexed": true,
          "internalType": "address",
          "name": "sender",
          "type": "address"
        }
      ],
      "name": "RoleGranted",
      "type": "event"
    },
    {
      "anonymous": false,
      "inputs": [
        {
          "indexed": true,
          "internalType": "bytes32",
          "name": "role",
          "type": "bytes32"
        },
        {
          "indexed": true,
          "internalType": "address",
          "name": "account",
          "type": "address"
        },
        {
          "indexed": true,
          "internalType": "address",
          "name": "sender",
          "type": "address"
        }
      ],
      "name": "RoleRevoked",
      "type": "event"
    },
    {
      "anonymous": false,
      "inputs": [
        {
          "indexed": true,
          "internalType": "address",
          "name": "from",
          "type": "address"
        },
        {
          "indexed": true,
          "internalType": "address",
          "name": "to",
          "type": "address"
        },
        {
          "indexed": false,
          "internalType": "uint256",
          "name": "value",
          "type": "uint256"
        }
      ],
      "name": "Transfer",
      "type": "event"
    },
    {
      "anonymous": false,
      "inputs": [
        {
          "indexed": true,
          "internalType": "address",
          "name": "implementation",
          "type": "address"
        }
      ],
      "name": "Upgraded",
      "type": "event"
    },
    {
      "anonymous": false,
      "inputs": [
        {
          "indexed": true,
          "internalType": "uint256",
          "name": "tid",
          "type": "uint256"
        },
        {
          "indexed": true,
          "internalType": "address",
          "name": "user",
          "type": "address"
        },
        {
          "indexed": false,
          "internalType": "uint256",
          "name": "distribution",
          "type": "uint256"
        }
      ],
      "name": "UserDistributionUpdated",
      "type": "event"
    },
    {
      "anonymous": false,
      "inputs": [
        {
          "indexed": true,
          "internalType": "address",
          "name": "user",
          "type": "address"
        },
        {
          "indexed": false,
          "internalType": "uint256",
          "name": "lockIndex",
          "type": "uint256"
        },
        {
          "indexed": false,
          "internalType": "uint256",
          "name": "amount",
          "type": "uint256"
        },
        {
          "indexed": false,
          "internalType": "uint256",
          "name": "amountReduced",
          "type": "uint256"
        },
        {
          "indexed": false,
          "internalType": "uint256",
          "name": "transferedAmount",
          "type": "uint256"
        }
      ],
      "name": "Withdrawn",
      "type": "event"
    },
    {
      "anonymous": false,
      "inputs": [
        {
          "indexed": false,
          "internalType": "uint256",
          "name": "amount",
          "type": "uint256"
        }
      ],
      "name": "WithdrawnToken",
      "type": "event"
    },
    {
      "inputs": [],
      "name": "CLOCK_MODE",
      "outputs": [
        {
          "internalType": "string",
          "name": "",
          "type": "string"
        }
      ],
      "stateMutability": "view",
      "type": "function"
    },
    {
      "inputs": [],
      "name": "DEFAULT_ADMIN_ROLE",
      "outputs": [
        {
          "internalType": "bytes32",
          "name": "",
          "type": "bytes32"
        }
      ],
      "stateMutability": "view",
      "type": "function"
    },
    {
      "inputs": [],
      "name": "DISTRIBUTION_DENOMINATOR",
      "outputs": [
        {
          "internalType": "uint256",
          "name": "",
          "type": "uint256"
        }
      ],
      "stateMutability": "view",
      "type": "function"
    },
    {
      "inputs": [],
      "name": "DISTRIBUTOR_ROLE",
      "outputs": [
        {
          "internalType": "bytes32",
          "name": "",
          "type": "bytes32"
        }
      ],
      "stateMutability": "view",
      "type": "function"
    },
    {
      "inputs": [],
      "name": "DOMAIN_SEPARATOR",
      "outputs": [
        {
          "internalType": "bytes32",
          "name": "",
          "type": "bytes32"
        }
      ],
      "stateMutability": "view",
      "type": "function"
    },
    {
      "inputs": [],
      "name": "EXIT_PERCENT",
      "outputs": [
        {
          "internalType": "uint16",
          "name": "",
          "type": "uint16"
        }
      ],
      "stateMutability": "view",
      "type": "function"
    },
    {
      "inputs": [],
      "name": "PERCENT_DENOMINATOR",
      "outputs": [
        {
          "internalType": "uint16",
          "name": "",
          "type": "uint16"
        }
      ],
      "stateMutability": "view",
      "type": "function"
    },
    {
      "inputs": [],
      "name": "RATIO_DENOMINATOR",
      "outputs": [
        {
          "internalType": "uint256",
          "name": "",
          "type": "uint256"
        }
      ],
      "stateMutability": "view",
      "type": "function"
    },
    {
      "inputs": [],
      "name": "RECAPITALIZATION_ROLE",
      "outputs": [
        {
          "internalType": "bytes32",
          "name": "",
          "type": "bytes32"
        }
      ],
      "stateMutability": "view",
      "type": "function"
    },
    {
      "inputs": [],
      "name": "SECS_IN_4_MONTHS",
      "outputs": [
        {
          "internalType": "uint32",
          "name": "",
          "type": "uint32"
        }
      ],
      "stateMutability": "view",
      "type": "function"
    },
    {
      "inputs": [],
      "name": "UPGRADE_INTERFACE_VERSION",
      "outputs": [
        {
          "internalType": "string",
          "name": "",
          "type": "string"
        }
      ],
      "stateMutability": "view",
      "type": "function"
    },
    {
      "inputs": [],
      "name": "WEEK",
      "outputs": [
        {
          "internalType": "uint256",
          "name": "",
          "type": "uint256"
        }
      ],
      "stateMutability": "view",
      "type": "function"
    },
    {
      "inputs": [
        {
          "internalType": "contract IERC20",
          "name": "_token",
          "type": "address"
        }
      ],
      "name": "addRewardToken",
      "outputs": [],
      "stateMutability": "nonpayable",
      "type": "function"
    },
    {
      "inputs": [
        {
          "internalType": "address",
          "name": "owner",
          "type": "address"
        },
        {
          "internalType": "address",
          "name": "spender",
          "type": "address"
        }
      ],
      "name": "allowance",
      "outputs": [
        {
          "internalType": "uint256",
          "name": "",
          "type": "uint256"
        }
      ],
      "stateMutability": "view",
      "type": "function"
    },
    {
      "inputs": [
        {
          "internalType": "address",
          "name": "spender",
          "type": "address"
        },
        {
          "internalType": "uint256",
          "name": "value",
          "type": "uint256"
        }
      ],
      "name": "approve",
      "outputs": [
        {
          "internalType": "bool",
          "name": "",
          "type": "bool"
        }
      ],
      "stateMutability": "nonpayable",
      "type": "function"
    },
    {
      "inputs": [
        {
          "internalType": "address",
          "name": "account",
          "type": "address"
        }
      ],
      "name": "balanceOf",
      "outputs": [
        {
          "internalType": "uint256",
          "name": "",
          "type": "uint256"
        }
      ],
      "stateMutability": "view",
      "type": "function"
    },
    {
      "inputs": [
        {
          "internalType": "address",
          "name": "account",
          "type": "address"
        },
        {
          "internalType": "uint32",
          "name": "pos",
          "type": "uint32"
        }
      ],
      "name": "checkpoints",
      "outputs": [
        {
          "components": [
            {
              "internalType": "uint48",
              "name": "_key",
              "type": "uint48"
            },
            {
              "internalType": "uint208",
              "name": "_value",
              "type": "uint208"
            }
          ],
          "internalType": "struct Checkpoints.Checkpoint208",
          "name": "",
          "type": "tuple"
        }
      ],
      "stateMutability": "view",
      "type": "function"
    },
    {
      "inputs": [
        {
          "internalType": "address",
          "name": "_receiver",
          "type": "address"
        }
      ],
      "name": "claim",
      "outputs": [],
      "stateMutability": "nonpayable",
      "type": "function"
    },
    {
      "inputs": [
        {
          "internalType": "uint256",
          "name": "",
          "type": "uint256"
        },
        {
          "internalType": "address",
          "name": "",
          "type": "address"
        }
      ],
      "name": "claimableRewards",
      "outputs": [
        {
          "internalType": "uint256",
          "name": "",
          "type": "uint256"
        }
      ],
      "stateMutability": "view",
      "type": "function"
    },
    {
      "inputs": [
        {
          "internalType": "uint256",
          "name": "",
          "type": "uint256"
        },
        {
          "internalType": "address",
          "name": "",
          "type": "address"
        }
      ],
      "name": "claimedRewards",
      "outputs": [
        {
          "internalType": "uint256",
          "name": "",
          "type": "uint256"
        }
      ],
      "stateMutability": "view",
      "type": "function"
    },
    {
      "inputs": [],
      "name": "clock",
      "outputs": [
        {
          "internalType": "uint48",
          "name": "",
          "type": "uint48"
        }
      ],
      "stateMutability": "view",
      "type": "function"
    },
    {
      "inputs": [],
      "name": "decimals",
      "outputs": [
        {
          "internalType": "uint8",
          "name": "",
          "type": "uint8"
        }
      ],
      "stateMutability": "view",
      "type": "function"
    },
    {
      "inputs": [
        {
          "internalType": "address",
          "name": "delegatee",
          "type": "address"
        }
      ],
      "name": "delegate",
      "outputs": [],
      "stateMutability": "nonpayable",
      "type": "function"
    },
    {
      "inputs": [
        {
          "internalType": "address",
          "name": "delegatee",
          "type": "address"
        },
        {
          "internalType": "uint256",
          "name": "nonce",
          "type": "uint256"
        },
        {
          "internalType": "uint256",
          "name": "expiry",
          "type": "uint256"
        },
        {
          "internalType": "uint8",
          "name": "v",
          "type": "uint8"
        },
        {
          "internalType": "bytes32",
          "name": "r",
          "type": "bytes32"
        },
        {
          "internalType": "bytes32",
          "name": "s",
          "type": "bytes32"
        }
      ],
      "name": "delegateBySig",
      "outputs": [],
      "stateMutability": "nonpayable",
      "type": "function"
    },
    {
      "inputs": [
        {
          "internalType": "address",
          "name": "account",
          "type": "address"
        }
      ],
      "name": "delegates",
      "outputs": [
        {
          "internalType": "address",
          "name": "",
          "type": "address"
        }
      ],
      "stateMutability": "view",
      "type": "function"
    },
    {
      "inputs": [
        {
          "internalType": "uint256",
          "name": "_amount",
          "type": "uint256"
        },
        {
          "internalType": "address",
          "name": "_receiver",
          "type": "address"
        }
      ],
      "name": "deposit",
      "outputs": [],
      "stateMutability": "nonpayable",
      "type": "function"
    },
    {
      "inputs": [
        {
          "internalType": "uint256",
          "name": "_amount",
          "type": "uint256"
        },
        {
          "internalType": "address",
          "name": "_receiver",
          "type": "address"
        },
        {
          "internalType": "uint256",
          "name": "_deadline",
          "type": "uint256"
        },
        {
          "internalType": "uint8",
          "name": "_v",
          "type": "uint8"
        },
        {
          "internalType": "bytes32",
          "name": "_r",
          "type": "bytes32"
        },
        {
          "internalType": "bytes32",
          "name": "_s",
          "type": "bytes32"
        }
      ],
      "name": "depositWithPermit",
      "outputs": [],
      "stateMutability": "nonpayable",
      "type": "function"
    },
    {
      "inputs": [
        {
          "internalType": "address",
          "name": "_token",
          "type": "address"
        },
        {
          "internalType": "uint256",
          "name": "_amount",
          "type": "uint256"
        }
      ],
      "name": "distribute",
      "outputs": [],
      "stateMutability": "nonpayable",
      "type": "function"
    },
    {
      "inputs": [],
      "name": "earlyExitReceiver",
      "outputs": [
        {
          "internalType": "address",
          "name": "",
          "type": "address"
        }
      ],
      "stateMutability": "view",
      "type": "function"
    },
    {
      "inputs": [],
      "name": "eip712Domain",
      "outputs": [
        {
          "internalType": "bytes1",
          "name": "fields",
          "type": "bytes1"
        },
        {
          "internalType": "string",
          "name": "name",
          "type": "string"
        },
        {
          "internalType": "string",
          "name": "version",
          "type": "string"
        },
        {
          "internalType": "uint256",
          "name": "chainId",
          "type": "uint256"
        },
        {
          "internalType": "address",
          "name": "verifyingContract",
          "type": "address"
        },
        {
          "internalType": "bytes32",
          "name": "salt",
          "type": "bytes32"
        },
        {
          "internalType": "uint256[]",
          "name": "extensions",
          "type": "uint256[]"
        }
      ],
      "stateMutability": "view",
      "type": "function"
    },
    {
      "inputs": [
        {
          "internalType": "uint256",
          "name": "_tid",
          "type": "uint256"
        }
      ],
      "name": "getActualRewardDistribution",
      "outputs": [
        {
          "internalType": "uint256",
          "name": "distribution",
          "type": "uint256"
        }
      ],
      "stateMutability": "view",
      "type": "function"
    },
    {
      "inputs": [
        {
          "internalType": "uint256",
          "name": "timepoint",
          "type": "uint256"
        }
      ],
      "name": "getPastTotalSupply",
      "outputs": [
        {
          "internalType": "uint256",
          "name": "",
          "type": "uint256"
        }
      ],
      "stateMutability": "view",
      "type": "function"
    },
    {
      "inputs": [
        {
          "internalType": "address",
          "name": "account",
          "type": "address"
        },
        {
          "internalType": "uint256",
          "name": "timepoint",
          "type": "uint256"
        }
      ],
      "name": "getPastVotes",
      "outputs": [
        {
          "internalType": "uint256",
          "name": "",
          "type": "uint256"
        }
      ],
      "stateMutability": "view",
      "type": "function"
    },
    {
      "inputs": [
        {
          "internalType": "uint256",
          "name": "_tid",
          "type": "uint256"
        },
        {
          "internalType": "address",
          "name": "_user",
          "type": "address"
        }
      ],
      "name": "getPendingReward",
      "outputs": [
        {
          "internalType": "uint256",
          "name": "",
          "type": "uint256"
        }
      ],
      "stateMutability": "view",
      "type": "function"
    },
    {
      "inputs": [],
      "name": "getRecapitalizationRatio",
      "outputs": [
        {
          "internalType": "uint256",
          "name": "",
          "type": "uint256"
        }
      ],
      "stateMutability": "view",
      "type": "function"
    },
    {
      "inputs": [
        {
          "internalType": "bytes32",
          "name": "role",
          "type": "bytes32"
        }
      ],
      "name": "getRoleAdmin",
      "outputs": [
        {
          "internalType": "bytes32",
          "name": "",
          "type": "bytes32"
        }
      ],
      "stateMutability": "view",
      "type": "function"
    },
    {
      "inputs": [
        {
          "internalType": "address",
          "name": "account",
          "type": "address"
        }
      ],
      "name": "getVotes",
      "outputs": [
        {
          "internalType": "uint256",
          "name": "",
          "type": "uint256"
        }
      ],
      "stateMutability": "view",
      "type": "function"
    },
    {
      "inputs": [
        {
          "internalType": "bytes32",
          "name": "role",
          "type": "bytes32"
        },
        {
          "internalType": "address",
          "name": "account",
          "type": "address"
        }
      ],
      "name": "grantRole",
      "outputs": [],
      "stateMutability": "nonpayable",
      "type": "function"
    },
    {
      "inputs": [
        {
          "internalType": "bytes32",
          "name": "role",
          "type": "bytes32"
        },
        {
          "internalType": "address",
          "name": "account",
          "type": "address"
        }
      ],
      "name": "hasRole",
      "outputs": [
        {
          "internalType": "bool",
          "name": "",
          "type": "bool"
        }
      ],
      "stateMutability": "view",
      "type": "function"
    },
    {
      "inputs": [
        {
          "internalType": "address",
          "name": "_token",
          "type": "address"
        },
        {
          "internalType": "string",
          "name": "_name",
          "type": "string"
        },
        {
          "internalType": "string",
          "name": "_symbol",
          "type": "string"
        },
        {
          "internalType": "address",
          "name": "_defaultAdmin",
          "type": "address"
        }
      ],
      "name": "initialize",
      "outputs": [],
      "stateMutability": "nonpayable",
      "type": "function"
    },
    {
      "inputs": [
        {
          "internalType": "address",
          "name": "_token",
          "type": "address"
        }
      ],
      "name": "isRewardTokenAdded",
      "outputs": [
        {
          "internalType": "bool",
          "name": "",
          "type": "bool"
        }
      ],
      "stateMutability": "view",
      "type": "function"
    },
    {
      "inputs": [],
      "name": "name",
      "outputs": [
        {
          "internalType": "string",
          "name": "",
          "type": "string"
        }
      ],
      "stateMutability": "view",
      "type": "function"
    },
    {
      "inputs": [
        {
          "internalType": "address",
          "name": "owner",
          "type": "address"
        }
      ],
      "name": "nonces",
      "outputs": [
        {
          "internalType": "uint256",
          "name": "",
          "type": "uint256"
        }
      ],
      "stateMutability": "view",
      "type": "function"
    },
    {
      "inputs": [
        {
          "internalType": "address",
          "name": "account",
          "type": "address"
        }
      ],
      "name": "numCheckpoints",
      "outputs": [
        {
          "internalType": "uint32",
          "name": "",
          "type": "uint32"
        }
      ],
      "stateMutability": "view",
      "type": "function"
    },
    {
      "inputs": [
        {
          "internalType": "address",
          "name": "owner",
          "type": "address"
        },
        {
          "internalType": "address",
          "name": "spender",
          "type": "address"
        },
        {
          "internalType": "uint256",
          "name": "value",
          "type": "uint256"
        },
        {
          "internalType": "uint256",
          "name": "deadline",
          "type": "uint256"
        },
        {
          "internalType": "uint8",
          "name": "v",
          "type": "uint8"
        },
        {
          "internalType": "bytes32",
          "name": "r",
          "type": "bytes32"
        },
        {
          "internalType": "bytes32",
          "name": "s",
          "type": "bytes32"
        }
      ],
      "name": "permit",
      "outputs": [],
      "stateMutability": "nonpayable",
      "type": "function"
    },
    {
      "inputs": [],
      "name": "proxiableUUID",
      "outputs": [
        {
          "internalType": "bytes32",
          "name": "",
          "type": "bytes32"
        }
      ],
      "stateMutability": "view",
      "type": "function"
    },
    {
      "inputs": [],
      "name": "recapitalizedAmount",
      "outputs": [
        {
          "internalType": "uint256",
          "name": "",
          "type": "uint256"
        }
      ],
      "stateMutability": "view",
      "type": "function"
    },
    {
      "inputs": [
        {
          "internalType": "bytes32",
          "name": "role",
          "type": "bytes32"
        },
        {
          "internalType": "address",
          "name": "callerConfirmation",
          "type": "address"
        }
      ],
      "name": "renounceRole",
      "outputs": [],
      "stateMutability": "nonpayable",
      "type": "function"
    },
    {
      "inputs": [
        {
          "internalType": "uint256",
          "name": "amount",
          "type": "uint256"
        }
      ],
      "name": "returnToken",
      "outputs": [],
      "stateMutability": "nonpayable",
      "type": "function"
    },
    {
      "inputs": [
        {
          "internalType": "bytes32",
          "name": "role",
          "type": "bytes32"
        },
        {
          "internalType": "address",
          "name": "account",
          "type": "address"
        }
      ],
      "name": "revokeRole",
      "outputs": [],
      "stateMutability": "nonpayable",
      "type": "function"
    },
    {
      "inputs": [],
      "name": "rewardTokenCount",
      "outputs": [
        {
          "internalType": "uint256",
          "name": "",
          "type": "uint256"
        }
      ],
      "stateMutability": "view",
      "type": "function"
    },
    {
      "inputs": [
        {
          "internalType": "uint256",
          "name": "",
          "type": "uint256"
        }
      ],
      "name": "rewardTokenInfo",
      "outputs": [
        {
          "internalType": "contract IERC20",
          "name": "token",
          "type": "address"
        },
        {
          "internalType": "uint256",
          "name": "distribution",
          "type": "uint256"
        },
        {
          "internalType": "uint256",
          "name": "lastUpdate",
          "type": "uint256"
        },
        {
          "internalType": "uint256",
          "name": "periodFinish",
          "type": "uint256"
        },
        {
          "internalType": "uint256",
          "name": "rate",
          "type": "uint256"
        }
      ],
      "stateMutability": "view",
      "type": "function"
    },
    {
      "inputs": [
        {
          "internalType": "address",
          "name": "",
          "type": "address"
        }
      ],
      "name": "rewardTokenTidByAddress",
      "outputs": [
        {
          "internalType": "uint256",
          "name": "",
          "type": "uint256"
        }
      ],
      "stateMutability": "view",
      "type": "function"
    },
    {
      "inputs": [
        {
          "internalType": "address",
          "name": "",
          "type": "address"
        }
      ],
      "name": "rewardsReceiver",
      "outputs": [
        {
          "internalType": "address",
          "name": "",
          "type": "address"
        }
      ],
      "stateMutability": "view",
      "type": "function"
    },
    {
      "inputs": [
        {
          "internalType": "address",
          "name": "_receiver",
          "type": "address"
        }
      ],
      "name": "setEarlyExitReceiver",
      "outputs": [],
      "stateMutability": "nonpayable",
      "type": "function"
    },
    {
      "inputs": [
        {
          "internalType": "address",
          "name": "_receiver",
          "type": "address"
        }
      ],
      "name": "setRewardsReceiver",
      "outputs": [],
      "stateMutability": "nonpayable",
      "type": "function"
    },
    {
      "inputs": [
        {
          "internalType": "bytes4",
          "name": "interfaceId",
          "type": "bytes4"
        }
      ],
      "name": "supportsInterface",
      "outputs": [
        {
          "internalType": "bool",
          "name": "",
          "type": "bool"
        }
      ],
      "stateMutability": "view",
      "type": "function"
    },
    {
      "inputs": [],
      "name": "symbol",
      "outputs": [
        {
          "internalType": "string",
          "name": "",
          "type": "string"
        }
      ],
      "stateMutability": "view",
      "type": "function"
    },
    {
      "inputs": [],
      "name": "token",
      "outputs": [
        {
          "internalType": "contract IERC20",
          "name": "",
          "type": "address"
        }
      ],
      "stateMutability": "view",
      "type": "function"
    },
    {
      "inputs": [],
      "name": "totalAmount",
      "outputs": [
        {
          "internalType": "uint256",
          "name": "",
          "type": "uint256"
        }
      ],
      "stateMutability": "view",
      "type": "function"
    },
    {
      "inputs": [],
      "name": "totalSupply",
      "outputs": [
        {
          "internalType": "uint256",
          "name": "",
          "type": "uint256"
        }
      ],
      "stateMutability": "view",
      "type": "function"
    },
    {
      "inputs": [
        {
          "internalType": "address",
          "name": "recipient",
          "type": "address"
        },
        {
          "internalType": "uint256",
          "name": "amount",
          "type": "uint256"
        }
      ],
      "name": "transfer",
      "outputs": [
        {
          "internalType": "bool",
          "name": "",
          "type": "bool"
        }
      ],
      "stateMutability": "nonpayable",
      "type": "function"
    },
    {
      "inputs": [
        {
          "internalType": "address",
          "name": "sender",
          "type": "address"
        },
        {
          "internalType": "address",
          "name": "recipient",
          "type": "address"
        },
        {
          "internalType": "uint256",
          "name": "amount",
          "type": "uint256"
        }
      ],
      "name": "transferFrom",
      "outputs": [
        {
          "internalType": "bool",
          "name": "",
          "type": "bool"
        }
      ],
      "stateMutability": "nonpayable",
      "type": "function"
    },
    {
      "inputs": [],
      "name": "updateUserCheckpoint",
      "outputs": [],
      "stateMutability": "nonpayable",
      "type": "function"
    },
    {
      "inputs": [
        {
          "internalType": "address",
          "name": "newImplementation",
          "type": "address"
        },
        {
          "internalType": "bytes",
          "name": "data",
          "type": "bytes"
        }
      ],
      "name": "upgradeToAndCall",
      "outputs": [],
      "stateMutability": "payable",
      "type": "function"
    },
    {
      "inputs": [
        {
          "internalType": "address",
          "name": "_user",
          "type": "address"
        }
      ],
      "name": "userLockCount",
      "outputs": [
        {
          "internalType": "uint256",
          "name": "",
          "type": "uint256"
        }
      ],
      "stateMutability": "view",
      "type": "function"
    },
    {
      "inputs": [
        {
          "internalType": "address",
          "name": "",
          "type": "address"
        },
        {
          "internalType": "uint256",
          "name": "",
          "type": "uint256"
        }
      ],
      "name": "userLocks",
      "outputs": [
        {
          "internalType": "uint128",
          "name": "amount",
          "type": "uint128"
        },
        {
          "internalType": "uint128",
          "name": "untilTimestamp",
          "type": "uint128"
        }
      ],
      "stateMutability": "view",
      "type": "function"
    },
    {
      "inputs": [
        {
          "internalType": "address",
          "name": "",
          "type": "address"
        },
        {
          "internalType": "uint256",
          "name": "",
          "type": "uint256"
        }
      ],
      "name": "userRewardDistribution",
      "outputs": [
        {
          "internalType": "uint256",
          "name": "",
          "type": "uint256"
        }
      ],
      "stateMutability": "view",
      "type": "function"
    },
    {
      "inputs": [],
      "name": "version",
      "outputs": [
        {
          "internalType": "uint256",
          "name": "",
          "type": "uint256"
        }
      ],
      "stateMutability": "pure",
      "type": "function"
    },
    {
      "inputs": [
        {
          "internalType": "uint256",
          "name": "_lockIndex",
          "type": "uint256"
        },
        {
          "internalType": "bool",
          "name": "_claimRewards",
          "type": "bool"
        },
        {
          "internalType": "address",
          "name": "_tokenReceiver",
          "type": "address"
        }
      ],
      "name": "withdraw",
      "outputs": [],
      "stateMutability": "nonpayable",
      "type": "function"
    },
    {
      "inputs": [
        {
          "internalType": "contract IERC20",
          "name": "_token",
          "type": "address"
        }
      ],
      "name": "withdrawEmergency",
      "outputs": [],
      "stateMutability": "nonpayable",
      "type": "function"
    },
    {
      "inputs": [
        {
          "internalType": "uint256",
          "name": "amount",
          "type": "uint256"
        }
      ],
      "name": "withdrawToken",
      "outputs": [],
      "stateMutability": "nonpayable",
      "type": "function"
    }
  ],
  "bytecode": "0x60a0604052306080523480156200001557600080fd5b506200002062000026565b620000da565b7ff0c57e16840df040f15088dc2f81fe391c3923bec73e23a9662efc9c229c6a00805468010000000000000000900460ff1615620000775760405163f92ee8a960e01b815260040160405180910390fd5b80546001600160401b0390811614620000d75780546001600160401b0319166001600160401b0390811782556040519081527fc7f505b2f371ae2175ee4913f4499e1f2633a7b5936321eed1cdaeb6115181d29060200160405180910390a15b50565b608051614f6b6200010460003960008181612998015281816129c10152612ca40152614f6b6000f3fe60806040526004361061041b5760003560e01c806384b0196e1161021e578063b6663e9411610123578063e5685823116100ab578063f1127ed81161007a578063f1127ed814610d9a578063f19562b614610877578063f4359ce514610de6578063fb93210814610dfd578063fc0c546a14610e1d57600080fd5b8063e568582314610d1b578063ea158d6e14610d3b578063ecbcd98c14610d50578063f0bd87cc14610d6657600080fd5b8063cd5d9ae7116100f2578063cd5d9ae714610c41578063d505accf14610c61578063d547741f14610c81578063dd62ed3e14610ca1578063e4478bac14610d0657600080fd5b8063b6663e9414610ba9578063bd095c9e14610bc9578063c3cda52014610c01578063c59b1f3c14610c2157600080fd5b8063a217fddf116101a6578063abb06b9511610175578063abb06b9514610aca578063ad3cb1cc14610adf578063af8ef87c14610b10578063b1c20abe14610b44578063b33068c414610b7157600080fd5b8063a217fddf14610a3a578063a54d4e1b14610a4f578063a9059cbb14610a6f578063aa33fedb14610a8a57600080fd5b806391ddadf4116101ed57806391ddadf4146109a357806395d89b41146109cf5780639ab24eb0146109e45780639e6c295914610a04578063a1c04f0e14610a1a57600080fd5b806384b0196e146109135780638e539e8c1461093b5780638f44dd551461095b57806391d148541461098357600080fd5b80633c8ab1fd116103245780635c19a95c116102ac5780636a6904fb1161027b5780636a6904fb146108775780636e553f65146108935780636fcfff45146108b357806370a08231146108d35780637ecebe00146108f357600080fd5b80635c19a95c146107e1578063613d25bb146108015780636178efee1461082157806368bbad981461084157600080fd5b806350921b23116102f357806350921b231461074057806350baa6221461076057806352d1902d1461078057806354fd4d5014610795578063587cde1e146107a957600080fd5b80633c8ab1fd146106905780634479fc67146106c65780634bf5d7e9146107185780634f1ef2861461072d57600080fd5b8063248a9ca3116103a7578063351d5cf011610376578063351d5cf0146105d75780633644e5151461060357806336568abe14610618578063396236cb146106385780633a46b1a81461067057600080fd5b8063248a9ca31461055b578063261958261461057b5780632f2ff15d1461059b578063313ce567146105bb57600080fd5b806318160ddd116103ee57806318160ddd146104b95780631a39d8ef146104e55780631c03e6cc146104fb5780631e83409a1461051b57806323b872dd1461053b57600080fd5b806301ffc9a71461042057806306fdde0314610455578063095ea7b31461047757806310a2656a14610497575b600080fd5b34801561042c57600080fd5b5061044061043b366004614635565b610e3d565b60405190151581526020015b60405180910390f35b34801561046157600080fd5b5061046a610e74565b60405161044c91906146af565b34801561048357600080fd5b506104406104923660046146d7565b610f1d565b3480156104a357600080fd5b506104b76104b2366004614711565b610f35565b005b3480156104c557600080fd5b50600080516020614e96833981519152545b60405190815260200161044c565b3480156104f157600080fd5b506104d760075481565b34801561050757600080fd5b506104b7610516366004614753565b611184565b34801561052757600080fd5b506104b7610536366004614753565b611338565b34801561054757600080fd5b50610440610556366004614770565b611374565b34801561056757600080fd5b506104d76105763660046147b1565b61138f565b34801561058757600080fd5b506104b7610596366004614753565b6113b1565b3480156105a757600080fd5b506104b76105b63660046147ca565b611408565b3480156105c757600080fd5b506040516012815260200161044c565b3480156105e357600080fd5b506105ee629e340081565b60405163ffffffff909116815260200161044c565b34801561060f57600080fd5b506104d761142a565b34801561062457600080fd5b506104b76106333660046147ca565b611439565b34801561064457600080fd5b506104d76106533660046146d7565b600660209081526000928352604080842090915290825290205481565b34801561067c57600080fd5b506104d761068b3660046146d7565b61146c565b34801561069c57600080fd5b506104d76106ab366004614753565b6001600160a01b031660009081526008602052604090205490565b3480156106d257600080fd5b506106e66106e13660046147b1565b611504565b604080516001600160a01b0390961686526020860194909452928401919091526060830152608082015260a00161044c565b34801561072457600080fd5b5061046a61154f565b6104b761073b366004614886565b6115c7565b34801561074c57600080fd5b506104b761075b366004614900565b6115e6565b34801561076c57600080fd5b506104b761077b3660046147b1565b61169c565b34801561078c57600080fd5b506104d761177c565b3480156107a157600080fd5b5060016104d7565b3480156107b557600080fd5b506107c96107c4366004614753565b611799565b6040516001600160a01b03909116815260200161044c565b3480156107ed57600080fd5b506104b76107fc366004614753565b6117c4565b34801561080d57600080fd5b506104b761081c36600461497a565b6117cf565b34801561082d57600080fd5b506104b761083c3660046147b1565b6118ed565b34801561084d57600080fd5b506107c961085c366004614753565b6005602052600090815260409020546001600160a01b031681565b34801561088357600080fd5b506104d7670de0b6b3a764000081565b34801561089f57600080fd5b506104b76108ae3660046147ca565b6119ba565b3480156108bf57600080fd5b506105ee6108ce366004614753565b6119e3565b3480156108df57600080fd5b506104d76108ee366004614753565b6119ee565b3480156108ff57600080fd5b506104d761090e366004614753565b611a21565b34801561091f57600080fd5b50610928611a2c565b60405161044c9796959493929190614a03565b34801561094757600080fd5b506104d76109563660046147b1565b611ad8565b34801561096757600080fd5b50610970609681565b60405161ffff909116815260200161044c565b34801561098f57600080fd5b5061044061099e3660046147ca565b611b54565b3480156109af57600080fd5b506109b8611b8c565b60405165ffffffffffff909116815260200161044c565b3480156109db57600080fd5b5061046a611b96565b3480156109f057600080fd5b506104d76109ff366004614753565b611bd5565b348015610a1057600080fd5b506109706103e881565b348015610a2657600080fd5b506104b7610a35366004614753565b611c35565b348015610a4657600080fd5b506104d7600081565b348015610a5b57600080fd5b506104d7610a6a3660046147b1565b611cc7565b348015610a7b57600080fd5b506104406105563660046146d7565b348015610a9657600080fd5b50610aaa610aa53660046146d7565b611dbc565b604080516001600160801b0393841681529290911660208301520161044c565b348015610ad657600080fd5b506001546104d7565b348015610aeb57600080fd5b5061046a604051806040016040528060058152602001640352e302e360dc1b81525081565b348015610b1c57600080fd5b506104d77f34b5ef4b2be4eab765d268506dd12a649d8311490c68ca505d5c044e1d207b7181565b348015610b5057600080fd5b506104d7610b5f366004614753565b60026020526000908152604090205481565b348015610b7d57600080fd5b506104d7610b8c3660046147ca565b600460209081526000928352604080842090915290825290205481565b348015610bb557600080fd5b506104b7610bc4366004614753565b611dff565b348015610bd557600080fd5b506104d7610be43660046147ca565b600360209081526000928352604080842090915290825290205481565b348015610c0d57600080fd5b506104b7610c1c366004614a9c565b611e7f565b348015610c2d57600080fd5b506104d7610c3c3660046147ca565b611f3c565b348015610c4d57600080fd5b50600a546107c9906001600160a01b031681565b348015610c6d57600080fd5b506104b7610c7c366004614adc565b612006565b348015610c8d57600080fd5b506104b7610c9c3660046147ca565b612122565b348015610cad57600080fd5b506104d7610cbc366004614b4a565b6001600160a01b0391821660009081527f52c63247e1f47db19d5ce0460030c497f067ca4cebf71ba98eeadabe20bace016020908152604080832093909416825291909152205490565b348015610d1257600080fd5b506104d761213e565b348015610d2757600080fd5b50610440610d36366004614753565b612185565b348015610d4757600080fd5b506104b7612203565b348015610d5c57600080fd5b506104d760095481565b348015610d7257600080fd5b506104d77ffbd454f36a7e1a388bd6fc3ab10d434aa4578f811acbbcf33afb1c697486313c81565b348015610da657600080fd5b50610dba610db5366004614b78565b61223e565b60408051825165ffffffffffff1681526020928301516001600160d01b0316928101929092520161044c565b348015610df257600080fd5b506104d762093a8081565b348015610e0957600080fd5b506104b7610e183660046146d7565b612263565b348015610e2957600080fd5b506000546107c9906001600160a01b031681565b60006001600160e01b03198216637965db0b60e01b1480610e6e57506301ffc9a760e01b6001600160e01b03198316145b92915050565b60606000600080516020614e768339815191525b9050806003018054610e9990614baf565b80601f0160208091040260200160405190810160405280929190818152602001828054610ec590614baf565b8015610f125780601f10610ee757610100808354040283529160200191610f12565b820191906000526020600020905b815481529060010190602001808311610ef557829003601f168201915b505050505091505090565b600033610f2b818585612552565b5060019392505050565b610f3d61255f565b33600090815260086020526040902080548410610f6d57604051630b58543560e11b815260040160405180910390fd5b6000818581548110610f8157610f81614be9565b600091825260208220018054909250600160801b90046001600160801b031690819003610fc1576040516319aad37160e01b815260040160405180910390fd5b81546001600160801b03166000610fd6612597565b9050610fe433828989612624565b6000610fee61213e565b9050610ffa33846126b7565b826007600082825461100c9190614c15565b90915550839050670de0b6b3a764000082101561108157670de0b6b3a76400006110368386614c28565b6110409190614c55565b6009549091506110508286614c15565b1115611060576000600955611081565b61106a8185614c15565b6009600082825461107b9190614c15565b90915550505b85546001600160801b0316865580428611156110ed576103e86110a5609682614c77565b6110b39061ffff1684614c28565b6110bd9190614c55565b600a549091506110ed906001600160a01b03166110da8385614c15565b6000546001600160a01b031691906126ed565b6001600160a01b0389166110ff573398505b600054611116906001600160a01b03168a836126ed565b604080518c8152602081018790529081018390526060810182905233907f94ffd6b85c71b847775c89ef6496b93cee961bdc6ff827fd117f174f06f745ae9060800160405180910390a2505050505050505061117f6001600080516020614f1683398151915255565b505050565b600061118f81612760565b6001600160a01b0382166111b65760405163d92e233d60e01b815260040160405180910390fd5b6111bf82612185565b156111dd5760405163630b374b60e01b815260040160405180910390fd5b600180546040805160a0810182526001600160a01b038681168083526000602080850182815285870183815260608701848152608088018581528a8c018c559a855296517fb10e2d527612073b26eecdfd717e6a320cf44b4afac2b0732d9fcbe2b7fa0cf660058b0290810180546001600160a01b031916929098169190911790965590517fb10e2d527612073b26eecdfd717e6a320cf44b4afac2b0732d9fcbe2b7fa0cf7860155517fb10e2d527612073b26eecdfd717e6a320cf44b4afac2b0732d9fcbe2b7fa0cf885015593517fb10e2d527612073b26eecdfd717e6a320cf44b4afac2b0732d9fcbe2b7fa0cf984015595517fb10e2d527612073b26eecdfd717e6a320cf44b4afac2b0732d9fcbe2b7fa0cfa9092019190915580855260029091528184208390559051919283927f68e3e9397770d9dfa88c0953a34e1a70a05416b3895957f5b689787a920791c49190a3505050565b61134061255f565b600061134a612597565b90506113593382600185612624565b506113716001600080516020614f1683398151915255565b50565b600060405163dc8d8db760e01b815260040160405180910390fd5b6000908152600080516020614ef6833981519152602052604090206001015490565b3360008181526005602052604080822080546001600160a01b0319166001600160a01b03861690811790915590519092917f8eb3f1a8f49a22a9fcda79d30a2cf0bde5f65585f6530392b5a8deb6df47223991a350565b6114118261138f565b61141a81612760565b611424838361276a565b50505050565b600061143461280f565b905090565b6001600160a01b03811633146114625760405163334bd91960e11b815260040160405180910390fd5b61117f8282612819565b6000600080516020614e5683398151915281611486611b8c565b90508065ffffffffffff1684106114c657604051637669fc0f60e11b81526004810185905265ffffffffffff821660248201526044015b60405180910390fd5b6114f26114d285612895565b6001600160a01b03871660009081526001850160205260409020906128cc565b6001600160d01b031695945050505050565b6001818154811061151457600080fd5b6000918252602090912060059091020180546001820154600283015460038401546004909401546001600160a01b0390931694509092909185565b6060611559612982565b65ffffffffffff16611569611b8c565b65ffffffffffff161461158f576040516301bfc1c560e61b815260040160405180910390fd5b5060408051808201909152601d81527f6d6f64653d626c6f636b6e756d6265722666726f6d3d64656661756c74000000602082015290565b6115cf61298d565b6115d882612a32565b6115e28282612a3d565b5050565b6115ee61255f565b60005460405163d505accf60e01b8152336004820152306024820152604481018890526064810186905260ff8516608482015260a4810184905260c481018390526001600160a01b0390911690819063d505accf9060e401600060405180830381600087803b15801561166057600080fd5b505af1925050508015611671575060015b5061167c8787612afa565b506116946001600080516020614f1683398151915255565b505050505050565b7f34b5ef4b2be4eab765d268506dd12a649d8311490c68ca505d5c044e1d207b716116c681612760565b816000036116e757604051631f2a200560e01b815260040160405180910390fd5b6009546007546116f79190614c15565b8210611716576040516349986e7360e01b815260040160405180910390fd5b81600960008282546117289190614c92565b9091555050600054611744906001600160a01b031633846126ed565b6040518281527f533f229d4ea7857448d30b889b9e63621ba91cd093764bfe0b0a73d7a3cb5e94906020015b60405180910390a15050565b6000611786612c99565b50600080516020614ed683398151915290565b6001600160a01b039081166000908152600080516020614e5683398151915260205260409020541690565b336115e28183612ce2565b7ff0c57e16840df040f15088dc2f81fe391c3923bec73e23a9662efc9c229c6a008054600160401b810460ff16159067ffffffffffffffff166000811580156118155750825b905060008267ffffffffffffffff1660011480156118325750303b155b905081158015611840575080155b1561185e5760405163f92ee8a960e01b815260040160405180910390fd5b845467ffffffffffffffff19166001178555831561188857845460ff60401b1916600160401b1785555b61189489898989612d6c565b61189c612ecd565b83156118e257845460ff60401b19168555604051600181527fc7f505b2f371ae2175ee4913f4499e1f2633a7b5936321eed1cdaeb6115181d29060200160405180910390a15b505050505050505050565b7f34b5ef4b2be4eab765d268506dd12a649d8311490c68ca505d5c044e1d207b7161191781612760565b8160000361193857604051631f2a200560e01b815260040160405180910390fd5b60095482111561195b576040516349986e7360e01b815260040160405180910390fd5b816009600082825461196d9190614c15565b909155505060005461198a906001600160a01b0316333085612ed5565b6040518281527feb8e25ff7236139e7020edf59919f28329a1d59ef94abca5c34907c0b7034b0b90602001611770565b6119c261255f565b6119cc8282612afa565b6115e26001600080516020614f1683398151915255565b6000610e6e82612f0e565b600080600080516020614e768339815191525b6001600160a01b0390931660009081526020939093525050604090205490565b6000610e6e82612f5f565b60006060808280808381600080516020614eb68339815191528054909150158015611a5957506001810154155b611a9d5760405162461bcd60e51b81526020600482015260156024820152741152540dcc4c8e88155b9a5b9a5d1a585b1a5e9959605a1b60448201526064016114bd565b611aa5612f6a565b611aad612fa9565b60408051600080825260208201909252600f60f81b9c939b5091995046985030975095509350915050565b6000600080516020614e5683398151915281611af2611b8c565b90508065ffffffffffff168410611b2d57604051637669fc0f60e11b81526004810185905265ffffffffffff821660248201526044016114bd565b611b43611b3985612895565b60028401906128cc565b6001600160d01b0316949350505050565b6000918252600080516020614ef6833981519152602090815260408084206001600160a01b0393909316845291905290205460ff1690565b6000611434612982565b7f52c63247e1f47db19d5ce0460030c497f067ca4cebf71ba98eeadabe20bace048054606091600080516020614e7683398151915291610e9990614baf565b6001600160a01b03811660009081527fe8b26c30fad74198956032a3533d903385d56dd795af560196f9c78d4af40d0160205260408120600080516020614e5683398151915290611c2590612fc1565b6001600160d01b03169392505050565b6000611c4081612760565b6040516370a0823160e01b81523060048201526000906001600160a01b038416906370a0823190602401602060405180830381865afa158015611c87573d6000803e3d6000fd5b505050506040513d601f19601f82011682018060405250810190611cab9190614ca5565b9050801561117f5761117f6001600160a01b03841633836126ed565b60008060018381548110611cdd57611cdd614be9565b600091825260208083206040805160a081018252600590940290910180546001600160a01b0316845260018101549284018390526002810154918401919091526003810154606084015260040154608083015293509150611d4a600080516020614e968339815191525490565b90508015611db5576000611d62428460600151612ff1565b90506000836040015182611d769190614c15565b905082670de0b6b3a7640000856080015183611d929190614c28565b611d9c9190614c28565b611da69190614c55565b611db09086614c92565b945050505b5050919050565b60086020528160005260406000208181548110611dd857600080fd5b6000918252602090912001546001600160801b038082169350600160801b90910416905082565b6000611e0a81612760565b6001600160a01b038216611e315760405163d92e233d60e01b815260040160405180910390fd5b600a80546001600160a01b0319166001600160a01b0384169081179091556040519081527f4b0bdc6e20f54f9a25e1b84703541849c422b4f5ba66ef3b854ae01b776ef37c90602001611770565b83421115611ea357604051632341d78760e11b8152600481018590526024016114bd565b604080517fe48329057bfd03d55e49b547132e39cffd9c1820ad7b9d4c5307691425d15adf60208201526001600160a01b038816918101919091526060810186905260808101859052600090611f1d90611f159060a00160405160208183030381529060405280519060200120613007565b858585613034565b9050611f298187613062565b611f338188612ce2565b50505050505050565b600080611f4884611cc7565b6001600160a01b038416600090815260066020908152604080832088845290915281205491925090821115611fcf576001600160a01b0384166000908152600660209081526040808320888452909152902054670de0b6b3a764000090611faf9084614c15565b611fb8866119ee565b611fc29190614c28565b611fcc9190614c55565b90505b60008581526003602090815260408083206001600160a01b0388168452909152902054611ffd908290614c92565b95945050505050565b8342111561202a5760405163313c898160e11b8152600481018590526024016114bd565b60007f6e71edae12b1b97f4d1f60370fef10105fa2faae0126114a169c64845d6126c98888886120598c6130a1565b6040805160208101969096526001600160a01b0394851690860152929091166060840152608083015260a082015260c0810186905260e00160405160208183030381529060405280519060200120905060006120b482613007565b905060006120c482878787613034565b9050896001600160a01b0316816001600160a01b03161461210b576040516325c0072360e11b81526001600160a01b0380831660048301528b1660248201526044016114bd565b6121168a8a8a612552565b50505050505050505050565b61212b8261138f565b61213481612760565b6114248383612819565b60006009546000036121575750670de0b6b3a764000090565b600754600954670de0b6b3a7640000906121719083614c15565b61217b9190614c28565b6114349190614c55565b6001600160a01b038116600090815260026020526040812054801515806121ec5750600154158015906121ec5750826001600160a01b0316600182815481106121d0576121d0614be9565b60009182526020909120600590910201546001600160a01b0316145b156121fa5750600192915050565b50600092915050565b61220b61255f565b6000612215612597565b90506122243382600080612624565b5061223c6001600080516020614f1683398151915255565b565b604080518082019091526000808252602082015261225c83836130e3565b9392505050565b7ffbd454f36a7e1a388bd6fc3ab10d434aa4578f811acbbcf33afb1c697486313c61228d81612760565b6007546000036122b05760405163c16f3a9360e01b815260040160405180910390fd5b816000036122d157604051631f2a200560e01b815260040160405180910390fd5b6001600160a01b0383166122f85760405163d92e233d60e01b815260040160405180910390fd5b61230183612185565b61231e5760405163363b89e360e01b815260040160405180910390fd5b6001600160a01b038316600090815260026020526040812054600180549192918390811061234e5761234e614be9565b906000526020600020906005020190506123678261314e565b5080546040516370a0823160e01b81523060048201526000916001600160a01b0316906370a0823190602401602060405180830381865afa1580156123b0573d6000803e3d6000fd5b505050506040513d601f19601f820116820180604052508101906123d49190614ca5565b82549091506123ee906001600160a01b0316333088612ed5565b81546040516370a0823160e01b815230600482015282916001600160a01b0316906370a0823190602401602060405180830381865afa158015612435573d6000803e3d6000fd5b505050506040513d601f19601f820116820180604052508101906124599190614ca5565b6124639190614c15565b905062093a80811015612489576040516349986e7360e01b815260040160405180910390fd5b60038201544281116124ac576124a262093a8083614c55565b60048401556124ee565b60006124b84283614c15565b905060008460040154826124cc9190614c28565b905062093a806124dc8286614c92565b6124e69190614c55565b600486015550505b42600284018190556125049062093a8090614c92565b600384015560405186815284906001600160a01b038916907ff25c6275ff91b9cb88e0bf720b11252020ab484de55b904cfabef2830be6d0c79060200160405180910390a350505050505050565b61117f8383836001613274565b600080516020614f1683398151915280546001190161259157604051633ee5aeb560e01b815260040160405180910390fd5b60029055565b60015460609060008167ffffffffffffffff8111156125b8576125b86147fa565b6040519080825280602002602001820160405280156125e1578160200160208202803683370190505b50905060005b8281101561261d576125f88161314e565b82828151811061260a5761260a614be9565b60209081029190910101526001016125e7565b5092915050565b8082801561263957506001600160a01b038116155b1561266257506001600160a01b0380851660009081526005602052604090205416806126625750835b600061266d866119ee565b60015490915060005b818110156126ad576126a5818986868b868151811061269757612697614be9565b60200260200101518b61335c565b600101612676565b5050505050505050565b6001600160a01b0382166126e157604051634b637e8f60e11b8152600060048201526024016114bd565b6115e28260008361359f565b6040516001600160a01b0383811660248301526044820183905261117f91859182169063a9059cbb906064015b604051602081830303815290604052915060e01b6020820180516001600160e01b0383818316178352505050506135aa565b6001600080516020614f1683398151915255565b611371813361360d565b6000600080516020614ef68339815191526127858484611b54565b612805576000848152602082815260408083206001600160a01b03871684529091529020805460ff191660011790556127bb3390565b6001600160a01b0316836001600160a01b0316857f2f8788117e7eff1d82e926ec794901d17c78024a50270940304540a733656f0d60405160405180910390a46001915050610e6e565b6000915050610e6e565b6000611434613646565b6000600080516020614ef68339815191526128348484611b54565b15612805576000848152602082815260408083206001600160a01b0387168085529252808320805460ff1916905551339287917ff6391f5c32d9c69d2a47ea670b442974b53935d1edc7fd64eb21e047a839171b9190a46001915050610e6e565b600065ffffffffffff8211156128c8576040516306dfcc6560e41b815260306004820152602481018390526044016114bd565b5090565b81546000908181600581111561292b5760006128e7846136ba565b6128f19085614c15565b60008881526020902090915081015465ffffffffffff908116908716101561291b57809150612929565b612926816001614c92565b92505b505b6000612939878785856137a2565b905080156129745761295e87612950600184614c15565b600091825260209091200190565b54600160301b90046001600160d01b0316612977565b60005b979650505050505050565b600061143443612895565b306001600160a01b037f0000000000000000000000000000000000000000000000000000000000000000161480612a1457507f00000000000000000000000000000000000000000000000000000000000000006001600160a01b0316612a08600080516020614ed6833981519152546001600160a01b031690565b6001600160a01b031614155b1561223c5760405163703e46dd60e11b815260040160405180910390fd5b60006115e281612760565b816001600160a01b03166352d1902d6040518163ffffffff1660e01b8152600401602060405180830381865afa925050508015612a97575060408051601f3d908101601f19168201909252612a9491810190614ca5565b60015b612abf57604051634c9c8ce360e01b81526001600160a01b03831660048201526024016114bd565b600080516020614ed68339815191528114612af057604051632a87526960e21b8152600481018290526024016114bd565b61117f8383613804565b81600003612b1b57604051631f2a200560e01b815260040160405180910390fd5b6001600160a01b038116612b2c5750335b6000612b36612597565b9050612b458282600080612624565b600054612b5d906001600160a01b0316333086612ed5565b6000612b6761213e565b9050670de0b6b3a7640000811015612bbc576000670de0b6b3a7640000612b8e8387614c28565b612b989190614c55565b9050612ba48186614c15565b60096000828254612bb59190614c92565b9091555050505b8360076000828254612bce9190614c92565b90915550612bde9050838561385a565b6000612bed629e340042614c92565b6001600160a01b03851660008181526008602090815260408083208054825180840184526001600160801b038d8116825288811682870181815260018501865594885296869020915193518116600160801b029316929092179181019190915581518181529283018b905290820192909252929350917f91ede45f04a37a7c170f5c1207df3b6bc748dc1e04ad5e917a241d0f52feada3906060015b60405180910390a2505050505050565b306001600160a01b037f0000000000000000000000000000000000000000000000000000000000000000161461223c5760405163703e46dd60e11b815260040160405180910390fd5b600080516020614e568339815191526000612cfc84611799565b6001600160a01b0385811660008181526020869052604080822080546001600160a01b031916898616908117909155905194955093928516927f3134e8a2e6d97e929a7e54011ea5485d7d196dd5f0ba4d4ef95803e8e3fc257f9190a46114248184612d6787613890565b61389b565b7ff0c57e16840df040f15088dc2f81fe391c3923bec73e23a9662efc9c229c6a008054600160401b810460ff16159067ffffffffffffffff16600081158015612db25750825b905060008267ffffffffffffffff166001148015612dcf5750303b155b905081158015612ddd575080155b15612dfb5760405163f92ee8a960e01b815260040160405180910390fd5b845467ffffffffffffffff191660011785558315612e2557845460ff60401b1916600160401b1785555b6001600160a01b038916612e4c5760405163d92e233d60e01b815260040160405180910390fd5b6001600160a01b038616612e735760405163d92e233d60e01b815260040160405180910390fd5b612e7d8888613a05565b612e8688613a17565b612e8e612ecd565b612e96612ecd565b612e9e613a42565b612ea960008761276a565b50600080546001600160a01b0319166001600160a01b038b1617905561189c613a52565b61223c613a5b565b6040516001600160a01b0384811660248301528381166044830152606482018390526114249186918216906323b872dd9060840161271a565b6001600160a01b03811660009081527fe8b26c30fad74198956032a3533d903385d56dd795af560196f9c78d4af40d016020526040812054600080516020614e568339815191529061225c90613aa4565b6000610e6e82613ad5565b7fa16a46d94261c7517cc8ff89f61c0ce93598e3c849801011dee649a6a557d1028054606091600080516020614eb683398151915291610e9990614baf565b60606000600080516020614eb6833981519152610e88565b805460009080156121fa57612fdb83612950600184614c15565b54600160301b90046001600160d01b031661225c565b6000818310613000578161225c565b5090919050565b6000610e6e61301461280f565b8360405161190160f01b8152600281019290925260228201526042902090565b60008060008061304688888888613ae0565b9250925092506130568282613baf565b50909695505050505050565b600061306d836130a1565b905080821461117f576040516301d4b62360e61b81526001600160a01b0384166004820152602481018290526044016114bd565b6001600160a01b031660009081527f5ab42ced628888259c08ac98db1eb0cf702fc1501344311d8b100cd1bfe4bb006020526040902080546001810190915590565b604080518082018252600080825260208083018290526001600160a01b03861682527fe8b26c30fad74198956032a3533d903385d56dd795af560196f9c78d4af40d01905291909120600080516020614e56833981519152906131469084613c68565b949350505050565b6000806001838154811061316457613164614be9565b60009182526020822060059091020180549092506001600160a01b03169080613199600080516020614e968339815191525490565b90508360010154945060006131b2428660030154612ff1565b905060008560020154826131c69190614c15565b905082158015906131d657508015155b15613214576002860182905560048601548390670de0b6b3a7640000906131fd9084614c28565b6132079190614c28565b6132119190614c55565b93505b8386600101546132249190614c92565b96508315613269576001860187905560405187815288907f92115ad895c1825fe8760a760481c930f7c591faee70d76e646401a1158746eb9060200160405180910390a25b505050505050919050565b600080516020614e768339815191526001600160a01b0385166132ad5760405163e602df0560e01b8152600060048201526024016114bd565b6001600160a01b0384166132d757604051634a1406b160e11b8152600060048201526024016114bd565b6001600160a01b0380861660009081526001830160209081526040808320938816835292905220839055811561335557836001600160a01b0316856001600160a01b03167f8c5be1e5ebec7d5bd14f71427d1e84f3dd0314c0f7b2291e5b200ac8c7c3b9258560405161334c91815260200190565b60405180910390a35b5050505050565b6001600160a01b0385166000908152600660209081526040808320898452909152812054908382101561340c576001600160a01b03871660008181526006602090815260408083208c845282529182902087905590518681528a917f8567bd7ba46fc931ec5088db3870d59640e678126a4c443bf7d45e0b16bba318910160405180910390a3670de0b6b3a76400006133f58386614c15565b6133ff9087614c28565b6134099190614c55565b90505b60008881526003602090815260408083206001600160a01b038b16845290915281205461343a908390614c92565b905080156118e257831561356957600061348160018b8154811061346057613460614be9565b60009182526020909120600590910201546001600160a01b03168984613cd8565b60008b81526004602090815260408083206001600160a01b038e1684529091528120805492935083929091906134b8908490614c92565b909155505060008a81526003602090815260408083206001600160a01b038d1684529091529020541515806134ec57508082115b1561351f576134fb8183614c15565b60008b81526003602090815260408083206001600160a01b038e1684529091529020555b89886001600160a01b03167f987d620f307ff6b94d58743cb7a7509f24071586a77759b77c2d4e29f75a2f9a8460405161355b91815260200190565b60405180910390a3506118e2565b81156118e25760008981526003602090815260408083206001600160a01b038c1684529091529020819055505050505050505050565b61117f838383613d6a565b60006135bf6001600160a01b03841683613da3565b905080516000141580156135e45750808060200190518101906135e29190614cbe565b155b1561117f57604051635274afe760e01b81526001600160a01b03841660048201526024016114bd565b6136178282611b54565b6115e25760405163e2517d3f60e01b81526001600160a01b0382166004820152602481018390526044016114bd565b60007f8b73c3c69bb8fe3d512ecc4cf759cc79239f7b179b0ffacaa9a75d522b39400f613671613db1565b613679613e1b565b60408051602081019490945283019190915260608201524660808201523060a082015260c00160405160208183030381529060405280519060200120905090565b6000816000036136cc57506000919050565b600060016136d984613e5f565b901c6001901b905060018184816136f2576136f2614c3f565b048201901c9050600181848161370a5761370a614c3f565b048201901c9050600181848161372257613722614c3f565b048201901c9050600181848161373a5761373a614c3f565b048201901c9050600181848161375257613752614c3f565b048201901c9050600181848161376a5761376a614c3f565b048201901c9050600181848161378257613782614c3f565b048201901c905061225c8182858161379c5761379c614c3f565b04612ff1565b60005b818310156137fc5760006137b98484613ef3565b60008781526020902090915065ffffffffffff86169082015465ffffffffffff1611156137e8578092506137f6565b6137f3816001614c92565b93505b506137a5565b509392505050565b61380d82613f0e565b6040516001600160a01b038316907fbc7cd75a20ee27fd9adebab32041f755214dbc6bffa90cc0225b39da2e5c2d3b90600090a28051156138525761117f8282613f73565b6115e2613fe0565b6001600160a01b0382166138845760405163ec442f0560e01b8152600060048201526024016114bd565b6115e26000838361359f565b6000610e6e826119ee565b600080516020614e568339815191526001600160a01b03848116908416148015906138c65750600082115b15611424576001600160a01b03841615613970576001600160a01b03841660009081526001820160205260408120819061390b90613fff6139068761400b565b61403f565b6001600160d01b031691506001600160d01b03169150856001600160a01b03167fdec2bacdd2f05b59de34da9b523dff8be42e5e38e818c82fdb0bae774387a7248383604051613965929190918252602082015260400190565b60405180910390a250505b6001600160a01b03831615611424576001600160a01b0383166000908152600182016020526040812081906139ab906140786139068761400b565b6001600160d01b031691506001600160d01b03169150846001600160a01b03167fdec2bacdd2f05b59de34da9b523dff8be42e5e38e818c82fdb0bae774387a7248383604051612c89929190918252602082015260400190565b613a0d613a5b565b6115e28282614084565b613a1f613a5b565b61137181604051806040016040528060018152602001603160f81b8152506140d5565b613a4a613a5b565b61223c614136565b61223c33611dff565b7ff0c57e16840df040f15088dc2f81fe391c3923bec73e23a9662efc9c229c6a0054600160401b900460ff1661223c57604051631afcd79f60e31b815260040160405180910390fd5b600063ffffffff8211156128c8576040516306dfcc6560e41b815260206004820152602481018390526044016114bd565b6000610e6e8261413e565b600080807f7fffffffffffffffffffffffffffffff5d576e7357a4501ddfe92f46681b20a0841115613b1b5750600091506003905082613ba5565b604080516000808252602082018084528a905260ff891692820192909252606081018790526080810186905260019060a0016020604051602081039080840390855afa158015613b6f573d6000803e3d6000fd5b5050604051601f1901519150506001600160a01b038116613b9b57506000925060019150829050613ba5565b9250600091508190505b9450945094915050565b6000826003811115613bc357613bc3614cdb565b03613bcc575050565b6001826003811115613be057613be0614cdb565b03613bfe5760405163f645eedf60e01b815260040160405180910390fd5b6002826003811115613c1257613c12614cdb565b03613c335760405163fce698f760e01b8152600481018290526024016114bd565b6003826003811115613c4757613c47614cdb565b036115e2576040516335e2f38360e21b8152600481018290526024016114bd565b6040805180820190915260008082526020820152826000018263ffffffff1681548110613c9757613c97614be9565b60009182526020918290206040805180820190915291015465ffffffffffff81168252600160301b90046001600160d01b0316918101919091529392505050565b6040516370a0823160e01b815230600482015260009081906001600160a01b038616906370a0823190602401602060405180830381865afa158015613d21573d6000803e3d6000fd5b505050506040513d601f19601f82011682018060405250810190613d459190614ca5565b905082915080821115613d56578091505b6137fc6001600160a01b03861685846126ed565b8015613d98576000613d7a612597565b9050613d898482600080612624565b613d968382600080612624565b505b61117f838383614167565b606061225c838360006141db565b6000600080516020614eb683398151915281613dcb612f6a565b805190915015613de357805160209091012092915050565b81548015613df2579392505050565b7fc5d2460186f7233c927e7db2dcc703c0e500b653ca82273b7bfad8045d85a470935050505090565b6000600080516020614eb683398151915281613e35612fa9565b805190915015613e4d57805160209091012092915050565b60018201548015613df2579392505050565b600080608083901c15613e7457608092831c92015b604083901c15613e8657604092831c92015b602083901c15613e9857602092831c92015b601083901c15613eaa57601092831c92015b600883901c15613ebc57600892831c92015b600483901c15613ece57600492831c92015b600283901c15613ee057600292831c92015b600183901c15610e6e5760010192915050565b6000613f026002848418614c55565b61225c90848416614c92565b806001600160a01b03163b600003613f4457604051634c9c8ce360e01b81526001600160a01b03821660048201526024016114bd565b600080516020614ed683398151915280546001600160a01b0319166001600160a01b0392909216919091179055565b6060600080846001600160a01b031684604051613f909190614cf1565b600060405180830381855af49150503d8060008114613fcb576040519150601f19603f3d011682016040523d82523d6000602084013e613fd0565b606091505b5091509150611ffd858383614278565b341561223c5760405163b398979f60e01b815260040160405180910390fd5b600061225c8284614d0d565b60006001600160d01b038211156128c8576040516306dfcc6560e41b815260d06004820152602481018390526044016114bd565b60008061406b61404d611b8c565b61406361405988612fc1565b868863ffffffff16565b8791906142d4565b915091505b935093915050565b600061225c8284614d2d565b61408c613a5b565b600080516020614e768339815191527f52c63247e1f47db19d5ce0460030c497f067ca4cebf71ba98eeadabe20bace036140c68482614d95565b50600481016114248382614d95565b6140dd613a5b565b600080516020614eb68339815191527fa16a46d94261c7517cc8ff89f61c0ce93598e3c849801011dee649a6a557d1026141178482614d95565b50600381016141268382614d95565b5060008082556001909101555050565b61274c613a5b565b6000807f5ab42ced628888259c08ac98db1eb0cf702fc1501344311d8b100cd1bfe4bb00611a01565b6141728383836142e2565b6001600160a01b0383166141d0576000614198600080516020614e968339815191525490565b90506001600160d01b03808211156141cd57604051630e58ae9360e11b815260048101839052602481018290526044016114bd565b50505b61117f838383614420565b6060814710156142005760405163cd78605960e01b81523060048201526024016114bd565b600080856001600160a01b0316848660405161421c9190614cf1565b60006040518083038185875af1925050503d8060008114614259576040519150601f19603f3d011682016040523d82523d6000602084013e61425e565b606091505b509150915061426e868383614278565b9695505050505050565b60608261428d5761428882614492565b61225c565b81511580156142a457506001600160a01b0384163b155b156142cd57604051639996b31560e01b81526001600160a01b03851660048201526024016114bd565b508061225c565b60008061406b8585856144bb565b600080516020614e768339815191526001600160a01b03841661431e57818160020160008282546143139190614c92565b909155506143909050565b6001600160a01b038416600090815260208290526040902054828110156143715760405163391434e360e21b81526001600160a01b038616600482015260248101829052604481018490526064016114bd565b6001600160a01b03851660009081526020839052604090209083900390555b6001600160a01b0383166143ae5760028101805483900390556143cd565b6001600160a01b03831660009081526020829052604090208054830190555b826001600160a01b0316846001600160a01b03167fddf252ad1be2c89b69c2b068fc378daa952ba7f163c4a11628f55a4df523b3ef8460405161441291815260200190565b60405180910390a350505050565b600080516020614e568339815191526001600160a01b03841661445357614450816002016140786139068561400b565b50505b6001600160a01b0383166144775761447481600201613fff6139068561400b565b50505b61142461448385611799565b61448c85611799565b8461389b565b8051156144a25780518082602001fd5b604051630a12f52160e11b815260040160405180910390fd5b8254600090819080156145da5760006144d987612950600185614c15565b60408051808201909152905465ffffffffffff808216808452600160301b9092046001600160d01b03166020840152919250908716101561452d57604051632520601d60e01b815260040160405180910390fd5b805165ffffffffffff808816911603614579578461455088612950600186614c15565b80546001600160d01b0392909216600160301b0265ffffffffffff9092169190911790556145ca565b6040805180820190915265ffffffffffff80881682526001600160d01b0380881660208085019182528b54600181018d5560008d81529190912094519151909216600160301b029216919091179101555b6020015192508391506140709050565b50506040805180820190915265ffffffffffff80851682526001600160d01b0380851660208085019182528854600181018a5560008a815291822095519251909316600160301b029190931617920191909155905081614070565b60006020828403121561464757600080fd5b81356001600160e01b03198116811461225c57600080fd5b60005b8381101561467a578181015183820152602001614662565b50506000910152565b6000815180845261469b81602086016020860161465f565b601f01601f19169290920160200192915050565b60208152600061225c6020830184614683565b6001600160a01b038116811461137157600080fd5b600080604083850312156146ea57600080fd5b82356146f5816146c2565b946020939093013593505050565b801515811461137157600080fd5b60008060006060848603121561472657600080fd5b83359250602084013561473881614703565b91506040840135614748816146c2565b809150509250925092565b60006020828403121561476557600080fd5b813561225c816146c2565b60008060006060848603121561478557600080fd5b8335614790816146c2565b925060208401356147a0816146c2565b929592945050506040919091013590565b6000602082840312156147c357600080fd5b5035919050565b600080604083850312156147dd57600080fd5b8235915060208301356147ef816146c2565b809150509250929050565b634e487b7160e01b600052604160045260246000fd5b600067ffffffffffffffff8084111561482b5761482b6147fa565b604051601f8501601f19908116603f01168101908282118183101715614853576148536147fa565b8160405280935085815286868601111561486c57600080fd5b858560208301376000602087830101525050509392505050565b6000806040838503121561489957600080fd5b82356148a4816146c2565b9150602083013567ffffffffffffffff8111156148c057600080fd5b8301601f810185136148d157600080fd5b6148e085823560208401614810565b9150509250929050565b803560ff811681146148fb57600080fd5b919050565b60008060008060008060c0878903121561491957600080fd5b86359550602087013561492b816146c2565b945060408701359350614940606088016148ea565b92506080870135915060a087013590509295509295509295565b600082601f83011261496b57600080fd5b61225c83833560208501614810565b6000806000806080858703121561499057600080fd5b843561499b816146c2565b9350602085013567ffffffffffffffff808211156149b857600080fd5b6149c48883890161495a565b945060408701359150808211156149da57600080fd5b506149e78782880161495a565b92505060608501356149f8816146c2565b939692955090935050565b60ff60f81b881681526000602060e06020840152614a2460e084018a614683565b8381036040850152614a36818a614683565b606085018990526001600160a01b038816608086015260a0850187905284810360c08601528551808252602080880193509091019060005b81811015614a8a57835183529284019291840191600101614a6e565b50909c9b505050505050505050505050565b60008060008060008060c08789031215614ab557600080fd5b8635614ac0816146c2565b95506020870135945060408701359350614940606088016148ea565b600080600080600080600060e0888a031215614af757600080fd5b8735614b02816146c2565b96506020880135614b12816146c2565b95506040880135945060608801359350614b2e608089016148ea565b925060a0880135915060c0880135905092959891949750929550565b60008060408385031215614b5d57600080fd5b8235614b68816146c2565b915060208301356147ef816146c2565b60008060408385031215614b8b57600080fd5b8235614b96816146c2565b9150602083013563ffffffff811681146147ef57600080fd5b600181811c90821680614bc357607f821691505b602082108103614be357634e487b7160e01b600052602260045260246000fd5b50919050565b634e487b7160e01b600052603260045260246000fd5b634e487b7160e01b600052601160045260246000fd5b81810381811115610e6e57610e6e614bff565b8082028115828204841417610e6e57610e6e614bff565b634e487b7160e01b600052601260045260246000fd5b600082614c7257634e487b7160e01b600052601260045260246000fd5b500490565b61ffff82811682821603908082111561261d5761261d614bff565b80820180821115610e6e57610e6e614bff565b600060208284031215614cb757600080fd5b5051919050565b600060208284031215614cd057600080fd5b815161225c81614703565b634e487b7160e01b600052602160045260246000fd5b60008251614d0381846020870161465f565b9190910192915050565b6001600160d01b0382811682821603908082111561261d5761261d614bff565b6001600160d01b0381811683821601908082111561261d5761261d614bff565b601f82111561117f576000816000526020600020601f850160051c81016020861015614d765750805b601f850160051c820191505b8181101561169457828155600101614d82565b815167ffffffffffffffff811115614daf57614daf6147fa565b614dc381614dbd8454614baf565b84614d4d565b602080601f831160018114614df85760008415614de05750858301515b600019600386901b1c1916600185901b178555611694565b600085815260208120601f198616915b82811015614e2757888601518255948401946001909101908401614e08565b5085821015614e455787850151600019600388901b60f8161c191681555b5050505050600190811b0190555056fee8b26c30fad74198956032a3533d903385d56dd795af560196f9c78d4af40d0052c63247e1f47db19d5ce0460030c497f067ca4cebf71ba98eeadabe20bace0052c63247e1f47db19d5ce0460030c497f067ca4cebf71ba98eeadabe20bace02a16a46d94261c7517cc8ff89f61c0ce93598e3c849801011dee649a6a557d100360894a13ba1a3210667c828492db98dca3e2076cc3735a920a3ca505d382bbc02dd7bc7dec4dceedda775e58dd541e08a116c6c53815c0bd028192f7b6268009b779b17422d0df92223018b32b4d1fa46e071723d6817e2486d003becc55f00a264697066735822122019e0f76f2e43b8621869e71f3173a10d617f6abd503dd27703556d2feff38fb064736f6c63430008170033",
  "linkReferences": {},
  "deployedLinkReferences": {}
}