{
  "_format": "hh-sol-artifact-1",
  "contractName": "ZunUsdOracle",
  "sourceName": "contracts/lib/Oracle/contracts/oracles/ZunUsdOracle.sol",
  "abi": [
    {
      "inputs": [
        {
          "internalType": "address",
          "name": "genericOracle_",
          "type": "address"
        }
      ],
      "stateMutability": "nonpayable",
      "type": "constructor"
    },
    {
      "inputs": [
        {
          "internalType": "address",
          "name": "token_",
          "type": "address"
        }
      ],
      "name": "getUSDPrice",
      "outputs": [
        {
          "internalType": "uint256",
          "name": "",
          "type": "uint256"
        }
      ],
      "stateMutability": "view",
      "type": "function"
    },
    {
      "inputs": [
        {
          "internalType": "address",
          "name": "token_",
          "type": "address"
        }
      ],
      "name": "isTokenSupported",
      "outputs": [
        {
          "internalType": "bool",
          "name": "",
          "type": "bool"
        }
      ],
      "stateMutability": "pure",
      "type": "function"
    }
  ],
  "bytecode": "0x60a060405234801561001057600080fd5b506040516104be3803806104be83398101604081905261002f91610040565b6001600160a01b0316608052610070565b60006020828403121561005257600080fd5b81516001600160a01b038116811461006957600080fd5b9392505050565b60805161043361008b600039600061016501526104336000f3fe608060405234801561001057600080fd5b50600436106100365760003560e01c806375151b631461003b5780638b2f0f4f14610080575b600080fd5b61006b61004936600461027c565b6001600160a01b0316738c0d76c9b18779665475f3e212d9ca1ed6a1a0e61490565b60405190151581526020015b60405180910390f35b61009361008e36600461027c565b6100a1565b604051908152602001610077565b6000738c0d76c9b18779665475f3e212d9ca1ed6a1a0e66001600160a01b038316146101095760405162461bcd60e51b81526020600482015260136024820152721d1bdad95b881b9bdd081cdd5c1c1bdc9d1959606a1b604482015260640160405180910390fd5b61013b738c24b3213fd851db80245fccc42c40b94ac9a74573f939e0a03fb07f59a73314e73794be0e57ac1b4e610141565b92915050565b604051638b2f0f4f60e01b81526001600160a01b03828116600483015260009182917f00000000000000000000000000000000000000000000000000000000000000001690638b2f0f4f90602401602060405180830381865afa1580156101ac573d6000803e3d6000fd5b505050506040513d601f19601f820116820180604052508101906101d091906102a5565b604051636872765360e01b81526000600482018190529192506001600160a01b03861690636872765390602401602060405180830381865afa15801561021a573d6000803e3d6000fd5b505050506040513d601f19601f8201168201806040525081019061023e91906102a5565b905061024a8282610253565b95945050505050565b60006102616012600a6103b8565b61026b83856103c4565b61027591906103db565b9392505050565b60006020828403121561028e57600080fd5b81356001600160a01b038116811461027557600080fd5b6000602082840312156102b757600080fd5b5051919050565b634e487b7160e01b600052601160045260246000fd5b600181815b8085111561030f5781600019048211156102f5576102f56102be565b8085161561030257918102915b93841c93908002906102d9565b509250929050565b6000826103265750600161013b565b816103335750600061013b565b816001811461034957600281146103535761036f565b600191505061013b565b60ff841115610364576103646102be565b50506001821b61013b565b5060208310610133831016604e8410600b8410161715610392575081810a61013b565b61039c83836102d4565b80600019048211156103b0576103b06102be565b029392505050565b60006102758383610317565b808202811582820484141761013b5761013b6102be565b6000826103f857634e487b7160e01b600052601260045260246000fd5b50049056fea2646970667358221220cb4a21abc4e1ee7c624b92f4ec02dae22b7dc189618d17a6bcd4f5d7ac22928964736f6c63430008170033",
  "linkReferences": {},
  "deployedLinkReferences": {}
}