{
  "_format": "hh-sol-artifact-1",
  "contractName": "ZunUsdCrvUsdApsConvexCurveStrat",
  "sourceName": "contracts/strategies/curve/convex/aps/crvUSD/ZunUsdCrvUsdApsConvexCurveStrat.sol",
  "abi": [
    {
      "inputs": [],
      "stateMutability": "nonpayable",
      "type": "constructor"
    },
    {
      "inputs": [],
      "name": "AccessControlBadConfirmation",
      "type": "error"
    },
    {
      "inputs": [
        {
          "internalType": "address",
          "name": "account",
          "type": "address"
        },
        {
          "internalType": "bytes32",
          "name": "neededRole",
          "type": "bytes32"
        }
      ],
      "name": "AccessControlUnauthorizedAccount",
      "type": "error"
    },
    {
      "inputs": [
        {
          "internalType": "address",
          "name": "target",
          "type": "address"
        }
      ],
      "name": "AddressEmptyCode",
      "type": "error"
    },
    {
      "inputs": [
        {
          "internalType": "address",
          "name": "account",
          "type": "address"
        }
      ],
      "name": "AddressInsufficientBalance",
      "type": "error"
    },
    {
      "inputs": [],
      "name": "FailedInnerCall",
      "type": "error"
    },
    {
      "inputs": [],
      "name": "MustBeCalledByZunamiPool",
      "type": "error"
    },
    {
      "inputs": [],
      "name": "MustHaveOwner",
      "type": "error"
    },
    {
      "inputs": [
        {
          "internalType": "address",
          "name": "token",
          "type": "address"
        }
      ],
      "name": "SafeERC20FailedOperation",
      "type": "error"
    },
    {
      "inputs": [],
      "name": "WrongBoosterDepositAll",
      "type": "error"
    },
    {
      "inputs": [],
      "name": "WrongDecimalMultipliers",
      "type": "error"
    },
    {
      "inputs": [],
      "name": "WrongTokens",
      "type": "error"
    },
    {
      "inputs": [],
      "name": "ZeroAddress",
      "type": "error"
    },
    {
      "inputs": [],
      "name": "ZeroValue",
      "type": "error"
    },
    {
      "anonymous": false,
      "inputs": [
        {
          "indexed": false,
          "internalType": "uint256",
          "name": "oldAmount",
          "type": "uint256"
        },
        {
          "indexed": false,
          "internalType": "uint256",
          "name": "newAmount",
          "type": "uint256"
        }
      ],
      "name": "MinDepositAmountUpdated",
      "type": "event"
    },
    {
      "anonymous": false,
      "inputs": [
        {
          "indexed": false,
          "internalType": "address",
          "name": "oracleAddr",
          "type": "address"
        }
      ],
      "name": "PriceOracleSet",
      "type": "event"
    },
    {
      "anonymous": false,
      "inputs": [
        {
          "indexed": true,
          "internalType": "bytes32",
          "name": "role",
          "type": "bytes32"
        },
        {
          "indexed": true,
          "internalType": "bytes32",
          "name": "previousAdminRole",
          "type": "bytes32"
        },
        {
          "indexed": true,
          "internalType": "bytes32",
          "name": "newAdminRole",
          "type": "bytes32"
        }
      ],
      "name": "RoleAdminChanged",
      "type": "event"
    },
    {
      "anonymous": false,
      "inputs": [
        {
          "indexed": true,
          "internalType": "bytes32",
          "name": "role",
          "type": "bytes32"
        },
        {
          "indexed": true,
          "internalType": "address",
          "name": "account",
          "type": "address"
        },
        {
          "indexed": true,
          "internalType": "address",
          "name": "sender",
          "type": "address"
        }
      ],
      "name": "RoleGranted",
      "type": "event"
    },
    {
      "anonymous": false,
      "inputs": [
        {
          "indexed": true,
          "internalType": "bytes32",
          "name": "role",
          "type": "bytes32"
        },
        {
          "indexed": true,
          "internalType": "address",
          "name": "account",
          "type": "address"
        },
        {
          "indexed": true,
          "internalType": "address",
          "name": "sender",
          "type": "address"
        }
      ],
      "name": "RoleRevoked",
      "type": "event"
    },
    {
      "anonymous": false,
      "inputs": [
        {
          "indexed": false,
          "internalType": "address",
          "name": "stableConverter",
          "type": "address"
        }
      ],
      "name": "SetStableConverter",
      "type": "event"
    },
    {
      "anonymous": false,
      "inputs": [
        {
          "indexed": false,
          "internalType": "address",
          "name": "zunamiPoolAddr",
          "type": "address"
        }
      ],
      "name": "ZunamiPoolSet",
      "type": "event"
    },
    {
      "inputs": [],
      "name": "CRVUSD_TOKEN_POOL_CRVUSD_ID",
      "outputs": [
        {
          "internalType": "uint128",
          "name": "",
          "type": "uint128"
        }
      ],
      "stateMutability": "view",
      "type": "function"
    },
    {
      "inputs": [],
      "name": "CRVUSD_TOKEN_POOL_CRVUSD_ID_INT",
      "outputs": [
        {
          "internalType": "int128",
          "name": "",
          "type": "int128"
        }
      ],
      "stateMutability": "view",
      "type": "function"
    },
    {
      "inputs": [],
      "name": "CRVUSD_TOKEN_POOL_TOKEN_ID",
      "outputs": [
        {
          "internalType": "uint128",
          "name": "",
          "type": "uint128"
        }
      ],
      "stateMutability": "view",
      "type": "function"
    },
    {
      "inputs": [],
      "name": "CRVUSD_TOKEN_POOL_TOKEN_ID_INT",
      "outputs": [
        {
          "internalType": "int128",
          "name": "",
          "type": "int128"
        }
      ],
      "stateMutability": "view",
      "type": "function"
    },
    {
      "inputs": [],
      "name": "CRVUSD_USDC_POOL_CRVUSD_ID",
      "outputs": [
        {
          "internalType": "uint128",
          "name": "",
          "type": "uint128"
        }
      ],
      "stateMutability": "view",
      "type": "function"
    },
    {
      "inputs": [],
      "name": "CRVUSD_USDC_POOL_CRVUSD_ID_INT",
      "outputs": [
        {
          "internalType": "int128",
          "name": "",
          "type": "int128"
        }
      ],
      "stateMutability": "view",
      "type": "function"
    },
    {
      "inputs": [],
      "name": "CRVUSD_USDC_POOL_USDC_ID",
      "outputs": [
        {
          "internalType": "uint128",
          "name": "",
          "type": "uint128"
        }
      ],
      "stateMutability": "view",
      "type": "function"
    },
    {
      "inputs": [],
      "name": "CRVUSD_USDC_POOL_USDC_ID_INT",
      "outputs": [
        {
          "internalType": "int128",
          "name": "",
          "type": "int128"
        }
      ],
      "stateMutability": "view",
      "type": "function"
    },
    {
      "inputs": [],
      "name": "DEFAULT_ADMIN_ROLE",
      "outputs": [
        {
          "internalType": "bytes32",
          "name": "",
          "type": "bytes32"
        }
      ],
      "stateMutability": "view",
      "type": "function"
    },
    {
      "inputs": [],
      "name": "DEPOSIT_DENOMINATOR",
      "outputs": [
        {
          "internalType": "uint256",
          "name": "",
          "type": "uint256"
        }
      ],
      "stateMutability": "view",
      "type": "function"
    },
    {
      "inputs": [],
      "name": "EMERGENCY_ADMIN_ROLE",
      "outputs": [
        {
          "internalType": "bytes32",
          "name": "",
          "type": "bytes32"
        }
      ],
      "stateMutability": "view",
      "type": "function"
    },
    {
      "inputs": [],
      "name": "POOL_ASSETS",
      "outputs": [
        {
          "internalType": "uint8",
          "name": "",
          "type": "uint8"
        }
      ],
      "stateMutability": "view",
      "type": "function"
    },
    {
      "inputs": [],
      "name": "PRICE_DENOMINATOR",
      "outputs": [
        {
          "internalType": "uint256",
          "name": "",
          "type": "uint256"
        }
      ],
      "stateMutability": "view",
      "type": "function"
    },
    {
      "inputs": [],
      "name": "RATIO_MULTIPLIER",
      "outputs": [
        {
          "internalType": "uint256",
          "name": "",
          "type": "uint256"
        }
      ],
      "stateMutability": "view",
      "type": "function"
    },
    {
      "inputs": [
        {
          "internalType": "uint256[5]",
          "name": "tokenAmounts",
          "type": "uint256[5]"
        },
        {
          "internalType": "bool",
          "name": "isDeposit",
          "type": "bool"
        }
      ],
      "name": "calcTokenAmount",
      "outputs": [
        {
          "internalType": "uint256",
          "name": "sharesAmount",
          "type": "uint256"
        }
      ],
      "stateMutability": "view",
      "type": "function"
    },
    {
      "inputs": [
        {
          "internalType": "address",
          "name": "receiver",
          "type": "address"
        },
        {
          "internalType": "contract IERC20[]",
          "name": "rewardTokens",
          "type": "address[]"
        }
      ],
      "name": "claimRewards",
      "outputs": [],
      "stateMutability": "nonpayable",
      "type": "function"
    },
    {
      "inputs": [],
      "name": "crvUsdUsdcPool",
      "outputs": [
        {
          "internalType": "contract ICurvePool2",
          "name": "",
          "type": "address"
        }
      ],
      "stateMutability": "view",
      "type": "function"
    },
    {
      "inputs": [],
      "name": "cvxBooster",
      "outputs": [
        {
          "internalType": "contract IConvexBooster",
          "name": "",
          "type": "address"
        }
      ],
      "stateMutability": "view",
      "type": "function"
    },
    {
      "inputs": [],
      "name": "cvxPID",
      "outputs": [
        {
          "internalType": "uint256",
          "name": "",
          "type": "uint256"
        }
      ],
      "stateMutability": "view",
      "type": "function"
    },
    {
      "inputs": [],
      "name": "cvxRewards",
      "outputs": [
        {
          "internalType": "contract IConvexRewards",
          "name": "",
          "type": "address"
        }
      ],
      "stateMutability": "view",
      "type": "function"
    },
    {
      "inputs": [
        {
          "internalType": "uint256",
          "name": "ratioOfCrvLps",
          "type": "uint256"
        },
        {
          "internalType": "uint256",
          "name": "minDeflateAmount",
          "type": "uint256"
        }
      ],
      "name": "deflate",
      "outputs": [],
      "stateMutability": "nonpayable",
      "type": "function"
    },
    {
      "inputs": [
        {
          "internalType": "uint256[5]",
          "name": "amounts",
          "type": "uint256[5]"
        }
      ],
      "name": "deposit",
      "outputs": [
        {
          "internalType": "uint256",
          "name": "",
          "type": "uint256"
        }
      ],
      "stateMutability": "nonpayable",
      "type": "function"
    },
    {
      "inputs": [],
      "name": "depositedLiquidity",
      "outputs": [
        {
          "internalType": "uint256",
          "name": "",
          "type": "uint256"
        }
      ],
      "stateMutability": "view",
      "type": "function"
    },
    {
      "inputs": [
        {
          "internalType": "bytes32",
          "name": "role",
          "type": "bytes32"
        }
      ],
      "name": "getRoleAdmin",
      "outputs": [
        {
          "internalType": "bytes32",
          "name": "",
          "type": "bytes32"
        }
      ],
      "stateMutability": "view",
      "type": "function"
    },
    {
      "inputs": [
        {
          "internalType": "bytes32",
          "name": "role",
          "type": "bytes32"
        },
        {
          "internalType": "address",
          "name": "account",
          "type": "address"
        }
      ],
      "name": "grantRole",
      "outputs": [],
      "stateMutability": "nonpayable",
      "type": "function"
    },
    {
      "inputs": [
        {
          "internalType": "bytes32",
          "name": "role",
          "type": "bytes32"
        },
        {
          "internalType": "address",
          "name": "account",
          "type": "address"
        }
      ],
      "name": "hasRole",
      "outputs": [
        {
          "internalType": "bool",
          "name": "",
          "type": "bool"
        }
      ],
      "stateMutability": "view",
      "type": "function"
    },
    {
      "inputs": [
        {
          "internalType": "uint256",
          "name": "ratioOfCrvLps",
          "type": "uint256"
        },
        {
          "internalType": "uint256",
          "name": "minInflatedAmount",
          "type": "uint256"
        }
      ],
      "name": "inflate",
      "outputs": [],
      "stateMutability": "nonpayable",
      "type": "function"
    },
    {
      "inputs": [],
      "name": "minDepositAmount",
      "outputs": [
        {
          "internalType": "uint256",
          "name": "",
          "type": "uint256"
        }
      ],
      "stateMutability": "view",
      "type": "function"
    },
    {
      "inputs": [],
      "name": "oracle",
      "outputs": [
        {
          "internalType": "contract IOracle",
          "name": "",
          "type": "address"
        }
      ],
      "stateMutability": "view",
      "type": "function"
    },
    {
      "inputs": [],
      "name": "pool",
      "outputs": [
        {
          "internalType": "contract ICurvePoolN",
          "name": "",
          "type": "address"
        }
      ],
      "stateMutability": "view",
      "type": "function"
    },
    {
      "inputs": [],
      "name": "poolToken",
      "outputs": [
        {
          "internalType": "contract IERC20",
          "name": "",
          "type": "address"
        }
      ],
      "stateMutability": "view",
      "type": "function"
    },
    {
      "inputs": [
        {
          "internalType": "bytes32",
          "name": "role",
          "type": "bytes32"
        },
        {
          "internalType": "address",
          "name": "callerConfirmation",
          "type": "address"
        }
      ],
      "name": "renounceRole",
      "outputs": [],
      "stateMutability": "nonpayable",
      "type": "function"
    },
    {
      "inputs": [
        {
          "internalType": "bytes32",
          "name": "role",
          "type": "bytes32"
        },
        {
          "internalType": "address",
          "name": "account",
          "type": "address"
        }
      ],
      "name": "revokeRole",
      "outputs": [],
      "stateMutability": "nonpayable",
      "type": "function"
    },
    {
      "inputs": [
        {
          "internalType": "address",
          "name": "oracleAddr",
          "type": "address"
        }
      ],
      "name": "setPriceOracle",
      "outputs": [],
      "stateMutability": "nonpayable",
      "type": "function"
    },
    {
      "inputs": [
        {
          "internalType": "address",
          "name": "stableConverterAddr",
          "type": "address"
        }
      ],
      "name": "setStableConverter",
      "outputs": [],
      "stateMutability": "nonpayable",
      "type": "function"
    },
    {
      "inputs": [
        {
          "internalType": "address",
          "name": "zunamiAddr",
          "type": "address"
        }
      ],
      "name": "setZunamiPool",
      "outputs": [],
      "stateMutability": "nonpayable",
      "type": "function"
    },
    {
      "inputs": [],
      "name": "stableConverter",
      "outputs": [
        {
          "internalType": "contract IStableConverter",
          "name": "",
          "type": "address"
        }
      ],
      "stateMutability": "view",
      "type": "function"
    },
    {
      "inputs": [
        {
          "internalType": "bytes4",
          "name": "interfaceId",
          "type": "bytes4"
        }
      ],
      "name": "supportsInterface",
      "outputs": [
        {
          "internalType": "bool",
          "name": "",
          "type": "bool"
        }
      ],
      "stateMutability": "view",
      "type": "function"
    },
    {
      "inputs": [
        {
          "internalType": "uint256",
          "name": "",
          "type": "uint256"
        }
      ],
      "name": "tokenDecimalsMultipliers",
      "outputs": [
        {
          "internalType": "uint256",
          "name": "",
          "type": "uint256"
        }
      ],
      "stateMutability": "view",
      "type": "function"
    },
    {
      "inputs": [
        {
          "internalType": "uint256",
          "name": "",
          "type": "uint256"
        }
      ],
      "name": "tokens",
      "outputs": [
        {
          "internalType": "contract IERC20",
          "name": "",
          "type": "address"
        }
      ],
      "stateMutability": "view",
      "type": "function"
    },
    {
      "inputs": [],
      "name": "totalHoldings",
      "outputs": [
        {
          "internalType": "uint256",
          "name": "",
          "type": "uint256"
        }
      ],
      "stateMutability": "view",
      "type": "function"
    },
    {
      "inputs": [
        {
          "internalType": "uint256",
          "name": "_minDepositAmount",
          "type": "uint256"
        }
      ],
      "name": "updateMinDepositAmount",
      "outputs": [],
      "stateMutability": "nonpayable",
      "type": "function"
    },
    {
      "inputs": [
        {
          "internalType": "address",
          "name": "receiver",
          "type": "address"
        },
        {
          "internalType": "uint256",
          "name": "poolTokenRatio",
          "type": "uint256"
        },
        {
          "internalType": "uint256[5]",
          "name": "tokenAmounts",
          "type": "uint256[5]"
        }
      ],
      "name": "withdraw",
      "outputs": [
        {
          "internalType": "bool",
          "name": "",
          "type": "bool"
        }
      ],
      "stateMutability": "nonpayable",
      "type": "function"
    },
    {
      "inputs": [
        {
          "internalType": "uint256[5]",
          "name": "minTokenAmounts",
          "type": "uint256[5]"
        }
      ],
      "name": "withdrawAll",
      "outputs": [],
      "stateMutability": "nonpayable",
      "type": "function"
    },
    {
      "inputs": [
        {
          "internalType": "contract IERC20",
          "name": "_token",
          "type": "address"
        }
      ],
      "name": "withdrawStuckToken",
      "outputs": [],
      "stateMutability": "nonpayable",
      "type": "function"
    },
    {
      "inputs": [],
      "name": "zunamiController",
      "outputs": [
        {
          "internalType": "contract IController",
          "name": "",
          "type": "address"
        }
      ],
      "stateMutability": "view",
      "type": "function"
    },
    {
      "inputs": [],
      "name": "zunamiPool",
      "outputs": [
        {
          "internalType": "contract IPool",
          "name": "",
          "type": "address"
        }
      ],
      "stateMutability": "view",
      "type": "function"
    },
    {
      "inputs": [],
      "name": "zunamiStable",
      "outputs": [
        {
          "internalType": "contract IERC20",
          "name": "",
          "type": "address"
        }
      ],
      "stateMutability": "view",
      "type": "function"
    }
  ],
  "bytecode": "0x6101806040526126de600255734dece678ceceb27446b35c672dc7d61f30bad69e610160523480156200003157600080fd5b506040518060a00160405280738c0d76c9b18779665475f3e212d9ca1ed6a1a0e66001600160a01b03166001600160a01b0316815260200160006001600160a01b03166001600160a01b0316815260200160006001600160a01b03166001600160a01b0316815260200160006001600160a01b03166001600160a01b0316815260200160006001600160a01b03166001600160a01b03168152506040518060a00160405280600181526020016000815260200160008152602001600081526020016000815250738c24b3213fd851db80245fccc42c40b94ac9a7458073f403c135812408bfbe8713b5a23a04b3d48aae3173b0408d1477554268ece9b0a40290c345196fbf1b61013573618eee502cdf6b46a2199c21d1411f3f6065c940738c0d76c9b18779665475f3e212d9ca1ed6a1a0e688888888888888868686868686868686868683836200018d6000801b33620004a460201b60201c565b506000805b6005811015620002e157818015620001cd57506000848260058110620001bc57620001bc620005f8565b60200201516001600160a01b031614155b15620001ec57604051631d37a6fd60e11b815260040160405180910390fd5b6000848260058110620002035762000203620005f8565b60200201516001600160a01b0316036200021c57600191505b6000848260058110620002335762000233620005f8565b60200201516001600160a01b031614158015620002675750828160058110620002605762000260620005f8565b6020020151155b80620002b957506000848260058110620002855762000285620005f8565b60200201516001600160a01b0316148015620002b95750828160058110620002b157620002b1620005f8565b602002015115155b15620002d85760405163bfa45dc560e01b815260040160405180910390fd5b60010162000192565b50620002f1600384600562000553565b50620003016008836005620005b0565b5050506001600160a01b03831690506200032e5760405163d92e233d60e01b815260040160405180910390fd5b6001600160a01b0380831660805281166200035c5760405163d92e233d60e01b815260040160405180910390fd5b6001600160a01b0390811660a052861692506200038f9150505760405163d92e233d60e01b815260040160405180910390fd5b6001600160a01b0380841660e0528216620003bd5760405163d92e233d60e01b815260040160405180910390fd5b6001600160a01b038216610100526000819003620003ee57604051637c946ed760e01b815260040160405180910390fd5b60c052506200042794507f5358bcfd81d1ef3da152b1755e1c3c6739686fa7e83dbcad0071568cc4b73a63935033925050620004a49050565b5050506001600160a01b03871694506200045993505050505760405163d92e233d60e01b815260040160405180910390fd5b6001600160a01b03808316610120528116620004885760405163d92e233d60e01b815260040160405180910390fd5b6001600160a01b031661014052506200060e9650505050505050565b6000828152602081815260408083206001600160a01b038516845290915281205460ff1662000549576000838152602081815260408083206001600160a01b03861684529091529020805460ff19166001179055620005003390565b6001600160a01b0316826001600160a01b0316847f2f8788117e7eff1d82e926ec794901d17c78024a50270940304540a733656f0d60405160405180910390a45060016200054d565b5060005b92915050565b82600581019282156200059e579160200282015b828111156200059e57825182546001600160a01b0319166001600160a01b0390911617825560209092019160019091019062000567565b50620005ac929150620005e1565b5090565b82600581019282156200059e579160200282015b828111156200059e578251825591602001919060010190620005c4565b5b80821115620005ac5760008155600101620005e2565b634e487b7160e01b600052603260045260246000fd5b60805160a05160c05160e05161010051610120516101405161016051612ca1620007466000396000818161058c015281816114dd01528181611530015281816117d9015261182c0152600081816104ad01528181611290015281816119fe015261250b015260008181610683015281816112b201528181611315015281816118be01526118e70152600081816105f401528181610f3e01528181611181015281816116bc01528181611c1c0152611ca20152600081816102d20152818161225d01526122c501526000818161032601526122910152600081816106410152818161223b015261241f01526000818161036401528181610d870152818161120b0152818161161a0152818161174601528181611a2001528181611e9801528181611f6a015281816121b4015261235d0152612ca16000f3fe608060405234801561001057600080fd5b50600436106102a05760003560e01c8063596159831161016757806397b2ee04116100ce578063cbdf382c11610087578063cbdf382c1461063c578063d547741f14610663578063d5f651a4146104fe578063dc3a3d9714610406578063e9ec2e9914610676578063f459fff41461067e57600080fd5b806397b2ee04146104675780639d57b9a6146105d4578063a217fddf146105e7578063aa5ccb90146105ef578063b67d611d14610616578063bc3a8e291461062957600080fd5b806375451b4f1161012057806375451b4f146105475780637dc0d1d01461056157806381a7b8941461057457806383a8e3e41461058757806384780205146105ae57806391d14854146105c157600080fd5b806359615983146104e2578063645006ca146104f5578063676e98f61461045f5780636c1516e1146104fe5780636d9164c61461050d5780636e76fc8f1461052057600080fd5b806327329f311161020b5780634c953c57116101c45780634c953c57146104675780634d5303011461046f5780634f64b2be14610482578063530e784f14610495578063550f5c98146104a857806356edb316146104cf57600080fd5b806327329f31146104065780632a938342146104265780632f2ff15d1461043957806336568abe1461044c5780633c9021511461045f57806343d704df146103b557600080fd5b80631977488a1161025d5780631977488a146103865780632026ffa31461038f578063213c79d8146103a257806321de3972146103b5578063248a9ca3146103d057806325122264146103f357600080fd5b806301ffc9a7146102a55780630229c64c146102cd578063068acf6c1461030c57806308051e971461032157806310c231c71461035657806316f0115b1461035f575b600080fd5b6102b86102b33660046127aa565b6106a5565b60405190151581526020015b60405180910390f35b6102f47f000000000000000000000000000000000000000000000000000000000000000081565b6040516001600160a01b0390911681526020016102c4565b61031f61031a3660046127e9565b6106dc565b005b6103487f000000000000000000000000000000000000000000000000000000000000000081565b6040519081526020016102c4565b610348600e5481565b6102f47f000000000000000000000000000000000000000000000000000000000000000081565b61034861271081565b61031f61039d36600461284d565b610773565b6001546102f4906001600160a01b031681565b6103bd600181565b604051600f9190910b81526020016102c4565b6103486103de366004612914565b60009081526020819052604090206001015490565b61031f61040136600461292d565b6107c9565b61040e600081565b6040516001600160801b0390911681526020016102c4565b61031f61043436600461292d565b6107fd565b61031f61044736600461294f565b610831565b61031f61045a36600461294f565b61085c565b61040e600181565b6103bd600081565b61031f61047d3660046127e9565b61088f565b6102f4610490366004612914565b610917565b61031f6104a33660046127e9565b610937565b6102f47f000000000000000000000000000000000000000000000000000000000000000081565b6103486104dd366004612914565b6109b7565b61031f6104f03660046127e9565b6109ce565b61034860025481565b610348670de0b6b3a764000081565b6102b861051b3660046129ed565b610a4e565b6103487f5358bcfd81d1ef3da152b1755e1c3c6739686fa7e83dbcad0071568cc4b73a6381565b61054f600581565b60405160ff90911681526020016102c4565b600d546102f4906001600160a01b031681565b61031f610582366004612a2c565b610c24565b6102f47f000000000000000000000000000000000000000000000000000000000000000081565b61031f6105bc366004612914565b610cba565b6102b86105cf36600461294f565b610d5a565b6103486105e2366004612a56565b610d83565b610348600081565b6102f47f000000000000000000000000000000000000000000000000000000000000000081565b610348610624366004612a2c565b610e1c565b600f546102f4906001600160a01b031681565b6102f47f000000000000000000000000000000000000000000000000000000000000000081565b61031f61067136600461294f565b610e96565b610348610ebb565b6102f47f000000000000000000000000000000000000000000000000000000000000000081565b60006001600160e01b03198216637965db0b60e01b14806106d657506301ffc9a760e01b6001600160e01b03198316145b92915050565b60006106e781610ed3565b6040516370a0823160e01b81523060048201526000906001600160a01b038416906370a0823190602401602060405180830381865afa15801561072e573d6000803e3d6000fd5b505050506040513d601f19601f820116820180604052508101906107529190612a83565b9050801561076e5761076e6001600160a01b0384163383610edd565b505050565b6001546001600160a01b0316336001600160a01b0316146107a7576040516304d6e46b60e31b815260040160405180910390fd5b6107af610f3c565b6107c581836107c060008551610fc0565b61103f565b5050565b7f5358bcfd81d1ef3da152b1755e1c3c6739686fa7e83dbcad0071568cc4b73a636107f381610ed3565b61076e8383611140565b7f5358bcfd81d1ef3da152b1755e1c3c6739686fa7e83dbcad0071568cc4b73a6361082781610ed3565b61076e838361167b565b60008281526020819052604090206001015461084c81610ed3565b6108568383611a7f565b50505050565b6001600160a01b03811633146108855760405163334bd91960e11b815260040160405180910390fd5b61076e8282611b11565b600061089a81610ed3565b6001600160a01b0382166108c15760405163d92e233d60e01b815260040160405180910390fd5b600f80546001600160a01b0319166001600160a01b0384169081179091556040519081527f8d3be2f5779ff2e5c2283e107b82a55a09d3d8ac76fbb172d0782aff55bbd094906020015b60405180910390a15050565b6003816005811061092757600080fd5b01546001600160a01b0316905081565b600061094281610ed3565b6001600160a01b0382166109695760405163d92e233d60e01b815260040160405180910390fd5b600d80546001600160a01b0319166001600160a01b0384169081179091556040519081527f6536690106168bdf4ba72c128a053d817999b1db90cae23f139b293bf862cb759060200161090b565b600881600581106109c757600080fd5b0154905081565b60006109d981610ed3565b6001600160a01b038216610a005760405163d92e233d60e01b815260040160405180910390fd5b600180546001600160a01b0319166001600160a01b0384169081179091556040519081527ffa639b2012458fd129b4bf30b2a98c9b56cc3a9ba0606013b8d1f9232cb4498a9060200161090b565b6001546000906001600160a01b0316336001600160a01b031614610a85576040516304d6e46b60e31b815260040160405180910390fd5b6000610a9084611b7c565b9050610a9d836000610d83565b811015610aae576000915050610c1d565b60408051600580825260c082019092526000916020820160a08036833701905050905060005b6005811015610ba557600060038260058110610af257610af2612a9c565b01546001600160a01b031614610ba55760038160058110610b1557610b15612a9c565b01546040516370a0823160e01b81523060048201526001600160a01b03909116906370a0823190602401602060405180830381865afa158015610b5c573d6000803e3d6000fd5b505050506040513d601f19601f82011682018060405250810190610b809190612a83565b828281518110610b9257610b92612a9c565b6020908102919091010152600101610ad4565b5081600e6000828254610bb89190612ac8565b90915550610bca905082856000611c00565b6040805160a0810191829052610c1691610c0f919060039060059082845b81546001600160a01b03168152600190910190602001808311610be8575050505050611d12565b878361103f565b6001925050505b9392505050565b6001546001600160a01b0316336001600160a01b031614610c58576040516304d6e46b60e31b815260040160405180910390fd5b610c66600e54826001611c00565b6000600e556040805160a0810191829052600380546001600160a01b03168252610cb792610caa929190600590600460208501808311610be8575050505050611d12565b336107c060006005610fc0565b50565b6000610cc581610ed3565b600082118015610cd757506127108211155b610d185760405162461bcd60e51b815260206004820152600d60248201526c57726f6e6720616d6f756e742160981b60448201526064015b60405180910390fd5b60025460408051918252602082018490527f5fb4589fcdfab8bd40d9776abc10876bb1cb02c0edab28d05cc42869b40e0329910160405180910390a150600255565b6000918252602082815260408084206001600160a01b0393909316845291905290205460ff1690565b60007f00000000000000000000000000000000000000000000000000000000000000006001600160a01b0316633db06dd8610dbd85611d90565b846040518363ffffffff1660e01b8152600401610ddb929190612b17565b602060405180830381865afa158015610df8573d6000803e3d6000fd5b505050506040513d601f19601f82011682018060405250810190610c1d9190612a83565b6001546000906001600160a01b0316336001600160a01b031614610e53576040516304d6e46b60e31b815260040160405180910390fd5b610e5c82611de2565b610e6857506000919050565b6000610e7383611f62565b905080600e6000828254610e879190612b3b565b90915550610c1d905081611fa5565b600082815260208190526040902060010154610eb181610ed3565b6108568383611b11565b6000610ece610ec9600e5490565b611fa5565b905090565b610cb78133611fc2565b6040516001600160a01b0383811660248301526044820183905261076e91859182169063a9059cbb906064015b604051602081830303815290604052915060e01b6020820180516001600160e01b038381831617835250505050611ffb565b7f00000000000000000000000000000000000000000000000000000000000000006001600160a01b0316633d18b9126040518163ffffffff1660e01b81526004016020604051808303816000875af1158015610f9c573d6000803e3d6000fd5b505050506040513d601f19601f82011682018060405250810190610cb79190612b4e565b60608167ffffffffffffffff811115610fdb57610fdb612806565b604051908082528060200260200182016040528015611004578160200160208202803683370190505b50905060005b82811015611038578382828151811061102557611025612a9c565b602090810291909101015260010161100a565b5092915050565b60008060005b85518110156111385785818151811061106057611060612a9c565b6020026020010151915060006001600160a01b0316826001600160a01b031603156111385783818151811061109757611097612a9c565b60209081029190910101516040516370a0823160e01b81523060048201526001600160a01b038416906370a0823190602401602060405180830381865afa1580156110e6573d6000803e3d6000fd5b505050506040513d601f19601f8201168201806040525081019061110a9190612a83565b6111149190612ac8565b92508215611130576111306001600160a01b0383168685610edd565b600101611045565b505050505050565b600061114b83611b7c565b905080600e600082825461115f9190612ac8565b9091555050604051636197390160e11b815260048101829052600060248201527f00000000000000000000000000000000000000000000000000000000000000006001600160a01b03169063c32e720290604401600060405180830381600087803b1580156111cd57600080fd5b505af11580156111e1573d6000803e3d6000fd5b5050604051630d2680e960e11b8152600481018490526001602482015260006044820181905292507f00000000000000000000000000000000000000000000000000000000000000006001600160a01b03169150631a4d01d2906064016020604051808303816000875af115801561125d573d6000803e3d6000fd5b505050506040513d601f19601f820116820180604052508101906112819190612a83565b90506112d76001600160a01b037f0000000000000000000000000000000000000000000000000000000000000000167f00000000000000000000000000000000000000000000000000000000000000008361205e565b6040805160a081018252600080825260208201819052818301819052606082018190526080820152905163ca54be3b60e01b81526001600160a01b037f0000000000000000000000000000000000000000000000000000000000000000169163ca54be3b9161134c9185913090600401612b8e565b600060405180830381600087803b15801561136657600080fd5b505af115801561137a573d6000803e3d6000fd5b50506040516370a0823160e01b8152306004820152736b175474e89094c44da98b954eedeac495271d0f925073a0b86991c6218b36c1d19d4a2e9eb0ce3606eb48915073dac17f958d2ee523a2206206994597c13d831ec79061142d908490849082906370a08231906024015b602060405180830381865afa158015611404573d6000803e3d6000fd5b505050506040513d601f19601f820116820180604052508101906114289190612a83565b6120e8565b6040516370a0823160e01b815230600482015261146190829084906001600160a01b038316906370a08231906024016113e7565b6040516370a0823160e01b81523060048201526000906001600160a01b038416906370a0823190602401602060405180830381865afa1580156114a8573d6000803e3d6000fd5b505050506040513d601f19601f820116820180604052508101906114cc9190612a83565b90506115026001600160a01b0384167f00000000000000000000000000000000000000000000000000000000000000008361205e565b604051630f7c084960e21b8152600060048201819052600160248301526044820183905260648201899052907f00000000000000000000000000000000000000000000000000000000000000006001600160a01b031690633df02124906084016020604051808303816000875af1158015611581573d6000803e3d6000fd5b505050506040513d601f19601f820116820180604052508101906115a59190612a83565b604080516008808252610120820190925291925073f939e0a03fb07f59a73314e73794be0e57ac1b4e916000916020820161010080368337019050509050828160006001600160801b03168151811061160057611600612a9c565b602090810291909101015261163f6001600160a01b0383167f00000000000000000000000000000000000000000000000000000000000000008561205e565b600061164a8261219a565b905080600e600082825461165e9190612b3b565b9091555061166d90508161222e565b505050505050505050505050565b600061168683611b7c565b905080600e600082825461169a9190612ac8565b9091555050604051636197390160e11b815260048101829052600060248201527f00000000000000000000000000000000000000000000000000000000000000006001600160a01b03169063c32e720290604401600060405180830381600087803b15801561170857600080fd5b505af115801561171c573d6000803e3d6000fd5b5050604051630d2680e960e11b8152600481018490526000602482018190526044820181905292507f00000000000000000000000000000000000000000000000000000000000000006001600160a01b03169150631a4d01d2906064016020604051808303816000875af1158015611798573d6000803e3d6000fd5b505050506040513d601f19601f820116820180604052508101906117bc9190612a83565b905073f939e0a03fb07f59a73314e73794be0e57ac1b4e6117fe817f00000000000000000000000000000000000000000000000000000000000000008461205e565b604051630f7c084960e21b8152600160048201526000602482018190526044820184905260648201869052907f00000000000000000000000000000000000000000000000000000000000000006001600160a01b031690633df02124906084016020604051808303816000875af115801561187d573d6000803e3d6000fd5b505050506040513d601f19601f820116820180604052508101906118a19190612a83565b905073a0b86991c6218b36c1d19d4a2e9eb0ce3606eb486118e3817f00000000000000000000000000000000000000000000000000000000000000008461205e565b60007f00000000000000000000000000000000000000000000000000000000000000006001600160a01b0316632d62af2f6040518060a001604052806000815260200186815260200160008152602001600081526020016000815250306040518363ffffffff1660e01b815260040161195d929190612bbb565b6020604051808303816000875af115801561197c573d6000803e3d6000fd5b505050506040513d601f19601f820116820180604052508101906119a09190612a83565b6040805160088082526101208201909252919250600091906020820161010080368337019050509050818160016001600160801b0316815181106119e6576119e6612a9c565b6020908102919091010152611a456001600160a01b037f0000000000000000000000000000000000000000000000000000000000000000167f00000000000000000000000000000000000000000000000000000000000000008461205e565b6000611a508261219a565b905080600e6000828254611a649190612b3b565b90915550611a7390508161222e565b50505050505050505050565b6000611a8b8383610d5a565b611b09576000838152602081815260408083206001600160a01b03861684529091529020805460ff19166001179055611ac13390565b6001600160a01b0316826001600160a01b0316847f2f8788117e7eff1d82e926ec794901d17c78024a50270940304540a733656f0d60405160405180910390a45060016106d6565b5060006106d6565b6000611b1d8383610d5a565b15611b09576000838152602081815260408083206001600160a01b0386168085529252808320805460ff1916905551339286917ff6391f5c32d9c69d2a47ea670b442974b53935d1edc7fd64eb21e047a839171b9190a45060016106d6565b60008082118015611b955750670de0b6b3a76400008211155b611bd95760405162461bcd60e51b815260206004820152601560248201527457726f6e6720506f6f6c546f6b656e20526174696f60581b6044820152606401610d0f565b670de0b6b3a764000082611bec600e5490565b611bf69190612be1565b6106d69190612bf8565b8015611c85576040516324f81cd160e11b8152600160048201527f00000000000000000000000000000000000000000000000000000000000000006001600160a01b0316906349f039a290602401600060405180830381600087803b158015611c6857600080fd5b505af1158015611c7c573d6000803e3d6000fd5b50505050611d07565b604051636197390160e11b815260048101849052600060248201527f00000000000000000000000000000000000000000000000000000000000000006001600160a01b03169063c32e720290604401600060405180830381600087803b158015611cee57600080fd5b505af1158015611d02573d6000803e3d6000fd5b505050505b61076e838383612357565b60408051600580825260c082019092526060916020820160a08036833701905050905060005b6005811015611d8a57828160058110611d5357611d53612a9c565b6020020151828281518110611d6a57611d6a612a9c565b6001600160a01b0390921660209283029190910190910152600101611d38565b50919050565b6040805160088082526101208201909252606091600091906020820161010080368337505084518251929350918391506001908110611dd157611dd1612a9c565b602090810291909101015292915050565b6040805160a081019182905260009182919060089060059082845b815481526020019060010190808311611dfd5750505050509050600080600090505b6005811015611e7457828160058110611e3a57611e3a612a9c565b6020020151858260058110611e5157611e51612a9c565b6020020151611e609190612be1565b611e6a9083612b3b565b9150600101611e1f565b50600061271060025483611e889190612be1565b611e929190612bf8565b905060007f00000000000000000000000000000000000000000000000000000000000000006001600160a01b0316633db06dd8611ece88611d90565b60016040518363ffffffff1660e01b8152600401611eed929190612b17565b602060405180830381865afa158015611f0a573d6000803e3d6000fd5b505050506040513d601f19601f82011682018060405250810190611f2e9190612a83565b905081670de0b6b3a7640000611f42612405565b611f4c9084612be1565b611f569190612bf8565b10159695505050505050565b600080611f8f7f000000000000000000000000000000000000000000000000000000000000000084612494565b9050611f9a8161219a565b9150611d8a8261222e565b6000670de0b6b3a7640000611fb8612405565b611bf69084612be1565b611fcc8282610d5a565b6107c55760405163e2517d3f60e01b81526001600160a01b038216600482015260248101839052604401610d0f565b60006120106001600160a01b03841683612542565b905080516000141580156120355750808060200190518101906120339190612b4e565b155b1561076e57604051635274afe760e01b81526001600160a01b0384166004820152602401610d0f565b604051636eb1769f60e11b81523060048201526001600160a01b0383811660248301526000919085169063dd62ed3e90604401602060405180830381865afa1580156120ae573d6000803e3d6000fd5b505050506040513d601f19601f820116820180604052508101906120d29190612a83565b905061085684846120e38585612b3b565b612550565b816001600160a01b0316836001600160a01b03160361210657505050565b600f54612120906001600160a01b03858116911683610edd565b600f54604051631a378db760e01b81526001600160a01b0385811660048301528481166024830152604482018490526000606483015290911690631a378db790608401600060405180830381600087803b15801561217d57600080fd5b505af1158015612191573d6000803e3d6000fd5b50505050505050565b604051635b96faef60e11b81526000906001600160a01b037f0000000000000000000000000000000000000000000000000000000000000000169063b72df5de906121eb9085908590600401612c1a565b6020604051808303816000875af115801561220a573d6000803e3d6000fd5b505050506040513d601f19601f820116820180604052508101906106d69190612a83565b6122826001600160a01b037f0000000000000000000000000000000000000000000000000000000000000000167f00000000000000000000000000000000000000000000000000000000000000008361205e565b6040516321d0683360e11b81527f0000000000000000000000000000000000000000000000000000000000000000600482015260248101829052600160448201527f00000000000000000000000000000000000000000000000000000000000000006001600160a01b0316906343a0d066906064016020604051808303816000875af1158015612316573d6000803e3d6000fd5b505050506040513d601f19601f8201168201806040525081019061233a9190612b4e565b610cb757604051632e62408b60e11b815260040160405180910390fd5b600160007f00000000000000000000000000000000000000000000000000000000000000006001600160a01b0316631a4d01d28684878560200201516040516001600160e01b031960e086901b1681526004810193909352600f9190910b602483015260448201526064016020604051808303816000875af11580156123e1573d6000803e3d6000fd5b505050506040513d601f19601f820116820180604052508101906111389190612a83565b600d54604051638b2f0f4f60e01b81526001600160a01b037f0000000000000000000000000000000000000000000000000000000000000000811660048301526000921690638b2f0f4f90602401602060405180830381865afa158015612470573d6000803e3d6000fd5b505050506040513d601f19601f82011682018060405250810190610ece9190612a83565b60408051600880825261012082019092526060916000919060208201610100803683375050845182519293509183915060019081106124d5576124d5612a9c565b602002602001018181525050610c1d848260016001600160801b03168151811061250157612501612a9c565b60200260200101517f00000000000000000000000000000000000000000000000000000000000000006001600160a01b031661205e9092919063ffffffff16565b6060610c1d838360006125e0565b604080516001600160a01b038416602482015260448082018490528251808303909101815260649091019091526020810180516001600160e01b031663095ea7b360e01b1790526125a1848261267d565b610856576040516001600160a01b038481166024830152600060448301526125d691869182169063095ea7b390606401610f0a565b6108568482611ffb565b6060814710156126055760405163cd78605960e01b8152306004820152602401610d0f565b600080856001600160a01b031684866040516126219190612c3c565b60006040518083038185875af1925050503d806000811461265e576040519150601f19603f3d011682016040523d82523d6000602084013e612663565b606091505b5091509150612673868383612725565b9695505050505050565b6000806000846001600160a01b03168460405161269a9190612c3c565b6000604051808303816000865af19150503d80600081146126d7576040519150601f19603f3d011682016040523d82523d6000602084013e6126dc565b606091505b50915091508180156127065750805115806127065750808060200190518101906127069190612b4e565b801561271c57506000856001600160a01b03163b115b95945050505050565b60608261273a5761273582612781565b610c1d565b815115801561275157506001600160a01b0384163b155b1561277a57604051639996b31560e01b81526001600160a01b0385166004820152602401610d0f565b5080610c1d565b8051156127915780518082602001fd5b604051630a12f52160e11b815260040160405180910390fd5b6000602082840312156127bc57600080fd5b81356001600160e01b031981168114610c1d57600080fd5b6001600160a01b0381168114610cb757600080fd5b6000602082840312156127fb57600080fd5b8135610c1d816127d4565b634e487b7160e01b600052604160045260246000fd5b604051601f8201601f1916810167ffffffffffffffff8111828210171561284557612845612806565b604052919050565b6000806040838503121561286057600080fd5b823561286b816127d4565b915060208381013567ffffffffffffffff8082111561288957600080fd5b818601915086601f83011261289d57600080fd5b8135818111156128af576128af612806565b8060051b91506128c084830161281c565b81815291830184019184810190898411156128da57600080fd5b938501935b8385101561290457843592506128f4836127d4565b82825293850193908501906128df565b8096505050505050509250929050565b60006020828403121561292657600080fd5b5035919050565b6000806040838503121561294057600080fd5b50508035926020909101359150565b6000806040838503121561296257600080fd5b823591506020830135612974816127d4565b809150509250929050565b600082601f83011261299057600080fd5b60405160a0810181811067ffffffffffffffff821117156129b3576129b3612806565b6040528060a08401858111156129c857600080fd5b845b818110156129e25780358352602092830192016129ca565b509195945050505050565b600080600060e08486031215612a0257600080fd5b8335612a0d816127d4565b925060208401359150612a23856040860161297f565b90509250925092565b600060a08284031215612a3e57600080fd5b610c1d838361297f565b8015158114610cb757600080fd5b60008060c08385031215612a6957600080fd5b612a73848461297f565b915060a083013561297481612a48565b600060208284031215612a9557600080fd5b5051919050565b634e487b7160e01b600052603260045260246000fd5b634e487b7160e01b600052601160045260246000fd5b818103818111156106d6576106d6612ab2565b60008151808452602080850194506020840160005b83811015612b0c57815187529582019590820190600101612af0565b509495945050505050565b604081526000612b2a6040830185612adb565b905082151560208301529392505050565b808201808211156106d6576106d6612ab2565b600060208284031215612b6057600080fd5b8151610c1d81612a48565b8060005b6005811015610856578151845260209384019390910190600101612b6f565b83815260e08101612ba26020830185612b6b565b6001600160a01b039290921660c0919091015292915050565b60c08101612bc98285612b6b565b6001600160a01b039290921660a09190910152919050565b80820281158282048414176106d6576106d6612ab2565b600082612c1557634e487b7160e01b600052601260045260246000fd5b500490565b604081526000612c2d6040830185612adb565b90508260208301529392505050565b6000825160005b81811015612c5d5760208186018101518583015201612c43565b50600092019182525091905056fea2646970667358221220ce49c03fbd8c38b3b0dfc3f6580cfc8077a099f41cbdc6dfecfce12dfcf2392e64736f6c63430008170033",
  "linkReferences": {},
  "deployedLinkReferences": {}
}