{
  "_format": "hh-sol-artifact-1",
  "contractName": "ZunVestingDistributor",
  "sourceName": "contracts/tokenomics/distributor/vesting/ZunVestingDistributor.sol",
  "abi": [
    {
      "inputs": [
        {
          "internalType": "address[]",
          "name": "recipients_",
          "type": "address[]"
        },
        {
          "internalType": "uint256[]",
          "name": "allocations_",
          "type": "uint256[]"
        },
        {
          "internalType": "uint64",
          "name": "startTimestamp_",
          "type": "uint64"
        },
        {
          "internalType": "uint64",
          "name": "durationSeconds_",
          "type": "uint64"
        },
        {
          "internalType": "address",
          "name": "token_",
          "type": "address"
        },
        {
          "internalType": "address",
          "name": "owner_",
          "type": "address"
        }
      ],
      "stateMutability": "nonpayable",
      "type": "constructor"
    },
    {
      "inputs": [
        {
          "internalType": "address",
          "name": "target",
          "type": "address"
        }
      ],
      "name": "AddressEmptyCode",
      "type": "error"
    },
    {
      "inputs": [
        {
          "internalType": "address",
          "name": "account",
          "type": "address"
        }
      ],
      "name": "AddressInsufficientBalance",
      "type": "error"
    },
    {
      "inputs": [],
      "name": "EmptyAddress",
      "type": "error"
    },
    {
      "inputs": [
        {
          "internalType": "uint256",
          "name": "index",
          "type": "uint256"
        }
      ],
      "name": "EmptyRecipient",
      "type": "error"
    },
    {
      "inputs": [],
      "name": "FailedInnerCall",
      "type": "error"
    },
    {
      "inputs": [
        {
          "internalType": "address",
          "name": "owner",
          "type": "address"
        }
      ],
      "name": "OwnableInvalidOwner",
      "type": "error"
    },
    {
      "inputs": [
        {
          "internalType": "address",
          "name": "account",
          "type": "address"
        }
      ],
      "name": "OwnableUnauthorizedAccount",
      "type": "error"
    },
    {
      "inputs": [
        {
          "internalType": "address",
          "name": "token",
          "type": "address"
        }
      ],
      "name": "SafeERC20FailedOperation",
      "type": "error"
    },
    {
      "inputs": [],
      "name": "WrongArguments",
      "type": "error"
    },
    {
      "inputs": [],
      "name": "WrongStartTimestamp",
      "type": "error"
    },
    {
      "inputs": [
        {
          "internalType": "uint256",
          "name": "index",
          "type": "uint256"
        }
      ],
      "name": "ZeroAllocation",
      "type": "error"
    },
    {
      "inputs": [],
      "name": "ZeroClaimable",
      "type": "error"
    },
    {
      "anonymous": false,
      "inputs": [
        {
          "indexed": true,
          "internalType": "address",
          "name": "user",
          "type": "address"
        },
        {
          "indexed": false,
          "internalType": "uint256",
          "name": "amount",
          "type": "uint256"
        }
      ],
      "name": "Allocated",
      "type": "event"
    },
    {
      "anonymous": false,
      "inputs": [
        {
          "indexed": true,
          "internalType": "address",
          "name": "user",
          "type": "address"
        },
        {
          "indexed": false,
          "internalType": "uint256",
          "name": "amount",
          "type": "uint256"
        }
      ],
      "name": "Claimed",
      "type": "event"
    },
    {
      "anonymous": false,
      "inputs": [
        {
          "indexed": true,
          "internalType": "address",
          "name": "previousOwner",
          "type": "address"
        },
        {
          "indexed": true,
          "internalType": "address",
          "name": "newOwner",
          "type": "address"
        }
      ],
      "name": "OwnershipTransferStarted",
      "type": "event"
    },
    {
      "anonymous": false,
      "inputs": [
        {
          "indexed": true,
          "internalType": "address",
          "name": "previousOwner",
          "type": "address"
        },
        {
          "indexed": true,
          "internalType": "address",
          "name": "newOwner",
          "type": "address"
        }
      ],
      "name": "OwnershipTransferred",
      "type": "event"
    },
    {
      "inputs": [],
      "name": "acceptOwnership",
      "outputs": [],
      "stateMutability": "nonpayable",
      "type": "function"
    },
    {
      "inputs": [
        {
          "internalType": "address",
          "name": "",
          "type": "address"
        }
      ],
      "name": "allocation",
      "outputs": [
        {
          "internalType": "uint256",
          "name": "",
          "type": "uint256"
        }
      ],
      "stateMutability": "view",
      "type": "function"
    },
    {
      "inputs": [],
      "name": "claim",
      "outputs": [],
      "stateMutability": "nonpayable",
      "type": "function"
    },
    {
      "inputs": [
        {
          "internalType": "address",
          "name": "user",
          "type": "address"
        }
      ],
      "name": "claimable",
      "outputs": [
        {
          "internalType": "uint256",
          "name": "",
          "type": "uint256"
        }
      ],
      "stateMutability": "view",
      "type": "function"
    },
    {
      "inputs": [
        {
          "internalType": "uint64",
          "name": "timestamp",
          "type": "uint64"
        },
        {
          "internalType": "address",
          "name": "user",
          "type": "address"
        }
      ],
      "name": "claimableAmountOn",
      "outputs": [
        {
          "internalType": "uint256",
          "name": "",
          "type": "uint256"
        }
      ],
      "stateMutability": "view",
      "type": "function"
    },
    {
      "inputs": [
        {
          "internalType": "address",
          "name": "",
          "type": "address"
        }
      ],
      "name": "claimed",
      "outputs": [
        {
          "internalType": "uint256",
          "name": "",
          "type": "uint256"
        }
      ],
      "stateMutability": "view",
      "type": "function"
    },
    {
      "inputs": [],
      "name": "durationSeconds",
      "outputs": [
        {
          "internalType": "uint64",
          "name": "",
          "type": "uint64"
        }
      ],
      "stateMutability": "view",
      "type": "function"
    },
    {
      "inputs": [],
      "name": "owner",
      "outputs": [
        {
          "internalType": "address",
          "name": "",
          "type": "address"
        }
      ],
      "stateMutability": "view",
      "type": "function"
    },
    {
      "inputs": [],
      "name": "pendingOwner",
      "outputs": [
        {
          "internalType": "address",
          "name": "",
          "type": "address"
        }
      ],
      "stateMutability": "view",
      "type": "function"
    },
    {
      "inputs": [],
      "name": "renounceOwnership",
      "outputs": [],
      "stateMutability": "nonpayable",
      "type": "function"
    },
    {
      "inputs": [],
      "name": "startTimestamp",
      "outputs": [
        {
          "internalType": "uint64",
          "name": "",
          "type": "uint64"
        }
      ],
      "stateMutability": "view",
      "type": "function"
    },
    {
      "inputs": [],
      "name": "token",
      "outputs": [
        {
          "internalType": "contract IERC20",
          "name": "",
          "type": "address"
        }
      ],
      "stateMutability": "view",
      "type": "function"
    },
    {
      "inputs": [],
      "name": "totalAllocation",
      "outputs": [
        {
          "internalType": "uint256",
          "name": "",
          "type": "uint256"
        }
      ],
      "stateMutability": "view",
      "type": "function"
    },
    {
      "inputs": [],
      "name": "totalClaimed",
      "outputs": [
        {
          "internalType": "uint256",
          "name": "",
          "type": "uint256"
        }
      ],
      "stateMutability": "view",
      "type": "function"
    },
    {
      "inputs": [
        {
          "internalType": "address",
          "name": "newOwner",
          "type": "address"
        }
      ],
      "name": "transferOwnership",
      "outputs": [],
      "stateMutability": "nonpayable",
      "type": "function"
    },
    {
      "inputs": [],
      "name": "vestingEnd",
      "outputs": [
        {
          "internalType": "uint256",
          "name": "",
          "type": "uint256"
        }
      ],
      "stateMutability": "view",
      "type": "function"
    },
    {
      "inputs": [
        {
          "internalType": "contract IERC20",
          "name": "_token",
          "type": "address"
        }
      ],
      "name": "withdrawEmergency",
      "outputs": [],
      "stateMutability": "nonpayable",
      "type": "function"
    }
  ],
  "bytecode": "0x60e06040523480156200001157600080fd5b50604051620010ed380380620010ed833981016040819052620000349162000457565b806001600160a01b0381166200006557604051631e4fbdf760e01b8152600060048201526024015b60405180910390fd5b6200007081620002ce565b50855185518114620000955760405163666b2f9760e01b815260040160405180910390fd5b6001600160a01b038316620000bd57604051637138356f60e01b815260040160405180910390fd5b60005b818160ff161015620002a35760006001600160a01b0316888260ff1681518110620000ef57620000ef62000570565b60200260200101516001600160a01b031603620001255760405163acc1e4a360e01b815260ff821660048201526024016200005c565b868160ff16815181106200013d576200013d62000570565b60200260200101516000036200016c57604051638263f67b60e01b815260ff821660048201526024016200005c565b868160ff168151811062000184576200018462000570565b6020026020010151600360008a8460ff1681518110620001a857620001a862000570565b60200260200101516001600160a01b03166001600160a01b0316815260200190815260200160002081905550868160ff1681518110620001ec57620001ec62000570565b6020026020010151600560008282546200020791906200059c565b92505081905550878160ff168151811062000226576200022662000570565b60200260200101516001600160a01b03167f472f36e28bb47edb7c69c9e2ac00a77c66b505df54e9c818ac57110b0629e8c3888360ff168151811062000270576200027062000570565b60200260200101516040516200028891815260200190565b60405180910390a26200029b81620005b8565b9050620000c0565b5050506001600160401b03928316608052911660a0526001600160a01b031660c05250620005da9050565b600180546001600160a01b0319169055620002e981620002ec565b50565b600080546001600160a01b038381166001600160a01b0319831681178455604051919092169283917f8be0079c531659141344cd1fd0a4f28419497f9722a3daafe3b4186f6b6457e09190a35050565b634e487b7160e01b600052604160045260246000fd5b604051601f8201601f191681016001600160401b03811182821017156200037d576200037d6200033c565b604052919050565b60006001600160401b03821115620003a157620003a16200033c565b5060051b60200190565b80516001600160a01b0381168114620003c357600080fd5b919050565b600082601f830112620003da57600080fd5b81516020620003f3620003ed8362000385565b62000352565b8083825260208201915060208460051b8701019350868411156200041657600080fd5b602086015b848110156200043457805183529183019183016200041b565b509695505050505050565b80516001600160401b0381168114620003c357600080fd5b60008060008060008060c087890312156200047157600080fd5b86516001600160401b03808211156200048957600080fd5b818901915089601f8301126200049e57600080fd5b81516020620004b1620003ed8362000385565b82815260059290921b8401810191818101908d841115620004d157600080fd5b948201945b83861015620004fa57620004ea86620003ab565b82529482019490820190620004d6565b918c0151919a509093505050808211156200051457600080fd5b506200052389828a01620003c8565b95505062000534604088016200043f565b935062000544606088016200043f565b92506200055460808801620003ab565b91506200056460a08801620003ab565b90509295509295509295565b634e487b7160e01b600052603260045260246000fd5b634e487b7160e01b600052601160045260246000fd5b80820180821115620005b257620005b262000586565b92915050565b600060ff821660ff8103620005d157620005d162000586565b60010192915050565b60805160a05160c051610ab96200063460003960008181610285015261038701526000818161018b01528181610412015261057b015260008181610238015281816104330152818161051d01526105a00152610ab96000f3fe608060405234801561001057600080fd5b506004361061010b5760003560e01c8063a1c04f0e116100a2578063e30c397811610071578063e30c397814610222578063e6fd48bc14610233578063ef659de11461025a578063f2fde38b1461026d578063fc0c546a1461028057600080fd5b8063a1c04f0e146101c6578063b81b8630146101d9578063c884ef83146101f9578063d54ad2a11461021957600080fd5b806379ba5097116100de57806379ba50971461015157806384a1931f146101595780638da5cb5b146101615780639acba2af1461018657600080fd5b8063402914f5146101105780634e71d92d14610136578063715018a61461014057806379203dc414610148575b600080fd5b61012361011e3660046108ff565b6102a7565b6040519081526020015b60405180910390f35b61013e6102da565b005b61013e6103b1565b61012360055481565b61013e6103c5565b61012361040b565b6000546001600160a01b03165b6040516001600160a01b03909116815260200161012d565b6101ad7f000000000000000000000000000000000000000000000000000000000000000081565b60405167ffffffffffffffff909116815260200161012d565b61013e6101d43660046108ff565b610466565b6101236101e73660046108ff565b60036020526000908152604090205481565b6101236102073660046108ff565b60026020526000908152604090205481565b61012360045481565b6001546001600160a01b031661016e565b6101ad7f000000000000000000000000000000000000000000000000000000000000000081565b61012361026836600461091c565b6104f9565b61013e61027b3660046108ff565b6105f2565b61016e7f000000000000000000000000000000000000000000000000000000000000000081565b6001600160a01b0381166000908152600260205260408120546102ca42846104f9565b6102d49190610978565b92915050565b60006102e5336102a7565b9050806000036103085760405163be7538fb60e01b815260040160405180910390fd5b336000908152600260205260408120805483929061032790849061098b565b925050819055508060046000828254610340919061098b565b909155505060405181815233907fd8138f8a3f377c5259ca548e70e4c2de94f129f5a11036a15b69513cba2b426a9060200160405180910390a26103ae6001600160a01b037f0000000000000000000000000000000000000000000000000000000000000000163383610663565b50565b6103b96106ba565b6103c360006106e7565b565b60015433906001600160a01b031681146104025760405163118cdaa760e01b81526001600160a01b03821660048201526024015b60405180910390fd5b6103ae816106e7565b60006104577f00000000000000000000000000000000000000000000000000000000000000007f000000000000000000000000000000000000000000000000000000000000000061099e565b67ffffffffffffffff16905090565b61046e6106ba565b6040516370a0823160e01b81523060048201526000906001600160a01b038316906370a0823190602401602060405180830381865afa1580156104b5573d6000803e3d6000fd5b505050506040513d601f19601f820116820180604052508101906104d991906109bf565b905080156104f5576104f56001600160a01b0383163383610663565b5050565b6001600160a01b03811660009081526003602052604081205467ffffffffffffffff7f0000000000000000000000000000000000000000000000000000000000000000811690851610156105515760009150506102d4565b61055961040b565b8467ffffffffffffffff16106105705790506102d4565b67ffffffffffffffff7f0000000000000000000000000000000000000000000000000000000000000000166105c57f0000000000000000000000000000000000000000000000000000000000000000866109d8565b6105d99067ffffffffffffffff16836109f9565b6105e39190610a10565b9150506102d4565b5092915050565b6105fa6106ba565b600180546001600160a01b0383166001600160a01b0319909116811790915561062b6000546001600160a01b031690565b6001600160a01b03167f38d16b8cac22d99fc7c124b9cd0de2d3fa1faef420bfe791d8c362d765e2270060405160405180910390a350565b604080516001600160a01b038416602482015260448082018490528251808303909101815260649091019091526020810180516001600160e01b031663a9059cbb60e01b1790526106b5908490610700565b505050565b6000546001600160a01b031633146103c35760405163118cdaa760e01b81523360048201526024016103f9565b600180546001600160a01b03191690556103ae81610763565b60006107156001600160a01b038416836107b3565b9050805160001415801561073a5750808060200190518101906107389190610a32565b155b156106b557604051635274afe760e01b81526001600160a01b03841660048201526024016103f9565b600080546001600160a01b038381166001600160a01b0319831681178455604051919092169283917f8be0079c531659141344cd1fd0a4f28419497f9722a3daafe3b4186f6b6457e09190a35050565b60606107c1838360006107c8565b9392505050565b6060814710156107ed5760405163cd78605960e01b81523060048201526024016103f9565b600080856001600160a01b031684866040516108099190610a54565b60006040518083038185875af1925050503d8060008114610846576040519150601f19603f3d011682016040523d82523d6000602084013e61084b565b606091505b509150915061085b868383610865565b9695505050505050565b60608261087a57610875826108c1565b6107c1565b815115801561089157506001600160a01b0384163b155b156108ba57604051639996b31560e01b81526001600160a01b03851660048201526024016103f9565b50806107c1565b8051156108d15780518082602001fd5b604051630a12f52160e11b815260040160405180910390fd5b6001600160a01b03811681146103ae57600080fd5b60006020828403121561091157600080fd5b81356107c1816108ea565b6000806040838503121561092f57600080fd5b823567ffffffffffffffff8116811461094757600080fd5b91506020830135610957816108ea565b809150509250929050565b634e487b7160e01b600052601160045260246000fd5b818103818111156102d4576102d4610962565b808201808211156102d4576102d4610962565b67ffffffffffffffff8181168382160190808211156105eb576105eb610962565b6000602082840312156109d157600080fd5b5051919050565b67ffffffffffffffff8281168282160390808211156105eb576105eb610962565b80820281158282048414176102d4576102d4610962565b600082610a2d57634e487b7160e01b600052601260045260246000fd5b500490565b600060208284031215610a4457600080fd5b815180151581146107c157600080fd5b6000825160005b81811015610a755760208186018101518583015201610a5b565b50600092019182525091905056fea2646970667358221220f4bd3b9af00a5fc8410ca7582204cf0c4e9f12845aded72700d5c5411f15d3d064736f6c63430008170033",
  "linkReferences": {},
  "deployedLinkReferences": {}
}